{
  "_format": "hh-sol-artifact-1",
  "contractName": "LeverageModule",
  "sourceName": "src/LeverageModule.sol",
  "abi": [
    {
      "inputs": [],
      "stateMutability": "nonpayable",
      "type": "constructor"
    },
    {
      "inputs": [],
      "name": "AcceptAdminPendingAdminCheck",
      "type": "error"
    },
    {
      "inputs": [
        {
          "internalType": "uint256",
          "name": "actualAddAmount",
          "type": "uint256"
        }
      ],
      "name": "AddReservesFactorFreshCheck",
      "type": "error"
    },
    {
      "inputs": [],
      "name": "BorrowCashNotAvailable",
      "type": "error"
    },
    {
      "inputs": [
        {
          "internalType": "uint256",
          "name": "errorCode",
          "type": "uint256"
        }
      ],
      "name": "BorrowComptrollerRejection",
      "type": "error"
    },
    {
      "inputs": [],
      "name": "BorrowFreshnessCheck",
      "type": "error"
    },
    {
      "inputs": [
        {
          "internalType": "uint256",
          "name": "errorCode",
          "type": "uint256"
        }
      ],
      "name": "LiquidateAccrueBorrowInterestFailed",
      "type": "error"
    },
    {
      "inputs": [
        {
          "internalType": "uint256",
          "name": "errorCode",
          "type": "uint256"
        }
      ],
      "name": "LiquidateAccrueCollateralInterestFailed",
      "type": "error"
    },
    {
      "inputs": [],
      "name": "LiquidateCloseAmountIsUintMax",
      "type": "error"
    },
    {
      "inputs": [],
      "name": "LiquidateCloseAmountIsZero",
      "type": "error"
    },
    {
      "inputs": [],
      "name": "LiquidateCollateralFreshnessCheck",
      "type": "error"
    },
    {
      "inputs": [
        {
          "internalType": "uint256",
          "name": "errorCode",
          "type": "uint256"
        }
      ],
      "name": "LiquidateComptrollerRejection",
      "type": "error"
    },
    {
      "inputs": [],
      "name": "LiquidateFreshnessCheck",
      "type": "error"
    },
    {
      "inputs": [],
      "name": "LiquidateLiquidatorIsBorrower",
      "type": "error"
    },
    {
      "inputs": [
        {
          "internalType": "uint256",
          "name": "errorCode",
          "type": "uint256"
        }
      ],
      "name": "LiquidateRepayBorrowFreshFailed",
      "type": "error"
    },
    {
      "inputs": [
        {
          "internalType": "uint256",
          "name": "errorCode",
          "type": "uint256"
        }
      ],
      "name": "LiquidateSeizeComptrollerRejection",
      "type": "error"
    },
    {
      "inputs": [],
      "name": "LiquidateSeizeLiquidatorIsBorrower",
      "type": "error"
    },
    {
      "inputs": [
        {
          "internalType": "uint256",
          "name": "errorCode",
          "type": "uint256"
        }
      ],
      "name": "MintComptrollerRejection",
      "type": "error"
    },
    {
      "inputs": [],
      "name": "MintFreshnessCheck",
      "type": "error"
    },
    {
      "inputs": [
        {
          "internalType": "uint256",
          "name": "errorCode",
          "type": "uint256"
        }
      ],
      "name": "RedeemComptrollerRejection",
      "type": "error"
    },
    {
      "inputs": [],
      "name": "RedeemFreshnessCheck",
      "type": "error"
    },
    {
      "inputs": [],
      "name": "RedeemTransferOutNotPossible",
      "type": "error"
    },
    {
      "inputs": [],
      "name": "ReduceReservesAdminCheck",
      "type": "error"
    },
    {
      "inputs": [],
      "name": "ReduceReservesCashNotAvailable",
      "type": "error"
    },
    {
      "inputs": [],
      "name": "ReduceReservesCashValidation",
      "type": "error"
    },
    {
      "inputs": [],
      "name": "ReduceReservesFreshCheck",
      "type": "error"
    },
    {
      "inputs": [
        {
          "internalType": "uint256",
          "name": "errorCode",
          "type": "uint256"
        }
      ],
      "name": "RepayBorrowComptrollerRejection",
      "type": "error"
    },
    {
      "inputs": [],
      "name": "RepayBorrowFreshnessCheck",
      "type": "error"
    },
    {
      "inputs": [],
      "name": "SetComptrollerOwnerCheck",
      "type": "error"
    },
    {
      "inputs": [],
      "name": "SetInterestRateModelFreshCheck",
      "type": "error"
    },
    {
      "inputs": [],
      "name": "SetInterestRateModelOwnerCheck",
      "type": "error"
    },
    {
      "inputs": [],
      "name": "SetPendingAdminOwnerCheck",
      "type": "error"
    },
    {
      "inputs": [],
      "name": "SetReserveFactorAdminCheck",
      "type": "error"
    },
    {
      "inputs": [],
      "name": "SetReserveFactorBoundsCheck",
      "type": "error"
    },
    {
      "inputs": [],
      "name": "SetReserveFactorFreshCheck",
      "type": "error"
    },
    {
      "inputs": [
        {
          "internalType": "uint256",
          "name": "errorCode",
          "type": "uint256"
        }
      ],
      "name": "TransferComptrollerRejection",
      "type": "error"
    },
    {
      "inputs": [],
      "name": "TransferNotAllowed",
      "type": "error"
    },
    {
      "inputs": [],
      "name": "TransferNotEnough",
      "type": "error"
    },
    {
      "inputs": [],
      "name": "TransferTooMuch",
      "type": "error"
    },
    {
      "anonymous": false,
      "inputs": [
        {
          "indexed": false,
          "internalType": "uint256",
          "name": "cashPrior",
          "type": "uint256"
        },
        {
          "indexed": false,
          "internalType": "uint256",
          "name": "interestAccumulated",
          "type": "uint256"
        },
        {
          "indexed": false,
          "internalType": "uint256",
          "name": "borrowIndex",
          "type": "uint256"
        },
        {
          "indexed": false,
          "internalType": "uint256",
          "name": "totalBorrows",
          "type": "uint256"
        }
      ],
      "name": "AccrueInterest",
      "type": "event"
    },
    {
      "anonymous": false,
      "inputs": [
        {
          "indexed": true,
          "internalType": "address",
          "name": "owner",
          "type": "address"
        },
        {
          "indexed": true,
          "internalType": "address",
          "name": "spender",
          "type": "address"
        },
        {
          "indexed": false,
          "internalType": "uint256",
          "name": "amount",
          "type": "uint256"
        }
      ],
      "name": "Approval",
      "type": "event"
    },
    {
      "anonymous": false,
      "inputs": [
        {
          "indexed": false,
          "internalType": "address",
          "name": "borrower",
          "type": "address"
        },
        {
          "indexed": false,
          "internalType": "uint256",
          "name": "borrowAmount",
          "type": "uint256"
        },
        {
          "indexed": false,
          "internalType": "uint256",
          "name": "accountBorrows",
          "type": "uint256"
        },
        {
          "indexed": false,
          "internalType": "uint256",
          "name": "totalBorrows",
          "type": "uint256"
        }
      ],
      "name": "Borrow",
      "type": "event"
    },
    {
      "anonymous": false,
      "inputs": [
        {
          "indexed": false,
          "internalType": "address",
          "name": "liquidator",
          "type": "address"
        },
        {
          "indexed": false,
          "internalType": "address",
          "name": "borrower",
          "type": "address"
        },
        {
          "indexed": false,
          "internalType": "uint256",
          "name": "repayAmount",
          "type": "uint256"
        },
        {
          "indexed": false,
          "internalType": "address",
          "name": "cTokenCollateral",
          "type": "address"
        },
        {
          "indexed": false,
          "internalType": "uint256",
          "name": "seizeTokens",
          "type": "uint256"
        }
      ],
      "name": "LiquidateBorrow",
      "type": "event"
    },
    {
      "anonymous": false,
      "inputs": [
        {
          "indexed": false,
          "internalType": "address",
          "name": "minter",
          "type": "address"
        },
        {
          "indexed": false,
          "internalType": "uint256",
          "name": "mintAmount",
          "type": "uint256"
        },
        {
          "indexed": false,
          "internalType": "uint256",
          "name": "mintTokens",
          "type": "uint256"
        }
      ],
      "name": "Mint",
      "type": "event"
    },
    {
      "anonymous": false,
      "inputs": [
        {
          "indexed": false,
          "internalType": "address",
          "name": "oldAdmin",
          "type": "address"
        },
        {
          "indexed": false,
          "internalType": "address",
          "name": "newAdmin",
          "type": "address"
        }
      ],
      "name": "NewAdmin",
      "type": "event"
    },
    {
      "anonymous": false,
      "inputs": [
        {
          "indexed": false,
          "internalType": "contract ComptrollerInterface",
          "name": "oldComptroller",
          "type": "address"
        },
        {
          "indexed": false,
          "internalType": "contract ComptrollerInterface",
          "name": "newComptroller",
          "type": "address"
        }
      ],
      "name": "NewComptroller",
      "type": "event"
    },
    {
      "anonymous": false,
      "inputs": [
        {
          "indexed": false,
          "internalType": "contract InterestRateModel",
          "name": "oldInterestRateModel",
          "type": "address"
        },
        {
          "indexed": false,
          "internalType": "contract InterestRateModel",
          "name": "newInterestRateModel",
          "type": "address"
        }
      ],
      "name": "NewMarketInterestRateModel",
      "type": "event"
    },
    {
      "anonymous": false,
      "inputs": [
        {
          "indexed": false,
          "internalType": "address",
          "name": "oldPendingAdmin",
          "type": "address"
        },
        {
          "indexed": false,
          "internalType": "address",
          "name": "newPendingAdmin",
          "type": "address"
        }
      ],
      "name": "NewPendingAdmin",
      "type": "event"
    },
    {
      "anonymous": false,
      "inputs": [
        {
          "indexed": false,
          "internalType": "uint256",
          "name": "oldReserveFactorMantissa",
          "type": "uint256"
        },
        {
          "indexed": false,
          "internalType": "uint256",
          "name": "newReserveFactorMantissa",
          "type": "uint256"
        }
      ],
      "name": "NewReserveFactor",
      "type": "event"
    },
    {
      "anonymous": false,
      "inputs": [
        {
          "indexed": false,
          "internalType": "address",
          "name": "redeemer",
          "type": "address"
        },
        {
          "indexed": false,
          "internalType": "uint256",
          "name": "redeemAmount",
          "type": "uint256"
        },
        {
          "indexed": false,
          "internalType": "uint256",
          "name": "redeemTokens",
          "type": "uint256"
        }
      ],
      "name": "Redeem",
      "type": "event"
    },
    {
      "anonymous": false,
      "inputs": [
        {
          "indexed": false,
          "internalType": "address",
          "name": "payer",
          "type": "address"
        },
        {
          "indexed": false,
          "internalType": "address",
          "name": "borrower",
          "type": "address"
        },
        {
          "indexed": false,
          "internalType": "uint256",
          "name": "repayAmount",
          "type": "uint256"
        },
        {
          "indexed": false,
          "internalType": "uint256",
          "name": "accountBorrows",
          "type": "uint256"
        },
        {
          "indexed": false,
          "internalType": "uint256",
          "name": "totalBorrows",
          "type": "uint256"
        }
      ],
      "name": "RepayBorrow",
      "type": "event"
    },
    {
      "anonymous": false,
      "inputs": [
        {
          "indexed": false,
          "internalType": "address",
          "name": "benefactor",
          "type": "address"
        },
        {
          "indexed": false,
          "internalType": "uint256",
          "name": "addAmount",
          "type": "uint256"
        },
        {
          "indexed": false,
          "internalType": "uint256",
          "name": "newTotalReserves",
          "type": "uint256"
        }
      ],
      "name": "ReservesAdded",
      "type": "event"
    },
    {
      "anonymous": false,
      "inputs": [
        {
          "indexed": false,
          "internalType": "address",
          "name": "admin",
          "type": "address"
        },
        {
          "indexed": false,
          "internalType": "uint256",
          "name": "reduceAmount",
          "type": "uint256"
        },
        {
          "indexed": false,
          "internalType": "uint256",
          "name": "newTotalReserves",
          "type": "uint256"
        }
      ],
      "name": "ReservesReduced",
      "type": "event"
    },
    {
      "anonymous": false,
      "inputs": [
        {
          "indexed": true,
          "internalType": "address",
          "name": "from",
          "type": "address"
        },
        {
          "indexed": true,
          "internalType": "address",
          "name": "to",
          "type": "address"
        },
        {
          "indexed": false,
          "internalType": "uint256",
          "name": "amount",
          "type": "uint256"
        }
      ],
      "name": "Transfer",
      "type": "event"
    },
    {
      "inputs": [],
      "name": "NO_ERROR",
      "outputs": [
        {
          "internalType": "uint256",
          "name": "",
          "type": "uint256"
        }
      ],
      "stateMutability": "view",
      "type": "function"
    },
    {
      "inputs": [],
      "name": "_acceptAdmin",
      "outputs": [
        {
          "internalType": "uint256",
          "name": "",
          "type": "uint256"
        }
      ],
      "stateMutability": "nonpayable",
      "type": "function"
    },
    {
      "inputs": [
        {
          "internalType": "uint256",
          "name": "addAmount",
          "type": "uint256"
        }
      ],
      "name": "_addReserves",
      "outputs": [
        {
          "internalType": "uint256",
          "name": "",
          "type": "uint256"
        }
      ],
      "stateMutability": "nonpayable",
      "type": "function"
    },
    {
      "inputs": [
        {
          "internalType": "address",
          "name": "compLikeDelegatee",
          "type": "address"
        }
      ],
      "name": "_delegateCompLikeTo",
      "outputs": [],
      "stateMutability": "nonpayable",
      "type": "function"
    },
    {
      "inputs": [
        {
          "internalType": "uint256",
          "name": "reduceAmount",
          "type": "uint256"
        }
      ],
      "name": "_reduceReserves",
      "outputs": [
        {
          "internalType": "uint256",
          "name": "",
          "type": "uint256"
        }
      ],
      "stateMutability": "nonpayable",
      "type": "function"
    },
    {
      "inputs": [
        {
          "internalType": "contract ComptrollerInterface",
          "name": "newComptroller",
          "type": "address"
        }
      ],
      "name": "_setComptroller",
      "outputs": [
        {
          "internalType": "uint256",
          "name": "",
          "type": "uint256"
        }
      ],
      "stateMutability": "nonpayable",
      "type": "function"
    },
    {
      "inputs": [
        {
          "internalType": "contract InterestRateModel",
          "name": "newInterestRateModel",
          "type": "address"
        }
      ],
      "name": "_setInterestRateModel",
      "outputs": [
        {
          "internalType": "uint256",
          "name": "",
          "type": "uint256"
        }
      ],
      "stateMutability": "nonpayable",
      "type": "function"
    },
    {
      "inputs": [
        {
          "internalType": "address payable",
          "name": "newPendingAdmin",
          "type": "address"
        }
      ],
      "name": "_setPendingAdmin",
      "outputs": [
        {
          "internalType": "uint256",
          "name": "",
          "type": "uint256"
        }
      ],
      "stateMutability": "nonpayable",
      "type": "function"
    },
    {
      "inputs": [
        {
          "internalType": "uint256",
          "name": "newReserveFactorMantissa",
          "type": "uint256"
        }
      ],
      "name": "_setReserveFactor",
      "outputs": [
        {
          "internalType": "uint256",
          "name": "",
          "type": "uint256"
        }
      ],
      "stateMutability": "nonpayable",
      "type": "function"
    },
    {
      "inputs": [],
      "name": "accrualBlockNumber",
      "outputs": [
        {
          "internalType": "uint256",
          "name": "",
          "type": "uint256"
        }
      ],
      "stateMutability": "view",
      "type": "function"
    },
    {
      "inputs": [],
      "name": "accrueInterest",
      "outputs": [
        {
          "internalType": "uint256",
          "name": "",
          "type": "uint256"
        }
      ],
      "stateMutability": "nonpayable",
      "type": "function"
    },
    {
      "inputs": [],
      "name": "admin",
      "outputs": [
        {
          "internalType": "address payable",
          "name": "",
          "type": "address"
        }
      ],
      "stateMutability": "view",
      "type": "function"
    },
    {
      "inputs": [
        {
          "internalType": "address",
          "name": "owner",
          "type": "address"
        },
        {
          "internalType": "address",
          "name": "spender",
          "type": "address"
        }
      ],
      "name": "allowance",
      "outputs": [
        {
          "internalType": "uint256",
          "name": "",
          "type": "uint256"
        }
      ],
      "stateMutability": "view",
      "type": "function"
    },
    {
      "inputs": [
        {
          "internalType": "address",
          "name": "spender",
          "type": "address"
        },
        {
          "internalType": "uint256",
          "name": "amount",
          "type": "uint256"
        }
      ],
      "name": "approve",
      "outputs": [
        {
          "internalType": "bool",
          "name": "",
          "type": "bool"
        }
      ],
      "stateMutability": "nonpayable",
      "type": "function"
    },
    {
      "inputs": [
        {
          "internalType": "address",
          "name": "owner",
          "type": "address"
        }
      ],
      "name": "balanceOf",
      "outputs": [
        {
          "internalType": "uint256",
          "name": "",
          "type": "uint256"
        }
      ],
      "stateMutability": "view",
      "type": "function"
    },
    {
      "inputs": [
        {
          "internalType": "address",
          "name": "owner",
          "type": "address"
        }
      ],
      "name": "balanceOfUnderlying",
      "outputs": [
        {
          "internalType": "uint256",
          "name": "",
          "type": "uint256"
        }
      ],
      "stateMutability": "nonpayable",
      "type": "function"
    },
    {
      "inputs": [
        {
          "internalType": "uint256",
          "name": "borrowAmount",
          "type": "uint256"
        }
      ],
      "name": "borrow",
      "outputs": [
        {
          "internalType": "uint256",
          "name": "",
          "type": "uint256"
        }
      ],
      "stateMutability": "nonpayable",
      "type": "function"
    },
    {
      "inputs": [
        {
          "internalType": "address",
          "name": "account",
          "type": "address"
        }
      ],
      "name": "borrowBalanceCurrent",
      "outputs": [
        {
          "internalType": "uint256",
          "name": "",
          "type": "uint256"
        }
      ],
      "stateMutability": "nonpayable",
      "type": "function"
    },
    {
      "inputs": [
        {
          "internalType": "address",
          "name": "account",
          "type": "address"
        }
      ],
      "name": "borrowBalanceStored",
      "outputs": [
        {
          "internalType": "uint256",
          "name": "",
          "type": "uint256"
        }
      ],
      "stateMutability": "view",
      "type": "function"
    },
    {
      "inputs": [],
      "name": "borrowIndex",
      "outputs": [
        {
          "internalType": "uint256",
          "name": "",
          "type": "uint256"
        }
      ],
      "stateMutability": "view",
      "type": "function"
    },
    {
      "inputs": [
        {
          "internalType": "address",
          "name": "borrower",
          "type": "address"
        },
        {
          "internalType": "uint256",
          "name": "borrowAmount",
          "type": "uint256"
        }
      ],
      "name": "borrowInternalBehalf",
      "outputs": [],
      "stateMutability": "nonpayable",
      "type": "function"
    },
    {
      "inputs": [],
      "name": "borrowRatePerBlock",
      "outputs": [
        {
          "internalType": "uint256",
          "name": "",
          "type": "uint256"
        }
      ],
      "stateMutability": "view",
      "type": "function"
    },
    {
      "inputs": [],
      "name": "comptroller",
      "outputs": [
        {
          "internalType": "contract ComptrollerInterface",
          "name": "",
          "type": "address"
        }
      ],
      "stateMutability": "view",
      "type": "function"
    },
    {
      "inputs": [],
      "name": "decimals",
      "outputs": [
        {
          "internalType": "uint8",
          "name": "",
          "type": "uint8"
        }
      ],
      "stateMutability": "view",
      "type": "function"
    },
    {
      "inputs": [],
      "name": "exchangeRateCurrent",
      "outputs": [
        {
          "internalType": "uint256",
          "name": "",
          "type": "uint256"
        }
      ],
      "stateMutability": "nonpayable",
      "type": "function"
    },
    {
      "inputs": [],
      "name": "exchangeRateStored",
      "outputs": [
        {
          "internalType": "uint256",
          "name": "",
          "type": "uint256"
        }
      ],
      "stateMutability": "view",
      "type": "function"
    },
    {
      "inputs": [
        {
          "internalType": "address",
          "name": "account",
          "type": "address"
        }
      ],
      "name": "getAccountSnapshot",
      "outputs": [
        {
          "internalType": "uint256",
          "name": "",
          "type": "uint256"
        },
        {
          "internalType": "uint256",
          "name": "",
          "type": "uint256"
        },
        {
          "internalType": "uint256",
          "name": "",
          "type": "uint256"
        },
        {
          "internalType": "uint256",
          "name": "",
          "type": "uint256"
        }
      ],
      "stateMutability": "view",
      "type": "function"
    },
    {
      "inputs": [],
      "name": "getCash",
      "outputs": [
        {
          "internalType": "uint256",
          "name": "",
          "type": "uint256"
        }
      ],
      "stateMutability": "view",
      "type": "function"
    },
    {
      "inputs": [
        {
          "internalType": "address",
          "name": "underlying_",
          "type": "address"
        },
        {
          "internalType": "address",
          "name": "comptroller_",
          "type": "address"
        },
        {
          "internalType": "contract InterestRateModel",
          "name": "interestRateModel_",
          "type": "address"
        },
        {
          "internalType": "uint256",
          "name": "initialExchangeRateMantissa_",
          "type": "uint256"
        },
        {
          "internalType": "string",
          "name": "name_",
          "type": "string"
        },
        {
          "internalType": "string",
          "name": "symbol_",
          "type": "string"
        },
        {
          "internalType": "uint8",
          "name": "decimals_",
          "type": "uint8"
        }
      ],
      "name": "init_",
      "outputs": [],
      "stateMutability": "nonpayable",
      "type": "function"
    },
    {
      "inputs": [
        {
          "internalType": "address",
          "name": "underlying_",
          "type": "address"
        },
        {
          "internalType": "contract ComptrollerInterface",
          "name": "comptroller_",
          "type": "address"
        },
        {
          "internalType": "contract InterestRateModel",
          "name": "interestRateModel_",
          "type": "address"
        },
        {
          "internalType": "uint256",
          "name": "initialExchangeRateMantissa_",
          "type": "uint256"
        },
        {
          "internalType": "string",
          "name": "name_",
          "type": "string"
        },
        {
          "internalType": "string",
          "name": "symbol_",
          "type": "string"
        },
        {
          "internalType": "uint8",
          "name": "decimals_",
          "type": "uint8"
        }
      ],
      "name": "initialize",
      "outputs": [],
      "stateMutability": "nonpayable",
      "type": "function"
    },
    {
      "inputs": [
        {
          "internalType": "contract ComptrollerInterface",
          "name": "comptroller_",
          "type": "address"
        },
        {
          "internalType": "contract InterestRateModel",
          "name": "interestRateModel_",
          "type": "address"
        },
        {
          "internalType": "uint256",
          "name": "initialExchangeRateMantissa_",
          "type": "uint256"
        },
        {
          "internalType": "string",
          "name": "name_",
          "type": "string"
        },
        {
          "internalType": "string",
          "name": "symbol_",
          "type": "string"
        },
        {
          "internalType": "uint8",
          "name": "decimals_",
          "type": "uint8"
        }
      ],
      "name": "initialize",
      "outputs": [],
      "stateMutability": "nonpayable",
      "type": "function"
    },
    {
      "inputs": [],
      "name": "interestRateModel",
      "outputs": [
        {
          "internalType": "contract InterestRateModel",
          "name": "",
          "type": "address"
        }
      ],
      "stateMutability": "view",
      "type": "function"
    },
    {
      "inputs": [],
      "name": "isCToken",
      "outputs": [
        {
          "internalType": "bool",
          "name": "",
          "type": "bool"
        }
      ],
      "stateMutability": "view",
      "type": "function"
    },
    {
      "inputs": [
        {
          "internalType": "address",
          "name": "borrower",
          "type": "address"
        },
        {
          "internalType": "uint256",
          "name": "repayAmount",
          "type": "uint256"
        },
        {
          "internalType": "contract CTokenInterface",
          "name": "cTokenCollateral",
          "type": "address"
        }
      ],
      "name": "liquidateBorrow",
      "outputs": [
        {
          "internalType": "uint256",
          "name": "",
          "type": "uint256"
        }
      ],
      "stateMutability": "nonpayable",
      "type": "function"
    },
    {
      "inputs": [
        {
          "internalType": "uint256",
          "name": "mintAmount",
          "type": "uint256"
        }
      ],
      "name": "mint",
      "outputs": [
        {
          "internalType": "uint256",
          "name": "",
          "type": "uint256"
        }
      ],
      "stateMutability": "nonpayable",
      "type": "function"
    },
    {
      "inputs": [
        {
          "internalType": "address",
          "name": "minter",
          "type": "address"
        },
        {
          "internalType": "uint256",
          "name": "mintAmount",
          "type": "uint256"
        }
      ],
      "name": "mintInternalBehalf",
      "outputs": [],
      "stateMutability": "nonpayable",
      "type": "function"
    },
    {
      "inputs": [],
      "name": "name",
      "outputs": [
        {
          "internalType": "string",
          "name": "",
          "type": "string"
        }
      ],
      "stateMutability": "view",
      "type": "function"
    },
    {
      "inputs": [
        {
          "internalType": "address",
          "name": "initiator",
          "type": "address"
        },
        {
          "internalType": "address",
          "name": "token",
          "type": "address"
        },
        {
          "internalType": "uint256",
          "name": "amount",
          "type": "uint256"
        },
        {
          "internalType": "uint256",
          "name": "fee",
          "type": "uint256"
        },
        {
          "internalType": "bytes",
          "name": "data",
          "type": "bytes"
        }
      ],
      "name": "onFlashLoan",
      "outputs": [
        {
          "internalType": "bytes32",
          "name": "",
          "type": "bytes32"
        }
      ],
      "stateMutability": "nonpayable",
      "type": "function"
    },
    {
      "inputs": [],
      "name": "pendingAdmin",
      "outputs": [
        {
          "internalType": "address payable",
          "name": "",
          "type": "address"
        }
      ],
      "stateMutability": "view",
      "type": "function"
    },
    {
      "inputs": [],
      "name": "precision",
      "outputs": [
        {
          "internalType": "uint256",
          "name": "",
          "type": "uint256"
        }
      ],
      "stateMutability": "view",
      "type": "function"
    },
    {
      "inputs": [],
      "name": "protocolSeizeShareMantissa",
      "outputs": [
        {
          "internalType": "uint256",
          "name": "",
          "type": "uint256"
        }
      ],
      "stateMutability": "view",
      "type": "function"
    },
    {
      "inputs": [
        {
          "internalType": "uint256",
          "name": "redeemTokens",
          "type": "uint256"
        }
      ],
      "name": "redeem",
      "outputs": [
        {
          "internalType": "uint256",
          "name": "",
          "type": "uint256"
        }
      ],
      "stateMutability": "nonpayable",
      "type": "function"
    },
    {
      "inputs": [
        {
          "internalType": "address",
          "name": "redeemer",
          "type": "address"
        },
        {
          "internalType": "uint256",
          "name": "redeemAmount",
          "type": "uint256"
        }
      ],
      "name": "redeemInternalBehalf",
      "outputs": [],
      "stateMutability": "nonpayable",
      "type": "function"
    },
    {
      "inputs": [
        {
          "internalType": "uint256",
          "name": "redeemAmount",
          "type": "uint256"
        }
      ],
      "name": "redeemUnderlying",
      "outputs": [
        {
          "internalType": "uint256",
          "name": "",
          "type": "uint256"
        }
      ],
      "stateMutability": "nonpayable",
      "type": "function"
    },
    {
      "inputs": [
        {
          "internalType": "uint256",
          "name": "repayAmount",
          "type": "uint256"
        }
      ],
      "name": "repayBorrow",
      "outputs": [
        {
          "internalType": "uint256",
          "name": "",
          "type": "uint256"
        }
      ],
      "stateMutability": "nonpayable",
      "type": "function"
    },
    {
      "inputs": [
        {
          "internalType": "address",
          "name": "borrower",
          "type": "address"
        },
        {
          "internalType": "uint256",
          "name": "repayAmount",
          "type": "uint256"
        }
      ],
      "name": "repayBorrowBehalf",
      "outputs": [
        {
          "internalType": "uint256",
          "name": "",
          "type": "uint256"
        }
      ],
      "stateMutability": "nonpayable",
      "type": "function"
    },
    {
      "inputs": [],
      "name": "reserveFactorMantissa",
      "outputs": [
        {
          "internalType": "uint256",
          "name": "",
          "type": "uint256"
        }
      ],
      "stateMutability": "view",
      "type": "function"
    },
    {
      "inputs": [
        {
          "internalType": "uint256",
          "name": "priceLimit",
          "type": "uint256"
        },
        {
          "internalType": "uint256",
          "name": "vaultId",
          "type": "uint256"
        },
        {
          "internalType": "address",
          "name": "amm",
          "type": "address"
        }
      ],
      "name": "rewindFullLeverage",
      "outputs": [],
      "stateMutability": "nonpayable",
      "type": "function"
    },
    {
      "inputs": [
        {
          "internalType": "address",
          "name": "liquidator",
          "type": "address"
        },
        {
          "internalType": "address",
          "name": "borrower",
          "type": "address"
        },
        {
          "internalType": "uint256",
          "name": "seizeTokens",
          "type": "uint256"
        }
      ],
      "name": "seize",
      "outputs": [
        {
          "internalType": "uint256",
          "name": "",
          "type": "uint256"
        }
      ],
      "stateMutability": "nonpayable",
      "type": "function"
    },
    {
      "inputs": [
        {
          "internalType": "address",
          "name": "newAdmin",
          "type": "address"
        }
      ],
      "name": "setInitialAdmin",
      "outputs": [],
      "stateMutability": "nonpayable",
      "type": "function"
    },
    {
      "inputs": [
        {
          "internalType": "address",
          "name": "_pair",
          "type": "address"
        }
      ],
      "name": "setPair",
      "outputs": [],
      "stateMutability": "nonpayable",
      "type": "function"
    },
    {
      "inputs": [
        {
          "internalType": "address",
          "name": "_master",
          "type": "address"
        },
        {
          "internalType": "bool",
          "name": "isSenior",
          "type": "bool"
        }
      ],
      "name": "setTrancheMaster",
      "outputs": [],
      "stateMutability": "nonpayable",
      "type": "function"
    },
    {
      "inputs": [],
      "name": "supplyRatePerBlock",
      "outputs": [
        {
          "internalType": "uint256",
          "name": "",
          "type": "uint256"
        }
      ],
      "stateMutability": "view",
      "type": "function"
    },
    {
      "inputs": [
        {
          "internalType": "uint256",
          "name": "startAmount",
          "type": "uint256"
        },
        {
          "internalType": "uint256",
          "name": "leverage",
          "type": "uint256"
        },
        {
          "internalType": "uint256",
          "name": "priceLimit",
          "type": "uint256"
        },
        {
          "internalType": "uint256",
          "name": "vaultId",
          "type": "uint256"
        },
        {
          "internalType": "address",
          "name": "amm",
          "type": "address"
        },
        {
          "internalType": "bytes",
          "name": "data",
          "type": "bytes"
        }
      ],
      "name": "swapWithLeverage",
      "outputs": [],
      "stateMutability": "nonpayable",
      "type": "function"
    },
    {
      "inputs": [
        {
          "internalType": "contract EIP20NonStandardInterface",
          "name": "token",
          "type": "address"
        }
      ],
      "name": "sweepToken",
      "outputs": [],
      "stateMutability": "nonpayable",
      "type": "function"
    },
    {
      "inputs": [],
      "name": "symbol",
      "outputs": [
        {
          "internalType": "string",
          "name": "",
          "type": "string"
        }
      ],
      "stateMutability": "view",
      "type": "function"
    },
    {
      "inputs": [],
      "name": "totalBorrows",
      "outputs": [
        {
          "internalType": "uint256",
          "name": "",
          "type": "uint256"
        }
      ],
      "stateMutability": "view",
      "type": "function"
    },
    {
      "inputs": [],
      "name": "totalBorrowsCurrent",
      "outputs": [
        {
          "internalType": "uint256",
          "name": "",
          "type": "uint256"
        }
      ],
      "stateMutability": "nonpayable",
      "type": "function"
    },
    {
      "inputs": [],
      "name": "totalReserves",
      "outputs": [
        {
          "internalType": "uint256",
          "name": "",
          "type": "uint256"
        }
      ],
      "stateMutability": "view",
      "type": "function"
    },
    {
      "inputs": [],
      "name": "totalSupply",
      "outputs": [
        {
          "internalType": "uint256",
          "name": "",
          "type": "uint256"
        }
      ],
      "stateMutability": "view",
      "type": "function"
    },
    {
      "inputs": [
        {
          "internalType": "address",
          "name": "dst",
          "type": "address"
        },
        {
          "internalType": "uint256",
          "name": "amount",
          "type": "uint256"
        }
      ],
      "name": "transfer",
      "outputs": [
        {
          "internalType": "bool",
          "name": "",
          "type": "bool"
        }
      ],
      "stateMutability": "nonpayable",
      "type": "function"
    },
    {
      "inputs": [
        {
          "internalType": "address",
          "name": "src",
          "type": "address"
        },
        {
          "internalType": "address",
          "name": "dst",
          "type": "address"
        },
        {
          "internalType": "uint256",
          "name": "amount",
          "type": "uint256"
        }
      ],
      "name": "transferFrom",
      "outputs": [
        {
          "internalType": "bool",
          "name": "",
          "type": "bool"
        }
      ],
      "stateMutability": "nonpayable",
      "type": "function"
    },
    {
      "inputs": [],
      "name": "underlying",
      "outputs": [
        {
          "internalType": "address",
          "name": "",
          "type": "address"
        }
      ],
      "stateMutability": "view",
      "type": "function"
    }
  ],
  "bytecode": "0x608060405234801561001057600080fd5b50614e28806100206000396000f3fe608060405234801561001057600080fd5b50600436106103c55760003560e01c806373acee98116101ff578063b71d1a0c1161011a578063e9c714f2116100ad578063f851a4401161007c578063f851a4401461082e578063f8f9da2814610846578063fca7820b1461084e578063fe9c44ae1461086157600080fd5b8063e9c714f2146107ed578063f2b3abbd146107f5578063f3fdb15a14610808578063f5e3c4621461081b57600080fd5b8063cca044dc116100e9578063cca044dc1461077f578063d3b5dc3b14610792578063db006a75146107a1578063dd62ed3e146107b457600080fd5b8063b71d1a0c1461071e578063bd6d894d14610731578063c37f68e214610739578063c5ebeaec1461076c57600080fd5b806399d8c1b411610192578063a9f7659511610161578063a9f76595146106e7578063aa5af0fd146106fa578063ae9d70b014610703578063b2a02ff11461070b57600080fd5b806399d8c1b4146106a6578063a0712d68146106b9578063a6afed95146106cc578063a9059cbb146106d457600080fd5b8063852a12e3116101ce578063852a12e31461066f5780638f840ddd1461068257806395d89b411461068b57806395dd91931461069357600080fd5b806373acee981461062e578063787338b9146106365780637f1e06be146106495780638187f5161461065c57600080fd5b8063313ce567116102ef5780635fe3b567116102825780636c540baf116102515780636c540baf146105d65780636f307dc3146105df57806370a08231146105f2578063726059211461061b57600080fd5b80635fe3b5671461059a578063601a0bf1146105ad5780636752e702146105c057806369ab3250146105ce57600080fd5b806342b15b91116102be57806342b15b91146105585780634459d0761461056b5780634576b5db1461057e57806347bd37181461059157600080fd5b8063313ce5671461050b5780633af9e6691461052a5780633b1d21a21461053d5780633e9410101461054557600080fd5b806318160ddd1161036757806323b872dd1161033657806323b872dd146104a757806323e30c8b146104ba5780632608f818146104cd57806326782247146104e057600080fd5b806318160ddd14610470578063182df0f5146104795780631a31d465146104815780631be195601461049457600080fd5b8063095ea7b3116103a3578063095ea7b3146104105780630e75270214610433578063173b99041461045457806317bfdfbc1461045d57600080fd5b8063028e8b9a146103ca57806306fdde03146103df57806308c60eac146103fd575b600080fd5b6103dd6103d83660046145ca565b610869565b005b6103e76108ac565b6040516103f49190614634565b60405180910390f35b6103dd61040b366004614655565b61093a565b61042361041e36600461468e565b6109c8565b60405190151581526020016103f4565b6104466104413660046146ba565b610a36565b6040519081526020016103f4565b61044660085481565b61044661046b3660046145ca565b610a49565b610446600d5481565b610446610a9c565b6103dd61048f36600461478c565b610aab565b6103dd6104a23660046145ca565b610b40565b6104236104b5366004614842565b610d0c565b6104466104c83660046148cc565b610d5c565b6104466104db36600461468e565b611710565b6004546104f3906001600160a01b031681565b6040516001600160a01b0390911681526020016103f4565b6003546105189060ff1681565b60405160ff90911681526020016103f4565b6104466105383660046145ca565b611725565b61044661176b565b6104466105533660046146ba565b611775565b6103dd61056636600461468e565b611786565b6103dd610579366004614948565b61179f565b61044661058c3660046145ca565b611979565b610446600b5481565b6005546104f3906001600160a01b031681565b6104466105bb3660046146ba565b611acb565b610446666379da05b6000081565b610446600081565b61044660095481565b6011546104f3906001600160a01b031681565b6104466106003660046145ca565b6001600160a01b03166000908152600e602052604090205490565b6103dd61062936600461478c565b611b0a565b610446611b22565b6103dd61064436600461468e565b611b6c565b6103dd6106573660046145ca565b611b7f565b6103dd61066a3660046145ca565b611c56565b61044661067d3660046146ba565b611c94565b610446600c5481565b6103e7611c9f565b6104466106a13660046145ca565b611cac565b6103dd6106b43660046149c5565b611cb7565b6104466106c73660046146ba565b611f12565b610446611f1d565b6104236106e236600461468e565b61210b565b6103dd6106f536600461468e565b61215a565b610446600a5481565b61044661216d565b610446610719366004614842565b612205565b61044661072c3660046145ca565b612254565b6104466122e1565b61074c6107473660046145ca565b612331565b6040805194855260208501939093529183015260608201526080016103f4565b61044661077a3660046146ba565b612372565b6103dd61078d366004614a67565b61237d565b610446670de0b6b3a764000081565b6104466107af3660046146ba565b61259b565b6104466107c2366004614aa0565b6001600160a01b039182166000908152600f6020908152604080832093909416825291909152205490565b6104466125a6565b6104466108033660046145ca565b6126ad565b6006546104f3906001600160a01b031681565b610446610829366004614ace565b6126c1565b6003546104f39061010090046001600160a01b031681565b6104466126d8565b61044661085c3660046146ba565b61272b565b610423600181565b60035461010090046001600160a01b03161561088457600080fd5b600380546001600160a01b0390921661010002610100600160a81b0319909216919091179055565b600180546108b990614b05565b80601f01602080910402602001604051908101604052809291908181526020018280546108e590614b05565b80156109325780601f1061090757610100808354040283529160200191610932565b820191906000526020600020905b81548152906001019060200180831161091557829003601f168201915b505050505081565b60035461010090046001600160a01b031633146109885760405162461bcd60e51b815260206004820152600760248201526630baba3422a92960c91b60448201526064015b60405180910390fd5b601280546001600160a01b039093166001600160a01b03199093169290921790915560138054911515600160a01b0260ff60a01b19909216919091179055565b336000818152600f602090815260408083206001600160a01b03871680855292528083208590555191929182907f8c5be1e5ebec7d5bd14f71427d1e84f3dd0314c0f7b2291e5b200ac8c7c3b92590610a249087815260200190565b60405180910390a35060019392505050565b6000610a418261276a565b506000919050565b6000805460ff16610a6c5760405162461bcd60e51b815260040161097f90614b40565b6000805460ff19169055610a7e611f1d565b50610a8882611cac565b90506000805460ff19166001179055919050565b6000610aa66127bb565b905090565b610ab9868686868686611cb7565b601180546001600160a01b0319166001600160a01b038916908117909155604080516318160ddd60e01b815290516318160ddd916004808201926020929091908290030181865afa158015610b12573d6000803e3d6000fd5b505050506040513d601f19601f82011682018060405250810190610b369190614b64565b5050505050505050565b60035461010090046001600160a01b03163314610bb75760405162461bcd60e51b815260206004820152602f60248201527f4345726332303a3a7377656570546f6b656e3a206f6e6c792061646d696e206360448201526e616e20737765657020746f6b656e7360881b606482015260840161097f565b6011546001600160a01b0382811691161415610c305760405162461bcd60e51b815260206004820152603260248201527f4345726332303a3a7377656570546f6b656e3a2063616e206e6f74207377656560448201527138103ab73232b9363cb4b733903a37b5b2b760711b606482015260840161097f565b6040516370a0823160e01b81523060048201526000906001600160a01b038316906370a0823190602401602060405180830381865afa158015610c77573d6000803e3d6000fd5b505050506040513d601f19601f82011682018060405250810190610c9b9190614b64565b60035460405163a9059cbb60e01b81529192506001600160a01b038085169263a9059cbb92610cd69261010090910416908590600401614b7d565b600060405180830381600087803b158015610cf057600080fd5b505af1158015610d04573d6000803e3d6000fd5b505050505050565b6000805460ff16610d2f5760405162461bcd60e51b815260040161097f90614b40565b6000805460ff19168155610d4533868686612825565b1490506000805460ff191660011790559392505050565b6000610dc160405180610120016040528060001515815260200160008152602001600081526020016000815260200160006001600160a01b0316815260200160006001600160a01b031681526020016000815260200160008152602001600081525090565b610dcd83850185614b96565b6001600160a01b0390811660a0880152166080860152606085015260408401526020830152151580825261123957610e1d670de0b6b3a76400008260200151610e169190614c13565b8790612a53565b610e279087614c2a565b60c0820181905260115460a083015160405163095ea7b360e01b81526001600160a01b039092169263095ea7b392610e63929190600401614b7d565b6020604051808303816000875af1158015610e82573d6000803e3d6000fd5b505050506040513d601f19601f82011682018060405250810190610ea69190614c42565b5060125460135460c083015160408085015160608601519151631774d44b60e31b81526001600160a01b039095169463bba6a25894610efa94600160a01b90910460ff16939092918b908b90600401614c5f565b60408051808303816000875af1158015610f18573d6000803e3d6000fd5b505050506040513d601f19601f82011682018060405250810190610f3c9190614cac565b61010083015260e082015260135460408051636f307dc360e01b815290516001600160a01b0390921691636f307dc3916004808201926020929091908290030181865afa158015610f91573d6000803e3d6000fd5b505050506040513d601f19601f82011682018060405250810190610fb59190614cd0565b6001600160a01b031663a9059cbb82608001518361010001516040518363ffffffff1660e01b8152600401610feb929190614b7d565b6020604051808303816000875af115801561100a573d6000803e3d6000fd5b505050506040513d601f19601f8201168201806040525081019061102e9190614c42565b50601354608082015161010083015160405163a9f7659560e01b81526001600160a01b039093169263a9f765959261106a929091600401614b7d565b600060405180830381600087803b15801561108457600080fd5b505af1158015611098573d6000803e3d6000fd5b505050506110aa816080015187611b6c565b60115460808201516040516323b872dd60e01b81526001600160a01b03909216916323b872dd916110e19130908b90600401614ced565b6020604051808303816000875af1158015611100573d6000803e3d6000fd5b505050506040513d601f19601f820116820180604052508101906111249190614c42565b506101008101516013546080830151604051633af9e66960e01b81526001600160a01b039182166004820152911690633af9e669906024016020604051808303816000875af115801561117b573d6000803e3d6000fd5b505050506040513d601f19601f8201168201806040525081019061119f9190614b64565b146111ec5760405162461bcd60e51b815260206004820152601960248201527f4c657665726167655377617020556e7375636365737366756c00000000000000604482015260640161097f565b856111fa8260800151611cac565b146112345760405162461bcd60e51b815260206004820152600a6024820152692137b93937bb9022b93960b11b604482015260640161097f565b6116e3565b60135460408051636f307dc360e01b815290516000926001600160a01b031691636f307dc39160048083019260209291908290030181865afa158015611283573d6000803e3d6000fd5b505050506040513d601f19601f820116820180604052508101906112a79190614cd0565b60808301516040516304c11f0360e31b81529192503091632608f818916112d2918b90600401614b7d565b6020604051808303816000875af11580156112f1573d6000803e3d6000fd5b505050506040513d601f19601f820116820180604052508101906113159190614b64565b5060135460808301516040516370a0823160e01b81526001600160a01b038083166004830152909216916342b15b91919083906370a0823190602401602060405180830381865afa15801561136e573d6000803e3d6000fd5b505050506040513d601f19601f820116820180604052508101906113929190614b64565b6040518363ffffffff1660e01b81526004016113af929190614b7d565b600060405180830381600087803b1580156113c957600080fd5b505af11580156113dd573d6000803e3d6000fd5b5050505060808201516040516370a0823160e01b81526001600160a01b0391821660048201526000918316906370a0823190602401602060405180830381865afa15801561142f573d6000803e3d6000fd5b505050506040513d601f19601f820116820180604052508101906114539190614b64565b60808401516040516323b872dd60e01b81529192506001600160a01b038416916323b872dd916114899130908690600401614ced565b6020604051808303816000875af11580156114a8573d6000803e3d6000fd5b505050506040513d601f19601f820116820180604052508101906114cc9190614c42565b5060a083015160c084015160405163095ea7b360e01b81526001600160a01b0385169263095ea7b39261150192600401614b7d565b6020604051808303816000875af1158015611520573d6000803e3d6000fd5b505050506040513d601f19601f820116820180604052508101906115449190614c42565b5060125460135460408581015160608701519151631774d44b60e31b81526001600160a01b039094169363bba6a2589361159693600160a01b90910460ff16159287929091908d908d90600401614c5f565b60408051808303816000875af11580156115b4573d6000803e3d6000fd5b505050506040513d601f19601f820116820180604052508101906115d89190614cac565b61010085015260e08401526013546080840151604051633af9e66960e01b81526001600160a01b039182166004820152911690633af9e669906024016020604051808303816000875af1158015611633573d6000803e3d6000fd5b505050506040513d601f19601f820116820180604052508101906116579190614b64565b1561169a5760405162461bcd60e51b815260206004820152601360248201527213195d995c9859d954ddd85c0811985a5b1959606a1b604482015260640161097f565b6116a78360800151611cac565b156116e05760405162461bcd60e51b81526020600482015260096024820152682932b830bc9022b93960b91b604482015260640161097f565b50505b507f439148f0bbc682ca079e46d6e2c2f0c1e3b820f1a291b069d8882abf8cf18dd9979650505050505050565b600061171c8383612a68565b50600092915050565b600080604051806020016040528061173b6122e1565b90526001600160a01b0384166000908152600e6020526040902054909150611764908290612aba565b9392505050565b6000610aa6612ada565b600061178082612b4f565b92915050565b61178e611f1d565b5061179b82826000612ba6565b5050565b6011546040516323b872dd60e01b81526001600160a01b03909116906323b872dd906117d390339030908c90600401614ced565b6020604051808303816000875af11580156117f2573d6000803e3d6000fd5b505050506040513d601f19601f820116820180604052508101906118169190614c42565b5060115460125460405163095ea7b360e01b81526001600160a01b039283169263095ea7b39261184d929116908b90600401614b7d565b6020604051808303816000875af115801561186c573d6000803e3d6000fd5b505050506040513d601f19601f820116820180604052508101906118909190614c42565b506040805160006020820181905291810188905260608101879052608081018690523360a08201526001600160a01b03851660c082015260e00160408051601f1981840301815291905290506000886118e98982612e83565b6118f39190614c13565b601154604051631dcea00f60e11b81529192506001600160a01b031690633b9d401e9061192a903090849086908890600401614d11565b6020604051808303816000875af1158015611949573d6000803e3d6000fd5b505050506040513d601f19601f8201168201806040525081019061196d9190614c42565b50505050505050505050565b60035460009061010090046001600160a01b031633146119ac5760405163d219dc1f60e01b815260040160405180910390fd5b60055460408051623f1ee960e11b815290516001600160a01b0392831692851691627e3dd29160048083019260209291908290030181865afa1580156119f6573d6000803e3d6000fd5b505050506040513d601f19601f82011682018060405250810190611a1a9190614c42565b611a665760405162461bcd60e51b815260206004820152601c60248201527f6d61726b6572206d6574686f642072657475726e65642066616c736500000000604482015260640161097f565b600580546001600160a01b0319166001600160a01b0385811691821790925560408051928416835260208301919091527f7ac369dbd14fa5ea3f473ed67cc9d598964a77501540ba6751eb0b3decf5870d91015b60405180910390a150600092915050565b6000805460ff16611aee5760405162461bcd60e51b815260040161097f90614b40565b6000805460ff19169055611b00611f1d565b50610a8882612e98565b611b1987878787878787610aab565b50505050505050565b6000805460ff16611b455760405162461bcd60e51b815260040161097f90614b40565b6000805460ff19169055611b57611f1d565b5050600b546000805460ff1916600117905590565b611b74611f1d565b5061179b8282612fb3565b60035461010090046001600160a01b03163314611bf45760405162461bcd60e51b815260206004820152602d60248201527f6f6e6c79207468652061646d696e206d6179207365742074686520636f6d702d60448201526c6c696b652064656c656761746560981b606482015260840161097f565b6011546040516317066a5760e21b81526001600160a01b03838116600483015290911690635c19a95c90602401600060405180830381600087803b158015611c3b57600080fd5b505af1158015611c4f573d6000803e3d6000fd5b5050505050565b60035461010090046001600160a01b03163314611c7257600080fd5b601380546001600160a01b0319166001600160a01b0392909216919091179055565b6000610a4182613180565b600280546108b990614b05565b6000611780826131d1565b60035461010090046001600160a01b03163314611d225760405162461bcd60e51b8152602060048201526024808201527f6f6e6c792061646d696e206d617920696e697469616c697a6520746865206d616044820152631c9ad95d60e21b606482015260840161097f565b600954158015611d325750600a54155b611d8a5760405162461bcd60e51b815260206004820152602360248201527f6d61726b6574206d6179206f6e6c7920626520696e697469616c697a6564206f6044820152626e636560e81b606482015260840161097f565b600784905583611df55760405162461bcd60e51b815260206004820152603060248201527f696e697469616c2065786368616e67652072617465206d75737420626520677260448201526f32b0ba32b9103a3430b7103d32b9379760811b606482015260840161097f565b6000611e0087611979565b90508015611e505760405162461bcd60e51b815260206004820152601a60248201527f73657474696e6720636f6d7074726f6c6c6572206661696c6564000000000000604482015260640161097f565b43600955670de0b6b3a7640000600a55611e698661321b565b90508015611ec45760405162461bcd60e51b815260206004820152602260248201527f73657474696e6720696e7465726573742072617465206d6f64656c206661696c604482015261195960f21b606482015260840161097f565b8351611ed7906001906020870190614522565b508251611eeb906002906020860190614522565b50506003805460ff90921660ff199283161790556000805490911660011790555050505050565b6000610a4182613390565b600954600090439080821415611f365760009250505090565b6000611f40612ada565b600b54600c54600a546006546040516315f2405360e01b81526004810186905260248101859052604481018490529495509293919290916000916001600160a01b0316906315f2405390606401602060405180830381865afa158015611faa573d6000803e3d6000fd5b505050506040513d601f19601f82011682018060405250810190611fce9190614b64565b905065048c273950008111156120265760405162461bcd60e51b815260206004820152601c60248201527f626f72726f772072617465206973206162737572646c79206869676800000000604482015260640161097f565b60006120328789614c13565b9050600061204e604051806020016040528085815250836133cf565b9050600061205c8288612aba565b9050600061206a8883614c2a565b905060006120896040518060200160405280600854815250848a613400565b9050600061209885898a613400565b60098e9055600a819055600b849055600c839055604080518d815260208101879052908101829052606081018590529091507f4dec04e750ca11537cabcd8a9eab06494de08da3735bc8871cd41250e190bc049060800160405180910390a160009d505050505050505050505050505090565b6000805460ff1661212e5760405162461bcd60e51b815260040161097f90614b40565b6000805460ff1916815561214433808686612825565b1490506000805460ff1916600117905592915050565b612162611f1d565b5061179b8282613421565b6006546000906001600160a01b031663b8168816612189612ada565b600b54600c546008546040516001600160e01b031960e087901b16815260048101949094526024840192909252604483015260648201526084015b602060405180830381865afa1580156121e1573d6000803e3d6000fd5b505050506040513d601f19601f82011682018060405250810190610aa69190614b64565b6000805460ff166122285760405162461bcd60e51b815260040161097f90614b40565b6000805460ff1916905561223e338585856135d7565b50600080805460ff191660011790559392505050565b60035460009061010090046001600160a01b0316331461228757604051635cb56c2b60e01b815260040160405180910390fd5b600480546001600160a01b038481166001600160a01b031983168117909355604080519190921680825260208201939093527fca4f2f25d0898edd99413412fb94012f9e54ec8142f9b093e7720646a95b16a99101611aba565b6000805460ff166123045760405162461bcd60e51b815260040161097f90614b40565b6000805460ff19169055612316611f1d565b5061231f610a9c565b90506000805460ff1916600117905590565b6001600160a01b0381166000908152600e6020526040812054819081908190819061235b876131d1565b6123636127bb565b93509350935093509193509193565b6000610a4182613850565b6040805160016020820152600091810182905260608101859052608081018490523360a08201526001600160a01b03831660c082015260e00160408051808303601f19018152908290526011546370a0823160e01b83523060048401529092506000916001600160a01b03909116906370a0823190602401602060405180830381865afa158015612412573d6000803e3d6000fd5b505050506040513d601f19601f820116820180604052508101906124369190614b64565b6011549091506001600160a01b0316633b9d401e308261245533611cac565b866040518563ffffffff1660e01b81526004016124759493929190614d11565b6020604051808303816000875af1158015612494573d6000803e3d6000fd5b505050506040513d601f19601f820116820180604052508101906124b89190614c42565b506011546040516370a0823160e01b81523060048201526001600160a01b039091169063a9059cbb903390849084906370a0823190602401602060405180830381865afa15801561250d573d6000803e3d6000fd5b505050506040513d601f19601f820116820180604052508101906125319190614b64565b61253b9190614c13565b6040518363ffffffff1660e01b8152600401612558929190614b7d565b6020604051808303816000875af1158015612577573d6000803e3d6000fd5b505050506040513d601f19601f82011682018060405250810190610d049190614c42565b6000610a418261388f565b6004546000906001600160a01b0316331415806125c1575033155b156125df57604051631ba24f2960e21b815260040160405180910390fd5b60038054600480546001600160a01b03808216610100818102610100600160a81b0319871617968790556001600160a01b031990931690935560408051948390048216808652929095041660208401529290917ff9ffabca9c8276e99321725bcb43fb076a6c66a54b7f21c4e8146d8519b417dc910160405180910390a1600454604080516001600160a01b03808516825290921660208301527fca4f2f25d0898edd99413412fb94012f9e54ec8142f9b093e7720646a95b16a9910160405180910390a160009250505090565b60006126b7611f1d565b506117808261321b565b60006126ce8484846138d0565b5060009392505050565b6006546000906001600160a01b03166315f240536126f4612ada565b600b54600c546040516001600160e01b031960e086901b1681526004810193909352602483019190915260448201526064016121c4565b6000805460ff1661274e5760405162461bcd60e51b815260040161097f90614b40565b6000805460ff19169055612760611f1d565b50610a88826139ae565b60005460ff1661278c5760405162461bcd60e51b815260040161097f90614b40565b6000805460ff1916905561279e611f1d565b506127aa333383613a6a565b50506000805460ff19166001179055565b600d54600090806127ce57505060075490565b60006127d8612ada565b90506000600c54600b54836127ed9190614c2a565b6127f79190614c13565b905060008361280e670de0b6b3a764000084614d4e565b6128189190614d6d565b95945050505050565b5090565b6005546040516317b9b84b60e31b81523060048201526001600160a01b038581166024830152848116604483015260648201849052600092839291169063bdcdc258906084016020604051808303816000875af115801561288a573d6000803e3d6000fd5b505050506040513d601f19601f820116820180604052508101906128ae9190614b64565b905080156128d25760405163089d427760e11b81526004810182905260240161097f565b836001600160a01b0316856001600160a01b0316141561290557604051638cd22d1960e01b815260040160405180910390fd5b6000856001600160a01b0316876001600160a01b0316141561292a5750600019612952565b506001600160a01b038086166000908152600f60209081526040808320938a16835292905220545b600061295e8583614c13565b6001600160a01b0388166000908152600e602052604081205491925090612986908790614c13565b6001600160a01b0388166000908152600e6020526040812054919250906129ae908890614c2a565b6001600160a01b03808b166000908152600e6020526040808220869055918b1681522081905590506000198414612a08576001600160a01b03808a166000908152600f60209081526040808320938e168352929052208390555b876001600160a01b0316896001600160a01b0316600080516020614dd383398151915289604051612a3b91815260200190565b60405180910390a35060009998505050505050505050565b600061176483670de0b6b3a764000084613c13565b60005460ff16612a8a5760405162461bcd60e51b815260040161097f90614b40565b6000805460ff19169055612a9c611f1d565b50612aa8338383613a6a565b50506000805460ff1916600117905550565b600080612ac784846133cf565b9050612ad281613c32565b949350505050565b6011546040516370a0823160e01b81523060048201526000916001600160a01b03169081906370a0823190602401602060405180830381865afa158015612b25573d6000803e3d6000fd5b505050506040513d601f19601f82011682018060405250810190612b499190614b64565b91505090565b6000805460ff16612b725760405162461bcd60e51b815260040161097f90614b40565b6000805460ff19169055612b84611f1d565b50612b8e82613c4a565b5050600090506000805460ff19166001179055919050565b811580612bb1575080155b612c1a5760405162461bcd60e51b815260206004820152603460248201527f6f6e65206f662072656465656d546f6b656e73496e206f722072656465656d416044820152736d6f756e74496e206d757374206265207a65726f60601b606482015260840161097f565b60006040518060200160405280612c2f6127bb565b905290506000808415612c5057849150612c498386612aba565b9050612c60565b612c5a8484613cde565b91508390505b60055460405163eabe7d9160e01b81526000916001600160a01b03169063eabe7d9190612c959030908b908890600401614ced565b6020604051808303816000875af1158015612cb4573d6000803e3d6000fd5b505050506040513d601f19601f82011682018060405250810190612cd89190614b64565b90508015612cfc5760405163480f424760e01b81526004810182905260240161097f565b4360095414612d1e576040516397b5cfcd60e01b815260040160405180910390fd5b81612d27612ada565b1015612d46576040516391240a1b60e01b815260040160405180910390fd5b82600d54612d549190614c13565b600d556001600160a01b0387166000908152600e6020526040902054612d7b908490614c13565b6001600160a01b0388166000908152600e6020526040902055612d9e8783613cfc565b60405183815230906001600160a01b03891690600080516020614dd38339815191529060200160405180910390a37fe5b754fb1abb7f01b499791d0b820ae3b6af3424ac1c59768edb53f4ec31a929878385604051612dff93929190614d8f565b60405180910390a16005546040516351dff98960e01b81523060048201526001600160a01b0389811660248301526044820185905260648201869052909116906351dff98990608401600060405180830381600087803b158015612e6257600080fd5b505af1158015612e76573d6000803e3d6000fd5b5050505050505050505050565b60006117648383670de0b6b3a7640000613c13565b600354600090819061010090046001600160a01b03163314612ecd57604051630f7e5e6d60e41b815260040160405180910390fd5b4360095414612eef57604051630dff50cb60e41b815260040160405180910390fd5b82612ef8612ada565b1015612f1757604051633345e99960e01b815260040160405180910390fd5b600c54831115612f3a576040516378d2980560e11b815260040160405180910390fd5b82600c54612f489190614c13565b600c819055600354909150612f6b9061010090046001600160a01b031684613cfc565b7f3bad0c59cf2f06e7314077049f48a93578cd16f5ef92329f1dab1420a99c177e600360019054906101000a90046001600160a01b03168483604051611aba93929190614d8f565b60055460405163368f515360e21b81526000916001600160a01b03169063da3d454c90612fe890309087908790600401614ced565b6020604051808303816000875af1158015613007573d6000803e3d6000fd5b505050506040513d601f19601f8201168201806040525081019061302b9190614b64565b9050801561304f5760405163918db40f60e01b81526004810182905260240161097f565b436009541461307157604051630e8d8c6160e21b815260040160405180910390fd5b8161307a612ada565b1015613099576040516348c2588160e01b815260040160405180910390fd5b60006130a4846131d1565b905060006130b28483614c2a565b9050600084600b546130c49190614c2a565b6001600160a01b0387166000908152601060205260409020838155600a54600190910155600b81905590506130f98686613cfc565b6131276040518060400160405280600c81526020016b7472616e7366657272696e6760a01b81525086613de4565b604080516001600160a01b038816815260208101879052908101839052606081018290527f13ed6866d4e1ee6da46f845c46d7e54120883d75c5ea9a2dacc1c4ca8984ab809060800160405180910390a1505050505050565b60005460ff166131a25760405162461bcd60e51b815260040161097f90614b40565b6000805460ff191690556131b4611f1d565b506131c133600083612ba6565b506000805460ff19166001179055565b6001600160a01b038116600090815260106020526040812080546131f85750600092915050565b600a54815460009161320991614d4e565b9050816001015481612ad29190614d6d565b600354600090819061010090046001600160a01b031633146132505760405163407fded560e01b815260040160405180910390fd5b436009541461327257604051630be2a5cb60e11b815260040160405180910390fd5b600660009054906101000a90046001600160a01b03169050826001600160a01b0316632191f92a6040518163ffffffff1660e01b8152600401602060405180830381865afa1580156132c8573d6000803e3d6000fd5b505050506040513d601f19601f820116820180604052508101906132ec9190614c42565b6133385760405162461bcd60e51b815260206004820152601c60248201527f6d61726b6572206d6574686f642072657475726e65642066616c736500000000604482015260640161097f565b600680546001600160a01b0319166001600160a01b0385811691821790925560408051928416835260208301919091527fedffc32e068c7c95dfd4bdfd5c4d939a084d6b11c4199eac8436ed234d72f9269101611aba565b60005460ff166133b25760405162461bcd60e51b815260040161097f90614b40565b6000805460ff191690556133c4611f1d565b506131c13382613421565b60408051602081019091526000815260405180602001604052806133f7856000015185613e29565b90529392505050565b60008061340d85856133cf565b905061281861341b82613c32565b84613e35565b600554604051634ef4c3e160e01b81526000916001600160a01b031690634ef4c3e19061345690309087908790600401614ced565b6020604051808303816000875af1158015613475573d6000803e3d6000fd5b505050506040513d601f19601f820116820180604052508101906134999190614b64565b905080156134bd576040516349abd4fd60e01b81526004810182905260240161097f565b43600954146134df576040516338d8859760e01b815260040160405180910390fd5b600060405180602001604052806134f46127bb565b9052905060006135048585613e41565b905060006135128284613cde565b905080600d546135229190614c2a565b600d556001600160a01b0386166000908152600e6020526040902054613549908290614c2a565b6001600160a01b0387166000908152600e60205260409081902091909155517f4c209b5fc8ad50758f13e2e1088ba56a560dff690a1c6fef26394f4c03821c4f9061359990889085908590614d8f565b60405180910390a16040518181526001600160a01b038716903090600080516020614dd38339815191529060200160405180910390a3505050505050565b60055460405163d02f735160e01b81523060048201526001600160a01b0386811660248301528581166044830152848116606483015260848201849052600092169063d02f73519060a4016020604051808303816000875af1158015613641573d6000803e3d6000fd5b505050506040513d601f19601f820116820180604052508101906136659190614b64565b90508015613689576040516363e00e3360e11b81526004810182905260240161097f565b836001600160a01b0316836001600160a01b031614156136bc57604051633a94626760e11b815260040160405180910390fd5b60006136dd836040518060200160405280666379da05b60000815250614018565b905060006136eb8285614c13565b9050600060405180602001604052806137026127bb565b9052905060006137128285612aba565b9050600081600c546137249190614c2a565b600c819055600d5490915061373a908690614c13565b600d556001600160a01b0388166000908152600e6020526040902054613761908890614c13565b6001600160a01b03808a166000908152600e602052604080822093909355908b1681522054613791908590614c2a565b6001600160a01b03808b166000818152600e602052604090819020939093559151908a1690600080516020614dd3833981519152906137d39088815260200190565b60405180910390a360405185815230906001600160a01b038a1690600080516020614dd38339815191529060200160405180910390a37fa91e67c5ea634cd43a12c5a482724b03de01e85ca68702a53d0c2f45cb7c1dc530838360405161383c93929190614d8f565b60405180910390a150505050505050505050565b60005460ff166138725760405162461bcd60e51b815260040161097f90614b40565b6000805460ff19169055613884611f1d565b506131c13382612fb3565b60005460ff166138b15760405162461bcd60e51b815260040161097f90614b40565b6000805460ff191690556138c3611f1d565b506131c133826000612ba6565b60005460ff166138f25760405162461bcd60e51b815260040161097f90614b40565b6000805460ff19169055613904611f1d565b506000816001600160a01b031663a6afed956040518163ffffffff1660e01b81526004016020604051808303816000875af1158015613947573d6000803e3d6000fd5b505050506040513d601f19601f8201168201806040525081019061396b9190614b64565b9050801561398f57604051633eea49b760e11b81526004810182905260240161097f565b61399b3385858561403b565b50506000805460ff191660011790555050565b60035460009061010090046001600160a01b031633146139e157604051631205b57b60e11b815260040160405180910390fd5b4360095414613a0357604051637dfca6b760e11b815260040160405180910390fd5b670de0b6b3a7640000821115613a2c5760405163717220f360e11b815260040160405180910390fd5b600880549083905560408051828152602081018590527faaa68312e2ea9d50e16af5068410ab56e1a1fd06037b1a35664812c30f8214609101611aba565b600554604051631200453160e11b81523060048201526001600160a01b03858116602483015284811660448301526064820184905260009283929116906324008a62906084016020604051808303816000875af1158015613acf573d6000803e3d6000fd5b505050506040513d601f19601f82011682018060405250810190613af39190614b64565b90508015613b1757604051638c81362d60e01b81526004810182905260240161097f565b4360095414613b395760405163c9021e2f60e01b815260040160405180910390fd5b6000613b44856131d1565b905060006000198514613b575784613b59565b815b90506000613b678883613e41565b90506000613b758285614c13565b9050600082600b54613b879190614c13565b6001600160a01b038a8116600081815260106020908152604091829020878155600a54600190910155600b8590558151938f168452830191909152810185905260608101849052608081018290529091507f1a2a22cb034d26d1854bdc6666a5b91fe25efbbb5dcad3b0355478d6f5c362a19060a00160405180910390a1509098975050505050505050565b828202811515841585830485141716613c2b57600080fd5b0492915050565b805160009061178090670de0b6b3a764000090614d6d565b60008080804360095414613c74576040516338acf79960e01b81526004810182905260240161097f565b613c7e3386613e41565b905080600c54613c8e9190614c2a565b915081600c819055507fa91e67c5ea634cd43a12c5a482724b03de01e85ca68702a53d0c2f45cb7c1dc5338284604051613cca93929190614d8f565b60405180910390a160009590945092505050565b6000611764613cf584670de0b6b3a7640000613e29565b83516144f5565b60115460405163a9059cbb60e01b81526001600160a01b0390911690819063a9059cbb90613d309086908690600401614b7d565b600060405180830381600087803b158015613d4a57600080fd5b505af1158015613d5e573d6000803e3d6000fd5b5050505060003d60008114613d7a5760208114613d8457600080fd5b6000199150613d90565b60206000803e60005191505b5080613dde5760405162461bcd60e51b815260206004820152601960248201527f544f4b454e5f5452414e534645525f4f55545f4641494c454400000000000000604482015260640161097f565b50505050565b61179b8282604051602401613dfa929190614db0565b60408051601f198184030181529190526020810180516001600160e01b03166309710a9d60e41b179052614501565b60006117648284614d4e565b60006117648284614c2a565b6011546040516370a0823160e01b81523060048201526000916001600160a01b0316908190839082906370a0823190602401602060405180830381865afa158015613e90573d6000803e3d6000fd5b505050506040513d601f19601f82011682018060405250810190613eb49190614b64565b6040516323b872dd60e01b81529091506001600160a01b038316906323b872dd90613ee790899030908a90600401614ced565b600060405180830381600087803b158015613f0157600080fd5b505af1158015613f15573d6000803e3d6000fd5b5050505060003d60008114613f315760208114613f3b57600080fd5b6000199150613f47565b60206000803e60005191505b5080613f955760405162461bcd60e51b815260206004820152601860248201527f544f4b454e5f5452414e534645525f494e5f4641494c45440000000000000000604482015260640161097f565b6040516370a0823160e01b81523060048201526000906001600160a01b038616906370a0823190602401602060405180830381865afa158015613fdc573d6000803e3d6000fd5b505050506040513d601f19601f820116820180604052508101906140009190614b64565b905061400c8382614c13565b98975050505050505050565b6000670de0b6b3a7640000614031848460000151613e29565b6117649190614d6d565b600554604051632fe3f38f60e11b81523060048201526001600160a01b03838116602483015286811660448301528581166064830152608482018590526000921690635fc7e71e9060a4016020604051808303816000875af11580156140a5573d6000803e3d6000fd5b505050506040513d601f19601f820116820180604052508101906140c99190614b64565b905080156140ed57604051630a14d17960e11b81526004810182905260240161097f565b436009541461410f576040516380965b1b60e01b815260040160405180910390fd5b43826001600160a01b0316636c540baf6040518163ffffffff1660e01b8152600401602060405180830381865afa15801561414e573d6000803e3d6000fd5b505050506040513d601f19601f820116820180604052508101906141729190614b64565b1461419057604051631046f38d60e31b815260040160405180910390fd5b846001600160a01b0316846001600160a01b031614156141c357604051631bd1a62160e21b815260040160405180910390fd5b826141e15760405163d29da7ef60e01b815260040160405180910390fd5b60001983141561420457604051635982c5bb60e11b815260040160405180910390fd5b6000614211868686613a6a565b60055460405163c488847b60e01b815291925060009182916001600160a01b03169063c488847b9061424b90309089908890600401614ced565b6040805180830381865afa158015614267573d6000803e3d6000fd5b505050506040513d601f19601f8201168201806040525081019061428b9190614cac565b91509150600082146142fb5760405162461bcd60e51b815260206004820152603360248201527f4c49515549444154455f434f4d5054524f4c4c45525f43414c43554c4154455f604482015272105353d5539517d4d152569157d19052531151606a1b606482015260840161097f565b6040516370a0823160e01b81526001600160a01b0388811660048301528291908716906370a0823190602401602060405180830381865afa158015614344573d6000803e3d6000fd5b505050506040513d601f19601f820116820180604052508101906143689190614b64565b10156143b65760405162461bcd60e51b815260206004820152601860248201527f4c49515549444154455f5345495a455f544f4f5f4d5543480000000000000000604482015260640161097f565b6001600160a01b0385163014156143d8576143d3308989846135d7565b614492565b60405163b2a02ff160e01b81526000906001600160a01b0387169063b2a02ff19061440b908c908c908790600401614ced565b6020604051808303816000875af115801561442a573d6000803e3d6000fd5b505050506040513d601f19601f8201168201806040525081019061444e9190614b64565b146144925760405162461bcd60e51b81526020600482015260146024820152731d1bdad95b881cd95a5e9d5c994819985a5b195960621b604482015260640161097f565b604080516001600160a01b038a811682528981166020830152818301869052871660608201526080810183905290517f298637f684da70674f26509b10f07ec2fbc77a335ab1e7d6215a4b2484d8bb529181900360a00190a15050505050505050565b60006117648284614d6d565b80516a636f6e736f6c652e6c6f67602083016000808483855afa5050505050565b82805461452e90614b05565b90600052602060002090601f0160209004810192826145505760008555614596565b82601f1061456957805160ff1916838001178555614596565b82800160010185558215614596579182015b8281111561459657825182559160200191906001019061457b565b506128219291505b80821115612821576000815560010161459e565b6001600160a01b03811681146145c757600080fd5b50565b6000602082840312156145dc57600080fd5b8135611764816145b2565b6000815180845260005b8181101561460d576020818501810151868301820152016145f1565b8181111561461f576000602083870101525b50601f01601f19169290920160200192915050565b60208152600061176460208301846145e7565b80151581146145c757600080fd5b6000806040838503121561466857600080fd5b8235614673816145b2565b9150602083013561468381614647565b809150509250929050565b600080604083850312156146a157600080fd5b82356146ac816145b2565b946020939093013593505050565b6000602082840312156146cc57600080fd5b5035919050565b634e487b7160e01b600052604160045260246000fd5b600082601f8301126146fa57600080fd5b813567ffffffffffffffff80821115614715576147156146d3565b604051601f8301601f19908116603f0116810190828211818310171561473d5761473d6146d3565b8160405283815286602085880101111561475657600080fd5b836020870160208301376000602085830101528094505050505092915050565b803560ff8116811461478757600080fd5b919050565b600080600080600080600060e0888a0312156147a757600080fd5b87356147b2816145b2565b965060208801356147c2816145b2565b955060408801356147d2816145b2565b945060608801359350608088013567ffffffffffffffff808211156147f657600080fd5b6148028b838c016146e9565b945060a08a013591508082111561481857600080fd5b506148258a828b016146e9565b92505061483460c08901614776565b905092959891949750929550565b60008060006060848603121561485757600080fd5b8335614862816145b2565b92506020840135614872816145b2565b929592945050506040919091013590565b60008083601f84011261489557600080fd5b50813567ffffffffffffffff8111156148ad57600080fd5b6020830191508360208285010111156148c557600080fd5b9250929050565b60008060008060008060a087890312156148e557600080fd5b86356148f0816145b2565b95506020870135614900816145b2565b94506040870135935060608701359250608087013567ffffffffffffffff81111561492a57600080fd5b61493689828a01614883565b979a9699509497509295939492505050565b600080600080600080600060c0888a03121561496357600080fd5b87359650602088013595506040880135945060608801359350608088013561498a816145b2565b925060a088013567ffffffffffffffff8111156149a657600080fd5b6149b28a828b01614883565b989b979a50959850939692959293505050565b60008060008060008060c087890312156149de57600080fd5b86356149e9816145b2565b955060208701356149f9816145b2565b945060408701359350606087013567ffffffffffffffff80821115614a1d57600080fd5b614a298a838b016146e9565b94506080890135915080821115614a3f57600080fd5b50614a4c89828a016146e9565b925050614a5b60a08801614776565b90509295509295509295565b600080600060608486031215614a7c57600080fd5b83359250602084013591506040840135614a95816145b2565b809150509250925092565b60008060408385031215614ab357600080fd5b8235614abe816145b2565b91506020830135614683816145b2565b600080600060608486031215614ae357600080fd5b8335614aee816145b2565b9250602084013591506040840135614a95816145b2565b600181811c90821680614b1957607f821691505b60208210811415614b3a57634e487b7160e01b600052602260045260246000fd5b50919050565b6020808252600a90820152691c994b595b9d195c995960b21b604082015260600190565b600060208284031215614b7657600080fd5b5051919050565b6001600160a01b03929092168252602082015260400190565b60008060008060008060c08789031215614baf57600080fd5b8635614bba81614647565b95506020870135945060408701359350606087013592506080870135614bdf816145b2565b915060a0870135614bef816145b2565b809150509295509295509295565b634e487b7160e01b600052601160045260246000fd5b600082821015614c2557614c25614bfd565b500390565b60008219821115614c3d57614c3d614bfd565b500190565b600060208284031215614c5457600080fd5b815161176481614647565b861515815285602082015284604082015283606082015260a060808201528160a0820152818360c0830137600081830160c090810191909152601f909201601f1916010195945050505050565b60008060408385031215614cbf57600080fd5b505080516020909101519092909150565b600060208284031215614ce257600080fd5b8151611764816145b2565b6001600160a01b039384168152919092166020820152604081019190915260600190565b6001600160a01b0385811682528416602082015260408101839052608060608201819052600090614d44908301846145e7565b9695505050505050565b6000816000190483118215151615614d6857614d68614bfd565b500290565b600082614d8a57634e487b7160e01b600052601260045260246000fd5b500490565b6001600160a01b039390931683526020830191909152604082015260600190565b604081526000614dc360408301856145e7565b9050826020830152939250505056feddf252ad1be2c89b69c2b068fc378daa952ba7f163c4a11628f55a4df523b3efa2646970667358221220fd01c088a062f0199adddc57166149bca348a8e8f579513a865e94bd7eb4b23b64736f6c634300080a0033",
  "linkReferences": {},
  "deployedLinkReferences": {}
}