{
  "_format": "hh-sol-artifact-1",
  "contractName": "LeverageModule",
  "sourceName": "src/LeverageModule.sol",
  "abi": [
    {
      "inputs": [],
      "stateMutability": "nonpayable",
      "type": "constructor"
    },
    {
      "inputs": [],
      "name": "AcceptAdminPendingAdminCheck",
      "type": "error"
    },
    {
      "inputs": [
        {
          "internalType": "uint256",
          "name": "actualAddAmount",
          "type": "uint256"
        }
      ],
      "name": "AddReservesFactorFreshCheck",
      "type": "error"
    },
    {
      "inputs": [],
      "name": "BorrowCashNotAvailable",
      "type": "error"
    },
    {
      "inputs": [
        {
          "internalType": "uint256",
          "name": "errorCode",
          "type": "uint256"
        }
      ],
      "name": "BorrowComptrollerRejection",
      "type": "error"
    },
    {
      "inputs": [],
      "name": "BorrowFreshnessCheck",
      "type": "error"
    },
    {
      "inputs": [
        {
          "internalType": "uint256",
          "name": "errorCode",
          "type": "uint256"
        }
      ],
      "name": "LiquidateAccrueBorrowInterestFailed",
      "type": "error"
    },
    {
      "inputs": [
        {
          "internalType": "uint256",
          "name": "errorCode",
          "type": "uint256"
        }
      ],
      "name": "LiquidateAccrueCollateralInterestFailed",
      "type": "error"
    },
    {
      "inputs": [],
      "name": "LiquidateCloseAmountIsUintMax",
      "type": "error"
    },
    {
      "inputs": [],
      "name": "LiquidateCloseAmountIsZero",
      "type": "error"
    },
    {
      "inputs": [],
      "name": "LiquidateCollateralFreshnessCheck",
      "type": "error"
    },
    {
      "inputs": [
        {
          "internalType": "uint256",
          "name": "errorCode",
          "type": "uint256"
        }
      ],
      "name": "LiquidateComptrollerRejection",
      "type": "error"
    },
    {
      "inputs": [],
      "name": "LiquidateFreshnessCheck",
      "type": "error"
    },
    {
      "inputs": [],
      "name": "LiquidateLiquidatorIsBorrower",
      "type": "error"
    },
    {
      "inputs": [
        {
          "internalType": "uint256",
          "name": "errorCode",
          "type": "uint256"
        }
      ],
      "name": "LiquidateRepayBorrowFreshFailed",
      "type": "error"
    },
    {
      "inputs": [
        {
          "internalType": "uint256",
          "name": "errorCode",
          "type": "uint256"
        }
      ],
      "name": "LiquidateSeizeComptrollerRejection",
      "type": "error"
    },
    {
      "inputs": [],
      "name": "LiquidateSeizeLiquidatorIsBorrower",
      "type": "error"
    },
    {
      "inputs": [
        {
          "internalType": "uint256",
          "name": "errorCode",
          "type": "uint256"
        }
      ],
      "name": "MintComptrollerRejection",
      "type": "error"
    },
    {
      "inputs": [],
      "name": "MintFreshnessCheck",
      "type": "error"
    },
    {
      "inputs": [
        {
          "internalType": "uint256",
          "name": "errorCode",
          "type": "uint256"
        }
      ],
      "name": "RedeemComptrollerRejection",
      "type": "error"
    },
    {
      "inputs": [],
      "name": "RedeemFreshnessCheck",
      "type": "error"
    },
    {
      "inputs": [],
      "name": "RedeemTransferOutNotPossible",
      "type": "error"
    },
    {
      "inputs": [],
      "name": "ReduceReservesAdminCheck",
      "type": "error"
    },
    {
      "inputs": [],
      "name": "ReduceReservesCashNotAvailable",
      "type": "error"
    },
    {
      "inputs": [],
      "name": "ReduceReservesCashValidation",
      "type": "error"
    },
    {
      "inputs": [],
      "name": "ReduceReservesFreshCheck",
      "type": "error"
    },
    {
      "inputs": [
        {
          "internalType": "uint256",
          "name": "errorCode",
          "type": "uint256"
        }
      ],
      "name": "RepayBorrowComptrollerRejection",
      "type": "error"
    },
    {
      "inputs": [],
      "name": "RepayBorrowFreshnessCheck",
      "type": "error"
    },
    {
      "inputs": [],
      "name": "SetComptrollerOwnerCheck",
      "type": "error"
    },
    {
      "inputs": [],
      "name": "SetInterestRateModelFreshCheck",
      "type": "error"
    },
    {
      "inputs": [],
      "name": "SetInterestRateModelOwnerCheck",
      "type": "error"
    },
    {
      "inputs": [],
      "name": "SetPendingAdminOwnerCheck",
      "type": "error"
    },
    {
      "inputs": [],
      "name": "SetReserveFactorAdminCheck",
      "type": "error"
    },
    {
      "inputs": [],
      "name": "SetReserveFactorBoundsCheck",
      "type": "error"
    },
    {
      "inputs": [],
      "name": "SetReserveFactorFreshCheck",
      "type": "error"
    },
    {
      "inputs": [
        {
          "internalType": "uint256",
          "name": "errorCode",
          "type": "uint256"
        }
      ],
      "name": "TransferComptrollerRejection",
      "type": "error"
    },
    {
      "inputs": [],
      "name": "TransferNotAllowed",
      "type": "error"
    },
    {
      "inputs": [],
      "name": "TransferNotEnough",
      "type": "error"
    },
    {
      "inputs": [],
      "name": "TransferTooMuch",
      "type": "error"
    },
    {
      "anonymous": false,
      "inputs": [
        {
          "indexed": false,
          "internalType": "uint256",
          "name": "cashPrior",
          "type": "uint256"
        },
        {
          "indexed": false,
          "internalType": "uint256",
          "name": "interestAccumulated",
          "type": "uint256"
        },
        {
          "indexed": false,
          "internalType": "uint256",
          "name": "borrowIndex",
          "type": "uint256"
        },
        {
          "indexed": false,
          "internalType": "uint256",
          "name": "totalBorrows",
          "type": "uint256"
        }
      ],
      "name": "AccrueInterest",
      "type": "event"
    },
    {
      "anonymous": false,
      "inputs": [
        {
          "indexed": true,
          "internalType": "address",
          "name": "owner",
          "type": "address"
        },
        {
          "indexed": true,
          "internalType": "address",
          "name": "spender",
          "type": "address"
        },
        {
          "indexed": false,
          "internalType": "uint256",
          "name": "amount",
          "type": "uint256"
        }
      ],
      "name": "Approval",
      "type": "event"
    },
    {
      "anonymous": false,
      "inputs": [
        {
          "indexed": false,
          "internalType": "address",
          "name": "borrower",
          "type": "address"
        },
        {
          "indexed": false,
          "internalType": "uint256",
          "name": "borrowAmount",
          "type": "uint256"
        },
        {
          "indexed": false,
          "internalType": "uint256",
          "name": "accountBorrows",
          "type": "uint256"
        },
        {
          "indexed": false,
          "internalType": "uint256",
          "name": "totalBorrows",
          "type": "uint256"
        }
      ],
      "name": "Borrow",
      "type": "event"
    },
    {
      "anonymous": false,
      "inputs": [
        {
          "indexed": false,
          "internalType": "address",
          "name": "liquidator",
          "type": "address"
        },
        {
          "indexed": false,
          "internalType": "address",
          "name": "borrower",
          "type": "address"
        },
        {
          "indexed": false,
          "internalType": "uint256",
          "name": "repayAmount",
          "type": "uint256"
        },
        {
          "indexed": false,
          "internalType": "address",
          "name": "cTokenCollateral",
          "type": "address"
        },
        {
          "indexed": false,
          "internalType": "uint256",
          "name": "seizeTokens",
          "type": "uint256"
        }
      ],
      "name": "LiquidateBorrow",
      "type": "event"
    },
    {
      "anonymous": false,
      "inputs": [
        {
          "indexed": false,
          "internalType": "address",
          "name": "minter",
          "type": "address"
        },
        {
          "indexed": false,
          "internalType": "uint256",
          "name": "mintAmount",
          "type": "uint256"
        },
        {
          "indexed": false,
          "internalType": "uint256",
          "name": "mintTokens",
          "type": "uint256"
        }
      ],
      "name": "Mint",
      "type": "event"
    },
    {
      "anonymous": false,
      "inputs": [
        {
          "indexed": false,
          "internalType": "address",
          "name": "oldAdmin",
          "type": "address"
        },
        {
          "indexed": false,
          "internalType": "address",
          "name": "newAdmin",
          "type": "address"
        }
      ],
      "name": "NewAdmin",
      "type": "event"
    },
    {
      "anonymous": false,
      "inputs": [
        {
          "indexed": false,
          "internalType": "contract ComptrollerInterface",
          "name": "oldComptroller",
          "type": "address"
        },
        {
          "indexed": false,
          "internalType": "contract ComptrollerInterface",
          "name": "newComptroller",
          "type": "address"
        }
      ],
      "name": "NewComptroller",
      "type": "event"
    },
    {
      "anonymous": false,
      "inputs": [
        {
          "indexed": false,
          "internalType": "contract InterestRateModel",
          "name": "oldInterestRateModel",
          "type": "address"
        },
        {
          "indexed": false,
          "internalType": "contract InterestRateModel",
          "name": "newInterestRateModel",
          "type": "address"
        }
      ],
      "name": "NewMarketInterestRateModel",
      "type": "event"
    },
    {
      "anonymous": false,
      "inputs": [
        {
          "indexed": false,
          "internalType": "address",
          "name": "oldPendingAdmin",
          "type": "address"
        },
        {
          "indexed": false,
          "internalType": "address",
          "name": "newPendingAdmin",
          "type": "address"
        }
      ],
      "name": "NewPendingAdmin",
      "type": "event"
    },
    {
      "anonymous": false,
      "inputs": [
        {
          "indexed": false,
          "internalType": "uint256",
          "name": "oldReserveFactorMantissa",
          "type": "uint256"
        },
        {
          "indexed": false,
          "internalType": "uint256",
          "name": "newReserveFactorMantissa",
          "type": "uint256"
        }
      ],
      "name": "NewReserveFactor",
      "type": "event"
    },
    {
      "anonymous": false,
      "inputs": [
        {
          "indexed": false,
          "internalType": "address",
          "name": "redeemer",
          "type": "address"
        },
        {
          "indexed": false,
          "internalType": "uint256",
          "name": "redeemAmount",
          "type": "uint256"
        },
        {
          "indexed": false,
          "internalType": "uint256",
          "name": "redeemTokens",
          "type": "uint256"
        }
      ],
      "name": "Redeem",
      "type": "event"
    },
    {
      "anonymous": false,
      "inputs": [
        {
          "indexed": false,
          "internalType": "address",
          "name": "payer",
          "type": "address"
        },
        {
          "indexed": false,
          "internalType": "address",
          "name": "borrower",
          "type": "address"
        },
        {
          "indexed": false,
          "internalType": "uint256",
          "name": "repayAmount",
          "type": "uint256"
        },
        {
          "indexed": false,
          "internalType": "uint256",
          "name": "accountBorrows",
          "type": "uint256"
        },
        {
          "indexed": false,
          "internalType": "uint256",
          "name": "totalBorrows",
          "type": "uint256"
        }
      ],
      "name": "RepayBorrow",
      "type": "event"
    },
    {
      "anonymous": false,
      "inputs": [
        {
          "indexed": false,
          "internalType": "address",
          "name": "benefactor",
          "type": "address"
        },
        {
          "indexed": false,
          "internalType": "uint256",
          "name": "addAmount",
          "type": "uint256"
        },
        {
          "indexed": false,
          "internalType": "uint256",
          "name": "newTotalReserves",
          "type": "uint256"
        }
      ],
      "name": "ReservesAdded",
      "type": "event"
    },
    {
      "anonymous": false,
      "inputs": [
        {
          "indexed": false,
          "internalType": "address",
          "name": "admin",
          "type": "address"
        },
        {
          "indexed": false,
          "internalType": "uint256",
          "name": "reduceAmount",
          "type": "uint256"
        },
        {
          "indexed": false,
          "internalType": "uint256",
          "name": "newTotalReserves",
          "type": "uint256"
        }
      ],
      "name": "ReservesReduced",
      "type": "event"
    },
    {
      "anonymous": false,
      "inputs": [
        {
          "indexed": true,
          "internalType": "address",
          "name": "from",
          "type": "address"
        },
        {
          "indexed": true,
          "internalType": "address",
          "name": "to",
          "type": "address"
        },
        {
          "indexed": false,
          "internalType": "uint256",
          "name": "amount",
          "type": "uint256"
        }
      ],
      "name": "Transfer",
      "type": "event"
    },
    {
      "inputs": [],
      "name": "NO_ERROR",
      "outputs": [
        {
          "internalType": "uint256",
          "name": "",
          "type": "uint256"
        }
      ],
      "stateMutability": "view",
      "type": "function"
    },
    {
      "inputs": [],
      "name": "_acceptAdmin",
      "outputs": [
        {
          "internalType": "uint256",
          "name": "",
          "type": "uint256"
        }
      ],
      "stateMutability": "nonpayable",
      "type": "function"
    },
    {
      "inputs": [
        {
          "internalType": "uint256",
          "name": "addAmount",
          "type": "uint256"
        }
      ],
      "name": "_addReserves",
      "outputs": [
        {
          "internalType": "uint256",
          "name": "",
          "type": "uint256"
        }
      ],
      "stateMutability": "nonpayable",
      "type": "function"
    },
    {
      "inputs": [
        {
          "internalType": "address",
          "name": "compLikeDelegatee",
          "type": "address"
        }
      ],
      "name": "_delegateCompLikeTo",
      "outputs": [],
      "stateMutability": "nonpayable",
      "type": "function"
    },
    {
      "inputs": [
        {
          "internalType": "uint256",
          "name": "reduceAmount",
          "type": "uint256"
        }
      ],
      "name": "_reduceReserves",
      "outputs": [
        {
          "internalType": "uint256",
          "name": "",
          "type": "uint256"
        }
      ],
      "stateMutability": "nonpayable",
      "type": "function"
    },
    {
      "inputs": [
        {
          "internalType": "contract ComptrollerInterface",
          "name": "newComptroller",
          "type": "address"
        }
      ],
      "name": "_setComptroller",
      "outputs": [
        {
          "internalType": "uint256",
          "name": "",
          "type": "uint256"
        }
      ],
      "stateMutability": "nonpayable",
      "type": "function"
    },
    {
      "inputs": [
        {
          "internalType": "contract InterestRateModel",
          "name": "newInterestRateModel",
          "type": "address"
        }
      ],
      "name": "_setInterestRateModel",
      "outputs": [
        {
          "internalType": "uint256",
          "name": "",
          "type": "uint256"
        }
      ],
      "stateMutability": "nonpayable",
      "type": "function"
    },
    {
      "inputs": [
        {
          "internalType": "address payable",
          "name": "newPendingAdmin",
          "type": "address"
        }
      ],
      "name": "_setPendingAdmin",
      "outputs": [
        {
          "internalType": "uint256",
          "name": "",
          "type": "uint256"
        }
      ],
      "stateMutability": "nonpayable",
      "type": "function"
    },
    {
      "inputs": [
        {
          "internalType": "uint256",
          "name": "newReserveFactorMantissa",
          "type": "uint256"
        }
      ],
      "name": "_setReserveFactor",
      "outputs": [
        {
          "internalType": "uint256",
          "name": "",
          "type": "uint256"
        }
      ],
      "stateMutability": "nonpayable",
      "type": "function"
    },
    {
      "inputs": [],
      "name": "accrualBlockNumber",
      "outputs": [
        {
          "internalType": "uint256",
          "name": "",
          "type": "uint256"
        }
      ],
      "stateMutability": "view",
      "type": "function"
    },
    {
      "inputs": [],
      "name": "accrueInterest",
      "outputs": [
        {
          "internalType": "uint256",
          "name": "",
          "type": "uint256"
        }
      ],
      "stateMutability": "nonpayable",
      "type": "function"
    },
    {
      "inputs": [],
      "name": "admin",
      "outputs": [
        {
          "internalType": "address payable",
          "name": "",
          "type": "address"
        }
      ],
      "stateMutability": "view",
      "type": "function"
    },
    {
      "inputs": [
        {
          "internalType": "address",
          "name": "owner",
          "type": "address"
        },
        {
          "internalType": "address",
          "name": "spender",
          "type": "address"
        }
      ],
      "name": "allowance",
      "outputs": [
        {
          "internalType": "uint256",
          "name": "",
          "type": "uint256"
        }
      ],
      "stateMutability": "view",
      "type": "function"
    },
    {
      "inputs": [
        {
          "internalType": "address",
          "name": "spender",
          "type": "address"
        },
        {
          "internalType": "uint256",
          "name": "amount",
          "type": "uint256"
        }
      ],
      "name": "approve",
      "outputs": [
        {
          "internalType": "bool",
          "name": "",
          "type": "bool"
        }
      ],
      "stateMutability": "nonpayable",
      "type": "function"
    },
    {
      "inputs": [
        {
          "internalType": "address",
          "name": "owner",
          "type": "address"
        }
      ],
      "name": "balanceOf",
      "outputs": [
        {
          "internalType": "uint256",
          "name": "",
          "type": "uint256"
        }
      ],
      "stateMutability": "view",
      "type": "function"
    },
    {
      "inputs": [
        {
          "internalType": "address",
          "name": "owner",
          "type": "address"
        }
      ],
      "name": "balanceOfUnderlying",
      "outputs": [
        {
          "internalType": "uint256",
          "name": "",
          "type": "uint256"
        }
      ],
      "stateMutability": "nonpayable",
      "type": "function"
    },
    {
      "inputs": [
        {
          "internalType": "uint256",
          "name": "borrowAmount",
          "type": "uint256"
        }
      ],
      "name": "borrow",
      "outputs": [
        {
          "internalType": "uint256",
          "name": "",
          "type": "uint256"
        }
      ],
      "stateMutability": "nonpayable",
      "type": "function"
    },
    {
      "inputs": [
        {
          "internalType": "address",
          "name": "account",
          "type": "address"
        }
      ],
      "name": "borrowBalanceCurrent",
      "outputs": [
        {
          "internalType": "uint256",
          "name": "",
          "type": "uint256"
        }
      ],
      "stateMutability": "nonpayable",
      "type": "function"
    },
    {
      "inputs": [
        {
          "internalType": "address",
          "name": "account",
          "type": "address"
        }
      ],
      "name": "borrowBalanceStored",
      "outputs": [
        {
          "internalType": "uint256",
          "name": "",
          "type": "uint256"
        }
      ],
      "stateMutability": "view",
      "type": "function"
    },
    {
      "inputs": [],
      "name": "borrowIndex",
      "outputs": [
        {
          "internalType": "uint256",
          "name": "",
          "type": "uint256"
        }
      ],
      "stateMutability": "view",
      "type": "function"
    },
    {
      "inputs": [
        {
          "internalType": "address",
          "name": "borrower",
          "type": "address"
        },
        {
          "internalType": "uint256",
          "name": "borrowAmount",
          "type": "uint256"
        }
      ],
      "name": "borrowInternalBehalf",
      "outputs": [],
      "stateMutability": "nonpayable",
      "type": "function"
    },
    {
      "inputs": [],
      "name": "borrowRatePerBlock",
      "outputs": [
        {
          "internalType": "uint256",
          "name": "",
          "type": "uint256"
        }
      ],
      "stateMutability": "view",
      "type": "function"
    },
    {
      "inputs": [],
      "name": "comptroller",
      "outputs": [
        {
          "internalType": "contract ComptrollerInterface",
          "name": "",
          "type": "address"
        }
      ],
      "stateMutability": "view",
      "type": "function"
    },
    {
      "inputs": [],
      "name": "decimals",
      "outputs": [
        {
          "internalType": "uint8",
          "name": "",
          "type": "uint8"
        }
      ],
      "stateMutability": "view",
      "type": "function"
    },
    {
      "inputs": [],
      "name": "exchangeRateCurrent",
      "outputs": [
        {
          "internalType": "uint256",
          "name": "",
          "type": "uint256"
        }
      ],
      "stateMutability": "nonpayable",
      "type": "function"
    },
    {
      "inputs": [],
      "name": "exchangeRateStored",
      "outputs": [
        {
          "internalType": "uint256",
          "name": "",
          "type": "uint256"
        }
      ],
      "stateMutability": "view",
      "type": "function"
    },
    {
      "inputs": [
        {
          "internalType": "address",
          "name": "account",
          "type": "address"
        }
      ],
      "name": "getAccountSnapshot",
      "outputs": [
        {
          "internalType": "uint256",
          "name": "",
          "type": "uint256"
        },
        {
          "internalType": "uint256",
          "name": "",
          "type": "uint256"
        },
        {
          "internalType": "uint256",
          "name": "",
          "type": "uint256"
        },
        {
          "internalType": "uint256",
          "name": "",
          "type": "uint256"
        }
      ],
      "stateMutability": "view",
      "type": "function"
    },
    {
      "inputs": [],
      "name": "getCash",
      "outputs": [
        {
          "internalType": "uint256",
          "name": "",
          "type": "uint256"
        }
      ],
      "stateMutability": "view",
      "type": "function"
    },
    {
      "inputs": [
        {
          "internalType": "address",
          "name": "underlying_",
          "type": "address"
        },
        {
          "internalType": "address",
          "name": "comptroller_",
          "type": "address"
        },
        {
          "internalType": "contract InterestRateModel",
          "name": "interestRateModel_",
          "type": "address"
        },
        {
          "internalType": "uint256",
          "name": "initialExchangeRateMantissa_",
          "type": "uint256"
        },
        {
          "internalType": "string",
          "name": "name_",
          "type": "string"
        },
        {
          "internalType": "string",
          "name": "symbol_",
          "type": "string"
        },
        {
          "internalType": "uint8",
          "name": "decimals_",
          "type": "uint8"
        }
      ],
      "name": "init_",
      "outputs": [],
      "stateMutability": "nonpayable",
      "type": "function"
    },
    {
      "inputs": [
        {
          "internalType": "address",
          "name": "underlying_",
          "type": "address"
        },
        {
          "internalType": "contract ComptrollerInterface",
          "name": "comptroller_",
          "type": "address"
        },
        {
          "internalType": "contract InterestRateModel",
          "name": "interestRateModel_",
          "type": "address"
        },
        {
          "internalType": "uint256",
          "name": "initialExchangeRateMantissa_",
          "type": "uint256"
        },
        {
          "internalType": "string",
          "name": "name_",
          "type": "string"
        },
        {
          "internalType": "string",
          "name": "symbol_",
          "type": "string"
        },
        {
          "internalType": "uint8",
          "name": "decimals_",
          "type": "uint8"
        }
      ],
      "name": "initialize",
      "outputs": [],
      "stateMutability": "nonpayable",
      "type": "function"
    },
    {
      "inputs": [
        {
          "internalType": "contract ComptrollerInterface",
          "name": "comptroller_",
          "type": "address"
        },
        {
          "internalType": "contract InterestRateModel",
          "name": "interestRateModel_",
          "type": "address"
        },
        {
          "internalType": "uint256",
          "name": "initialExchangeRateMantissa_",
          "type": "uint256"
        },
        {
          "internalType": "string",
          "name": "name_",
          "type": "string"
        },
        {
          "internalType": "string",
          "name": "symbol_",
          "type": "string"
        },
        {
          "internalType": "uint8",
          "name": "decimals_",
          "type": "uint8"
        }
      ],
      "name": "initialize",
      "outputs": [],
      "stateMutability": "nonpayable",
      "type": "function"
    },
    {
      "inputs": [],
      "name": "interestRateModel",
      "outputs": [
        {
          "internalType": "contract InterestRateModel",
          "name": "",
          "type": "address"
        }
      ],
      "stateMutability": "view",
      "type": "function"
    },
    {
      "inputs": [],
      "name": "isCToken",
      "outputs": [
        {
          "internalType": "bool",
          "name": "",
          "type": "bool"
        }
      ],
      "stateMutability": "view",
      "type": "function"
    },
    {
      "inputs": [
        {
          "internalType": "address",
          "name": "borrower",
          "type": "address"
        },
        {
          "internalType": "uint256",
          "name": "repayAmount",
          "type": "uint256"
        },
        {
          "internalType": "contract CTokenInterface",
          "name": "cTokenCollateral",
          "type": "address"
        }
      ],
      "name": "liquidateBorrow",
      "outputs": [
        {
          "internalType": "uint256",
          "name": "",
          "type": "uint256"
        }
      ],
      "stateMutability": "nonpayable",
      "type": "function"
    },
    {
      "inputs": [
        {
          "internalType": "uint256",
          "name": "mintAmount",
          "type": "uint256"
        }
      ],
      "name": "mint",
      "outputs": [
        {
          "internalType": "uint256",
          "name": "",
          "type": "uint256"
        }
      ],
      "stateMutability": "nonpayable",
      "type": "function"
    },
    {
      "inputs": [
        {
          "internalType": "address",
          "name": "minter",
          "type": "address"
        },
        {
          "internalType": "uint256",
          "name": "mintAmount",
          "type": "uint256"
        }
      ],
      "name": "mintInternalBehalf",
      "outputs": [],
      "stateMutability": "nonpayable",
      "type": "function"
    },
    {
      "inputs": [],
      "name": "name",
      "outputs": [
        {
          "internalType": "string",
          "name": "",
          "type": "string"
        }
      ],
      "stateMutability": "view",
      "type": "function"
    },
    {
      "inputs": [
        {
          "internalType": "address",
          "name": "initiator",
          "type": "address"
        },
        {
          "internalType": "address",
          "name": "token",
          "type": "address"
        },
        {
          "internalType": "uint256",
          "name": "amount",
          "type": "uint256"
        },
        {
          "internalType": "uint256",
          "name": "fee",
          "type": "uint256"
        },
        {
          "internalType": "bytes",
          "name": "data",
          "type": "bytes"
        }
      ],
      "name": "onFlashLoan",
      "outputs": [
        {
          "internalType": "bytes32",
          "name": "",
          "type": "bytes32"
        }
      ],
      "stateMutability": "nonpayable",
      "type": "function"
    },
    {
      "inputs": [],
      "name": "pairAddress",
      "outputs": [
        {
          "internalType": "address",
          "name": "",
          "type": "address"
        }
      ],
      "stateMutability": "view",
      "type": "function"
    },
    {
      "inputs": [],
      "name": "pendingAdmin",
      "outputs": [
        {
          "internalType": "address payable",
          "name": "",
          "type": "address"
        }
      ],
      "stateMutability": "view",
      "type": "function"
    },
    {
      "inputs": [],
      "name": "precision",
      "outputs": [
        {
          "internalType": "uint256",
          "name": "",
          "type": "uint256"
        }
      ],
      "stateMutability": "view",
      "type": "function"
    },
    {
      "inputs": [],
      "name": "protocolSeizeShareMantissa",
      "outputs": [
        {
          "internalType": "uint256",
          "name": "",
          "type": "uint256"
        }
      ],
      "stateMutability": "view",
      "type": "function"
    },
    {
      "inputs": [
        {
          "internalType": "uint256",
          "name": "redeemTokens",
          "type": "uint256"
        }
      ],
      "name": "redeem",
      "outputs": [
        {
          "internalType": "uint256",
          "name": "",
          "type": "uint256"
        }
      ],
      "stateMutability": "nonpayable",
      "type": "function"
    },
    {
      "inputs": [
        {
          "internalType": "address",
          "name": "redeemer",
          "type": "address"
        },
        {
          "internalType": "uint256",
          "name": "redeemAmount",
          "type": "uint256"
        }
      ],
      "name": "redeemInternalBehalf",
      "outputs": [],
      "stateMutability": "nonpayable",
      "type": "function"
    },
    {
      "inputs": [
        {
          "internalType": "uint256",
          "name": "redeemAmount",
          "type": "uint256"
        }
      ],
      "name": "redeemUnderlying",
      "outputs": [
        {
          "internalType": "uint256",
          "name": "",
          "type": "uint256"
        }
      ],
      "stateMutability": "nonpayable",
      "type": "function"
    },
    {
      "inputs": [
        {
          "internalType": "uint256",
          "name": "repayAmount",
          "type": "uint256"
        }
      ],
      "name": "repayBorrow",
      "outputs": [
        {
          "internalType": "uint256",
          "name": "",
          "type": "uint256"
        }
      ],
      "stateMutability": "nonpayable",
      "type": "function"
    },
    {
      "inputs": [
        {
          "internalType": "address",
          "name": "borrower",
          "type": "address"
        },
        {
          "internalType": "uint256",
          "name": "repayAmount",
          "type": "uint256"
        }
      ],
      "name": "repayBorrowBehalf",
      "outputs": [
        {
          "internalType": "uint256",
          "name": "",
          "type": "uint256"
        }
      ],
      "stateMutability": "nonpayable",
      "type": "function"
    },
    {
      "inputs": [],
      "name": "reserveFactorMantissa",
      "outputs": [
        {
          "internalType": "uint256",
          "name": "",
          "type": "uint256"
        }
      ],
      "stateMutability": "view",
      "type": "function"
    },
    {
      "inputs": [
        {
          "internalType": "uint256",
          "name": "priceLimit",
          "type": "uint256"
        },
        {
          "internalType": "uint256",
          "name": "vaultId",
          "type": "uint256"
        },
        {
          "internalType": "address",
          "name": "amm",
          "type": "address"
        }
      ],
      "name": "rewindFullLeverage",
      "outputs": [],
      "stateMutability": "nonpayable",
      "type": "function"
    },
    {
      "inputs": [
        {
          "internalType": "address",
          "name": "liquidator",
          "type": "address"
        },
        {
          "internalType": "address",
          "name": "borrower",
          "type": "address"
        },
        {
          "internalType": "uint256",
          "name": "seizeTokens",
          "type": "uint256"
        }
      ],
      "name": "seize",
      "outputs": [
        {
          "internalType": "uint256",
          "name": "",
          "type": "uint256"
        }
      ],
      "stateMutability": "nonpayable",
      "type": "function"
    },
    {
      "inputs": [
        {
          "internalType": "address",
          "name": "newAdmin",
          "type": "address"
        }
      ],
      "name": "setInitialAdmin",
      "outputs": [],
      "stateMutability": "nonpayable",
      "type": "function"
    },
    {
      "inputs": [
        {
          "internalType": "address",
          "name": "_pair",
          "type": "address"
        }
      ],
      "name": "setPair",
      "outputs": [],
      "stateMutability": "nonpayable",
      "type": "function"
    },
    {
      "inputs": [
        {
          "internalType": "address",
          "name": "_master",
          "type": "address"
        },
        {
          "internalType": "bool",
          "name": "isSenior",
          "type": "bool"
        }
      ],
      "name": "setTrancheMaster",
      "outputs": [],
      "stateMutability": "nonpayable",
      "type": "function"
    },
    {
      "inputs": [],
      "name": "supplyRatePerBlock",
      "outputs": [
        {
          "internalType": "uint256",
          "name": "",
          "type": "uint256"
        }
      ],
      "stateMutability": "view",
      "type": "function"
    },
    {
      "inputs": [
        {
          "internalType": "uint256",
          "name": "startAmount",
          "type": "uint256"
        },
        {
          "internalType": "uint256",
          "name": "leverage",
          "type": "uint256"
        },
        {
          "internalType": "uint256",
          "name": "priceLimit",
          "type": "uint256"
        },
        {
          "internalType": "uint256",
          "name": "vaultId",
          "type": "uint256"
        },
        {
          "internalType": "address",
          "name": "amm",
          "type": "address"
        },
        {
          "internalType": "bytes",
          "name": "data",
          "type": "bytes"
        }
      ],
      "name": "swapWithLeverage",
      "outputs": [],
      "stateMutability": "nonpayable",
      "type": "function"
    },
    {
      "inputs": [
        {
          "internalType": "contract EIP20NonStandardInterface",
          "name": "token",
          "type": "address"
        }
      ],
      "name": "sweepToken",
      "outputs": [],
      "stateMutability": "nonpayable",
      "type": "function"
    },
    {
      "inputs": [],
      "name": "symbol",
      "outputs": [
        {
          "internalType": "string",
          "name": "",
          "type": "string"
        }
      ],
      "stateMutability": "view",
      "type": "function"
    },
    {
      "inputs": [],
      "name": "totalBorrows",
      "outputs": [
        {
          "internalType": "uint256",
          "name": "",
          "type": "uint256"
        }
      ],
      "stateMutability": "view",
      "type": "function"
    },
    {
      "inputs": [],
      "name": "totalBorrowsCurrent",
      "outputs": [
        {
          "internalType": "uint256",
          "name": "",
          "type": "uint256"
        }
      ],
      "stateMutability": "nonpayable",
      "type": "function"
    },
    {
      "inputs": [],
      "name": "totalReserves",
      "outputs": [
        {
          "internalType": "uint256",
          "name": "",
          "type": "uint256"
        }
      ],
      "stateMutability": "view",
      "type": "function"
    },
    {
      "inputs": [],
      "name": "totalSupply",
      "outputs": [
        {
          "internalType": "uint256",
          "name": "",
          "type": "uint256"
        }
      ],
      "stateMutability": "view",
      "type": "function"
    },
    {
      "inputs": [
        {
          "internalType": "address",
          "name": "dst",
          "type": "address"
        },
        {
          "internalType": "uint256",
          "name": "amount",
          "type": "uint256"
        }
      ],
      "name": "transfer",
      "outputs": [
        {
          "internalType": "bool",
          "name": "",
          "type": "bool"
        }
      ],
      "stateMutability": "nonpayable",
      "type": "function"
    },
    {
      "inputs": [
        {
          "internalType": "address",
          "name": "src",
          "type": "address"
        },
        {
          "internalType": "address",
          "name": "dst",
          "type": "address"
        },
        {
          "internalType": "uint256",
          "name": "amount",
          "type": "uint256"
        }
      ],
      "name": "transferFrom",
      "outputs": [
        {
          "internalType": "bool",
          "name": "",
          "type": "bool"
        }
      ],
      "stateMutability": "nonpayable",
      "type": "function"
    },
    {
      "inputs": [],
      "name": "underlying",
      "outputs": [
        {
          "internalType": "address",
          "name": "",
          "type": "address"
        }
      ],
      "stateMutability": "view",
      "type": "function"
    }
  ],
  "bytecode": "0x608060405234801561001057600080fd5b5061501d806100206000396000f3fe608060405234801561001057600080fd5b50600436106103d05760003560e01c8063787338b9116101ff578063b71d1a0c1161011a578063e9c714f2116100ad578063f851a4401161007c578063f851a4401461084c578063f8f9da2814610864578063fca7820b1461086c578063fe9c44ae1461087f57600080fd5b8063e9c714f21461080b578063f2b3abbd14610813578063f3fdb15a14610826578063f5e3c4621461083957600080fd5b8063cca044dc116100e9578063cca044dc1461079d578063d3b5dc3b146107b0578063db006a75146107bf578063dd62ed3e146107d257600080fd5b8063b71d1a0c1461073c578063bd6d894d1461074f578063c37f68e214610757578063c5ebeaec1461078a57600080fd5b8063a0712d6811610192578063a9f7659511610161578063a9f7659514610705578063aa5af0fd14610718578063ae9d70b014610721578063b2a02ff11461072957600080fd5b8063a0712d68146106c4578063a6afed95146106d7578063a8b08982146106df578063a9059cbb146106f257600080fd5b80638f840ddd116101ce5780638f840ddd1461068d57806395d89b411461069657806395dd91931461069e57806399d8c1b4146106b157600080fd5b8063787338b9146106415780637f1e06be146106545780638187f51614610667578063852a12e31461067a57600080fd5b80633af9e669116102ef578063601a0bf1116102825780636f307dc3116102515780636f307dc3146105ea57806370a08231146105fd578063726059211461062657806373acee981461063957600080fd5b8063601a0bf1146105b85780636752e702146105cb57806369ab3250146105d95780636c540baf146105e157600080fd5b80634459d076116102be5780634459d076146105765780634576b5db1461058957806347bd37181461059c5780635fe3b567146105a557600080fd5b80633af9e669146105355780633b1d21a2146105485780633e9410101461055057806342b15b911461056357600080fd5b8063182df0f51161036757806323e30c8b1161033657806323e30c8b146104c55780632608f818146104d857806326782247146104eb578063313ce5671461051657600080fd5b8063182df0f5146104845780631a31d4651461048c5780631be195601461049f57806323b872dd146104b257600080fd5b80630e752702116103a35780630e7527021461043e578063173b99041461045f57806317bfdfbc1461046857806318160ddd1461047b57600080fd5b8063028e8b9a146103d557806306fdde03146103ea57806308c60eac14610408578063095ea7b31461041b575b600080fd5b6103e86103e33660046147bf565b610887565b005b6103f26108ca565b6040516103ff9190614829565b60405180910390f35b6103e861041636600461484a565b610958565b61042e610429366004614883565b6109e6565b60405190151581526020016103ff565b61045161044c3660046148af565b610a54565b6040519081526020016103ff565b61045160085481565b6104516104763660046147bf565b610a67565b610451600d5481565b610451610aba565b6103e861049a366004614981565b610ac9565b6103e86104ad3660046147bf565b610b5e565b61042e6104c0366004614a37565b610d2a565b6104516104d3366004614ac1565b610d7a565b6104516104e6366004614883565b6117eb565b6004546104fe906001600160a01b031681565b6040516001600160a01b0390911681526020016103ff565b6003546105239060ff1681565b60405160ff90911681526020016103ff565b6104516105433660046147bf565b611800565b610451611846565b61045161055e3660046148af565b611850565b6103e8610571366004614883565b611861565b6103e8610584366004614b3d565b6118f9565b6104516105973660046147bf565b611ad3565b610451600b5481565b6005546104fe906001600160a01b031681565b6104516105c63660046148af565b611c25565b610451666379da05b6000081565b610451600081565b61045160095481565b6011546104fe906001600160a01b031681565b61045161060b3660046147bf565b6001600160a01b03166000908152600e602052604090205490565b6103e8610634366004614981565b611c64565b610451611c7c565b6103e861064f366004614883565b611cc6565b6103e86106623660046147bf565b611d05565b6103e86106753660046147bf565b611ddc565b6104516106883660046148af565b611e24565b610451600c5481565b6103f2611e2f565b6104516106ac3660046147bf565b611e3c565b6103e86106bf366004614bba565b611e47565b6104516106d23660046148af565b6120a2565b6104516120ad565b6012546104fe906001600160a01b031681565b61042e610700366004614883565b61229b565b6103e8610713366004614883565b6122ea565b610451600a5481565b61045161236f565b610451610737366004614a37565b612407565b61045161074a3660046147bf565b612456565b6104516124e3565b61076a6107653660046147bf565b612533565b6040805194855260208501939093529183015260608201526080016103ff565b6104516107983660046148af565b612574565b6103e86107ab366004614c5c565b61257f565b610451670de0b6b3a764000081565b6104516107cd3660046148af565b61279d565b6104516107e0366004614c95565b6001600160a01b039182166000908152600f6020908152604080832093909416825291909152205490565b6104516127a8565b6104516108213660046147bf565b6128af565b6006546104fe906001600160a01b031681565b610451610847366004614cc3565b6128c3565b6003546104fe9061010090046001600160a01b031681565b6104516128da565b61045161087a3660046148af565b61292d565b61042e600181565b60035461010090046001600160a01b0316156108a257600080fd5b600380546001600160a01b0390921661010002610100600160a81b0319909216919091179055565b600180546108d790614cfa565b80601f016020809104026020016040519081016040528092919081815260200182805461090390614cfa565b80156109505780601f1061092557610100808354040283529160200191610950565b820191906000526020600020905b81548152906001019060200180831161093357829003601f168201915b505050505081565b60035461010090046001600160a01b031633146109a65760405162461bcd60e51b815260206004820152600760248201526630baba3422a92960c91b60448201526064015b60405180910390fd5b601380546001600160a01b039093166001600160a01b03199093169290921790915560148054911515600160a01b0260ff60a01b19909216919091179055565b336000818152600f602090815260408083206001600160a01b03871680855292528083208590555191929182907f8c5be1e5ebec7d5bd14f71427d1e84f3dd0314c0f7b2291e5b200ac8c7c3b92590610a429087815260200190565b60405180910390a35060019392505050565b6000610a5f8261296c565b506000919050565b6000805460ff16610a8a5760405162461bcd60e51b815260040161099d90614d35565b6000805460ff19169055610a9c6120ad565b50610aa682611e3c565b90506000805460ff19166001179055919050565b6000610ac46129ac565b905090565b610ad7868686868686611e47565b601180546001600160a01b0319166001600160a01b038916908117909155604080516318160ddd60e01b815290516318160ddd916004808201926020929091908290030181865afa158015610b30573d6000803e3d6000fd5b505050506040513d601f19601f82011682018060405250810190610b549190614d59565b5050505050505050565b60035461010090046001600160a01b03163314610bd55760405162461bcd60e51b815260206004820152602f60248201527f4345726332303a3a7377656570546f6b656e3a206f6e6c792061646d696e206360448201526e616e20737765657020746f6b656e7360881b606482015260840161099d565b6011546001600160a01b0382811691161415610c4e5760405162461bcd60e51b815260206004820152603260248201527f4345726332303a3a7377656570546f6b656e3a2063616e206e6f74207377656560448201527138103ab73232b9363cb4b733903a37b5b2b760711b606482015260840161099d565b6040516370a0823160e01b81523060048201526000906001600160a01b038316906370a0823190602401602060405180830381865afa158015610c95573d6000803e3d6000fd5b505050506040513d601f19601f82011682018060405250810190610cb99190614d59565b60035460405163a9059cbb60e01b81529192506001600160a01b038085169263a9059cbb92610cf49261010090910416908590600401614d72565b600060405180830381600087803b158015610d0e57600080fd5b505af1158015610d22573d6000803e3d6000fd5b505050505050565b6000805460ff16610d4d5760405162461bcd60e51b815260040161099d90614d35565b6000805460ff19168155610d6333868686612a16565b1490506000805460ff191660011790559392505050565b6000610ded60405180610160016040528060001515815260200160008152602001600081526020016000815260200160006001600160a01b0316815260200160006001600160a01b0316815260200160008152602001600081526020016000815260200160008152602001600081525090565b610df983850185614d8b565b6001600160a01b0390811660a0880152908116608087018190526060870192909252604080870193909352602086019390935292151584526014549051633af9e66960e01b815260048101939093521690633af9e669906024016020604051808303816000875af1158015610e72573d6000803e3d6000fd5b505050506040513d601f19601f82011682018060405250810190610e969190614d59565b6101208201526080810151610eaa90611e3c565b610140820152805161131457610ed8670de0b6b3a76400008260200151610ed19190614e08565b8790612c44565b610ee29087614e1f565b60c0820181905260115460a083015160405163095ea7b360e01b81526001600160a01b039092169263095ea7b392610f1e929190600401614d72565b6020604051808303816000875af1158015610f3d573d6000803e3d6000fd5b505050506040513d601f19601f82011682018060405250810190610f619190614e37565b5060135460145460c083015160408085015160608601519151631774d44b60e31b81526001600160a01b039095169463bba6a25894610fb594600160a01b90910460ff16939092918b908b90600401614e54565b60408051808303816000875af1158015610fd3573d6000803e3d6000fd5b505050506040513d601f19601f82011682018060405250810190610ff79190614ea1565b61010083015260e082015260145460408051636f307dc360e01b815290516001600160a01b0390921691636f307dc3916004808201926020929091908290030181865afa15801561104c573d6000803e3d6000fd5b505050506040513d601f19601f820116820180604052508101906110709190614ec5565b6001600160a01b031663a9059cbb82608001518361010001516040518363ffffffff1660e01b81526004016110a6929190614d72565b6020604051808303816000875af11580156110c5573d6000803e3d6000fd5b505050506040513d601f19601f820116820180604052508101906110e99190614e37565b50601454608082015161010083015160405163a9f7659560e01b81526001600160a01b039093169263a9f7659592611125929091600401614d72565b600060405180830381600087803b15801561113f57600080fd5b505af1158015611153573d6000803e3d6000fd5b50505050611165816080015187611cc6565b60115460808201516040516323b872dd60e01b81526001600160a01b03909216916323b872dd9161119c9130908b90600401614ee2565b6020604051808303816000875af11580156111bb573d6000803e3d6000fd5b505050506040513d601f19601f820116820180604052508101906111df9190614e37565b506101008101516101208201516014546080840151604051633af9e66960e01b81526001600160a01b039182166004820152911690633af9e669906024016020604051808303816000875af115801561123c573d6000803e3d6000fd5b505050506040513d601f19601f820116820180604052508101906112609190614d59565b61126a9190614e08565b146112b75760405162461bcd60e51b815260206004820152601960248201527f4c657665726167655377617020556e7375636365737366756c00000000000000604482015260640161099d565b858161014001516112cb8360800151611e3c565b6112d59190614e08565b1461130f5760405162461bcd60e51b815260206004820152600a6024820152692137b93937bb9022b93960b11b604482015260640161099d565b6117be565b60145460408051636f307dc360e01b815290516000926001600160a01b031691636f307dc39160048083019260209291908290030181865afa15801561135e573d6000803e3d6000fd5b505050506040513d601f19601f820116820180604052508101906113829190614ec5565b60808301516040516304c11f0360e31b81529192503091632608f818916113ad918b90600401614d72565b6020604051808303816000875af11580156113cc573d6000803e3d6000fd5b505050506040513d601f19601f820116820180604052508101906113f09190614d59565b5060145460808301516040516370a0823160e01b81526001600160a01b038083166004830152909216916342b15b91919083906370a0823190602401602060405180830381865afa158015611449573d6000803e3d6000fd5b505050506040513d601f19601f8201168201806040525081019061146d9190614d59565b6040518363ffffffff1660e01b815260040161148a929190614d72565b600060405180830381600087803b1580156114a457600080fd5b505af11580156114b8573d6000803e3d6000fd5b5050505060808201516040516370a0823160e01b81526001600160a01b0391821660048201526000918316906370a0823190602401602060405180830381865afa15801561150a573d6000803e3d6000fd5b505050506040513d601f19601f8201168201806040525081019061152e9190614d59565b60808401516040516323b872dd60e01b81529192506001600160a01b038416916323b872dd916115649130908690600401614ee2565b6020604051808303816000875af1158015611583573d6000803e3d6000fd5b505050506040513d601f19601f820116820180604052508101906115a79190614e37565b5060a083015160c084015160405163095ea7b360e01b81526001600160a01b0385169263095ea7b3926115dc92600401614d72565b6020604051808303816000875af11580156115fb573d6000803e3d6000fd5b505050506040513d601f19601f8201168201806040525081019061161f9190614e37565b5060135460145460408581015160608701519151631774d44b60e31b81526001600160a01b039094169363bba6a2589361167193600160a01b90910460ff16159287929091908d908d90600401614e54565b60408051808303816000875af115801561168f573d6000803e3d6000fd5b505050506040513d601f19601f820116820180604052508101906116b39190614ea1565b61010085015260e08401526014546080840151604051633af9e66960e01b81526001600160a01b039182166004820152911690633af9e669906024016020604051808303816000875af115801561170e573d6000803e3d6000fd5b505050506040513d601f19601f820116820180604052508101906117329190614d59565b156117755760405162461bcd60e51b815260206004820152601360248201527213195d995c9859d954ddd85c0811985a5b1959606a1b604482015260640161099d565b6117828360800151611e3c565b156117bb5760405162461bcd60e51b81526020600482015260096024820152682932b830bc9022b93960b91b604482015260640161099d565b50505b507f439148f0bbc682ca079e46d6e2c2f0c1e3b820f1a291b069d8882abf8cf18dd9979650505050505050565b60006117f78383612c59565b50600092915050565b60008060405180602001604052806118166124e3565b90526001600160a01b0384166000908152600e602052604090205490915061183f908290612cab565b9392505050565b6000610ac4612ccb565b600061185b82612d40565b92915050565b60005460ff166118835760405162461bcd60e51b815260040161099d90614d35565b6000805460ff191690556012546001600160a01b031633146118d35760405162461bcd60e51b815260206004820152600960248201526827b7363c902830b4b960b91b604482015260640161099d565b6118db6120ad565b506118e882826000612d97565b50506000805460ff19166001179055565b6011546040516323b872dd60e01b81526001600160a01b03909116906323b872dd9061192d90339030908c90600401614ee2565b6020604051808303816000875af115801561194c573d6000803e3d6000fd5b505050506040513d601f19601f820116820180604052508101906119709190614e37565b5060115460135460405163095ea7b360e01b81526001600160a01b039283169263095ea7b3926119a7929116908b90600401614d72565b6020604051808303816000875af11580156119c6573d6000803e3d6000fd5b505050506040513d601f19601f820116820180604052508101906119ea9190614e37565b506040805160006020820181905291810188905260608101879052608081018690523360a08201526001600160a01b03851660c082015260e00160408051601f198184030181529190529050600088611a438982613074565b611a4d9190614e08565b601154604051631dcea00f60e11b81529192506001600160a01b031690633b9d401e90611a84903090849086908890600401614f06565b6020604051808303816000875af1158015611aa3573d6000803e3d6000fd5b505050506040513d601f19601f82011682018060405250810190611ac79190614e37565b50505050505050505050565b60035460009061010090046001600160a01b03163314611b065760405163d219dc1f60e01b815260040160405180910390fd5b60055460408051623f1ee960e11b815290516001600160a01b0392831692851691627e3dd29160048083019260209291908290030181865afa158015611b50573d6000803e3d6000fd5b505050506040513d601f19601f82011682018060405250810190611b749190614e37565b611bc05760405162461bcd60e51b815260206004820152601c60248201527f6d61726b6572206d6574686f642072657475726e65642066616c736500000000604482015260640161099d565b600580546001600160a01b0319166001600160a01b0385811691821790925560408051928416835260208301919091527f7ac369dbd14fa5ea3f473ed67cc9d598964a77501540ba6751eb0b3decf5870d91015b60405180910390a150600092915050565b6000805460ff16611c485760405162461bcd60e51b815260040161099d90614d35565b6000805460ff19169055611c5a6120ad565b50610aa682613089565b611c7387878787878787610ac9565b50505050505050565b6000805460ff16611c9f5760405162461bcd60e51b815260040161099d90614d35565b6000805460ff19169055611cb16120ad565b5050600b546000805460ff1916600117905590565b60005460ff16611ce85760405162461bcd60e51b815260040161099d90614d35565b6000805460ff19169055611cfa6120ad565b506118e882826131a4565b60035461010090046001600160a01b03163314611d7a5760405162461bcd60e51b815260206004820152602d60248201527f6f6e6c79207468652061646d696e206d6179207365742074686520636f6d702d60448201526c6c696b652064656c656761746560981b606482015260840161099d565b6011546040516317066a5760e21b81526001600160a01b03838116600483015290911690635c19a95c90602401600060405180830381600087803b158015611dc157600080fd5b505af1158015611dd5573d6000803e3d6000fd5b5050505050565b60035461010090046001600160a01b03163314611df857600080fd5b601480546001600160a01b039092166001600160a01b0319928316811790915560128054909216179055565b6000610a5f82613371565b600280546108d790614cfa565b600061185b826133c2565b60035461010090046001600160a01b03163314611eb25760405162461bcd60e51b8152602060048201526024808201527f6f6e6c792061646d696e206d617920696e697469616c697a6520746865206d616044820152631c9ad95d60e21b606482015260840161099d565b600954158015611ec25750600a54155b611f1a5760405162461bcd60e51b815260206004820152602360248201527f6d61726b6574206d6179206f6e6c7920626520696e697469616c697a6564206f6044820152626e636560e81b606482015260840161099d565b600784905583611f855760405162461bcd60e51b815260206004820152603060248201527f696e697469616c2065786368616e67652072617465206d75737420626520677260448201526f32b0ba32b9103a3430b7103d32b9379760811b606482015260840161099d565b6000611f9087611ad3565b90508015611fe05760405162461bcd60e51b815260206004820152601a60248201527f73657474696e6720636f6d7074726f6c6c6572206661696c6564000000000000604482015260640161099d565b43600955670de0b6b3a7640000600a55611ff98661340c565b905080156120545760405162461bcd60e51b815260206004820152602260248201527f73657474696e6720696e7465726573742072617465206d6f64656c206661696c604482015261195960f21b606482015260840161099d565b8351612067906001906020870190614717565b50825161207b906002906020860190614717565b50506003805460ff90921660ff199283161790556000805490911660011790555050505050565b6000610a5f82613581565b6009546000904390808214156120c65760009250505090565b60006120d0612ccb565b600b54600c54600a546006546040516315f2405360e01b81526004810186905260248101859052604481018490529495509293919290916000916001600160a01b0316906315f2405390606401602060405180830381865afa15801561213a573d6000803e3d6000fd5b505050506040513d601f19601f8201168201806040525081019061215e9190614d59565b905065048c273950008111156121b65760405162461bcd60e51b815260206004820152601c60248201527f626f72726f772072617465206973206162737572646c79206869676800000000604482015260640161099d565b60006121c28789614e08565b905060006121de604051806020016040528085815250836135c0565b905060006121ec8288612cab565b905060006121fa8883614e1f565b905060006122196040518060200160405280600854815250848a6135f1565b9050600061222885898a6135f1565b60098e9055600a819055600b849055600c839055604080518d815260208101879052908101829052606081018590529091507f4dec04e750ca11537cabcd8a9eab06494de08da3735bc8871cd41250e190bc049060800160405180910390a160009d505050505050505050505050505090565b6000805460ff166122be5760405162461bcd60e51b815260040161099d90614d35565b6000805460ff191681556122d433808686612a16565b1490506000805460ff1916600117905592915050565b60005460ff1661230c5760405162461bcd60e51b815260040161099d90614d35565b6000805460ff191690556012546001600160a01b0316331461235c5760405162461bcd60e51b815260206004820152600960248201526827b7363c902830b4b960b91b604482015260640161099d565b6123646120ad565b506118e88282613612565b6006546000906001600160a01b031663b816881661238b612ccb565b600b54600c546008546040516001600160e01b031960e087901b16815260048101949094526024840192909252604483015260648201526084015b602060405180830381865afa1580156123e3573d6000803e3d6000fd5b505050506040513d601f19601f82011682018060405250810190610ac49190614d59565b6000805460ff1661242a5760405162461bcd60e51b815260040161099d90614d35565b6000805460ff19169055612440338585856137c8565b50600080805460ff191660011790559392505050565b60035460009061010090046001600160a01b0316331461248957604051635cb56c2b60e01b815260040160405180910390fd5b600480546001600160a01b038481166001600160a01b031983168117909355604080519190921680825260208201939093527fca4f2f25d0898edd99413412fb94012f9e54ec8142f9b093e7720646a95b16a99101611c14565b6000805460ff166125065760405162461bcd60e51b815260040161099d90614d35565b6000805460ff191690556125186120ad565b50612521610aba565b90506000805460ff1916600117905590565b6001600160a01b0381166000908152600e6020526040812054819081908190819061255d876133c2565b6125656129ac565b93509350935093509193509193565b6000610a5f82613a41565b6040805160016020820152600091810182905260608101859052608081018490523360a08201526001600160a01b03831660c082015260e00160408051808303601f19018152908290526011546370a0823160e01b83523060048401529092506000916001600160a01b03909116906370a0823190602401602060405180830381865afa158015612614573d6000803e3d6000fd5b505050506040513d601f19601f820116820180604052508101906126389190614d59565b6011549091506001600160a01b0316633b9d401e308261265733611e3c565b866040518563ffffffff1660e01b81526004016126779493929190614f06565b6020604051808303816000875af1158015612696573d6000803e3d6000fd5b505050506040513d601f19601f820116820180604052508101906126ba9190614e37565b506011546040516370a0823160e01b81523060048201526001600160a01b039091169063a9059cbb903390849084906370a0823190602401602060405180830381865afa15801561270f573d6000803e3d6000fd5b505050506040513d601f19601f820116820180604052508101906127339190614d59565b61273d9190614e08565b6040518363ffffffff1660e01b815260040161275a929190614d72565b6020604051808303816000875af1158015612779573d6000803e3d6000fd5b505050506040513d601f19601f82011682018060405250810190610d229190614e37565b6000610a5f82613a80565b6004546000906001600160a01b0316331415806127c3575033155b156127e157604051631ba24f2960e21b815260040160405180910390fd5b60038054600480546001600160a01b03808216610100818102610100600160a81b0319871617968790556001600160a01b031990931690935560408051948390048216808652929095041660208401529290917ff9ffabca9c8276e99321725bcb43fb076a6c66a54b7f21c4e8146d8519b417dc910160405180910390a1600454604080516001600160a01b03808516825290921660208301527fca4f2f25d0898edd99413412fb94012f9e54ec8142f9b093e7720646a95b16a9910160405180910390a160009250505090565b60006128b96120ad565b5061185b8261340c565b60006128d0848484613ac1565b5060009392505050565b6006546000906001600160a01b03166315f240536128f6612ccb565b600b54600c546040516001600160e01b031960e086901b1681526004810193909352602483019190915260448201526064016123c6565b6000805460ff166129505760405162461bcd60e51b815260040161099d90614d35565b6000805460ff191690556129626120ad565b50610aa682613b9f565b60005460ff1661298e5760405162461bcd60e51b815260040161099d90614d35565b6000805460ff191690556129a06120ad565b506118e8333383613c5b565b600d54600090806129bf57505060075490565b60006129c9612ccb565b90506000600c54600b54836129de9190614e1f565b6129e89190614e08565b90506000836129ff670de0b6b3a764000084614f43565b612a099190614f62565b95945050505050565b5090565b6005546040516317b9b84b60e31b81523060048201526001600160a01b038581166024830152848116604483015260648201849052600092839291169063bdcdc258906084016020604051808303816000875af1158015612a7b573d6000803e3d6000fd5b505050506040513d601f19601f82011682018060405250810190612a9f9190614d59565b90508015612ac35760405163089d427760e11b81526004810182905260240161099d565b836001600160a01b0316856001600160a01b03161415612af657604051638cd22d1960e01b815260040160405180910390fd5b6000856001600160a01b0316876001600160a01b03161415612b1b5750600019612b43565b506001600160a01b038086166000908152600f60209081526040808320938a16835292905220545b6000612b4f8583614e08565b6001600160a01b0388166000908152600e602052604081205491925090612b77908790614e08565b6001600160a01b0388166000908152600e602052604081205491925090612b9f908890614e1f565b6001600160a01b03808b166000908152600e6020526040808220869055918b1681522081905590506000198414612bf9576001600160a01b03808a166000908152600f60209081526040808320938e168352929052208390555b876001600160a01b0316896001600160a01b0316600080516020614fc883398151915289604051612c2c91815260200190565b60405180910390a35060009998505050505050505050565b600061183f83670de0b6b3a764000084613e04565b60005460ff16612c7b5760405162461bcd60e51b815260040161099d90614d35565b6000805460ff19169055612c8d6120ad565b50612c99338383613c5b565b50506000805460ff1916600117905550565b600080612cb884846135c0565b9050612cc381613e23565b949350505050565b6011546040516370a0823160e01b81523060048201526000916001600160a01b03169081906370a0823190602401602060405180830381865afa158015612d16573d6000803e3d6000fd5b505050506040513d601f19601f82011682018060405250810190612d3a9190614d59565b91505090565b6000805460ff16612d635760405162461bcd60e51b815260040161099d90614d35565b6000805460ff19169055612d756120ad565b50612d7f82613e3b565b5050600090506000805460ff19166001179055919050565b811580612da2575080155b612e0b5760405162461bcd60e51b815260206004820152603460248201527f6f6e65206f662072656465656d546f6b656e73496e206f722072656465656d416044820152736d6f756e74496e206d757374206265207a65726f60601b606482015260840161099d565b60006040518060200160405280612e206129ac565b905290506000808415612e4157849150612e3a8386612cab565b9050612e51565b612e4b8484613ecf565b91508390505b60055460405163eabe7d9160e01b81526000916001600160a01b03169063eabe7d9190612e869030908b908890600401614ee2565b6020604051808303816000875af1158015612ea5573d6000803e3d6000fd5b505050506040513d601f19601f82011682018060405250810190612ec99190614d59565b90508015612eed5760405163480f424760e01b81526004810182905260240161099d565b4360095414612f0f576040516397b5cfcd60e01b815260040160405180910390fd5b81612f18612ccb565b1015612f37576040516391240a1b60e01b815260040160405180910390fd5b82600d54612f459190614e08565b600d556001600160a01b0387166000908152600e6020526040902054612f6c908490614e08565b6001600160a01b0388166000908152600e6020526040902055612f8f8783613eed565b60405183815230906001600160a01b03891690600080516020614fc88339815191529060200160405180910390a37fe5b754fb1abb7f01b499791d0b820ae3b6af3424ac1c59768edb53f4ec31a929878385604051612ff093929190614f84565b60405180910390a16005546040516351dff98960e01b81523060048201526001600160a01b0389811660248301526044820185905260648201869052909116906351dff98990608401600060405180830381600087803b15801561305357600080fd5b505af1158015613067573d6000803e3d6000fd5b5050505050505050505050565b600061183f8383670de0b6b3a7640000613e04565b600354600090819061010090046001600160a01b031633146130be57604051630f7e5e6d60e41b815260040160405180910390fd5b43600954146130e057604051630dff50cb60e41b815260040160405180910390fd5b826130e9612ccb565b101561310857604051633345e99960e01b815260040160405180910390fd5b600c5483111561312b576040516378d2980560e11b815260040160405180910390fd5b82600c546131399190614e08565b600c81905560035490915061315c9061010090046001600160a01b031684613eed565b7f3bad0c59cf2f06e7314077049f48a93578cd16f5ef92329f1dab1420a99c177e600360019054906101000a90046001600160a01b03168483604051611c1493929190614f84565b60055460405163368f515360e21b81526000916001600160a01b03169063da3d454c906131d990309087908790600401614ee2565b6020604051808303816000875af11580156131f8573d6000803e3d6000fd5b505050506040513d601f19601f8201168201806040525081019061321c9190614d59565b905080156132405760405163918db40f60e01b81526004810182905260240161099d565b436009541461326257604051630e8d8c6160e21b815260040160405180910390fd5b8161326b612ccb565b101561328a576040516348c2588160e01b815260040160405180910390fd5b6000613295846133c2565b905060006132a38483614e1f565b9050600084600b546132b59190614e1f565b6001600160a01b0387166000908152601060205260409020838155600a54600190910155600b81905590506132ea8686613eed565b6133186040518060400160405280600c81526020016b7472616e7366657272696e6760a01b81525086613fd5565b604080516001600160a01b038816815260208101879052908101839052606081018290527f13ed6866d4e1ee6da46f845c46d7e54120883d75c5ea9a2dacc1c4ca8984ab809060800160405180910390a1505050505050565b60005460ff166133935760405162461bcd60e51b815260040161099d90614d35565b6000805460ff191690556133a56120ad565b506133b233600083612d97565b506000805460ff19166001179055565b6001600160a01b038116600090815260106020526040812080546133e95750600092915050565b600a5481546000916133fa91614f43565b9050816001015481612cc39190614f62565b600354600090819061010090046001600160a01b031633146134415760405163407fded560e01b815260040160405180910390fd5b436009541461346357604051630be2a5cb60e11b815260040160405180910390fd5b600660009054906101000a90046001600160a01b03169050826001600160a01b0316632191f92a6040518163ffffffff1660e01b8152600401602060405180830381865afa1580156134b9573d6000803e3d6000fd5b505050506040513d601f19601f820116820180604052508101906134dd9190614e37565b6135295760405162461bcd60e51b815260206004820152601c60248201527f6d61726b6572206d6574686f642072657475726e65642066616c736500000000604482015260640161099d565b600680546001600160a01b0319166001600160a01b0385811691821790925560408051928416835260208301919091527fedffc32e068c7c95dfd4bdfd5c4d939a084d6b11c4199eac8436ed234d72f9269101611c14565b60005460ff166135a35760405162461bcd60e51b815260040161099d90614d35565b6000805460ff191690556135b56120ad565b506133b23382613612565b60408051602081019091526000815260405180602001604052806135e885600001518561401e565b90529392505050565b6000806135fe85856135c0565b9050612a0961360c82613e23565b8461402a565b600554604051634ef4c3e160e01b81526000916001600160a01b031690634ef4c3e19061364790309087908790600401614ee2565b6020604051808303816000875af1158015613666573d6000803e3d6000fd5b505050506040513d601f19601f8201168201806040525081019061368a9190614d59565b905080156136ae576040516349abd4fd60e01b81526004810182905260240161099d565b43600954146136d0576040516338d8859760e01b815260040160405180910390fd5b600060405180602001604052806136e56129ac565b9052905060006136f58585614036565b905060006137038284613ecf565b905080600d546137139190614e1f565b600d556001600160a01b0386166000908152600e602052604090205461373a908290614e1f565b6001600160a01b0387166000908152600e60205260409081902091909155517f4c209b5fc8ad50758f13e2e1088ba56a560dff690a1c6fef26394f4c03821c4f9061378a90889085908590614f84565b60405180910390a16040518181526001600160a01b038716903090600080516020614fc88339815191529060200160405180910390a3505050505050565b60055460405163d02f735160e01b81523060048201526001600160a01b0386811660248301528581166044830152848116606483015260848201849052600092169063d02f73519060a4016020604051808303816000875af1158015613832573d6000803e3d6000fd5b505050506040513d601f19601f820116820180604052508101906138569190614d59565b9050801561387a576040516363e00e3360e11b81526004810182905260240161099d565b836001600160a01b0316836001600160a01b031614156138ad57604051633a94626760e11b815260040160405180910390fd5b60006138ce836040518060200160405280666379da05b6000081525061420d565b905060006138dc8285614e08565b9050600060405180602001604052806138f36129ac565b9052905060006139038285612cab565b9050600081600c546139159190614e1f565b600c819055600d5490915061392b908690614e08565b600d556001600160a01b0388166000908152600e6020526040902054613952908890614e08565b6001600160a01b03808a166000908152600e602052604080822093909355908b1681522054613982908590614e1f565b6001600160a01b03808b166000818152600e602052604090819020939093559151908a1690600080516020614fc8833981519152906139c49088815260200190565b60405180910390a360405185815230906001600160a01b038a1690600080516020614fc88339815191529060200160405180910390a37fa91e67c5ea634cd43a12c5a482724b03de01e85ca68702a53d0c2f45cb7c1dc5308383604051613a2d93929190614f84565b60405180910390a150505050505050505050565b60005460ff16613a635760405162461bcd60e51b815260040161099d90614d35565b6000805460ff19169055613a756120ad565b506133b233826131a4565b60005460ff16613aa25760405162461bcd60e51b815260040161099d90614d35565b6000805460ff19169055613ab46120ad565b506133b233826000612d97565b60005460ff16613ae35760405162461bcd60e51b815260040161099d90614d35565b6000805460ff19169055613af56120ad565b506000816001600160a01b031663a6afed956040518163ffffffff1660e01b81526004016020604051808303816000875af1158015613b38573d6000803e3d6000fd5b505050506040513d601f19601f82011682018060405250810190613b5c9190614d59565b90508015613b8057604051633eea49b760e11b81526004810182905260240161099d565b613b8c33858585614230565b50506000805460ff191660011790555050565b60035460009061010090046001600160a01b03163314613bd257604051631205b57b60e11b815260040160405180910390fd5b4360095414613bf457604051637dfca6b760e11b815260040160405180910390fd5b670de0b6b3a7640000821115613c1d5760405163717220f360e11b815260040160405180910390fd5b600880549083905560408051828152602081018590527faaa68312e2ea9d50e16af5068410ab56e1a1fd06037b1a35664812c30f8214609101611c14565b600554604051631200453160e11b81523060048201526001600160a01b03858116602483015284811660448301526064820184905260009283929116906324008a62906084016020604051808303816000875af1158015613cc0573d6000803e3d6000fd5b505050506040513d601f19601f82011682018060405250810190613ce49190614d59565b90508015613d0857604051638c81362d60e01b81526004810182905260240161099d565b4360095414613d2a5760405163c9021e2f60e01b815260040160405180910390fd5b6000613d35856133c2565b905060006000198514613d485784613d4a565b815b90506000613d588883614036565b90506000613d668285614e08565b9050600082600b54613d789190614e08565b6001600160a01b038a8116600081815260106020908152604091829020878155600a54600190910155600b8590558151938f168452830191909152810185905260608101849052608081018290529091507f1a2a22cb034d26d1854bdc6666a5b91fe25efbbb5dcad3b0355478d6f5c362a19060a00160405180910390a1509098975050505050505050565b828202811515841585830485141716613e1c57600080fd5b0492915050565b805160009061185b90670de0b6b3a764000090614f62565b60008080804360095414613e65576040516338acf79960e01b81526004810182905260240161099d565b613e6f3386614036565b905080600c54613e7f9190614e1f565b915081600c819055507fa91e67c5ea634cd43a12c5a482724b03de01e85ca68702a53d0c2f45cb7c1dc5338284604051613ebb93929190614f84565b60405180910390a160009590945092505050565b600061183f613ee684670de0b6b3a764000061401e565b83516146ea565b60115460405163a9059cbb60e01b81526001600160a01b0390911690819063a9059cbb90613f219086908690600401614d72565b600060405180830381600087803b158015613f3b57600080fd5b505af1158015613f4f573d6000803e3d6000fd5b5050505060003d60008114613f6b5760208114613f7557600080fd5b6000199150613f81565b60206000803e60005191505b5080613fcf5760405162461bcd60e51b815260206004820152601960248201527f544f4b454e5f5452414e534645525f4f55545f4641494c454400000000000000604482015260640161099d565b50505050565b61401a8282604051602401613feb929190614fa5565b60408051601f198184030181529190526020810180516001600160e01b03166309710a9d60e41b1790526146f6565b5050565b600061183f8284614f43565b600061183f8284614e1f565b6011546040516370a0823160e01b81523060048201526000916001600160a01b0316908190839082906370a0823190602401602060405180830381865afa158015614085573d6000803e3d6000fd5b505050506040513d601f19601f820116820180604052508101906140a99190614d59565b6040516323b872dd60e01b81529091506001600160a01b038316906323b872dd906140dc90899030908a90600401614ee2565b600060405180830381600087803b1580156140f657600080fd5b505af115801561410a573d6000803e3d6000fd5b5050505060003d60008114614126576020811461413057600080fd5b600019915061413c565b60206000803e60005191505b508061418a5760405162461bcd60e51b815260206004820152601860248201527f544f4b454e5f5452414e534645525f494e5f4641494c45440000000000000000604482015260640161099d565b6040516370a0823160e01b81523060048201526000906001600160a01b038616906370a0823190602401602060405180830381865afa1580156141d1573d6000803e3d6000fd5b505050506040513d601f19601f820116820180604052508101906141f59190614d59565b90506142018382614e08565b98975050505050505050565b6000670de0b6b3a764000061422684846000015161401e565b61183f9190614f62565b600554604051632fe3f38f60e11b81523060048201526001600160a01b03838116602483015286811660448301528581166064830152608482018590526000921690635fc7e71e9060a4016020604051808303816000875af115801561429a573d6000803e3d6000fd5b505050506040513d601f19601f820116820180604052508101906142be9190614d59565b905080156142e257604051630a14d17960e11b81526004810182905260240161099d565b4360095414614304576040516380965b1b60e01b815260040160405180910390fd5b43826001600160a01b0316636c540baf6040518163ffffffff1660e01b8152600401602060405180830381865afa158015614343573d6000803e3d6000fd5b505050506040513d601f19601f820116820180604052508101906143679190614d59565b1461438557604051631046f38d60e31b815260040160405180910390fd5b846001600160a01b0316846001600160a01b031614156143b857604051631bd1a62160e21b815260040160405180910390fd5b826143d65760405163d29da7ef60e01b815260040160405180910390fd5b6000198314156143f957604051635982c5bb60e11b815260040160405180910390fd5b6000614406868686613c5b565b60055460405163c488847b60e01b815291925060009182916001600160a01b03169063c488847b9061444090309089908890600401614ee2565b6040805180830381865afa15801561445c573d6000803e3d6000fd5b505050506040513d601f19601f820116820180604052508101906144809190614ea1565b91509150600082146144f05760405162461bcd60e51b815260206004820152603360248201527f4c49515549444154455f434f4d5054524f4c4c45525f43414c43554c4154455f604482015272105353d5539517d4d152569157d19052531151606a1b606482015260840161099d565b6040516370a0823160e01b81526001600160a01b0388811660048301528291908716906370a0823190602401602060405180830381865afa158015614539573d6000803e3d6000fd5b505050506040513d601f19601f8201168201806040525081019061455d9190614d59565b10156145ab5760405162461bcd60e51b815260206004820152601860248201527f4c49515549444154455f5345495a455f544f4f5f4d5543480000000000000000604482015260640161099d565b6001600160a01b0385163014156145cd576145c8308989846137c8565b614687565b60405163b2a02ff160e01b81526000906001600160a01b0387169063b2a02ff190614600908c908c908790600401614ee2565b6020604051808303816000875af115801561461f573d6000803e3d6000fd5b505050506040513d601f19601f820116820180604052508101906146439190614d59565b146146875760405162461bcd60e51b81526020600482015260146024820152731d1bdad95b881cd95a5e9d5c994819985a5b195960621b604482015260640161099d565b604080516001600160a01b038a811682528981166020830152818301869052871660608201526080810183905290517f298637f684da70674f26509b10f07ec2fbc77a335ab1e7d6215a4b2484d8bb529181900360a00190a15050505050505050565b600061183f8284614f62565b80516a636f6e736f6c652e6c6f67602083016000808483855afa5050505050565b82805461472390614cfa565b90600052602060002090601f016020900481019282614745576000855561478b565b82601f1061475e57805160ff191683800117855561478b565b8280016001018555821561478b579182015b8281111561478b578251825591602001919060010190614770565b50612a129291505b80821115612a125760008155600101614793565b6001600160a01b03811681146147bc57600080fd5b50565b6000602082840312156147d157600080fd5b813561183f816147a7565b6000815180845260005b81811015614802576020818501810151868301820152016147e6565b81811115614814576000602083870101525b50601f01601f19169290920160200192915050565b60208152600061183f60208301846147dc565b80151581146147bc57600080fd5b6000806040838503121561485d57600080fd5b8235614868816147a7565b915060208301356148788161483c565b809150509250929050565b6000806040838503121561489657600080fd5b82356148a1816147a7565b946020939093013593505050565b6000602082840312156148c157600080fd5b5035919050565b634e487b7160e01b600052604160045260246000fd5b600082601f8301126148ef57600080fd5b813567ffffffffffffffff8082111561490a5761490a6148c8565b604051601f8301601f19908116603f01168101908282118183101715614932576149326148c8565b8160405283815286602085880101111561494b57600080fd5b836020870160208301376000602085830101528094505050505092915050565b803560ff8116811461497c57600080fd5b919050565b600080600080600080600060e0888a03121561499c57600080fd5b87356149a7816147a7565b965060208801356149b7816147a7565b955060408801356149c7816147a7565b945060608801359350608088013567ffffffffffffffff808211156149eb57600080fd5b6149f78b838c016148de565b945060a08a0135915080821115614a0d57600080fd5b50614a1a8a828b016148de565b925050614a2960c0890161496b565b905092959891949750929550565b600080600060608486031215614a4c57600080fd5b8335614a57816147a7565b92506020840135614a67816147a7565b929592945050506040919091013590565b60008083601f840112614a8a57600080fd5b50813567ffffffffffffffff811115614aa257600080fd5b602083019150836020828501011115614aba57600080fd5b9250929050565b60008060008060008060a08789031215614ada57600080fd5b8635614ae5816147a7565b95506020870135614af5816147a7565b94506040870135935060608701359250608087013567ffffffffffffffff811115614b1f57600080fd5b614b2b89828a01614a78565b979a9699509497509295939492505050565b600080600080600080600060c0888a031215614b5857600080fd5b873596506020880135955060408801359450606088013593506080880135614b7f816147a7565b925060a088013567ffffffffffffffff811115614b9b57600080fd5b614ba78a828b01614a78565b989b979a50959850939692959293505050565b60008060008060008060c08789031215614bd357600080fd5b8635614bde816147a7565b95506020870135614bee816147a7565b945060408701359350606087013567ffffffffffffffff80821115614c1257600080fd5b614c1e8a838b016148de565b94506080890135915080821115614c3457600080fd5b50614c4189828a016148de565b925050614c5060a0880161496b565b90509295509295509295565b600080600060608486031215614c7157600080fd5b83359250602084013591506040840135614c8a816147a7565b809150509250925092565b60008060408385031215614ca857600080fd5b8235614cb3816147a7565b91506020830135614878816147a7565b600080600060608486031215614cd857600080fd5b8335614ce3816147a7565b9250602084013591506040840135614c8a816147a7565b600181811c90821680614d0e57607f821691505b60208210811415614d2f57634e487b7160e01b600052602260045260246000fd5b50919050565b6020808252600a90820152691c994b595b9d195c995960b21b604082015260600190565b600060208284031215614d6b57600080fd5b5051919050565b6001600160a01b03929092168252602082015260400190565b60008060008060008060c08789031215614da457600080fd5b8635614daf8161483c565b95506020870135945060408701359350606087013592506080870135614dd4816147a7565b915060a0870135614de4816147a7565b809150509295509295509295565b634e487b7160e01b600052601160045260246000fd5b600082821015614e1a57614e1a614df2565b500390565b60008219821115614e3257614e32614df2565b500190565b600060208284031215614e4957600080fd5b815161183f8161483c565b861515815285602082015284604082015283606082015260a060808201528160a0820152818360c0830137600081830160c090810191909152601f909201601f1916010195945050505050565b60008060408385031215614eb457600080fd5b505080516020909101519092909150565b600060208284031215614ed757600080fd5b815161183f816147a7565b6001600160a01b039384168152919092166020820152604081019190915260600190565b6001600160a01b0385811682528416602082015260408101839052608060608201819052600090614f39908301846147dc565b9695505050505050565b6000816000190483118215151615614f5d57614f5d614df2565b500290565b600082614f7f57634e487b7160e01b600052601260045260246000fd5b500490565b6001600160a01b039390931683526020830191909152604082015260600190565b604081526000614fb860408301856147dc565b9050826020830152939250505056feddf252ad1be2c89b69c2b068fc378daa952ba7f163c4a11628f55a4df523b3efa26469706673582212204a3760363fe92c1616eb11d325419270a31b2227c63dd5bf4fc48aefb126767a64736f6c634300080a0033",
  "linkReferences": {},
  "deployedLinkReferences": {}
}