{
  "_format": "hh-sol-artifact-1",
  "contractName": "tLens",
  "sourceName": "src/tLens.sol",
  "abi": [
    {
      "inputs": [],
      "stateMutability": "nonpayable",
      "type": "constructor"
    },
    {
      "inputs": [
        {
          "internalType": "address",
          "name": "tFactory_ad",
          "type": "address"
        },
        {
          "internalType": "uint256",
          "name": "vaultId",
          "type": "uint256"
        }
      ],
      "name": "getContracts",
      "outputs": [
        {
          "components": [
            {
              "internalType": "address",
              "name": "vault",
              "type": "address"
            },
            {
              "internalType": "address",
              "name": "splitter",
              "type": "address"
            },
            {
              "internalType": "address",
              "name": "amm",
              "type": "address"
            },
            {
              "internalType": "address",
              "name": "lendingPool",
              "type": "address"
            },
            {
              "internalType": "address",
              "name": "cSenior",
              "type": "address"
            },
            {
              "internalType": "address",
              "name": "cJunior",
              "type": "address"
            },
            {
              "components": [
                {
                  "internalType": "address",
                  "name": "_want",
                  "type": "address"
                },
                {
                  "internalType": "address[]",
                  "name": "_instruments",
                  "type": "address[]"
                },
                {
                  "internalType": "uint256[]",
                  "name": "_ratios",
                  "type": "uint256[]"
                },
                {
                  "internalType": "uint256",
                  "name": "_junior_weight",
                  "type": "uint256"
                },
                {
                  "internalType": "uint256",
                  "name": "_promisedReturn",
                  "type": "uint256"
                },
                {
                  "internalType": "uint256",
                  "name": "inceptionTime",
                  "type": "uint256"
                },
                {
                  "internalType": "uint256",
                  "name": "vaultId",
                  "type": "uint256"
                },
                {
                  "internalType": "uint256",
                  "name": "inceptionPrice",
                  "type": "uint256"
                },
                {
                  "internalType": "bool",
                  "name": "oracleAMM",
                  "type": "bool"
                }
              ],
              "internalType": "struct TrancheFactory.InitParams",
              "name": "param",
              "type": "tuple"
            }
          ],
          "internalType": "struct TrancheFactory.Contracts",
          "name": "",
          "type": "tuple"
        }
      ],
      "stateMutability": "view",
      "type": "function"
    },
    {
      "inputs": [
        {
          "internalType": "address",
          "name": "tFactory_ad",
          "type": "address"
        },
        {
          "internalType": "uint256",
          "name": "vaultId",
          "type": "uint256"
        }
      ],
      "name": "getCurrentMarkPrice",
      "outputs": [
        {
          "internalType": "uint256",
          "name": "",
          "type": "uint256"
        }
      ],
      "stateMutability": "view",
      "type": "function"
    },
    {
      "inputs": [
        {
          "internalType": "address",
          "name": "tFactory_ad",
          "type": "address"
        },
        {
          "internalType": "uint256",
          "name": "vaultId",
          "type": "uint256"
        }
      ],
      "name": "getCurrentValuePrices",
      "outputs": [
        {
          "internalType": "uint256",
          "name": "",
          "type": "uint256"
        },
        {
          "internalType": "uint256",
          "name": "",
          "type": "uint256"
        },
        {
          "internalType": "uint256",
          "name": "",
          "type": "uint256"
        },
        {
          "internalType": "uint256",
          "name": "",
          "type": "uint256"
        }
      ],
      "stateMutability": "view",
      "type": "function"
    },
    {
      "inputs": [
        {
          "internalType": "address",
          "name": "tFactory_ad",
          "type": "address"
        },
        {
          "internalType": "uint256",
          "name": "vaultId",
          "type": "uint256"
        }
      ],
      "name": "getElapsedTime",
      "outputs": [
        {
          "internalType": "uint256",
          "name": "",
          "type": "uint256"
        }
      ],
      "stateMutability": "view",
      "type": "function"
    },
    {
      "inputs": [
        {
          "internalType": "address",
          "name": "tFactory_ad",
          "type": "address"
        }
      ],
      "name": "getNumVaults",
      "outputs": [
        {
          "internalType": "uint256",
          "name": "",
          "type": "uint256"
        }
      ],
      "stateMutability": "view",
      "type": "function"
    },
    {
      "inputs": [],
      "name": "getNumber",
      "outputs": [
        {
          "internalType": "uint256",
          "name": "",
          "type": "uint256"
        }
      ],
      "stateMutability": "view",
      "type": "function"
    },
    {
      "inputs": [
        {
          "internalType": "address",
          "name": "tFactory_ad",
          "type": "address"
        },
        {
          "internalType": "uint256",
          "name": "vaultId",
          "type": "uint256"
        },
        {
          "internalType": "address",
          "name": "who",
          "type": "address"
        },
        {
          "components": [
            {
              "internalType": "address",
              "name": "vault",
              "type": "address"
            },
            {
              "internalType": "address",
              "name": "splitter",
              "type": "address"
            },
            {
              "internalType": "address",
              "name": "amm",
              "type": "address"
            },
            {
              "internalType": "address",
              "name": "lendingPool",
              "type": "address"
            },
            {
              "internalType": "address",
              "name": "cSenior",
              "type": "address"
            },
            {
              "internalType": "address",
              "name": "cJunior",
              "type": "address"
            },
            {
              "components": [
                {
                  "internalType": "address",
                  "name": "_want",
                  "type": "address"
                },
                {
                  "internalType": "address[]",
                  "name": "_instruments",
                  "type": "address[]"
                },
                {
                  "internalType": "uint256[]",
                  "name": "_ratios",
                  "type": "uint256[]"
                },
                {
                  "internalType": "uint256",
                  "name": "_junior_weight",
                  "type": "uint256"
                },
                {
                  "internalType": "uint256",
                  "name": "_promisedReturn",
                  "type": "uint256"
                },
                {
                  "internalType": "uint256",
                  "name": "inceptionTime",
                  "type": "uint256"
                },
                {
                  "internalType": "uint256",
                  "name": "vaultId",
                  "type": "uint256"
                },
                {
                  "internalType": "uint256",
                  "name": "inceptionPrice",
                  "type": "uint256"
                },
                {
                  "internalType": "bool",
                  "name": "oracleAMM",
                  "type": "bool"
                }
              ],
              "internalType": "struct TrancheFactory.InitParams",
              "name": "param",
              "type": "tuple"
            }
          ],
          "internalType": "struct TrancheFactory.Contracts",
          "name": "contracts",
          "type": "tuple"
        }
      ],
      "name": "getPositions",
      "outputs": [
        {
          "components": [
            {
              "internalType": "uint256",
              "name": "priceLower",
              "type": "uint256"
            },
            {
              "internalType": "uint256",
              "name": "priceUpper",
              "type": "uint256"
            },
            {
              "internalType": "uint256",
              "name": "liquidity",
              "type": "uint256"
            }
          ],
          "internalType": "struct tLens.UserLiquidityPositions[]",
          "name": "",
          "type": "tuple[]"
        },
        {
          "components": [
            {
              "internalType": "uint256",
              "name": "price",
              "type": "uint256"
            },
            {
              "internalType": "uint256",
              "name": "amount",
              "type": "uint256"
            },
            {
              "internalType": "bool",
              "name": "claimable",
              "type": "bool"
            },
            {
              "internalType": "bool",
              "name": "isAsk",
              "type": "bool"
            }
          ],
          "internalType": "struct tLens.UserLimitPositions[]",
          "name": "",
          "type": "tuple[]"
        }
      ],
      "stateMutability": "view",
      "type": "function"
    },
    {
      "inputs": [
        {
          "internalType": "address",
          "name": "tFactory_ad",
          "type": "address"
        },
        {
          "internalType": "uint256",
          "name": "vaultId",
          "type": "uint256"
        }
      ],
      "name": "getPrices",
      "outputs": [
        {
          "internalType": "uint256",
          "name": "",
          "type": "uint256"
        },
        {
          "internalType": "uint256",
          "name": "",
          "type": "uint256"
        },
        {
          "internalType": "uint256",
          "name": "",
          "type": "uint256"
        },
        {
          "internalType": "uint256",
          "name": "",
          "type": "uint256"
        }
      ],
      "stateMutability": "view",
      "type": "function"
    },
    {
      "inputs": [
        {
          "internalType": "address",
          "name": "tFactory_ad",
          "type": "address"
        },
        {
          "internalType": "uint256",
          "name": "vaultId",
          "type": "uint256"
        }
      ],
      "name": "getTrancheInfo",
      "outputs": [
        {
          "components": [
            {
              "internalType": "address",
              "name": "_want",
              "type": "address"
            },
            {
              "internalType": "address[]",
              "name": "_instruments",
              "type": "address[]"
            },
            {
              "internalType": "uint256[]",
              "name": "_ratios",
              "type": "uint256[]"
            },
            {
              "internalType": "uint256",
              "name": "_junior_weight",
              "type": "uint256"
            },
            {
              "internalType": "uint256",
              "name": "_promisedReturn",
              "type": "uint256"
            },
            {
              "internalType": "uint256",
              "name": "_time_to_maturity",
              "type": "uint256"
            },
            {
              "internalType": "uint256",
              "name": "vaultId",
              "type": "uint256"
            },
            {
              "internalType": "uint256",
              "name": "inceptionPrice",
              "type": "uint256"
            },
            {
              "internalType": "uint256",
              "name": "psu",
              "type": "uint256"
            },
            {
              "internalType": "uint256",
              "name": "pju",
              "type": "uint256"
            },
            {
              "internalType": "uint256",
              "name": "pjs",
              "type": "uint256"
            },
            {
              "internalType": "uint256",
              "name": "pvu",
              "type": "uint256"
            },
            {
              "internalType": "uint256",
              "name": "curMarkPrice",
              "type": "uint256"
            },
            {
              "internalType": "address",
              "name": "tVaultAd",
              "type": "address"
            },
            {
              "internalType": "address",
              "name": "seniorAd",
              "type": "address"
            },
            {
              "internalType": "address",
              "name": "juniorAd",
              "type": "address"
            },
            {
              "internalType": "uint256",
              "name": "blocknumber",
              "type": "uint256"
            },
            {
              "internalType": "address",
              "name": "_creator",
              "type": "address"
            },
            {
              "internalType": "string[]",
              "name": "_names",
              "type": "string[]"
            },
            {
              "internalType": "string",
              "name": "_descriptions",
              "type": "string"
            },
            {
              "internalType": "bool",
              "name": "isOracleAMM",
              "type": "bool"
            },
            {
              "internalType": "address",
              "name": "oammAddress",
              "type": "address"
            },
            {
              "internalType": "uint256",
              "name": "ammValue",
              "type": "uint256"
            },
            {
              "internalType": "uint256",
              "name": "ammJuniorBal",
              "type": "uint256"
            },
            {
              "internalType": "uint256",
              "name": "ammSeniorBal",
              "type": "uint256"
            }
          ],
          "internalType": "struct tLens.TrancheInfo",
          "name": "",
          "type": "tuple"
        }
      ],
      "stateMutability": "view",
      "type": "function"
    },
    {
      "inputs": [
        {
          "internalType": "address",
          "name": "tFactory_ad",
          "type": "address"
        }
      ],
      "name": "getTrancheInfoBatch",
      "outputs": [
        {
          "components": [
            {
              "internalType": "address",
              "name": "_want",
              "type": "address"
            },
            {
              "internalType": "address[]",
              "name": "_instruments",
              "type": "address[]"
            },
            {
              "internalType": "uint256[]",
              "name": "_ratios",
              "type": "uint256[]"
            },
            {
              "internalType": "uint256",
              "name": "_junior_weight",
              "type": "uint256"
            },
            {
              "internalType": "uint256",
              "name": "_promisedReturn",
              "type": "uint256"
            },
            {
              "internalType": "uint256",
              "name": "_time_to_maturity",
              "type": "uint256"
            },
            {
              "internalType": "uint256",
              "name": "vaultId",
              "type": "uint256"
            },
            {
              "internalType": "uint256",
              "name": "inceptionPrice",
              "type": "uint256"
            },
            {
              "internalType": "uint256",
              "name": "psu",
              "type": "uint256"
            },
            {
              "internalType": "uint256",
              "name": "pju",
              "type": "uint256"
            },
            {
              "internalType": "uint256",
              "name": "pjs",
              "type": "uint256"
            },
            {
              "internalType": "uint256",
              "name": "pvu",
              "type": "uint256"
            },
            {
              "internalType": "uint256",
              "name": "curMarkPrice",
              "type": "uint256"
            },
            {
              "internalType": "address",
              "name": "tVaultAd",
              "type": "address"
            },
            {
              "internalType": "address",
              "name": "seniorAd",
              "type": "address"
            },
            {
              "internalType": "address",
              "name": "juniorAd",
              "type": "address"
            },
            {
              "internalType": "uint256",
              "name": "blocknumber",
              "type": "uint256"
            },
            {
              "internalType": "address",
              "name": "_creator",
              "type": "address"
            },
            {
              "internalType": "string[]",
              "name": "_names",
              "type": "string[]"
            },
            {
              "internalType": "string",
              "name": "_descriptions",
              "type": "string"
            },
            {
              "internalType": "bool",
              "name": "isOracleAMM",
              "type": "bool"
            },
            {
              "internalType": "address",
              "name": "oammAddress",
              "type": "address"
            },
            {
              "internalType": "uint256",
              "name": "ammValue",
              "type": "uint256"
            },
            {
              "internalType": "uint256",
              "name": "ammJuniorBal",
              "type": "uint256"
            },
            {
              "internalType": "uint256",
              "name": "ammSeniorBal",
              "type": "uint256"
            }
          ],
          "internalType": "struct tLens.TrancheInfo[]",
          "name": "",
          "type": "tuple[]"
        }
      ],
      "stateMutability": "view",
      "type": "function"
    },
    {
      "inputs": [
        {
          "internalType": "address",
          "name": "tFactory_ad",
          "type": "address"
        },
        {
          "internalType": "uint256",
          "name": "vaultId",
          "type": "uint256"
        }
      ],
      "name": "getTranches",
      "outputs": [
        {
          "internalType": "address",
          "name": "",
          "type": "address"
        },
        {
          "internalType": "address",
          "name": "",
          "type": "address"
        }
      ],
      "stateMutability": "view",
      "type": "function"
    },
    {
      "inputs": [
        {
          "internalType": "address",
          "name": "tFactory_ad",
          "type": "address"
        },
        {
          "internalType": "address",
          "name": "account",
          "type": "address"
        },
        {
          "internalType": "uint256",
          "name": "vaultId",
          "type": "uint256"
        }
      ],
      "name": "getUserInfo",
      "outputs": [
        {
          "components": [
            {
              "internalType": "uint256",
              "name": "tVaultBal",
              "type": "uint256"
            },
            {
              "internalType": "uint256",
              "name": "seniorBal",
              "type": "uint256"
            },
            {
              "internalType": "uint256",
              "name": "juniorBal",
              "type": "uint256"
            },
            {
              "internalType": "uint256",
              "name": "cSeniorBal",
              "type": "uint256"
            },
            {
              "internalType": "uint256",
              "name": "cJuniorBal",
              "type": "uint256"
            },
            {
              "internalType": "uint256",
              "name": "seniorDebt",
              "type": "uint256"
            },
            {
              "internalType": "uint256",
              "name": "juniorDebt",
              "type": "uint256"
            },
            {
              "components": [
                {
                  "internalType": "uint256",
                  "name": "priceLower",
                  "type": "uint256"
                },
                {
                  "internalType": "uint256",
                  "name": "priceUpper",
                  "type": "uint256"
                },
                {
                  "internalType": "uint256",
                  "name": "liquidity",
                  "type": "uint256"
                }
              ],
              "internalType": "struct tLens.UserLiquidityPositions[]",
              "name": "liqPositions",
              "type": "tuple[]"
            },
            {
              "components": [
                {
                  "internalType": "uint256",
                  "name": "price",
                  "type": "uint256"
                },
                {
                  "internalType": "uint256",
                  "name": "amount",
                  "type": "uint256"
                },
                {
                  "internalType": "bool",
                  "name": "claimable",
                  "type": "bool"
                },
                {
                  "internalType": "bool",
                  "name": "isAsk",
                  "type": "bool"
                }
              ],
              "internalType": "struct tLens.UserLimitPositions[]",
              "name": "limitPositions",
              "type": "tuple[]"
            },
            {
              "internalType": "uint256",
              "name": "UserLiquidityValue",
              "type": "uint256"
            },
            {
              "internalType": "uint256",
              "name": "UserLiquidityAmount",
              "type": "uint256"
            },
            {
              "internalType": "uint256",
              "name": "UserTrancheValue",
              "type": "uint256"
            }
          ],
          "internalType": "struct tLens.UserInfo",
          "name": "",
          "type": "tuple"
        }
      ],
      "stateMutability": "view",
      "type": "function"
    },
    {
      "inputs": [
        {
          "internalType": "address",
          "name": "tFactory_ad",
          "type": "address"
        },
        {
          "internalType": "uint256",
          "name": "vaultId",
          "type": "uint256"
        }
      ],
      "name": "getVaultParams",
      "outputs": [
        {
          "components": [
            {
              "internalType": "address",
              "name": "_want",
              "type": "address"
            },
            {
              "internalType": "address[]",
              "name": "_instruments",
              "type": "address[]"
            },
            {
              "internalType": "uint256[]",
              "name": "_ratios",
              "type": "uint256[]"
            },
            {
              "internalType": "uint256",
              "name": "_junior_weight",
              "type": "uint256"
            },
            {
              "internalType": "uint256",
              "name": "_promisedReturn",
              "type": "uint256"
            },
            {
              "internalType": "uint256",
              "name": "inceptionTime",
              "type": "uint256"
            },
            {
              "internalType": "uint256",
              "name": "vaultId",
              "type": "uint256"
            },
            {
              "internalType": "uint256",
              "name": "inceptionPrice",
              "type": "uint256"
            },
            {
              "internalType": "bool",
              "name": "oracleAMM",
              "type": "bool"
            }
          ],
          "internalType": "struct TrancheFactory.InitParams",
          "name": "",
          "type": "tuple"
        }
      ],
      "stateMutability": "view",
      "type": "function"
    },
    {
      "inputs": [
        {
          "internalType": "address",
          "name": "tFactory_ad",
          "type": "address"
        }
      ],
      "name": "setTFactory",
      "outputs": [],
      "stateMutability": "nonpayable",
      "type": "function"
    },
    {
      "inputs": [
        {
          "internalType": "address",
          "name": "tMaster_ad",
          "type": "address"
        }
      ],
      "name": "setTMaster",
      "outputs": [],
      "stateMutability": "nonpayable",
      "type": "function"
    }
  ],
  "bytecode": "0x608060405234801561001057600080fd5b50600080546001600160a01b03191633179055613051806100326000396000f3fe608060405234801561001057600080fd5b50600436106100f55760003560e01c80636c47942411610097578063d5e1a18b11610066578063d5e1a18b14610262578063e1d6e16614610275578063e9ab302714610295578063f2c9ecd8146102a857600080fd5b80636c479424146101ec578063a1d116e314610201578063a5b30f3614610222578063cb212b961461024257600080fd5b8063568ead73116100d3578063568ead73146101535780636227ee67146101865780636879fbdf146101a65780636a583e0e146101b957600080fd5b806306c37c57146100fa5780633e5e2c61146101205780635020503114610140575b600080fd5b61010d610108366004611f33565b6102af565b6040519081526020015b60405180910390f35b61013361012e366004611f5f565b610391565b604051610117919061223f565b61010d61014e366004611f33565b610471565b610166610161366004611f33565b610527565b604080519485526020850193909352918301526060820152608001610117565b6101996101943660046122a1565b610778565b604051610117919061237c565b61010d6101b4366004611f5f565b610d33565b6101cc6101c7366004611f33565b610d9d565b604080516001600160a01b03938416815292909116602083015201610117565b6101ff6101fa366004611f5f565b610e88565b005b61021461020f3660046126b1565b610ef6565b6040516101179291906127b2565b610235610230366004611f33565b611546565b60405161011791906127e0565b610255610250366004611f33565b611a89565b6040516101179190612889565b610166610270366004611f33565b611b05565b610288610283366004611f33565b611c42565b604051610117919061289c565b6101ff6102a3366004611f5f565b611cb7565b602061010d565b60405163439e23fd60e01b81526004810182905260009081906001600160a01b0385169063439e23fd90602401600060405180830381865afa1580156102f9573d6000803e3d6000fd5b505050506040513d6000823e601f3d908101601f191682016040526103219190810190612a97565b905080602001516001600160a01b03166351453f9d6040518163ffffffff1660e01b8152600401602060405180830381865afa158015610365573d6000803e3d6000fd5b505050506040513d601f19601f820116820180604052508101906103899190612b69565b949350505050565b6060600061039e83610d33565b90506000816001600160401b038111156103ba576103ba61242f565b6040519080825280602002602001820160405280156103f357816020015b6103e0611d1c565b8152602001906001900390816103d85790505b5090506103fe611d1c565b6000805b84811015610466576104148782611546565b80519093506001600160a01b031615610454578284838151811061043a5761043a612b82565b6020026020010181905250818061045090612b98565b9250505b8061045e81612b98565b915050610402565b509195945050505050565b60405163439e23fd60e01b81526004810182905260009081906001600160a01b0385169063439e23fd90602401600060405180830381865afa1580156104bb573d6000803e3d6000fd5b505050506040513d6000823e601f3d908101601f191682016040526104e39190810190612a97565b905080604001516001600160a01b03166311e715d66040518163ffffffff1660e01b8152600401602060405180830381865afa158015610365573d6000803e3d6000fd5b6000806000806000866001600160a01b031663439e23fd876040518263ffffffff1660e01b815260040161055d91815260200190565b600060405180830381865afa15801561057a573d6000803e3d6000fd5b505050506040513d6000823e601f3d908101601f191682016040526105a29190810190612a97565b905060008160c00151610100015161062c57815160405163b3d7f6b960e01b8152670de0b6b3a764000060048201526001600160a01b039091169063b3d7f6b990602401602060405180830381865afa158015610603573d6000803e3d6000fd5b505050506040513d601f19601f820116820180604052508101906106279190612b69565b6106f5565b60405162854ef360e51b8152600481018890526001600160a01b038916906310a9de6090602401602060405180830381865afa158015610670573d6000803e3d6000fd5b505050506040513d601f19601f820116820180604052508101906106949190612bc1565b6001600160a01b031663e6aa216c6040518163ffffffff1660e01b8152600401602060405180830381865afa1580156106d1573d6000803e3d6000fd5b505050506040513d601f19601f820116820180604052508101906106f59190612b69565b9050600080600084602001516001600160a01b031663d85734466040518163ffffffff1660e01b8152600401606060405180830381865afa15801561073e573d6000803e3d6000fd5b505050506040513d601f19601f820116820180604052508101906107629190612bde565b919d909c50909a50939850929650505050505050565b610780611e10565b60405163439e23fd60e01b8152600481018390526000906001600160a01b0386169063439e23fd90602401600060405180830381865afa1580156107c8573d6000803e3d6000fd5b505050506040513d6000823e601f3d908101601f191682016040526107f09190810190612a97565b90506107fa611e10565b81516040516370a0823160e01b81526001600160a01b038781166004830152909116906370a0823190602401602060405180830381865afa158015610843573d6000803e3d6000fd5b505050506040513d601f19601f820116820180604052508101906108679190612b69565b81600001818152505060008083602001516001600160a01b031663e9c52e586040518163ffffffff1660e01b81526004016040805180830381865afa1580156108b4573d6000803e3d6000fd5b505050506040513d601f19601f820116820180604052508101906108d89190612c0c565b6040516370a0823160e01b81526001600160a01b038a81166004830152929450909250908216906370a0823190602401602060405180830381865afa158015610925573d6000803e3d6000fd5b505050506040513d601f19601f820116820180604052508101906109499190612b69565b60208401526040516370a0823160e01b81526001600160a01b0388811660048301528316906370a0823190602401602060405180830381865afa158015610994573d6000803e3d6000fd5b505050506040513d601f19601f820116820180604052508101906109b89190612b69565b604080850191909152608085015190516370a0823160e01b81526001600160a01b038981166004830152909116906370a0823190602401602060405180830381865afa158015610a0c573d6000803e3d6000fd5b505050506040513d601f19601f82011682018060405250810190610a309190612b69565b606084015260a08401516040516370a0823160e01b81526001600160a01b038981166004830152909116906370a0823190602401602060405180830381865afa158015610a81573d6000803e3d6000fd5b505050506040513d601f19601f82011682018060405250810190610aa59190612b69565b6080848101919091528401516040516395dd919360e01b81526001600160a01b038981166004830152909116906395dd919390602401602060405180830381865afa158015610af8573d6000803e3d6000fd5b505050506040513d601f19601f82011682018060405250810190610b1c9190612b69565b60a0848101919091528401516040516395dd919360e01b81526001600160a01b038981166004830152909116906395dd919390602401602060405180830381865afa158015610b6f573d6000803e3d6000fd5b505050506040513d601f19601f82011682018060405250810190610b939190612b69565b60c0808501919091528401516101000151610bc457610bb488878987610ef6565b61010085015260e0840152610d27565b604080850151905163f2166a0160e01b81526001600160a01b0389811660048301529091169063f2166a0190602401602060405180830381865afa158015610c10573d6000803e3d6000fd5b505050506040513d601f19601f82011682018060405250810190610c349190612b69565b61016084015260408481015190516370a0823160e01b81526001600160a01b038981166004830152909116906370a0823190602401602060405180830381865afa158015610c86573d6000803e3d6000fd5b505050506040513d601f19601f82011682018060405250810190610caa9190612b69565b6101408401819052604085810151905163266d6a8360e11b815260048101929092526001600160a01b031690634cdad50690602401602060405180830381865afa158015610cfc573d6000803e3d6000fd5b505050506040513d601f19601f82011682018060405250810190610d209190612b69565b6101208401525b50909695505050505050565b6000816001600160a01b031663af640d0f6040518163ffffffff1660e01b8152600401602060405180830381865afa158015610d73573d6000803e3d6000fd5b505050506040513d601f19601f82011682018060405250810190610d979190612b69565b92915050565b6000806000846001600160a01b031663439e23fd856040518263ffffffff1660e01b8152600401610dd091815260200190565b600060405180830381865afa158015610ded573d6000803e3d6000fd5b505050506040513d6000823e601f3d908101601f19168201604052610e159190810190612a97565b905080602001516001600160a01b031663e9c52e586040518163ffffffff1660e01b81526004016040805180830381865afa158015610e58573d6000803e3d6000fd5b505050506040513d601f19601f82011682018060405250810190610e7c9190612c0c565b92509250509250929050565b6000546001600160a01b03163314610ed45760405162461bcd60e51b8152600401610ecb906020808252600490820152630c2eae8d60e31b604082015260600190565b60405180910390fd5b600180546001600160a01b0319166001600160a01b0392909216919091179055565b6040805160a081018252600080825260208201819052606092820183905281830183905260808201528190604084810151905163e62f558560e01b81526001600160a01b0387811660048301526000919083169063e62f558590602401600060405180830381865afa158015610f70573d6000803e3d6000fd5b505050506040513d6000823e601f3d908101601f19168201604052610f989190810190612c58565b60405163119c08b560e01b81526001600160a01b03898116600483015291925060009184169063119c08b590602401600060405180830381865afa158015610fe4573d6000803e3d6000fd5b505050506040513d6000823e601f3d908101601f1916820160405261100c9190810190612d1c565b905081516001600160401b038111156110275761102761242f565b60405190808252806020026020018201604052801561107c57816020015b61106960405180606001604052806000815260200160008152602001600081525090565b8152602001906001900390816110455790505b50604085015280516001600160401b0381111561109b5761109b61242f565b6040519080825280602002602001820160405280156110ed57816020015b6040805160808101825260008082526020808301829052928201819052606082015282526000199092019101816110b95790505b50606085015281511561135f5760005b825181101561135d576040518060600160405280856001600160a01b0316638ce2699986858151811061113257611132612b82565b6020908102919091010151516040516001600160e01b031960e084901b16815261ffff9091166004820152602401602060405180830381865afa15801561117d573d6000803e3d6000fd5b505050506040513d601f19601f820116820180604052508101906111a19190612bc1565b6001600160a01b03168152602001856001600160a01b0316638ce269998685815181106111d0576111d0612b82565b6020026020010151602001516040518263ffffffff1660e01b8152600401611202919061ffff91909116815260200190565b602060405180830381865afa15801561121f573d6000803e3d6000fd5b505050506040513d601f19601f820116820180604052508101906112439190612bc1565b6001600160a01b03168152602001856001600160a01b031663dcc344298c87868151811061127357611273612b82565b60200260200101516000015188878151811061129157611291612b82565b60209081029190910181015101516040516001600160e01b031960e086901b1681526001600160a01b03909316600484015261ffff918216602484015216604482015260640161012060405180830381865afa1580156112f5573d6000803e3d6000fd5b505050506040513d601f19601f820116820180604052508101906113199190612dbf565b608001516001600160801b03168152508560400151828151811061133f5761133f612b82565b6020026020010181905250808061135590612b98565b9150506110fd565b505b80511561152b5760005b815181101561152957836001600160a01b03166384529be583838151811061139357611393612b82565b60200260200101518b6040518363ffffffff1660e01b81526004016113d192919061ffff9290921682526001600160a01b0316602082015260400190565b606060405180830381865afa1580156113ee573d6000803e3d6000fd5b505050506040513d601f19601f820116820180604052508101906114129190612e5d565b15156080808901919091529015156020880152908652604080519182019052825181906001600160a01b03871690638ce269999086908690811061145857611458612b82565b60200260200101516040518263ffffffff1660e01b8152600401611486919061ffff91909116815260200190565b602060405180830381865afa1580156114a3573d6000803e3d6000fd5b505050506040513d601f19601f820116820180604052508101906114c79190612bc1565b6001600160a01b0316815260200186600001518152602001866020015115158152602001866080015115158152508560600151828151811061150b5761150b612b82565b6020026020010181905250808061152190612b98565b915050611369565b505b83604001518460600151955095505050505094509492505050565b61154e611d1c565b604051630452783960e11b8152600481018390526000906001600160a01b038516906308a4f07290602401600060405180830381865afa158015611596573d6000803e3d6000fd5b505050506040513d6000823e601f3d908101601f191682016040526115be9190810190612ea0565b60405163439e23fd60e01b8152600481018590529091506000906001600160a01b0386169063439e23fd90602401600060405180830381865afa158015611609573d6000803e3d6000fd5b505050506040513d6000823e601f3d908101601f191682016040526116319190810190612a97565b90506000806000806116438989610527565b935093509350935060008560c00151610100015161166a576116658a8a610471565b61166d565b60005b905060008087602001516001600160a01b031663e9c52e586040518163ffffffff1660e01b81526004016040805180830381865afa1580156116b3573d6000803e3d6000fd5b505050506040513d601f19601f820116820180604052508101906116d79190612c0c565b895160c08b01516101000151929450909250906000906116f8576000611767565b60408a810151905163f2166a0160e01b81526001600160a01b03909116600482018190529063f2166a0190602401602060405180830381865afa158015611743573d6000803e3d6000fd5b505050506040513d601f19601f820116820180604052508101906117679190612b69565b90506040518061032001604052808c600001516001600160a01b031681526020018c6020015181526020018c6040015181526020018c6060015181526020018c6080015181526020018c60a0015181526020018c60c0015181526020018c60e0015181526020018a81526020018981526020018881526020018781526020018681526020018b600001516001600160a01b03168152602001846001600160a01b03168152602001856001600160a01b03168152602001438152602001836001600160a01b03166302d05d3f6040518163ffffffff1660e01b8152600401602060405180830381865afa158015611861573d6000803e3d6000fd5b505050506040513d601f19601f820116820180604052508101906118859190612bc1565b6001600160a01b03168152602001836001600160a01b031663cd838f0f6040518163ffffffff1660e01b8152600401600060405180830381865afa1580156118d1573d6000803e3d6000fd5b505050506040513d6000823e601f3d908101601f191682016040526118f99190810190612f37565b8152602001836001600160a01b0316634fe2f0ed6040518163ffffffff1660e01b8152600401600060405180830381865afa15801561193c573d6000803e3d6000fd5b505050506040513d6000823e601f3d908101601f191682016040526119649190810190612fe7565b815260c08c01516101000151151560208201526040808d0180516001600160a01b039081168385015260608401869052905191516370a0823160e01b815291811660048301526080909201918716906370a0823190602401602060405180830381865afa1580156119d9573d6000803e3d6000fd5b505050506040513d601f19601f820116820180604052508101906119fd9190612b69565b81526040808d015190516370a0823160e01b81526001600160a01b039182166004820152602090920191908616906370a0823190602401602060405180830381865afa158015611a51573d6000803e3d6000fd5b505050506040513d601f19601f82011682018060405250810190611a759190612b69565b90529e9d5050505050505050505050505050565b611a91611e71565b604051630452783960e11b8152600481018390526001600160a01b038416906308a4f07290602401600060405180830381865afa158015611ad6573d6000803e3d6000fd5b505050506040513d6000823e601f3d908101601f19168201604052611afe9190810190612ea0565b9392505050565b6000806000806000866001600160a01b031663439e23fd876040518263ffffffff1660e01b8152600401611b3b91815260200190565b600060405180830381865afa158015611b58573d6000803e3d6000fd5b505050506040513d6000823e601f3d908101601f19168201604052611b809190810190612a97565b805160405163b3d7f6b960e01b8152670de0b6b3a764000060048201529192506000916001600160a01b039091169063b3d7f6b990602401602060405180830381865afa158015611bd5573d6000803e3d6000fd5b505050506040513d601f19601f82011682018060405250810190611bf99190612b69565b9050600080600084602001516001600160a01b0316639a4585836040518163ffffffff1660e01b8152600401606060405180830381865afa15801561073e573d6000803e3d6000fd5b611c4a611ec8565b60405163439e23fd60e01b8152600481018390526001600160a01b0384169063439e23fd90602401600060405180830381865afa158015611c8f573d6000803e3d6000fd5b505050506040513d6000823e601f3d908101601f19168201604052611afe9190810190612a97565b6000546001600160a01b03163314611cfa5760405162461bcd60e51b8152600401610ecb906020808252600490820152630c2eae8d60e31b604082015260600190565b600280546001600160a01b0319166001600160a01b0392909216919091179055565b60405180610320016040528060006001600160a01b0316815260200160608152602001606081526020016000815260200160008152602001600081526020016000815260200160008152602001600081526020016000815260200160008152602001600081526020016000815260200160006001600160a01b0316815260200160006001600160a01b0316815260200160006001600160a01b031681526020016000815260200160006001600160a01b03168152602001606081526020016060815260200160001515815260200160006001600160a01b031681526020016000815260200160008152602001600081525090565b6040518061018001604052806000815260200160008152602001600081526020016000815260200160008152602001600081526020016000815260200160608152602001606081526020016000815260200160008152602001600081525090565b60405180610120016040528060006001600160a01b03168152602001606081526020016060815260200160008152602001600081526020016000815260200160008152602001600081526020016000151581525090565b6040805160e081018252600080825260208201819052918101829052606081018290526080810182905260a081019190915260c08101611f06611e71565b905290565b6001600160a01b0381168114611f2057600080fd5b50565b8035611f2e81611f0b565b919050565b60008060408385031215611f4657600080fd5b8235611f5181611f0b565b946020939093013593505050565b600060208284031215611f7157600080fd5b8135611afe81611f0b565b600081518084526020808501945080840160005b83811015611fb55781516001600160a01b031687529582019590820190600101611f90565b509495945050505050565b600081518084526020808501945080840160005b83811015611fb557815187529582019590820190600101611fd4565b60005b8381101561200b578181015183820152602001611ff3565b8381111561201a576000848401525b50505050565b60008151808452612038816020860160208601611ff0565b601f01601f19169290920160200192915050565b600082825180855260208086019550808260051b84010181860160005b8481101561209757601f19868403018952612085838351612020565b98840198925090830190600101612069565b5090979650505050505050565b80516001600160a01b03168252600061032060208301518160208601526120cd82860182611f7c565b915050604083015184820360408601526120e78282611fc0565b915050606083015160608501526080830151608085015260a083015160a085015260c083015160c085015260e083015160e08501526101008084015181860152506101208084015181860152506101408084015181860152506101608084015181860152506101808084015181860152506101a080840151612173828701826001600160a01b03169052565b50506101c0838101516001600160a01b03908116918601919091526101e0808501518216908601526102008085015190860152610220808501519091169085015261024080840151858303828701526121cc838261204c565b9250505061026080840151858303828701526121e88382612020565b92505050610280808401516122008287018215159052565b50506102a0838101516001600160a01b0316908501526102c080840151908501526102e080840151908501526103009283015192909301919091525090565b6000602080830181845280855180835260408601915060408160051b870101925083870160005b8281101561229457603f198886030184526122828583516120a4565b94509285019290850190600101612266565b5092979650505050505050565b6000806000606084860312156122b657600080fd5b83356122c181611f0b565b925060208401356122d181611f0b565b929592945050506040919091013590565b600081518084526020808501945080840160005b83811015611fb557815180518852838101518489015260409081015190880152606090960195908201906001016122f6565b600081518084526020808501945080840160005b83811015611fb55781518051885283810151848901526040808201511515908901526060908101511515908801526080909601959082019060010161233c565b6020815281516020820152602082015160408201526040820151606082015260608201516080820152608082015160a082015260a082015160c082015260c082015160e0820152600060e083015161018061010081818601526123e36101a08601846122e2565b9250808601519050610120601f1986850301818701526124038483612328565b908701516101408781019190915287015161016080880191909152909601519190940152509192915050565b634e487b7160e01b600052604160045260246000fd5b60405161012081016001600160401b03811182821017156124685761246861242f565b60405290565b60405160e081016001600160401b03811182821017156124685761246861242f565b604080519081016001600160401b03811182821017156124685761246861242f565b604051601f8201601f191681016001600160401b03811182821017156124da576124da61242f565b604052919050565b60006001600160401b038211156124fb576124fb61242f565b5060051b60200190565b600082601f83011261251657600080fd5b8135602061252b612526836124e2565b6124b2565b82815260059290921b8401810191818101908684111561254a57600080fd5b8286015b8481101561256e57803561256181611f0b565b835291830191830161254e565b509695505050505050565b600082601f83011261258a57600080fd5b8135602061259a612526836124e2565b82815260059290921b840181019181810190868411156125b957600080fd5b8286015b8481101561256e57803583529183019183016125bd565b8015158114611f2057600080fd5b8035611f2e816125d4565b6000610120828403121561260057600080fd5b612608612445565b905061261382611f23565b815260208201356001600160401b038082111561262f57600080fd5b61263b85838601612505565b6020840152604084013591508082111561265457600080fd5b5061266184828501612579565b604083015250606082013560608201526080820135608082015260a082013560a082015260c082013560c082015260e082013560e08201526101006126a78184016125e2565b9082015292915050565b600080600080608085870312156126c757600080fd5b84356126d281611f0b565b93506020850135925060408501356126e981611f0b565b915060608501356001600160401b038082111561270557600080fd5b9086019060e0828903121561271957600080fd5b61272161246e565b61272a83611f23565b815261273860208401611f23565b602082015261274960408401611f23565b604082015261275a60608401611f23565b606082015261276b60808401611f23565b608082015261277c60a08401611f23565b60a082015260c08301358281111561279357600080fd5b61279f8a8286016125ed565b60c0830152509598949750929550505050565b6040815260006127c560408301856122e2565b82810360208401526127d78185612328565b95945050505050565b602081526000611afe60208301846120a4565b80516001600160a01b031682526000610120602083015181602086015261281c82860182611f7c565b915050604083015184820360408601526128368282611fc0565b915050606083015160608501526080830151608085015260a083015160a085015260c083015160c085015260e083015160e08501526101008084015161287f8287018215159052565b5090949350505050565b602081526000611afe60208301846127f3565b60208152600060018060a01b038084511660208401528060208501511660408401528060408501511660608401528060608501511660808401528060808501511660a08401528060a08501511660c08401525060c083015160e0808401526103896101008401826127f3565b8051611f2e81611f0b565b600082601f83011261292457600080fd5b81516020612934612526836124e2565b82815260059290921b8401810191818101908684111561295357600080fd5b8286015b8481101561256e57805161296a81611f0b565b8352918301918301612957565b600082601f83011261298857600080fd5b81516020612998612526836124e2565b82815260059290921b840181019181810190868411156129b757600080fd5b8286015b8481101561256e57805183529183019183016129bb565b8051611f2e816125d4565b600061012082840312156129f057600080fd5b6129f8612445565b9050612a0382612908565b815260208201516001600160401b0380821115612a1f57600080fd5b612a2b85838601612913565b60208401526040840151915080821115612a4457600080fd5b50612a5184828501612977565b604083015250606082015160608201526080820151608082015260a082015160a082015260c082015160c082015260e082015160e08201526101006126a78184016129d2565b600060208284031215612aa957600080fd5b81516001600160401b0380821115612ac057600080fd5b9083019060e08286031215612ad457600080fd5b612adc61246e565b612ae583612908565b8152612af360208401612908565b6020820152612b0460408401612908565b6040820152612b1560608401612908565b6060820152612b2660808401612908565b6080820152612b3760a08401612908565b60a082015260c083015182811115612b4e57600080fd5b612b5a878286016129dd565b60c08301525095945050505050565b600060208284031215612b7b57600080fd5b5051919050565b634e487b7160e01b600052603260045260246000fd5b6000600019821415612bba57634e487b7160e01b600052601160045260246000fd5b5060010190565b600060208284031215612bd357600080fd5b8151611afe81611f0b565b600080600060608486031215612bf357600080fd5b8351925060208401519150604084015190509250925092565b60008060408385031215612c1f57600080fd5b8251612c2a81611f0b565b6020840151909250612c3b81611f0b565b809150509250929050565b805161ffff81168114611f2e57600080fd5b60006020808385031215612c6b57600080fd5b82516001600160401b03811115612c8157600080fd5b8301601f81018513612c9257600080fd5b8051612ca0612526826124e2565b81815260069190911b82018301908381019087831115612cbf57600080fd5b928401925b82841015612d115760408489031215612cdd5760008081fd5b612ce5612490565b612cee85612c46565b8152612cfb868601612c46565b8187015282526040939093019290840190612cc4565b979650505050505050565b60006020808385031215612d2f57600080fd5b82516001600160401b03811115612d4557600080fd5b8301601f81018513612d5657600080fd5b8051612d64612526826124e2565b81815260059190911b82018301908381019087831115612d8357600080fd5b928401925b82841015612d1157612d9984612c46565b82529284019290840190612d88565b80516001600160801b0381168114611f2e57600080fd5b60006101208284031215612dd257600080fd5b612dda612445565b612de383612da8565b8152612df160208401612da8565b6020820152612e0260408401612da8565b6040820152612e1360608401612da8565b6060820152612e2460808401612da8565b608082015260a083015160a082015260c083015160c082015260e083015160e08201526101008084015181830152508091505092915050565b600080600060608486031215612e7257600080fd5b835192506020840151612e84816125d4565b6040850151909250612e95816125d4565b809150509250925092565b600060208284031215612eb257600080fd5b81516001600160401b03811115612ec857600080fd5b610389848285016129dd565b600082601f830112612ee557600080fd5b81516001600160401b03811115612efe57612efe61242f565b612f11601f8201601f19166020016124b2565b818152846020838601011115612f2657600080fd5b610389826020830160208701611ff0565b60006020808385031215612f4a57600080fd5b82516001600160401b0380821115612f6157600080fd5b818501915085601f830112612f7557600080fd5b8151612f83612526826124e2565b81815260059190911b83018401908481019088831115612fa257600080fd5b8585015b83811015612fda57805185811115612fbe5760008081fd5b612fcc8b89838a0101612ed4565b845250918601918601612fa6565b5098975050505050505050565b600060208284031215612ff957600080fd5b81516001600160401b0381111561300f57600080fd5b61038984828501612ed456fea26469706673582212209d117e14e2c26ae39027808414e0c7839487cd7e9d922182572408c913fa0cb264736f6c634300080a0033",
  "linkReferences": {},
  "deployedLinkReferences": {}
}