{
  "_format": "hh-sol-artifact-1",
  "contractName": "tLens",
  "sourceName": "src/tLens.sol",
  "abi": [
    {
      "inputs": [],
      "name": "fetchContracts",
      "outputs": [
        {
          "internalType": "uint256",
          "name": "",
          "type": "uint256"
        }
      ],
      "stateMutability": "view",
      "type": "function"
    }
  ],
  "bytecode": "0x6080604052348015600f57600080fd5b50607780601d6000396000f3fe6080604052348015600f57600080fd5b506004361060285760003560e01c80633a00ec1c14602d575b600080fd5b602060405190815260200160405180910390f3fea26469706673582212200413653dd2d5bb68d18993334fba8b13857b330fba3cd3ccfe6349c9b7b319fe64736f6c634300080a0033",
  "linkReferences": {},
  "deployedLinkReferences": {}
}