{
  "_format": "hh-sol-artifact-1",
  "contractName": "tLens",
  "sourceName": "src/tLens.sol",
  "abi": [
    {
      "inputs": [],
      "stateMutability": "nonpayable",
      "type": "constructor"
    },
    {
      "inputs": [
        {
          "internalType": "address",
          "name": "tFactory_ad",
          "type": "address"
        },
        {
          "internalType": "uint256",
          "name": "vaultId",
          "type": "uint256"
        }
      ],
      "name": "getContracts",
      "outputs": [
        {
          "components": [
            {
              "internalType": "address",
              "name": "vault",
              "type": "address"
            },
            {
              "internalType": "address",
              "name": "splitter",
              "type": "address"
            },
            {
              "internalType": "address",
              "name": "amm",
              "type": "address"
            },
            {
              "internalType": "address",
              "name": "lendingPool",
              "type": "address"
            },
            {
              "internalType": "address",
              "name": "cSenior",
              "type": "address"
            },
            {
              "internalType": "address",
              "name": "cJunior",
              "type": "address"
            },
            {
              "components": [
                {
                  "internalType": "address",
                  "name": "_want",
                  "type": "address"
                },
                {
                  "internalType": "address[]",
                  "name": "_instruments",
                  "type": "address[]"
                },
                {
                  "internalType": "uint256[]",
                  "name": "_ratios",
                  "type": "uint256[]"
                },
                {
                  "internalType": "uint256",
                  "name": "_junior_weight",
                  "type": "uint256"
                },
                {
                  "internalType": "uint256",
                  "name": "_promisedReturn",
                  "type": "uint256"
                },
                {
                  "internalType": "uint256",
                  "name": "inceptionTime",
                  "type": "uint256"
                },
                {
                  "internalType": "uint256",
                  "name": "vaultId",
                  "type": "uint256"
                },
                {
                  "internalType": "uint256",
                  "name": "inceptionPrice",
                  "type": "uint256"
                },
                {
                  "internalType": "bool",
                  "name": "oracleAMM",
                  "type": "bool"
                }
              ],
              "internalType": "struct TrancheFactory.InitParams",
              "name": "param",
              "type": "tuple"
            }
          ],
          "internalType": "struct TrancheFactory.Contracts",
          "name": "",
          "type": "tuple"
        }
      ],
      "stateMutability": "view",
      "type": "function"
    },
    {
      "inputs": [
        {
          "internalType": "address",
          "name": "tFactory_ad",
          "type": "address"
        },
        {
          "internalType": "uint256",
          "name": "vaultId",
          "type": "uint256"
        }
      ],
      "name": "getCurrentMarkPrice",
      "outputs": [
        {
          "internalType": "uint256",
          "name": "",
          "type": "uint256"
        }
      ],
      "stateMutability": "view",
      "type": "function"
    },
    {
      "inputs": [
        {
          "internalType": "address",
          "name": "tFactory_ad",
          "type": "address"
        },
        {
          "internalType": "uint256",
          "name": "vaultId",
          "type": "uint256"
        }
      ],
      "name": "getCurrentValuePrices",
      "outputs": [
        {
          "internalType": "uint256",
          "name": "",
          "type": "uint256"
        },
        {
          "internalType": "uint256",
          "name": "",
          "type": "uint256"
        },
        {
          "internalType": "uint256",
          "name": "",
          "type": "uint256"
        },
        {
          "internalType": "uint256",
          "name": "",
          "type": "uint256"
        }
      ],
      "stateMutability": "view",
      "type": "function"
    },
    {
      "inputs": [
        {
          "internalType": "address",
          "name": "tFactory_ad",
          "type": "address"
        },
        {
          "internalType": "uint256",
          "name": "vaultId",
          "type": "uint256"
        }
      ],
      "name": "getElapsedTime",
      "outputs": [
        {
          "internalType": "uint256",
          "name": "",
          "type": "uint256"
        }
      ],
      "stateMutability": "view",
      "type": "function"
    },
    {
      "inputs": [
        {
          "internalType": "address",
          "name": "tFactory_ad",
          "type": "address"
        }
      ],
      "name": "getNumVaults",
      "outputs": [
        {
          "internalType": "uint256",
          "name": "",
          "type": "uint256"
        }
      ],
      "stateMutability": "view",
      "type": "function"
    },
    {
      "inputs": [],
      "name": "getNumber",
      "outputs": [
        {
          "internalType": "uint256",
          "name": "",
          "type": "uint256"
        }
      ],
      "stateMutability": "view",
      "type": "function"
    },
    {
      "inputs": [
        {
          "internalType": "address",
          "name": "tFactory_ad",
          "type": "address"
        },
        {
          "internalType": "uint256",
          "name": "vaultId",
          "type": "uint256"
        },
        {
          "internalType": "address",
          "name": "who",
          "type": "address"
        },
        {
          "components": [
            {
              "internalType": "address",
              "name": "vault",
              "type": "address"
            },
            {
              "internalType": "address",
              "name": "splitter",
              "type": "address"
            },
            {
              "internalType": "address",
              "name": "amm",
              "type": "address"
            },
            {
              "internalType": "address",
              "name": "lendingPool",
              "type": "address"
            },
            {
              "internalType": "address",
              "name": "cSenior",
              "type": "address"
            },
            {
              "internalType": "address",
              "name": "cJunior",
              "type": "address"
            },
            {
              "components": [
                {
                  "internalType": "address",
                  "name": "_want",
                  "type": "address"
                },
                {
                  "internalType": "address[]",
                  "name": "_instruments",
                  "type": "address[]"
                },
                {
                  "internalType": "uint256[]",
                  "name": "_ratios",
                  "type": "uint256[]"
                },
                {
                  "internalType": "uint256",
                  "name": "_junior_weight",
                  "type": "uint256"
                },
                {
                  "internalType": "uint256",
                  "name": "_promisedReturn",
                  "type": "uint256"
                },
                {
                  "internalType": "uint256",
                  "name": "inceptionTime",
                  "type": "uint256"
                },
                {
                  "internalType": "uint256",
                  "name": "vaultId",
                  "type": "uint256"
                },
                {
                  "internalType": "uint256",
                  "name": "inceptionPrice",
                  "type": "uint256"
                },
                {
                  "internalType": "bool",
                  "name": "oracleAMM",
                  "type": "bool"
                }
              ],
              "internalType": "struct TrancheFactory.InitParams",
              "name": "param",
              "type": "tuple"
            }
          ],
          "internalType": "struct TrancheFactory.Contracts",
          "name": "contracts",
          "type": "tuple"
        }
      ],
      "name": "getPositions",
      "outputs": [
        {
          "components": [
            {
              "internalType": "uint256",
              "name": "priceLower",
              "type": "uint256"
            },
            {
              "internalType": "uint256",
              "name": "priceUpper",
              "type": "uint256"
            },
            {
              "internalType": "uint256",
              "name": "liquidity",
              "type": "uint256"
            }
          ],
          "internalType": "struct tLens.UserLiquidityPositions[]",
          "name": "",
          "type": "tuple[]"
        },
        {
          "components": [
            {
              "internalType": "uint256",
              "name": "price",
              "type": "uint256"
            },
            {
              "internalType": "uint256",
              "name": "amount",
              "type": "uint256"
            },
            {
              "internalType": "bool",
              "name": "claimable",
              "type": "bool"
            },
            {
              "internalType": "bool",
              "name": "isAsk",
              "type": "bool"
            }
          ],
          "internalType": "struct tLens.UserLimitPositions[]",
          "name": "",
          "type": "tuple[]"
        }
      ],
      "stateMutability": "view",
      "type": "function"
    },
    {
      "inputs": [
        {
          "internalType": "address",
          "name": "tFactory_ad",
          "type": "address"
        },
        {
          "internalType": "uint256",
          "name": "vaultId",
          "type": "uint256"
        }
      ],
      "name": "getPrices",
      "outputs": [
        {
          "internalType": "uint256",
          "name": "",
          "type": "uint256"
        },
        {
          "internalType": "uint256",
          "name": "",
          "type": "uint256"
        },
        {
          "internalType": "uint256",
          "name": "",
          "type": "uint256"
        },
        {
          "internalType": "uint256",
          "name": "",
          "type": "uint256"
        }
      ],
      "stateMutability": "view",
      "type": "function"
    },
    {
      "inputs": [
        {
          "internalType": "address",
          "name": "tFactory_ad",
          "type": "address"
        },
        {
          "internalType": "uint256",
          "name": "vaultId",
          "type": "uint256"
        }
      ],
      "name": "getTrancheInfo",
      "outputs": [
        {
          "components": [
            {
              "internalType": "address",
              "name": "_want",
              "type": "address"
            },
            {
              "internalType": "address[]",
              "name": "_instruments",
              "type": "address[]"
            },
            {
              "internalType": "uint256[]",
              "name": "_ratios",
              "type": "uint256[]"
            },
            {
              "internalType": "uint256",
              "name": "_junior_weight",
              "type": "uint256"
            },
            {
              "internalType": "uint256",
              "name": "_promisedReturn",
              "type": "uint256"
            },
            {
              "internalType": "uint256",
              "name": "_time_to_maturity",
              "type": "uint256"
            },
            {
              "internalType": "uint256",
              "name": "vaultId",
              "type": "uint256"
            },
            {
              "internalType": "uint256",
              "name": "inceptionPrice",
              "type": "uint256"
            },
            {
              "internalType": "uint256",
              "name": "psu",
              "type": "uint256"
            },
            {
              "internalType": "uint256",
              "name": "pju",
              "type": "uint256"
            },
            {
              "internalType": "uint256",
              "name": "pjs",
              "type": "uint256"
            },
            {
              "internalType": "uint256",
              "name": "pvu",
              "type": "uint256"
            },
            {
              "internalType": "uint256",
              "name": "curMarkPrice",
              "type": "uint256"
            },
            {
              "internalType": "address",
              "name": "tVaultAd",
              "type": "address"
            },
            {
              "internalType": "address",
              "name": "seniorAd",
              "type": "address"
            },
            {
              "internalType": "address",
              "name": "juniorAd",
              "type": "address"
            },
            {
              "internalType": "uint256",
              "name": "blocknumber",
              "type": "uint256"
            },
            {
              "internalType": "address",
              "name": "_creator",
              "type": "address"
            },
            {
              "internalType": "string[]",
              "name": "_names",
              "type": "string[]"
            },
            {
              "internalType": "string",
              "name": "_descriptions",
              "type": "string"
            },
            {
              "internalType": "bool",
              "name": "isOracleAMM",
              "type": "bool"
            },
            {
              "internalType": "address",
              "name": "oammAddress",
              "type": "address"
            },
            {
              "internalType": "uint256",
              "name": "ammValue",
              "type": "uint256"
            },
            {
              "internalType": "uint256",
              "name": "ammJuniorBal",
              "type": "uint256"
            },
            {
              "internalType": "uint256",
              "name": "ammSeniorBal",
              "type": "uint256"
            }
          ],
          "internalType": "struct tLens.TrancheInfo",
          "name": "",
          "type": "tuple"
        }
      ],
      "stateMutability": "view",
      "type": "function"
    },
    {
      "inputs": [
        {
          "internalType": "address",
          "name": "tFactory_ad",
          "type": "address"
        }
      ],
      "name": "getTrancheInfoBatch",
      "outputs": [
        {
          "components": [
            {
              "internalType": "address",
              "name": "_want",
              "type": "address"
            },
            {
              "internalType": "address[]",
              "name": "_instruments",
              "type": "address[]"
            },
            {
              "internalType": "uint256[]",
              "name": "_ratios",
              "type": "uint256[]"
            },
            {
              "internalType": "uint256",
              "name": "_junior_weight",
              "type": "uint256"
            },
            {
              "internalType": "uint256",
              "name": "_promisedReturn",
              "type": "uint256"
            },
            {
              "internalType": "uint256",
              "name": "_time_to_maturity",
              "type": "uint256"
            },
            {
              "internalType": "uint256",
              "name": "vaultId",
              "type": "uint256"
            },
            {
              "internalType": "uint256",
              "name": "inceptionPrice",
              "type": "uint256"
            },
            {
              "internalType": "uint256",
              "name": "psu",
              "type": "uint256"
            },
            {
              "internalType": "uint256",
              "name": "pju",
              "type": "uint256"
            },
            {
              "internalType": "uint256",
              "name": "pjs",
              "type": "uint256"
            },
            {
              "internalType": "uint256",
              "name": "pvu",
              "type": "uint256"
            },
            {
              "internalType": "uint256",
              "name": "curMarkPrice",
              "type": "uint256"
            },
            {
              "internalType": "address",
              "name": "tVaultAd",
              "type": "address"
            },
            {
              "internalType": "address",
              "name": "seniorAd",
              "type": "address"
            },
            {
              "internalType": "address",
              "name": "juniorAd",
              "type": "address"
            },
            {
              "internalType": "uint256",
              "name": "blocknumber",
              "type": "uint256"
            },
            {
              "internalType": "address",
              "name": "_creator",
              "type": "address"
            },
            {
              "internalType": "string[]",
              "name": "_names",
              "type": "string[]"
            },
            {
              "internalType": "string",
              "name": "_descriptions",
              "type": "string"
            },
            {
              "internalType": "bool",
              "name": "isOracleAMM",
              "type": "bool"
            },
            {
              "internalType": "address",
              "name": "oammAddress",
              "type": "address"
            },
            {
              "internalType": "uint256",
              "name": "ammValue",
              "type": "uint256"
            },
            {
              "internalType": "uint256",
              "name": "ammJuniorBal",
              "type": "uint256"
            },
            {
              "internalType": "uint256",
              "name": "ammSeniorBal",
              "type": "uint256"
            }
          ],
          "internalType": "struct tLens.TrancheInfo[]",
          "name": "",
          "type": "tuple[]"
        }
      ],
      "stateMutability": "view",
      "type": "function"
    },
    {
      "inputs": [
        {
          "internalType": "address",
          "name": "tFactory_ad",
          "type": "address"
        },
        {
          "internalType": "uint256",
          "name": "vaultId",
          "type": "uint256"
        }
      ],
      "name": "getTranches",
      "outputs": [
        {
          "internalType": "address",
          "name": "",
          "type": "address"
        },
        {
          "internalType": "address",
          "name": "",
          "type": "address"
        }
      ],
      "stateMutability": "view",
      "type": "function"
    },
    {
      "inputs": [
        {
          "internalType": "address",
          "name": "tFactory_ad",
          "type": "address"
        },
        {
          "internalType": "address",
          "name": "account",
          "type": "address"
        },
        {
          "internalType": "uint256",
          "name": "vaultId",
          "type": "uint256"
        }
      ],
      "name": "getUserInfo",
      "outputs": [
        {
          "components": [
            {
              "internalType": "uint256",
              "name": "tVaultBal",
              "type": "uint256"
            },
            {
              "internalType": "uint256",
              "name": "seniorBal",
              "type": "uint256"
            },
            {
              "internalType": "uint256",
              "name": "juniorBal",
              "type": "uint256"
            },
            {
              "internalType": "uint256",
              "name": "cSeniorBal",
              "type": "uint256"
            },
            {
              "internalType": "uint256",
              "name": "cJuniorBal",
              "type": "uint256"
            },
            {
              "internalType": "uint256",
              "name": "seniorDebt",
              "type": "uint256"
            },
            {
              "internalType": "uint256",
              "name": "juniorDebt",
              "type": "uint256"
            },
            {
              "components": [
                {
                  "internalType": "uint256",
                  "name": "priceLower",
                  "type": "uint256"
                },
                {
                  "internalType": "uint256",
                  "name": "priceUpper",
                  "type": "uint256"
                },
                {
                  "internalType": "uint256",
                  "name": "liquidity",
                  "type": "uint256"
                }
              ],
              "internalType": "struct tLens.UserLiquidityPositions[]",
              "name": "liqPositions",
              "type": "tuple[]"
            },
            {
              "components": [
                {
                  "internalType": "uint256",
                  "name": "price",
                  "type": "uint256"
                },
                {
                  "internalType": "uint256",
                  "name": "amount",
                  "type": "uint256"
                },
                {
                  "internalType": "bool",
                  "name": "claimable",
                  "type": "bool"
                },
                {
                  "internalType": "bool",
                  "name": "isAsk",
                  "type": "bool"
                }
              ],
              "internalType": "struct tLens.UserLimitPositions[]",
              "name": "limitPositions",
              "type": "tuple[]"
            },
            {
              "internalType": "uint256",
              "name": "UserLiquidityValue",
              "type": "uint256"
            },
            {
              "internalType": "uint256",
              "name": "UserLiquidityAmount",
              "type": "uint256"
            },
            {
              "internalType": "uint256",
              "name": "UserTrancheValue",
              "type": "uint256"
            }
          ],
          "internalType": "struct tLens.UserInfo",
          "name": "",
          "type": "tuple"
        }
      ],
      "stateMutability": "view",
      "type": "function"
    },
    {
      "inputs": [
        {
          "internalType": "address",
          "name": "tFactory_ad",
          "type": "address"
        },
        {
          "internalType": "uint256",
          "name": "vaultId",
          "type": "uint256"
        }
      ],
      "name": "getVaultParams",
      "outputs": [
        {
          "components": [
            {
              "internalType": "address",
              "name": "_want",
              "type": "address"
            },
            {
              "internalType": "address[]",
              "name": "_instruments",
              "type": "address[]"
            },
            {
              "internalType": "uint256[]",
              "name": "_ratios",
              "type": "uint256[]"
            },
            {
              "internalType": "uint256",
              "name": "_junior_weight",
              "type": "uint256"
            },
            {
              "internalType": "uint256",
              "name": "_promisedReturn",
              "type": "uint256"
            },
            {
              "internalType": "uint256",
              "name": "inceptionTime",
              "type": "uint256"
            },
            {
              "internalType": "uint256",
              "name": "vaultId",
              "type": "uint256"
            },
            {
              "internalType": "uint256",
              "name": "inceptionPrice",
              "type": "uint256"
            },
            {
              "internalType": "bool",
              "name": "oracleAMM",
              "type": "bool"
            }
          ],
          "internalType": "struct TrancheFactory.InitParams",
          "name": "",
          "type": "tuple"
        }
      ],
      "stateMutability": "view",
      "type": "function"
    },
    {
      "inputs": [
        {
          "internalType": "address",
          "name": "tFactory_ad",
          "type": "address"
        }
      ],
      "name": "setTFactory",
      "outputs": [],
      "stateMutability": "nonpayable",
      "type": "function"
    },
    {
      "inputs": [
        {
          "internalType": "address",
          "name": "tMaster_ad",
          "type": "address"
        }
      ],
      "name": "setTMaster",
      "outputs": [],
      "stateMutability": "nonpayable",
      "type": "function"
    }
  ],
  "bytecode": "0x608060405234801561001057600080fd5b50600080546001600160a01b0319163317905561303b806100326000396000f3fe608060405234801561001057600080fd5b50600436106100f55760003560e01c80636c47942411610097578063d5e1a18b11610066578063d5e1a18b14610262578063e1d6e16614610275578063e9ab302714610295578063f2c9ecd8146102a857600080fd5b80636c479424146101ec578063a1d116e314610201578063a5b30f3614610222578063cb212b961461024257600080fd5b8063568ead73116100d3578063568ead73146101535780636227ee67146101865780636879fbdf146101a65780636a583e0e146101b957600080fd5b806306c37c57146100fa5780633e5e2c61146101205780635020503114610140575b600080fd5b61010d610108366004611f1d565b6102af565b6040519081526020015b60405180910390f35b61013361012e366004611f49565b610391565b6040516101179190612229565b61010d61014e366004611f1d565b610471565b610166610161366004611f1d565b610527565b604080519485526020850193909352918301526060820152608001610117565b61019961019436600461228b565b610778565b6040516101179190612366565b61010d6101b4366004611f49565b610d33565b6101cc6101c7366004611f1d565b610d9d565b604080516001600160a01b03938416815292909116602083015201610117565b6101ff6101fa366004611f49565b610e88565b005b61021461020f36600461269b565b610ef6565b60405161011792919061279c565b610235610230366004611f1d565b611546565b60405161011791906127ca565b610255610250366004611f1d565b611a73565b6040516101179190612873565b610166610270366004611f1d565b611aef565b610288610283366004611f1d565b611c2c565b6040516101179190612886565b6101ff6102a3366004611f49565b611ca1565b602061010d565b60405163439e23fd60e01b81526004810182905260009081906001600160a01b0385169063439e23fd90602401600060405180830381865afa1580156102f9573d6000803e3d6000fd5b505050506040513d6000823e601f3d908101601f191682016040526103219190810190612a81565b905080602001516001600160a01b03166351453f9d6040518163ffffffff1660e01b8152600401602060405180830381865afa158015610365573d6000803e3d6000fd5b505050506040513d601f19601f820116820180604052508101906103899190612b53565b949350505050565b6060600061039e83610d33565b90506000816001600160401b038111156103ba576103ba612419565b6040519080825280602002602001820160405280156103f357816020015b6103e0611d06565b8152602001906001900390816103d85790505b5090506103fe611d06565b6000805b84811015610466576104148782611546565b80519093506001600160a01b031615610454578284838151811061043a5761043a612b6c565b6020026020010181905250818061045090612b82565b9250505b8061045e81612b82565b915050610402565b509195945050505050565b60405163439e23fd60e01b81526004810182905260009081906001600160a01b0385169063439e23fd90602401600060405180830381865afa1580156104bb573d6000803e3d6000fd5b505050506040513d6000823e601f3d908101601f191682016040526104e39190810190612a81565b905080604001516001600160a01b03166311e715d66040518163ffffffff1660e01b8152600401602060405180830381865afa158015610365573d6000803e3d6000fd5b6000806000806000866001600160a01b031663439e23fd876040518263ffffffff1660e01b815260040161055d91815260200190565b600060405180830381865afa15801561057a573d6000803e3d6000fd5b505050506040513d6000823e601f3d908101601f191682016040526105a29190810190612a81565b905060008160c00151610100015161062c57815160405163b3d7f6b960e01b8152670de0b6b3a764000060048201526001600160a01b039091169063b3d7f6b990602401602060405180830381865afa158015610603573d6000803e3d6000fd5b505050506040513d601f19601f820116820180604052508101906106279190612b53565b6106f5565b60405162854ef360e51b8152600481018890526001600160a01b038916906310a9de6090602401602060405180830381865afa158015610670573d6000803e3d6000fd5b505050506040513d601f19601f820116820180604052508101906106949190612bab565b6001600160a01b031663e6aa216c6040518163ffffffff1660e01b8152600401602060405180830381865afa1580156106d1573d6000803e3d6000fd5b505050506040513d601f19601f820116820180604052508101906106f59190612b53565b9050600080600084602001516001600160a01b031663d85734466040518163ffffffff1660e01b8152600401606060405180830381865afa15801561073e573d6000803e3d6000fd5b505050506040513d601f19601f820116820180604052508101906107629190612bc8565b919d909c50909a50939850929650505050505050565b610780611dfa565b60405163439e23fd60e01b8152600481018390526000906001600160a01b0386169063439e23fd90602401600060405180830381865afa1580156107c8573d6000803e3d6000fd5b505050506040513d6000823e601f3d908101601f191682016040526107f09190810190612a81565b90506107fa611dfa565b81516040516370a0823160e01b81526001600160a01b038781166004830152909116906370a0823190602401602060405180830381865afa158015610843573d6000803e3d6000fd5b505050506040513d601f19601f820116820180604052508101906108679190612b53565b81600001818152505060008083602001516001600160a01b031663e9c52e586040518163ffffffff1660e01b81526004016040805180830381865afa1580156108b4573d6000803e3d6000fd5b505050506040513d601f19601f820116820180604052508101906108d89190612bf6565b6040516370a0823160e01b81526001600160a01b038a81166004830152929450909250908216906370a0823190602401602060405180830381865afa158015610925573d6000803e3d6000fd5b505050506040513d601f19601f820116820180604052508101906109499190612b53565b60208401526040516370a0823160e01b81526001600160a01b0388811660048301528316906370a0823190602401602060405180830381865afa158015610994573d6000803e3d6000fd5b505050506040513d601f19601f820116820180604052508101906109b89190612b53565b604080850191909152608085015190516370a0823160e01b81526001600160a01b038981166004830152909116906370a0823190602401602060405180830381865afa158015610a0c573d6000803e3d6000fd5b505050506040513d601f19601f82011682018060405250810190610a309190612b53565b606084015260a08401516040516370a0823160e01b81526001600160a01b038981166004830152909116906370a0823190602401602060405180830381865afa158015610a81573d6000803e3d6000fd5b505050506040513d601f19601f82011682018060405250810190610aa59190612b53565b6080848101919091528401516040516395dd919360e01b81526001600160a01b038981166004830152909116906395dd919390602401602060405180830381865afa158015610af8573d6000803e3d6000fd5b505050506040513d601f19601f82011682018060405250810190610b1c9190612b53565b60a0848101919091528401516040516395dd919360e01b81526001600160a01b038981166004830152909116906395dd919390602401602060405180830381865afa158015610b6f573d6000803e3d6000fd5b505050506040513d601f19601f82011682018060405250810190610b939190612b53565b60c0808501919091528401516101000151610bc457610bb488878987610ef6565b61010085015260e0840152610d27565b604080850151905163f2166a0160e01b81526001600160a01b0389811660048301529091169063f2166a0190602401602060405180830381865afa158015610c10573d6000803e3d6000fd5b505050506040513d601f19601f82011682018060405250810190610c349190612b53565b61016084015260408481015190516370a0823160e01b81526001600160a01b038981166004830152909116906370a0823190602401602060405180830381865afa158015610c86573d6000803e3d6000fd5b505050506040513d601f19601f82011682018060405250810190610caa9190612b53565b6101408401819052604085810151905163266d6a8360e11b815260048101929092526001600160a01b031690634cdad50690602401602060405180830381865afa158015610cfc573d6000803e3d6000fd5b505050506040513d601f19601f82011682018060405250810190610d209190612b53565b6101208401525b50909695505050505050565b6000816001600160a01b031663af640d0f6040518163ffffffff1660e01b8152600401602060405180830381865afa158015610d73573d6000803e3d6000fd5b505050506040513d601f19601f82011682018060405250810190610d979190612b53565b92915050565b6000806000846001600160a01b031663439e23fd856040518263ffffffff1660e01b8152600401610dd091815260200190565b600060405180830381865afa158015610ded573d6000803e3d6000fd5b505050506040513d6000823e601f3d908101601f19168201604052610e159190810190612a81565b905080602001516001600160a01b031663e9c52e586040518163ffffffff1660e01b81526004016040805180830381865afa158015610e58573d6000803e3d6000fd5b505050506040513d601f19601f82011682018060405250810190610e7c9190612bf6565b92509250509250929050565b6000546001600160a01b03163314610ed45760405162461bcd60e51b8152600401610ecb906020808252600490820152630c2eae8d60e31b604082015260600190565b60405180910390fd5b600180546001600160a01b0319166001600160a01b0392909216919091179055565b6040805160a081018252600080825260208201819052606092820183905281830183905260808201528190604084810151905163e62f558560e01b81526001600160a01b0387811660048301526000919083169063e62f558590602401600060405180830381865afa158015610f70573d6000803e3d6000fd5b505050506040513d6000823e601f3d908101601f19168201604052610f989190810190612c42565b60405163119c08b560e01b81526001600160a01b03898116600483015291925060009184169063119c08b590602401600060405180830381865afa158015610fe4573d6000803e3d6000fd5b505050506040513d6000823e601f3d908101601f1916820160405261100c9190810190612d06565b905081516001600160401b0381111561102757611027612419565b60405190808252806020026020018201604052801561107c57816020015b61106960405180606001604052806000815260200160008152602001600081525090565b8152602001906001900390816110455790505b50604085015280516001600160401b0381111561109b5761109b612419565b6040519080825280602002602001820160405280156110ed57816020015b6040805160808101825260008082526020808301829052928201819052606082015282526000199092019101816110b95790505b50606085015281511561135f5760005b825181101561135d576040518060600160405280856001600160a01b0316638ce2699986858151811061113257611132612b6c565b6020908102919091010151516040516001600160e01b031960e084901b16815261ffff9091166004820152602401602060405180830381865afa15801561117d573d6000803e3d6000fd5b505050506040513d601f19601f820116820180604052508101906111a19190612bab565b6001600160a01b03168152602001856001600160a01b0316638ce269998685815181106111d0576111d0612b6c565b6020026020010151602001516040518263ffffffff1660e01b8152600401611202919061ffff91909116815260200190565b602060405180830381865afa15801561121f573d6000803e3d6000fd5b505050506040513d601f19601f820116820180604052508101906112439190612bab565b6001600160a01b03168152602001856001600160a01b031663dcc344298c87868151811061127357611273612b6c565b60200260200101516000015188878151811061129157611291612b6c565b60209081029190910181015101516040516001600160e01b031960e086901b1681526001600160a01b03909316600484015261ffff918216602484015216604482015260640161012060405180830381865afa1580156112f5573d6000803e3d6000fd5b505050506040513d601f19601f820116820180604052508101906113199190612da9565b608001516001600160801b03168152508560400151828151811061133f5761133f612b6c565b6020026020010181905250808061135590612b82565b9150506110fd565b505b80511561152b5760005b815181101561152957836001600160a01b03166384529be583838151811061139357611393612b6c565b60200260200101518b6040518363ffffffff1660e01b81526004016113d192919061ffff9290921682526001600160a01b0316602082015260400190565b606060405180830381865afa1580156113ee573d6000803e3d6000fd5b505050506040513d601f19601f820116820180604052508101906114129190612e47565b15156080808901919091529015156020880152908652604080519182019052825181906001600160a01b03871690638ce269999086908690811061145857611458612b6c565b60200260200101516040518263ffffffff1660e01b8152600401611486919061ffff91909116815260200190565b602060405180830381865afa1580156114a3573d6000803e3d6000fd5b505050506040513d601f19601f820116820180604052508101906114c79190612bab565b6001600160a01b0316815260200186600001518152602001866020015115158152602001866080015115158152508560600151828151811061150b5761150b612b6c565b6020026020010181905250808061152190612b82565b915050611369565b505b83604001518460600151955095505050505094509492505050565b61154e611d06565b604051630452783960e11b8152600481018390526000906001600160a01b038516906308a4f07290602401600060405180830381865afa158015611596573d6000803e3d6000fd5b505050506040513d6000823e601f3d908101601f191682016040526115be9190810190612e8a565b60405163439e23fd60e01b8152600481018590529091506000906001600160a01b0386169063439e23fd90602401600060405180830381865afa158015611609573d6000803e3d6000fd5b505050506040513d6000823e601f3d908101601f191682016040526116319190810190612a81565b90506000806000806116438989610527565b935093509350935060006116578a8a610471565b905060008087602001516001600160a01b031663e9c52e586040518163ffffffff1660e01b81526004016040805180830381865afa15801561169d573d6000803e3d6000fd5b505050506040513d601f19601f820116820180604052508101906116c19190612bf6565b895160c08b01516101000151929450909250906000906116e2576000611751565b60408a810151905163f2166a0160e01b81526001600160a01b03909116600482018190529063f2166a0190602401602060405180830381865afa15801561172d573d6000803e3d6000fd5b505050506040513d601f19601f820116820180604052508101906117519190612b53565b90506040518061032001604052808c600001516001600160a01b031681526020018c6020015181526020018c6040015181526020018c6060015181526020018c6080015181526020018c60a0015181526020018c60c0015181526020018c60e0015181526020018a81526020018981526020018881526020018781526020018681526020018b600001516001600160a01b03168152602001846001600160a01b03168152602001856001600160a01b03168152602001438152602001836001600160a01b03166302d05d3f6040518163ffffffff1660e01b8152600401602060405180830381865afa15801561184b573d6000803e3d6000fd5b505050506040513d601f19601f8201168201806040525081019061186f9190612bab565b6001600160a01b03168152602001836001600160a01b031663cd838f0f6040518163ffffffff1660e01b8152600401600060405180830381865afa1580156118bb573d6000803e3d6000fd5b505050506040513d6000823e601f3d908101601f191682016040526118e39190810190612f21565b8152602001836001600160a01b0316634fe2f0ed6040518163ffffffff1660e01b8152600401600060405180830381865afa158015611926573d6000803e3d6000fd5b505050506040513d6000823e601f3d908101601f1916820160405261194e9190810190612fd1565b815260c08c01516101000151151560208201526040808d0180516001600160a01b039081168385015260608401869052905191516370a0823160e01b815291811660048301526080909201918716906370a0823190602401602060405180830381865afa1580156119c3573d6000803e3d6000fd5b505050506040513d601f19601f820116820180604052508101906119e79190612b53565b81526040808d015190516370a0823160e01b81526001600160a01b039182166004820152602090920191908616906370a0823190602401602060405180830381865afa158015611a3b573d6000803e3d6000fd5b505050506040513d601f19601f82011682018060405250810190611a5f9190612b53565b90529e9d5050505050505050505050505050565b611a7b611e5b565b604051630452783960e11b8152600481018390526001600160a01b038416906308a4f07290602401600060405180830381865afa158015611ac0573d6000803e3d6000fd5b505050506040513d6000823e601f3d908101601f19168201604052611ae89190810190612e8a565b9392505050565b6000806000806000866001600160a01b031663439e23fd876040518263ffffffff1660e01b8152600401611b2591815260200190565b600060405180830381865afa158015611b42573d6000803e3d6000fd5b505050506040513d6000823e601f3d908101601f19168201604052611b6a9190810190612a81565b805160405163b3d7f6b960e01b8152670de0b6b3a764000060048201529192506000916001600160a01b039091169063b3d7f6b990602401602060405180830381865afa158015611bbf573d6000803e3d6000fd5b505050506040513d601f19601f82011682018060405250810190611be39190612b53565b9050600080600084602001516001600160a01b0316639a4585836040518163ffffffff1660e01b8152600401606060405180830381865afa15801561073e573d6000803e3d6000fd5b611c34611eb2565b60405163439e23fd60e01b8152600481018390526001600160a01b0384169063439e23fd90602401600060405180830381865afa158015611c79573d6000803e3d6000fd5b505050506040513d6000823e601f3d908101601f19168201604052611ae89190810190612a81565b6000546001600160a01b03163314611ce45760405162461bcd60e51b8152600401610ecb906020808252600490820152630c2eae8d60e31b604082015260600190565b600280546001600160a01b0319166001600160a01b0392909216919091179055565b60405180610320016040528060006001600160a01b0316815260200160608152602001606081526020016000815260200160008152602001600081526020016000815260200160008152602001600081526020016000815260200160008152602001600081526020016000815260200160006001600160a01b0316815260200160006001600160a01b0316815260200160006001600160a01b031681526020016000815260200160006001600160a01b03168152602001606081526020016060815260200160001515815260200160006001600160a01b031681526020016000815260200160008152602001600081525090565b6040518061018001604052806000815260200160008152602001600081526020016000815260200160008152602001600081526020016000815260200160608152602001606081526020016000815260200160008152602001600081525090565b60405180610120016040528060006001600160a01b03168152602001606081526020016060815260200160008152602001600081526020016000815260200160008152602001600081526020016000151581525090565b6040805160e081018252600080825260208201819052918101829052606081018290526080810182905260a081019190915260c08101611ef0611e5b565b905290565b6001600160a01b0381168114611f0a57600080fd5b50565b8035611f1881611ef5565b919050565b60008060408385031215611f3057600080fd5b8235611f3b81611ef5565b946020939093013593505050565b600060208284031215611f5b57600080fd5b8135611ae881611ef5565b600081518084526020808501945080840160005b83811015611f9f5781516001600160a01b031687529582019590820190600101611f7a565b509495945050505050565b600081518084526020808501945080840160005b83811015611f9f57815187529582019590820190600101611fbe565b60005b83811015611ff5578181015183820152602001611fdd565b83811115612004576000848401525b50505050565b60008151808452612022816020860160208601611fda565b601f01601f19169290920160200192915050565b600082825180855260208086019550808260051b84010181860160005b8481101561208157601f1986840301895261206f83835161200a565b98840198925090830190600101612053565b5090979650505050505050565b80516001600160a01b03168252600061032060208301518160208601526120b782860182611f66565b915050604083015184820360408601526120d18282611faa565b915050606083015160608501526080830151608085015260a083015160a085015260c083015160c085015260e083015160e08501526101008084015181860152506101208084015181860152506101408084015181860152506101608084015181860152506101808084015181860152506101a08084015161215d828701826001600160a01b03169052565b50506101c0838101516001600160a01b03908116918601919091526101e0808501518216908601526102008085015190860152610220808501519091169085015261024080840151858303828701526121b68382612036565b9250505061026080840151858303828701526121d2838261200a565b92505050610280808401516121ea8287018215159052565b50506102a0838101516001600160a01b0316908501526102c080840151908501526102e080840151908501526103009283015192909301919091525090565b6000602080830181845280855180835260408601915060408160051b870101925083870160005b8281101561227e57603f1988860301845261226c85835161208e565b94509285019290850190600101612250565b5092979650505050505050565b6000806000606084860312156122a057600080fd5b83356122ab81611ef5565b925060208401356122bb81611ef5565b929592945050506040919091013590565b600081518084526020808501945080840160005b83811015611f9f57815180518852838101518489015260409081015190880152606090960195908201906001016122e0565b600081518084526020808501945080840160005b83811015611f9f57815180518852838101518489015260408082015115159089015260609081015115159088015260809096019590820190600101612326565b6020815281516020820152602082015160408201526040820151606082015260608201516080820152608082015160a082015260a082015160c082015260c082015160e0820152600060e083015161018061010081818601526123cd6101a08601846122cc565b9250808601519050610120601f1986850301818701526123ed8483612312565b908701516101408781019190915287015161016080880191909152909601519190940152509192915050565b634e487b7160e01b600052604160045260246000fd5b60405161012081016001600160401b038111828210171561245257612452612419565b60405290565b60405160e081016001600160401b038111828210171561245257612452612419565b604080519081016001600160401b038111828210171561245257612452612419565b604051601f8201601f191681016001600160401b03811182821017156124c4576124c4612419565b604052919050565b60006001600160401b038211156124e5576124e5612419565b5060051b60200190565b600082601f83011261250057600080fd5b81356020612515612510836124cc565b61249c565b82815260059290921b8401810191818101908684111561253457600080fd5b8286015b8481101561255857803561254b81611ef5565b8352918301918301612538565b509695505050505050565b600082601f83011261257457600080fd5b81356020612584612510836124cc565b82815260059290921b840181019181810190868411156125a357600080fd5b8286015b8481101561255857803583529183019183016125a7565b8015158114611f0a57600080fd5b8035611f18816125be565b600061012082840312156125ea57600080fd5b6125f261242f565b90506125fd82611f0d565b815260208201356001600160401b038082111561261957600080fd5b612625858386016124ef565b6020840152604084013591508082111561263e57600080fd5b5061264b84828501612563565b604083015250606082013560608201526080820135608082015260a082013560a082015260c082013560c082015260e082013560e08201526101006126918184016125cc565b9082015292915050565b600080600080608085870312156126b157600080fd5b84356126bc81611ef5565b93506020850135925060408501356126d381611ef5565b915060608501356001600160401b03808211156126ef57600080fd5b9086019060e0828903121561270357600080fd5b61270b612458565b61271483611f0d565b815261272260208401611f0d565b602082015261273360408401611f0d565b604082015261274460608401611f0d565b606082015261275560808401611f0d565b608082015261276660a08401611f0d565b60a082015260c08301358281111561277d57600080fd5b6127898a8286016125d7565b60c0830152509598949750929550505050565b6040815260006127af60408301856122cc565b82810360208401526127c18185612312565b95945050505050565b602081526000611ae8602083018461208e565b80516001600160a01b031682526000610120602083015181602086015261280682860182611f66565b915050604083015184820360408601526128208282611faa565b915050606083015160608501526080830151608085015260a083015160a085015260c083015160c085015260e083015160e0850152610100808401516128698287018215159052565b5090949350505050565b602081526000611ae860208301846127dd565b60208152600060018060a01b038084511660208401528060208501511660408401528060408501511660608401528060608501511660808401528060808501511660a08401528060a08501511660c08401525060c083015160e0808401526103896101008401826127dd565b8051611f1881611ef5565b600082601f83011261290e57600080fd5b8151602061291e612510836124cc565b82815260059290921b8401810191818101908684111561293d57600080fd5b8286015b8481101561255857805161295481611ef5565b8352918301918301612941565b600082601f83011261297257600080fd5b81516020612982612510836124cc565b82815260059290921b840181019181810190868411156129a157600080fd5b8286015b8481101561255857805183529183019183016129a5565b8051611f18816125be565b600061012082840312156129da57600080fd5b6129e261242f565b90506129ed826128f2565b815260208201516001600160401b0380821115612a0957600080fd5b612a15858386016128fd565b60208401526040840151915080821115612a2e57600080fd5b50612a3b84828501612961565b604083015250606082015160608201526080820151608082015260a082015160a082015260c082015160c082015260e082015160e08201526101006126918184016129bc565b600060208284031215612a9357600080fd5b81516001600160401b0380821115612aaa57600080fd5b9083019060e08286031215612abe57600080fd5b612ac6612458565b612acf836128f2565b8152612add602084016128f2565b6020820152612aee604084016128f2565b6040820152612aff606084016128f2565b6060820152612b10608084016128f2565b6080820152612b2160a084016128f2565b60a082015260c083015182811115612b3857600080fd5b612b44878286016129c7565b60c08301525095945050505050565b600060208284031215612b6557600080fd5b5051919050565b634e487b7160e01b600052603260045260246000fd5b6000600019821415612ba457634e487b7160e01b600052601160045260246000fd5b5060010190565b600060208284031215612bbd57600080fd5b8151611ae881611ef5565b600080600060608486031215612bdd57600080fd5b8351925060208401519150604084015190509250925092565b60008060408385031215612c0957600080fd5b8251612c1481611ef5565b6020840151909250612c2581611ef5565b809150509250929050565b805161ffff81168114611f1857600080fd5b60006020808385031215612c5557600080fd5b82516001600160401b03811115612c6b57600080fd5b8301601f81018513612c7c57600080fd5b8051612c8a612510826124cc565b81815260069190911b82018301908381019087831115612ca957600080fd5b928401925b82841015612cfb5760408489031215612cc75760008081fd5b612ccf61247a565b612cd885612c30565b8152612ce5868601612c30565b8187015282526040939093019290840190612cae565b979650505050505050565b60006020808385031215612d1957600080fd5b82516001600160401b03811115612d2f57600080fd5b8301601f81018513612d4057600080fd5b8051612d4e612510826124cc565b81815260059190911b82018301908381019087831115612d6d57600080fd5b928401925b82841015612cfb57612d8384612c30565b82529284019290840190612d72565b80516001600160801b0381168114611f1857600080fd5b60006101208284031215612dbc57600080fd5b612dc461242f565b612dcd83612d92565b8152612ddb60208401612d92565b6020820152612dec60408401612d92565b6040820152612dfd60608401612d92565b6060820152612e0e60808401612d92565b608082015260a083015160a082015260c083015160c082015260e083015160e08201526101008084015181830152508091505092915050565b600080600060608486031215612e5c57600080fd5b835192506020840151612e6e816125be565b6040850151909250612e7f816125be565b809150509250925092565b600060208284031215612e9c57600080fd5b81516001600160401b03811115612eb257600080fd5b610389848285016129c7565b600082601f830112612ecf57600080fd5b81516001600160401b03811115612ee857612ee8612419565b612efb601f8201601f191660200161249c565b818152846020838601011115612f1057600080fd5b610389826020830160208701611fda565b60006020808385031215612f3457600080fd5b82516001600160401b0380821115612f4b57600080fd5b818501915085601f830112612f5f57600080fd5b8151612f6d612510826124cc565b81815260059190911b83018401908481019088831115612f8c57600080fd5b8585015b83811015612fc457805185811115612fa85760008081fd5b612fb68b89838a0101612ebe565b845250918601918601612f90565b5098975050505050505050565b600060208284031215612fe357600080fd5b81516001600160401b03811115612ff957600080fd5b61038984828501612ebe56fea26469706673582212206608a35736bc1a84bdb61640365b73a74b88d5b238d7600f890858c1aa3483e664736f6c634300080a0033",
  "linkReferences": {},
  "deployedLinkReferences": {}
}