{
  "_format": "hh-sol-artifact-1",
  "contractName": "CErc20Behalf",
  "sourceName": "src/CErc20Behalf.sol",
  "abi": [
    {
      "inputs": [],
      "name": "AcceptAdminPendingAdminCheck",
      "type": "error"
    },
    {
      "inputs": [
        {
          "internalType": "uint256",
          "name": "actualAddAmount",
          "type": "uint256"
        }
      ],
      "name": "AddReservesFactorFreshCheck",
      "type": "error"
    },
    {
      "inputs": [],
      "name": "BorrowCashNotAvailable",
      "type": "error"
    },
    {
      "inputs": [
        {
          "internalType": "uint256",
          "name": "errorCode",
          "type": "uint256"
        }
      ],
      "name": "BorrowComptrollerRejection",
      "type": "error"
    },
    {
      "inputs": [],
      "name": "BorrowFreshnessCheck",
      "type": "error"
    },
    {
      "inputs": [
        {
          "internalType": "uint256",
          "name": "errorCode",
          "type": "uint256"
        }
      ],
      "name": "LiquidateAccrueBorrowInterestFailed",
      "type": "error"
    },
    {
      "inputs": [
        {
          "internalType": "uint256",
          "name": "errorCode",
          "type": "uint256"
        }
      ],
      "name": "LiquidateAccrueCollateralInterestFailed",
      "type": "error"
    },
    {
      "inputs": [],
      "name": "LiquidateCloseAmountIsUintMax",
      "type": "error"
    },
    {
      "inputs": [],
      "name": "LiquidateCloseAmountIsZero",
      "type": "error"
    },
    {
      "inputs": [],
      "name": "LiquidateCollateralFreshnessCheck",
      "type": "error"
    },
    {
      "inputs": [
        {
          "internalType": "uint256",
          "name": "errorCode",
          "type": "uint256"
        }
      ],
      "name": "LiquidateComptrollerRejection",
      "type": "error"
    },
    {
      "inputs": [],
      "name": "LiquidateFreshnessCheck",
      "type": "error"
    },
    {
      "inputs": [],
      "name": "LiquidateLiquidatorIsBorrower",
      "type": "error"
    },
    {
      "inputs": [
        {
          "internalType": "uint256",
          "name": "errorCode",
          "type": "uint256"
        }
      ],
      "name": "LiquidateRepayBorrowFreshFailed",
      "type": "error"
    },
    {
      "inputs": [
        {
          "internalType": "uint256",
          "name": "errorCode",
          "type": "uint256"
        }
      ],
      "name": "LiquidateSeizeComptrollerRejection",
      "type": "error"
    },
    {
      "inputs": [],
      "name": "LiquidateSeizeLiquidatorIsBorrower",
      "type": "error"
    },
    {
      "inputs": [
        {
          "internalType": "uint256",
          "name": "errorCode",
          "type": "uint256"
        }
      ],
      "name": "MintComptrollerRejection",
      "type": "error"
    },
    {
      "inputs": [],
      "name": "MintFreshnessCheck",
      "type": "error"
    },
    {
      "inputs": [
        {
          "internalType": "uint256",
          "name": "errorCode",
          "type": "uint256"
        }
      ],
      "name": "RedeemComptrollerRejection",
      "type": "error"
    },
    {
      "inputs": [],
      "name": "RedeemFreshnessCheck",
      "type": "error"
    },
    {
      "inputs": [],
      "name": "RedeemTransferOutNotPossible",
      "type": "error"
    },
    {
      "inputs": [],
      "name": "ReduceReservesAdminCheck",
      "type": "error"
    },
    {
      "inputs": [],
      "name": "ReduceReservesCashNotAvailable",
      "type": "error"
    },
    {
      "inputs": [],
      "name": "ReduceReservesCashValidation",
      "type": "error"
    },
    {
      "inputs": [],
      "name": "ReduceReservesFreshCheck",
      "type": "error"
    },
    {
      "inputs": [
        {
          "internalType": "uint256",
          "name": "errorCode",
          "type": "uint256"
        }
      ],
      "name": "RepayBorrowComptrollerRejection",
      "type": "error"
    },
    {
      "inputs": [],
      "name": "RepayBorrowFreshnessCheck",
      "type": "error"
    },
    {
      "inputs": [],
      "name": "SetComptrollerOwnerCheck",
      "type": "error"
    },
    {
      "inputs": [],
      "name": "SetInterestRateModelFreshCheck",
      "type": "error"
    },
    {
      "inputs": [],
      "name": "SetInterestRateModelOwnerCheck",
      "type": "error"
    },
    {
      "inputs": [],
      "name": "SetPendingAdminOwnerCheck",
      "type": "error"
    },
    {
      "inputs": [],
      "name": "SetReserveFactorAdminCheck",
      "type": "error"
    },
    {
      "inputs": [],
      "name": "SetReserveFactorBoundsCheck",
      "type": "error"
    },
    {
      "inputs": [],
      "name": "SetReserveFactorFreshCheck",
      "type": "error"
    },
    {
      "inputs": [
        {
          "internalType": "uint256",
          "name": "errorCode",
          "type": "uint256"
        }
      ],
      "name": "TransferComptrollerRejection",
      "type": "error"
    },
    {
      "inputs": [],
      "name": "TransferNotAllowed",
      "type": "error"
    },
    {
      "inputs": [],
      "name": "TransferNotEnough",
      "type": "error"
    },
    {
      "inputs": [],
      "name": "TransferTooMuch",
      "type": "error"
    },
    {
      "anonymous": false,
      "inputs": [
        {
          "indexed": false,
          "internalType": "uint256",
          "name": "cashPrior",
          "type": "uint256"
        },
        {
          "indexed": false,
          "internalType": "uint256",
          "name": "interestAccumulated",
          "type": "uint256"
        },
        {
          "indexed": false,
          "internalType": "uint256",
          "name": "borrowIndex",
          "type": "uint256"
        },
        {
          "indexed": false,
          "internalType": "uint256",
          "name": "totalBorrows",
          "type": "uint256"
        }
      ],
      "name": "AccrueInterest",
      "type": "event"
    },
    {
      "anonymous": false,
      "inputs": [
        {
          "indexed": true,
          "internalType": "address",
          "name": "owner",
          "type": "address"
        },
        {
          "indexed": true,
          "internalType": "address",
          "name": "spender",
          "type": "address"
        },
        {
          "indexed": false,
          "internalType": "uint256",
          "name": "amount",
          "type": "uint256"
        }
      ],
      "name": "Approval",
      "type": "event"
    },
    {
      "anonymous": false,
      "inputs": [
        {
          "indexed": false,
          "internalType": "address",
          "name": "borrower",
          "type": "address"
        },
        {
          "indexed": false,
          "internalType": "uint256",
          "name": "borrowAmount",
          "type": "uint256"
        },
        {
          "indexed": false,
          "internalType": "uint256",
          "name": "accountBorrows",
          "type": "uint256"
        },
        {
          "indexed": false,
          "internalType": "uint256",
          "name": "totalBorrows",
          "type": "uint256"
        }
      ],
      "name": "Borrow",
      "type": "event"
    },
    {
      "anonymous": false,
      "inputs": [
        {
          "indexed": false,
          "internalType": "address",
          "name": "liquidator",
          "type": "address"
        },
        {
          "indexed": false,
          "internalType": "address",
          "name": "borrower",
          "type": "address"
        },
        {
          "indexed": false,
          "internalType": "uint256",
          "name": "repayAmount",
          "type": "uint256"
        },
        {
          "indexed": false,
          "internalType": "address",
          "name": "cTokenCollateral",
          "type": "address"
        },
        {
          "indexed": false,
          "internalType": "uint256",
          "name": "seizeTokens",
          "type": "uint256"
        }
      ],
      "name": "LiquidateBorrow",
      "type": "event"
    },
    {
      "anonymous": false,
      "inputs": [
        {
          "indexed": false,
          "internalType": "address",
          "name": "minter",
          "type": "address"
        },
        {
          "indexed": false,
          "internalType": "uint256",
          "name": "mintAmount",
          "type": "uint256"
        },
        {
          "indexed": false,
          "internalType": "uint256",
          "name": "mintTokens",
          "type": "uint256"
        }
      ],
      "name": "Mint",
      "type": "event"
    },
    {
      "anonymous": false,
      "inputs": [
        {
          "indexed": false,
          "internalType": "address",
          "name": "oldAdmin",
          "type": "address"
        },
        {
          "indexed": false,
          "internalType": "address",
          "name": "newAdmin",
          "type": "address"
        }
      ],
      "name": "NewAdmin",
      "type": "event"
    },
    {
      "anonymous": false,
      "inputs": [
        {
          "indexed": false,
          "internalType": "contract ComptrollerInterface",
          "name": "oldComptroller",
          "type": "address"
        },
        {
          "indexed": false,
          "internalType": "contract ComptrollerInterface",
          "name": "newComptroller",
          "type": "address"
        }
      ],
      "name": "NewComptroller",
      "type": "event"
    },
    {
      "anonymous": false,
      "inputs": [
        {
          "indexed": false,
          "internalType": "contract InterestRateModel",
          "name": "oldInterestRateModel",
          "type": "address"
        },
        {
          "indexed": false,
          "internalType": "contract InterestRateModel",
          "name": "newInterestRateModel",
          "type": "address"
        }
      ],
      "name": "NewMarketInterestRateModel",
      "type": "event"
    },
    {
      "anonymous": false,
      "inputs": [
        {
          "indexed": false,
          "internalType": "address",
          "name": "oldPendingAdmin",
          "type": "address"
        },
        {
          "indexed": false,
          "internalType": "address",
          "name": "newPendingAdmin",
          "type": "address"
        }
      ],
      "name": "NewPendingAdmin",
      "type": "event"
    },
    {
      "anonymous": false,
      "inputs": [
        {
          "indexed": false,
          "internalType": "uint256",
          "name": "oldReserveFactorMantissa",
          "type": "uint256"
        },
        {
          "indexed": false,
          "internalType": "uint256",
          "name": "newReserveFactorMantissa",
          "type": "uint256"
        }
      ],
      "name": "NewReserveFactor",
      "type": "event"
    },
    {
      "anonymous": false,
      "inputs": [
        {
          "indexed": false,
          "internalType": "address",
          "name": "redeemer",
          "type": "address"
        },
        {
          "indexed": false,
          "internalType": "uint256",
          "name": "redeemAmount",
          "type": "uint256"
        },
        {
          "indexed": false,
          "internalType": "uint256",
          "name": "redeemTokens",
          "type": "uint256"
        }
      ],
      "name": "Redeem",
      "type": "event"
    },
    {
      "anonymous": false,
      "inputs": [
        {
          "indexed": false,
          "internalType": "address",
          "name": "payer",
          "type": "address"
        },
        {
          "indexed": false,
          "internalType": "address",
          "name": "borrower",
          "type": "address"
        },
        {
          "indexed": false,
          "internalType": "uint256",
          "name": "repayAmount",
          "type": "uint256"
        },
        {
          "indexed": false,
          "internalType": "uint256",
          "name": "accountBorrows",
          "type": "uint256"
        },
        {
          "indexed": false,
          "internalType": "uint256",
          "name": "totalBorrows",
          "type": "uint256"
        }
      ],
      "name": "RepayBorrow",
      "type": "event"
    },
    {
      "anonymous": false,
      "inputs": [
        {
          "indexed": false,
          "internalType": "address",
          "name": "benefactor",
          "type": "address"
        },
        {
          "indexed": false,
          "internalType": "uint256",
          "name": "addAmount",
          "type": "uint256"
        },
        {
          "indexed": false,
          "internalType": "uint256",
          "name": "newTotalReserves",
          "type": "uint256"
        }
      ],
      "name": "ReservesAdded",
      "type": "event"
    },
    {
      "anonymous": false,
      "inputs": [
        {
          "indexed": false,
          "internalType": "address",
          "name": "admin",
          "type": "address"
        },
        {
          "indexed": false,
          "internalType": "uint256",
          "name": "reduceAmount",
          "type": "uint256"
        },
        {
          "indexed": false,
          "internalType": "uint256",
          "name": "newTotalReserves",
          "type": "uint256"
        }
      ],
      "name": "ReservesReduced",
      "type": "event"
    },
    {
      "anonymous": false,
      "inputs": [
        {
          "indexed": true,
          "internalType": "address",
          "name": "from",
          "type": "address"
        },
        {
          "indexed": true,
          "internalType": "address",
          "name": "to",
          "type": "address"
        },
        {
          "indexed": false,
          "internalType": "uint256",
          "name": "amount",
          "type": "uint256"
        }
      ],
      "name": "Transfer",
      "type": "event"
    },
    {
      "inputs": [],
      "name": "NO_ERROR",
      "outputs": [
        {
          "internalType": "uint256",
          "name": "",
          "type": "uint256"
        }
      ],
      "stateMutability": "view",
      "type": "function"
    },
    {
      "inputs": [],
      "name": "_acceptAdmin",
      "outputs": [
        {
          "internalType": "uint256",
          "name": "",
          "type": "uint256"
        }
      ],
      "stateMutability": "nonpayable",
      "type": "function"
    },
    {
      "inputs": [
        {
          "internalType": "uint256",
          "name": "addAmount",
          "type": "uint256"
        }
      ],
      "name": "_addReserves",
      "outputs": [
        {
          "internalType": "uint256",
          "name": "",
          "type": "uint256"
        }
      ],
      "stateMutability": "nonpayable",
      "type": "function"
    },
    {
      "inputs": [
        {
          "internalType": "address",
          "name": "compLikeDelegatee",
          "type": "address"
        }
      ],
      "name": "_delegateCompLikeTo",
      "outputs": [],
      "stateMutability": "nonpayable",
      "type": "function"
    },
    {
      "inputs": [
        {
          "internalType": "uint256",
          "name": "reduceAmount",
          "type": "uint256"
        }
      ],
      "name": "_reduceReserves",
      "outputs": [
        {
          "internalType": "uint256",
          "name": "",
          "type": "uint256"
        }
      ],
      "stateMutability": "nonpayable",
      "type": "function"
    },
    {
      "inputs": [
        {
          "internalType": "contract ComptrollerInterface",
          "name": "newComptroller",
          "type": "address"
        }
      ],
      "name": "_setComptroller",
      "outputs": [
        {
          "internalType": "uint256",
          "name": "",
          "type": "uint256"
        }
      ],
      "stateMutability": "nonpayable",
      "type": "function"
    },
    {
      "inputs": [
        {
          "internalType": "contract InterestRateModel",
          "name": "newInterestRateModel",
          "type": "address"
        }
      ],
      "name": "_setInterestRateModel",
      "outputs": [
        {
          "internalType": "uint256",
          "name": "",
          "type": "uint256"
        }
      ],
      "stateMutability": "nonpayable",
      "type": "function"
    },
    {
      "inputs": [
        {
          "internalType": "address payable",
          "name": "newPendingAdmin",
          "type": "address"
        }
      ],
      "name": "_setPendingAdmin",
      "outputs": [
        {
          "internalType": "uint256",
          "name": "",
          "type": "uint256"
        }
      ],
      "stateMutability": "nonpayable",
      "type": "function"
    },
    {
      "inputs": [
        {
          "internalType": "uint256",
          "name": "newReserveFactorMantissa",
          "type": "uint256"
        }
      ],
      "name": "_setReserveFactor",
      "outputs": [
        {
          "internalType": "uint256",
          "name": "",
          "type": "uint256"
        }
      ],
      "stateMutability": "nonpayable",
      "type": "function"
    },
    {
      "inputs": [],
      "name": "accrualBlockNumber",
      "outputs": [
        {
          "internalType": "uint256",
          "name": "",
          "type": "uint256"
        }
      ],
      "stateMutability": "view",
      "type": "function"
    },
    {
      "inputs": [],
      "name": "accrueInterest",
      "outputs": [
        {
          "internalType": "uint256",
          "name": "",
          "type": "uint256"
        }
      ],
      "stateMutability": "nonpayable",
      "type": "function"
    },
    {
      "inputs": [],
      "name": "admin",
      "outputs": [
        {
          "internalType": "address payable",
          "name": "",
          "type": "address"
        }
      ],
      "stateMutability": "view",
      "type": "function"
    },
    {
      "inputs": [
        {
          "internalType": "address",
          "name": "owner",
          "type": "address"
        },
        {
          "internalType": "address",
          "name": "spender",
          "type": "address"
        }
      ],
      "name": "allowance",
      "outputs": [
        {
          "internalType": "uint256",
          "name": "",
          "type": "uint256"
        }
      ],
      "stateMutability": "view",
      "type": "function"
    },
    {
      "inputs": [
        {
          "internalType": "address",
          "name": "spender",
          "type": "address"
        },
        {
          "internalType": "uint256",
          "name": "amount",
          "type": "uint256"
        }
      ],
      "name": "approve",
      "outputs": [
        {
          "internalType": "bool",
          "name": "",
          "type": "bool"
        }
      ],
      "stateMutability": "nonpayable",
      "type": "function"
    },
    {
      "inputs": [
        {
          "internalType": "address",
          "name": "owner",
          "type": "address"
        }
      ],
      "name": "balanceOf",
      "outputs": [
        {
          "internalType": "uint256",
          "name": "",
          "type": "uint256"
        }
      ],
      "stateMutability": "view",
      "type": "function"
    },
    {
      "inputs": [
        {
          "internalType": "address",
          "name": "owner",
          "type": "address"
        }
      ],
      "name": "balanceOfUnderlying",
      "outputs": [
        {
          "internalType": "uint256",
          "name": "",
          "type": "uint256"
        }
      ],
      "stateMutability": "nonpayable",
      "type": "function"
    },
    {
      "inputs": [
        {
          "internalType": "uint256",
          "name": "borrowAmount",
          "type": "uint256"
        }
      ],
      "name": "borrow",
      "outputs": [
        {
          "internalType": "uint256",
          "name": "",
          "type": "uint256"
        }
      ],
      "stateMutability": "nonpayable",
      "type": "function"
    },
    {
      "inputs": [
        {
          "internalType": "address",
          "name": "account",
          "type": "address"
        }
      ],
      "name": "borrowBalanceCurrent",
      "outputs": [
        {
          "internalType": "uint256",
          "name": "",
          "type": "uint256"
        }
      ],
      "stateMutability": "nonpayable",
      "type": "function"
    },
    {
      "inputs": [
        {
          "internalType": "address",
          "name": "account",
          "type": "address"
        }
      ],
      "name": "borrowBalanceStored",
      "outputs": [
        {
          "internalType": "uint256",
          "name": "",
          "type": "uint256"
        }
      ],
      "stateMutability": "view",
      "type": "function"
    },
    {
      "inputs": [],
      "name": "borrowIndex",
      "outputs": [
        {
          "internalType": "uint256",
          "name": "",
          "type": "uint256"
        }
      ],
      "stateMutability": "view",
      "type": "function"
    },
    {
      "inputs": [
        {
          "internalType": "address",
          "name": "borrower",
          "type": "address"
        },
        {
          "internalType": "uint256",
          "name": "borrowAmount",
          "type": "uint256"
        }
      ],
      "name": "borrowInternalBehalf",
      "outputs": [],
      "stateMutability": "nonpayable",
      "type": "function"
    },
    {
      "inputs": [],
      "name": "borrowRatePerBlock",
      "outputs": [
        {
          "internalType": "uint256",
          "name": "",
          "type": "uint256"
        }
      ],
      "stateMutability": "view",
      "type": "function"
    },
    {
      "inputs": [],
      "name": "comptroller",
      "outputs": [
        {
          "internalType": "contract ComptrollerInterface",
          "name": "",
          "type": "address"
        }
      ],
      "stateMutability": "view",
      "type": "function"
    },
    {
      "inputs": [],
      "name": "decimals",
      "outputs": [
        {
          "internalType": "uint8",
          "name": "",
          "type": "uint8"
        }
      ],
      "stateMutability": "view",
      "type": "function"
    },
    {
      "inputs": [],
      "name": "exchangeRateCurrent",
      "outputs": [
        {
          "internalType": "uint256",
          "name": "",
          "type": "uint256"
        }
      ],
      "stateMutability": "nonpayable",
      "type": "function"
    },
    {
      "inputs": [],
      "name": "exchangeRateStored",
      "outputs": [
        {
          "internalType": "uint256",
          "name": "",
          "type": "uint256"
        }
      ],
      "stateMutability": "view",
      "type": "function"
    },
    {
      "inputs": [
        {
          "internalType": "address",
          "name": "account",
          "type": "address"
        }
      ],
      "name": "getAccountSnapshot",
      "outputs": [
        {
          "internalType": "uint256",
          "name": "",
          "type": "uint256"
        },
        {
          "internalType": "uint256",
          "name": "",
          "type": "uint256"
        },
        {
          "internalType": "uint256",
          "name": "",
          "type": "uint256"
        },
        {
          "internalType": "uint256",
          "name": "",
          "type": "uint256"
        }
      ],
      "stateMutability": "view",
      "type": "function"
    },
    {
      "inputs": [],
      "name": "getCash",
      "outputs": [
        {
          "internalType": "uint256",
          "name": "",
          "type": "uint256"
        }
      ],
      "stateMutability": "view",
      "type": "function"
    },
    {
      "inputs": [
        {
          "internalType": "address",
          "name": "underlying_",
          "type": "address"
        },
        {
          "internalType": "address",
          "name": "comptroller_",
          "type": "address"
        },
        {
          "internalType": "contract InterestRateModel",
          "name": "interestRateModel_",
          "type": "address"
        },
        {
          "internalType": "uint256",
          "name": "initialExchangeRateMantissa_",
          "type": "uint256"
        },
        {
          "internalType": "string",
          "name": "name_",
          "type": "string"
        },
        {
          "internalType": "string",
          "name": "symbol_",
          "type": "string"
        },
        {
          "internalType": "uint8",
          "name": "decimals_",
          "type": "uint8"
        }
      ],
      "name": "init_",
      "outputs": [],
      "stateMutability": "nonpayable",
      "type": "function"
    },
    {
      "inputs": [
        {
          "internalType": "address",
          "name": "underlying_",
          "type": "address"
        },
        {
          "internalType": "contract ComptrollerInterface",
          "name": "comptroller_",
          "type": "address"
        },
        {
          "internalType": "contract InterestRateModel",
          "name": "interestRateModel_",
          "type": "address"
        },
        {
          "internalType": "uint256",
          "name": "initialExchangeRateMantissa_",
          "type": "uint256"
        },
        {
          "internalType": "string",
          "name": "name_",
          "type": "string"
        },
        {
          "internalType": "string",
          "name": "symbol_",
          "type": "string"
        },
        {
          "internalType": "uint8",
          "name": "decimals_",
          "type": "uint8"
        }
      ],
      "name": "initialize",
      "outputs": [],
      "stateMutability": "nonpayable",
      "type": "function"
    },
    {
      "inputs": [
        {
          "internalType": "contract ComptrollerInterface",
          "name": "comptroller_",
          "type": "address"
        },
        {
          "internalType": "contract InterestRateModel",
          "name": "interestRateModel_",
          "type": "address"
        },
        {
          "internalType": "uint256",
          "name": "initialExchangeRateMantissa_",
          "type": "uint256"
        },
        {
          "internalType": "string",
          "name": "name_",
          "type": "string"
        },
        {
          "internalType": "string",
          "name": "symbol_",
          "type": "string"
        },
        {
          "internalType": "uint8",
          "name": "decimals_",
          "type": "uint8"
        }
      ],
      "name": "initialize",
      "outputs": [],
      "stateMutability": "nonpayable",
      "type": "function"
    },
    {
      "inputs": [],
      "name": "interestRateModel",
      "outputs": [
        {
          "internalType": "contract InterestRateModel",
          "name": "",
          "type": "address"
        }
      ],
      "stateMutability": "view",
      "type": "function"
    },
    {
      "inputs": [],
      "name": "isCToken",
      "outputs": [
        {
          "internalType": "bool",
          "name": "",
          "type": "bool"
        }
      ],
      "stateMutability": "view",
      "type": "function"
    },
    {
      "inputs": [
        {
          "internalType": "address",
          "name": "borrower",
          "type": "address"
        },
        {
          "internalType": "uint256",
          "name": "repayAmount",
          "type": "uint256"
        },
        {
          "internalType": "contract CTokenInterface",
          "name": "cTokenCollateral",
          "type": "address"
        }
      ],
      "name": "liquidateBorrow",
      "outputs": [
        {
          "internalType": "uint256",
          "name": "",
          "type": "uint256"
        }
      ],
      "stateMutability": "nonpayable",
      "type": "function"
    },
    {
      "inputs": [
        {
          "internalType": "uint256",
          "name": "mintAmount",
          "type": "uint256"
        }
      ],
      "name": "mint",
      "outputs": [
        {
          "internalType": "uint256",
          "name": "",
          "type": "uint256"
        }
      ],
      "stateMutability": "nonpayable",
      "type": "function"
    },
    {
      "inputs": [
        {
          "internalType": "address",
          "name": "minter",
          "type": "address"
        },
        {
          "internalType": "uint256",
          "name": "mintAmount",
          "type": "uint256"
        }
      ],
      "name": "mintInternalBehalf",
      "outputs": [],
      "stateMutability": "nonpayable",
      "type": "function"
    },
    {
      "inputs": [],
      "name": "name",
      "outputs": [
        {
          "internalType": "string",
          "name": "",
          "type": "string"
        }
      ],
      "stateMutability": "view",
      "type": "function"
    },
    {
      "inputs": [],
      "name": "pairAddress",
      "outputs": [
        {
          "internalType": "address",
          "name": "",
          "type": "address"
        }
      ],
      "stateMutability": "view",
      "type": "function"
    },
    {
      "inputs": [],
      "name": "pendingAdmin",
      "outputs": [
        {
          "internalType": "address payable",
          "name": "",
          "type": "address"
        }
      ],
      "stateMutability": "view",
      "type": "function"
    },
    {
      "inputs": [],
      "name": "protocolSeizeShareMantissa",
      "outputs": [
        {
          "internalType": "uint256",
          "name": "",
          "type": "uint256"
        }
      ],
      "stateMutability": "view",
      "type": "function"
    },
    {
      "inputs": [
        {
          "internalType": "uint256",
          "name": "redeemTokens",
          "type": "uint256"
        }
      ],
      "name": "redeem",
      "outputs": [
        {
          "internalType": "uint256",
          "name": "",
          "type": "uint256"
        }
      ],
      "stateMutability": "nonpayable",
      "type": "function"
    },
    {
      "inputs": [
        {
          "internalType": "address",
          "name": "redeemer",
          "type": "address"
        },
        {
          "internalType": "uint256",
          "name": "redeemAmount",
          "type": "uint256"
        }
      ],
      "name": "redeemInternalBehalf",
      "outputs": [],
      "stateMutability": "nonpayable",
      "type": "function"
    },
    {
      "inputs": [
        {
          "internalType": "uint256",
          "name": "redeemAmount",
          "type": "uint256"
        }
      ],
      "name": "redeemUnderlying",
      "outputs": [
        {
          "internalType": "uint256",
          "name": "",
          "type": "uint256"
        }
      ],
      "stateMutability": "nonpayable",
      "type": "function"
    },
    {
      "inputs": [
        {
          "internalType": "uint256",
          "name": "repayAmount",
          "type": "uint256"
        }
      ],
      "name": "repayBorrow",
      "outputs": [
        {
          "internalType": "uint256",
          "name": "",
          "type": "uint256"
        }
      ],
      "stateMutability": "nonpayable",
      "type": "function"
    },
    {
      "inputs": [
        {
          "internalType": "address",
          "name": "borrower",
          "type": "address"
        },
        {
          "internalType": "uint256",
          "name": "repayAmount",
          "type": "uint256"
        }
      ],
      "name": "repayBorrowBehalf",
      "outputs": [
        {
          "internalType": "uint256",
          "name": "",
          "type": "uint256"
        }
      ],
      "stateMutability": "nonpayable",
      "type": "function"
    },
    {
      "inputs": [],
      "name": "reserveFactorMantissa",
      "outputs": [
        {
          "internalType": "uint256",
          "name": "",
          "type": "uint256"
        }
      ],
      "stateMutability": "view",
      "type": "function"
    },
    {
      "inputs": [
        {
          "internalType": "address",
          "name": "liquidator",
          "type": "address"
        },
        {
          "internalType": "address",
          "name": "borrower",
          "type": "address"
        },
        {
          "internalType": "uint256",
          "name": "seizeTokens",
          "type": "uint256"
        }
      ],
      "name": "seize",
      "outputs": [
        {
          "internalType": "uint256",
          "name": "",
          "type": "uint256"
        }
      ],
      "stateMutability": "nonpayable",
      "type": "function"
    },
    {
      "inputs": [
        {
          "internalType": "address",
          "name": "newAdmin",
          "type": "address"
        }
      ],
      "name": "setInitialAdmin",
      "outputs": [],
      "stateMutability": "nonpayable",
      "type": "function"
    },
    {
      "inputs": [],
      "name": "supplyRatePerBlock",
      "outputs": [
        {
          "internalType": "uint256",
          "name": "",
          "type": "uint256"
        }
      ],
      "stateMutability": "view",
      "type": "function"
    },
    {
      "inputs": [
        {
          "internalType": "contract EIP20NonStandardInterface",
          "name": "token",
          "type": "address"
        }
      ],
      "name": "sweepToken",
      "outputs": [],
      "stateMutability": "nonpayable",
      "type": "function"
    },
    {
      "inputs": [],
      "name": "symbol",
      "outputs": [
        {
          "internalType": "string",
          "name": "",
          "type": "string"
        }
      ],
      "stateMutability": "view",
      "type": "function"
    },
    {
      "inputs": [],
      "name": "totalBorrows",
      "outputs": [
        {
          "internalType": "uint256",
          "name": "",
          "type": "uint256"
        }
      ],
      "stateMutability": "view",
      "type": "function"
    },
    {
      "inputs": [],
      "name": "totalBorrowsCurrent",
      "outputs": [
        {
          "internalType": "uint256",
          "name": "",
          "type": "uint256"
        }
      ],
      "stateMutability": "nonpayable",
      "type": "function"
    },
    {
      "inputs": [],
      "name": "totalReserves",
      "outputs": [
        {
          "internalType": "uint256",
          "name": "",
          "type": "uint256"
        }
      ],
      "stateMutability": "view",
      "type": "function"
    },
    {
      "inputs": [],
      "name": "totalSupply",
      "outputs": [
        {
          "internalType": "uint256",
          "name": "",
          "type": "uint256"
        }
      ],
      "stateMutability": "view",
      "type": "function"
    },
    {
      "inputs": [
        {
          "internalType": "address",
          "name": "dst",
          "type": "address"
        },
        {
          "internalType": "uint256",
          "name": "amount",
          "type": "uint256"
        }
      ],
      "name": "transfer",
      "outputs": [
        {
          "internalType": "bool",
          "name": "",
          "type": "bool"
        }
      ],
      "stateMutability": "nonpayable",
      "type": "function"
    },
    {
      "inputs": [
        {
          "internalType": "address",
          "name": "src",
          "type": "address"
        },
        {
          "internalType": "address",
          "name": "dst",
          "type": "address"
        },
        {
          "internalType": "uint256",
          "name": "amount",
          "type": "uint256"
        }
      ],
      "name": "transferFrom",
      "outputs": [
        {
          "internalType": "bool",
          "name": "",
          "type": "bool"
        }
      ],
      "stateMutability": "nonpayable",
      "type": "function"
    },
    {
      "inputs": [],
      "name": "underlying",
      "outputs": [
        {
          "internalType": "address",
          "name": "",
          "type": "address"
        }
      ],
      "stateMutability": "view",
      "type": "function"
    }
  ],
  "bytecode": "0x608060405234801561001057600080fd5b50613d22806100206000396000f3fe608060405234801561001057600080fd5b506004361061038e5760003560e01c8063787338b9116101de578063b2a02ff11161010f578063e9c714f2116100ad578063f851a4401161007c578063f851a4401461079c578063f8f9da28146107b4578063fca7820b146107bc578063fe9c44ae146107cf57600080fd5b8063e9c714f21461075b578063f2b3abbd14610763578063f3fdb15a14610776578063f5e3c4621461078957600080fd5b8063c37f68e2116100e9578063c37f68e2146106c9578063c5ebeaec146106fc578063db006a751461070f578063dd62ed3e1461072257600080fd5b8063b2a02ff11461069b578063b71d1a0c146106ae578063bd6d894d146106c157600080fd5b8063a0712d681161017c578063a9059cbb11610156578063a9059cbb14610664578063a9f7659514610677578063aa5af0fd1461068a578063ae9d70b01461069357600080fd5b8063a0712d6814610636578063a6afed9514610649578063a8b089821461065157600080fd5b80638f840ddd116101b85780638f840ddd146105ff57806395d89b411461060857806395dd91931461061057806399d8c1b41461062357600080fd5b8063787338b9146105c65780637f1e06be146105d9578063852a12e3146105ec57600080fd5b80633af9e669116102c3578063601a0bf1116102615780636f307dc3116102305780636f307dc31461056f57806370a082311461058257806372605921146105ab57806373acee98146105be57600080fd5b8063601a0bf11461053d5780636752e7021461055057806369ab32501461055e5780636c540baf1461056657600080fd5b806342b15b911161029d57806342b15b91146104fb5780634576b5db1461050e57806347bd3718146105215780635fe3b5671461052a57600080fd5b80633af9e669146104cd5780633b1d21a2146104e05780633e941010146104e857600080fd5b8063182df0f51161033057806323b872dd1161030a57806323b872dd1461045d5780632608f818146104705780632678224714610483578063313ce567146104ae57600080fd5b8063182df0f51461042f5780631a31d465146104375780631be195601461044a57600080fd5b80630e7527021161036c5780630e752702146103e9578063173b99041461040a57806317bfdfbc1461041357806318160ddd1461042657600080fd5b8063028e8b9a1461039357806306fdde03146103a8578063095ea7b3146103c6575b600080fd5b6103a66103a1366004613792565b6107d7565b005b6103b061081a565b6040516103bd91906137fc565b60405180910390f35b6103d96103d436600461380f565b6108a8565b60405190151581526020016103bd565b6103fc6103f736600461383b565b610916565b6040519081526020016103bd565b6103fc60085481565b6103fc610421366004613792565b610929565b6103fc600d5481565b6103fc610985565b6103a661044536600461390d565b610994565b6103a6610458366004613792565b610a29565b6103d961046b3660046139c3565b610bf5565b6103fc61047e36600461380f565b610c45565b600454610496906001600160a01b031681565b6040516001600160a01b0390911681526020016103bd565b6003546104bb9060ff1681565b60405160ff90911681526020016103bd565b6103fc6104db366004613792565b610c5a565b6103fc610ca0565b6103fc6104f636600461383b565b610caa565b6103a661050936600461380f565b610cbb565b6103fc61051c366004613792565b610d53565b6103fc600b5481565b600554610496906001600160a01b031681565b6103fc61054b36600461383b565b610ea5565b6103fc666379da05b6000081565b6103fc600081565b6103fc60095481565b601154610496906001600160a01b031681565b6103fc610590366004613792565b6001600160a01b03166000908152600e602052604090205490565b6103a66105b936600461390d565b610ee4565b6103fc610efc565b6103a66105d436600461380f565b610f46565b6103a66105e7366004613792565b610f85565b6103fc6105fa36600461383b565b61105c565b6103fc600c5481565b6103b0611067565b6103fc61061e366004613792565b611074565b6103a6610631366004613a04565b61107f565b6103fc61064436600461383b565b6112da565b6103fc6112e5565b601254610496906001600160a01b031681565b6103d961067236600461380f565b6114d3565b6103a661068536600461380f565b611522565b6103fc600a5481565b6103fc6115a7565b6103fc6106a93660046139c3565b61163f565b6103fc6106bc366004613792565b61168e565b6103fc61171b565b6106dc6106d7366004613792565b61176b565b6040805194855260208501939093529183015260608201526080016103bd565b6103fc61070a36600461383b565b6117ac565b6103fc61071d36600461383b565b6117b7565b6103fc610730366004613aa6565b6001600160a01b039182166000908152600f6020908152604080832093909416825291909152205490565b6103fc6117c2565b6103fc610771366004613792565b6118c9565b600654610496906001600160a01b031681565b6103fc610797366004613adf565b6118dd565b6003546104969061010090046001600160a01b031681565b6103fc6118f4565b6103fc6107ca36600461383b565b611947565b6103d9600181565b60035461010090046001600160a01b0316156107f257600080fd5b600380546001600160a01b0390921661010002610100600160a81b0319909216919091179055565b6001805461082790613b21565b80601f016020809104026020016040519081016040528092919081815260200182805461085390613b21565b80156108a05780601f10610875576101008083540402835291602001916108a0565b820191906000526020600020905b81548152906001019060200180831161088357829003601f168201915b505050505081565b336000818152600f602090815260408083206001600160a01b03871680855292528083208590555191929182907f8c5be1e5ebec7d5bd14f71427d1e84f3dd0314c0f7b2291e5b200ac8c7c3b925906109049087815260200190565b60405180910390a35060019392505050565b600061092182611986565b506000919050565b6000805460ff166109555760405162461bcd60e51b815260040161094c90613b5c565b60405180910390fd5b6000805460ff191690556109676112e5565b5061097182611074565b90506000805460ff19166001179055919050565b600061098f6119c6565b905090565b6109a286868686868661107f565b601180546001600160a01b0319166001600160a01b038916908117909155604080516318160ddd60e01b815290516318160ddd916004808201926020929091908290030181865afa1580156109fb573d6000803e3d6000fd5b505050506040513d601f19601f82011682018060405250810190610a1f9190613b80565b5050505050505050565b60035461010090046001600160a01b03163314610aa05760405162461bcd60e51b815260206004820152602f60248201527f4345726332303a3a7377656570546f6b656e3a206f6e6c792061646d696e206360448201526e616e20737765657020746f6b656e7360881b606482015260840161094c565b6011546001600160a01b0382811691161415610b195760405162461bcd60e51b815260206004820152603260248201527f4345726332303a3a7377656570546f6b656e3a2063616e206e6f74207377656560448201527138103ab73232b9363cb4b733903a37b5b2b760711b606482015260840161094c565b6040516370a0823160e01b81523060048201526000906001600160a01b038316906370a0823190602401602060405180830381865afa158015610b60573d6000803e3d6000fd5b505050506040513d601f19601f82011682018060405250810190610b849190613b80565b60035460405163a9059cbb60e01b81526001600160a01b03610100909204821660048201526024810183905291925083169063a9059cbb90604401600060405180830381600087803b158015610bd957600080fd5b505af1158015610bed573d6000803e3d6000fd5b505050505050565b6000805460ff16610c185760405162461bcd60e51b815260040161094c90613b5c565b6000805460ff19168155610c2e33868686611a30565b1490506000805460ff191660011790559392505050565b6000610c518383611c5e565b50600092915050565b6000806040518060200160405280610c7061171b565b90526001600160a01b0384166000908152600e6020526040902054909150610c99908290611cb0565b9392505050565b600061098f611cd0565b6000610cb582611d45565b92915050565b60005460ff16610cdd5760405162461bcd60e51b815260040161094c90613b5c565b6000805460ff191690556012546001600160a01b03163314610d2d5760405162461bcd60e51b815260206004820152600960248201526827b7363c902830b4b960b91b604482015260640161094c565b610d356112e5565b50610d4282826000611d9c565b50506000805460ff19166001179055565b60035460009061010090046001600160a01b03163314610d865760405163d219dc1f60e01b815260040160405180910390fd5b60055460408051623f1ee960e11b815290516001600160a01b0392831692851691627e3dd29160048083019260209291908290030181865afa158015610dd0573d6000803e3d6000fd5b505050506040513d601f19601f82011682018060405250810190610df49190613b99565b610e405760405162461bcd60e51b815260206004820152601c60248201527f6d61726b6572206d6574686f642072657475726e65642066616c736500000000604482015260640161094c565b600580546001600160a01b0319166001600160a01b0385811691821790925560408051928416835260208301919091527f7ac369dbd14fa5ea3f473ed67cc9d598964a77501540ba6751eb0b3decf5870d91015b60405180910390a150600092915050565b6000805460ff16610ec85760405162461bcd60e51b815260040161094c90613b5c565b6000805460ff19169055610eda6112e5565b5061097182612079565b610ef387878787878787610994565b50505050505050565b6000805460ff16610f1f5760405162461bcd60e51b815260040161094c90613b5c565b6000805460ff19169055610f316112e5565b5050600b546000805460ff1916600117905590565b60005460ff16610f685760405162461bcd60e51b815260040161094c90613b5c565b6000805460ff19169055610f7a6112e5565b50610d428282612194565b60035461010090046001600160a01b03163314610ffa5760405162461bcd60e51b815260206004820152602d60248201527f6f6e6c79207468652061646d696e206d6179207365742074686520636f6d702d60448201526c6c696b652064656c656761746560981b606482015260840161094c565b6011546040516317066a5760e21b81526001600160a01b03838116600483015290911690635c19a95c90602401600060405180830381600087803b15801561104157600080fd5b505af1158015611055573d6000803e3d6000fd5b5050505050565b600061092182612361565b6002805461082790613b21565b6000610cb5826123b2565b60035461010090046001600160a01b031633146110ea5760405162461bcd60e51b8152602060048201526024808201527f6f6e6c792061646d696e206d617920696e697469616c697a6520746865206d616044820152631c9ad95d60e21b606482015260840161094c565b6009541580156110fa5750600a54155b6111525760405162461bcd60e51b815260206004820152602360248201527f6d61726b6574206d6179206f6e6c7920626520696e697469616c697a6564206f6044820152626e636560e81b606482015260840161094c565b6007849055836111bd5760405162461bcd60e51b815260206004820152603060248201527f696e697469616c2065786368616e67652072617465206d75737420626520677260448201526f32b0ba32b9103a3430b7103d32b9379760811b606482015260840161094c565b60006111c887610d53565b905080156112185760405162461bcd60e51b815260206004820152601a60248201527f73657474696e6720636f6d7074726f6c6c6572206661696c6564000000000000604482015260640161094c565b43600955670de0b6b3a7640000600a55611231866123fc565b9050801561128c5760405162461bcd60e51b815260206004820152602260248201527f73657474696e6720696e7465726573742072617465206d6f64656c206661696c604482015261195960f21b606482015260840161094c565b835161129f9060019060208701906136ea565b5082516112b39060029060208601906136ea565b50506003805460ff90921660ff199283161790556000805490911660011790555050505050565b600061092182612571565b6009546000904390808214156112fe5760009250505090565b6000611308611cd0565b600b54600c54600a546006546040516315f2405360e01b81526004810186905260248101859052604481018490529495509293919290916000916001600160a01b0316906315f2405390606401602060405180830381865afa158015611372573d6000803e3d6000fd5b505050506040513d601f19601f820116820180604052508101906113969190613b80565b905065048c273950008111156113ee5760405162461bcd60e51b815260206004820152601c60248201527f626f72726f772072617465206973206162737572646c79206869676800000000604482015260640161094c565b60006113fa8789613bd1565b90506000611416604051806020016040528085815250836125b0565b905060006114248288611cb0565b905060006114328883613be8565b905060006114516040518060200160405280600854815250848a6125e1565b9050600061146085898a6125e1565b60098e9055600a819055600b849055600c839055604080518d815260208101879052908101829052606081018590529091507f4dec04e750ca11537cabcd8a9eab06494de08da3735bc8871cd41250e190bc049060800160405180910390a160009d505050505050505050505050505090565b6000805460ff166114f65760405162461bcd60e51b815260040161094c90613b5c565b6000805460ff1916815561150c33808686611a30565b1490506000805460ff1916600117905592915050565b60005460ff166115445760405162461bcd60e51b815260040161094c90613b5c565b6000805460ff191690556012546001600160a01b031633146115945760405162461bcd60e51b815260206004820152600960248201526827b7363c902830b4b960b91b604482015260640161094c565b61159c6112e5565b50610d428282612602565b6006546000906001600160a01b031663b81688166115c3611cd0565b600b54600c546008546040516001600160e01b031960e087901b16815260048101949094526024840192909252604483015260648201526084015b602060405180830381865afa15801561161b573d6000803e3d6000fd5b505050506040513d601f19601f8201168201806040525081019061098f9190613b80565b6000805460ff166116625760405162461bcd60e51b815260040161094c90613b5c565b6000805460ff19169055611678338585856127b8565b50600080805460ff191660011790559392505050565b60035460009061010090046001600160a01b031633146116c157604051635cb56c2b60e01b815260040160405180910390fd5b600480546001600160a01b038481166001600160a01b031983168117909355604080519190921680825260208201939093527fca4f2f25d0898edd99413412fb94012f9e54ec8142f9b093e7720646a95b16a99101610e94565b6000805460ff1661173e5760405162461bcd60e51b815260040161094c90613b5c565b6000805460ff191690556117506112e5565b50611759610985565b90506000805460ff1916600117905590565b6001600160a01b0381166000908152600e60205260408120548190819081908190611795876123b2565b61179d6119c6565b93509350935093509193509193565b600061092182612a31565b600061092182612a70565b6004546000906001600160a01b0316331415806117dd575033155b156117fb57604051631ba24f2960e21b815260040160405180910390fd5b60038054600480546001600160a01b03808216610100818102610100600160a81b0319871617968790556001600160a01b031990931690935560408051948390048216808652929095041660208401529290917ff9ffabca9c8276e99321725bcb43fb076a6c66a54b7f21c4e8146d8519b417dc910160405180910390a1600454604080516001600160a01b03808516825290921660208301527fca4f2f25d0898edd99413412fb94012f9e54ec8142f9b093e7720646a95b16a9910160405180910390a160009250505090565b60006118d36112e5565b50610cb5826123fc565b60006118ea848484612ab1565b5060009392505050565b6006546000906001600160a01b03166315f24053611910611cd0565b600b54600c546040516001600160e01b031960e086901b1681526004810193909352602483019190915260448201526064016115fe565b6000805460ff1661196a5760405162461bcd60e51b815260040161094c90613b5c565b6000805460ff1916905561197c6112e5565b5061097182612b8f565b60005460ff166119a85760405162461bcd60e51b815260040161094c90613b5c565b6000805460ff191690556119ba6112e5565b50610d42333383612c4b565b600d54600090806119d957505060075490565b60006119e3611cd0565b90506000600c54600b54836119f89190613be8565b611a029190613bd1565b9050600083611a19670de0b6b3a764000084613c00565b611a239190613c1f565b95945050505050565b5090565b6005546040516317b9b84b60e31b81523060048201526001600160a01b038581166024830152848116604483015260648201849052600092839291169063bdcdc258906084016020604051808303816000875af1158015611a95573d6000803e3d6000fd5b505050506040513d601f19601f82011682018060405250810190611ab99190613b80565b90508015611add5760405163089d427760e11b81526004810182905260240161094c565b836001600160a01b0316856001600160a01b03161415611b1057604051638cd22d1960e01b815260040160405180910390fd5b6000856001600160a01b0316876001600160a01b03161415611b355750600019611b5d565b506001600160a01b038086166000908152600f60209081526040808320938a16835292905220545b6000611b698583613bd1565b6001600160a01b0388166000908152600e602052604081205491925090611b91908790613bd1565b6001600160a01b0388166000908152600e602052604081205491925090611bb9908890613be8565b6001600160a01b03808b166000908152600e6020526040808220869055918b1681522081905590506000198414611c13576001600160a01b03808a166000908152600f60209081526040808320938e168352929052208390555b876001600160a01b0316896001600160a01b0316600080516020613ccd83398151915289604051611c4691815260200190565b60405180910390a35060009998505050505050505050565b60005460ff16611c805760405162461bcd60e51b815260040161094c90613b5c565b6000805460ff19169055611c926112e5565b50611c9e338383612c4b565b50506000805460ff1916600117905550565b600080611cbd84846125b0565b9050611cc881612df4565b949350505050565b6011546040516370a0823160e01b81523060048201526000916001600160a01b03169081906370a0823190602401602060405180830381865afa158015611d1b573d6000803e3d6000fd5b505050506040513d601f19601f82011682018060405250810190611d3f9190613b80565b91505090565b6000805460ff16611d685760405162461bcd60e51b815260040161094c90613b5c565b6000805460ff19169055611d7a6112e5565b50611d8482612e0c565b5050600090506000805460ff19166001179055919050565b811580611da7575080155b611e105760405162461bcd60e51b815260206004820152603460248201527f6f6e65206f662072656465656d546f6b656e73496e206f722072656465656d416044820152736d6f756e74496e206d757374206265207a65726f60601b606482015260840161094c565b60006040518060200160405280611e256119c6565b905290506000808415611e4657849150611e3f8386611cb0565b9050611e56565b611e508484612ea0565b91508390505b60055460405163eabe7d9160e01b81526000916001600160a01b03169063eabe7d9190611e8b9030908b908890600401613c41565b6020604051808303816000875af1158015611eaa573d6000803e3d6000fd5b505050506040513d601f19601f82011682018060405250810190611ece9190613b80565b90508015611ef25760405163480f424760e01b81526004810182905260240161094c565b4360095414611f14576040516397b5cfcd60e01b815260040160405180910390fd5b81611f1d611cd0565b1015611f3c576040516391240a1b60e01b815260040160405180910390fd5b82600d54611f4a9190613bd1565b600d556001600160a01b0387166000908152600e6020526040902054611f71908490613bd1565b6001600160a01b0388166000908152600e6020526040902055611f948783612ebe565b60405183815230906001600160a01b03891690600080516020613ccd8339815191529060200160405180910390a37fe5b754fb1abb7f01b499791d0b820ae3b6af3424ac1c59768edb53f4ec31a929878385604051611ff593929190613c65565b60405180910390a16005546040516351dff98960e01b81523060048201526001600160a01b0389811660248301526044820185905260648201869052909116906351dff98990608401600060405180830381600087803b15801561205857600080fd5b505af115801561206c573d6000803e3d6000fd5b5050505050505050505050565b600354600090819061010090046001600160a01b031633146120ae57604051630f7e5e6d60e41b815260040160405180910390fd5b43600954146120d057604051630dff50cb60e41b815260040160405180910390fd5b826120d9611cd0565b10156120f857604051633345e99960e01b815260040160405180910390fd5b600c5483111561211b576040516378d2980560e11b815260040160405180910390fd5b82600c546121299190613bd1565b600c81905560035490915061214c9061010090046001600160a01b031684612ebe565b7f3bad0c59cf2f06e7314077049f48a93578cd16f5ef92329f1dab1420a99c177e600360019054906101000a90046001600160a01b03168483604051610e9493929190613c65565b60055460405163368f515360e21b81526000916001600160a01b03169063da3d454c906121c990309087908790600401613c41565b6020604051808303816000875af11580156121e8573d6000803e3d6000fd5b505050506040513d601f19601f8201168201806040525081019061220c9190613b80565b905080156122305760405163918db40f60e01b81526004810182905260240161094c565b436009541461225257604051630e8d8c6160e21b815260040160405180910390fd5b8161225b611cd0565b101561227a576040516348c2588160e01b815260040160405180910390fd5b6000612285846123b2565b905060006122938483613be8565b9050600084600b546122a59190613be8565b6001600160a01b0387166000908152601060205260409020838155600a54600190910155600b81905590506122da8686612ebe565b6123086040518060400160405280600c81526020016b7472616e7366657272696e6760a01b81525086612fa8565b604080516001600160a01b038816815260208101879052908101839052606081018290527f13ed6866d4e1ee6da46f845c46d7e54120883d75c5ea9a2dacc1c4ca8984ab809060800160405180910390a1505050505050565b60005460ff166123835760405162461bcd60e51b815260040161094c90613b5c565b6000805460ff191690556123956112e5565b506123a233600083611d9c565b506000805460ff19166001179055565b6001600160a01b038116600090815260106020526040812080546123d95750600092915050565b600a5481546000916123ea91613c00565b9050816001015481611cc89190613c1f565b600354600090819061010090046001600160a01b031633146124315760405163407fded560e01b815260040160405180910390fd5b436009541461245357604051630be2a5cb60e11b815260040160405180910390fd5b600660009054906101000a90046001600160a01b03169050826001600160a01b0316632191f92a6040518163ffffffff1660e01b8152600401602060405180830381865afa1580156124a9573d6000803e3d6000fd5b505050506040513d601f19601f820116820180604052508101906124cd9190613b99565b6125195760405162461bcd60e51b815260206004820152601c60248201527f6d61726b6572206d6574686f642072657475726e65642066616c736500000000604482015260640161094c565b600680546001600160a01b0319166001600160a01b0385811691821790925560408051928416835260208301919091527fedffc32e068c7c95dfd4bdfd5c4d939a084d6b11c4199eac8436ed234d72f9269101610e94565b60005460ff166125935760405162461bcd60e51b815260040161094c90613b5c565b6000805460ff191690556125a56112e5565b506123a23382612602565b60408051602081019091526000815260405180602001604052806125d8856000015185612ff1565b90529392505050565b6000806125ee85856125b0565b9050611a236125fc82612df4565b84612ffd565b600554604051634ef4c3e160e01b81526000916001600160a01b031690634ef4c3e19061263790309087908790600401613c41565b6020604051808303816000875af1158015612656573d6000803e3d6000fd5b505050506040513d601f19601f8201168201806040525081019061267a9190613b80565b9050801561269e576040516349abd4fd60e01b81526004810182905260240161094c565b43600954146126c0576040516338d8859760e01b815260040160405180910390fd5b600060405180602001604052806126d56119c6565b9052905060006126e58585613009565b905060006126f38284612ea0565b905080600d546127039190613be8565b600d556001600160a01b0386166000908152600e602052604090205461272a908290613be8565b6001600160a01b0387166000908152600e60205260409081902091909155517f4c209b5fc8ad50758f13e2e1088ba56a560dff690a1c6fef26394f4c03821c4f9061277a90889085908590613c65565b60405180910390a16040518181526001600160a01b038716903090600080516020613ccd8339815191529060200160405180910390a3505050505050565b60055460405163d02f735160e01b81523060048201526001600160a01b0386811660248301528581166044830152848116606483015260848201849052600092169063d02f73519060a4016020604051808303816000875af1158015612822573d6000803e3d6000fd5b505050506040513d601f19601f820116820180604052508101906128469190613b80565b9050801561286a576040516363e00e3360e11b81526004810182905260240161094c565b836001600160a01b0316836001600160a01b0316141561289d57604051633a94626760e11b815260040160405180910390fd5b60006128be836040518060200160405280666379da05b600008152506131e0565b905060006128cc8285613bd1565b9050600060405180602001604052806128e36119c6565b9052905060006128f38285611cb0565b9050600081600c546129059190613be8565b600c819055600d5490915061291b908690613bd1565b600d556001600160a01b0388166000908152600e6020526040902054612942908890613bd1565b6001600160a01b03808a166000908152600e602052604080822093909355908b1681522054612972908590613be8565b6001600160a01b03808b166000818152600e602052604090819020939093559151908a1690600080516020613ccd833981519152906129b49088815260200190565b60405180910390a360405185815230906001600160a01b038a1690600080516020613ccd8339815191529060200160405180910390a37fa91e67c5ea634cd43a12c5a482724b03de01e85ca68702a53d0c2f45cb7c1dc5308383604051612a1d93929190613c65565b60405180910390a150505050505050505050565b60005460ff16612a535760405162461bcd60e51b815260040161094c90613b5c565b6000805460ff19169055612a656112e5565b506123a23382612194565b60005460ff16612a925760405162461bcd60e51b815260040161094c90613b5c565b6000805460ff19169055612aa46112e5565b506123a233826000611d9c565b60005460ff16612ad35760405162461bcd60e51b815260040161094c90613b5c565b6000805460ff19169055612ae56112e5565b506000816001600160a01b031663a6afed956040518163ffffffff1660e01b81526004016020604051808303816000875af1158015612b28573d6000803e3d6000fd5b505050506040513d601f19601f82011682018060405250810190612b4c9190613b80565b90508015612b7057604051633eea49b760e11b81526004810182905260240161094c565b612b7c33858585613203565b50506000805460ff191660011790555050565b60035460009061010090046001600160a01b03163314612bc257604051631205b57b60e11b815260040160405180910390fd5b4360095414612be457604051637dfca6b760e11b815260040160405180910390fd5b670de0b6b3a7640000821115612c0d5760405163717220f360e11b815260040160405180910390fd5b600880549083905560408051828152602081018590527faaa68312e2ea9d50e16af5068410ab56e1a1fd06037b1a35664812c30f8214609101610e94565b600554604051631200453160e11b81523060048201526001600160a01b03858116602483015284811660448301526064820184905260009283929116906324008a62906084016020604051808303816000875af1158015612cb0573d6000803e3d6000fd5b505050506040513d601f19601f82011682018060405250810190612cd49190613b80565b90508015612cf857604051638c81362d60e01b81526004810182905260240161094c565b4360095414612d1a5760405163c9021e2f60e01b815260040160405180910390fd5b6000612d25856123b2565b905060006000198514612d385784612d3a565b815b90506000612d488883613009565b90506000612d568285613bd1565b9050600082600b54612d689190613bd1565b6001600160a01b038a8116600081815260106020908152604091829020878155600a54600190910155600b8590558151938f168452830191909152810185905260608101849052608081018290529091507f1a2a22cb034d26d1854bdc6666a5b91fe25efbbb5dcad3b0355478d6f5c362a19060a00160405180910390a1509098975050505050505050565b8051600090610cb590670de0b6b3a764000090613c1f565b60008080804360095414612e36576040516338acf79960e01b81526004810182905260240161094c565b612e403386613009565b905080600c54612e509190613be8565b915081600c819055507fa91e67c5ea634cd43a12c5a482724b03de01e85ca68702a53d0c2f45cb7c1dc5338284604051612e8c93929190613c65565b60405180910390a160009590945092505050565b6000610c99612eb784670de0b6b3a7640000612ff1565b83516136bd565b60115460405163a9059cbb60e01b81526001600160a01b0384811660048301526024820184905290911690819063a9059cbb90604401600060405180830381600087803b158015612f0e57600080fd5b505af1158015612f22573d6000803e3d6000fd5b5050505060003d60008114612f3e5760208114612f4857600080fd5b6000199150612f54565b60206000803e60005191505b5080612fa25760405162461bcd60e51b815260206004820152601960248201527f544f4b454e5f5452414e534645525f4f55545f4641494c454400000000000000604482015260640161094c565b50505050565b612fed8282604051602401612fbe929190613c86565b60408051601f198184030181529190526020810180516001600160e01b03166309710a9d60e41b1790526136c9565b5050565b6000610c998284613c00565b6000610c998284613be8565b6011546040516370a0823160e01b81523060048201526000916001600160a01b0316908190839082906370a0823190602401602060405180830381865afa158015613058573d6000803e3d6000fd5b505050506040513d601f19601f8201168201806040525081019061307c9190613b80565b6040516323b872dd60e01b81529091506001600160a01b038316906323b872dd906130af90899030908a90600401613c41565b600060405180830381600087803b1580156130c957600080fd5b505af11580156130dd573d6000803e3d6000fd5b5050505060003d600081146130f9576020811461310357600080fd5b600019915061310f565b60206000803e60005191505b508061315d5760405162461bcd60e51b815260206004820152601860248201527f544f4b454e5f5452414e534645525f494e5f4641494c45440000000000000000604482015260640161094c565b6040516370a0823160e01b81523060048201526000906001600160a01b038616906370a0823190602401602060405180830381865afa1580156131a4573d6000803e3d6000fd5b505050506040513d601f19601f820116820180604052508101906131c89190613b80565b90506131d48382613bd1565b98975050505050505050565b6000670de0b6b3a76400006131f9848460000151612ff1565b610c999190613c1f565b600554604051632fe3f38f60e11b81523060048201526001600160a01b03838116602483015286811660448301528581166064830152608482018590526000921690635fc7e71e9060a4016020604051808303816000875af115801561326d573d6000803e3d6000fd5b505050506040513d601f19601f820116820180604052508101906132919190613b80565b905080156132b557604051630a14d17960e11b81526004810182905260240161094c565b43600954146132d7576040516380965b1b60e01b815260040160405180910390fd5b43826001600160a01b0316636c540baf6040518163ffffffff1660e01b8152600401602060405180830381865afa158015613316573d6000803e3d6000fd5b505050506040513d601f19601f8201168201806040525081019061333a9190613b80565b1461335857604051631046f38d60e31b815260040160405180910390fd5b846001600160a01b0316846001600160a01b0316141561338b57604051631bd1a62160e21b815260040160405180910390fd5b826133a95760405163d29da7ef60e01b815260040160405180910390fd5b6000198314156133cc57604051635982c5bb60e11b815260040160405180910390fd5b60006133d9868686612c4b565b60055460405163c488847b60e01b815291925060009182916001600160a01b03169063c488847b9061341390309089908890600401613c41565b6040805180830381865afa15801561342f573d6000803e3d6000fd5b505050506040513d601f19601f820116820180604052508101906134539190613ca8565b91509150600082146134c35760405162461bcd60e51b815260206004820152603360248201527f4c49515549444154455f434f4d5054524f4c4c45525f43414c43554c4154455f604482015272105353d5539517d4d152569157d19052531151606a1b606482015260840161094c565b6040516370a0823160e01b81526001600160a01b0388811660048301528291908716906370a0823190602401602060405180830381865afa15801561350c573d6000803e3d6000fd5b505050506040513d601f19601f820116820180604052508101906135309190613b80565b101561357e5760405162461bcd60e51b815260206004820152601860248201527f4c49515549444154455f5345495a455f544f4f5f4d5543480000000000000000604482015260640161094c565b6001600160a01b0385163014156135a05761359b308989846127b8565b61365a565b60405163b2a02ff160e01b81526000906001600160a01b0387169063b2a02ff1906135d3908c908c908790600401613c41565b6020604051808303816000875af11580156135f2573d6000803e3d6000fd5b505050506040513d601f19601f820116820180604052508101906136169190613b80565b1461365a5760405162461bcd60e51b81526020600482015260146024820152731d1bdad95b881cd95a5e9d5c994819985a5b195960621b604482015260640161094c565b604080516001600160a01b038a811682528981166020830152818301869052871660608201526080810183905290517f298637f684da70674f26509b10f07ec2fbc77a335ab1e7d6215a4b2484d8bb529181900360a00190a15050505050505050565b6000610c998284613c1f565b80516a636f6e736f6c652e6c6f67602083016000808483855afa5050505050565b8280546136f690613b21565b90600052602060002090601f016020900481019282613718576000855561375e565b82601f1061373157805160ff191683800117855561375e565b8280016001018555821561375e579182015b8281111561375e578251825591602001919060010190613743565b50611a2c9291505b80821115611a2c5760008155600101613766565b6001600160a01b038116811461378f57600080fd5b50565b6000602082840312156137a457600080fd5b8135610c998161377a565b6000815180845260005b818110156137d5576020818501810151868301820152016137b9565b818111156137e7576000602083870101525b50601f01601f19169290920160200192915050565b602081526000610c9960208301846137af565b6000806040838503121561382257600080fd5b823561382d8161377a565b946020939093013593505050565b60006020828403121561384d57600080fd5b5035919050565b634e487b7160e01b600052604160045260246000fd5b600082601f83011261387b57600080fd5b813567ffffffffffffffff8082111561389657613896613854565b604051601f8301601f19908116603f011681019082821181831017156138be576138be613854565b816040528381528660208588010111156138d757600080fd5b836020870160208301376000602085830101528094505050505092915050565b803560ff8116811461390857600080fd5b919050565b600080600080600080600060e0888a03121561392857600080fd5b87356139338161377a565b965060208801356139438161377a565b955060408801356139538161377a565b945060608801359350608088013567ffffffffffffffff8082111561397757600080fd5b6139838b838c0161386a565b945060a08a013591508082111561399957600080fd5b506139a68a828b0161386a565b9250506139b560c089016138f7565b905092959891949750929550565b6000806000606084860312156139d857600080fd5b83356139e38161377a565b925060208401356139f38161377a565b929592945050506040919091013590565b60008060008060008060c08789031215613a1d57600080fd5b8635613a288161377a565b95506020870135613a388161377a565b945060408701359350606087013567ffffffffffffffff80821115613a5c57600080fd5b613a688a838b0161386a565b94506080890135915080821115613a7e57600080fd5b50613a8b89828a0161386a565b925050613a9a60a088016138f7565b90509295509295509295565b60008060408385031215613ab957600080fd5b8235613ac48161377a565b91506020830135613ad48161377a565b809150509250929050565b600080600060608486031215613af457600080fd5b8335613aff8161377a565b9250602084013591506040840135613b168161377a565b809150509250925092565b600181811c90821680613b3557607f821691505b60208210811415613b5657634e487b7160e01b600052602260045260246000fd5b50919050565b6020808252600a90820152691c994b595b9d195c995960b21b604082015260600190565b600060208284031215613b9257600080fd5b5051919050565b600060208284031215613bab57600080fd5b81518015158114610c9957600080fd5b634e487b7160e01b600052601160045260246000fd5b600082821015613be357613be3613bbb565b500390565b60008219821115613bfb57613bfb613bbb565b500190565b6000816000190483118215151615613c1a57613c1a613bbb565b500290565b600082613c3c57634e487b7160e01b600052601260045260246000fd5b500490565b6001600160a01b039384168152919092166020820152604081019190915260600190565b6001600160a01b039390931683526020830191909152604082015260600190565b604081526000613c9960408301856137af565b90508260208301529392505050565b60008060408385031215613cbb57600080fd5b50508051602090910151909290915056feddf252ad1be2c89b69c2b068fc378daa952ba7f163c4a11628f55a4df523b3efa26469706673582212207fc068377b3417fcd3ac6925a6370537eb13c614da95606cebeaf238dac9523764736f6c634300080a0033",
  "linkReferences": {},
  "deployedLinkReferences": {}
}