{
  "_format": "hh-sol-artifact-1",
  "contractName": "tVault",
  "sourceName": "src/tVault.sol",
  "abi": [
    {
      "inputs": [
        {
          "components": [
            {
              "internalType": "address",
              "name": "_want",
              "type": "address"
            },
            {
              "internalType": "address[]",
              "name": "_instruments",
              "type": "address[]"
            },
            {
              "internalType": "uint256[]",
              "name": "_ratios",
              "type": "uint256[]"
            },
            {
              "internalType": "uint256",
              "name": "_junior_weight",
              "type": "uint256"
            },
            {
              "internalType": "uint256",
              "name": "_promisedReturn",
              "type": "uint256"
            },
            {
              "internalType": "uint256",
              "name": "inceptionTime",
              "type": "uint256"
            },
            {
              "internalType": "uint256",
              "name": "vaultId",
              "type": "uint256"
            },
            {
              "internalType": "uint256",
              "name": "inceptionPrice",
              "type": "uint256"
            },
            {
              "internalType": "bool",
              "name": "oracleAMM",
              "type": "bool"
            }
          ],
          "internalType": "struct TrancheFactory.InitParams",
          "name": "param",
          "type": "tuple"
        },
        {
          "internalType": "address",
          "name": "_creator",
          "type": "address"
        },
        {
          "internalType": "string[]",
          "name": "_names",
          "type": "string[]"
        },
        {
          "internalType": "string",
          "name": "_descriptions",
          "type": "string"
        }
      ],
      "stateMutability": "nonpayable",
      "type": "constructor"
    },
    {
      "anonymous": false,
      "inputs": [
        {
          "indexed": true,
          "internalType": "address",
          "name": "owner",
          "type": "address"
        },
        {
          "indexed": true,
          "internalType": "address",
          "name": "spender",
          "type": "address"
        },
        {
          "indexed": false,
          "internalType": "uint256",
          "name": "amount",
          "type": "uint256"
        }
      ],
      "name": "Approval",
      "type": "event"
    },
    {
      "anonymous": false,
      "inputs": [
        {
          "indexed": true,
          "internalType": "address",
          "name": "caller",
          "type": "address"
        },
        {
          "indexed": true,
          "internalType": "address",
          "name": "owner",
          "type": "address"
        },
        {
          "indexed": false,
          "internalType": "uint256",
          "name": "assets",
          "type": "uint256"
        },
        {
          "indexed": false,
          "internalType": "uint256",
          "name": "shares",
          "type": "uint256"
        }
      ],
      "name": "Deposit",
      "type": "event"
    },
    {
      "anonymous": false,
      "inputs": [
        {
          "indexed": true,
          "internalType": "address",
          "name": "from",
          "type": "address"
        },
        {
          "indexed": true,
          "internalType": "address",
          "name": "to",
          "type": "address"
        },
        {
          "indexed": false,
          "internalType": "uint256",
          "name": "amount",
          "type": "uint256"
        }
      ],
      "name": "Transfer",
      "type": "event"
    },
    {
      "anonymous": false,
      "inputs": [
        {
          "indexed": true,
          "internalType": "address",
          "name": "caller",
          "type": "address"
        },
        {
          "indexed": true,
          "internalType": "address",
          "name": "receiver",
          "type": "address"
        },
        {
          "indexed": true,
          "internalType": "address",
          "name": "owner",
          "type": "address"
        },
        {
          "indexed": false,
          "internalType": "uint256",
          "name": "assets",
          "type": "uint256"
        },
        {
          "indexed": false,
          "internalType": "uint256",
          "name": "shares",
          "type": "uint256"
        }
      ],
      "name": "Withdraw",
      "type": "event"
    },
    {
      "inputs": [],
      "name": "DOMAIN_SEPARATOR",
      "outputs": [
        {
          "internalType": "bytes32",
          "name": "",
          "type": "bytes32"
        }
      ],
      "stateMutability": "view",
      "type": "function"
    },
    {
      "inputs": [],
      "name": "PRICE_PRECISION",
      "outputs": [
        {
          "internalType": "uint256",
          "name": "",
          "type": "uint256"
        }
      ],
      "stateMutability": "view",
      "type": "function"
    },
    {
      "inputs": [
        {
          "internalType": "address",
          "name": "",
          "type": "address"
        },
        {
          "internalType": "address",
          "name": "",
          "type": "address"
        }
      ],
      "name": "allowance",
      "outputs": [
        {
          "internalType": "uint256",
          "name": "",
          "type": "uint256"
        }
      ],
      "stateMutability": "view",
      "type": "function"
    },
    {
      "inputs": [
        {
          "internalType": "address",
          "name": "spender",
          "type": "address"
        },
        {
          "internalType": "uint256",
          "name": "amount",
          "type": "uint256"
        }
      ],
      "name": "approve",
      "outputs": [
        {
          "internalType": "bool",
          "name": "",
          "type": "bool"
        }
      ],
      "stateMutability": "nonpayable",
      "type": "function"
    },
    {
      "inputs": [],
      "name": "asset",
      "outputs": [
        {
          "internalType": "contract ERC20",
          "name": "",
          "type": "address"
        }
      ],
      "stateMutability": "view",
      "type": "function"
    },
    {
      "inputs": [],
      "name": "assetName",
      "outputs": [
        {
          "internalType": "string",
          "name": "",
          "type": "string"
        }
      ],
      "stateMutability": "view",
      "type": "function"
    },
    {
      "inputs": [
        {
          "internalType": "address",
          "name": "",
          "type": "address"
        }
      ],
      "name": "balanceOf",
      "outputs": [
        {
          "internalType": "uint256",
          "name": "",
          "type": "uint256"
        }
      ],
      "stateMutability": "view",
      "type": "function"
    },
    {
      "inputs": [
        {
          "internalType": "uint256",
          "name": "shares",
          "type": "uint256"
        }
      ],
      "name": "convertToAssets",
      "outputs": [
        {
          "internalType": "uint256",
          "name": "",
          "type": "uint256"
        }
      ],
      "stateMutability": "view",
      "type": "function"
    },
    {
      "inputs": [
        {
          "internalType": "uint256",
          "name": "assets",
          "type": "uint256"
        }
      ],
      "name": "convertToShares",
      "outputs": [
        {
          "internalType": "uint256",
          "name": "",
          "type": "uint256"
        }
      ],
      "stateMutability": "view",
      "type": "function"
    },
    {
      "inputs": [],
      "name": "creator",
      "outputs": [
        {
          "internalType": "address",
          "name": "",
          "type": "address"
        }
      ],
      "stateMutability": "view",
      "type": "function"
    },
    {
      "inputs": [],
      "name": "decimals",
      "outputs": [
        {
          "internalType": "uint8",
          "name": "",
          "type": "uint8"
        }
      ],
      "stateMutability": "view",
      "type": "function"
    },
    {
      "inputs": [],
      "name": "delta",
      "outputs": [
        {
          "internalType": "uint256",
          "name": "",
          "type": "uint256"
        }
      ],
      "stateMutability": "view",
      "type": "function"
    },
    {
      "inputs": [
        {
          "internalType": "uint256",
          "name": "assets",
          "type": "uint256"
        },
        {
          "internalType": "address",
          "name": "receiver",
          "type": "address"
        }
      ],
      "name": "deposit",
      "outputs": [
        {
          "internalType": "uint256",
          "name": "shares",
          "type": "uint256"
        }
      ],
      "stateMutability": "nonpayable",
      "type": "function"
    },
    {
      "inputs": [],
      "name": "descriptions",
      "outputs": [
        {
          "internalType": "string",
          "name": "",
          "type": "string"
        }
      ],
      "stateMutability": "view",
      "type": "function"
    },
    {
      "inputs": [],
      "name": "getJuniorWeight",
      "outputs": [
        {
          "internalType": "uint256",
          "name": "",
          "type": "uint256"
        }
      ],
      "stateMutability": "view",
      "type": "function"
    },
    {
      "inputs": [],
      "name": "getNames",
      "outputs": [
        {
          "internalType": "string[]",
          "name": "",
          "type": "string[]"
        }
      ],
      "stateMutability": "view",
      "type": "function"
    },
    {
      "inputs": [],
      "name": "getPromisedReturn",
      "outputs": [
        {
          "internalType": "uint256",
          "name": "",
          "type": "uint256"
        }
      ],
      "stateMutability": "view",
      "type": "function"
    },
    {
      "inputs": [
        {
          "internalType": "uint256",
          "name": "pastNBlock",
          "type": "uint256"
        }
      ],
      "name": "getStoredReturnData",
      "outputs": [
        {
          "internalType": "uint256",
          "name": "",
          "type": "uint256"
        },
        {
          "internalType": "uint256",
          "name": "",
          "type": "uint256"
        },
        {
          "internalType": "uint256",
          "name": "",
          "type": "uint256"
        }
      ],
      "stateMutability": "view",
      "type": "function"
    },
    {
      "inputs": [],
      "name": "getUnderlying",
      "outputs": [
        {
          "internalType": "address",
          "name": "",
          "type": "address"
        }
      ],
      "stateMutability": "view",
      "type": "function"
    },
    {
      "inputs": [],
      "name": "inceptionPrice",
      "outputs": [
        {
          "internalType": "uint256",
          "name": "",
          "type": "uint256"
        }
      ],
      "stateMutability": "view",
      "type": "function"
    },
    {
      "inputs": [],
      "name": "inceptionTime",
      "outputs": [
        {
          "internalType": "uint256",
          "name": "",
          "type": "uint256"
        }
      ],
      "stateMutability": "view",
      "type": "function"
    },
    {
      "inputs": [
        {
          "internalType": "uint256",
          "name": "",
          "type": "uint256"
        }
      ],
      "name": "instruments",
      "outputs": [
        {
          "internalType": "address",
          "name": "",
          "type": "address"
        }
      ],
      "stateMutability": "view",
      "type": "function"
    },
    {
      "inputs": [],
      "name": "junior_weight",
      "outputs": [
        {
          "internalType": "uint256",
          "name": "",
          "type": "uint256"
        }
      ],
      "stateMutability": "view",
      "type": "function"
    },
    {
      "inputs": [
        {
          "internalType": "address",
          "name": "",
          "type": "address"
        }
      ],
      "name": "maxDeposit",
      "outputs": [
        {
          "internalType": "uint256",
          "name": "",
          "type": "uint256"
        }
      ],
      "stateMutability": "view",
      "type": "function"
    },
    {
      "inputs": [
        {
          "internalType": "address",
          "name": "",
          "type": "address"
        }
      ],
      "name": "maxMint",
      "outputs": [
        {
          "internalType": "uint256",
          "name": "",
          "type": "uint256"
        }
      ],
      "stateMutability": "view",
      "type": "function"
    },
    {
      "inputs": [],
      "name": "maxOracleEntries",
      "outputs": [
        {
          "internalType": "uint256",
          "name": "",
          "type": "uint256"
        }
      ],
      "stateMutability": "view",
      "type": "function"
    },
    {
      "inputs": [
        {
          "internalType": "address",
          "name": "owner",
          "type": "address"
        }
      ],
      "name": "maxRedeem",
      "outputs": [
        {
          "internalType": "uint256",
          "name": "",
          "type": "uint256"
        }
      ],
      "stateMutability": "view",
      "type": "function"
    },
    {
      "inputs": [
        {
          "internalType": "address",
          "name": "owner",
          "type": "address"
        }
      ],
      "name": "maxWithdraw",
      "outputs": [
        {
          "internalType": "uint256",
          "name": "",
          "type": "uint256"
        }
      ],
      "stateMutability": "view",
      "type": "function"
    },
    {
      "inputs": [],
      "name": "minEntries",
      "outputs": [
        {
          "internalType": "uint256",
          "name": "",
          "type": "uint256"
        }
      ],
      "stateMutability": "view",
      "type": "function"
    },
    {
      "inputs": [
        {
          "internalType": "uint256",
          "name": "shares",
          "type": "uint256"
        },
        {
          "internalType": "address",
          "name": "receiver",
          "type": "address"
        }
      ],
      "name": "mint",
      "outputs": [
        {
          "internalType": "uint256",
          "name": "assets",
          "type": "uint256"
        }
      ],
      "stateMutability": "nonpayable",
      "type": "function"
    },
    {
      "inputs": [],
      "name": "name",
      "outputs": [
        {
          "internalType": "string",
          "name": "",
          "type": "string"
        }
      ],
      "stateMutability": "view",
      "type": "function"
    },
    {
      "inputs": [
        {
          "internalType": "uint256",
          "name": "",
          "type": "uint256"
        }
      ],
      "name": "names",
      "outputs": [
        {
          "internalType": "string",
          "name": "",
          "type": "string"
        }
      ],
      "stateMutability": "view",
      "type": "function"
    },
    {
      "inputs": [
        {
          "internalType": "address",
          "name": "",
          "type": "address"
        }
      ],
      "name": "nonces",
      "outputs": [
        {
          "internalType": "uint256",
          "name": "",
          "type": "uint256"
        }
      ],
      "stateMutability": "view",
      "type": "function"
    },
    {
      "inputs": [
        {
          "internalType": "address",
          "name": "owner",
          "type": "address"
        },
        {
          "internalType": "address",
          "name": "spender",
          "type": "address"
        },
        {
          "internalType": "uint256",
          "name": "value",
          "type": "uint256"
        },
        {
          "internalType": "uint256",
          "name": "deadline",
          "type": "uint256"
        },
        {
          "internalType": "uint8",
          "name": "v",
          "type": "uint8"
        },
        {
          "internalType": "bytes32",
          "name": "r",
          "type": "bytes32"
        },
        {
          "internalType": "bytes32",
          "name": "s",
          "type": "bytes32"
        }
      ],
      "name": "permit",
      "outputs": [],
      "stateMutability": "nonpayable",
      "type": "function"
    },
    {
      "inputs": [
        {
          "internalType": "uint256",
          "name": "assets",
          "type": "uint256"
        }
      ],
      "name": "previewDeposit",
      "outputs": [
        {
          "internalType": "uint256",
          "name": "",
          "type": "uint256"
        }
      ],
      "stateMutability": "view",
      "type": "function"
    },
    {
      "inputs": [
        {
          "internalType": "uint256",
          "name": "shares",
          "type": "uint256"
        }
      ],
      "name": "previewMint",
      "outputs": [
        {
          "internalType": "uint256",
          "name": "",
          "type": "uint256"
        }
      ],
      "stateMutability": "view",
      "type": "function"
    },
    {
      "inputs": [
        {
          "internalType": "uint256",
          "name": "shares",
          "type": "uint256"
        }
      ],
      "name": "previewRedeem",
      "outputs": [
        {
          "internalType": "uint256",
          "name": "",
          "type": "uint256"
        }
      ],
      "stateMutability": "view",
      "type": "function"
    },
    {
      "inputs": [
        {
          "internalType": "uint256",
          "name": "assets",
          "type": "uint256"
        }
      ],
      "name": "previewWithdraw",
      "outputs": [
        {
          "internalType": "uint256",
          "name": "",
          "type": "uint256"
        }
      ],
      "stateMutability": "view",
      "type": "function"
    },
    {
      "inputs": [],
      "name": "promisedReturn",
      "outputs": [
        {
          "internalType": "uint256",
          "name": "",
          "type": "uint256"
        }
      ],
      "stateMutability": "view",
      "type": "function"
    },
    {
      "inputs": [],
      "name": "queryExchangeRateOracle",
      "outputs": [
        {
          "internalType": "uint256",
          "name": "",
          "type": "uint256"
        }
      ],
      "stateMutability": "view",
      "type": "function"
    },
    {
      "inputs": [
        {
          "internalType": "uint256",
          "name": "",
          "type": "uint256"
        }
      ],
      "name": "ratios",
      "outputs": [
        {
          "internalType": "uint256",
          "name": "",
          "type": "uint256"
        }
      ],
      "stateMutability": "view",
      "type": "function"
    },
    {
      "inputs": [
        {
          "internalType": "uint256",
          "name": "shares",
          "type": "uint256"
        },
        {
          "internalType": "address",
          "name": "receiver",
          "type": "address"
        },
        {
          "internalType": "address",
          "name": "owner",
          "type": "address"
        }
      ],
      "name": "redeem",
      "outputs": [
        {
          "internalType": "uint256",
          "name": "assets",
          "type": "uint256"
        }
      ],
      "stateMutability": "nonpayable",
      "type": "function"
    },
    {
      "inputs": [
        {
          "internalType": "address",
          "name": "newOracle",
          "type": "address"
        },
        {
          "internalType": "bool",
          "name": "_assetIsErc20",
          "type": "bool"
        }
      ],
      "name": "setExchangeRateOracle",
      "outputs": [],
      "stateMutability": "nonpayable",
      "type": "function"
    },
    {
      "inputs": [],
      "name": "storeExchangeRate",
      "outputs": [],
      "stateMutability": "nonpayable",
      "type": "function"
    },
    {
      "inputs": [],
      "name": "symbol",
      "outputs": [
        {
          "internalType": "string",
          "name": "",
          "type": "string"
        }
      ],
      "stateMutability": "view",
      "type": "function"
    },
    {
      "inputs": [],
      "name": "totalAssetOracle",
      "outputs": [
        {
          "internalType": "address",
          "name": "",
          "type": "address"
        }
      ],
      "stateMutability": "view",
      "type": "function"
    },
    {
      "inputs": [],
      "name": "totalAssets",
      "outputs": [
        {
          "internalType": "uint256",
          "name": "",
          "type": "uint256"
        }
      ],
      "stateMutability": "view",
      "type": "function"
    },
    {
      "inputs": [],
      "name": "totalAssetsERC4626",
      "outputs": [
        {
          "internalType": "uint256",
          "name": "",
          "type": "uint256"
        }
      ],
      "stateMutability": "view",
      "type": "function"
    },
    {
      "inputs": [],
      "name": "totalAssetsOracle",
      "outputs": [
        {
          "internalType": "uint256",
          "name": "",
          "type": "uint256"
        }
      ],
      "stateMutability": "view",
      "type": "function"
    },
    {
      "inputs": [],
      "name": "totalSupply",
      "outputs": [
        {
          "internalType": "uint256",
          "name": "",
          "type": "uint256"
        }
      ],
      "stateMutability": "view",
      "type": "function"
    },
    {
      "inputs": [
        {
          "internalType": "address",
          "name": "to",
          "type": "address"
        },
        {
          "internalType": "uint256",
          "name": "amount",
          "type": "uint256"
        }
      ],
      "name": "transfer",
      "outputs": [
        {
          "internalType": "bool",
          "name": "",
          "type": "bool"
        }
      ],
      "stateMutability": "nonpayable",
      "type": "function"
    },
    {
      "inputs": [
        {
          "internalType": "address",
          "name": "from",
          "type": "address"
        },
        {
          "internalType": "address",
          "name": "to",
          "type": "address"
        },
        {
          "internalType": "uint256",
          "name": "amount",
          "type": "uint256"
        }
      ],
      "name": "transferFrom",
      "outputs": [
        {
          "internalType": "bool",
          "name": "",
          "type": "bool"
        }
      ],
      "stateMutability": "nonpayable",
      "type": "function"
    },
    {
      "inputs": [],
      "name": "underlyingName",
      "outputs": [
        {
          "internalType": "string",
          "name": "",
          "type": "string"
        }
      ],
      "stateMutability": "view",
      "type": "function"
    },
    {
      "inputs": [],
      "name": "want",
      "outputs": [
        {
          "internalType": "contract ERC20",
          "name": "",
          "type": "address"
        }
      ],
      "stateMutability": "view",
      "type": "function"
    },
    {
      "inputs": [
        {
          "internalType": "uint256",
          "name": "assets",
          "type": "uint256"
        },
        {
          "internalType": "address",
          "name": "receiver",
          "type": "address"
        },
        {
          "internalType": "address",
          "name": "owner",
          "type": "address"
        }
      ],
      "name": "withdraw",
      "outputs": [
        {
          "internalType": "uint256",
          "name": "shares",
          "type": "uint256"
        }
      ],
      "stateMutability": "nonpayable",
      "type": "function"
    }
  ],
  "bytecode": "0x6101406040523480156200001257600080fd5b506040516200311f3803806200311f8339810160408190526200003591620008ee565b836000015184600001516001600160a01b03166306fdde036040518163ffffffff1660e01b8152600401600060405180830381865afa1580156200007d573d6000803e3d6000fd5b505050506040513d6000823e601f3d908101601f19168201604052620000a7919081019062000a45565b604051602001620000b9919062000a7d565b60405160208183030381529060405285600001516001600160a01b03166306fdde036040518163ffffffff1660e01b8152600401600060405180830381865afa1580156200010b573d6000803e3d6000fd5b505050506040513d6000823e601f3d908101601f1916820160405262000135919081019062000a45565b60405160200162000147919062000a7d565b6040516020818303038152906040528181601282600090805190602001906200017292919062000419565b5081516200018890600190602085019062000419565b5060ff81166080524660a0526200019e6200037d565b60c0525050506001600160a01b0390921660e052505060208401515160408501515114620002135760405162461bcd60e51b815260206004820152601460248201527f496e636f7272656374206e756d20726174696f7300000000000000000000000060448201526064015b60405180910390fd5b8351600880546001600160a01b0319166001600160a01b0390921691909117905560208085015180516200024c92600b920190620004a8565b5060208085015151600955604085015180516200026e92600a92019062000500565b506060840151600c556080840151600d5542600e5560e0840151600f558151620002a09060129060208501906200053d565b508051620002b690601390602084019062000419565b50670de0b6b3a764000061010052436014556001600160a01b038316610120526000805b600a548110156200032a57600a8181548110620002fb57620002fb62000aaa565b90600052602060002001548262000313919062000ad6565b915080620003218162000af1565b915050620002da565b50610100518114620003725760405162461bcd60e51b815260206004820152601060248201526f496e636f727265637420726174696f7360801b60448201526064016200020a565b505050505062000bf0565b60007f8b73c3c69bb8fe3d512ecc4cf759cc79239f7b179b0ffacaa9a75d522b39400f6000604051620003b1919062000b4c565b6040805191829003822060208301939093528101919091527fc89efdaa54c0f20c7adf612882df0950f5a951637e0307cdcb4c672f298b8bc660608201524660808201523060a082015260c00160405160208183030381529060405280519060200120905090565b828054620004279062000b0f565b90600052602060002090601f0160209004810192826200044b576000855562000496565b82601f106200046657805160ff191683800117855562000496565b8280016001018555821562000496579182015b828111156200049657825182559160200191906001019062000479565b50620004a49291506200059d565b5090565b82805482825590600052602060002090810192821562000496579160200282015b828111156200049657825182546001600160a01b0319166001600160a01b03909116178255602090920191600190910190620004c9565b8280548282559060005260206000209081019282156200049657916020028201828111156200049657825182559160200191906001019062000479565b8280548282559060005260206000209081019282156200058f579160200282015b828111156200058f57825180516200057e91849160209091019062000419565b50916020019190600101906200055e565b50620004a4929150620005b4565b5b80821115620004a457600081556001016200059e565b80821115620004a4576000620005cb8282620005d5565b50600101620005b4565b508054620005e39062000b0f565b6000825580601f10620005f4575050565b601f0160209004906000526020600020908101906200061491906200059d565b50565b634e487b7160e01b600052604160045260246000fd5b60405161012081016001600160401b038111828210171562000653576200065362000617565b60405290565b604051601f8201601f191681016001600160401b038111828210171562000684576200068462000617565b604052919050565b80516001600160a01b0381168114620006a457600080fd5b919050565b60006001600160401b03821115620006c557620006c562000617565b5060051b60200190565b600082601f830112620006e157600080fd5b81516020620006fa620006f483620006a9565b62000659565b82815260059290921b840181019181810190868411156200071a57600080fd5b8286015b84811015620007405762000732816200068c565b83529183019183016200071e565b509695505050505050565b600082601f8301126200075d57600080fd5b8151602062000770620006f483620006a9565b82815260059290921b840181019181810190868411156200079057600080fd5b8286015b8481101562000740578051835291830191830162000794565b80518015158114620006a457600080fd5b60005b83811015620007db578181015183820152602001620007c1565b83811115620007eb576000848401525b50505050565b600082601f8301126200080357600080fd5b81516001600160401b038111156200081f576200081f62000617565b62000834601f8201601f191660200162000659565b8181528460208386010111156200084a57600080fd5b6200085d826020830160208701620007be565b949350505050565b600082601f8301126200087757600080fd5b815160206200088a620006f483620006a9565b82815260059290921b84018101918181019086841115620008aa57600080fd5b8286015b84811015620007405780516001600160401b03811115620008cf5760008081fd5b620008df8986838b0101620007f1565b845250918301918301620008ae565b600080600080608085870312156200090557600080fd5b84516001600160401b03808211156200091d57600080fd5b9086019061012082890312156200093357600080fd5b6200093d6200062d565b62000948836200068c565b81526020830151828111156200095d57600080fd5b6200096b8a828601620006cf565b6020830152506040830151828111156200098457600080fd5b620009928a8286016200074b565b604083015250606083015160608201526080830151608082015260a083015160a082015260c083015160c082015260e083015160e0820152610100620009da818501620007ad565b908201529550620009ee602088016200068c565b9450604087015191508082111562000a0557600080fd5b62000a138883890162000865565b9350606087015191508082111562000a2a57600080fd5b5062000a3987828801620007f1565b91505092959194509250565b60006020828403121562000a5857600080fd5b81516001600160401b0381111562000a6f57600080fd5b6200085d84828501620007f1565b6000825162000a91818460208701620007be565b66081d15985d5b1d60ca1b920191825250600701919050565b634e487b7160e01b600052603260045260246000fd5b634e487b7160e01b600052601160045260246000fd5b6000821982111562000aec5762000aec62000ac0565b500190565b600060001982141562000b085762000b0862000ac0565b5060010190565b600181811c9082168062000b2457607f821691505b6020821081141562000b4657634e487b7160e01b600052602260045260246000fd5b50919050565b600080835481600182811c91508083168062000b6957607f831692505b602080841082141562000b8a57634e487b7160e01b86526022600452602486fd5b81801562000ba1576001811462000bb35762000be2565b60ff1986168952848901965062000be2565b60008a81526020902060005b8681101562000bda5781548b82015290850190830162000bbf565b505084890196505b509498975050505050505050565b60805160a05160c05160e05161010051610120516124a762000c7860003960006103820152600081816105fa01528181610b5e015281816118c20152611af90152600081816104bd01528181610eb101528181611057015281816112610152818161151b0152611baa01526000610c3b01526000610c0b0152600061046a01526124a76000f3fe608060405234801561001057600080fd5b506004361061035d5760003560e01c8063771dc86a116101d3578063c70acd8a11610104578063d505accf116100a2578063dd62ed3e1161007c578063dd62ed3e14610775578063e31fbfa2146107a0578063e6dbd1c3146107a8578063ef8b30f7146107b057600080fd5b8063d505accf14610730578063d7fdefca14610743578063d905777e1461074c57600080fd5b8063cd838f0f116100de578063cd838f0f146106be578063ce96cb77146106d3578063d09a2c99146106e6578063d37f9c16146106ee57600080fd5b8063c70acd8a146106a4578063c79eff3a146106ad578063c9230c5d146106b657600080fd5b8063b3d7f6b911610171578063ba0876521161014b578063ba08765214610676578063bd2d87eb14610689578063c63d75b6146104f2578063c6e6f5921461069157600080fd5b8063b3d7f6b914610648578063b460af941461065b578063b6c604261461066e57600080fd5b806395082d25116101ad57806395082d25146105f557806395d89b411461061c5780639816f47314610624578063a9059cbb1461063557600080fd5b8063771dc86a146105af5780637ecebe00146105c257806394bf804d146105e257600080fd5b806334fd2eca116102ad5780634b3ceabd1161024b5780636b8f8e1f116102255780636b8f8e1f1461056b5780636e553f651461057457806370a08231146105875780637251d389146105a757600080fd5b80634b3ceabd146105485780634cdad506146105505780634fe2f0ed1461056357600080fd5b80633cbaba28116102875780633cbaba28146104df578063402d267d146104f25780634622ab03146105075780634796c5471461051a57600080fd5b806334fd2eca146104a85780633644e515146104b057806338d52e0f146104b857600080fd5b806312b495a81161031a57806322bbad0b116102f457806322bbad0b1461043f57806323b872dd14610452578063313ce56714610465578063318b5e1b1461049e57600080fd5b806312b495a81461041a57806318160ddd146104235780631f1fcd511461042c57600080fd5b806301e1d1141461036257806302d05d3f1461037d57806306fdde03146103bc57806307a2d13a146103d1578063095ea7b3146103e45780630a28a47714610407575b600080fd5b61036a6107c3565b6040519081526020015b60405180910390f35b6103a47f000000000000000000000000000000000000000000000000000000000000000081565b6040516001600160a01b039091168152602001610374565b6103c46107e4565b604051610374919061202a565b61036a6103df36600461203d565b610872565b6103f76103f2366004612072565b61089f565b6040519015158152602001610374565b61036a61041536600461203d565b61090c565b61036a60105481565b61036a60025481565b6008546103a4906001600160a01b031681565b6103a461044d36600461203d565b61092c565b6103f761046036600461209c565b610956565b61048c7f000000000000000000000000000000000000000000000000000000000000000081565b60405160ff9091168152602001610374565b6104a6610a36565b005b600d5461036a565b61036a610c07565b6103a47f000000000000000000000000000000000000000000000000000000000000000081565b6015546103a4906001600160a01b031681565b61036a6105003660046120d8565b5060001990565b6103c461051536600461203d565b610c5d565b61052d61052836600461203d565b610c88565b60408051938452602084019290925290820152606001610374565b61036a600a81565b61036a61055e36600461203d565b610e3f565b6103c4610e4a565b61036a600d5481565b61036a6105823660046120f3565b610e57565b61036a6105953660046120d8565b60036020526000908152604090205481565b61036a610f42565b61036a6105bd36600461203d565b611014565b61036a6105d03660046120d8565b60056020526000908152604090205481565b61036a6105f03660046120f3565b611035565b61036a7f000000000000000000000000000000000000000000000000000000000000000081565b6103c46110df565b6008546001600160a01b03166103a4565b6103f7610643366004612072565b6110ec565b61036a61065636600461203d565b611152565b61036a61066936600461211f565b611171565b61036a611288565b61036a61068436600461211f565b6113e8565b6103c4611542565b61036a61069f36600461203d565b61154f565b61036a600c5481565b61036a600e5481565b6103c461156f565b6106c661157c565b604051610374919061215b565b61036a6106e13660046120d8565b611655565b61036a606481565b6104a66106fc3660046121bd565b601580546001600160a01b0319166001600160a01b0393909316929092179091556011805460ff1916911515919091179055565b6104a661073e3660046121f9565b611677565b61036a600f5481565b61036a61075a3660046120d8565b6001600160a01b031660009081526003602052604090205490565b61036a61078336600461226c565b600460209081526000928352604080842090915290825290205481565b600c5461036a565b61036a6118bb565b61036a6107be36600461203d565b6118e6565b60115460009060ff166107dd576107d8611288565b905090565b5060025490565b600080546107f190612296565b80601f016020809104026020016040519081016040528092919081815260200182805461081d90612296565b801561086a5780601f1061083f5761010080835404028352916020019161086a565b820191906000526020600020905b81548152906001019060200180831161084d57829003601f168201915b505050505081565b6002546000908015610896576108916108896107c3565b8490836118f1565b610898565b825b9392505050565b3360008181526004602090815260408083206001600160a01b038716808552925280832085905551919290917f8c5be1e5ebec7d5bd14f71427d1e84f3dd0314c0f7b2291e5b200ac8c7c3b925906108fa9086815260200190565b60405180910390a35060015b92915050565b600254600090801561089657610891816109246107c3565b859190611910565b600b818154811061093c57600080fd5b6000918252602090912001546001600160a01b0316905081565b6001600160a01b038316600090815260046020908152604080832033845290915281205460001981146109b25761098d83826122e7565b6001600160a01b03861660009081526004602090815260408083203384529091529020555b6001600160a01b038516600090815260036020526040812080548592906109da9084906122e7565b90915550506001600160a01b038085166000818152600360205260409081902080548701905551909187169060008051602061245283398151915290610a239087815260200190565b60405180910390a3506001949350505050565b601454431480610a48575060115460ff165b15610a4f57565b6015546001600160a01b031615610b4b57604080518082018083526015546339aa885b60e21b909152915190918291610add916001600160a01b03169063e6aa216c906044808601916020918188030181865afa158015610ab4573d6000803e3d6000fd5b505050506040513d601f19601f82011682018060405250810190610ad891906122fe565b61193e565b6001600160801b03168152602001610af660025461193e565b6001600160801b0316815250601760006064601654610b15919061232d565b8152602080820192909252604001600020825192909101516001600160801b03908116600160801b029216919091179055610bec565b6040518060400160405280610b82610ad87f0000000000000000000000000000000000000000000000000000000000000000611152565b6001600160801b03168152602001610b9b60025461193e565b6001600160801b0316815250601760006064601654610bba919061232d565b8152602080820192909252604001600020825192909101516001600160801b03908116600160801b0292169190911790555b60168054906000610bfc83612341565b909155505043601455565b60007f00000000000000000000000000000000000000000000000000000000000000004614610c38576107d8611954565b507f000000000000000000000000000000000000000000000000000000000000000090565b60128181548110610c6d57600080fd5b9060005260206000200160009150905080546107f190612296565b60008080808080865b8015610d39576000818152601760205260409020546001600160801b0316610cb857610d29565b600081815260176020526040902054610ce190600160801b90046001600160801b03168561235c565b600082815260176020526040902054909450610d0f906001600160801b03600160801b8204811691166119ee565b610d19908461235c565b925081610d2581612341565b9250505b610d3281612374565b9050610c91565b506000805260176020527fd840e16649f6b9a295d95876f4633d3a6b10b55e8162971cf78afd886d5ec89b546001600160801b031615610e1c576000805260176020527fd840e16649f6b9a295d95876f4633d3a6b10b55e8162971cf78afd886d5ec89b54610db890600160801b90046001600160801b03168461235c565b6000805260176020527fd840e16649f6b9a295d95876f4633d3a6b10b55e8162971cf78afd886d5ec89b54909350610e02906001600160801b03600160801b8204811691166119ee565b610e0c908361235c565b915080610e1881612341565b9150505b610e26818461238b565b610e30828461238b565b90989097509095509350505050565b600061090682610872565b601380546107f190612296565b6000610e62836118e6565b905080610ea45760405162461bcd60e51b815260206004820152600b60248201526a5a45524f5f53484152455360a81b60448201526064015b60405180910390fd5b610ed96001600160a01b037f000000000000000000000000000000000000000000000000000000000000000016333086611a03565b60115460ff16610eec57610eec81611a8d565b610ef68282611d42565b60408051848152602081018390526001600160a01b0384169133917fdcbc1c05240f31ff3ad067ef1ee35ce4997762752e3a095284754544f4c709d791015b60405180910390a3610906565b60115460009060ff16610f57576107d8611288565b6015546001600160a01b0316610f9b5760405162461bcd60e51b81526020600482015260096024820152684e6f206f7261636c6560b81b6044820152606401610e9b565b600254601554604080516339aa885b60e21b815290516107d893926001600160a01b03169163e6aa216c9160048083019260209291908290030181865afa158015610fea573d6000803e3d6000fd5b505050506040513d601f19601f8201168201806040525081019061100e91906122fe565b906119ee565b600a818154811061102457600080fd5b600091825260209091200154905081565b600061103f610a36565b61104883611152565b905061107f6001600160a01b037f000000000000000000000000000000000000000000000000000000000000000016333084611a03565b60115460ff166110925761109283611a8d565b61109c8284611d42565b60408051828152602081018590526001600160a01b0384169133917fdcbc1c05240f31ff3ad067ef1ee35ce4997762752e3a095284754544f4c709d79101610f35565b600180546107f190612296565b3360009081526003602052604081208054839190839061110d9084906122e7565b90915550506001600160a01b03831660008181526003602052604090819020805485019055513390600080516020612452833981519152906108fa9086815260200190565b6002546000908015610896576108916111696107c3565b849083611910565b600061117c8461090c565b9050336001600160a01b038316146111ec576001600160a01b038216600090815260046020908152604080832033845290915290205460001981146111ea576111c582826122e7565b6001600160a01b03841660009081526004602090815260408083203384529091529020555b505b60115460ff166111ff576111ff84611d9c565b6112098282611e8c565b60408051858152602081018390526001600160a01b03808516929086169133917ffbde797d201c681b91056529119e0b02407c7bb96a4a2c75c01fc9667232c8db910160405180910390a46108986001600160a01b037f0000000000000000000000000000000000000000000000000000000000000000168486611eee565b60008080805b6009548110156113c957600b81815481106112ab576112ab61239f565b6000918252602090912001546040516370a0823160e01b81523060048201526001600160a01b03909116906370a0823190602401602060405180830381865afa1580156112fc573d6000803e3d6000fd5b505050506040513d601f19601f8201168201806040525081019061132091906122fe565b9150600b81815481106113355761133561239f565b6000918252602090912001546040516303d1689d60e11b8152600481018490526001600160a01b03909116906307a2d13a90602401602060405180830381865afa158015611387573d6000803e3d6000fd5b505050506040513d601f19601f820116820180604052508101906113ab91906122fe565b6113b5908461235c565b9250806113c181612341565b91505061128e565b506010546113d790836119ee565b6113e1908361235c565b9250505090565b60006113f2610a36565b336001600160a01b03831614611460576001600160a01b0382166000908152600460209081526040808320338452909152902054600019811461145e5761143985826122e7565b6001600160a01b03841660009081526004602090815260408083203384529091529020555b505b61146984610e3f565b9050806114a65760405162461bcd60e51b815260206004820152600b60248201526a5a45524f5f41535345545360a81b6044820152606401610e9b565b60115460ff166114b9576114b981611d9c565b6114c38285611e8c565b60408051828152602081018690526001600160a01b03808516929086169133917ffbde797d201c681b91056529119e0b02407c7bb96a4a2c75c01fc9667232c8db910160405180910390a46108986001600160a01b037f0000000000000000000000000000000000000000000000000000000000000000168483611eee565b600780546107f190612296565b600254600090801561089657610891816115676107c3565b8591906118f1565b600680546107f190612296565b60606012805480602002602001604051908101604052809291908181526020016000905b8282101561164c5783829060005260206000200180546115bf90612296565b80601f01602080910402602001604051908101604052809291908181526020018280546115eb90612296565b80156116385780601f1061160d57610100808354040283529160200191611638565b820191906000526020600020905b81548152906001019060200180831161161b57829003601f168201915b5050505050815260200190600101906115a0565b50505050905090565b6001600160a01b03811660009081526003602052604081205461090690610872565b428410156116c75760405162461bcd60e51b815260206004820152601760248201527f5045524d49545f444541444c494e455f455850495245440000000000000000006044820152606401610e9b565b600060016116d3610c07565b6001600160a01b038a811660008181526005602090815260409182902080546001810190915582517f6e71edae12b1b97f4d1f60370fef10105fa2faae0126114a169c64845d6126c98184015280840194909452938d166060840152608083018c905260a083019390935260c08083018b90528151808403909101815260e08301909152805192019190912061190160f01b6101008301526101028201929092526101228101919091526101420160408051601f198184030181528282528051602091820120600084529083018083525260ff871690820152606081018590526080810184905260a0016020604051602081039080840390855afa1580156117df573d6000803e3d6000fd5b5050604051601f1901519150506001600160a01b038116158015906118155750876001600160a01b0316816001600160a01b0316145b6118525760405162461bcd60e51b815260206004820152600e60248201526d24a72b20a624a22fa9a4a3a722a960911b6044820152606401610e9b565b6001600160a01b0390811660009081526004602090815260408083208a8516808552908352928190208990555188815291928a16917f8c5be1e5ebec7d5bd14f71427d1e84f3dd0314c0f7b2291e5b200ac8c7c3b925910160405180910390a350505050505050565b60006107d87f0000000000000000000000000000000000000000000000000000000000000000611152565b60006109068261154f565b82820281151584158583048514171661190957600080fd5b0492915050565b82820281151584158583048514171661192857600080fd5b6001826001830304018115150290509392505050565b6000600160801b821061195057600080fd5b5090565b60007f8b73c3c69bb8fe3d512ecc4cf759cc79239f7b179b0ffacaa9a75d522b39400f600060405161198691906123b5565b6040805191829003822060208301939093528101919091527fc89efdaa54c0f20c7adf612882df0950f5a951637e0307cdcb4c672f298b8bc660608201524660808201523060a082015260c00160405160208183030381529060405280519060200120905090565b60006108988383670de0b6b3a76400006118f1565b60006040516323b872dd60e01b81528460048201528360248201528260448201526020600060648360008a5af13d15601f3d1160016000511416171691505080611a865760405162461bcd60e51b81526020600482015260146024820152731514905394d1915497d19493d357d1905253115160621b6044820152606401610e9b565b5050505050565b60008060005b600954811015611d3c57600b8181548110611ab057611ab061239f565b600091825260209091200154600a80546001600160a01b03909216935083916307a2d13a91611b1d9185908110611ae957611ae961239f565b60009182526020909120015487907f00000000000000000000000000000000000000000000000000000000000000006118f1565b6040518263ffffffff1660e01b8152600401611b3b91815260200190565b602060405180830381865afa158015611b58573d6000803e3d6000fd5b505050506040513d601f19601f82011682018060405250810190611b7c91906122fe565b9250611bd3600b8281548110611b9457611b9461239f565b6000918252602090912001546001600160a01b037f00000000000000000000000000000000000000000000000000000000000000008116911685611f66565b60405163402d267d60e01b81523060048201526001600160a01b0383169063402d267d90602401602060405180830381865afa158015611c17573d6000803e3d6000fd5b505050506040513d601f19601f82011682018060405250810190611c3b91906122fe565b831115611c775760405162461bcd60e51b815260206004820152600a602482015269135a5b9d08131a5b5a5d60b21b6044820152606401610e9b565b604051636e553f6560e01b8152600481018490523060248201526000906001600160a01b03841690636e553f65906044016020604051808303816000875af1158015611cc7573d6000803e3d6000fd5b505050506040513d601f19601f82011682018060405250810190611ceb91906122fe565b1015611d2a5760405162461bcd60e51b815260206004820152600e60248201526d11985a5b19590811195c1bdcda5d60921b6044820152606401610e9b565b80611d3481612341565b915050611a93565b50505050565b8060026000828254611d54919061235c565b90915550506001600160a01b03821660008181526003602090815260408083208054860190555184815260008051602061245283398151915291015b60405180910390a35050565b6000805b600954811015611e8757611dda600a8281548110611dc057611dc061239f565b9060005260206000200154846119ee90919063ffffffff16565b9150600b8181548110611def57611def61239f565b600091825260209091200154604051632d182be560e21b815260048101849052306024820181905260448201526001600160a01b039091169063b460af94906064016020604051808303816000875af1158015611e50573d6000803e3d6000fd5b505050506040513d601f19601f82011682018060405250810190611e7491906122fe565b5080611e7f81612341565b915050611da0565b505050565b6001600160a01b03821660009081526003602052604081208054839290611eb49084906122e7565b90915550506002805482900390556040518181526000906001600160a01b0384169060008051602061245283398151915290602001611d90565b600060405163a9059cbb60e01b8152836004820152826024820152602060006044836000895af13d15601f3d1160016000511416171691505080611d3c5760405162461bcd60e51b815260206004820152600f60248201526e1514905394d1915497d19052531151608a1b6044820152606401610e9b565b600060405163095ea7b360e01b8152836004820152826024820152602060006044836000895af13d15601f3d1160016000511416171691505080611d3c5760405162461bcd60e51b815260206004820152600e60248201526d1054141493d59157d1905253115160921b6044820152606401610e9b565b6000815180845260005b8181101561200357602081850181015186830182015201611fe7565b81811115612015576000602083870101525b50601f01601f19169290920160200192915050565b6020815260006108986020830184611fdd565b60006020828403121561204f57600080fd5b5035919050565b80356001600160a01b038116811461206d57600080fd5b919050565b6000806040838503121561208557600080fd5b61208e83612056565b946020939093013593505050565b6000806000606084860312156120b157600080fd5b6120ba84612056565b92506120c860208501612056565b9150604084013590509250925092565b6000602082840312156120ea57600080fd5b61089882612056565b6000806040838503121561210657600080fd5b8235915061211660208401612056565b90509250929050565b60008060006060848603121561213457600080fd5b8335925061214460208501612056565b915061215260408501612056565b90509250925092565b6000602080830181845280855180835260408601915060408160051b870101925083870160005b828110156121b057603f1988860301845261219e858351611fdd565b94509285019290850190600101612182565b5092979650505050505050565b600080604083850312156121d057600080fd5b6121d983612056565b9150602083013580151581146121ee57600080fd5b809150509250929050565b600080600080600080600060e0888a03121561221457600080fd5b61221d88612056565b965061222b60208901612056565b95506040880135945060608801359350608088013560ff8116811461224f57600080fd5b9699959850939692959460a0840135945060c09093013592915050565b6000806040838503121561227f57600080fd5b61228883612056565b915061211660208401612056565b600181811c908216806122aa57607f821691505b602082108114156122cb57634e487b7160e01b600052602260045260246000fd5b50919050565b634e487b7160e01b600052601160045260246000fd5b6000828210156122f9576122f96122d1565b500390565b60006020828403121561231057600080fd5b5051919050565b634e487b7160e01b600052601260045260246000fd5b60008261233c5761233c612317565b500690565b6000600019821415612355576123556122d1565b5060010190565b6000821982111561236f5761236f6122d1565b500190565b600081612383576123836122d1565b506000190190565b60008261239a5761239a612317565b500490565b634e487b7160e01b600052603260045260246000fd5b600080835481600182811c9150808316806123d157607f831692505b60208084108214156123f157634e487b7160e01b86526022600452602486fd5b818015612405576001811461241657612443565b60ff19861689528489019650612443565b60008a81526020902060005b8681101561243b5781548b820152908501908301612422565b505084890196505b50949897505050505050505056feddf252ad1be2c89b69c2b068fc378daa952ba7f163c4a11628f55a4df523b3efa264697066735822122088b98cf91fad34b91c2e9ffa9df6ba4ec5427062e264e7e2e6077bd16a922fa064736f6c634300080a0033",
  "linkReferences": {},
  "deployedLinkReferences": {}
}