{
  "_format": "hh-sol-artifact-1",
  "contractName": "BoundedDerivativesPool",
  "sourceName": "src/amm.sol",
  "abi": [
    {
      "inputs": [
        {
          "internalType": "address",
          "name": "base",
          "type": "address"
        },
        {
          "internalType": "address",
          "name": "trade",
          "type": "address"
        },
        {
          "internalType": "address",
          "name": "s_trade",
          "type": "address"
        },
        {
          "internalType": "bool",
          "name": "_noCallBack",
          "type": "bool"
        }
      ],
      "stateMutability": "nonpayable",
      "type": "constructor"
    },
    {
      "inputs": [],
      "name": "BaseToken",
      "outputs": [
        {
          "internalType": "contract ERC20",
          "name": "",
          "type": "address"
        }
      ],
      "stateMutability": "view",
      "type": "function"
    },
    {
      "inputs": [],
      "name": "TradeToken",
      "outputs": [
        {
          "internalType": "contract ERC20",
          "name": "",
          "type": "address"
        }
      ],
      "stateMutability": "view",
      "type": "function"
    },
    {
      "inputs": [],
      "name": "baseBal",
      "outputs": [
        {
          "internalType": "uint256",
          "name": "",
          "type": "uint256"
        }
      ],
      "stateMutability": "view",
      "type": "function"
    },
    {
      "inputs": [],
      "name": "getTraderPosition",
      "outputs": [],
      "stateMutability": "view",
      "type": "function"
    },
    {
      "inputs": [
        {
          "internalType": "uint16",
          "name": "point",
          "type": "uint16"
        },
        {
          "internalType": "bool",
          "name": "isLong",
          "type": "bool"
        },
        {
          "internalType": "address",
          "name": "recipient",
          "type": "address"
        }
      ],
      "name": "makerClaimClose",
      "outputs": [
        {
          "internalType": "uint256",
          "name": "claimedAmount",
          "type": "uint256"
        }
      ],
      "stateMutability": "nonpayable",
      "type": "function"
    },
    {
      "inputs": [
        {
          "internalType": "uint16",
          "name": "point",
          "type": "uint16"
        },
        {
          "internalType": "bool",
          "name": "isLong",
          "type": "bool"
        },
        {
          "internalType": "address",
          "name": "recipient",
          "type": "address"
        }
      ],
      "name": "makerClaimOpen",
      "outputs": [
        {
          "internalType": "uint256",
          "name": "claimedAmount",
          "type": "uint256"
        }
      ],
      "stateMutability": "nonpayable",
      "type": "function"
    },
    {
      "inputs": [
        {
          "internalType": "uint16",
          "name": "point",
          "type": "uint16"
        },
        {
          "internalType": "uint256",
          "name": "amount",
          "type": "uint256"
        },
        {
          "internalType": "bool",
          "name": "isLong",
          "type": "bool"
        },
        {
          "internalType": "address",
          "name": "recipient",
          "type": "address"
        }
      ],
      "name": "makerClose",
      "outputs": [
        {
          "internalType": "uint256",
          "name": "toEscrowAmount",
          "type": "uint256"
        },
        {
          "internalType": "uint128",
          "name": "crossId",
          "type": "uint128"
        }
      ],
      "stateMutability": "nonpayable",
      "type": "function"
    },
    {
      "inputs": [
        {
          "internalType": "uint16",
          "name": "point",
          "type": "uint16"
        },
        {
          "internalType": "uint256",
          "name": "amount",
          "type": "uint256"
        },
        {
          "internalType": "bool",
          "name": "isLong",
          "type": "bool"
        },
        {
          "internalType": "address",
          "name": "recipient",
          "type": "address"
        }
      ],
      "name": "makerOpen",
      "outputs": [
        {
          "internalType": "uint256",
          "name": "toEscrowAmount",
          "type": "uint256"
        },
        {
          "internalType": "uint128",
          "name": "crossId",
          "type": "uint128"
        }
      ],
      "stateMutability": "nonpayable",
      "type": "function"
    },
    {
      "inputs": [
        {
          "internalType": "uint16",
          "name": "point",
          "type": "uint16"
        },
        {
          "internalType": "bool",
          "name": "isLong",
          "type": "bool"
        },
        {
          "internalType": "bool",
          "name": "open",
          "type": "bool"
        },
        {
          "internalType": "address",
          "name": "recipient",
          "type": "address"
        }
      ],
      "name": "makerPartiallyClaim",
      "outputs": [
        {
          "internalType": "uint256",
          "name": "baseAmount",
          "type": "uint256"
        },
        {
          "internalType": "uint256",
          "name": "tradeAmount",
          "type": "uint256"
        }
      ],
      "stateMutability": "nonpayable",
      "type": "function"
    },
    {
      "inputs": [
        {
          "internalType": "uint16",
          "name": "point",
          "type": "uint16"
        },
        {
          "internalType": "uint256",
          "name": "amount",
          "type": "uint256"
        },
        {
          "internalType": "bool",
          "name": "isLong",
          "type": "bool"
        },
        {
          "internalType": "address",
          "name": "recipient",
          "type": "address"
        }
      ],
      "name": "makerReduceClose",
      "outputs": [],
      "stateMutability": "nonpayable",
      "type": "function"
    },
    {
      "inputs": [
        {
          "internalType": "uint16",
          "name": "point",
          "type": "uint16"
        },
        {
          "internalType": "uint256",
          "name": "amount",
          "type": "uint256"
        },
        {
          "internalType": "bool",
          "name": "isLong",
          "type": "bool"
        },
        {
          "internalType": "address",
          "name": "recipient",
          "type": "address"
        }
      ],
      "name": "makerReduceOpen",
      "outputs": [],
      "stateMutability": "nonpayable",
      "type": "function"
    },
    {
      "inputs": [],
      "name": "maxPrice",
      "outputs": [
        {
          "internalType": "uint256",
          "name": "",
          "type": "uint256"
        }
      ],
      "stateMutability": "view",
      "type": "function"
    },
    {
      "inputs": [],
      "name": "pool",
      "outputs": [
        {
          "internalType": "contract GranularBondingCurve",
          "name": "",
          "type": "address"
        }
      ],
      "stateMutability": "view",
      "type": "function"
    },
    {
      "inputs": [
        {
          "internalType": "uint16",
          "name": "pointLower",
          "type": "uint16"
        },
        {
          "internalType": "uint16",
          "name": "pointUpper",
          "type": "uint16"
        },
        {
          "internalType": "uint128",
          "name": "amount",
          "type": "uint128"
        },
        {
          "internalType": "bytes",
          "name": "data",
          "type": "bytes"
        }
      ],
      "name": "provideLiquidity",
      "outputs": [],
      "stateMutability": "nonpayable",
      "type": "function"
    },
    {
      "inputs": [],
      "name": "s_tradeToken",
      "outputs": [
        {
          "internalType": "contract ERC20",
          "name": "",
          "type": "address"
        }
      ],
      "stateMutability": "view",
      "type": "function"
    },
    {
      "inputs": [
        {
          "internalType": "bool",
          "name": "isLong",
          "type": "bool"
        },
        {
          "internalType": "int256",
          "name": "amountIn",
          "type": "int256"
        },
        {
          "internalType": "uint256",
          "name": "priceLimit",
          "type": "uint256"
        },
        {
          "internalType": "bytes",
          "name": "data",
          "type": "bytes"
        }
      ],
      "name": "takerClose",
      "outputs": [
        {
          "internalType": "uint256",
          "name": "poolamountIn",
          "type": "uint256"
        },
        {
          "internalType": "uint256",
          "name": "poolamountOut",
          "type": "uint256"
        }
      ],
      "stateMutability": "nonpayable",
      "type": "function"
    },
    {
      "inputs": [
        {
          "internalType": "bool",
          "name": "isLong",
          "type": "bool"
        },
        {
          "internalType": "int256",
          "name": "amountIn",
          "type": "int256"
        },
        {
          "internalType": "uint256",
          "name": "priceLimit",
          "type": "uint256"
        },
        {
          "internalType": "bytes",
          "name": "data",
          "type": "bytes"
        }
      ],
      "name": "takerOpen",
      "outputs": [
        {
          "internalType": "uint256",
          "name": "poolamountIn",
          "type": "uint256"
        },
        {
          "internalType": "uint256",
          "name": "poolamountOut",
          "type": "uint256"
        }
      ],
      "stateMutability": "nonpayable",
      "type": "function"
    },
    {
      "inputs": [
        {
          "internalType": "uint16",
          "name": "pointLower",
          "type": "uint16"
        },
        {
          "internalType": "uint16",
          "name": "pointUpper",
          "type": "uint16"
        },
        {
          "internalType": "uint128",
          "name": "amount",
          "type": "uint128"
        },
        {
          "internalType": "bytes",
          "name": "data",
          "type": "bytes"
        }
      ],
      "name": "withdrawLiquidity",
      "outputs": [],
      "stateMutability": "nonpayable",
      "type": "function"
    }
  ],
  "bytecode": "0x60a06040523480156200001157600080fd5b506040516200798138038062007981833981016040819052620000349162000161565b600080546001600160a01b038087166001600160a01b03199283161790925560018054868416908316179055600280549285169290911691909117905560405184908490620000839062000136565b6001600160a01b03928316815291166020820152604001604051809103906000f080158015620000b7573d6000803e3d6000fd5b50600380546001600160a01b0319166001600160a01b0392909216918217905560405163215e294960e11b81523060048201526342bc529290602401600060405180830381600087803b1580156200010e57600080fd5b505af115801562000123573d6000803e3d6000fd5b50505050151560805250620001c4915050565b614014806200396d83390190565b80516001600160a01b03811681146200015c57600080fd5b919050565b600080600080608085870312156200017857600080fd5b620001838562000144565b9350620001936020860162000144565b9250620001a36040860162000144565b915060608501518015158114620001b957600080fd5b939692955090935050565b608051613778620001f56000396000818161060b0152818161085401528181610cc50152610e9d01526137786000f3fe608060405234801561001057600080fd5b50600436106101165760003560e01c806390f81702116100a2578063ba52fe6111610071578063ba52fe61146101c2578063df99f8bf14610266578063e38d6b5c14610279578063e7ca189a14610288578063f0bb81b31461029b57600080fd5b806390f817021461021a578063957343f01461022d5780639c9d7d3f14610240578063a1217e7d1461025357600080fd5b8063244d59cb116100e9578063244d59cb1461019c5780634970aa88146101af578063556769ba146101c4578063578c8579146101d757806368087cc3146101ea57600080fd5b8063082167121461011b57806308ef2b4c1461014857806310f222211461015e57806316f0115b14610189575b600080fd5b61012e6101293660046131ad565b6102ae565b604080519283526020830191909152015b60405180910390f35b61015061050e565b60405190815260200161013f565b600254610171906001600160a01b031681565b6040516001600160a01b03909116815260200161013f565b600354610171906001600160a01b031681565b61012e6101aa366004613250565b610580565b6101c26101bd3660046132cf565b6109b9565b005b61012e6101d2366004613250565b610b23565b6101c26101e53660046132cf565b610ef4565b6101fd6101f836600461332a565b6110c8565b604080519283526001600160801b0390911660208301520161013f565b600054610171906001600160a01b031681565b6101c261023b36600461332a565b611741565b6101c261024e36600461332a565b611cfe565b610150610261366004613360565b61211f565b600154610171906001600160a01b031681565b610150670de0b6b3a764000081565b6101fd61029636600461332a565b6124fe565b6101506102a9366004613360565b61292a565b600080831561037357841561033e576003546040516332530d7f60e01b81526001600160a01b03909116906332530d7f906102f29086908a906000906004016133a9565b60408051808303816000875af1158015610310573d6000803e3d6000fd5b505050506040513d601f19601f8201168201806040525081019061033491906133d0565b909250905061042b565b6003546040516332530d7f60e01b81526001600160a01b03909116906332530d7f906102f29086908a906001906004016133a9565b84156103ae576003546040516332530d7f60e01b81526001600160a01b03909116906332530d7f906102f29086908a906001906004016133a9565b6003546040516332530d7f60e01b81526001600160a01b03909116906332530d7f906103e39086908a906000906004016133a9565b60408051808303816000875af1158015610401573d6000803e3d6000fd5b505050506040513d601f19601f8201168201806040525081019061042591906133d0565b90925090505b60005460405163a9059cbb60e01b81526001600160a01b039091169063a9059cbb9061045d90869086906004016133f4565b6020604051808303816000875af115801561047c573d6000803e3d6000fd5b505050506040513d601f19601f820116820180604052508101906104a0919061340d565b506001546040516340c10f1960e01b81526001600160a01b03909116906340c10f19906104d390869085906004016133f4565b600060405180830381600087803b1580156104ed57600080fd5b505af1158015610501573d6000803e3d6000fd5b5050505094509492505050565b600080546040516370a0823160e01b81523060048201526001600160a01b03909116906370a0823190602401602060405180830381865afa158015610557573d6000803e3d6000fd5b505050506040513d601f19601f8201168201806040525081019061057b919061342a565b905090565b600080861561076a57600354604051624b204560e01b81526001600160a01b0390911690624b2045906105c29033906001908b908b908b908b9060040161346c565b60408051808303816000875af11580156105e0573d6000803e3d6000fd5b505050506040513d601f19601f8201168201806040525081019061060491906133d0565b90925090507f0000000000000000000000000000000000000000000000000000000000000000156106415761063c3382846001612cbd565b6109af565b600061064b61050e565b604051636d29069f60e11b8152909150339063da520d3e90610675908690899089906004016134ae565b600060405180830381600087803b15801561068f57600080fd5b505af11580156106a3573d6000803e3d6000fd5b5050505080836106b391906134e7565b6106bb61050e565b10156106f75760405162461bcd60e51b81526020600482015260066024820152653130b622a92960d11b60448201526064015b60405180910390fd5b6001546001600160a01b03166340c10f19610714868801886134ff565b846040518363ffffffff1660e01b81526004016107329291906133f4565b600060405180830381600087803b15801561074c57600080fd5b505af1158015610760573d6000803e3d6000fd5b50505050506109af565b600354604051624b204560e01b81526001600160a01b0390911690624b2045906107a39030906000908b908b908b908b9060040161346c565b60408051808303816000875af11580156107c1573d6000803e3d6000fd5b505050506040513d601f19601f820116820180604052508101906107e591906133d0565b6040805180820190915260098152681cda1bdc9d1a5b99cb60ba1b602082015291935091506108329083838061082383670de0b6b3a7640000612e43565b61082d919061351c565b612e58565b808061084684670de0b6b3a7640000612e43565b610850919061351c565b91507f00000000000000000000000000000000000000000000000000000000000000001561088a576108853384846000612cbd565b6109ad565b600061089461050e565b604051636d29069f60e11b8152909150339063da520d3e906108be9086908a908a906004016134ae565b600060405180830381600087803b1580156108d857600080fd5b505af11580156108ec573d6000803e3d6000fd5b5050505080836108fc91906134e7565b61090461050e565b101561093b5760405162461bcd60e51b81526020600482015260066024820152653130b622a92960d11b60448201526064016106ee565b6002546001600160a01b03166340c10f19610958878901896134ff565b866040518363ffffffff1660e01b81526004016109769291906133f4565b600060405180830381600087803b15801561099057600080fd5b505af11580156109a4573d6000803e3d6000fd5b50505050819350505b505b9550959350505050565b600354604051632bc34def60e21b815260009182916001600160a01b039091169063af0d37bc906109f89033908b908b908b908b908b90600401613533565b60408051808303816000875af1158015610a16573d6000803e3d6000fd5b505050506040513d601f19601f82011682018060405250810190610a3a91906133d0565b6000546040516323b872dd60e01b81529294509092506001600160a01b0316906323b872dd90610a7290339030908790600401613579565b6020604051808303816000875af1158015610a91573d6000803e3d6000fd5b505050506040513d601f19601f82011682018060405250810190610ab5919061340d565b50600154604051632770a7eb60e21b81526001600160a01b0390911690639dc29fac90610ae890339085906004016133f4565b600060405180830381600087803b158015610b0257600080fd5b505af1158015610b16573d6000803e3d6000fd5b5050505050505050505050565b6000808615610d0e57600354604051624b204560e01b81526001600160a01b0390911690624b204590610b659033906000908b908b908b908b9060040161346c565b60408051808303816000875af1158015610b83573d6000803e3d6000fd5b505050506040513d601f19601f82011682018060405250810190610ba791906133d0565b6040805180820182526013815272746f206275726e20616e642062616c616e636560681b602082015260015491516370a0823160e01b8152336004820152939550919350610c4b9285916001600160a01b0316906370a08231906024015b602060405180830381865afa158015610c22573d6000803e3d6000fd5b505050506040513d601f19601f82011682018060405250810190610c46919061342a565b612ea1565b6000546040516370a0823160e01b8152306004820152610cc39183916001600160a01b03909116906370a08231906024015b602060405180830381865afa158015610c9a573d6000803e3d6000fd5b505050506040513d601f19601f82011682018060405250810190610cbe919061342a565b612eed565b7f000000000000000000000000000000000000000000000000000000000000000015610cf65761063c3382846001612f37565b61063c610d05848601866134ff565b82846001612f37565b600354604051624b204560e01b81526001600160a01b0390911690624b204590610d479033906001908b908b908b908b9060040161346c565b60408051808303816000875af1158015610d65573d6000803e3d6000fd5b505050506040513d601f19601f82011682018060405250810190610d8991906133d0565b6040805180820182526013815272746f206275726e20616e642062616c616e636560681b602082015260025491516370a0823160e01b8152336004820152939550919350610e2b92859185916001600160a01b03909116906370a0823190602401602060405180830381865afa158015610e07573d6000803e3d6000fd5b505050506040513d601f19601f8201168201806040525081019061082d919061342a565b610e7b82610e4183670de0b6b3a7640000612e43565b610e4b919061351c565b6000546040516370a0823160e01b81523060048201526001600160a01b03909116906370a0823190602401610c7d565b8180610e8f83670de0b6b3a7640000612e43565b610e99919061351c565b92507f000000000000000000000000000000000000000000000000000000000000000015610ece576108853384846000612f37565b610ee6610edd858701876134ff565b84846000612f37565b809150509550959350505050565b600354604051633f8ecd7360e11b815233600482015261ffff8088166024830152861660448201526001600160801b038516606482015260009182916001600160a01b0390911690637f1d9ae69060840160408051808303816000875af1158015610f63573d6000803e3d6000fd5b505050506040513d601f19601f82011682018060405250810190610f8791906133d0565b6003546040516304c5e62b60e11b815233600482015261ffff808c1660248301528a1660448201526001600160801b036064820181905260848201529294509092506001600160a01b03169063098bcc569060a40160408051808303816000875af1158015610ffa573d6000803e3d6000fd5b505050506040513d601f19601f8201168201806040525081019061101e91906133d0565b505060005460405163a9059cbb60e01b81526001600160a01b039091169063a9059cbb9061105290339086906004016133f4565b6020604051808303816000875af1158015611071573d6000803e3d6000fd5b505050506040513d601f19601f82011682018060405250810190611095919061340d565b506001546040516340c10f1960e01b81526001600160a01b03909116906340c10f1990610ae890339085906004016133f4565b6000808315611338576003546001600160a01b0316632130ce0d84888363e7c3614f81638ce269996110fb85600161359d565b6040516001600160e01b031960e084901b16815261ffff9091166004820152602401602060405180830381865afa15801561113a573d6000803e3d6000fd5b505050506040513d601f19601f8201168201806040525081019061115e91906135c3565b600354604051638ce2699960e01b815261ffff8f1660048201526001600160a01b0390911690638ce2699990602401602060405180830381865afa1580156111aa573d6000803e3d6000fd5b505050506040513d601f19601f820116820180604052508101906111ce91906135c3565b8c6040518463ffffffff1660e01b81526004016111ed93929190613579565b602060405180830381865afa15801561120a573d6000803e3d6000fd5b505050506040513d601f19601f8201168201806040525081019061122e919061342a565b60006040518563ffffffff1660e01b815260040161124f94939291906135e0565b60408051808303816000875af115801561126d573d6000803e3d6000fd5b505050506040513d601f19601f820116820180604052508101906112919190613615565b6040805180820190915260058152643432b9329f60d91b602082015291935091506112bb906130d7565b6000546040516323b872dd60e01b81526001600160a01b03909116906323b872dd906112ef90869030908790600401613579565b6020604051808303816000875af115801561130e573d6000803e3d6000fd5b505050506040513d601f19601f82011682018060405250810190611332919061340d565b50611738565b6003546001600160a01b0316632130ce0d84888363b04a69fd81638ce2699961136285600161359d565b6040516001600160e01b031960e084901b16815261ffff9091166004820152602401602060405180830381865afa1580156113a1573d6000803e3d6000fd5b505050506040513d601f19601f820116820180604052508101906113c591906135c3565b600354604051638ce2699960e01b815261ffff8f1660048201526001600160a01b0390911690638ce2699990602401602060405180830381865afa158015611411573d6000803e3d6000fd5b505050506040513d601f19601f8201168201806040525081019061143591906135c3565b8c6040518463ffffffff1660e01b815260040161145493929190613579565b602060405180830381865afa158015611471573d6000803e3d6000fd5b505050506040513d601f19601f82011682018060405250810190611495919061342a565b60016040518563ffffffff1660e01b81526004016114b694939291906135e0565b60408051808303816000875af11580156114d4573d6000803e3d6000fd5b505050506040513d601f19601f820116820180604052508101906114f89190613615565b60035491935091506000906001600160a01b031663f9734a2481638ce269996115228b600161359d565b6040516001600160e01b031960e084901b16815261ffff9091166004820152602401602060405180830381865afa158015611561573d6000803e3d6000fd5b505050506040513d601f19601f8201168201806040525081019061158591906135c3565b600354604051638ce2699960e01b815261ffff8c1660048201526001600160a01b0390911690638ce2699990602401602060405180830381865afa1580156115d1573d6000803e3d6000fd5b505050506040513d601f19601f820116820180604052508101906115f591906135c3565b896040518463ffffffff1660e01b815260040161161493929190613579565b602060405180830381865afa158015611631573d6000803e3d6000fd5b505050506040513d601f19601f82011682018060405250810190611655919061342a565b61165f908461351c565b6000546040516323b872dd60e01b81529192506001600160a01b0316906323b872dd9061169490879030908690600401613579565b6020604051808303816000875af11580156116b3573d6000803e3d6000fd5b505050506040513d601f19601f820116820180604052508101906116d7919061340d565b5060408051808201825260058152641c1bda5b9d60da1b60208201526003549151634a3ca71760e01b815261ffff8a1660048201819052600160248301526117359390916001600160a01b0390911690634a3ca71790604401610c05565b91505b94509492505050565b8115611990576003546000906001600160a01b0316631376ff3e83876118af8463e7c3614f81638ce2699961177786600161359d565b6040516001600160e01b031960e084901b16815261ffff9091166004820152602401602060405180830381865afa1580156117b6573d6000803e3d6000fd5b505050506040513d601f19601f820116820180604052508101906117da91906135c3565b600354604051638ce2699960e01b815261ffff8f1660048201526001600160a01b0390911690638ce2699990602401602060405180830381865afa158015611826573d6000803e3d6000fd5b505050506040513d601f19601f8201168201806040525081019061184a91906135c3565b8c6040518463ffffffff1660e01b815260040161186993929190613579565b602060405180830381865afa158015611886573d6000803e3d6000fd5b505050506040513d601f19601f820116820180604052508101906118aa919061342a565b61311d565b60006040518563ffffffff1660e01b81526004016118d094939291906135e0565b6020604051808303816000875af11580156118ef573d6000803e3d6000fd5b505050506040513d601f19601f82011682018060405250810190611913919061342a565b60005460405163a9059cbb60e01b81529192506001600160a01b03169063a9059cbb9061194690859085906004016133f4565b6020604051808303816000875af1158015611965573d6000803e3d6000fd5b505050506040513d601f19601f82011682018060405250810190611989919061340d565b5050611cf8565b600354600090611aab906001600160a01b031663b04a69fd81638ce269996119b98a600161359d565b6040516001600160e01b031960e084901b16815261ffff9091166004820152602401602060405180830381865afa1580156119f8573d6000803e3d6000fd5b505050506040513d601f19601f82011682018060405250810190611a1c91906135c3565b600354604051638ce2699960e01b815261ffff8b1660048201526001600160a01b0390911690638ce2699990602401602060405180830381865afa158015611a68573d6000803e3d6000fd5b505050506040513d601f19601f82011682018060405250810190611a8c91906135c3565b886040518463ffffffff1660e01b815260040161186993929190613579565b6003546040516309bb7f9f60e11b81529192506001600160a01b031690631376ff3e90611ae3908590899086906001906004016135e0565b6020604051808303816000875af1158015611b02573d6000803e3d6000fd5b505050506040513d601f19601f82011682018060405250810190611b26919061342a565b506000546003546001600160a01b039182169163a9059cbb9185911663f9734a2481638ce26999611b588c600161359d565b6040516001600160e01b031960e084901b16815261ffff9091166004820152602401602060405180830381865afa158015611b97573d6000803e3d6000fd5b505050506040513d601f19601f82011682018060405250810190611bbb91906135c3565b600354604051638ce2699960e01b815261ffff8d1660048201526001600160a01b0390911690638ce2699990602401602060405180830381865afa158015611c07573d6000803e3d6000fd5b505050506040513d601f19601f82011682018060405250810190611c2b91906135c3565b876040518463ffffffff1660e01b8152600401611c4a93929190613645565b602060405180830381865afa158015611c67573d6000803e3d6000fd5b505050506040513d601f19601f82011682018060405250810190611c8b919061342a565b611c95908861351c565b6040518363ffffffff1660e01b8152600401611cb29291906133f4565b6020604051808303816000875af1158015611cd1573d6000803e3d6000fd5b505050506040513d601f19601f82011682018060405250810190611cf5919061340d565b50505b50505050565b8115611f13576003546000906001600160a01b0316631376ff3e8387611e448463b04a69fd81638ce26999611d3486600161359d565b6040516001600160e01b031960e084901b16815261ffff9091166004820152602401602060405180830381865afa158015611d73573d6000803e3d6000fd5b505050506040513d601f19601f82011682018060405250810190611d9791906135c3565b600354604051638ce2699960e01b815261ffff8f1660048201526001600160a01b039283169290911690638ce2699990602401602060405180830381865afa158015611de7573d6000803e3d6000fd5b505050506040513d601f19601f82011682018060405250810190611e0b91906135c3565b6040516001600160e01b031960e085901b16815260048101929092526001600160a01b03166024820152604481018c9052606401611869565b60016040518563ffffffff1660e01b8152600401611e6594939291906135e0565b6020604051808303816000875af1158015611e84573d6000803e3d6000fd5b505050506040513d601f19601f82011682018060405250810190611ea8919061342a565b6001546040516340c10f1960e01b81529192506001600160a01b0316906340c10f1990611edb90859085906004016133f4565b600060405180830381600087803b158015611ef557600080fd5b505af1158015611f09573d6000803e3d6000fd5b5050505050611cf8565b6003546001600160a01b0316631376ff3e82866120508463b04a69fd81638ce26999611f4086600161359d565b6040516001600160e01b031960e084901b16815261ffff9091166004820152602401602060405180830381865afa158015611f7f573d6000803e3d6000fd5b505050506040513d601f19601f82011682018060405250810190611fa391906135c3565b600354604051638ce2699960e01b815261ffff8e1660048201526001600160a01b039283169290911690638ce2699990602401602060405180830381865afa158015611ff3573d6000803e3d6000fd5b505050506040513d601f19601f8201168201806040525081019061201791906135c3565b6040516001600160e01b031960e085901b16815260048101929092526001600160a01b03166024820152604481018b9052606401611869565b60006040518563ffffffff1660e01b815260040161207194939291906135e0565b6020604051808303816000875af1158015612090573d6000803e3d6000fd5b505050506040513d601f19601f820116820180604052508101906120b4919061342a565b506002546040516340c10f1960e01b81526001600160a01b03909116906340c10f19906120e790849087906004016133f4565b600060405180830381600087803b15801561210157600080fd5b505af1158015612115573d6000803e3d6000fd5b5050505050505050565b6000821561221b576003546040516342b6c9fb60e01b81526001600160a01b03909116906342b6c9fb9061215c90859088906001906004016133a9565b6020604051808303816000875af115801561217b573d6000803e3d6000fd5b505050506040513d601f19601f8201168201806040525081019061219f919061342a565b60005460405163a9059cbb60e01b81529192506001600160a01b03169063a9059cbb906121d290859085906004016133f4565b6020604051808303816000875af11580156121f1573d6000803e3d6000fd5b505050506040513d601f19601f82011682018060405250810190612215919061340d565b506124f7565b600354604051639b60808960e01b81526000916001600160a01b031690639b60808990612250908690899086906004016133a9565b602060405180830381865afa15801561226d573d6000803e3d6000fd5b505050506040513d601f19601f820116820180604052508101906122919190613671565b6003546040516342b6c9fb60e01b81529192506001600160a01b0316906342b6c9fb906122c790869089906000906004016133a9565b6020604051808303816000875af11580156122e6573d6000803e3d6000fd5b505050506040513d601f19601f8201168201806040525081019061230a919061342a565b6003549092506001600160a01b031663f9734a2481638ce2699961232f89600161359d565b6040516001600160e01b031960e084901b16815261ffff9091166004820152602401602060405180830381865afa15801561236e573d6000803e3d6000fd5b505050506040513d601f19601f8201168201806040525081019061239291906135c3565b600354604051638ce2699960e01b815261ffff8a1660048201526001600160a01b0390911690638ce2699990602401602060405180830381865afa1580156123de573d6000803e3d6000fd5b505050506040513d601f19601f8201168201806040525081019061240291906135c3565b846040518463ffffffff1660e01b815260040161242193929190613645565b602060405180830381865afa15801561243e573d6000803e3d6000fd5b505050506040513d601f19601f82011682018060405250810190612462919061342a565b61247483670de0b6b3a7640000612e43565b61247e919061351c565b60005460405163a9059cbb60e01b81529193506001600160a01b03169063a9059cbb906124b190869086906004016133f4565b6020604051808303816000875af11580156124d0573d6000803e3d6000fd5b505050506040513d601f19601f820116820180604052508101906124f4919061340d565b50505b9392505050565b6000808315612734576003546001600160a01b0316632130ce0d84888363b04a69fd81638ce2699961253185600161359d565b6040516001600160e01b031960e084901b16815261ffff9091166004820152602401602060405180830381865afa158015612570573d6000803e3d6000fd5b505050506040513d601f19601f8201168201806040525081019061259491906135c3565b600354604051638ce2699960e01b815261ffff8f1660048201526001600160a01b0390911690638ce2699990602401602060405180830381865afa1580156125e0573d6000803e3d6000fd5b505050506040513d601f19601f8201168201806040525081019061260491906135c3565b8c6040518463ffffffff1660e01b815260040161262393929190613579565b602060405180830381865afa158015612640573d6000803e3d6000fd5b505050506040513d601f19601f82011682018060405250810190612664919061342a565b60016040518563ffffffff1660e01b815260040161268594939291906135e0565b60408051808303816000875af11580156126a3573d6000803e3d6000fd5b505050506040513d601f19601f820116820180604052508101906126c79190613615565b600154604051632770a7eb60e21b81529294509092506001600160a01b031690639dc29fac906126fd90869086906004016133f4565b600060405180830381600087803b15801561271757600080fd5b505af115801561272b573d6000803e3d6000fd5b50505050611738565b6003546001600160a01b0316632130ce0d84888363b04a69fd81638ce2699961275e85600161359d565b6040516001600160e01b031960e084901b16815261ffff9091166004820152602401602060405180830381865afa15801561279d573d6000803e3d6000fd5b505050506040513d601f19601f820116820180604052508101906127c191906135c3565b600354604051638ce2699960e01b815261ffff8f1660048201526001600160a01b0390911690638ce2699990602401602060405180830381865afa15801561280d573d6000803e3d6000fd5b505050506040513d601f19601f8201168201806040525081019061283191906135c3565b8c6040518463ffffffff1660e01b815260040161285093929190613579565b602060405180830381865afa15801561286d573d6000803e3d6000fd5b505050506040513d601f19601f82011682018060405250810190612891919061342a565b60006040518563ffffffff1660e01b81526004016128b294939291906135e0565b60408051808303816000875af11580156128d0573d6000803e3d6000fd5b505050506040513d601f19601f820116820180604052508101906128f49190613615565b600254604051632770a7eb60e21b81529294509092506001600160a01b031690639dc29fac906104d390869089906004016133f4565b60008215612a15576003546040516342b6c9fb60e01b81526000916001600160a01b0316906342b6c9fb90612967908690899086906004016133a9565b6020604051808303816000875af1158015612986573d6000803e3d6000fd5b505050506040513d601f19601f820116820180604052508101906129aa919061342a565b6001546040516340c10f1960e01b81529192506001600160a01b0316906340c10f19906129dd90869085906004016133f4565b600060405180830381600087803b1580156129f757600080fd5b505af1158015612a0b573d6000803e3d6000fd5b50505050506124f7565b6002546003546001600160a01b03918216916340c10f19918591166380c0c3e781638ce26999612a468b600161359d565b6040516001600160e01b031960e084901b16815261ffff9091166004820152602401602060405180830381865afa158015612a85573d6000803e3d6000fd5b505050506040513d601f19601f82011682018060405250810190612aa991906135c3565b600354604051638ce2699960e01b815261ffff8c1660048201526001600160a01b0390911690638ce2699990602401602060405180830381865afa158015612af5573d6000803e3d6000fd5b505050506040513d601f19601f82011682018060405250810190612b1991906135c3565b600354604051639b60808960e01b81526001600160a01b0390911690639b60808990612b4e9033908f906001906004016133a9565b602060405180830381865afa158015612b6b573d6000803e3d6000fd5b505050506040513d601f19601f82011682018060405250810190612b8f9190613671565b6040518463ffffffff1660e01b8152600401612bad93929190613645565b602060405180830381865afa158015612bca573d6000803e3d6000fd5b505050506040513d601f19601f82011682018060405250810190612bee919061342a565b6040518363ffffffff1660e01b8152600401612c0b9291906133f4565b600060405180830381600087803b158015612c2557600080fd5b505af1158015612c39573d6000803e3d6000fd5b50506003546040516342b6c9fb60e01b81526001600160a01b0390911692506342b6c9fb9150612c7290859088906001906004016133a9565b6020604051808303816000875af1158015612c91573d6000803e3d6000fd5b505050506040513d601f19601f82011682018060405250810190612cb5919061342a565b949350505050565b612cf1604051806040016040528060118152602001701b5a5b9d0bdc1d5b1b08185b5bdd5b9d0b607a1b8152508484612ea1565b8015612d60576001546040516340c10f1960e01b81526001600160a01b03909116906340c10f1990612d2990879087906004016133f4565b600060405180830381600087803b158015612d4357600080fd5b505af1158015612d57573d6000803e3d6000fd5b50505050612dc5565b6002546040516340c10f1960e01b81526001600160a01b03909116906340c10f1990612d9290879087906004016133f4565b600060405180830381600087803b158015612dac57600080fd5b505af1158015612dc0573d6000803e3d6000fd5b505050505b6000546040516323b872dd60e01b81526001600160a01b03909116906323b872dd90612df990879030908790600401613579565b6020604051808303816000875af1158015612e18573d6000803e3d6000fd5b505050506040513d601f19601f82011682018060405250810190612e3c919061340d565b5050505050565b60006124f78383670de0b6b3a7640000613138565b611cf884848484604051602401612e7294939291906136db565b60408051601f198184030181529190526020810180516001600160e01b03166304772b3360e11b179052613157565b612ee8838383604051602401612eb99392919061370a565b60408051601f198184030181529190526020810180516001600160e01b031663969cdd0360e01b179052613157565b505050565b6040516024810183905260448101829052612f339060640160408051601f198184030181529190526020810180516001600160e01b031662d81ed360e71b179052613157565b5050565b612f6360405180604001604052806009815260200168185b5bdd5b9d1bdd5d60ba1b8152508385612ea1565b6001546040516370a0823160e01b8152306004820152612fd1916001600160a01b0316906370a0823190602401602060405180830381865afa158015612fad573d6000803e3d6000fd5b505050506040513d601f19601f82011682018060405250810190610e4b919061342a565b801561304057600154604051632770a7eb60e21b81526001600160a01b0390911690639dc29fac9061300990879086906004016133f4565b600060405180830381600087803b15801561302357600080fd5b505af1158015613037573d6000803e3d6000fd5b505050506130a5565b600254604051632770a7eb60e21b81526001600160a01b0390911690639dc29fac9061307290879086906004016133f4565b600060405180830381600087803b15801561308c57600080fd5b505af11580156130a0573d6000803e3d6000fd5b505050505b60005460405163a9059cbb60e01b81526001600160a01b039091169063a9059cbb90612df990879087906004016133f4565b61311a816040516024016130eb919061372f565b60408051601f198184030181529190526020810180516001600160e01b031663104c13eb60e21b179052613157565b50565b806001600160801b038116811461313357600080fd5b919050565b82820281151584158583048514171661315057600080fd5b0492915050565b80516a636f6e736f6c652e6c6f67602083016000808483855afa5050505050565b803561ffff8116811461313357600080fd5b801515811461311a57600080fd5b6001600160a01b038116811461311a57600080fd5b600080600080608085870312156131c357600080fd5b6131cc85613178565b935060208501356131dc8161318a565b925060408501356131ec8161318a565b915060608501356131fc81613198565b939692955090935050565b60008083601f84011261321957600080fd5b50813567ffffffffffffffff81111561323157600080fd5b60208301915083602082850101111561324957600080fd5b9250929050565b60008060008060006080868803121561326857600080fd5b85356132738161318a565b94506020860135935060408601359250606086013567ffffffffffffffff81111561329d57600080fd5b6132a988828901613207565b969995985093965092949392505050565b6001600160801b038116811461311a57600080fd5b6000806000806000608086880312156132e757600080fd5b6132f086613178565b94506132fe60208701613178565b9350604086013561330e816132ba565b9250606086013567ffffffffffffffff81111561329d57600080fd5b6000806000806080858703121561334057600080fd5b61334985613178565b93506020850135925060408501356131ec8161318a565b60008060006060848603121561337557600080fd5b61337e84613178565b9250602084013561338e8161318a565b9150604084013561339e81613198565b809150509250925092565b6001600160a01b0393909316835261ffff9190911660208301521515604082015260600190565b600080604083850312156133e357600080fd5b505080516020909101519092909150565b6001600160a01b03929092168252602082015260400190565b60006020828403121561341f57600080fd5b81516124f78161318a565b60006020828403121561343c57600080fd5b5051919050565b81835281816020850137506000828201602090810191909152601f909101601f19169091010190565b60018060a01b0387168152851515602082015284604082015283606082015260a0608082015260006134a260a083018486613443565b98975050505050505050565b8381526040602082015260006134c8604083018486613443565b95945050505050565b634e487b7160e01b600052601160045260246000fd5b600082198211156134fa576134fa6134d1565b500190565b60006020828403121561351157600080fd5b81356124f781613198565b60008282101561352e5761352e6134d1565b500390565b6001600160a01b038716815261ffff8681166020830152851660408201526001600160801b038416606082015260a0608082018190526000906134a29083018486613443565b6001600160a01b039384168152919092166020820152604081019190915260600190565b600061ffff8083168185168083038211156135ba576135ba6134d1565b01949350505050565b6000602082840312156135d557600080fd5b81516124f781613198565b6001600160a01b0394909416845261ffff9290921660208401526001600160801b031660408301521515606082015260800190565b6000806040838503121561362857600080fd5b82519150602083015161363a816132ba565b809150509250929050565b6001600160a01b0393841681529190921660208201526001600160801b03909116604082015260600190565b60006020828403121561368357600080fd5b81516124f7816132ba565b6000815180845260005b818110156136b457602081850181015186830182015201613698565b818111156136c6576000602083870101525b50601f01601f19169290920160200192915050565b6080815260006136ee608083018761368e565b6020830195909552506040810192909252606090910152919050565b60608152600061371d606083018661368e565b60208301949094525060400152919050565b6020815260006124f7602083018461368e56fea2646970667358221220d949445f7bec66c805a448dcd0ca209614cf70631eff1a1d7f5215078941811e64736f6c634300080a00336101406040523480156200001257600080fd5b5060405162004014380380620040148339810160408190526200003591620000b7565b6001600160a01b0380821660e052821661010052600060a081905260c0819052610120526200006e670de0b6b3a76400006064620000ef565b600280546001600160801b0319166001600160801b03929092169190911790555050336080526200012d565b80516001600160a01b0381168114620000b257600080fd5b919050565b60008060408385031215620000cb57600080fd5b620000d6836200009a565b9150620000e6602084016200009a565b90509250929050565b60006001600160801b03828116848216811515828404821116156200012457634e487b7160e01b600052601160045260246000fd5b02949350505050565b60805160a05160c05160e0516101005161012051613e66620001ae600039600061086c0152600081816108450152818161133001526115e00152600081816108a60152818161135601526116060152600061081e0152600081816108cd0152610dcf01526000818161061301528181611bc801526121a20152613e666000f3fe608060405234801561001057600080fd5b50600436106102945760003560e01c806380c0c3e711610167578063b501c284116100ce578063d83678ac11610087578063d83678ac146108a1578063ddca3f43146108c8578063e37699c914610903578063e7c3614f14610916578063f83d08ba14610929578063f9734a241461093157600080fd5b8063b501c284146106d1578063b9033a39146106e4578063c3e9c98514610806578063c45a015514610819578063c55dae6314610840578063d0c93a7c1461086757600080fd5b8063aaf5eb6811610120578063aaf5eb681461066e578063ad066f9a1461067d578063ae0f28f414610684578063af0d37bc14610698578063b04a69fd146106ab578063b29d9b6e146106be57600080fd5b806380c0c3e7146105e85780638ce26999146105fb5780638da5cb5b1461060e5780639314b03f146106355780639b60808914610648578063a74d74d41461065b57600080fd5b80633850c7bd1161020b578063514ea4bf116101c4578063514ea4bf146104aa5780635bfa896a14610570578063659a544a1461057e57806367f239dd146105875780636ed75596146105b25780637f1d9ae6146105d557600080fd5b80633850c7bd146103c25780633d718da01461042e578063402d44fb1461045e57806342b6c9fb1461047157806342bc5292146104845780634a3ca7171461049757600080fd5b80631a6865021161025d5780631a686502146103105780631d2637ab1461033b5780631dae2436146103445780632130ce0d146103595780632353b18e1461038957806332530d7f146103af57600080fd5b80624b204514610299578063098bcc56146102c657806311e715d6146102d95780631376ff3e146102f4578063159054ea14610307575b600080fd5b6102ac6102a73660046135f2565b610944565b604080519283526020830191909152015b60405180910390f35b6102ac6102d4366004613693565b6110d6565b6001546001600160a01b03165b6040519081526020016102bd565b6102e66103023660046136f8565b6111fb565b6102e661271081565b600254610323906001600160801b031681565b6040516001600160801b0390911681526020016102bd565b6102e660075481565b61035761035236600461374c565b61140d565b005b61036c6103673660046136f8565b611463565b604080519283526001600160801b039091166020830152016102bd565b61039c61039736600461374c565b6116ec565b60405161ffff90911681526020016102bd565b6102ac6103bd366004613765565b611718565b6001546103f7906001600160a01b0381169061ffff600160a01b8204169060ff600160b01b8204811691600160b81b90041684565b604080516001600160a01b03909516855261ffff909316602085015260ff90911691830191909152151560608201526080016102bd565b61035761043c3660046137a8565b600280546001600160801b0319166001600160801b0392909216919091179055565b61032361046c3660046137c3565b611929565b6102e661047f366004613765565b6119e9565b610357610492366004613800565b611bc6565b6102e66104a536600461381b565b611c4c565b6105156104b836600461374c565b600460208190526000918252604090912080546001820154600283015460038401549484015460058501546006909501546001600160801b0380861697600160801b96879004821697828716979096048216959190941693929189565b604080516001600160801b039a8b168152988a1660208a015296891696880196909652938716606087015295909116608085015260a084015260c083019390935260e0820192909252610100810191909152610120016102bd565b6102e6662386f26fc1000081565b6102e660065481565b60055461059a906001600160a01b031681565b6040516001600160a01b0390911681526020016102bd565b6105c56105c0366004613765565b611c69565b60405190151581526020016102bd565b6102ac6105e336600461384e565b611d24565b6102e66105f6366004613897565b611e33565b61059a6106093660046138c3565b611e71565b61059a7f000000000000000000000000000000000000000000000000000000000000000081565b6102e6610643366004613897565b611e90565b610323610656366004613765565b611ea6565b6102e66106693660046138de565b611efb565b6102e6670de0b6b3a764000081565b60006102e6565b6102e66106923660046138c3565b50600090565b6102ac6106a6366004613901565b611f53565b6102e66106b9366004613897565b61205d565b6102e66106cc366004613897565b612093565b6102e66106df366004613969565b6120a9565b6107826106f23660046138c3565b60036020819052600091825260409091208054600182015460028301549383015460048401546005909401546001600160801b0380851696600160801b95869004600f0b9694959094600685900b94600160381b81046001600160a01b031694600160d81b820463ffffffff1694600160f81b90920460ff1693828416938190048316928083169291909104168c565b604080516001600160801b039d8e168152600f9c909c0b60208d01528b019990995260608a019790975260069590950b60808901526001600160a01b0390931660a088015263ffffffff90911660c0870152151560e086015285166101008501528416610120840152831661014083015291909116610160820152610180016102bd565b6105c561081436600461399c565b6120e0565b61059a7f000000000000000000000000000000000000000000000000000000000000000081565b61059a7f000000000000000000000000000000000000000000000000000000000000000081565b61088e7f000000000000000000000000000000000000000000000000000000000000000081565b60405160029190910b81526020016102bd565b61059a7f000000000000000000000000000000000000000000000000000000000000000081565b6108ef7f000000000000000000000000000000000000000000000000000000000000000081565b60405162ffffff90911681526020016102bd565b6102e661091136600461381b565b61214a565b6102e6610924366004613897565b612158565b6103576121a0565b6102e661093f366004613897565b612225565b60055460009081906001600160a01b031633148061096157503330145b6109865760405162461bcd60e51b815260040161097d906139d6565b60405180910390fd5b60005460ff16156109a95760405162461bcd60e51b815260040161097d906139f9565b6000805460ff1916600117905560408051808201909152600f81526e2d2d2d4e65772054726164652d2d2d60881b60208201526109e590612266565b60408051608080820183526001546001600160a01b03808216845261ffff600160a01b830416602080860182905260ff600160b01b8504811687890152600160b81b90940490931615156060808701919091528651610100810188528d81526000948101859052865190931696830196909652948101949094529192662386f26fc10000929181018b610a7a57600754610a7e565b6006545b8152600060208083018290526002546001600160801b03166040808501829052606094850191909152805193840181528284529083018290528281018290528301519293509091908b1390610ad390856122ac565b8015610add57508b155b15610b2d57600183604001818151610af59190613a34565b9052506040830151610b06906116ec565b61ffff16606084018190526001805461ffff60a01b1916600160a01b830217905560208601525b825115801590610b41575089836040015114155b15610f9b57610b9d60405180610100016040528060008152602001600061ffff1681526020016000151581526020016000815260200160008152602001600081526020016000815260200160006001600160801b031681525090565b604084015181526060840151610bb490868f6120a9565b60608201528c610bd45760018460600151610bcf9190613a4c565b610be4565b6060840151610be4906001613a6f565b61ffff1660208201526060840151610bfe906003906122c0565b6001600160801b031660e082015281610c3b57610c368160e001518560c00151610c289190613a95565b6001600160801b03166123cf565b610c60565b610c608160e001518560c00151610c529190613a95565b6001600160801b0316612406565b83526040840151610c71908e611efb565b60408085018290528501518451610c889290612093565b836020018181525050610cba604051806040016040528060088152602001675f5f5f5f5f5f5f5f60c01b815250612266565b610ce860405180604001604052806008815260200167435552505249434560c01b815250856040015161243d565b610d346040518060400160405280601e81526020017f74726164696e673b206c69717569646974792c20616d6f756e746c65667400008152508560c001516001600160801b031661243d565b8351610d4890610d4390613ab7565b612486565b610d946040518060400160405280601881526020017f6e65787470726963656c696d69742f706f696e746e65787400000000000000008152508260600151836020015161ffff166124cb565b610dbb604051806040016040528060018152602001606160f81b815250846000015161243d565b610df48460400151826060015186600001517f000000000000000000000000000000000000000000000000000000000000000087612517565b60c085015260a08401908152608084019182526040808801939093528251808401909352600e83526d185b5bdd5b9d1a5b985b991bdd5d60921b602084015290519051610e429291906124cb565b610e706040518060400160405280600381526020016239963160e91b815250846020015185604001516124cb565b8115610e9257608081015184518590610e8a908390613ad4565b905250610eaa565b608081015184518590610ea6908390613b13565b9052505b8060a0015184602001818151610ec09190613a34565b90525060c08401516001600160801b031615610f075760c08085015190820151610ef2916001600160801b0316612739565b84608001818151610f039190613a34565b9052505b806060015184604001511415610f955760e08101516001600160801b031615610f3c576060840151610f3c906003908f61274e565b6020810151600654600754600092610f5692600392612846565b90508d610f6957610f6681613b54565b90505b610f778560c0015182611929565b6001600160801b031660c086015250602081015161ffff1660608501525b50610b2d565b610fa88360400151612899565b600180546001600160a01b0319166001600160a01b03929092169190911790556020850151606084015161ffff9182169116146110055760608301516001805461ffff909216600160a01b0261ffff60a01b199092169190911790555b8260c001516001600160801b03168360e001516001600160801b03161461104b5760c0830151600280546001600160801b0319166001600160801b039092169190911790555b8b1561105a5760808301516006555b8061108b5761271083602001516110719190613a34565b835161107c8d613ab7565b6110869190613b13565b6110b8565b8b6110a657825161109c908c613ad4565b83602001516110b8565b82516110b2908c613ad4565b83602001515b6000805460ff19169055909e909d509b505050505050505050505050565b60055460009081906001600160a01b03163314806110f357503330145b61110f5760405162461bcd60e51b815260040161097d906139d6565b60005460ff16156111325760405162461bcd60e51b815260040161097d906139f9565b6000805460ff1916600117815561114c60048989896128b4565b90508060050154856001600160801b03161161117157846001600160801b0316611177565b80600501545b92508060060154846001600160801b03161161119c57836001600160801b03166111a2565b80600601545b915082156111c457828160050160008282546111be9190613b84565b90915550505b81156111e457818160060160008282546111de9190613b84565b90915550505b506000805460ff1916905590969095509350505050565b6005546000906001600160a01b031633148061121657503330145b6112325760405162461bcd60e51b815260040161097d906139d6565b60005460ff16156112555760405162461bcd60e51b815260040161097d906139f9565b6000805460ff191660019081179091555461ffff85169061127e906001600160a01b03166116ec565b61ffff1614156112dc5760405162461bcd60e51b815260206004820152602360248201527f43616e277420726564756365206f7264657220666f722063757272656e74207460448201526269636b60e81b606482015260840161097d565b60006112f886866112ee816001613a6f565b60049291906128b4565b905061131061130685613b54565b829085600061291f565b6113278561131d86613b54565b60039190866129f4565b600083611354577f0000000000000000000000000000000000000000000000000000000000000000611376565b7f00000000000000000000000000000000000000000000000000000000000000005b9050836113bd576113b861138e610609886001613a6f565b6001600160a01b03166113a088611e71565b6001600160a01b0316876001600160801b0316612225565b6113f8565b6113f86113ce610609886001613a6f565b6001600160a01b03166113e088611e71565b6001600160a01b0316876001600160801b0316611e33565b6000805460ff19169055979650505050505050565b611416816116ec565b6001805461ffff92909216600160a01b0261ffff60a01b1990921691909117905561144081612899565b600180546001600160a01b0319166001600160a01b039290921691909117905550565b60055460009081906001600160a01b031633148061148057503330145b61149c5760405162461bcd60e51b815260040161097d906139d6565b60005460ff16156114bf5760405162461bcd60e51b815260040161097d906139f9565b6000805460ff191660011790558280156114f557506001546001600160a01b03166114e986611e71565b6001600160a01b031611155b156115335760405162461bcd60e51b815260206004820152600e60248201526d61736b2062656c6f77207072696560901b604482015260640161097d565b8215801561155d57506001546001600160a01b031661155186611e71565b6001600160a01b031610155b1561159c5760405162461bcd60e51b815260206004820152600f60248201526e626964732061626f7665207072696560881b604482015260640161097d565b60006115ae87876112ee816001613a6f565b90506115bc60038786612ac5565b91506115ca8186868561291f565b6115d760038787876129f4565b600084611604577f0000000000000000000000000000000000000000000000000000000000000000611626565b7f00000000000000000000000000000000000000000000000000000000000000005b90508461166d5761166861163e610609896001613a6f565b6001600160a01b031661165089611e71565b6001600160a01b0316886001600160801b0316612225565b6116a8565b6116a861167e610609896001613a6f565b6001600160a01b031661169089611e71565b6001600160a01b0316886001600160801b0316611e33565b93506116d560405180604001604052806009815260200168185b5bdd5b9d189a5960ba1b8152508561243d565b50506000805460ff19169055909590945092505050565b6000670de0b6b3a764000061170883662386f26fc10000612739565b6117129190613bb1565b92915050565b60055460009081906001600160a01b031633148061173557503330145b6117515760405162461bcd60e51b815260040161097d906139d6565b60005460ff16156117745760405162461bcd60e51b815260040161097d906139f9565b6000805460ff1916600190811782556040805160808101825282546001600160a01b038116825261ffff600160a01b8204166020830152600160b01b810460ff90811693830193909352600160b81b90049091161515606082015291906117e490889088906112ee908290613a6f565b60015490915061ffff871690611802906001600160a01b03166116ec565b61ffff16146118475760405162461bcd60e51b81526020600482015260116024820152704e6f742063757272656e7420707269636560781b604482015260640161097d565b600085611868576001820154600160801b90046001600160801b0316611877565b60018201546001600160801b03165b905061188f61188582613b54565b839088600061291f565b6118a68761189c83613b54565b60039190896129f4565b6118dd6118b7610609896001613a6f565b6001600160a01b031684600001516001600160a01b0316836001600160801b0316611e33565b935061191183600001516001600160a01b03166118f989611e71565b6001600160a01b0316836001600160801b0316612225565b6000805460ff19169055989397509295505050505050565b60008082600f0b1215611996576001600160801b03831661194983613b54565b6119539085613bc5565b9150816001600160801b0316106119915760405162461bcd60e51b81526020600482015260026024820152614c5360f01b604482015260640161097d565b611712565b6001600160801b0383166119aa8385613a95565b9150816001600160801b031610156117125760405162461bcd60e51b81526020600482015260026024820152614c4160f01b604482015260640161097d565b6005546000906001600160a01b0316331480611a0457503330145b611a205760405162461bcd60e51b815260040161097d906139d6565b60005460ff1615611a435760405162461bcd60e51b815260040161097d906139f9565b6000805460ff191660019081178255611a6590869086906112ee908290613a6f565b90506000611a7560038686612ac5565b9050600084611a8e5782546001600160801b0316611aa1565b8254600160801b90046001600160801b03165b9050806001600160801b0316826001600160801b031611611afa5760405162461bcd60e51b8152602060048201526013602482015272141bdcda5d1a5bdb881b9bdd08199a5b1b1959606a1b604482015260640161097d565b600085611b1b576001840154600160801b90046001600160801b0316611b2a565b60018401546001600160801b03165b90508515611b5c57611b55611b43610609896001613a6f565b6001600160a01b03166118f989611e71565b9450611b9a565b611b97611b6d610609896001613a6f565b6001600160a01b0316611b7f89611e71565b6001600160a01b0316836001600160801b0316611e33565b94505b611bb0611ba682613b54565b859088600061291f565b50506000805460ff191690555090949350505050565b7f00000000000000000000000000000000000000000000000000000000000000006001600160a01b03163314611c2a5760405162461bcd60e51b81526020600482015260096024820152682737ba1037bbb732b960b91b604482015260640161097d565b600580546001600160a01b0319166001600160a01b0392909216919091179055565b6000611c596003846122c0565b6001600160801b03169392505050565b600080611c7c85856112ee816001613a6f565b90506000611c8c60038686612ac5565b9050600084611ca55782546001600160801b0316611cb8565b8254600160801b90046001600160801b03165b9050600085611cdb576001840154600160801b90046001600160801b0316611cea565b60018401546001600160801b03165b90506000816001600160801b0316118015611d165750816001600160801b0316836001600160801b0316115b9450505050505b9392505050565b60055460009081906001600160a01b0316331480611d4157503330145b611d5d5760405162461bcd60e51b815260040161097d906139d6565b60005460ff1615611d805760405162461bcd60e51b815260040161097d906139f9565b6000805460ff19166001178155604080516080810182526001600160a01b038916815261ffff808916602083015287169181019190915281908190611dd69060608101611dcc89613b54565b600f0b9052612b1d565b9250925092506000821180611deb5750600081115b15611e1b57818360050154611e009190613a34565b818460060154611e109190613a34565b600685015560058401555b6000805460ff19169055909890975095505050505050565b600082841015611e555760405162461bcd60e51b815260040161097d90613be5565b611e6982611e638587613b84565b90612d95565b949350505050565b6000611712611e8b662386f26fc1000061ffff8516613c08565b612899565b6000611e6982611ea08587613b84565b90612daa565b600081611ed657611ebd84846112ee816001613a6f565b60010154600160801b90046001600160801b0316611e69565b611ee684846112ee816001613a6f565b600101546001600160801b0316949350505050565b600080611f07846116ec565b905082158015611f225750611f2061ffff821685613c27565b155b611f3457611f2f81611e71565b611f42565b611f42610609600183613a4c565b6001600160a01b0316949350505050565b60055460009081906001600160a01b0316331480611f7057503330145b611f8c5760405162461bcd60e51b815260040161097d906139d6565b60005460ff1615611faf5760405162461bcd60e51b815260040161097d906139f9565b6000805460ff191660011790556001600160801b038516611ffd5760405162461bcd60e51b81526020600482015260086024820152670c08185b5bdd5b9d60c21b604482015260640161097d565b61203a60405180608001604052808a6001600160a01b031681526020018961ffff1681526020018861ffff16815260200187600f0b815250612b1d565b90935091506120469050565b6000805460ff191690559097909650945050505050565b60008284101561207f5760405162461bcd60e51b815260040161097d90613be5565b611e6961208c8486613b84565b8390612739565b6000611e69826120a38587613b84565b90612739565b600081156120d257826120bd856001613a6f565b61ffff166120cb9190613c08565b9050611d1d565b6120cb8361ffff8616613c08565b6000806120f383866112ee816001613a6f565b9050600061210360038787612ac5565b905060008561211c5782546001600160801b031661212f565b8254600160801b90046001600160801b03165b6001600160801b039081169216919091119695505050505050565b6000611c5960038484612ac5565b60008284101561217a5760405162461bcd60e51b815260040161097d90613be5565b611e6961208c600261218c8688613a34565b6121969190613bb1565b611e638688613b84565b7f00000000000000000000000000000000000000000000000000000000000000006001600160a01b031633146122045760405162461bcd60e51b81526020600482015260096024820152682737ba1037bbb732b960b91b604482015260640161097d565b6001805460ff60b81b198116600160b81b9182900460ff1615909102179055565b6000828410156122475760405162461bcd60e51b815260040161097d90613be5565b611e69612255858585611e33565b600061226085612406565b86612dbf565b6122a98160405160240161227a9190613c88565b60408051601f198184030181529190526020810180516001600160e01b031663104c13eb60e21b179052612e0d565b50565b60006122b88284613c27565b159392505050565b61ffff811660009081526020838152604080832081516101808101835281546001600160801b038082168352600160801b91829004600f0b95830195909552600183015493820193909352600282015460608201526003820154600681900b6080830152600160381b81046001600160a01b031660a0830152600160d81b810463ffffffff1660c0830152600160f81b900460ff16151560e082015260048201548085166101008301819052908490048516610120830152600590920154808516610140830152929092049092166101608201529015806123ad57506101208101516001600160801b0316155b6123b9576123b9613c9b565b806101200151816101000151611e699190613a95565b600081156123e957611991670de0b6b3a764000083612daa565b6117126123f7836001613a34565b670de0b6b3a764000090612daa565b6000811561242057611991670de0b6b3a764000083612739565b61171261242e836001613a34565b670de0b6b3a764000090612739565b6124828282604051602401612453929190613cb1565b60408051601f198184030181529190526020810180516001600160e01b03166309710a9d60e41b179052612e0d565b5050565b6122a98160405160240161249c91815260200190565b60408051601f198184030181529190526020810180516001600160e01b031663f5b1bba960e01b179052612e0d565b6125128383836040516024016124e393929190613cd3565b60408051601f198184030181529190526020810180516001600160e01b031663969cdd0360e01b179052612e0d565b505050565b60008080808888101581881280159061268c5781156125c95761254a89886020015189600001518a604001516001612e2e565b965093508986106125a95786518a9650612568906120a38d89613b84565b93506125a261257a89620f4240613cf8565b62ffffff16620f424061259b878b602001518c600001518d60400151612dbf565b9190612f75565b9450612657565b6125a26125b989620f4240613cf8565b8a9062ffffff16620f4240612f75565b6125ed6125da8a8960200151612f94565b6020890151895160408b01516000612e2e565b965093508986116126445786518a965061260b906120a3888e613b84565b945061262285600089600001518a60400151612dbf565b93506125a261263489620f4240613cf8565b869062ffffff16620f4240612f75565b6126546125b989620f4240613cf8565b94505b61268561267a620f424061266b8b82613cf8565b62ffffff8c8116929116612f75565b8690620f4240612f75565b925061272b565b811561270957600061269d8a613ab7565b88519091508c906126ae9083612fab565b6126b89190613a34565b96508a87106126f0576126d08b8d8a60000151612093565b8b975095506127106126e28783613b84565b116126eb578095505b6126f4565b8095505b6127058660008a600001518f612fc0565b9450505b61271c8462ffffff8a16620f4240612f75565b92506127288385613a34565b93505b505095509550955095915050565b6000611d1d83670de0b6b3a764000084612f75565b61ffff8216600090815260208490526040902081156127ea576004810180546001600160801b03191690556005810180546001600160801b031690600061279483613d16565b91906101000a8154816001600160801b0302191690836001600160801b03160217905550506127e5604051806040016040528060068152602001657469636b3f3f60d01b8152508461ffff1661243d565b612840565b6004810180546001600160801b03908116909155600582018054600160801b900490911690601061281a83613d16565b91906101000a8154816001600160801b0302191690836001600160801b03160217905550505b50505050565b61ffff8316600090815260208590526040902080546001820154600160801b909104600f0b91906128779085613b84565b6001820155600281015461288b9084613b84565b600290910155949350505050565b806001600160a01b03811681146128af57600080fd5b919050565b6040805160609490941b6bffffffffffffffffffffffff191660208086019190915260f093841b6001600160f01b031990811660348701529290931b909116603684015280516018818503018152603890930181528251928201929092206000908152929052902090565b811561298957600184015461293d906001600160801b031684611929565b6001850180546001600160801b0319166001600160801b03929092169190911790556000600f84900b13156127e55783546001600160801b03808316600160801b029116178455612840565b60018401546129a890600160801b90046001600160801b031684611929565b6001850180546001600160801b03928316600160801b0292169190911790556000600f84900b13156128405783546001600160801b0319166001600160801b0391909116179092555050565b8015612a5d5761ffff8316600090815260208590526040902060040154612a24906001600160801b031683611929565b61ffff8416600090815260208690526040902060040180546001600160801b0319166001600160801b0392909216919091179055612840565b61ffff8316600090815260208590526040902060040154612a8e90600160801b90046001600160801b031683611929565b61ffff8416600090815260208690526040902060040180546001600160801b03928316600160801b02921691909117905550505050565b600081612af85761ffff8316600090815260208590526040902060050154600160801b90046001600160801b0316611e69565b505061ffff16600090815260209190915260409020600501546001600160801b031690565b604080516080810182526001546001600160a01b038116825261ffff600160a01b820416602080840182905260ff600160b01b8404811685870152600160b81b90930490921615156060808501919091528551928601519486015190860151600095869586959094612b9194919390613001565b93508460600151600f0b600014612d8d57846020015161ffff16816020015161ffff161015612c2357612c1c612bca8660400151611e71565b6001600160a01b0316612be08760200151611e71565b6001600160a01b031660008860600151600f0b1215612c0f578760600151612c0790613b54565b600f0b611e33565b8760600151600f0b611e33565b9150612d8d565b846040015161ffff16816020015161ffff161015612d305760025460408601516001600160801b0390911690612c9e90612c5c90611e71565b6001600160a01b031683600001516001600160a01b031660008960600151600f0b1215612c91578860600151612c0790613b54565b8860600151600f0b611e33565b9250612cfa82600001516001600160a01b0316612cbe8860200151611e71565b6001600160a01b031660008960600151600f0b1215612ced578860600151612ce590613b54565b600f0b612225565b8860600151600f0b612225565b9350612d0a818760600151611929565b600280546001600160801b0319166001600160801b039290921691909117905550612d8d565b612d8a612d408660400151611e71565b6001600160a01b0316612d568760200151611e71565b6001600160a01b031660008860600151600f0b1215612d7d578760600151612ce590613b54565b8760600151600f0b612225565b92505b509193909250565b6000611d1d8383670de0b6b3a7640000612f75565b6000611d1d83670de0b6b3a76400008461308d565b6000612dcb8286612d95565b612dfa86612dda876002613c08565b612de49190613a34565b6002612df0878a612d95565b611e639190613bb1565b612e049190613a34565b95945050505050565b80516a636f6e736f6c652e6c6f67602083016000808483855afa5050505050565b6000808215612f04576000670de0b6b3a7640000600286612e4f898b612d95565b612e599190613a34565b612e639190613e21565b612e6d9190613bb1565b90506000612e7b878a612d95565b612e86906002613c08565b90506000612eaf670de0b6b3a7640000612ea08486613a34565b612eaa9190613c08565b6130bb565b9050600087612ebe8a8c612d95565b612ec89190613a34565b9050612ed8896120a38385613b84565b955087612eef612ee88c89613a34565b8b90612d95565b612ef99190613a34565b945050505050612f6b565b60006002612f12878a612d95565b612f1c9190613bb1565b612f268789612d95565b612f309087613a34565b612f3a9190613b84565b9050612f468882612d95565b925084612f5d612f568a8a613b84565b8890612d95565b612f679190613a34565b9150505b9550959350505050565b828202811515841585830485141716612f8d57600080fd5b0492915050565b600081831115612fa45781611d1d565b5090919050565b6000611d1d8383670de0b6b3a764000061308d565b6000612fcc8286612fab565b612dfa86612fdb876002613c08565b612fe59190613a34565b6002612ff1878a612fab565b612ffb9190613bb1565b90612fab565b600061301060048787876128b4565b60065460075491925090600f85900b1561305d5760065460075461303f916003918a9188918a91906000613194565b5060065460075461305b91600391899188918a91906001613194565b505b60008061306f60038a8a89888861329b565b909250905061308085888484613387565b5050505095945050505050565b8282028115158415858304851417166130a557600080fd5b6001826001830304018115150290509392505050565b600181600160801b81106130d45760409190911b9060801c5b6801000000000000000081106130ef5760209190911b9060401c5b64010000000081106131065760109190911b9060201c5b62010000811061311b5760089190911b9060101c5b610100811061312f5760049190911b9060081c5b601081106131425760029190911b9060041c5b60088110613151578160011b91505b5080820401600190811c80830401811c80830401811c80830401811c80830401811c80830401811c80830401901c8082048181101561318e578091505b50919050565b61ffff8616600090815260208890526040812080546001600160801b0316826131bd8289611929565b6001600160801b038381161590821615811415955090915015613210578861ffff168a61ffff16116131f85760018301879055600283018690555b6003830180546001600160f81b0316600160f81b1790555b82546001600160801b0319166001600160801b038216178355846132565782546132519061324c90600f8b810b91600160801b9004900b613b13565b613571565b613274565b82546132749061324c90600f8b810b91600160801b9004900b613ad4565b83546001600160801b03918216600160801b02911617909255509098975050505050505050565b61ffff80861660008181526020899052604080822088851683529082209193849391929184918291908a16106132dc57505060018201546002830154613300565b60018401546132eb9089613b84565b91508360020154876132fd9190613b84565b90505b6000808b61ffff168b61ffff16101561332457505060018301546002840154613348565b6001850154613333908b613b84565b91508460020154896133459190613b84565b90505b81613353858c613b84565b61335d9190613b84565b97508061336a848b613b84565b6133749190613b84565b9650505050505050965096945050505050565b604080516101208101825285546001600160801b038082168352600160801b918290048116602084015260018801548082169484019490945292048216606082015260028601549091166080820152600385015460a0820152600485015460c0820152600585015460e082015260068501546101008201526000600f85900b61345757600082608001516001600160801b03161161344c5760405162461bcd60e51b815260206004820152600260248201526104e560f41b604482015260640161097d565b506080810151613468565b613465826080015186611929565b90505b600061349483608001516001600160801b0316670de0b6b3a76400008560a001518861259b9190613b84565b905060006134c284608001516001600160801b0316670de0b6b3a76400008660c001518861259b9190613b84565b905086600f0b6000146134ed576002880180546001600160801b0319166001600160801b0385161790555b60038801869055600488018590556001600160801b03821615158061351b57506000816001600160801b0316115b1561356757816001600160801b031688600501600082825461353d9190613a34565b92505081905550806001600160801b03168860060160008282546135619190613a34565b90915550505b5050505050505050565b80600f81900b81146128af57600080fd5b80356001600160a01b03811681146128af57600080fd5b803580151581146128af57600080fd5b60008083601f8401126135bb57600080fd5b50813567ffffffffffffffff8111156135d357600080fd5b6020830191508360208285010111156135eb57600080fd5b9250929050565b60008060008060008060a0878903121561360b57600080fd5b61361487613582565b955061362260208801613599565b94506040870135935060608701359250608087013567ffffffffffffffff81111561364c57600080fd5b61365889828a016135a9565b979a9699509497509295939492505050565b803561ffff811681146128af57600080fd5b80356001600160801b03811681146128af57600080fd5b600080600080600060a086880312156136ab57600080fd5b6136b486613582565b94506136c26020870161366a565b93506136d06040870161366a565b92506136de6060870161367c565b91506136ec6080870161367c565b90509295509295909350565b6000806000806080858703121561370e57600080fd5b61371785613582565b93506137256020860161366a565b92506137336040860161367c565b915061374160608601613599565b905092959194509250565b60006020828403121561375e57600080fd5b5035919050565b60008060006060848603121561377a57600080fd5b61378384613582565b92506137916020850161366a565b915061379f60408501613599565b90509250925092565b6000602082840312156137ba57600080fd5b611d1d8261367c565b600080604083850312156137d657600080fd5b6137df8361367c565b9150602083013580600f0b81146137f557600080fd5b809150509250929050565b60006020828403121561381257600080fd5b611d1d82613582565b6000806040838503121561382e57600080fd5b6138378361366a565b915061384560208401613599565b90509250929050565b6000806000806080858703121561386457600080fd5b61386d85613582565b935061387b6020860161366a565b92506138896040860161366a565b91506137416060860161367c565b6000806000606084860312156138ac57600080fd5b505081359360208301359350604090920135919050565b6000602082840312156138d557600080fd5b611d1d8261366a565b600080604083850312156138f157600080fd5b8235915061384560208401613599565b60008060008060008060a0878903121561391a57600080fd5b61392387613582565b95506139316020880161366a565b945061393f6040880161366a565b935061394d6060880161367c565b9250608087013567ffffffffffffffff81111561364c57600080fd5b60008060006060848603121561397e57600080fd5b6139878461366a565b92506020840135915061379f60408501613599565b6000806000606084860312156139b157600080fd5b6139ba8461366a565b92506139c860208501613599565b915061379f60408501613582565b6020808252600990820152684e6f7420456e74727960b81b604082015260600190565b6020808252600b908201526a4552525f5245454e54525960a81b604082015260600190565b634e487b7160e01b600052601160045260246000fd5b60008219821115613a4757613a47613a1e565b500190565b600061ffff83811690831681811015613a6757613a67613a1e565b039392505050565b600061ffff808316818516808303821115613a8c57613a8c613a1e565b01949350505050565b60006001600160801b03808316818516808303821115613a8c57613a8c613a1e565b6000600160ff1b821415613acd57613acd613a1e565b5060000390565b60008083128015600160ff1b850184121615613af257613af2613a1e565b6001600160ff1b0384018313811615613b0d57613b0d613a1e565b50500390565b600080821280156001600160ff1b0384900385131615613b3557613b35613a1e565b600160ff1b8390038412811615613b4e57613b4e613a1e565b50500190565b600081600f0b6f7fffffffffffffffffffffffffffffff19811415613b7b57613b7b613a1e565b60000392915050565b600082821015613b9657613b96613a1e565b500390565b634e487b7160e01b600052601260045260246000fd5b600082613bc057613bc0613b9b565b500490565b60006001600160801b0383811690831681811015613a6757613a67613a1e565b602080825260099082015268383934b1b29022a92960b91b604082015260600190565b6000816000190483118215151615613c2257613c22613a1e565b500290565b600082613c3657613c36613b9b565b500690565b6000815180845260005b81811015613c6157602081850181015186830182015201613c45565b81811115613c73576000602083870101525b50601f01601f19169290920160200192915050565b602081526000611d1d6020830184613c3b565b634e487b7160e01b600052600160045260246000fd5b604081526000613cc46040830185613c3b565b90508260208301529392505050565b606081526000613ce66060830186613c3b565b60208301949094525060400152919050565b600062ffffff808316818516808303821115613a8c57613a8c613a1e565b60006001600160801b0380831681811415613d3357613d33613a1e565b6001019392505050565b600181815b80851115613d78578160001904821115613d5e57613d5e613a1e565b80851615613d6b57918102915b93841c9390800290613d42565b509250929050565b600082613d8f57506001611712565b81613d9c57506000611712565b8160018114613db25760028114613dbc57613dd8565b6001915050611712565b60ff841115613dcd57613dcd613a1e565b50506001821b611712565b5060208310610133831016604e8410600b8410161715613dfb575081810a611712565b613e058383613d3d565b8060001904821115613e1957613e19613a1e565b029392505050565b6000611d1d60ff841683613d8056fea2646970667358221220fd8816dcbb42293cf7aaa08bcdc62317f7e1d385bd1a493cb8cd92558316fe6964736f6c634300080a0033",
  "linkReferences": {},
  "deployedLinkReferences": {}
}