{
  "_format": "hh-sol-artifact-1",
  "contractName": "LinearCurve",
  "sourceName": "src/amm.sol",
  "abi": [
    {
      "inputs": [],
      "name": "PRECISION",
      "outputs": [
        {
          "internalType": "uint256",
          "name": "",
          "type": "uint256"
        }
      ],
      "stateMutability": "view",
      "type": "function"
    }
  ],
  "bytecode": "0x608e610038600b82828239805160001a607314602b57634e487b7160e01b600052600060045260246000fd5b30600052607381538281f3fe730000000000000000000000000000000000000000301460806040526004361060335760003560e01c8063aaf5eb68146038575b600080fd5b6046670de0b6b3a764000081565b60405190815260200160405180910390f3fea264697066735822122081a2fb752dd2343f8be6c67a2231892d562c347fb84dc6dba3e1c88d54e6a87364736f6c634300080a0033",
  "linkReferences": {},
  "deployedLinkReferences": {}
}