{
  "_format": "hh-sol-artifact-1",
  "contractName": "LinearCurve",
  "sourceName": "src/amm.sol",
  "abi": [
    {
      "inputs": [],
      "name": "PRECISION",
      "outputs": [
        {
          "internalType": "uint256",
          "name": "",
          "type": "uint256"
        }
      ],
      "stateMutability": "view",
      "type": "function"
    }
  ],
  "bytecode": "0x608e610038600b82828239805160001a607314602b57634e487b7160e01b600052600060045260246000fd5b30600052607381538281f3fe730000000000000000000000000000000000000000301460806040526004361060335760003560e01c8063aaf5eb68146038575b600080fd5b6046670de0b6b3a764000081565b60405190815260200160405180910390f3fea2646970667358221220cc3bc51dd23757f1be1fa7e0af84495a4807379d55c753ee178230adc4a0efbd64736f6c634300080a0033",
  "linkReferences": {},
  "deployedLinkReferences": {}
}