{
  "_format": "hh-sol-artifact-1",
  "contractName": "SpotPool",
  "sourceName": "src/amm.sol",
  "abi": [
    {
      "inputs": [
        {
          "internalType": "address",
          "name": "_baseToken",
          "type": "address"
        },
        {
          "internalType": "address",
          "name": "_tradeToken",
          "type": "address"
        }
      ],
      "stateMutability": "nonpayable",
      "type": "constructor"
    },
    {
      "inputs": [],
      "name": "PRECISION",
      "outputs": [
        {
          "internalType": "uint256",
          "name": "",
          "type": "uint256"
        }
      ],
      "stateMutability": "view",
      "type": "function"
    },
    {
      "inputs": [],
      "name": "ROUNDLIMIT",
      "outputs": [
        {
          "internalType": "uint256",
          "name": "",
          "type": "uint256"
        }
      ],
      "stateMutability": "view",
      "type": "function"
    },
    {
      "inputs": [
        {
          "internalType": "uint128",
          "name": "x",
          "type": "uint128"
        },
        {
          "internalType": "int128",
          "name": "y",
          "type": "int128"
        }
      ],
      "name": "addDelta",
      "outputs": [
        {
          "internalType": "uint128",
          "name": "z",
          "type": "uint128"
        }
      ],
      "stateMutability": "pure",
      "type": "function"
    },
    {
      "inputs": [
        {
          "internalType": "uint256",
          "name": "p2",
          "type": "uint256"
        },
        {
          "internalType": "uint256",
          "name": "p1",
          "type": "uint256"
        },
        {
          "internalType": "uint256",
          "name": "L",
          "type": "uint256"
        }
      ],
      "name": "baseGivenLiquidity",
      "outputs": [
        {
          "internalType": "uint256",
          "name": "",
          "type": "uint256"
        }
      ],
      "stateMutability": "pure",
      "type": "function"
    },
    {
      "inputs": [],
      "name": "baseToken",
      "outputs": [
        {
          "internalType": "address",
          "name": "",
          "type": "address"
        }
      ],
      "stateMutability": "view",
      "type": "function"
    },
    {
      "inputs": [
        {
          "internalType": "uint16",
          "name": "point",
          "type": "uint16"
        }
      ],
      "name": "bidsLeft",
      "outputs": [
        {
          "internalType": "uint256",
          "name": "",
          "type": "uint256"
        }
      ],
      "stateMutability": "view",
      "type": "function"
    },
    {
      "inputs": [
        {
          "internalType": "uint16",
          "name": "point",
          "type": "uint16"
        },
        {
          "internalType": "bool",
          "name": "isAsk",
          "type": "bool"
        },
        {
          "internalType": "address",
          "name": "recipient",
          "type": "address"
        }
      ],
      "name": "claimAble",
      "outputs": [
        {
          "internalType": "bool",
          "name": "",
          "type": "bool"
        }
      ],
      "stateMutability": "view",
      "type": "function"
    },
    {
      "inputs": [
        {
          "internalType": "address",
          "name": "recipient",
          "type": "address"
        },
        {
          "internalType": "uint16",
          "name": "point",
          "type": "uint16"
        },
        {
          "internalType": "bool",
          "name": "isAsk",
          "type": "bool"
        }
      ],
      "name": "claimFilledOrder",
      "outputs": [
        {
          "internalType": "uint256",
          "name": "claimedAmount",
          "type": "uint256"
        }
      ],
      "stateMutability": "nonpayable",
      "type": "function"
    },
    {
      "inputs": [
        {
          "internalType": "address",
          "name": "recipient",
          "type": "address"
        },
        {
          "internalType": "uint16",
          "name": "point",
          "type": "uint16"
        },
        {
          "internalType": "bool",
          "name": "isAsk",
          "type": "bool"
        }
      ],
      "name": "claimPartiallyFilledOrder",
      "outputs": [
        {
          "internalType": "uint256",
          "name": "baseAmount",
          "type": "uint256"
        },
        {
          "internalType": "uint256",
          "name": "tradeAmount",
          "type": "uint256"
        }
      ],
      "stateMutability": "nonpayable",
      "type": "function"
    },
    {
      "inputs": [
        {
          "internalType": "address",
          "name": "recipient",
          "type": "address"
        },
        {
          "internalType": "uint16",
          "name": "tickLower",
          "type": "uint16"
        },
        {
          "internalType": "uint16",
          "name": "tickUpper",
          "type": "uint16"
        },
        {
          "internalType": "uint128",
          "name": "amount0Requested",
          "type": "uint128"
        },
        {
          "internalType": "uint128",
          "name": "amount1Requested",
          "type": "uint128"
        }
      ],
      "name": "collect",
      "outputs": [
        {
          "internalType": "uint256",
          "name": "amount0",
          "type": "uint256"
        },
        {
          "internalType": "uint256",
          "name": "amount1",
          "type": "uint256"
        }
      ],
      "stateMutability": "nonpayable",
      "type": "function"
    },
    {
      "inputs": [],
      "name": "entry",
      "outputs": [
        {
          "internalType": "address",
          "name": "",
          "type": "address"
        }
      ],
      "stateMutability": "view",
      "type": "function"
    },
    {
      "inputs": [
        {
          "internalType": "address",
          "name": "",
          "type": "address"
        }
      ],
      "name": "f",
      "outputs": [
        {
          "internalType": "uint16",
          "name": "",
          "type": "uint16"
        }
      ],
      "stateMutability": "view",
      "type": "function"
    },
    {
      "inputs": [],
      "name": "factory",
      "outputs": [
        {
          "internalType": "address",
          "name": "",
          "type": "address"
        }
      ],
      "stateMutability": "view",
      "type": "function"
    },
    {
      "inputs": [],
      "name": "fee",
      "outputs": [
        {
          "internalType": "uint24",
          "name": "",
          "type": "uint24"
        }
      ],
      "stateMutability": "view",
      "type": "function"
    },
    {
      "inputs": [],
      "name": "feeGrowthGlobalBase",
      "outputs": [
        {
          "internalType": "uint256",
          "name": "",
          "type": "uint256"
        }
      ],
      "stateMutability": "view",
      "type": "function"
    },
    {
      "inputs": [],
      "name": "feeGrowthGlobalTrade",
      "outputs": [
        {
          "internalType": "uint256",
          "name": "",
          "type": "uint256"
        }
      ],
      "stateMutability": "view",
      "type": "function"
    },
    {
      "inputs": [],
      "name": "getCurPrice",
      "outputs": [
        {
          "internalType": "uint256",
          "name": "",
          "type": "uint256"
        }
      ],
      "stateMutability": "view",
      "type": "function"
    },
    {
      "inputs": [
        {
          "internalType": "address",
          "name": "who",
          "type": "address"
        }
      ],
      "name": "getLimitLoggedPosition",
      "outputs": [
        {
          "internalType": "uint16[]",
          "name": "",
          "type": "uint16[]"
        }
      ],
      "stateMutability": "view",
      "type": "function"
    },
    {
      "inputs": [
        {
          "internalType": "uint16",
          "name": "point",
          "type": "uint16"
        },
        {
          "internalType": "address",
          "name": "recipient",
          "type": "address"
        }
      ],
      "name": "getLimitPosition",
      "outputs": [
        {
          "internalType": "uint256",
          "name": "",
          "type": "uint256"
        },
        {
          "internalType": "bool",
          "name": "",
          "type": "bool"
        },
        {
          "internalType": "bool",
          "name": "",
          "type": "bool"
        }
      ],
      "stateMutability": "view",
      "type": "function"
    },
    {
      "inputs": [
        {
          "internalType": "address",
          "name": "to",
          "type": "address"
        },
        {
          "internalType": "uint16",
          "name": "point",
          "type": "uint16"
        },
        {
          "internalType": "bool",
          "name": "isAsk",
          "type": "bool"
        }
      ],
      "name": "getLiq",
      "outputs": [
        {
          "internalType": "uint128",
          "name": "",
          "type": "uint128"
        }
      ],
      "stateMutability": "view",
      "type": "function"
    },
    {
      "inputs": [
        {
          "internalType": "address",
          "name": "who",
          "type": "address"
        }
      ],
      "name": "getLoggedPosition",
      "outputs": [
        {
          "components": [
            {
              "internalType": "uint16",
              "name": "point1",
              "type": "uint16"
            },
            {
              "internalType": "uint16",
              "name": "point2",
              "type": "uint16"
            }
          ],
          "internalType": "struct SpotPool.LoggedPosition[]",
          "name": "",
          "type": "tuple[]"
        }
      ],
      "stateMutability": "view",
      "type": "function"
    },
    {
      "inputs": [],
      "name": "getMaxLiquidity",
      "outputs": [
        {
          "internalType": "uint256",
          "name": "",
          "type": "uint256"
        }
      ],
      "stateMutability": "view",
      "type": "function"
    },
    {
      "inputs": [
        {
          "internalType": "uint16",
          "name": "point",
          "type": "uint16"
        },
        {
          "internalType": "uint256",
          "name": "pDelta",
          "type": "uint256"
        },
        {
          "internalType": "bool",
          "name": "moveUp",
          "type": "bool"
        }
      ],
      "name": "getNextPriceLimit",
      "outputs": [
        {
          "internalType": "uint256",
          "name": "",
          "type": "uint256"
        }
      ],
      "stateMutability": "pure",
      "type": "function"
    },
    {
      "inputs": [
        {
          "internalType": "uint16",
          "name": "point",
          "type": "uint16"
        },
        {
          "internalType": "bool",
          "name": "moveUp",
          "type": "bool"
        }
      ],
      "name": "getNumCross",
      "outputs": [
        {
          "internalType": "uint256",
          "name": "",
          "type": "uint256"
        }
      ],
      "stateMutability": "view",
      "type": "function"
    },
    {
      "inputs": [
        {
          "internalType": "uint16",
          "name": "point",
          "type": "uint16"
        },
        {
          "internalType": "bool",
          "name": "moveUp",
          "type": "bool"
        }
      ],
      "name": "getOneTimeLiquidity",
      "outputs": [
        {
          "internalType": "uint256",
          "name": "",
          "type": "uint256"
        }
      ],
      "stateMutability": "view",
      "type": "function"
    },
    {
      "inputs": [
        {
          "internalType": "address",
          "name": "who",
          "type": "address"
        },
        {
          "internalType": "uint16",
          "name": "pointLower",
          "type": "uint16"
        },
        {
          "internalType": "uint16",
          "name": "pointUpper",
          "type": "uint16"
        }
      ],
      "name": "getPosition",
      "outputs": [
        {
          "components": [
            {
              "internalType": "uint128",
              "name": "bidCrossId",
              "type": "uint128"
            },
            {
              "internalType": "uint128",
              "name": "askCrossId",
              "type": "uint128"
            },
            {
              "internalType": "uint128",
              "name": "askLiq",
              "type": "uint128"
            },
            {
              "internalType": "uint128",
              "name": "bidLiq",
              "type": "uint128"
            },
            {
              "internalType": "uint128",
              "name": "liquidity",
              "type": "uint128"
            },
            {
              "internalType": "uint256",
              "name": "feeGrowthInside0LastX128",
              "type": "uint256"
            },
            {
              "internalType": "uint256",
              "name": "feeGrowthInside1LastX128",
              "type": "uint256"
            },
            {
              "internalType": "uint256",
              "name": "tokensOwed0",
              "type": "uint256"
            },
            {
              "internalType": "uint256",
              "name": "tokensOwed1",
              "type": "uint256"
            }
          ],
          "internalType": "struct Position.Info",
          "name": "",
          "type": "tuple"
        }
      ],
      "stateMutability": "view",
      "type": "function"
    },
    {
      "inputs": [],
      "name": "liquidity",
      "outputs": [
        {
          "internalType": "uint128",
          "name": "",
          "type": "uint128"
        }
      ],
      "stateMutability": "view",
      "type": "function"
    },
    {
      "inputs": [
        {
          "internalType": "uint256",
          "name": "p2",
          "type": "uint256"
        },
        {
          "internalType": "uint256",
          "name": "p1",
          "type": "uint256"
        },
        {
          "internalType": "uint256",
          "name": "B",
          "type": "uint256"
        }
      ],
      "name": "liquidityGivenBase",
      "outputs": [
        {
          "internalType": "uint256",
          "name": "",
          "type": "uint256"
        }
      ],
      "stateMutability": "pure",
      "type": "function"
    },
    {
      "inputs": [
        {
          "internalType": "uint256",
          "name": "p2",
          "type": "uint256"
        },
        {
          "internalType": "uint256",
          "name": "p1",
          "type": "uint256"
        },
        {
          "internalType": "uint256",
          "name": "T",
          "type": "uint256"
        }
      ],
      "name": "liquidityGivenTrade",
      "outputs": [
        {
          "internalType": "uint256",
          "name": "",
          "type": "uint256"
        }
      ],
      "stateMutability": "pure",
      "type": "function"
    },
    {
      "inputs": [],
      "name": "lock",
      "outputs": [],
      "stateMutability": "nonpayable",
      "type": "function"
    },
    {
      "inputs": [
        {
          "internalType": "address",
          "name": "",
          "type": "address"
        },
        {
          "internalType": "uint256",
          "name": "",
          "type": "uint256"
        }
      ],
      "name": "loggedLimitPositions",
      "outputs": [
        {
          "internalType": "uint16",
          "name": "",
          "type": "uint16"
        }
      ],
      "stateMutability": "view",
      "type": "function"
    },
    {
      "inputs": [
        {
          "internalType": "address",
          "name": "",
          "type": "address"
        },
        {
          "internalType": "uint256",
          "name": "",
          "type": "uint256"
        }
      ],
      "name": "loggedPositions",
      "outputs": [
        {
          "internalType": "uint16",
          "name": "point1",
          "type": "uint16"
        },
        {
          "internalType": "uint16",
          "name": "point2",
          "type": "uint16"
        }
      ],
      "stateMutability": "view",
      "type": "function"
    },
    {
      "inputs": [
        {
          "internalType": "uint16",
          "name": "point",
          "type": "uint16"
        },
        {
          "internalType": "bool",
          "name": "buyTradeForBase",
          "type": "bool"
        }
      ],
      "name": "makerClaim",
      "outputs": [],
      "stateMutability": "nonpayable",
      "type": "function"
    },
    {
      "inputs": [
        {
          "internalType": "uint16",
          "name": "point",
          "type": "uint16"
        },
        {
          "internalType": "bool",
          "name": "buyTradeForBase",
          "type": "bool"
        }
      ],
      "name": "makerPartiallyClaim",
      "outputs": [
        {
          "internalType": "uint256",
          "name": "baseAmount",
          "type": "uint256"
        },
        {
          "internalType": "uint256",
          "name": "tradeAmount",
          "type": "uint256"
        }
      ],
      "stateMutability": "nonpayable",
      "type": "function"
    },
    {
      "inputs": [
        {
          "internalType": "uint16",
          "name": "point",
          "type": "uint16"
        },
        {
          "internalType": "uint256",
          "name": "amount",
          "type": "uint256"
        },
        {
          "internalType": "bool",
          "name": "isAsk",
          "type": "bool"
        }
      ],
      "name": "makerReduce",
      "outputs": [],
      "stateMutability": "nonpayable",
      "type": "function"
    },
    {
      "inputs": [
        {
          "internalType": "bool",
          "name": "buyTradeForBase",
          "type": "bool"
        },
        {
          "internalType": "uint256",
          "name": "amountIn",
          "type": "uint256"
        },
        {
          "internalType": "uint16",
          "name": "point",
          "type": "uint16"
        }
      ],
      "name": "makerTrade",
      "outputs": [],
      "stateMutability": "nonpayable",
      "type": "function"
    },
    {
      "inputs": [],
      "name": "owner",
      "outputs": [
        {
          "internalType": "address",
          "name": "",
          "type": "address"
        }
      ],
      "stateMutability": "view",
      "type": "function"
    },
    {
      "inputs": [
        {
          "internalType": "address",
          "name": "recipient",
          "type": "address"
        },
        {
          "internalType": "uint16",
          "name": "point",
          "type": "uint16"
        },
        {
          "internalType": "uint128",
          "name": "amount",
          "type": "uint128"
        },
        {
          "internalType": "bool",
          "name": "isAsk",
          "type": "bool"
        }
      ],
      "name": "placeLimitOrder",
      "outputs": [
        {
          "internalType": "uint256",
          "name": "amountToEscrow",
          "type": "uint256"
        },
        {
          "internalType": "uint128",
          "name": "numCross",
          "type": "uint128"
        }
      ],
      "stateMutability": "nonpayable",
      "type": "function"
    },
    {
      "inputs": [
        {
          "internalType": "uint16",
          "name": "point",
          "type": "uint16"
        }
      ],
      "name": "pointToPrice",
      "outputs": [
        {
          "internalType": "uint160",
          "name": "",
          "type": "uint160"
        }
      ],
      "stateMutability": "pure",
      "type": "function"
    },
    {
      "inputs": [
        {
          "internalType": "address",
          "name": "recipient",
          "type": "address"
        },
        {
          "internalType": "uint16",
          "name": "point",
          "type": "uint16"
        },
        {
          "internalType": "bool",
          "name": "isAsk",
          "type": "bool"
        }
      ],
      "name": "positionIsFilled",
      "outputs": [
        {
          "internalType": "bool",
          "name": "",
          "type": "bool"
        }
      ],
      "stateMutability": "view",
      "type": "function"
    },
    {
      "inputs": [
        {
          "internalType": "bytes32",
          "name": "",
          "type": "bytes32"
        }
      ],
      "name": "positions",
      "outputs": [
        {
          "internalType": "uint128",
          "name": "bidCrossId",
          "type": "uint128"
        },
        {
          "internalType": "uint128",
          "name": "askCrossId",
          "type": "uint128"
        },
        {
          "internalType": "uint128",
          "name": "askLiq",
          "type": "uint128"
        },
        {
          "internalType": "uint128",
          "name": "bidLiq",
          "type": "uint128"
        },
        {
          "internalType": "uint128",
          "name": "liquidity",
          "type": "uint128"
        },
        {
          "internalType": "uint256",
          "name": "feeGrowthInside0LastX128",
          "type": "uint256"
        },
        {
          "internalType": "uint256",
          "name": "feeGrowthInside1LastX128",
          "type": "uint256"
        },
        {
          "internalType": "uint256",
          "name": "tokensOwed0",
          "type": "uint256"
        },
        {
          "internalType": "uint256",
          "name": "tokensOwed1",
          "type": "uint256"
        }
      ],
      "stateMutability": "view",
      "type": "function"
    },
    {
      "inputs": [],
      "name": "priceDelta",
      "outputs": [
        {
          "internalType": "uint256",
          "name": "",
          "type": "uint256"
        }
      ],
      "stateMutability": "view",
      "type": "function"
    },
    {
      "inputs": [
        {
          "internalType": "uint256",
          "name": "price",
          "type": "uint256"
        }
      ],
      "name": "priceToPoint",
      "outputs": [
        {
          "internalType": "uint16",
          "name": "",
          "type": "uint16"
        }
      ],
      "stateMutability": "pure",
      "type": "function"
    },
    {
      "inputs": [
        {
          "internalType": "address",
          "name": "recipient",
          "type": "address"
        },
        {
          "internalType": "uint16",
          "name": "pointLower",
          "type": "uint16"
        },
        {
          "internalType": "uint16",
          "name": "pointUpper",
          "type": "uint16"
        },
        {
          "internalType": "uint128",
          "name": "amount",
          "type": "uint128"
        },
        {
          "internalType": "bytes",
          "name": "data",
          "type": "bytes"
        }
      ],
      "name": "provide",
      "outputs": [
        {
          "internalType": "uint256",
          "name": "amount0",
          "type": "uint256"
        },
        {
          "internalType": "uint256",
          "name": "amount1",
          "type": "uint256"
        }
      ],
      "stateMutability": "nonpayable",
      "type": "function"
    },
    {
      "inputs": [
        {
          "internalType": "uint16",
          "name": "pointLower",
          "type": "uint16"
        },
        {
          "internalType": "uint16",
          "name": "pointUpper",
          "type": "uint16"
        },
        {
          "internalType": "uint128",
          "name": "amount",
          "type": "uint128"
        },
        {
          "internalType": "bytes",
          "name": "data",
          "type": "bytes"
        }
      ],
      "name": "provideLiquidity",
      "outputs": [
        {
          "internalType": "uint256",
          "name": "amount0",
          "type": "uint256"
        },
        {
          "internalType": "uint256",
          "name": "amount1",
          "type": "uint256"
        }
      ],
      "stateMutability": "nonpayable",
      "type": "function"
    },
    {
      "inputs": [
        {
          "internalType": "address",
          "name": "recipient",
          "type": "address"
        },
        {
          "internalType": "uint16",
          "name": "point",
          "type": "uint16"
        },
        {
          "internalType": "uint128",
          "name": "amount",
          "type": "uint128"
        },
        {
          "internalType": "bool",
          "name": "isAsk",
          "type": "bool"
        }
      ],
      "name": "reduceLimitOrder",
      "outputs": [
        {
          "internalType": "uint256",
          "name": "amountToReturn",
          "type": "uint256"
        }
      ],
      "stateMutability": "nonpayable",
      "type": "function"
    },
    {
      "inputs": [
        {
          "internalType": "address",
          "name": "recipient",
          "type": "address"
        },
        {
          "internalType": "uint16",
          "name": "pointLower",
          "type": "uint16"
        },
        {
          "internalType": "uint16",
          "name": "pointUpper",
          "type": "uint16"
        },
        {
          "internalType": "uint128",
          "name": "amount",
          "type": "uint128"
        }
      ],
      "name": "remove",
      "outputs": [
        {
          "internalType": "uint256",
          "name": "",
          "type": "uint256"
        },
        {
          "internalType": "uint256",
          "name": "",
          "type": "uint256"
        }
      ],
      "stateMutability": "nonpayable",
      "type": "function"
    },
    {
      "inputs": [
        {
          "internalType": "address",
          "name": "_entry",
          "type": "address"
        }
      ],
      "name": "setEntry",
      "outputs": [],
      "stateMutability": "nonpayable",
      "type": "function"
    },
    {
      "inputs": [
        {
          "internalType": "uint128",
          "name": "liq",
          "type": "uint128"
        }
      ],
      "name": "setLiquidity",
      "outputs": [],
      "stateMutability": "nonpayable",
      "type": "function"
    },
    {
      "inputs": [],
      "name": "setLiquidity0",
      "outputs": [],
      "stateMutability": "nonpayable",
      "type": "function"
    },
    {
      "inputs": [
        {
          "internalType": "uint256",
          "name": "price",
          "type": "uint256"
        }
      ],
      "name": "setPriceAndPoint",
      "outputs": [],
      "stateMutability": "nonpayable",
      "type": "function"
    },
    {
      "inputs": [],
      "name": "slot0",
      "outputs": [
        {
          "internalType": "uint160",
          "name": "curPrice",
          "type": "uint160"
        },
        {
          "internalType": "uint16",
          "name": "point",
          "type": "uint16"
        },
        {
          "internalType": "uint8",
          "name": "feeProtocol",
          "type": "uint8"
        },
        {
          "internalType": "bool",
          "name": "unlocked",
          "type": "bool"
        }
      ],
      "stateMutability": "view",
      "type": "function"
    },
    {
      "inputs": [
        {
          "internalType": "address",
          "name": "recipient",
          "type": "address"
        },
        {
          "internalType": "bool",
          "name": "buyTradeForBase",
          "type": "bool"
        },
        {
          "internalType": "int256",
          "name": "amountIn",
          "type": "int256"
        },
        {
          "internalType": "uint256",
          "name": "priceLimit",
          "type": "uint256"
        },
        {
          "internalType": "bytes",
          "name": "data",
          "type": "bytes"
        }
      ],
      "name": "takerTrade",
      "outputs": [
        {
          "internalType": "uint256",
          "name": "poolamountIn",
          "type": "uint256"
        },
        {
          "internalType": "uint256",
          "name": "poolamountOut",
          "type": "uint256"
        }
      ],
      "stateMutability": "nonpayable",
      "type": "function"
    },
    {
      "inputs": [],
      "name": "tickSpacing",
      "outputs": [
        {
          "internalType": "int24",
          "name": "",
          "type": "int24"
        }
      ],
      "stateMutability": "view",
      "type": "function"
    },
    {
      "inputs": [
        {
          "internalType": "uint16",
          "name": "",
          "type": "uint16"
        }
      ],
      "name": "ticks",
      "outputs": [
        {
          "internalType": "uint128",
          "name": "liquidityGross",
          "type": "uint128"
        },
        {
          "internalType": "int128",
          "name": "liquidityNet",
          "type": "int128"
        },
        {
          "internalType": "uint256",
          "name": "feeGrowthOutsideBase",
          "type": "uint256"
        },
        {
          "internalType": "uint256",
          "name": "feeGrowthOutsideTrade",
          "type": "uint256"
        },
        {
          "internalType": "int56",
          "name": "tickCumulativeOutside",
          "type": "int56"
        },
        {
          "internalType": "uint160",
          "name": "secondsPerLiquidityOutsideX128",
          "type": "uint160"
        },
        {
          "internalType": "uint32",
          "name": "secondsOutside",
          "type": "uint32"
        },
        {
          "internalType": "bool",
          "name": "initialized",
          "type": "bool"
        },
        {
          "internalType": "uint128",
          "name": "askLiquidityGross",
          "type": "uint128"
        },
        {
          "internalType": "uint128",
          "name": "bidLiquidityGross",
          "type": "uint128"
        },
        {
          "internalType": "uint128",
          "name": "askNumCross",
          "type": "uint128"
        },
        {
          "internalType": "uint128",
          "name": "bidNumCross",
          "type": "uint128"
        }
      ],
      "stateMutability": "view",
      "type": "function"
    },
    {
      "inputs": [
        {
          "internalType": "address",
          "name": "recipient",
          "type": "address"
        },
        {
          "internalType": "bool",
          "name": "moveUp",
          "type": "bool"
        },
        {
          "internalType": "int256",
          "name": "amountSpecified",
          "type": "int256"
        },
        {
          "internalType": "uint256",
          "name": "priceLimit",
          "type": "uint256"
        },
        {
          "internalType": "bytes",
          "name": "data",
          "type": "bytes"
        }
      ],
      "name": "trade",
      "outputs": [
        {
          "internalType": "uint256",
          "name": "amountIn",
          "type": "uint256"
        },
        {
          "internalType": "uint256",
          "name": "amountOut",
          "type": "uint256"
        }
      ],
      "stateMutability": "nonpayable",
      "type": "function"
    },
    {
      "inputs": [
        {
          "internalType": "uint256",
          "name": "p2",
          "type": "uint256"
        },
        {
          "internalType": "uint256",
          "name": "p1",
          "type": "uint256"
        },
        {
          "internalType": "uint256",
          "name": "L",
          "type": "uint256"
        }
      ],
      "name": "tradeGivenLiquidity",
      "outputs": [
        {
          "internalType": "uint256",
          "name": "",
          "type": "uint256"
        }
      ],
      "stateMutability": "pure",
      "type": "function"
    },
    {
      "inputs": [],
      "name": "tradeToken",
      "outputs": [
        {
          "internalType": "address",
          "name": "",
          "type": "address"
        }
      ],
      "stateMutability": "view",
      "type": "function"
    },
    {
      "inputs": [
        {
          "internalType": "uint16",
          "name": "pointLower",
          "type": "uint16"
        },
        {
          "internalType": "uint16",
          "name": "pointUpper",
          "type": "uint16"
        },
        {
          "internalType": "uint128",
          "name": "amount",
          "type": "uint128"
        },
        {
          "internalType": "bytes",
          "name": "data",
          "type": "bytes"
        }
      ],
      "name": "withdrawLiquidity",
      "outputs": [],
      "stateMutability": "nonpayable",
      "type": "function"
    },
    {
      "inputs": [
        {
          "internalType": "uint256",
          "name": "curPrice",
          "type": "uint256"
        },
        {
          "internalType": "uint256",
          "name": "b",
          "type": "uint256"
        },
        {
          "internalType": "uint256",
          "name": "a",
          "type": "uint256"
        }
      ],
      "name": "xMax",
      "outputs": [
        {
          "internalType": "uint256",
          "name": "",
          "type": "uint256"
        }
      ],
      "stateMutability": "pure",
      "type": "function"
    },
    {
      "inputs": [
        {
          "internalType": "uint256",
          "name": "curPrice",
          "type": "uint256"
        },
        {
          "internalType": "uint256",
          "name": "b",
          "type": "uint256"
        },
        {
          "internalType": "uint256",
          "name": "a",
          "type": "uint256"
        }
      ],
      "name": "xMaxRoundUp",
      "outputs": [
        {
          "internalType": "uint256",
          "name": "",
          "type": "uint256"
        }
      ],
      "stateMutability": "pure",
      "type": "function"
    },
    {
      "inputs": [
        {
          "internalType": "uint256",
          "name": "curPrice",
          "type": "uint256"
        },
        {
          "internalType": "bool",
          "name": "moveUp",
          "type": "bool"
        }
      ],
      "name": "yInt",
      "outputs": [
        {
          "internalType": "uint256",
          "name": "",
          "type": "uint256"
        }
      ],
      "stateMutability": "pure",
      "type": "function"
    }
  ],
  "bytecode": "0x6101406040523480156200001257600080fd5b50604051620058f0380380620058f08339810160408190526200003591620000e6565b6001600160a01b0380821660e052821661010052600060a081905260c081905261012052818162000070670de0b6b3a764000060646200011e565b600280546001600160801b0319166001600160801b0392909216919091179055505033608052600880546001600160a01b03199081166001600160a01b039485161790915560098054909116919092161790556200015c565b80516001600160a01b0381168114620000e157600080fd5b919050565b60008060408385031215620000fa57600080fd5b6200010583620000c9565b91506200011560208401620000c9565b90509250929050565b60006001600160801b03828116848216811515828404821116156200015357634e487b7160e01b600052601160045260246000fd5b02949350505050565b60805160a05160c05160e0516101005161012051615713620001dd6000396000610aa9015260008181610a820152818161172801526119d8015260008181610ae30152818161174e01526119fe01526000610a5b015260008181610b9801526110f10152600081816108500152818161225401526134dc01526157136000f3fe608060405234801561001057600080fd5b50600436106103b95760003560e01c80637f1d9ae6116101f4578063b501c2841161011a578063ddca3f43116100ad578063e7c3614f1161007c578063e7c3614f14610c14578063f83d08ba14610c27578063f9734a2414610c2f578063fc68521a14610c4257600080fd5b8063ddca3f4314610b93578063e37699c914610bce578063e6277e5514610be1578063e62f558514610bf457600080fd5b8063c55dae63116100e9578063c55dae6314610a7d578063d0c93a7c14610aa4578063d83678ac14610ade578063dcc3442914610b0557600080fd5b8063b501c2841461090e578063b9033a3914610921578063c3e9c98514610a43578063c45a015514610a5657600080fd5b80639b60808911610192578063ae0f28f411610161578063ae0f28f4146108c1578063af0d37bc146108d5578063b04a69fd146108e8578063b29d9b6e146108fb57600080fd5b80639b60808914610885578063a74d74d414610898578063aaf5eb68146108ab578063ad066f9a146108ba57600080fd5b806384529be5116101ce57806384529be5146108085780638ce26999146108385780638da5cb5b1461084b5780639314b03f1461087257600080fd5b80637f1d9ae6146107cf5780637fb57006146107e257806380c0c3e7146107f557600080fd5b80633850c7bd116102e4578063514ea4bf11610277578063659a544a11610246578063659a544a1461076557806367f239dd1461076e5780636ed75596146107995780637c546aa6146107bc57600080fd5b8063514ea4bf1461066b57806355f0ac6c14610731578063578c8579146107445780635bfa896a1461075757600080fd5b806342b6c9fb116102b357806342b6c9fb1461061f57806342bc5292146106325780634970aa88146106455780634a3ca7171461065857600080fd5b80633850c7bd1461055d5780633d718da0146105c95780633df0fec0146105f9578063402d44fb1461060c57600080fd5b8063159054ea1161035c5780632130ce0d1161032b5780632130ce0d146104e15780632353b18e14610511578063302097c81461053757806332530d7f1461054a57600080fd5b8063159054ea146104915780631a6865021461049a5780631d2637ab146104c55780631dae2436146104ce57600080fd5b80630f1489c6116103985780630f1489c614610415578063119c08b51461044357806311e715d6146104635780631376ff3e1461047e57600080fd5b80624b2045146103be578063013cbdf6146103eb578063098bcc5614610402575b600080fd5b6103d16103cc366004614adc565b610c66565b604080519283526020830191909152015b60405180910390f35b610400600280546001600160801b0319169055565b005b6103d1610410366004614b7d565b6113f8565b610428610423366004614be8565b61151d565b6040805161ffff9384168152929091166020830152016103e2565b610456610451366004614c12565b61155a565b6040516103e29190614c2d565b6001546001600160a01b03165b6040519081526020016103e2565b61047061048c366004614c75565b6115f3565b61047061271081565b6002546104ad906001600160801b031681565b6040516001600160801b0390911681526020016103e2565b61047060075481565b6104006104dc366004614ccd565b611805565b6104f46104ef366004614c75565b61185b565b604080519283526001600160801b039091166020830152016103e2565b61052461051f366004614ccd565b611ae4565b60405161ffff90911681526020016103e2565b610400610545366004614ce6565b611b10565b6103d1610558366004614d24565b611d16565b600154610592906001600160a01b0381169061ffff600160a01b8204169060ff600160b01b8204811691600160b81b90041684565b604080516001600160a01b03909516855261ffff909316602085015260ff90911691830191909152151560608201526080016103e2565b6104006105d7366004614d6b565b600280546001600160801b0319166001600160801b0392909216919091179055565b6103d1610607366004614adc565b611f27565b6104ad61061a366004614d88565b611fb5565b61047061062d366004614d24565b612075565b610400610640366004614c12565b612252565b6103d1610653366004614dc8565b6122d8565b610470610666366004614e40565b612456565b6106d6610679366004614ccd565b600460208190526000918252604090912080546001820154600283015460038401549484015460058501546006909501546001600160801b0380861697600160801b96879004821697828716979096048216959190941693929189565b604080516001600160801b039a8b168152988a1660208a015296891696880196909652938716606087015295909116608085015260a084015260c083019390935260e0820192909252610100810191909152610120016103e2565b61052461073f366004614be8565b612473565b610400610752366004614dc8565b6124ba565b610470662386f26fc1000081565b61047060065481565b600554610781906001600160a01b031681565b6040516001600160a01b0390911681526020016103e2565b6107ac6107a7366004614d24565b6126c2565b60405190151581526020016103e2565b6104006107ca366004614e6c565b61277d565b6103d16107dd366004614ea1565b6129de565b6103d16107f0366004614e40565b612aed565b610470610803366004614eec565b612ccd565b61081b610816366004614f18565b612d0b565b6040805193845291151560208401521515908201526060016103e2565b610781610846366004614f4b565b612ec8565b6107817f000000000000000000000000000000000000000000000000000000000000000081565b610470610880366004614eec565b612ee7565b6104ad610893366004614d24565b612efd565b6104706108a6366004614f66565b612f52565b610470670de0b6b3a764000081565b6000610470565b6104706108cf366004614f4b565b50600090565b6103d16108e3366004614f8b565b612faa565b6104706108f6366004614eec565b613117565b610470610909366004614eec565b61314d565b61047061091c366004614e6c565b613163565b6109bf61092f366004614f4b565b60036020819052600091825260409091208054600182015460028301549383015460048401546005909401546001600160801b0380851696600160801b95869004600f0b9694959094600685900b94600160381b81046001600160a01b031694600160d81b820463ffffffff1694600160f81b90920460ff1693828416938190048316928083169291909104168c565b604080516001600160801b039d8e168152600f9c909c0b60208d01528b019990995260608a019790975260069590950b60808901526001600160a01b0390931660a088015263ffffffff90911660c0870152151560e086015285166101008501528416610120840152831661014083015291909116610160820152610180016103e2565b6107ac610a51366004614ff5565b61319a565b6107817f000000000000000000000000000000000000000000000000000000000000000081565b6107817f000000000000000000000000000000000000000000000000000000000000000081565b610acb7f000000000000000000000000000000000000000000000000000000000000000081565b60405160029190910b81526020016103e2565b6107817f000000000000000000000000000000000000000000000000000000000000000081565b610b18610b13366004615031565b613204565b6040516103e2919081516001600160801b0390811682526020808401518216908301526040808401518216908301526060808401518216908301526080808401519091169082015260a0808301519082015260c0808301519082015260e0808301519082015261010091820151918101919091526101200190565b610bba7f000000000000000000000000000000000000000000000000000000000000000081565b60405162ffffff90911681526020016103e2565b610470610bdc366004614e40565b6132db565b610400610bef366004614e40565b6132e9565b610c07610c02366004614c12565b61340c565b6040516103e2919061506b565b610470610c22366004614eec565b613492565b6104006134da565b610470610c3d366004614eec565b61355f565b610524610c50366004614c12565b600c6020526000908152604090205461ffff1681565b60055460009081906001600160a01b0316331480610c8357503330145b610ca85760405162461bcd60e51b8152600401610c9f906150c2565b60405180910390fd5b60005460ff1615610ccb5760405162461bcd60e51b8152600401610c9f906150e5565b6000805460ff1916600117905560408051808201909152600f81526e2d2d2d4e65772054726164652d2d2d60881b6020820152610d07906135a0565b60408051608080820183526001546001600160a01b03808216845261ffff600160a01b830416602080860182905260ff600160b01b8504811687890152600160b81b90940490931615156060808701919091528651610100810188528d81526000948101859052865190931696830196909652948101949094529192662386f26fc10000929181018b610d9c57600754610da0565b6006545b8152600060208083018290526002546001600160801b03166040808501829052606094850191909152805193840181528284529083018290528281018290528301519293509091908b1390610df590856135e6565b8015610dff57508b155b15610e4f57600183604001818151610e179190615120565b9052506040830151610e2890611ae4565b61ffff16606084018190526001805461ffff60a01b1916600160a01b830217905560208601525b825115801590610e63575089836040015114155b156112bd57610ebf60405180610100016040528060008152602001600061ffff1681526020016000151581526020016000815260200160008152602001600081526020016000815260200160006001600160801b031681525090565b604084015181526060840151610ed690868f613163565b60608201528c610ef65760018460600151610ef19190615138565b610f06565b6060840151610f0690600161515b565b61ffff1660208201526060840151610f20906003906135fa565b6001600160801b031660e082015281610f5d57610f588160e001518560c00151610f4a9190615181565b6001600160801b0316613709565b610f82565b610f828160e001518560c00151610f749190615181565b6001600160801b0316613740565b83526040840151610f93908e612f52565b60408085018290528501518451610faa929061314d565b836020018181525050610fdc604051806040016040528060088152602001675f5f5f5f5f5f5f5f60c01b8152506135a0565b61100a60405180604001604052806008815260200167435552505249434560c01b8152508560400151613777565b6110566040518060400160405280601e81526020017f74726164696e673b206c69717569646974792c20616d6f756e746c65667400008152508560c001516001600160801b0316613777565b835161106a90611065906151a3565b6137c0565b6110b66040518060400160405280601881526020017f6e65787470726963656c696d69742f706f696e746e65787400000000000000008152508260600151836020015161ffff16613805565b6110dd604051806040016040528060018152602001606160f81b8152508460000151613777565b6111168460400151826060015186600001517f00000000000000000000000000000000000000000000000000000000000000008761384c565b60c085015260a08401908152608084019182526040808801939093528251808401909352600e83526d185b5bdd5b9d1a5b985b991bdd5d60921b602084015290519051611164929190613805565b6111926040518060400160405280600381526020016239963160e91b81525084602001518560400151613805565b81156111b4576080810151845185906111ac9083906151c0565b9052506111cc565b6080810151845185906111c89083906151ff565b9052505b8060a00151846020018181516111e29190615120565b90525060c08401516001600160801b0316156112295760c08085015190820151611214916001600160801b0316613a6e565b846080018181516112259190615120565b9052505b8060600151846040015114156112b75760e08101516001600160801b03161561125e57606084015161125e906003908f613a83565b602081015160065460075460009261127892600392613b7a565b90508d61128b5761128881615240565b90505b6112998560c0015182611fb5565b6001600160801b031660c086015250602081015161ffff1660608501525b50610e4f565b6112ca8360400151613bcd565b600180546001600160a01b0319166001600160a01b03929092169190911790556020850151606084015161ffff9182169116146113275760608301516001805461ffff909216600160a01b0261ffff60a01b199092169190911790555b8260c001516001600160801b03168360e001516001600160801b03161461136d5760c0830151600280546001600160801b0319166001600160801b039092169190911790555b8b1561137c5760808301516006555b806113ad5761271083602001516113939190615120565b835161139e8d6151a3565b6113a891906151ff565b6113da565b8b6113c85782516113be908c6151c0565b83602001516113da565b82516113d4908c6151c0565b83602001515b6000805460ff19169055909e909d509b505050505050505050505050565b60055460009081906001600160a01b031633148061141557503330145b6114315760405162461bcd60e51b8152600401610c9f906150c2565b60005460ff16156114545760405162461bcd60e51b8152600401610c9f906150e5565b6000805460ff1916600117815561146e6004898989613be8565b90508060050154856001600160801b03161161149357846001600160801b0316611499565b80600501545b92508060060154846001600160801b0316116114be57836001600160801b03166114c4565b80600601545b915082156114e657828160050160008282546114e09190615270565b90915550505b811561150657818160060160008282546115009190615270565b90915550505b506000805460ff1916905590969095509350505050565b600a602052816000526040600020818154811061153957600080fd5b60009182526020909120015461ffff80821693506201000090910416905082565b6001600160a01b0381166000908152600b6020908152604091829020805483518184028101840190945280845260609391928391908301828280156115e657602002820191906000526020600020906000905b82829054906101000a900461ffff1661ffff16815260200190600201906020826001010492830192600103820291508084116115ad5790505b5050505050915050919050565b6005546000906001600160a01b031633148061160e57503330145b61162a5760405162461bcd60e51b8152600401610c9f906150c2565b60005460ff161561164d5760405162461bcd60e51b8152600401610c9f906150e5565b6000805460ff191660019081179091555461ffff851690611676906001600160a01b0316611ae4565b61ffff1614156116d45760405162461bcd60e51b815260206004820152602360248201527f43616e277420726564756365206f7264657220666f722063757272656e74207460448201526269636b60e81b6064820152608401610c9f565b60006116f086866116e681600161515b565b6004929190613be8565b90506117086116fe85615240565b8290856000613c53565b61171f8561171586615240565b6003919086613d28565b60008361174c577f000000000000000000000000000000000000000000000000000000000000000061176e565b7f00000000000000000000000000000000000000000000000000000000000000005b9050836117b5576117b061178661084688600161515b565b6001600160a01b031661179888612ec8565b6001600160a01b0316876001600160801b031661355f565b6117f0565b6117f06117c661084688600161515b565b6001600160a01b03166117d888612ec8565b6001600160a01b0316876001600160801b0316612ccd565b6000805460ff19169055979650505050505050565b61180e81611ae4565b6001805461ffff92909216600160a01b0261ffff60a01b1990921691909117905561183881613bcd565b600180546001600160a01b0319166001600160a01b039290921691909117905550565b60055460009081906001600160a01b031633148061187857503330145b6118945760405162461bcd60e51b8152600401610c9f906150c2565b60005460ff16156118b75760405162461bcd60e51b8152600401610c9f906150e5565b6000805460ff191660011790558280156118ed57506001546001600160a01b03166118e186612ec8565b6001600160a01b031611155b1561192b5760405162461bcd60e51b815260206004820152600e60248201526d61736b2062656c6f77207072696560901b6044820152606401610c9f565b8215801561195557506001546001600160a01b031661194986612ec8565b6001600160a01b031610155b156119945760405162461bcd60e51b815260206004820152600f60248201526e626964732061626f7665207072696560881b6044820152606401610c9f565b60006119a687876116e681600161515b565b90506119b460038786613df9565b91506119c281868685613c53565b6119cf6003878787613d28565b6000846119fc577f0000000000000000000000000000000000000000000000000000000000000000611a1e565b7f00000000000000000000000000000000000000000000000000000000000000005b905084611a6557611a60611a3661084689600161515b565b6001600160a01b0316611a4889612ec8565b6001600160a01b0316886001600160801b031661355f565b611aa0565b611aa0611a7661084689600161515b565b6001600160a01b0316611a8889612ec8565b6001600160a01b0316886001600160801b0316612ccd565b9350611acd60405180604001604052806009815260200168185b5bdd5b9d189a5960ba1b81525085613777565b50506000805460ff19169055909590945092505050565b6000670de0b6b3a7640000611b0083662386f26fc10000613a6e565b611b0a919061529d565b92915050565b60008030632130ce0d3385611b4d611b2c61084683600161515b565b6001600160a01b0316611b3e89612ec8565b6001600160a01b03168a613117565b89156040518563ffffffff1660e01b8152600401611b6e94939291906152b1565b60408051808303816000875af1158015611b8c573d6000803e3d6000fd5b505050506040513d601f19601f82011682018060405250810190611bb091906152e6565b915091508415611c37576008546040516323b872dd60e01b81526001600160a01b03909116906323b872dd90611bee9033903090879060040161530b565b6020604051808303816000875af1158015611c0d573d6000803e3d6000fd5b505050506040513d601f19601f82011682018060405250810190611c31919061532f565b50611cb0565b6009546040516323b872dd60e01b81526001600160a01b03909116906323b872dd90611c6b9033903090879060040161530b565b6020604051808303816000875af1158015611c8a573d6000803e3d6000fd5b505050506040513d601f19601f82011682018060405250810190611cae919061532f565b505b336000818152600b6020908152604080832080546001810182559084528284206010820401805461ffff8a81166002600f909516949094026101000a848102910219909116179055938352600c9091529020805461ffff191690911790555b5050505050565b60055460009081906001600160a01b0316331480611d3357503330145b611d4f5760405162461bcd60e51b8152600401610c9f906150c2565b60005460ff1615611d725760405162461bcd60e51b8152600401610c9f906150e5565b6000805460ff1916600190811782556040805160808101825282546001600160a01b038116825261ffff600160a01b8204166020830152600160b01b810460ff90811693830193909352600160b81b9004909116151560608201529190611de290889088906116e690829061515b565b60015490915061ffff871690611e00906001600160a01b0316611ae4565b61ffff1614611e455760405162461bcd60e51b81526020600482015260116024820152704e6f742063757272656e7420707269636560781b6044820152606401610c9f565b600085611e66576001820154600160801b90046001600160801b0316611e75565b60018201546001600160801b03165b9050611e8d611e8382615240565b8390886000613c53565b611ea487611e9a83615240565b6003919089613d28565b611edb611eb561084689600161515b565b6001600160a01b031684600001516001600160a01b0316836001600160801b0316612ccd565b9350611f0f83600001516001600160a01b0316611ef789612ec8565b6001600160a01b0316836001600160801b031661355f565b6000805460ff19169055989397509295505050505050565b604051624b204560e01b815260009081903090624b204590611f57908b908b908b908b908b908b90600401615375565b60408051808303816000875af1158015611f75573d6000803e3d6000fd5b505050506040513d601f19601f82011682018060405250810190611f9991906153b7565b9092509050611faa8882848a613e51565b965096945050505050565b60008082600f0b1215612022576001600160801b038316611fd583615240565b611fdf90856153db565b9150816001600160801b03161061201d5760405162461bcd60e51b81526020600482015260026024820152614c5360f01b6044820152606401610c9f565b611b0a565b6001600160801b0383166120368385615181565b9150816001600160801b03161015611b0a5760405162461bcd60e51b81526020600482015260026024820152614c4160f01b6044820152606401610c9f565b6005546000906001600160a01b031633148061209057503330145b6120ac5760405162461bcd60e51b8152600401610c9f906150c2565b60005460ff16156120cf5760405162461bcd60e51b8152600401610c9f906150e5565b6000805460ff1916600190811782556120f190869086906116e690829061515b565b9050600061210160038686613df9565b905060008461211a5782546001600160801b031661212d565b8254600160801b90046001600160801b03165b9050806001600160801b0316826001600160801b0316116121865760405162461bcd60e51b8152602060048201526013602482015272141bdcda5d1a5bdb881b9bdd08199a5b1b1959606a1b6044820152606401610c9f565b6000856121a7576001840154600160801b90046001600160801b03166121b6565b60018401546001600160801b03165b905085156121e8576121e16121cf61084689600161515b565b6001600160a01b0316611ef789612ec8565b9450612226565b6122236121f961084689600161515b565b6001600160a01b031661220b89612ec8565b6001600160a01b0316836001600160801b0316612ccd565b94505b61223c61223282615240565b8590886000613c53565b50506000805460ff191690555090949350505050565b7f00000000000000000000000000000000000000000000000000000000000000006001600160a01b031633146122b65760405162461bcd60e51b81526020600482015260096024820152682737ba1037bbb732b960b91b6044820152606401610c9f565b600580546001600160a01b0319166001600160a01b0392909216919091179055565b600080600080306001600160a01b031663af0d37bc338b8b8b8b8b6040518763ffffffff1660e01b8152600401612314969594939291906153fb565b60408051808303816000875af1158015612332573d6000803e3d6000fd5b505050506040513d601f19601f8201168201806040525081019061235691906153b7565b6008546040516323b872dd60e01b81529294509092506001600160a01b0316906323b872dd9061238e9033903090879060040161530b565b6020604051808303816000875af11580156123ad573d6000803e3d6000fd5b505050506040513d601f19601f820116820180604052508101906123d1919061532f565b506009546040516323b872dd60e01b81526001600160a01b03909116906323b872dd906124069033903090869060040161530b565b6020604051808303816000875af1158015612425573d6000803e3d6000fd5b505050506040513d601f19601f82011682018060405250810190612449919061532f565b5050509550959350505050565b60006124636003846135fa565b6001600160801b03169392505050565b600b602052816000526040600020818154811061248f57600080fd5b9060005260206000209060109182820401919006600202915091509054906101000a900461ffff1681565b604051633f8ecd7360e11b815233600482015261ffff8087166024830152851660448201526001600160801b038416606482015260009081903090637f1d9ae69060840160408051808303816000875af115801561251c573d6000803e3d6000fd5b505050506040513d601f19601f8201168201806040525081019061254091906153b7565b6040516304c5e62b60e11b815233600482015261ffff808b166024830152891660448201526001600160801b036064820181905260848201529193509150309063098bcc569060a40160408051808303816000875af11580156125a7573d6000803e3d6000fd5b505050506040513d601f19601f820116820180604052508101906125cb91906153b7565b505060085460405163a9059cbb60e01b81526001600160a01b039091169063a9059cbb906125ff9033908690600401615441565b6020604051808303816000875af115801561261e573d6000803e3d6000fd5b505050506040513d601f19601f82011682018060405250810190612642919061532f565b5060095460405163a9059cbb60e01b81526001600160a01b039091169063a9059cbb906126759033908590600401615441565b6020604051808303816000875af1158015612694573d6000803e3d6000fd5b505050506040513d601f19601f820116820180604052508101906126b8919061532f565b5050505050505050565b6000806126d585856116e681600161515b565b905060006126e560038686613df9565b90506000846126fe5782546001600160801b0316612711565b8254600160801b90046001600160801b03165b9050600085612734576001840154600160801b90046001600160801b0316612743565b60018401546001600160801b03165b90506000816001600160801b031611801561276f5750816001600160801b0316836001600160801b0316115b9450505050505b9392505050565b801561292457600030631376ff3e33866127b86127b36127a161084684600161515b565b6001600160a01b0316611b3e8b612ec8565b613ff4565b60016040518563ffffffff1660e01b81526004016127d994939291906152b1565b6020604051808303816000875af11580156127f8573d6000803e3d6000fd5b505050506040513d601f19601f8201168201806040525081019061281c919061545a565b6040805180820182526002815261333360f11b602082015260095491516370a0823160e01b81523060048201529293506128af92909184916001600160a01b03909116906370a0823190602401602060405180830381865afa158015612886573d6000803e3d6000fd5b505050506040513d601f19601f820116820180604052508101906128aa919061545a565b613805565b60095460405163a9059cbb60e01b81526001600160a01b039091169063a9059cbb906128e19033908590600401615441565b6020604051808303816000875af1158015612900573d6000803e3d6000fd5b505050506040513d601f19601f82011682018060405250810190611d0f919061532f565b600030631376ff3e33866129426127b36127a161084684600161515b565b60006040518563ffffffff1660e01b815260040161296394939291906152b1565b6020604051808303816000875af1158015612982573d6000803e3d6000fd5b505050506040513d601f19601f820116820180604052508101906129a6919061545a565b60085460405163a9059cbb60e01b81529192506001600160a01b03169063a9059cbb906128e19033908590600401615441565b505050565b60055460009081906001600160a01b03163314806129fb57503330145b612a175760405162461bcd60e51b8152600401610c9f906150c2565b60005460ff1615612a3a5760405162461bcd60e51b8152600401610c9f906150e5565b6000805460ff19166001178155604080516080810182526001600160a01b038916815261ffff808916602083015287169181019190915281908190612a909060608101612a8689615240565b600f0b905261400a565b9250925092506000821180612aa55750600081115b15612ad557818360050154612aba9190615120565b818460060154612aca9190615120565b600685015560058401555b6000805460ff19169055909890975095505050505050565b6000808215612b6a576040516332530d7f60e01b815230906332530d7f90612b1e9033908890600090600401615473565b60408051808303816000875af1158015612b3c573d6000803e3d6000fd5b505050506040513d601f19601f82011682018060405250810190612b6091906153b7565b9092509050612bda565b6040516332530d7f60e01b815230906332530d7f90612b929033908890600190600401615473565b60408051808303816000875af1158015612bb0573d6000803e3d6000fd5b505050506040513d601f19601f82011682018060405250810190612bd491906153b7565b90925090505b60085460405163a9059cbb60e01b81526001600160a01b039091169063a9059cbb90612c0c9033908690600401615441565b6020604051808303816000875af1158015612c2b573d6000803e3d6000fd5b505050506040513d601f19601f82011682018060405250810190612c4f919061532f565b5060095460405163a9059cbb60e01b81526001600160a01b039091169063a9059cbb90612c829033908590600401615441565b6020604051808303816000875af1158015612ca1573d6000803e3d6000fd5b505050506040513d601f19601f82011682018060405250810190612cc5919061532f565b509250929050565b600082841015612cef5760405162461bcd60e51b8152600401610c9f9061549a565b612d0382612cfd8587615270565b90614282565b949350505050565b6000808080612d2085876116e681600161515b565b604080516101208101825282546001600160801b038082168352600160801b9182900481166020840152600185015480821694840194909452920482166060820181905260028401549092166080820152600383015460a0820152600483015460c0820152600583015460e0820152600690920154610100830152909150600090612daf578160400151612db5565b81606001515b905060008083606001516001600160801b031611612e0d57612e08612dde6108468a600161515b565b6001600160a01b0316612df08a612ec8565b6001600160a01b0316846001600160801b0316612ccd565b612e48565b612e48612e1e6108468a600161515b565b6001600160a01b0316612e308a612ec8565b6001600160a01b0316846001600160801b031661355f565b905060008084604001516001600160801b0316119050612ea96040518060400160405280600e81526020016d6c696d6974506f736974696f6e7360901b81525085604001516001600160801b031686606001516001600160801b0316613805565b6000612eb68a838b61319a565b92975091955093505050509250925092565b6000611b0a612ee2662386f26fc1000061ffff85166154bd565b613bcd565b6000612d0382612ef78587615270565b90614297565b600081612f2d57612f1484846116e681600161515b565b60010154600160801b90046001600160801b0316612d03565b612f3d84846116e681600161515b565b600101546001600160801b0316949350505050565b600080612f5e84611ae4565b905082158015612f795750612f7761ffff8216856154dc565b155b612f8b57612f8681612ec8565b612f99565b612f99610846600183615138565b6001600160a01b0316949350505050565b60055460009081906001600160a01b0316331480612fc757503330145b612fe35760405162461bcd60e51b8152600401610c9f906150c2565b60005460ff16156130065760405162461bcd60e51b8152600401610c9f906150e5565b6000805460ff191660011790556001600160801b0385166130545760405162461bcd60e51b81526020600482015260086024820152670c08185b5bdd5b9d60c21b6044820152606401610c9f565b61309160405180608001604052808a6001600160a01b031681526020018961ffff1681526020018861ffff16815260200187600f0b81525061400a565b6001600160a01b038b166000908152600a60209081526040808320815180830190925261ffff8e811683528d811683850190815282546001810184559286529390942091519101805492518416620100000263ffffffff19909316919093161717905590935091506131009050565b6000805460ff191690559097909650945050505050565b6000828410156131395760405162461bcd60e51b8152600401610c9f9061549a565b612d036131468486615270565b8390613a6e565b6000612d038261315d8587615270565b90613a6e565b6000811561318c578261317785600161515b565b61ffff1661318591906154bd565b9050612776565b6131858361ffff86166154bd565b6000806131ad83866116e681600161515b565b905060006131bd60038787613df9565b90506000856131d65782546001600160801b03166131e9565b8254600160801b90046001600160801b03165b6001600160801b039081169216919091119695505050505050565b6040805161012081018252600080825260208201819052918101829052606081018290526080810182905260a0810182905260c0810182905260e0810182905261010081019190915261325a6004858585613be8565b604080516101208101825282546001600160801b038082168352600160801b918290048116602084015260018501548082169484019490945292048216606082015260028301549091166080820152600382015460a0820152600482015460c0820152600582015460e0820152600690910154610100820152949350505050565b600061246360038484613df9565b6040516342b6c9fb60e01b815260009030906342b6c9fb906133149033908790871590600401615473565b6020604051808303816000875af1158015613333573d6000803e3d6000fd5b505050506040513d601f19601f82011682018060405250810190613357919061545a565b905081156133da5760095460405163a9059cbb60e01b81526001600160a01b039091169063a9059cbb906133919033908590600401615441565b6020604051808303816000875af11580156133b0573d6000803e3d6000fd5b505050506040513d601f19601f820116820180604052508101906133d4919061532f565b50505050565b60085460405163a9059cbb60e01b81526001600160a01b039091169063a9059cbb906133919033908590600401615441565b6001600160a01b0381166000908152600a60209081526040808320805482518185028101850190935280835260609492939192909184015b82821015613487576000848152602090819020604080518082019091529084015461ffff8082168352620100009091041681830152825260019092019101613444565b505050509050919050565b6000828410156134b45760405162461bcd60e51b8152600401610c9f9061549a565b612d0361314660026134c68688615120565b6134d0919061529d565b612cfd8688615270565b7f00000000000000000000000000000000000000000000000000000000000000006001600160a01b0316331461353e5760405162461bcd60e51b81526020600482015260096024820152682737ba1037bbb732b960b91b6044820152606401610c9f565b6001805460ff60b81b198116600160b81b9182900460ff1615909102179055565b6000828410156135815760405162461bcd60e51b8152600401610c9f9061549a565b612d0361358f858585612ccd565b600061359a85613740565b866142ac565b6135e3816040516024016135b4919061553d565b60408051601f198184030181529190526020810180516001600160e01b031663104c13eb60e21b1790526142fa565b50565b60006135f282846154dc565b159392505050565b61ffff811660009081526020838152604080832081516101808101835281546001600160801b038082168352600160801b91829004600f0b95830195909552600183015493820193909352600282015460608201526003820154600681900b6080830152600160381b81046001600160a01b031660a0830152600160d81b810463ffffffff1660c0830152600160f81b900460ff16151560e082015260048201548085166101008301819052908490048516610120830152600590920154808516610140830152929092049092166101608201529015806136e757506101208101516001600160801b0316155b6136f3576136f3615550565b806101200151816101000151612d039190615181565b600081156137235761201d670de0b6b3a764000083614297565b611b0a613731836001615120565b670de0b6b3a764000090614297565b6000811561375a5761201d670de0b6b3a764000083613a6e565b611b0a613768836001615120565b670de0b6b3a764000090613a6e565b6137bc828260405160240161378d929190615566565b60408051601f198184030181529190526020810180516001600160e01b03166309710a9d60e41b1790526142fa565b5050565b6135e3816040516024016137d691815260200190565b60408051601f198184030181529190526020810180516001600160e01b031663f5b1bba960e01b1790526142fa565b6129d983838360405160240161381d93929190615588565b60408051601f198184030181529190526020810180516001600160e01b031663969cdd0360e01b1790526142fa565b6000808080888810158188128015906139c15781156138fe5761387f89886020015189600001518a60400151600161431b565b965093508986106138de5786518a965061389d9061315d8d89615270565b93506138d76138af89620f42406155ad565b62ffffff16620f42406138d0878b602001518c600001518d604001516142ac565b9190614462565b945061398c565b6138d76138ee89620f42406155ad565b8a9062ffffff16620f4240614462565b61392261390f8a8960200151614481565b6020890151895160408b0151600061431b565b965093508986116139795786518a96506139409061315d888e615270565b945061395785600089600001518a604001516142ac565b93506138d761396989620f42406155ad565b869062ffffff16620f4240614462565b6139896138ee89620f42406155ad565b94505b6139ba6139af620f42406139a08b826155ad565b62ffffff8c8116929116614462565b8690620f4240614462565b9250613a60565b8115613a3e5760006139d28a6151a3565b88519091508c906139e39083614498565b6139ed9190615120565b96508a8710613a2557613a058b8d8a6000015161314d565b8b97509550612710613a178783615270565b11613a20578095505b613a29565b8095505b613a3a8660008a600001518f6144ad565b9450505b613a518462ffffff8a16620f4240614462565b9250613a5d8385615120565b93505b505095509550955095915050565b600061277683670de0b6b3a764000084614462565b61ffff821660009081526020849052604090208115613b1f576004810180546001600160801b03191690556005810180546001600160801b0316906000613ac9836155cb565b91906101000a8154816001600160801b0302191690836001600160801b0316021790555050613b1a604051806040016040528060068152602001657469636b3f3f60d01b8152508461ffff16613777565b6133d4565b6004810180546001600160801b03908116909155600582018054600160801b9004909116906010613b4f836155cb565b91906101000a8154816001600160801b0302191690836001600160801b031602179055505050505050565b61ffff8316600090815260208590526040902080546001820154600160801b909104600f0b9190613bab9085615270565b60018201556002810154613bbf9084615270565b600290910155949350505050565b806001600160a01b0381168114613be357600080fd5b919050565b6040805160609490941b6bffffffffffffffffffffffff191660208086019190915260f093841b6001600160f01b031990811660348701529290931b909116603684015280516018818503018152603890930181528251928201929092206000908152929052902090565b8115613cbd576001840154613c71906001600160801b031684611fb5565b6001850180546001600160801b0319166001600160801b03929092169190911790556000600f84900b1315613b1a5783546001600160801b03808316600160801b0291161784556133d4565b6001840154613cdc90600160801b90046001600160801b031684611fb5565b6001850180546001600160801b03928316600160801b0292169190911790556000600f84900b13156133d45783546001600160801b0319166001600160801b0391909116179092555050565b8015613d915761ffff8316600090815260208590526040902060040154613d58906001600160801b031683611fb5565b61ffff8416600090815260208690526040902060040180546001600160801b0319166001600160801b03929092169190911790556133d4565b61ffff8316600090815260208590526040902060040154613dc290600160801b90046001600160801b031683611fb5565b61ffff8416600090815260208690526040902060040180546001600160801b03928316600160801b02921691909117905550505050565b600081613e2c5761ffff8316600090815260208590526040902060050154600160801b90046001600160801b0316612d03565b505061ffff16600090815260209190915260409020600501546001600160801b031690565b8015613f4a5760095460405163a9059cbb60e01b81526001600160a01b039091169063a9059cbb90613e899087908790600401615441565b6020604051808303816000875af1158015613ea8573d6000803e3d6000fd5b505050506040513d601f19601f82011682018060405250810190613ecc919061532f565b506008546040516323b872dd60e01b81526001600160a01b03909116906323b872dd90613f019087903090879060040161530b565b6020604051808303816000875af1158015613f20573d6000803e3d6000fd5b505050506040513d601f19601f82011682018060405250810190613f44919061532f565b506133d4565b60085460405163a9059cbb60e01b81526001600160a01b039091169063a9059cbb90613f7c9087908790600401615441565b6020604051808303816000875af1158015613f9b573d6000803e3d6000fd5b505050506040513d601f19601f82011682018060405250810190613fbf919061532f565b506009546040516323b872dd60e01b81526001600160a01b03909116906323b872dd906128e19087903090879060040161530b565b806001600160801b0381168114613be357600080fd5b604080516080810182526001546001600160a01b038116825261ffff600160a01b820416602080840182905260ff600160b01b8404811685870152600160b81b9093049092161515606080850191909152855192860151948601519086015160009586958695909461407e949193906144ee565b93508460600151600f0b60001461427a57846020015161ffff16816020015161ffff161015614110576141096140b78660400151612ec8565b6001600160a01b03166140cd8760200151612ec8565b6001600160a01b031660008860600151600f0b12156140fc5787606001516140f490615240565b600f0b612ccd565b8760600151600f0b612ccd565b915061427a565b846040015161ffff16816020015161ffff16101561421d5760025460408601516001600160801b039091169061418b9061414990612ec8565b6001600160a01b031683600001516001600160a01b031660008960600151600f0b121561417e5788606001516140f490615240565b8860600151600f0b612ccd565b92506141e782600001516001600160a01b03166141ab8860200151612ec8565b6001600160a01b031660008960600151600f0b12156141da5788606001516141d290615240565b600f0b61355f565b8860600151600f0b61355f565b93506141f7818760600151611fb5565b600280546001600160801b0319166001600160801b03929092169190911790555061427a565b61427761422d8660400151612ec8565b6001600160a01b03166142438760200151612ec8565b6001600160a01b031660008860600151600f0b121561426a5787606001516141d290615240565b8760600151600f0b61355f565b92505b509193909250565b60006127768383670de0b6b3a7640000614462565b600061277683670de0b6b3a76400008461457a565b60006142b88286614282565b6142e7866142c78760026154bd565b6142d19190615120565b60026142dd878a614282565b612cfd919061529d565b6142f19190615120565b95945050505050565b80516a636f6e736f6c652e6c6f67602083016000808483855afa5050505050565b60008082156143f1576000670de0b6b3a764000060028661433c898b614282565b6143469190615120565b61435091906156ce565b61435a919061529d565b90506000614368878a614282565b6143739060026154bd565b9050600061439c670de0b6b3a764000061438d8486615120565b61439791906154bd565b6145a8565b90506000876143ab8a8c614282565b6143b59190615120565b90506143c58961315d8385615270565b9550876143dc6143d58c89615120565b8b90614282565b6143e69190615120565b945050505050614458565b600060026143ff878a614282565b614409919061529d565b6144138789614282565b61441d9087615120565b6144279190615270565b90506144338882614282565b92508461444a6144438a8a615270565b8890614282565b6144549190615120565b9150505b9550959350505050565b82820281151584158583048514171661447a57600080fd5b0492915050565b6000818311156144915781612776565b5090919050565b60006127768383670de0b6b3a764000061457a565b60006144b98286614498565b6142e7866144c88760026154bd565b6144d29190615120565b60026144de878a614498565b6144e8919061529d565b90614498565b60006144fd6004878787613be8565b60065460075491925090600f85900b1561454a5760065460075461452c916003918a9188918a91906000614681565b5060065460075461454891600391899188918a91906001614681565b505b60008061455c60038a8a898888614788565b909250905061456d85888484614874565b5050505095945050505050565b82820281151584158583048514171661459257600080fd5b6001826001830304018115150290509392505050565b600181600160801b81106145c15760409190911b9060801c5b6801000000000000000081106145dc5760209190911b9060401c5b64010000000081106145f35760109190911b9060201c5b6201000081106146085760089190911b9060101c5b610100811061461c5760049190911b9060081c5b6010811061462f5760029190911b9060041c5b6008811061463e578160011b91505b5080820401600190811c80830401811c80830401811c80830401811c80830401811c80830401811c80830401901c8082048181101561467b578091505b50919050565b61ffff8616600090815260208890526040812080546001600160801b0316826146aa8289611fb5565b6001600160801b0383811615908216158114159550909150156146fd578861ffff168a61ffff16116146e55760018301879055600283018690555b6003830180546001600160f81b0316600160f81b1790555b82546001600160801b0319166001600160801b0382161783558461474357825461473e9061473990600f8b810b91600160801b9004900b6151ff565b614a5d565b614761565b82546147619061473990600f8b810b91600160801b9004900b6151c0565b83546001600160801b03918216600160801b02911617909255509098975050505050505050565b61ffff80861660008181526020899052604080822088851683529082209193849391929184918291908a16106147c9575050600182015460028301546147ed565b60018401546147d89089615270565b91508360020154876147ea9190615270565b90505b6000808b61ffff168b61ffff16101561481157505060018301546002840154614835565b6001850154614820908b615270565b91508460020154896148329190615270565b90505b81614840858c615270565b61484a9190615270565b975080614857848b615270565b6148619190615270565b9650505050505050965096945050505050565b604080516101208101825285546001600160801b038082168352600160801b918290048116602084015260018801548082169484019490945292048216606082015260028601549091166080820152600385015460a0820152600485015460c0820152600585015460e082015260068501546101008201526000600f85900b61494457600082608001516001600160801b0316116149395760405162461bcd60e51b815260206004820152600260248201526104e560f41b6044820152606401610c9f565b506080810151614955565b614952826080015186611fb5565b90505b600061498183608001516001600160801b0316670de0b6b3a76400008560a00151886138d09190615270565b905060006149af84608001516001600160801b0316670de0b6b3a76400008660c00151886138d09190615270565b905086600f0b6000146149da576002880180546001600160801b0319166001600160801b0385161790555b60038801869055600488018590556001600160801b038216151580614a0857506000816001600160801b0316115b156126b857816001600160801b0316886005016000828254614a2a9190615120565b92505081905550806001600160801b0316886006016000828254614a4e9190615120565b90915550505050505050505050565b80600f81900b8114613be357600080fd5b80356001600160a01b0381168114613be357600080fd5b80151581146135e357600080fd5b60008083601f840112614aa557600080fd5b50813567ffffffffffffffff811115614abd57600080fd5b602083019150836020828501011115614ad557600080fd5b9250929050565b60008060008060008060a08789031215614af557600080fd5b614afe87614a6e565b95506020870135614b0e81614a85565b94506040870135935060608701359250608087013567ffffffffffffffff811115614b3857600080fd5b614b4489828a01614a93565b979a9699509497509295939492505050565b803561ffff81168114613be357600080fd5b6001600160801b03811681146135e357600080fd5b600080600080600060a08688031215614b9557600080fd5b614b9e86614a6e565b9450614bac60208701614b56565b9350614bba60408701614b56565b92506060860135614bca81614b68565b91506080860135614bda81614b68565b809150509295509295909350565b60008060408385031215614bfb57600080fd5b614c0483614a6e565b946020939093013593505050565b600060208284031215614c2457600080fd5b61277682614a6e565b6020808252825182820181905260009190848201906040850190845b81811015614c6957835161ffff1683529284019291840191600101614c49565b50909695505050505050565b60008060008060808587031215614c8b57600080fd5b614c9485614a6e565b9350614ca260208601614b56565b92506040850135614cb281614b68565b91506060850135614cc281614a85565b939692955090935050565b600060208284031215614cdf57600080fd5b5035919050565b600080600060608486031215614cfb57600080fd5b8335614d0681614a85565b925060208401359150614d1b60408501614b56565b90509250925092565b600080600060608486031215614d3957600080fd5b614d4284614a6e565b9250614d5060208501614b56565b91506040840135614d6081614a85565b809150509250925092565b600060208284031215614d7d57600080fd5b813561277681614b68565b60008060408385031215614d9b57600080fd5b8235614da681614b68565b91506020830135600f81900b8114614dbd57600080fd5b809150509250929050565b600080600080600060808688031215614de057600080fd5b614de986614b56565b9450614df760208701614b56565b93506040860135614e0781614b68565b9250606086013567ffffffffffffffff811115614e2357600080fd5b614e2f88828901614a93565b969995985093965092949392505050565b60008060408385031215614e5357600080fd5b614e5c83614b56565b91506020830135614dbd81614a85565b600080600060608486031215614e8157600080fd5b614e8a84614b56565b9250602084013591506040840135614d6081614a85565b60008060008060808587031215614eb757600080fd5b614ec085614a6e565b9350614ece60208601614b56565b9250614edc60408601614b56565b91506060850135614cc281614b68565b600080600060608486031215614f0157600080fd5b505081359360208301359350604090920135919050565b60008060408385031215614f2b57600080fd5b614f3483614b56565b9150614f4260208401614a6e565b90509250929050565b600060208284031215614f5d57600080fd5b61277682614b56565b60008060408385031215614f7957600080fd5b823591506020830135614dbd81614a85565b60008060008060008060a08789031215614fa457600080fd5b614fad87614a6e565b9550614fbb60208801614b56565b9450614fc960408801614b56565b93506060870135614fd981614b68565b9250608087013567ffffffffffffffff811115614b3857600080fd5b60008060006060848603121561500a57600080fd5b61501384614b56565b9250602084013561502381614a85565b9150614d1b60408501614a6e565b60008060006060848603121561504657600080fd5b61504f84614a6e565b925061505d60208501614b56565b9150614d1b60408501614b56565b602080825282518282018190526000919060409081850190868401855b828110156150b5578151805161ffff90811686529087015116868501529284019290850190600101615088565b5091979650505050505050565b6020808252600990820152684e6f7420456e74727960b81b604082015260600190565b6020808252600b908201526a4552525f5245454e54525960a81b604082015260600190565b634e487b7160e01b600052601160045260246000fd5b600082198211156151335761513361510a565b500190565b600061ffff838116908316818110156151535761515361510a565b039392505050565b600061ffff8083168185168083038211156151785761517861510a565b01949350505050565b60006001600160801b038083168185168083038211156151785761517861510a565b6000600160ff1b8214156151b9576151b961510a565b5060000390565b60008083128015600160ff1b8501841216156151de576151de61510a565b6001600160ff1b03840183138116156151f9576151f961510a565b50500390565b600080821280156001600160ff1b03849003851316156152215761522161510a565b600160ff1b839003841281161561523a5761523a61510a565b50500190565b600081600f0b6f7fffffffffffffffffffffffffffffff198114156152675761526761510a565b60000392915050565b6000828210156152825761528261510a565b500390565b634e487b7160e01b600052601260045260246000fd5b6000826152ac576152ac615287565b500490565b6001600160a01b0394909416845261ffff9290921660208401526001600160801b031660408301521515606082015260800190565b600080604083850312156152f957600080fd5b825191506020830151614dbd81614b68565b6001600160a01b039384168152919092166020820152604081019190915260600190565b60006020828403121561534157600080fd5b815161277681614a85565b81835281816020850137506000828201602090810191909152601f909101601f19169091010190565b60018060a01b0387168152851515602082015284604082015283606082015260a0608082015260006153ab60a08301848661534c565b98975050505050505050565b600080604083850312156153ca57600080fd5b505080516020909101519092909150565b60006001600160801b03838116908316818110156151535761515361510a565b6001600160a01b038716815261ffff8681166020830152851660408201526001600160801b038416606082015260a0608082018190526000906153ab908301848661534c565b6001600160a01b03929092168252602082015260400190565b60006020828403121561546c57600080fd5b5051919050565b6001600160a01b0393909316835261ffff9190911660208301521515604082015260600190565b602080825260099082015268383934b1b29022a92960b91b604082015260600190565b60008160001904831182151516156154d7576154d761510a565b500290565b6000826154eb576154eb615287565b500690565b6000815180845260005b81811015615516576020818501810151868301820152016154fa565b81811115615528576000602083870101525b50601f01601f19169290920160200192915050565b60208152600061277660208301846154f0565b634e487b7160e01b600052600160045260246000fd5b60408152600061557960408301856154f0565b90508260208301529392505050565b60608152600061559b60608301866154f0565b60208301949094525060400152919050565b600062ffffff8083168185168083038211156151785761517861510a565b60006001600160801b03808316818114156155e8576155e861510a565b6001019392505050565b600181815b80851115612cc55781600019048211156156135761561361510a565b8085161561562057918102915b93841c93908002906155f7565b60008261563c57506001611b0a565b8161564957506000611b0a565b816001811461565f576002811461566957615685565b6001915050611b0a565b60ff84111561567a5761567a61510a565b50506001821b611b0a565b5060208310610133831016604e8410600b84101617156156a8575081810a611b0a565b6156b283836155f2565b80600019048211156156c6576156c661510a565b029392505050565b600061277660ff84168361562d56fea2646970667358221220c8779fceccad28634d2a171809c4f2d70af76558218723cf42dc689cf1060b6464736f6c634300080a0033",
  "linkReferences": {},
  "deployedLinkReferences": {}
}