{
  "_format": "hh-sol-artifact-1",
  "contractName": "SpotPool",
  "sourceName": "src/amm.sol",
  "abi": [
    {
      "inputs": [
        {
          "internalType": "address",
          "name": "_baseToken",
          "type": "address"
        },
        {
          "internalType": "address",
          "name": "_tradeToken",
          "type": "address"
        }
      ],
      "stateMutability": "nonpayable",
      "type": "constructor"
    },
    {
      "inputs": [],
      "name": "PRECISION",
      "outputs": [
        {
          "internalType": "uint256",
          "name": "",
          "type": "uint256"
        }
      ],
      "stateMutability": "view",
      "type": "function"
    },
    {
      "inputs": [],
      "name": "ROUNDLIMIT",
      "outputs": [
        {
          "internalType": "uint256",
          "name": "",
          "type": "uint256"
        }
      ],
      "stateMutability": "view",
      "type": "function"
    },
    {
      "inputs": [
        {
          "internalType": "uint128",
          "name": "x",
          "type": "uint128"
        },
        {
          "internalType": "int128",
          "name": "y",
          "type": "int128"
        }
      ],
      "name": "addDelta",
      "outputs": [
        {
          "internalType": "uint128",
          "name": "z",
          "type": "uint128"
        }
      ],
      "stateMutability": "pure",
      "type": "function"
    },
    {
      "inputs": [
        {
          "internalType": "uint256",
          "name": "p2",
          "type": "uint256"
        },
        {
          "internalType": "uint256",
          "name": "p1",
          "type": "uint256"
        },
        {
          "internalType": "uint256",
          "name": "L",
          "type": "uint256"
        }
      ],
      "name": "baseGivenLiquidity",
      "outputs": [
        {
          "internalType": "uint256",
          "name": "",
          "type": "uint256"
        }
      ],
      "stateMutability": "pure",
      "type": "function"
    },
    {
      "inputs": [],
      "name": "baseToken",
      "outputs": [
        {
          "internalType": "address",
          "name": "",
          "type": "address"
        }
      ],
      "stateMutability": "view",
      "type": "function"
    },
    {
      "inputs": [
        {
          "internalType": "uint16",
          "name": "point",
          "type": "uint16"
        }
      ],
      "name": "bidsLeft",
      "outputs": [
        {
          "internalType": "uint256",
          "name": "",
          "type": "uint256"
        }
      ],
      "stateMutability": "view",
      "type": "function"
    },
    {
      "inputs": [
        {
          "internalType": "uint16",
          "name": "point",
          "type": "uint16"
        },
        {
          "internalType": "bool",
          "name": "isAsk",
          "type": "bool"
        },
        {
          "internalType": "address",
          "name": "recipient",
          "type": "address"
        }
      ],
      "name": "claimAble",
      "outputs": [
        {
          "internalType": "bool",
          "name": "",
          "type": "bool"
        }
      ],
      "stateMutability": "view",
      "type": "function"
    },
    {
      "inputs": [
        {
          "internalType": "address",
          "name": "recipient",
          "type": "address"
        },
        {
          "internalType": "uint16",
          "name": "point",
          "type": "uint16"
        },
        {
          "internalType": "bool",
          "name": "isAsk",
          "type": "bool"
        }
      ],
      "name": "claimFilledOrder",
      "outputs": [
        {
          "internalType": "uint256",
          "name": "claimedAmount",
          "type": "uint256"
        }
      ],
      "stateMutability": "nonpayable",
      "type": "function"
    },
    {
      "inputs": [
        {
          "internalType": "address",
          "name": "recipient",
          "type": "address"
        },
        {
          "internalType": "uint16",
          "name": "point",
          "type": "uint16"
        },
        {
          "internalType": "bool",
          "name": "isAsk",
          "type": "bool"
        }
      ],
      "name": "claimPartiallyFilledOrder",
      "outputs": [
        {
          "internalType": "uint256",
          "name": "baseAmount",
          "type": "uint256"
        },
        {
          "internalType": "uint256",
          "name": "tradeAmount",
          "type": "uint256"
        }
      ],
      "stateMutability": "nonpayable",
      "type": "function"
    },
    {
      "inputs": [
        {
          "internalType": "address",
          "name": "recipient",
          "type": "address"
        },
        {
          "internalType": "uint16",
          "name": "tickLower",
          "type": "uint16"
        },
        {
          "internalType": "uint16",
          "name": "tickUpper",
          "type": "uint16"
        },
        {
          "internalType": "uint128",
          "name": "amount0Requested",
          "type": "uint128"
        },
        {
          "internalType": "uint128",
          "name": "amount1Requested",
          "type": "uint128"
        }
      ],
      "name": "collect",
      "outputs": [
        {
          "internalType": "uint256",
          "name": "amount0",
          "type": "uint256"
        },
        {
          "internalType": "uint256",
          "name": "amount1",
          "type": "uint256"
        }
      ],
      "stateMutability": "nonpayable",
      "type": "function"
    },
    {
      "inputs": [],
      "name": "entry",
      "outputs": [
        {
          "internalType": "address",
          "name": "",
          "type": "address"
        }
      ],
      "stateMutability": "view",
      "type": "function"
    },
    {
      "inputs": [
        {
          "internalType": "address",
          "name": "",
          "type": "address"
        }
      ],
      "name": "f",
      "outputs": [
        {
          "internalType": "uint16",
          "name": "",
          "type": "uint16"
        }
      ],
      "stateMutability": "view",
      "type": "function"
    },
    {
      "inputs": [],
      "name": "factory",
      "outputs": [
        {
          "internalType": "address",
          "name": "",
          "type": "address"
        }
      ],
      "stateMutability": "view",
      "type": "function"
    },
    {
      "inputs": [],
      "name": "fee",
      "outputs": [
        {
          "internalType": "uint24",
          "name": "",
          "type": "uint24"
        }
      ],
      "stateMutability": "view",
      "type": "function"
    },
    {
      "inputs": [],
      "name": "feeGrowthGlobalBase",
      "outputs": [
        {
          "internalType": "uint256",
          "name": "",
          "type": "uint256"
        }
      ],
      "stateMutability": "view",
      "type": "function"
    },
    {
      "inputs": [],
      "name": "feeGrowthGlobalTrade",
      "outputs": [
        {
          "internalType": "uint256",
          "name": "",
          "type": "uint256"
        }
      ],
      "stateMutability": "view",
      "type": "function"
    },
    {
      "inputs": [],
      "name": "getCurPrice",
      "outputs": [
        {
          "internalType": "uint256",
          "name": "",
          "type": "uint256"
        }
      ],
      "stateMutability": "view",
      "type": "function"
    },
    {
      "inputs": [
        {
          "internalType": "address",
          "name": "who",
          "type": "address"
        }
      ],
      "name": "getLimitLoggedPosition",
      "outputs": [
        {
          "internalType": "uint16[]",
          "name": "",
          "type": "uint16[]"
        }
      ],
      "stateMutability": "view",
      "type": "function"
    },
    {
      "inputs": [
        {
          "internalType": "uint16",
          "name": "point",
          "type": "uint16"
        },
        {
          "internalType": "address",
          "name": "recipient",
          "type": "address"
        }
      ],
      "name": "getLimitPosition",
      "outputs": [
        {
          "internalType": "uint256",
          "name": "",
          "type": "uint256"
        },
        {
          "internalType": "bool",
          "name": "",
          "type": "bool"
        }
      ],
      "stateMutability": "view",
      "type": "function"
    },
    {
      "inputs": [
        {
          "internalType": "address",
          "name": "to",
          "type": "address"
        },
        {
          "internalType": "uint16",
          "name": "point",
          "type": "uint16"
        },
        {
          "internalType": "bool",
          "name": "isAsk",
          "type": "bool"
        }
      ],
      "name": "getLiq",
      "outputs": [
        {
          "internalType": "uint128",
          "name": "",
          "type": "uint128"
        }
      ],
      "stateMutability": "view",
      "type": "function"
    },
    {
      "inputs": [
        {
          "internalType": "address",
          "name": "who",
          "type": "address"
        }
      ],
      "name": "getLoggedPosition",
      "outputs": [
        {
          "components": [
            {
              "internalType": "uint16",
              "name": "point1",
              "type": "uint16"
            },
            {
              "internalType": "uint16",
              "name": "point2",
              "type": "uint16"
            }
          ],
          "internalType": "struct SpotPool.LoggedPosition[]",
          "name": "",
          "type": "tuple[]"
        }
      ],
      "stateMutability": "view",
      "type": "function"
    },
    {
      "inputs": [],
      "name": "getMaxLiquidity",
      "outputs": [
        {
          "internalType": "uint256",
          "name": "",
          "type": "uint256"
        }
      ],
      "stateMutability": "view",
      "type": "function"
    },
    {
      "inputs": [
        {
          "internalType": "uint16",
          "name": "point",
          "type": "uint16"
        },
        {
          "internalType": "uint256",
          "name": "pDelta",
          "type": "uint256"
        },
        {
          "internalType": "bool",
          "name": "moveUp",
          "type": "bool"
        }
      ],
      "name": "getNextPriceLimit",
      "outputs": [
        {
          "internalType": "uint256",
          "name": "",
          "type": "uint256"
        }
      ],
      "stateMutability": "pure",
      "type": "function"
    },
    {
      "inputs": [
        {
          "internalType": "uint16",
          "name": "point",
          "type": "uint16"
        },
        {
          "internalType": "bool",
          "name": "moveUp",
          "type": "bool"
        }
      ],
      "name": "getNumCross",
      "outputs": [
        {
          "internalType": "uint256",
          "name": "",
          "type": "uint256"
        }
      ],
      "stateMutability": "view",
      "type": "function"
    },
    {
      "inputs": [
        {
          "internalType": "uint16",
          "name": "point",
          "type": "uint16"
        },
        {
          "internalType": "bool",
          "name": "moveUp",
          "type": "bool"
        }
      ],
      "name": "getOneTimeLiquidity",
      "outputs": [
        {
          "internalType": "uint256",
          "name": "",
          "type": "uint256"
        }
      ],
      "stateMutability": "view",
      "type": "function"
    },
    {
      "inputs": [
        {
          "internalType": "address",
          "name": "who",
          "type": "address"
        },
        {
          "internalType": "uint16",
          "name": "pointLower",
          "type": "uint16"
        },
        {
          "internalType": "uint16",
          "name": "pointUpper",
          "type": "uint16"
        }
      ],
      "name": "getPosition",
      "outputs": [
        {
          "components": [
            {
              "internalType": "uint128",
              "name": "bidCrossId",
              "type": "uint128"
            },
            {
              "internalType": "uint128",
              "name": "askCrossId",
              "type": "uint128"
            },
            {
              "internalType": "uint128",
              "name": "askLiq",
              "type": "uint128"
            },
            {
              "internalType": "uint128",
              "name": "bidLiq",
              "type": "uint128"
            },
            {
              "internalType": "uint128",
              "name": "liquidity",
              "type": "uint128"
            },
            {
              "internalType": "uint256",
              "name": "feeGrowthInside0LastX128",
              "type": "uint256"
            },
            {
              "internalType": "uint256",
              "name": "feeGrowthInside1LastX128",
              "type": "uint256"
            },
            {
              "internalType": "uint256",
              "name": "tokensOwed0",
              "type": "uint256"
            },
            {
              "internalType": "uint256",
              "name": "tokensOwed1",
              "type": "uint256"
            }
          ],
          "internalType": "struct Position.Info",
          "name": "",
          "type": "tuple"
        }
      ],
      "stateMutability": "view",
      "type": "function"
    },
    {
      "inputs": [],
      "name": "liquidity",
      "outputs": [
        {
          "internalType": "uint128",
          "name": "",
          "type": "uint128"
        }
      ],
      "stateMutability": "view",
      "type": "function"
    },
    {
      "inputs": [
        {
          "internalType": "uint256",
          "name": "p2",
          "type": "uint256"
        },
        {
          "internalType": "uint256",
          "name": "p1",
          "type": "uint256"
        },
        {
          "internalType": "uint256",
          "name": "B",
          "type": "uint256"
        }
      ],
      "name": "liquidityGivenBase",
      "outputs": [
        {
          "internalType": "uint256",
          "name": "",
          "type": "uint256"
        }
      ],
      "stateMutability": "pure",
      "type": "function"
    },
    {
      "inputs": [
        {
          "internalType": "uint256",
          "name": "p2",
          "type": "uint256"
        },
        {
          "internalType": "uint256",
          "name": "p1",
          "type": "uint256"
        },
        {
          "internalType": "uint256",
          "name": "T",
          "type": "uint256"
        }
      ],
      "name": "liquidityGivenTrade",
      "outputs": [
        {
          "internalType": "uint256",
          "name": "",
          "type": "uint256"
        }
      ],
      "stateMutability": "pure",
      "type": "function"
    },
    {
      "inputs": [],
      "name": "lock",
      "outputs": [],
      "stateMutability": "nonpayable",
      "type": "function"
    },
    {
      "inputs": [
        {
          "internalType": "address",
          "name": "",
          "type": "address"
        },
        {
          "internalType": "uint256",
          "name": "",
          "type": "uint256"
        }
      ],
      "name": "loggedLimitPositions",
      "outputs": [
        {
          "internalType": "uint16",
          "name": "",
          "type": "uint16"
        }
      ],
      "stateMutability": "view",
      "type": "function"
    },
    {
      "inputs": [
        {
          "internalType": "address",
          "name": "",
          "type": "address"
        },
        {
          "internalType": "uint256",
          "name": "",
          "type": "uint256"
        }
      ],
      "name": "loggedPositions",
      "outputs": [
        {
          "internalType": "uint16",
          "name": "point1",
          "type": "uint16"
        },
        {
          "internalType": "uint16",
          "name": "point2",
          "type": "uint16"
        }
      ],
      "stateMutability": "view",
      "type": "function"
    },
    {
      "inputs": [
        {
          "internalType": "uint16",
          "name": "point",
          "type": "uint16"
        },
        {
          "internalType": "bool",
          "name": "buyTradeForBase",
          "type": "bool"
        }
      ],
      "name": "makerClaim",
      "outputs": [],
      "stateMutability": "nonpayable",
      "type": "function"
    },
    {
      "inputs": [
        {
          "internalType": "uint16",
          "name": "point",
          "type": "uint16"
        },
        {
          "internalType": "bool",
          "name": "buyTradeForBase",
          "type": "bool"
        }
      ],
      "name": "makerPartiallyClaim",
      "outputs": [
        {
          "internalType": "uint256",
          "name": "baseAmount",
          "type": "uint256"
        },
        {
          "internalType": "uint256",
          "name": "tradeAmount",
          "type": "uint256"
        }
      ],
      "stateMutability": "nonpayable",
      "type": "function"
    },
    {
      "inputs": [
        {
          "internalType": "uint16",
          "name": "point",
          "type": "uint16"
        },
        {
          "internalType": "uint256",
          "name": "amount",
          "type": "uint256"
        },
        {
          "internalType": "bool",
          "name": "isAsk",
          "type": "bool"
        }
      ],
      "name": "makerReduce",
      "outputs": [],
      "stateMutability": "nonpayable",
      "type": "function"
    },
    {
      "inputs": [
        {
          "internalType": "bool",
          "name": "buyTradeForBase",
          "type": "bool"
        },
        {
          "internalType": "uint256",
          "name": "amountIn",
          "type": "uint256"
        },
        {
          "internalType": "uint16",
          "name": "point",
          "type": "uint16"
        }
      ],
      "name": "makerTrade",
      "outputs": [],
      "stateMutability": "nonpayable",
      "type": "function"
    },
    {
      "inputs": [],
      "name": "owner",
      "outputs": [
        {
          "internalType": "address",
          "name": "",
          "type": "address"
        }
      ],
      "stateMutability": "view",
      "type": "function"
    },
    {
      "inputs": [
        {
          "internalType": "address",
          "name": "recipient",
          "type": "address"
        },
        {
          "internalType": "uint16",
          "name": "point",
          "type": "uint16"
        },
        {
          "internalType": "uint128",
          "name": "amount",
          "type": "uint128"
        },
        {
          "internalType": "bool",
          "name": "isAsk",
          "type": "bool"
        }
      ],
      "name": "placeLimitOrder",
      "outputs": [
        {
          "internalType": "uint256",
          "name": "amountToEscrow",
          "type": "uint256"
        },
        {
          "internalType": "uint128",
          "name": "numCross",
          "type": "uint128"
        }
      ],
      "stateMutability": "nonpayable",
      "type": "function"
    },
    {
      "inputs": [
        {
          "internalType": "uint16",
          "name": "point",
          "type": "uint16"
        }
      ],
      "name": "pointToPrice",
      "outputs": [
        {
          "internalType": "uint160",
          "name": "",
          "type": "uint160"
        }
      ],
      "stateMutability": "pure",
      "type": "function"
    },
    {
      "inputs": [
        {
          "internalType": "address",
          "name": "recipient",
          "type": "address"
        },
        {
          "internalType": "uint16",
          "name": "point",
          "type": "uint16"
        },
        {
          "internalType": "bool",
          "name": "isAsk",
          "type": "bool"
        }
      ],
      "name": "positionIsFilled",
      "outputs": [
        {
          "internalType": "bool",
          "name": "",
          "type": "bool"
        }
      ],
      "stateMutability": "view",
      "type": "function"
    },
    {
      "inputs": [
        {
          "internalType": "bytes32",
          "name": "",
          "type": "bytes32"
        }
      ],
      "name": "positions",
      "outputs": [
        {
          "internalType": "uint128",
          "name": "bidCrossId",
          "type": "uint128"
        },
        {
          "internalType": "uint128",
          "name": "askCrossId",
          "type": "uint128"
        },
        {
          "internalType": "uint128",
          "name": "askLiq",
          "type": "uint128"
        },
        {
          "internalType": "uint128",
          "name": "bidLiq",
          "type": "uint128"
        },
        {
          "internalType": "uint128",
          "name": "liquidity",
          "type": "uint128"
        },
        {
          "internalType": "uint256",
          "name": "feeGrowthInside0LastX128",
          "type": "uint256"
        },
        {
          "internalType": "uint256",
          "name": "feeGrowthInside1LastX128",
          "type": "uint256"
        },
        {
          "internalType": "uint256",
          "name": "tokensOwed0",
          "type": "uint256"
        },
        {
          "internalType": "uint256",
          "name": "tokensOwed1",
          "type": "uint256"
        }
      ],
      "stateMutability": "view",
      "type": "function"
    },
    {
      "inputs": [],
      "name": "priceDelta",
      "outputs": [
        {
          "internalType": "uint256",
          "name": "",
          "type": "uint256"
        }
      ],
      "stateMutability": "view",
      "type": "function"
    },
    {
      "inputs": [
        {
          "internalType": "uint256",
          "name": "price",
          "type": "uint256"
        }
      ],
      "name": "priceToPoint",
      "outputs": [
        {
          "internalType": "uint16",
          "name": "",
          "type": "uint16"
        }
      ],
      "stateMutability": "pure",
      "type": "function"
    },
    {
      "inputs": [
        {
          "internalType": "address",
          "name": "recipient",
          "type": "address"
        },
        {
          "internalType": "uint16",
          "name": "pointLower",
          "type": "uint16"
        },
        {
          "internalType": "uint16",
          "name": "pointUpper",
          "type": "uint16"
        },
        {
          "internalType": "uint128",
          "name": "amount",
          "type": "uint128"
        },
        {
          "internalType": "bytes",
          "name": "data",
          "type": "bytes"
        }
      ],
      "name": "provide",
      "outputs": [
        {
          "internalType": "uint256",
          "name": "amount0",
          "type": "uint256"
        },
        {
          "internalType": "uint256",
          "name": "amount1",
          "type": "uint256"
        }
      ],
      "stateMutability": "nonpayable",
      "type": "function"
    },
    {
      "inputs": [
        {
          "internalType": "uint16",
          "name": "pointLower",
          "type": "uint16"
        },
        {
          "internalType": "uint16",
          "name": "pointUpper",
          "type": "uint16"
        },
        {
          "internalType": "uint128",
          "name": "amount",
          "type": "uint128"
        },
        {
          "internalType": "bytes",
          "name": "data",
          "type": "bytes"
        }
      ],
      "name": "provideLiquidity",
      "outputs": [
        {
          "internalType": "uint256",
          "name": "amount0",
          "type": "uint256"
        },
        {
          "internalType": "uint256",
          "name": "amount1",
          "type": "uint256"
        }
      ],
      "stateMutability": "nonpayable",
      "type": "function"
    },
    {
      "inputs": [
        {
          "internalType": "address",
          "name": "recipient",
          "type": "address"
        },
        {
          "internalType": "uint16",
          "name": "point",
          "type": "uint16"
        },
        {
          "internalType": "uint128",
          "name": "amount",
          "type": "uint128"
        },
        {
          "internalType": "bool",
          "name": "isAsk",
          "type": "bool"
        }
      ],
      "name": "reduceLimitOrder",
      "outputs": [
        {
          "internalType": "uint256",
          "name": "amountToReturn",
          "type": "uint256"
        }
      ],
      "stateMutability": "nonpayable",
      "type": "function"
    },
    {
      "inputs": [
        {
          "internalType": "address",
          "name": "recipient",
          "type": "address"
        },
        {
          "internalType": "uint16",
          "name": "pointLower",
          "type": "uint16"
        },
        {
          "internalType": "uint16",
          "name": "pointUpper",
          "type": "uint16"
        },
        {
          "internalType": "uint128",
          "name": "amount",
          "type": "uint128"
        }
      ],
      "name": "remove",
      "outputs": [
        {
          "internalType": "uint256",
          "name": "",
          "type": "uint256"
        },
        {
          "internalType": "uint256",
          "name": "",
          "type": "uint256"
        }
      ],
      "stateMutability": "nonpayable",
      "type": "function"
    },
    {
      "inputs": [
        {
          "internalType": "address",
          "name": "_entry",
          "type": "address"
        }
      ],
      "name": "setEntry",
      "outputs": [],
      "stateMutability": "nonpayable",
      "type": "function"
    },
    {
      "inputs": [
        {
          "internalType": "uint128",
          "name": "liq",
          "type": "uint128"
        }
      ],
      "name": "setLiquidity",
      "outputs": [],
      "stateMutability": "nonpayable",
      "type": "function"
    },
    {
      "inputs": [],
      "name": "setLiquidity0",
      "outputs": [],
      "stateMutability": "nonpayable",
      "type": "function"
    },
    {
      "inputs": [
        {
          "internalType": "uint256",
          "name": "price",
          "type": "uint256"
        }
      ],
      "name": "setPriceAndPoint",
      "outputs": [],
      "stateMutability": "nonpayable",
      "type": "function"
    },
    {
      "inputs": [],
      "name": "slot0",
      "outputs": [
        {
          "internalType": "uint160",
          "name": "curPrice",
          "type": "uint160"
        },
        {
          "internalType": "uint16",
          "name": "point",
          "type": "uint16"
        },
        {
          "internalType": "uint8",
          "name": "feeProtocol",
          "type": "uint8"
        },
        {
          "internalType": "bool",
          "name": "unlocked",
          "type": "bool"
        }
      ],
      "stateMutability": "view",
      "type": "function"
    },
    {
      "inputs": [
        {
          "internalType": "address",
          "name": "recipient",
          "type": "address"
        },
        {
          "internalType": "bool",
          "name": "buyTradeForBase",
          "type": "bool"
        },
        {
          "internalType": "int256",
          "name": "amountIn",
          "type": "int256"
        },
        {
          "internalType": "uint256",
          "name": "priceLimit",
          "type": "uint256"
        },
        {
          "internalType": "bytes",
          "name": "data",
          "type": "bytes"
        }
      ],
      "name": "takerTrade",
      "outputs": [
        {
          "internalType": "uint256",
          "name": "poolamountIn",
          "type": "uint256"
        },
        {
          "internalType": "uint256",
          "name": "poolamountOut",
          "type": "uint256"
        }
      ],
      "stateMutability": "nonpayable",
      "type": "function"
    },
    {
      "inputs": [],
      "name": "tickSpacing",
      "outputs": [
        {
          "internalType": "int24",
          "name": "",
          "type": "int24"
        }
      ],
      "stateMutability": "view",
      "type": "function"
    },
    {
      "inputs": [
        {
          "internalType": "uint16",
          "name": "",
          "type": "uint16"
        }
      ],
      "name": "ticks",
      "outputs": [
        {
          "internalType": "uint128",
          "name": "liquidityGross",
          "type": "uint128"
        },
        {
          "internalType": "int128",
          "name": "liquidityNet",
          "type": "int128"
        },
        {
          "internalType": "uint256",
          "name": "feeGrowthOutsideBase",
          "type": "uint256"
        },
        {
          "internalType": "uint256",
          "name": "feeGrowthOutsideTrade",
          "type": "uint256"
        },
        {
          "internalType": "int56",
          "name": "tickCumulativeOutside",
          "type": "int56"
        },
        {
          "internalType": "uint160",
          "name": "secondsPerLiquidityOutsideX128",
          "type": "uint160"
        },
        {
          "internalType": "uint32",
          "name": "secondsOutside",
          "type": "uint32"
        },
        {
          "internalType": "bool",
          "name": "initialized",
          "type": "bool"
        },
        {
          "internalType": "uint128",
          "name": "askLiquidityGross",
          "type": "uint128"
        },
        {
          "internalType": "uint128",
          "name": "bidLiquidityGross",
          "type": "uint128"
        },
        {
          "internalType": "uint128",
          "name": "askNumCross",
          "type": "uint128"
        },
        {
          "internalType": "uint128",
          "name": "bidNumCross",
          "type": "uint128"
        }
      ],
      "stateMutability": "view",
      "type": "function"
    },
    {
      "inputs": [
        {
          "internalType": "address",
          "name": "recipient",
          "type": "address"
        },
        {
          "internalType": "bool",
          "name": "moveUp",
          "type": "bool"
        },
        {
          "internalType": "int256",
          "name": "amountSpecified",
          "type": "int256"
        },
        {
          "internalType": "uint256",
          "name": "priceLimit",
          "type": "uint256"
        },
        {
          "internalType": "bytes",
          "name": "data",
          "type": "bytes"
        }
      ],
      "name": "trade",
      "outputs": [
        {
          "internalType": "uint256",
          "name": "amountIn",
          "type": "uint256"
        },
        {
          "internalType": "uint256",
          "name": "amountOut",
          "type": "uint256"
        }
      ],
      "stateMutability": "nonpayable",
      "type": "function"
    },
    {
      "inputs": [
        {
          "internalType": "uint256",
          "name": "p2",
          "type": "uint256"
        },
        {
          "internalType": "uint256",
          "name": "p1",
          "type": "uint256"
        },
        {
          "internalType": "uint256",
          "name": "L",
          "type": "uint256"
        }
      ],
      "name": "tradeGivenLiquidity",
      "outputs": [
        {
          "internalType": "uint256",
          "name": "",
          "type": "uint256"
        }
      ],
      "stateMutability": "pure",
      "type": "function"
    },
    {
      "inputs": [],
      "name": "tradeToken",
      "outputs": [
        {
          "internalType": "address",
          "name": "",
          "type": "address"
        }
      ],
      "stateMutability": "view",
      "type": "function"
    },
    {
      "inputs": [
        {
          "internalType": "uint16",
          "name": "pointLower",
          "type": "uint16"
        },
        {
          "internalType": "uint16",
          "name": "pointUpper",
          "type": "uint16"
        },
        {
          "internalType": "uint128",
          "name": "amount",
          "type": "uint128"
        },
        {
          "internalType": "bytes",
          "name": "data",
          "type": "bytes"
        }
      ],
      "name": "withdrawLiquidity",
      "outputs": [],
      "stateMutability": "nonpayable",
      "type": "function"
    },
    {
      "inputs": [
        {
          "internalType": "uint256",
          "name": "curPrice",
          "type": "uint256"
        },
        {
          "internalType": "uint256",
          "name": "b",
          "type": "uint256"
        },
        {
          "internalType": "uint256",
          "name": "a",
          "type": "uint256"
        }
      ],
      "name": "xMax",
      "outputs": [
        {
          "internalType": "uint256",
          "name": "",
          "type": "uint256"
        }
      ],
      "stateMutability": "pure",
      "type": "function"
    },
    {
      "inputs": [
        {
          "internalType": "uint256",
          "name": "curPrice",
          "type": "uint256"
        },
        {
          "internalType": "uint256",
          "name": "b",
          "type": "uint256"
        },
        {
          "internalType": "uint256",
          "name": "a",
          "type": "uint256"
        }
      ],
      "name": "xMaxRoundUp",
      "outputs": [
        {
          "internalType": "uint256",
          "name": "",
          "type": "uint256"
        }
      ],
      "stateMutability": "pure",
      "type": "function"
    },
    {
      "inputs": [
        {
          "internalType": "uint256",
          "name": "curPrice",
          "type": "uint256"
        },
        {
          "internalType": "bool",
          "name": "moveUp",
          "type": "bool"
        }
      ],
      "name": "yInt",
      "outputs": [
        {
          "internalType": "uint256",
          "name": "",
          "type": "uint256"
        }
      ],
      "stateMutability": "pure",
      "type": "function"
    }
  ],
  "bytecode": "0x6101406040523480156200001257600080fd5b5060405162005892380380620058928339810160408190526200003591620000e6565b6001600160a01b0380821660e052821661010052600060a081905260c081905261012052818162000070670de0b6b3a764000060646200011e565b600280546001600160801b0319166001600160801b0392909216919091179055505033608052600880546001600160a01b03199081166001600160a01b039485161790915560098054909116919092161790556200015c565b80516001600160a01b0381168114620000e157600080fd5b919050565b60008060408385031215620000fa57600080fd5b6200010583620000c9565b91506200011560208401620000c9565b90509250929050565b60006001600160801b03828116848216811515828404821116156200015357634e487b7160e01b600052601160045260246000fd5b02949350505050565b60805160a05160c05160e05161010051610120516156b5620001dd6000396000610aa1015260008181610a7a0152818161172001526119d0015260008181610adb0152818161174601526119f601526000610a53015260008181610b9001526110e90152600081816108480152818161224c015261348501526156b56000f3fe608060405234801561001057600080fd5b50600436106103b95760003560e01c80637f1d9ae6116101f4578063b501c2841161011a578063ddca3f43116100ad578063e7c3614f1161007c578063e7c3614f14610c0c578063f83d08ba14610c1f578063f9734a2414610c27578063fc68521a14610c3a57600080fd5b8063ddca3f4314610b8b578063e37699c914610bc6578063e6277e5514610bd9578063e62f558514610bec57600080fd5b8063c55dae63116100e9578063c55dae6314610a75578063d0c93a7c14610a9c578063d83678ac14610ad6578063dcc3442914610afd57600080fd5b8063b501c28414610906578063b9033a3914610919578063c3e9c98514610a3b578063c45a015514610a4e57600080fd5b80639b60808911610192578063ae0f28f411610161578063ae0f28f4146108b9578063af0d37bc146108cd578063b04a69fd146108e0578063b29d9b6e146108f357600080fd5b80639b6080891461087d578063a74d74d414610890578063aaf5eb68146108a3578063ad066f9a146108b257600080fd5b806384529be5116101ce57806384529be5146108085780638ce26999146108305780638da5cb5b146108435780639314b03f1461086a57600080fd5b80637f1d9ae6146107cf5780637fb57006146107e257806380c0c3e7146107f557600080fd5b80633850c7bd116102e4578063514ea4bf11610277578063659a544a11610246578063659a544a1461076557806367f239dd1461076e5780636ed75596146107995780637c546aa6146107bc57600080fd5b8063514ea4bf1461066b57806355f0ac6c14610731578063578c8579146107445780635bfa896a1461075757600080fd5b806342b6c9fb116102b357806342b6c9fb1461061f57806342bc5292146106325780634970aa88146106455780634a3ca7171461065857600080fd5b80633850c7bd1461055d5780633d718da0146105c95780633df0fec0146105f9578063402d44fb1461060c57600080fd5b8063159054ea1161035c5780632130ce0d1161032b5780632130ce0d146104e15780632353b18e14610511578063302097c81461053757806332530d7f1461054a57600080fd5b8063159054ea146104915780631a6865021461049a5780631d2637ab146104c55780631dae2436146104ce57600080fd5b80630f1489c6116103985780630f1489c614610415578063119c08b51461044357806311e715d6146104635780631376ff3e1461047e57600080fd5b80624b2045146103be578063013cbdf6146103eb578063098bcc5614610402575b600080fd5b6103d16103cc366004614a7e565b610c5e565b604080519283526020830191909152015b60405180910390f35b610400600280546001600160801b0319169055565b005b6103d1610410366004614b1f565b6113f0565b610428610423366004614b8a565b611515565b6040805161ffff9384168152929091166020830152016103e2565b610456610451366004614bb4565b611552565b6040516103e29190614bcf565b6001546001600160a01b03165b6040519081526020016103e2565b61047061048c366004614c17565b6115eb565b61047061271081565b6002546104ad906001600160801b031681565b6040516001600160801b0390911681526020016103e2565b61047060075481565b6104006104dc366004614c6f565b6117fd565b6104f46104ef366004614c17565b611853565b604080519283526001600160801b039091166020830152016103e2565b61052461051f366004614c6f565b611adc565b60405161ffff90911681526020016103e2565b610400610545366004614c88565b611b08565b6103d1610558366004614cc6565b611d0e565b600154610592906001600160a01b0381169061ffff600160a01b8204169060ff600160b01b8204811691600160b81b90041684565b604080516001600160a01b03909516855261ffff909316602085015260ff90911691830191909152151560608201526080016103e2565b6104006105d7366004614d0d565b600280546001600160801b0319166001600160801b0392909216919091179055565b6103d1610607366004614a7e565b611f1f565b6104ad61061a366004614d2a565b611fad565b61047061062d366004614cc6565b61206d565b610400610640366004614bb4565b61224a565b6103d1610653366004614d6a565b6122d0565b610470610666366004614de2565b61244e565b6106d6610679366004614c6f565b600460208190526000918252604090912080546001820154600283015460038401549484015460058501546006909501546001600160801b0380861697600160801b96879004821697828716979096048216959190941693929189565b604080516001600160801b039a8b168152988a1660208a015296891696880196909652938716606087015295909116608085015260a084015260c083019390935260e0820192909252610100810191909152610120016103e2565b61052461073f366004614b8a565b61246b565b610400610752366004614d6a565b6124b2565b610470662386f26fc1000081565b61047060065481565b600554610781906001600160a01b031681565b6040516001600160a01b0390911681526020016103e2565b6107ac6107a7366004614cc6565b6126ba565b60405190151581526020016103e2565b6104006107ca366004614e0e565b612775565b6103d16107dd366004614e43565b6129d6565b6103d16107f0366004614de2565b612ae5565b610470610803366004614e8e565b612cc5565b61081b610816366004614eba565b612d03565b604080519283529015156020830152016103e2565b61078161083e366004614eed565b612e71565b6107817f000000000000000000000000000000000000000000000000000000000000000081565b610470610878366004614e8e565b612e90565b6104ad61088b366004614cc6565b612ea6565b61047061089e366004614f08565b612efb565b610470670de0b6b3a764000081565b6000610470565b6104706108c7366004614eed565b50600090565b6103d16108db366004614f2d565b612f53565b6104706108ee366004614e8e565b6130c0565b610470610901366004614e8e565b6130f6565b610470610914366004614e0e565b61310c565b6109b7610927366004614eed565b60036020819052600091825260409091208054600182015460028301549383015460048401546005909401546001600160801b0380851696600160801b95869004600f0b9694959094600685900b94600160381b81046001600160a01b031694600160d81b820463ffffffff1694600160f81b90920460ff1693828416938190048316928083169291909104168c565b604080516001600160801b039d8e168152600f9c909c0b60208d01528b019990995260608a019790975260069590950b60808901526001600160a01b0390931660a088015263ffffffff90911660c0870152151560e086015285166101008501528416610120840152831661014083015291909116610160820152610180016103e2565b6107ac610a49366004614f97565b613143565b6107817f000000000000000000000000000000000000000000000000000000000000000081565b6107817f000000000000000000000000000000000000000000000000000000000000000081565b610ac37f000000000000000000000000000000000000000000000000000000000000000081565b60405160029190910b81526020016103e2565b6107817f000000000000000000000000000000000000000000000000000000000000000081565b610b10610b0b366004614fd3565b6131ad565b6040516103e2919081516001600160801b0390811682526020808401518216908301526040808401518216908301526060808401518216908301526080808401519091169082015260a0808301519082015260c0808301519082015260e0808301519082015261010091820151918101919091526101200190565b610bb27f000000000000000000000000000000000000000000000000000000000000000081565b60405162ffffff90911681526020016103e2565b610470610bd4366004614de2565b613284565b610400610be7366004614de2565b613292565b610bff610bfa366004614bb4565b6133b5565b6040516103e2919061500d565b610470610c1a366004614e8e565b61343b565b610400613483565b610470610c35366004614e8e565b613508565b610524610c48366004614bb4565b600c6020526000908152604090205461ffff1681565b60055460009081906001600160a01b0316331480610c7b57503330145b610ca05760405162461bcd60e51b8152600401610c9790615064565b60405180910390fd5b60005460ff1615610cc35760405162461bcd60e51b8152600401610c9790615087565b6000805460ff1916600117905560408051808201909152600f81526e2d2d2d4e65772054726164652d2d2d60881b6020820152610cff90613549565b60408051608080820183526001546001600160a01b03808216845261ffff600160a01b830416602080860182905260ff600160b01b8504811687890152600160b81b90940490931615156060808701919091528651610100810188528d81526000948101859052865190931696830196909652948101949094529192662386f26fc10000929181018b610d9457600754610d98565b6006545b8152600060208083018290526002546001600160801b03166040808501829052606094850191909152805193840181528284529083018290528281018290528301519293509091908b1390610ded908561358f565b8015610df757508b155b15610e4757600183604001818151610e0f91906150c2565b9052506040830151610e2090611adc565b61ffff16606084018190526001805461ffff60a01b1916600160a01b830217905560208601525b825115801590610e5b575089836040015114155b156112b557610eb760405180610100016040528060008152602001600061ffff1681526020016000151581526020016000815260200160008152602001600081526020016000815260200160006001600160801b031681525090565b604084015181526060840151610ece90868f61310c565b60608201528c610eee5760018460600151610ee991906150da565b610efe565b6060840151610efe9060016150fd565b61ffff1660208201526060840151610f18906003906135a3565b6001600160801b031660e082015281610f5557610f508160e001518560c00151610f429190615123565b6001600160801b03166136b2565b610f7a565b610f7a8160e001518560c00151610f6c9190615123565b6001600160801b03166136e9565b83526040840151610f8b908e612efb565b60408085018290528501518451610fa292906130f6565b836020018181525050610fd4604051806040016040528060088152602001675f5f5f5f5f5f5f5f60c01b815250613549565b61100260405180604001604052806008815260200167435552505249434560c01b8152508560400151613720565b61104e6040518060400160405280601e81526020017f74726164696e673b206c69717569646974792c20616d6f756e746c65667400008152508560c001516001600160801b0316613720565b83516110629061105d90615145565b613769565b6110ae6040518060400160405280601881526020017f6e65787470726963656c696d69742f706f696e746e65787400000000000000008152508260600151836020015161ffff166137ae565b6110d5604051806040016040528060018152602001606160f81b8152508460000151613720565b61110e8460400151826060015186600001517f0000000000000000000000000000000000000000000000000000000000000000876137f5565b60c085015260a08401908152608084019182526040808801939093528251808401909352600e83526d185b5bdd5b9d1a5b985b991bdd5d60921b60208401529051905161115c9291906137ae565b61118a6040518060400160405280600381526020016239963160e91b815250846020015185604001516137ae565b81156111ac576080810151845185906111a4908390615162565b9052506111c4565b6080810151845185906111c09083906151a1565b9052505b8060a00151846020018181516111da91906150c2565b90525060c08401516001600160801b0316156112215760c0808501519082015161120c916001600160801b0316613a17565b8460800181815161121d91906150c2565b9052505b8060600151846040015114156112af5760e08101516001600160801b031615611256576060840151611256906003908f613a2c565b602081015160065460075460009261127092600392613b23565b90508d61128357611280816151e2565b90505b6112918560c0015182611fad565b6001600160801b031660c086015250602081015161ffff1660608501525b50610e47565b6112c28360400151613b76565b600180546001600160a01b0319166001600160a01b03929092169190911790556020850151606084015161ffff91821691161461131f5760608301516001805461ffff909216600160a01b0261ffff60a01b199092169190911790555b8260c001516001600160801b03168360e001516001600160801b0316146113655760c0830151600280546001600160801b0319166001600160801b039092169190911790555b8b156113745760808301516006555b806113a557612710836020015161138b91906150c2565b83516113968d615145565b6113a091906151a1565b6113d2565b8b6113c05782516113b6908c615162565b83602001516113d2565b82516113cc908c615162565b83602001515b6000805460ff19169055909e909d509b505050505050505050505050565b60055460009081906001600160a01b031633148061140d57503330145b6114295760405162461bcd60e51b8152600401610c9790615064565b60005460ff161561144c5760405162461bcd60e51b8152600401610c9790615087565b6000805460ff191660011781556114666004898989613b91565b90508060050154856001600160801b03161161148b57846001600160801b0316611491565b80600501545b92508060060154846001600160801b0316116114b657836001600160801b03166114bc565b80600601545b915082156114de57828160050160008282546114d89190615212565b90915550505b81156114fe57818160060160008282546114f89190615212565b90915550505b506000805460ff1916905590969095509350505050565b600a602052816000526040600020818154811061153157600080fd5b60009182526020909120015461ffff80821693506201000090910416905082565b6001600160a01b0381166000908152600b6020908152604091829020805483518184028101840190945280845260609391928391908301828280156115de57602002820191906000526020600020906000905b82829054906101000a900461ffff1661ffff16815260200190600201906020826001010492830192600103820291508084116115a55790505b5050505050915050919050565b6005546000906001600160a01b031633148061160657503330145b6116225760405162461bcd60e51b8152600401610c9790615064565b60005460ff16156116455760405162461bcd60e51b8152600401610c9790615087565b6000805460ff191660019081179091555461ffff85169061166e906001600160a01b0316611adc565b61ffff1614156116cc5760405162461bcd60e51b815260206004820152602360248201527f43616e277420726564756365206f7264657220666f722063757272656e74207460448201526269636b60e81b6064820152608401610c97565b60006116e886866116de8160016150fd565b6004929190613b91565b90506117006116f6856151e2565b8290856000613bfc565b6117178561170d866151e2565b6003919086613cd1565b600083611744577f0000000000000000000000000000000000000000000000000000000000000000611766565b7f00000000000000000000000000000000000000000000000000000000000000005b9050836117ad576117a861177e61083e8860016150fd565b6001600160a01b031661179088612e71565b6001600160a01b0316876001600160801b0316613508565b6117e8565b6117e86117be61083e8860016150fd565b6001600160a01b03166117d088612e71565b6001600160a01b0316876001600160801b0316612cc5565b6000805460ff19169055979650505050505050565b61180681611adc565b6001805461ffff92909216600160a01b0261ffff60a01b1990921691909117905561183081613b76565b600180546001600160a01b0319166001600160a01b039290921691909117905550565b60055460009081906001600160a01b031633148061187057503330145b61188c5760405162461bcd60e51b8152600401610c9790615064565b60005460ff16156118af5760405162461bcd60e51b8152600401610c9790615087565b6000805460ff191660011790558280156118e557506001546001600160a01b03166118d986612e71565b6001600160a01b031611155b156119235760405162461bcd60e51b815260206004820152600e60248201526d61736b2062656c6f77207072696560901b6044820152606401610c97565b8215801561194d57506001546001600160a01b031661194186612e71565b6001600160a01b031610155b1561198c5760405162461bcd60e51b815260206004820152600f60248201526e626964732061626f7665207072696560881b6044820152606401610c97565b600061199e87876116de8160016150fd565b90506119ac60038786613da2565b91506119ba81868685613bfc565b6119c76003878787613cd1565b6000846119f4577f0000000000000000000000000000000000000000000000000000000000000000611a16565b7f00000000000000000000000000000000000000000000000000000000000000005b905084611a5d57611a58611a2e61083e8960016150fd565b6001600160a01b0316611a4089612e71565b6001600160a01b0316886001600160801b0316613508565b611a98565b611a98611a6e61083e8960016150fd565b6001600160a01b0316611a8089612e71565b6001600160a01b0316886001600160801b0316612cc5565b9350611ac560405180604001604052806009815260200168185b5bdd5b9d189a5960ba1b81525085613720565b50506000805460ff19169055909590945092505050565b6000670de0b6b3a7640000611af883662386f26fc10000613a17565b611b02919061523f565b92915050565b60008030632130ce0d3385611b45611b2461083e8360016150fd565b6001600160a01b0316611b3689612e71565b6001600160a01b03168a6130c0565b89156040518563ffffffff1660e01b8152600401611b669493929190615253565b60408051808303816000875af1158015611b84573d6000803e3d6000fd5b505050506040513d601f19601f82011682018060405250810190611ba89190615288565b915091508415611c2f576008546040516323b872dd60e01b81526001600160a01b03909116906323b872dd90611be6903390309087906004016152ad565b6020604051808303816000875af1158015611c05573d6000803e3d6000fd5b505050506040513d601f19601f82011682018060405250810190611c2991906152d1565b50611ca8565b6009546040516323b872dd60e01b81526001600160a01b03909116906323b872dd90611c63903390309087906004016152ad565b6020604051808303816000875af1158015611c82573d6000803e3d6000fd5b505050506040513d601f19601f82011682018060405250810190611ca691906152d1565b505b336000818152600b6020908152604080832080546001810182559084528284206010820401805461ffff8a81166002600f909516949094026101000a848102910219909116179055938352600c9091529020805461ffff191690911790555b5050505050565b60055460009081906001600160a01b0316331480611d2b57503330145b611d475760405162461bcd60e51b8152600401610c9790615064565b60005460ff1615611d6a5760405162461bcd60e51b8152600401610c9790615087565b6000805460ff1916600190811782556040805160808101825282546001600160a01b038116825261ffff600160a01b8204166020830152600160b01b810460ff90811693830193909352600160b81b9004909116151560608201529190611dda90889088906116de9082906150fd565b60015490915061ffff871690611df8906001600160a01b0316611adc565b61ffff1614611e3d5760405162461bcd60e51b81526020600482015260116024820152704e6f742063757272656e7420707269636560781b6044820152606401610c97565b600085611e5e576001820154600160801b90046001600160801b0316611e6d565b60018201546001600160801b03165b9050611e85611e7b826151e2565b8390886000613bfc565b611e9c87611e92836151e2565b6003919089613cd1565b611ed3611ead61083e8960016150fd565b6001600160a01b031684600001516001600160a01b0316836001600160801b0316612cc5565b9350611f0783600001516001600160a01b0316611eef89612e71565b6001600160a01b0316836001600160801b0316613508565b6000805460ff19169055989397509295505050505050565b604051624b204560e01b815260009081903090624b204590611f4f908b908b908b908b908b908b90600401615317565b60408051808303816000875af1158015611f6d573d6000803e3d6000fd5b505050506040513d601f19601f82011682018060405250810190611f919190615359565b9092509050611fa28882848a613dfa565b965096945050505050565b60008082600f0b121561201a576001600160801b038316611fcd836151e2565b611fd7908561537d565b9150816001600160801b0316106120155760405162461bcd60e51b81526020600482015260026024820152614c5360f01b6044820152606401610c97565b611b02565b6001600160801b03831661202e8385615123565b9150816001600160801b03161015611b025760405162461bcd60e51b81526020600482015260026024820152614c4160f01b6044820152606401610c97565b6005546000906001600160a01b031633148061208857503330145b6120a45760405162461bcd60e51b8152600401610c9790615064565b60005460ff16156120c75760405162461bcd60e51b8152600401610c9790615087565b6000805460ff1916600190811782556120e990869086906116de9082906150fd565b905060006120f960038686613da2565b90506000846121125782546001600160801b0316612125565b8254600160801b90046001600160801b03165b9050806001600160801b0316826001600160801b03161161217e5760405162461bcd60e51b8152602060048201526013602482015272141bdcda5d1a5bdb881b9bdd08199a5b1b1959606a1b6044820152606401610c97565b60008561219f576001840154600160801b90046001600160801b03166121ae565b60018401546001600160801b03165b905085156121e0576121d96121c761083e8960016150fd565b6001600160a01b0316611eef89612e71565b945061221e565b61221b6121f161083e8960016150fd565b6001600160a01b031661220389612e71565b6001600160a01b0316836001600160801b0316612cc5565b94505b61223461222a826151e2565b8590886000613bfc565b50506000805460ff191690555090949350505050565b7f00000000000000000000000000000000000000000000000000000000000000006001600160a01b031633146122ae5760405162461bcd60e51b81526020600482015260096024820152682737ba1037bbb732b960b91b6044820152606401610c97565b600580546001600160a01b0319166001600160a01b0392909216919091179055565b600080600080306001600160a01b031663af0d37bc338b8b8b8b8b6040518763ffffffff1660e01b815260040161230c9695949392919061539d565b60408051808303816000875af115801561232a573d6000803e3d6000fd5b505050506040513d601f19601f8201168201806040525081019061234e9190615359565b6008546040516323b872dd60e01b81529294509092506001600160a01b0316906323b872dd90612386903390309087906004016152ad565b6020604051808303816000875af11580156123a5573d6000803e3d6000fd5b505050506040513d601f19601f820116820180604052508101906123c991906152d1565b506009546040516323b872dd60e01b81526001600160a01b03909116906323b872dd906123fe903390309086906004016152ad565b6020604051808303816000875af115801561241d573d6000803e3d6000fd5b505050506040513d601f19601f8201168201806040525081019061244191906152d1565b5050509550959350505050565b600061245b6003846135a3565b6001600160801b03169392505050565b600b602052816000526040600020818154811061248757600080fd5b9060005260206000209060109182820401919006600202915091509054906101000a900461ffff1681565b604051633f8ecd7360e11b815233600482015261ffff8087166024830152851660448201526001600160801b038416606482015260009081903090637f1d9ae69060840160408051808303816000875af1158015612514573d6000803e3d6000fd5b505050506040513d601f19601f820116820180604052508101906125389190615359565b6040516304c5e62b60e11b815233600482015261ffff808b166024830152891660448201526001600160801b036064820181905260848201529193509150309063098bcc569060a40160408051808303816000875af115801561259f573d6000803e3d6000fd5b505050506040513d601f19601f820116820180604052508101906125c39190615359565b505060085460405163a9059cbb60e01b81526001600160a01b039091169063a9059cbb906125f790339086906004016153e3565b6020604051808303816000875af1158015612616573d6000803e3d6000fd5b505050506040513d601f19601f8201168201806040525081019061263a91906152d1565b5060095460405163a9059cbb60e01b81526001600160a01b039091169063a9059cbb9061266d90339085906004016153e3565b6020604051808303816000875af115801561268c573d6000803e3d6000fd5b505050506040513d601f19601f820116820180604052508101906126b091906152d1565b5050505050505050565b6000806126cd85856116de8160016150fd565b905060006126dd60038686613da2565b90506000846126f65782546001600160801b0316612709565b8254600160801b90046001600160801b03165b905060008561272c576001840154600160801b90046001600160801b031661273b565b60018401546001600160801b03165b90506000816001600160801b03161180156127675750816001600160801b0316836001600160801b0316115b9450505050505b9392505050565b801561291c57600030631376ff3e33866127b06127ab61279961083e8460016150fd565b6001600160a01b0316611b368b612e71565b613f9d565b60016040518563ffffffff1660e01b81526004016127d19493929190615253565b6020604051808303816000875af11580156127f0573d6000803e3d6000fd5b505050506040513d601f19601f8201168201806040525081019061281491906153fc565b6040805180820182526002815261333360f11b602082015260095491516370a0823160e01b81523060048201529293506128a792909184916001600160a01b03909116906370a0823190602401602060405180830381865afa15801561287e573d6000803e3d6000fd5b505050506040513d601f19601f820116820180604052508101906128a291906153fc565b6137ae565b60095460405163a9059cbb60e01b81526001600160a01b039091169063a9059cbb906128d990339085906004016153e3565b6020604051808303816000875af11580156128f8573d6000803e3d6000fd5b505050506040513d601f19601f82011682018060405250810190611d0791906152d1565b600030631376ff3e338661293a6127ab61279961083e8460016150fd565b60006040518563ffffffff1660e01b815260040161295b9493929190615253565b6020604051808303816000875af115801561297a573d6000803e3d6000fd5b505050506040513d601f19601f8201168201806040525081019061299e91906153fc565b60085460405163a9059cbb60e01b81529192506001600160a01b03169063a9059cbb906128d990339085906004016153e3565b505050565b60055460009081906001600160a01b03163314806129f357503330145b612a0f5760405162461bcd60e51b8152600401610c9790615064565b60005460ff1615612a325760405162461bcd60e51b8152600401610c9790615087565b6000805460ff19166001178155604080516080810182526001600160a01b038916815261ffff808916602083015287169181019190915281908190612a889060608101612a7e896151e2565b600f0b9052613fb3565b9250925092506000821180612a9d5750600081115b15612acd57818360050154612ab291906150c2565b818460060154612ac291906150c2565b600685015560058401555b6000805460ff19169055909890975095505050505050565b6000808215612b62576040516332530d7f60e01b815230906332530d7f90612b169033908890600090600401615415565b60408051808303816000875af1158015612b34573d6000803e3d6000fd5b505050506040513d601f19601f82011682018060405250810190612b589190615359565b9092509050612bd2565b6040516332530d7f60e01b815230906332530d7f90612b8a9033908890600190600401615415565b60408051808303816000875af1158015612ba8573d6000803e3d6000fd5b505050506040513d601f19601f82011682018060405250810190612bcc9190615359565b90925090505b60085460405163a9059cbb60e01b81526001600160a01b039091169063a9059cbb90612c0490339086906004016153e3565b6020604051808303816000875af1158015612c23573d6000803e3d6000fd5b505050506040513d601f19601f82011682018060405250810190612c4791906152d1565b5060095460405163a9059cbb60e01b81526001600160a01b039091169063a9059cbb90612c7a90339085906004016153e3565b6020604051808303816000875af1158015612c99573d6000803e3d6000fd5b505050506040513d601f19601f82011682018060405250810190612cbd91906152d1565b509250929050565b600082841015612ce75760405162461bcd60e51b8152600401610c979061543c565b612cfb82612cf58587615212565b9061422b565b949350505050565b60008080612d1784866116de8160016150fd565b604080516101208101825282546001600160801b038082168352600160801b9182900481166020840152600185015480821694840194909452920482166060820181905260028401549092166080820152600383015460a0820152600483015460c0820152600583015460e0820152600690920154610100830152909150600090612da6578160400151612dac565b81606001515b905060008083606001516001600160801b031611612e0457612dff612dd561083e8960016150fd565b6001600160a01b0316612de789612e71565b6001600160a01b0316846001600160801b0316612cc5565b612e3f565b612e3f612e1561083e8960016150fd565b6001600160a01b0316612e2789612e71565b6001600160a01b0316846001600160801b0316613508565b60408401519091506001600160801b031615156000612e5f89838a613143565b929650919450505050505b9250929050565b6000611b02612e8b662386f26fc1000061ffff851661545f565b613b76565b6000612cfb82612ea08587615212565b90614240565b600081612ed657612ebd84846116de8160016150fd565b60010154600160801b90046001600160801b0316612cfb565b612ee684846116de8160016150fd565b600101546001600160801b0316949350505050565b600080612f0784611adc565b905082158015612f225750612f2061ffff82168561547e565b155b612f3457612f2f81612e71565b612f42565b612f4261083e6001836150da565b6001600160a01b0316949350505050565b60055460009081906001600160a01b0316331480612f7057503330145b612f8c5760405162461bcd60e51b8152600401610c9790615064565b60005460ff1615612faf5760405162461bcd60e51b8152600401610c9790615087565b6000805460ff191660011790556001600160801b038516612ffd5760405162461bcd60e51b81526020600482015260086024820152670c08185b5bdd5b9d60c21b6044820152606401610c97565b61303a60405180608001604052808a6001600160a01b031681526020018961ffff1681526020018861ffff16815260200187600f0b815250613fb3565b6001600160a01b038b166000908152600a60209081526040808320815180830190925261ffff8e811683528d811683850190815282546001810184559286529390942091519101805492518416620100000263ffffffff19909316919093161717905590935091506130a99050565b6000805460ff191690559097909650945050505050565b6000828410156130e25760405162461bcd60e51b8152600401610c979061543c565b612cfb6130ef8486615212565b8390613a17565b6000612cfb826131068587615212565b90613a17565b6000811561313557826131208560016150fd565b61ffff1661312e919061545f565b905061276e565b61312e8361ffff861661545f565b60008061315683866116de8160016150fd565b9050600061316660038787613da2565b905060008561317f5782546001600160801b0316613192565b8254600160801b90046001600160801b03165b6001600160801b039081169216919091119695505050505050565b6040805161012081018252600080825260208201819052918101829052606081018290526080810182905260a0810182905260c0810182905260e081018290526101008101919091526132036004858585613b91565b604080516101208101825282546001600160801b038082168352600160801b918290048116602084015260018501548082169484019490945292048216606082015260028301549091166080820152600382015460a0820152600482015460c0820152600582015460e0820152600690910154610100820152949350505050565b600061245b60038484613da2565b6040516342b6c9fb60e01b815260009030906342b6c9fb906132bd9033908790871590600401615415565b6020604051808303816000875af11580156132dc573d6000803e3d6000fd5b505050506040513d601f19601f8201168201806040525081019061330091906153fc565b905081156133835760095460405163a9059cbb60e01b81526001600160a01b039091169063a9059cbb9061333a90339085906004016153e3565b6020604051808303816000875af1158015613359573d6000803e3d6000fd5b505050506040513d601f19601f8201168201806040525081019061337d91906152d1565b50505050565b60085460405163a9059cbb60e01b81526001600160a01b039091169063a9059cbb9061333a90339085906004016153e3565b6001600160a01b0381166000908152600a60209081526040808320805482518185028101850190935280835260609492939192909184015b82821015613430576000848152602090819020604080518082019091529084015461ffff80821683526201000090910416818301528252600190920191016133ed565b505050509050919050565b60008284101561345d5760405162461bcd60e51b8152600401610c979061543c565b612cfb6130ef600261346f86886150c2565b613479919061523f565b612cf58688615212565b7f00000000000000000000000000000000000000000000000000000000000000006001600160a01b031633146134e75760405162461bcd60e51b81526020600482015260096024820152682737ba1037bbb732b960b91b6044820152606401610c97565b6001805460ff60b81b198116600160b81b9182900460ff1615909102179055565b60008284101561352a5760405162461bcd60e51b8152600401610c979061543c565b612cfb613538858585612cc5565b6000613543856136e9565b86614255565b61358c8160405160240161355d91906154df565b60408051601f198184030181529190526020810180516001600160e01b031663104c13eb60e21b1790526142a3565b50565b600061359b828461547e565b159392505050565b61ffff811660009081526020838152604080832081516101808101835281546001600160801b038082168352600160801b91829004600f0b95830195909552600183015493820193909352600282015460608201526003820154600681900b6080830152600160381b81046001600160a01b031660a0830152600160d81b810463ffffffff1660c0830152600160f81b900460ff16151560e0820152600482015480851661010083018190529084900485166101208301526005909201548085166101408301529290920490921661016082015290158061369057506101208101516001600160801b0316155b61369c5761369c6154f2565b806101200151816101000151612cfb9190615123565b600081156136cc57612015670de0b6b3a764000083614240565b611b026136da8360016150c2565b670de0b6b3a764000090614240565b6000811561370357612015670de0b6b3a764000083613a17565b611b026137118360016150c2565b670de0b6b3a764000090613a17565b6137658282604051602401613736929190615508565b60408051601f198184030181529190526020810180516001600160e01b03166309710a9d60e41b1790526142a3565b5050565b61358c8160405160240161377f91815260200190565b60408051601f198184030181529190526020810180516001600160e01b031663f5b1bba960e01b1790526142a3565b6129d18383836040516024016137c69392919061552a565b60408051601f198184030181529190526020810180516001600160e01b031663969cdd0360e01b1790526142a3565b60008080808888101581881280159061396a5781156138a75761382889886020015189600001518a6040015160016142c4565b965093508986106138875786518a9650613846906131068d89615212565b935061388061385889620f424061554f565b62ffffff16620f4240613879878b602001518c600001518d60400151614255565b919061440b565b9450613935565b61388061389789620f424061554f565b8a9062ffffff16620f424061440b565b6138cb6138b88a896020015161442a565b6020890151895160408b015160006142c4565b965093508986116139225786518a96506138e990613106888e615212565b945061390085600089600001518a60400151614255565b935061388061391289620f424061554f565b869062ffffff16620f424061440b565b61393261389789620f424061554f565b94505b613963613958620f42406139498b8261554f565b62ffffff8c811692911661440b565b8690620f424061440b565b9250613a09565b81156139e757600061397b8a615145565b88519091508c9061398c9083614441565b61399691906150c2565b96508a87106139ce576139ae8b8d8a600001516130f6565b8b975095506127106139c08783615212565b116139c9578095505b6139d2565b8095505b6139e38660008a600001518f614456565b9450505b6139fa8462ffffff8a16620f424061440b565b9250613a0683856150c2565b93505b505095509550955095915050565b600061276e83670de0b6b3a76400008461440b565b61ffff821660009081526020849052604090208115613ac8576004810180546001600160801b03191690556005810180546001600160801b0316906000613a728361556d565b91906101000a8154816001600160801b0302191690836001600160801b0316021790555050613ac3604051806040016040528060068152602001657469636b3f3f60d01b8152508461ffff16613720565b61337d565b6004810180546001600160801b03908116909155600582018054600160801b9004909116906010613af88361556d565b91906101000a8154816001600160801b0302191690836001600160801b031602179055505050505050565b61ffff8316600090815260208590526040902080546001820154600160801b909104600f0b9190613b549085615212565b60018201556002810154613b689084615212565b600290910155949350505050565b806001600160a01b0381168114613b8c57600080fd5b919050565b6040805160609490941b6bffffffffffffffffffffffff191660208086019190915260f093841b6001600160f01b031990811660348701529290931b909116603684015280516018818503018152603890930181528251928201929092206000908152929052902090565b8115613c66576001840154613c1a906001600160801b031684611fad565b6001850180546001600160801b0319166001600160801b03929092169190911790556000600f84900b1315613ac35783546001600160801b03808316600160801b02911617845561337d565b6001840154613c8590600160801b90046001600160801b031684611fad565b6001850180546001600160801b03928316600160801b0292169190911790556000600f84900b131561337d5783546001600160801b0319166001600160801b0391909116179092555050565b8015613d3a5761ffff8316600090815260208590526040902060040154613d01906001600160801b031683611fad565b61ffff8416600090815260208690526040902060040180546001600160801b0319166001600160801b039290921691909117905561337d565b61ffff8316600090815260208590526040902060040154613d6b90600160801b90046001600160801b031683611fad565b61ffff8416600090815260208690526040902060040180546001600160801b03928316600160801b02921691909117905550505050565b600081613dd55761ffff8316600090815260208590526040902060050154600160801b90046001600160801b0316612cfb565b505061ffff16600090815260209190915260409020600501546001600160801b031690565b8015613ef35760095460405163a9059cbb60e01b81526001600160a01b039091169063a9059cbb90613e3290879087906004016153e3565b6020604051808303816000875af1158015613e51573d6000803e3d6000fd5b505050506040513d601f19601f82011682018060405250810190613e7591906152d1565b506008546040516323b872dd60e01b81526001600160a01b03909116906323b872dd90613eaa908790309087906004016152ad565b6020604051808303816000875af1158015613ec9573d6000803e3d6000fd5b505050506040513d601f19601f82011682018060405250810190613eed91906152d1565b5061337d565b60085460405163a9059cbb60e01b81526001600160a01b039091169063a9059cbb90613f2590879087906004016153e3565b6020604051808303816000875af1158015613f44573d6000803e3d6000fd5b505050506040513d601f19601f82011682018060405250810190613f6891906152d1565b506009546040516323b872dd60e01b81526001600160a01b03909116906323b872dd906128d9908790309087906004016152ad565b806001600160801b0381168114613b8c57600080fd5b604080516080810182526001546001600160a01b038116825261ffff600160a01b820416602080840182905260ff600160b01b8404811685870152600160b81b9093049092161515606080850191909152855192860151948601519086015160009586958695909461402794919390614497565b93508460600151600f0b60001461422357846020015161ffff16816020015161ffff1610156140b9576140b26140608660400151612e71565b6001600160a01b03166140768760200151612e71565b6001600160a01b031660008860600151600f0b12156140a557876060015161409d906151e2565b600f0b612cc5565b8760600151600f0b612cc5565b9150614223565b846040015161ffff16816020015161ffff1610156141c65760025460408601516001600160801b0390911690614134906140f290612e71565b6001600160a01b031683600001516001600160a01b031660008960600151600f0b121561412757886060015161409d906151e2565b8860600151600f0b612cc5565b925061419082600001516001600160a01b03166141548860200151612e71565b6001600160a01b031660008960600151600f0b121561418357886060015161417b906151e2565b600f0b613508565b8860600151600f0b613508565b93506141a0818760600151611fad565b600280546001600160801b0319166001600160801b039290921691909117905550614223565b6142206141d68660400151612e71565b6001600160a01b03166141ec8760200151612e71565b6001600160a01b031660008860600151600f0b121561421357876060015161417b906151e2565b8760600151600f0b613508565b92505b509193909250565b600061276e8383670de0b6b3a764000061440b565b600061276e83670de0b6b3a764000084614523565b6000614261828661422b565b6142908661427087600261545f565b61427a91906150c2565b6002614286878a61422b565b612cf5919061523f565b61429a91906150c2565b95945050505050565b80516a636f6e736f6c652e6c6f67602083016000808483855afa5050505050565b600080821561439a576000670de0b6b3a76400006002866142e5898b61422b565b6142ef91906150c2565b6142f99190615670565b614303919061523f565b90506000614311878a61422b565b61431c90600261545f565b90506000614345670de0b6b3a764000061433684866150c2565b614340919061545f565b614551565b90506000876143548a8c61422b565b61435e91906150c2565b905061436e896131068385615212565b95508761438561437e8c896150c2565b8b9061422b565b61438f91906150c2565b945050505050614401565b600060026143a8878a61422b565b6143b2919061523f565b6143bc878961422b565b6143c690876150c2565b6143d09190615212565b90506143dc888261422b565b9250846143f36143ec8a8a615212565b889061422b565b6143fd91906150c2565b9150505b9550959350505050565b82820281151584158583048514171661442357600080fd5b0492915050565b60008183111561443a578161276e565b5090919050565b600061276e8383670de0b6b3a7640000614523565b60006144628286614441565b6142908661447187600261545f565b61447b91906150c2565b6002614487878a614441565b614491919061523f565b90614441565b60006144a66004878787613b91565b60065460075491925090600f85900b156144f3576006546007546144d5916003918a9188918a9190600061462a565b506006546007546144f191600391899188918a9190600161462a565b505b60008061450560038a8a898888614731565b90925090506145168588848461481d565b5050505095945050505050565b82820281151584158583048514171661453b57600080fd5b6001826001830304018115150290509392505050565b600181600160801b811061456a5760409190911b9060801c5b6801000000000000000081106145855760209190911b9060401c5b640100000000811061459c5760109190911b9060201c5b6201000081106145b15760089190911b9060101c5b61010081106145c55760049190911b9060081c5b601081106145d85760029190911b9060041c5b600881106145e7578160011b91505b5080820401600190811c80830401811c80830401811c80830401811c80830401811c80830401811c80830401901c80820481811015614624578091505b50919050565b61ffff8616600090815260208890526040812080546001600160801b0316826146538289611fad565b6001600160801b0383811615908216158114159550909150156146a6578861ffff168a61ffff161161468e5760018301879055600283018690555b6003830180546001600160f81b0316600160f81b1790555b82546001600160801b0319166001600160801b038216178355846146ec5782546146e7906146e290600f8b810b91600160801b9004900b6151a1565b614a06565b61470a565b825461470a906146e290600f8b810b91600160801b9004900b615162565b83546001600160801b03918216600160801b02911617909255509098975050505050505050565b61ffff80861660008181526020899052604080822088851683529082209193849391929184918291908a161061477257505060018201546002830154614796565b60018401546147819089615212565b91508360020154876147939190615212565b90505b6000808b61ffff168b61ffff1610156147ba575050600183015460028401546147de565b60018501546147c9908b615212565b91508460020154896147db9190615212565b90505b816147e9858c615212565b6147f39190615212565b975080614800848b615212565b61480a9190615212565b9650505050505050965096945050505050565b604080516101208101825285546001600160801b038082168352600160801b918290048116602084015260018801548082169484019490945292048216606082015260028601549091166080820152600385015460a0820152600485015460c0820152600585015460e082015260068501546101008201526000600f85900b6148ed57600082608001516001600160801b0316116148e25760405162461bcd60e51b815260206004820152600260248201526104e560f41b6044820152606401610c97565b5060808101516148fe565b6148fb826080015186611fad565b90505b600061492a83608001516001600160801b0316670de0b6b3a76400008560a00151886138799190615212565b9050600061495884608001516001600160801b0316670de0b6b3a76400008660c00151886138799190615212565b905086600f0b600014614983576002880180546001600160801b0319166001600160801b0385161790555b60038801869055600488018590556001600160801b0382161515806149b157506000816001600160801b0316115b156126b057816001600160801b03168860050160008282546149d391906150c2565b92505081905550806001600160801b03168860060160008282546149f791906150c2565b90915550505050505050505050565b80600f81900b8114613b8c57600080fd5b80356001600160a01b0381168114613b8c57600080fd5b801515811461358c57600080fd5b60008083601f840112614a4e57600080fd5b50813567ffffffffffffffff811115614a6657600080fd5b602083019150836020828501011115612e6a57600080fd5b60008060008060008060a08789031215614a9757600080fd5b614aa087614a17565b95506020870135614ab081614a2e565b94506040870135935060608701359250608087013567ffffffffffffffff811115614ada57600080fd5b614ae689828a01614a3c565b979a9699509497509295939492505050565b803561ffff81168114613b8c57600080fd5b6001600160801b038116811461358c57600080fd5b600080600080600060a08688031215614b3757600080fd5b614b4086614a17565b9450614b4e60208701614af8565b9350614b5c60408701614af8565b92506060860135614b6c81614b0a565b91506080860135614b7c81614b0a565b809150509295509295909350565b60008060408385031215614b9d57600080fd5b614ba683614a17565b946020939093013593505050565b600060208284031215614bc657600080fd5b61276e82614a17565b6020808252825182820181905260009190848201906040850190845b81811015614c0b57835161ffff1683529284019291840191600101614beb565b50909695505050505050565b60008060008060808587031215614c2d57600080fd5b614c3685614a17565b9350614c4460208601614af8565b92506040850135614c5481614b0a565b91506060850135614c6481614a2e565b939692955090935050565b600060208284031215614c8157600080fd5b5035919050565b600080600060608486031215614c9d57600080fd5b8335614ca881614a2e565b925060208401359150614cbd60408501614af8565b90509250925092565b600080600060608486031215614cdb57600080fd5b614ce484614a17565b9250614cf260208501614af8565b91506040840135614d0281614a2e565b809150509250925092565b600060208284031215614d1f57600080fd5b813561276e81614b0a565b60008060408385031215614d3d57600080fd5b8235614d4881614b0a565b91506020830135600f81900b8114614d5f57600080fd5b809150509250929050565b600080600080600060808688031215614d8257600080fd5b614d8b86614af8565b9450614d9960208701614af8565b93506040860135614da981614b0a565b9250606086013567ffffffffffffffff811115614dc557600080fd5b614dd188828901614a3c565b969995985093965092949392505050565b60008060408385031215614df557600080fd5b614dfe83614af8565b91506020830135614d5f81614a2e565b600080600060608486031215614e2357600080fd5b614e2c84614af8565b9250602084013591506040840135614d0281614a2e565b60008060008060808587031215614e5957600080fd5b614e6285614a17565b9350614e7060208601614af8565b9250614e7e60408601614af8565b91506060850135614c6481614b0a565b600080600060608486031215614ea357600080fd5b505081359360208301359350604090920135919050565b60008060408385031215614ecd57600080fd5b614ed683614af8565b9150614ee460208401614a17565b90509250929050565b600060208284031215614eff57600080fd5b61276e82614af8565b60008060408385031215614f1b57600080fd5b823591506020830135614d5f81614a2e565b60008060008060008060a08789031215614f4657600080fd5b614f4f87614a17565b9550614f5d60208801614af8565b9450614f6b60408801614af8565b93506060870135614f7b81614b0a565b9250608087013567ffffffffffffffff811115614ada57600080fd5b600080600060608486031215614fac57600080fd5b614fb584614af8565b92506020840135614fc581614a2e565b9150614cbd60408501614a17565b600080600060608486031215614fe857600080fd5b614ff184614a17565b9250614fff60208501614af8565b9150614cbd60408501614af8565b602080825282518282018190526000919060409081850190868401855b82811015615057578151805161ffff9081168652908701511686850152928401929085019060010161502a565b5091979650505050505050565b6020808252600990820152684e6f7420456e74727960b81b604082015260600190565b6020808252600b908201526a4552525f5245454e54525960a81b604082015260600190565b634e487b7160e01b600052601160045260246000fd5b600082198211156150d5576150d56150ac565b500190565b600061ffff838116908316818110156150f5576150f56150ac565b039392505050565b600061ffff80831681851680830382111561511a5761511a6150ac565b01949350505050565b60006001600160801b0380831681851680830382111561511a5761511a6150ac565b6000600160ff1b82141561515b5761515b6150ac565b5060000390565b60008083128015600160ff1b850184121615615180576151806150ac565b6001600160ff1b038401831381161561519b5761519b6150ac565b50500390565b600080821280156001600160ff1b03849003851316156151c3576151c36150ac565b600160ff1b83900384128116156151dc576151dc6150ac565b50500190565b600081600f0b6f7fffffffffffffffffffffffffffffff19811415615209576152096150ac565b60000392915050565b600082821015615224576152246150ac565b500390565b634e487b7160e01b600052601260045260246000fd5b60008261524e5761524e615229565b500490565b6001600160a01b0394909416845261ffff9290921660208401526001600160801b031660408301521515606082015260800190565b6000806040838503121561529b57600080fd5b825191506020830151614d5f81614b0a565b6001600160a01b039384168152919092166020820152604081019190915260600190565b6000602082840312156152e357600080fd5b815161276e81614a2e565b81835281816020850137506000828201602090810191909152601f909101601f19169091010190565b60018060a01b0387168152851515602082015284604082015283606082015260a06080820152600061534d60a0830184866152ee565b98975050505050505050565b6000806040838503121561536c57600080fd5b505080516020909101519092909150565b60006001600160801b03838116908316818110156150f5576150f56150ac565b6001600160a01b038716815261ffff8681166020830152851660408201526001600160801b038416606082015260a06080820181905260009061534d90830184866152ee565b6001600160a01b03929092168252602082015260400190565b60006020828403121561540e57600080fd5b5051919050565b6001600160a01b0393909316835261ffff9190911660208301521515604082015260600190565b602080825260099082015268383934b1b29022a92960b91b604082015260600190565b6000816000190483118215151615615479576154796150ac565b500290565b60008261548d5761548d615229565b500690565b6000815180845260005b818110156154b85760208185018101518683018201520161549c565b818111156154ca576000602083870101525b50601f01601f19169290920160200192915050565b60208152600061276e6020830184615492565b634e487b7160e01b600052600160045260246000fd5b60408152600061551b6040830185615492565b90508260208301529392505050565b60608152600061553d6060830186615492565b60208301949094525060400152919050565b600062ffffff80831681851680830382111561511a5761511a6150ac565b60006001600160801b038083168181141561558a5761558a6150ac565b6001019392505050565b600181815b80851115612cbd5781600019048211156155b5576155b56150ac565b808516156155c257918102915b93841c9390800290615599565b6000826155de57506001611b02565b816155eb57506000611b02565b8160018114615601576002811461560b57615627565b6001915050611b02565b60ff84111561561c5761561c6150ac565b50506001821b611b02565b5060208310610133831016604e8410600b841016171561564a575081810a611b02565b6156548383615594565b8060001904821115615668576156686150ac565b029392505050565b600061276e60ff8416836155cf56fea26469706673582212209b077e62759186e113121116a4cf50b89474683c92524986c033e04b286e762964736f6c634300080a0033",
  "linkReferences": {},
  "deployedLinkReferences": {}
}