{
  "_format": "hh-sol-artifact-1",
  "contractName": "TrancheMaster",
  "sourceName": "src/tranchemaster.sol",
  "abi": [
    {
      "inputs": [
        {
          "internalType": "contract TrancheFactory",
          "name": "_tFactory",
          "type": "address"
        }
      ],
      "stateMutability": "nonpayable",
      "type": "constructor"
    },
    {
      "inputs": [],
      "name": "SLIPPAGETOLERANCE",
      "outputs": [
        {
          "internalType": "uint256",
          "name": "",
          "type": "uint256"
        }
      ],
      "stateMutability": "view",
      "type": "function"
    },
    {
      "inputs": [
        {
          "internalType": "bool",
          "name": "toJunior",
          "type": "bool"
        },
        {
          "internalType": "uint256",
          "name": "amount",
          "type": "uint256"
        },
        {
          "internalType": "uint256",
          "name": "priceLimit",
          "type": "uint256"
        },
        {
          "internalType": "uint256",
          "name": "vaultId",
          "type": "uint256"
        },
        {
          "internalType": "bytes",
          "name": "data",
          "type": "bytes"
        }
      ],
      "name": "_swapFromInstrument",
      "outputs": [
        {
          "internalType": "uint256",
          "name": "amountIn",
          "type": "uint256"
        },
        {
          "internalType": "uint256",
          "name": "amountOut",
          "type": "uint256"
        }
      ],
      "stateMutability": "nonpayable",
      "type": "function"
    },
    {
      "inputs": [
        {
          "internalType": "bool",
          "name": "toJunior",
          "type": "bool"
        },
        {
          "internalType": "int256",
          "name": "amount",
          "type": "int256"
        },
        {
          "internalType": "uint256",
          "name": "priceLimit",
          "type": "uint256"
        },
        {
          "internalType": "uint256",
          "name": "vaultId",
          "type": "uint256"
        },
        {
          "internalType": "bytes",
          "name": "data",
          "type": "bytes"
        }
      ],
      "name": "_swapFromTranche",
      "outputs": [
        {
          "internalType": "uint256",
          "name": "amountIn",
          "type": "uint256"
        },
        {
          "internalType": "uint256",
          "name": "amountOut",
          "type": "uint256"
        }
      ],
      "stateMutability": "nonpayable",
      "type": "function"
    },
    {
      "inputs": [
        {
          "internalType": "bool",
          "name": "fromJunior",
          "type": "bool"
        },
        {
          "internalType": "uint256",
          "name": "amount",
          "type": "uint256"
        },
        {
          "internalType": "uint256",
          "name": "priceLimit",
          "type": "uint256"
        },
        {
          "internalType": "uint256",
          "name": "vaultId",
          "type": "uint256"
        },
        {
          "internalType": "bytes",
          "name": "data",
          "type": "bytes"
        }
      ],
      "name": "_swapToInstrument",
      "outputs": [
        {
          "internalType": "uint256",
          "name": "amountIn",
          "type": "uint256"
        },
        {
          "internalType": "uint256",
          "name": "amountOut",
          "type": "uint256"
        }
      ],
      "stateMutability": "nonpayable",
      "type": "function"
    },
    {
      "inputs": [
        {
          "internalType": "bool",
          "name": "fromJunior",
          "type": "bool"
        },
        {
          "internalType": "uint256",
          "name": "amount",
          "type": "uint256"
        },
        {
          "internalType": "uint256",
          "name": "priceLimit",
          "type": "uint256"
        },
        {
          "internalType": "uint256",
          "name": "vaultId",
          "type": "uint256"
        },
        {
          "internalType": "bytes",
          "name": "data",
          "type": "bytes"
        },
        {
          "components": [
            {
              "internalType": "contract SpotPool",
              "name": "amm",
              "type": "address"
            },
            {
              "internalType": "contract OracleJSPool",
              "name": "oamm",
              "type": "address"
            },
            {
              "internalType": "contract ERC20",
              "name": "want",
              "type": "address"
            },
            {
              "internalType": "contract tVault",
              "name": "vault",
              "type": "address"
            },
            {
              "internalType": "contract Splitter",
              "name": "splitter",
              "type": "address"
            },
            {
              "internalType": "address",
              "name": "senior",
              "type": "address"
            },
            {
              "internalType": "address",
              "name": "junior",
              "type": "address"
            },
            {
              "internalType": "uint256",
              "name": "amountIn",
              "type": "uint256"
            },
            {
              "internalType": "uint256",
              "name": "amountOut",
              "type": "uint256"
            },
            {
              "internalType": "uint256",
              "name": "juniorAmount",
              "type": "uint256"
            },
            {
              "internalType": "uint256",
              "name": "seniorAmount",
              "type": "uint256"
            },
            {
              "internalType": "uint256",
              "name": "junior_weight",
              "type": "uint256"
            },
            {
              "internalType": "uint256",
              "name": "pTv",
              "type": "uint256"
            },
            {
              "internalType": "uint256",
              "name": "requiredPair",
              "type": "uint256"
            },
            {
              "internalType": "uint256",
              "name": "markpjs",
              "type": "uint256"
            },
            {
              "internalType": "uint256",
              "name": "multiplier",
              "type": "uint256"
            },
            {
              "internalType": "uint256",
              "name": "seniorSupply",
              "type": "uint256"
            },
            {
              "internalType": "uint256",
              "name": "juniorSupply",
              "type": "uint256"
            },
            {
              "internalType": "bool",
              "name": "inRange",
              "type": "bool"
            },
            {
              "internalType": "uint256",
              "name": "pjs",
              "type": "uint256"
            },
            {
              "internalType": "uint256",
              "name": "curPrice",
              "type": "uint256"
            },
            {
              "internalType": "bool",
              "name": "oracleAMM",
              "type": "bool"
            }
          ],
          "internalType": "struct TrancheMaster.SwapLocalvars",
          "name": "vars",
          "type": "tuple"
        }
      ],
      "name": "_swapToRatio",
      "outputs": [
        {
          "internalType": "uint256",
          "name": "",
          "type": "uint256"
        },
        {
          "internalType": "uint256",
          "name": "",
          "type": "uint256"
        },
        {
          "internalType": "uint256",
          "name": "",
          "type": "uint256"
        }
      ],
      "stateMutability": "nonpayable",
      "type": "function"
    },
    {
      "inputs": [
        {
          "internalType": "uint256",
          "name": "vaultId",
          "type": "uint256"
        }
      ],
      "name": "getAMM",
      "outputs": [
        {
          "internalType": "address",
          "name": "",
          "type": "address"
        }
      ],
      "stateMutability": "view",
      "type": "function"
    },
    {
      "inputs": [
        {
          "internalType": "uint256",
          "name": "vaultId",
          "type": "uint256"
        },
        {
          "internalType": "uint256",
          "name": "pjs",
          "type": "uint256"
        },
        {
          "internalType": "bool",
          "name": "isSenior",
          "type": "bool"
        }
      ],
      "name": "getAvailableDVaultLiq",
      "outputs": [
        {
          "internalType": "uint256",
          "name": "",
          "type": "uint256"
        }
      ],
      "stateMutability": "view",
      "type": "function"
    },
    {
      "inputs": [
        {
          "internalType": "uint256",
          "name": "vaultId",
          "type": "uint256"
        },
        {
          "internalType": "uint256",
          "name": "pjs",
          "type": "uint256"
        }
      ],
      "name": "getDorc",
      "outputs": [
        {
          "internalType": "uint256",
          "name": "",
          "type": "uint256"
        },
        {
          "internalType": "uint256",
          "name": "",
          "type": "uint256"
        },
        {
          "internalType": "uint256",
          "name": "",
          "type": "uint256"
        },
        {
          "internalType": "uint256",
          "name": "",
          "type": "uint256"
        }
      ],
      "stateMutability": "view",
      "type": "function"
    },
    {
      "inputs": [
        {
          "internalType": "uint256",
          "name": "p1",
          "type": "uint256"
        },
        {
          "internalType": "uint256",
          "name": "p2",
          "type": "uint256"
        }
      ],
      "name": "getFee",
      "outputs": [
        {
          "internalType": "uint256",
          "name": "",
          "type": "uint256"
        }
      ],
      "stateMutability": "view",
      "type": "function"
    },
    {
      "inputs": [
        {
          "internalType": "uint256",
          "name": "vaultId",
          "type": "uint256"
        },
        {
          "internalType": "uint256",
          "name": "pjs",
          "type": "uint256"
        },
        {
          "internalType": "bool",
          "name": "isSenior",
          "type": "bool"
        }
      ],
      "name": "getFreedVault",
      "outputs": [
        {
          "internalType": "uint256",
          "name": "",
          "type": "uint256"
        }
      ],
      "stateMutability": "view",
      "type": "function"
    },
    {
      "inputs": [
        {
          "internalType": "uint256",
          "name": "pjs",
          "type": "uint256"
        },
        {
          "internalType": "bool",
          "name": "isSenior",
          "type": "bool"
        },
        {
          "internalType": "uint256",
          "name": "junior_weight",
          "type": "uint256"
        }
      ],
      "name": "getPTV",
      "outputs": [
        {
          "internalType": "uint256",
          "name": "pTv",
          "type": "uint256"
        }
      ],
      "stateMutability": "pure",
      "type": "function"
    },
    {
      "inputs": [
        {
          "internalType": "uint256",
          "name": "vaultId",
          "type": "uint256"
        }
      ],
      "name": "getTrancheTokens",
      "outputs": [
        {
          "internalType": "address",
          "name": "",
          "type": "address"
        },
        {
          "internalType": "address",
          "name": "",
          "type": "address"
        }
      ],
      "stateMutability": "view",
      "type": "function"
    },
    {
      "inputs": [
        {
          "internalType": "uint256",
          "name": "vaultId",
          "type": "uint256"
        },
        {
          "internalType": "address",
          "name": "who",
          "type": "address"
        },
        {
          "internalType": "bool",
          "name": "isSenior",
          "type": "bool"
        },
        {
          "internalType": "uint256",
          "name": "pjs",
          "type": "uint256"
        }
      ],
      "name": "getdVaultBal",
      "outputs": [
        {
          "internalType": "uint256",
          "name": "",
          "type": "uint256"
        }
      ],
      "stateMutability": "view",
      "type": "function"
    },
    {
      "inputs": [
        {
          "internalType": "uint256",
          "name": "vaultId",
          "type": "uint256"
        },
        {
          "internalType": "uint256",
          "name": "junior_amount",
          "type": "uint256"
        }
      ],
      "name": "mergeAndRedeem",
      "outputs": [],
      "stateMutability": "nonpayable",
      "type": "function"
    },
    {
      "inputs": [
        {
          "internalType": "uint256",
          "name": "vaultId",
          "type": "uint256"
        },
        {
          "internalType": "uint256",
          "name": "junior_amount",
          "type": "uint256"
        }
      ],
      "name": "mergeTVault",
      "outputs": [],
      "stateMutability": "nonpayable",
      "type": "function"
    },
    {
      "inputs": [
        {
          "internalType": "uint256",
          "name": "vaultId",
          "type": "uint256"
        },
        {
          "internalType": "uint256",
          "name": "amount",
          "type": "uint256"
        }
      ],
      "name": "mintAndSplit",
      "outputs": [
        {
          "internalType": "uint256",
          "name": "",
          "type": "uint256"
        },
        {
          "internalType": "uint256",
          "name": "",
          "type": "uint256"
        }
      ],
      "stateMutability": "nonpayable",
      "type": "function"
    },
    {
      "inputs": [
        {
          "internalType": "uint256",
          "name": "vaultId",
          "type": "uint256"
        },
        {
          "internalType": "uint256",
          "name": "amount",
          "type": "uint256"
        }
      ],
      "name": "mintTVault",
      "outputs": [],
      "stateMutability": "nonpayable",
      "type": "function"
    },
    {
      "inputs": [
        {
          "internalType": "uint256",
          "name": "amount",
          "type": "uint256"
        },
        {
          "internalType": "uint256",
          "name": "pjs",
          "type": "uint256"
        },
        {
          "internalType": "bool",
          "name": "isSenior",
          "type": "bool"
        },
        {
          "internalType": "uint256",
          "name": "vaultId",
          "type": "uint256"
        }
      ],
      "name": "redeemByDebtVault",
      "outputs": [
        {
          "internalType": "uint256",
          "name": "",
          "type": "uint256"
        }
      ],
      "stateMutability": "nonpayable",
      "type": "function"
    },
    {
      "inputs": [
        {
          "internalType": "uint256",
          "name": "dVaultAmount",
          "type": "uint256"
        },
        {
          "internalType": "uint256",
          "name": "pjs",
          "type": "uint256"
        },
        {
          "internalType": "uint256",
          "name": "vaultId",
          "type": "uint256"
        },
        {
          "internalType": "bool",
          "name": "isSenior",
          "type": "bool"
        }
      ],
      "name": "redeemFromDebtVault",
      "outputs": [
        {
          "internalType": "uint256",
          "name": "",
          "type": "uint256"
        }
      ],
      "stateMutability": "nonpayable",
      "type": "function"
    },
    {
      "inputs": [
        {
          "internalType": "uint256",
          "name": "vaultId",
          "type": "uint256"
        },
        {
          "internalType": "uint256",
          "name": "amount",
          "type": "uint256"
        }
      ],
      "name": "redeemTVault",
      "outputs": [],
      "stateMutability": "nonpayable",
      "type": "function"
    },
    {
      "inputs": [
        {
          "internalType": "uint256",
          "name": "amount",
          "type": "uint256"
        },
        {
          "internalType": "bool",
          "name": "isSenior",
          "type": "bool"
        },
        {
          "internalType": "uint256",
          "name": "vaultId",
          "type": "uint256"
        }
      ],
      "name": "redeemToDebtVault",
      "outputs": [
        {
          "internalType": "uint256",
          "name": "",
          "type": "uint256"
        },
        {
          "internalType": "uint256",
          "name": "",
          "type": "uint256"
        }
      ],
      "stateMutability": "nonpayable",
      "type": "function"
    },
    {
      "inputs": [
        {
          "internalType": "uint256",
          "name": "vaultId",
          "type": "uint256"
        },
        {
          "internalType": "bool",
          "name": "turnOn",
          "type": "bool"
        }
      ],
      "name": "setBoundRevert",
      "outputs": [],
      "stateMutability": "nonpayable",
      "type": "function"
    },
    {
      "inputs": [
        {
          "internalType": "uint256",
          "name": "vaultId",
          "type": "uint256"
        },
        {
          "internalType": "uint256",
          "name": "maxDelta",
          "type": "uint256"
        }
      ],
      "name": "setMaxDelta",
      "outputs": [],
      "stateMutability": "nonpayable",
      "type": "function"
    },
    {
      "inputs": [
        {
          "internalType": "uint256",
          "name": "vaultId",
          "type": "uint256"
        },
        {
          "internalType": "uint256",
          "name": "amount",
          "type": "uint256"
        }
      ],
      "name": "splitTVault",
      "outputs": [],
      "stateMutability": "nonpayable",
      "type": "function"
    },
    {
      "inputs": [
        {
          "internalType": "uint256",
          "name": "amount",
          "type": "uint256"
        },
        {
          "internalType": "uint256",
          "name": "pjs",
          "type": "uint256"
        },
        {
          "internalType": "bool",
          "name": "isSenior",
          "type": "bool"
        },
        {
          "internalType": "uint256",
          "name": "vaultId",
          "type": "uint256"
        }
      ],
      "name": "swapFromDebtVault",
      "outputs": [
        {
          "internalType": "uint256",
          "name": "",
          "type": "uint256"
        }
      ],
      "stateMutability": "nonpayable",
      "type": "function"
    },
    {
      "inputs": [
        {
          "internalType": "bool",
          "name": "wantSenior",
          "type": "bool"
        },
        {
          "internalType": "uint256",
          "name": "amount",
          "type": "uint256"
        },
        {
          "internalType": "uint256",
          "name": "vaultId",
          "type": "uint256"
        },
        {
          "internalType": "uint256",
          "name": "priceLimit",
          "type": "uint256"
        },
        {
          "internalType": "bytes",
          "name": "data",
          "type": "bytes"
        }
      ],
      "name": "swapFromUnderlying",
      "outputs": [],
      "stateMutability": "nonpayable",
      "type": "function"
    },
    {
      "inputs": [
        {
          "internalType": "uint256",
          "name": "amount",
          "type": "uint256"
        },
        {
          "internalType": "uint256",
          "name": "pjs",
          "type": "uint256"
        },
        {
          "internalType": "bool",
          "name": "isSenior",
          "type": "bool"
        },
        {
          "internalType": "uint256",
          "name": "vaultId",
          "type": "uint256"
        }
      ],
      "name": "unRedeemDebtVault",
      "outputs": [],
      "stateMutability": "nonpayable",
      "type": "function"
    }
  ],
  "bytecode": "0x60806040523480156200001157600080fd5b50604051620059383803806200593883398101604081905262000034916200006b565b600280546001600160a01b0390921661010002610100600160a81b031990921691909117905566b1a2bc2ec500006004556200009d565b6000602082840312156200007e57600080fd5b81516001600160a01b03811681146200009657600080fd5b9392505050565b61588b80620000ad6000396000f3fe608060405234801561001057600080fd5b50600436106101a95760003560e01c80639096e3b4116100f9578063bc97283b11610097578063c462544211610071578063c46254421461041e578063d250185c14610431578063f9274edd14610444578063fc50193a1461049f57600080fd5b8063bc97283b146103ca578063bce6e2f2146103dd578063bcf5da3a1461040b57600080fd5b8063a0cd8eb0116100d3578063a0cd8eb014610366578063a996366514610379578063bb75d68a146103a4578063bba6a258146103b757600080fd5b80639096e3b41461032d578063963a97d0146103405780639bfcbd111461035357600080fd5b80636114ffde116101665780637f918497116101405780637f918497146102cb578063813f5186146102fe57806382135ca01461031157806387190d491461031a57600080fd5b80636114ffde1461029257806362900025146102a557806378359b36146102b857600080fd5b8063029dca00146101ae5780631e590b53146101c3578063234dd93f146101fb578063256d7a9f1461021b578063432d4cf81461023c5780634b7d561e1461026a575b600080fd5b6101c16101bc366004614e7d565b6104b2565b005b6101d66101d1366004614e9f565b6107f0565b604080516001600160a01b039384168152929091166020830152015b60405180910390f35b6101c1610209366004614e7d565b60009182526001602052604090912055565b61022e610229366004614ed9565b6108dc565b6040519081526020016101f2565b6101c161024a366004614f1a565b600091825260208290526040909120805460ff1916911515919091179055565b61027d610278366004614e7d565b611391565b604080519283526020830191909152016101f2565b61022e6102a0366004614f4a565b6116da565b6101c16102b3366004614fc4565b61177c565b61022e6102c6366004615057565b611c51565b6102de6102d9366004614e7d565b611c9d565b6040805194855260208501939093529183015260608201526080016101f2565b61027d61030c366004614fc4565b611d34565b61022e60045481565b6101c1610328366004614e7d565b611e76565b6101c161033b366004614e7d565b61218b565b61022e61034e36600461509f565b61241d565b61022e61036136600461509f565b612862565b61027d610374366004614f4a565b612b87565b61038c610387366004614e9f565b612eb9565b6040516001600160a01b0390911681526020016101f2565b61022e6103b23660046150ce565b612f3a565b61027d6103c5366004614fc4565b612f8e565b6101c16103d8366004614e7d565b61346d565b6103f06103eb3660046151bf565b6136c2565b604080519384526020840192909252908201526060016101f2565b6101c161041936600461509f565b61391b565b61027d61042c366004614fc4565b613dcc565b61022e61043f366004614e7d565b61442d565b61022e6104523660046150ce565b6040805191151560f81b6020808401919091526021830193909352604180830194909452805180830390940184526061909101815282519282019290922060009081526008909152205490565b6101c16104ad366004614e7d565b61444b565b60025460405163439e23fd60e01b81526004810184905260009161010090046001600160a01b03169063439e23fd90602401600060405180830381865afa158015610501573d6000803e3d6000fd5b505050506040513d6000823e601f3d908101601f191682016040526105299190810190615562565b80516040516323b872dd60e01b81529192506001600160a01b0316906323b872dd9061055d90339030908790600401615635565b6020604051808303816000875af115801561057c573d6000803e3d6000fd5b505050506040513d601f19601f820116820180604052508101906105a09190615659565b508051602082015160405163095ea7b360e01b81526001600160a01b039092169163095ea7b3916105d79160001990600401615676565b6020604051808303816000875af11580156105f6573d6000803e3d6000fd5b505050506040513d601f19601f8201168201806040525081019061061a9190615659565b5060008082602001516001600160a01b031663dbceb005856040518263ffffffff1660e01b815260040161065091815260200190565b60408051808303816000875af115801561066e573d6000803e3d6000fd5b505050506040513d601f19601f82011682018060405250810190610692919061568f565b9150915060008084602001516001600160a01b031663e9c52e586040518163ffffffff1660e01b81526004016040805180830381865afa1580156106da573d6000803e3d6000fd5b505050506040513d601f19601f820116820180604052508101906106fe91906156b3565b60405163a9059cbb60e01b815291935091506001600160a01b0382169063a9059cbb906107319033908790600401615676565b6020604051808303816000875af1158015610750573d6000803e3d6000fd5b505050506040513d601f19601f820116820180604052508101906107749190615659565b5060405163a9059cbb60e01b81526001600160a01b0383169063a9059cbb906107a39033908890600401615676565b6020604051808303816000875af11580156107c2573d6000803e3d6000fd5b505050506040513d601f19601f820116820180604052508101906107e69190615659565b5050505050505050565b60025460405163439e23fd60e01b8152600481018390526000918291829161010090046001600160a01b03169063439e23fd90602401600060405180830381865afa158015610843573d6000803e3d6000fd5b505050506040513d6000823e601f3d908101601f1916820160405261086b9190810190615562565b905080602001516001600160a01b031663e9c52e586040518163ffffffff1660e01b81526004016040805180830381865afa1580156108ae573d6000803e3d6000fd5b505050506040513d601f19601f820116820180604052508101906108d291906156b3565b9250925050915091565b60006108e6614ccb565b6108f1848483614544565b600760008533868960405160200161090c94939291906156e2565b60405160208183030381529060405280519060200120815260200190815260200160002054816102400181815250508060a001516001600160a01b03166318160ddd6040518163ffffffff1660e01b8152600401602060405180830381865afa15801561097d573d6000803e3d6000fd5b505050506040513d601f19601f820116820180604052508101906109a19190615714565b8160c001516001600160a01b03166318160ddd6040518163ffffffff1660e01b8152600401602060405180830381865afa1580156109e3573d6000803e3d6000fd5b505050506040513d601f19601f82011682018060405250810190610a079190615714565b6102a0830152610280820152610240810151861115610a565760405162461bcd60e51b81526020600482015260066024820152653130b622a92960d11b60448201526064015b60405180910390fd5b600083610a7e5760066000610a6b878961471f565b8152602001908152602001600020610a9b565b60056000610a8c878961471f565b81526020019081526020016000205b604080518082019091528154815260019091015460208201529050838015610ac7575060008160200151115b15610de157805160808301516020830151610ae191614755565b610aeb9190615743565b61018083018190526080830151610b02919061476a565b6101a083015260e0820151610b1a90879086906116da565b61010083018190526101a0830151610b3c91610b36919061477f565b88614794565b6101c08301819052610100830151610b54919061476a565b6101a0830181905260208201511015610b7f5760405162461bcd60e51b8152600401610a4d9061575a565b6101008201516101c0830151610b949161476a565b60056000610ba2888a61471f565b815260200190815260200160002060010160008282540392505081905550816101c00151600760008733888b604051602001610be194939291906156e2565b6040516020818303038152906040528051906020012081526020019081526020016000206000828254039250508190555081602001516001600160a01b03166386a17ff560008460200151610c578660800151610c51886101000151896101c0015161476a90919063ffffffff16565b9061477f565b6040518463ffffffff1660e01b8152600401610c759392919061577a565b600060405180830381600087803b158015610c8f57600080fd5b505af1158015610ca3573d6000803e3d6000fd5b5050505081602001516001600160a01b03166386a17ff560018460200151610cde866101000151876101c0015161476a90919063ffffffff16565b6040518463ffffffff1660e01b8152600401610cfc9392919061577a565b600060405180830381600087803b158015610d1657600080fd5b505af1158015610d2a573d6000803e3d6000fd5b5050505081604001516001600160a01b03166323b872dd836020015133856101c001516040518463ffffffff1660e01b8152600401610d6b93929190615635565b6020604051808303816000875af1158015610d8a573d6000803e3d6000fd5b505050506040513d601f19601f82011682018060405250810190610dae9190615659565b50610ddb610dce836080015184610280015161477f90919063ffffffff16565b836102a00151600a6147ab565b506110f6565b83158015610def5750805115155b156110f657602081015160808301518251610e099161477f565b610e139190615743565b61018083018190526080830151610e2a919061476a565b6101a083015260e0820151610e4290879086906116da565b61010083018190526101a0830151610e5e91610b36919061477f565b6101c08301819052610100830151610e76919061476a565b6101a0830181905281511015610e9e5760405162461bcd60e51b8152600401610a4d9061575a565b6101008201516101c0830151610eb39161476a565b60066000610ec1888a61471f565b815260200190815260200160002060000160008282540392505081905550816101c00151600760008733888b604051602001610f0094939291906156e2565b6040516020818303038152906040528051906020012081526020019081526020016000206000828254039250508190555081602001516001600160a01b03166386a17ff560018460200151610f708660800151610c51886101000151896101c0015161476a90919063ffffffff16565b6040518463ffffffff1660e01b8152600401610f8e9392919061577a565b600060405180830381600087803b158015610fa857600080fd5b505af1158015610fbc573d6000803e3d6000fd5b5050505081602001516001600160a01b03166386a17ff560008460200151610ff7866101000151876101c0015161476a90919063ffffffff16565b6040518463ffffffff1660e01b81526004016110159392919061577a565b600060405180830381600087803b15801561102f57600080fd5b505af1158015611043573d6000803e3d6000fd5b5050505081604001516001600160a01b03166323b872dd836020015133856101c001516040518463ffffffff1660e01b815260040161108493929190615635565b6020604051808303816000875af11580156110a3573d6000803e3d6000fd5b505050506040513d601f19601f820116820180604052508101906110c79190615659565b506110f46110e78360800151846102a0015161477f90919063ffffffff16565b836102800151600a6147ab565b505b60405184151560f81b6020820152602181018790526041810186905260089060009060610160408051601f198184030181529181528151602092830120835290820192909252016000205461026083018190521580159061115c57506000826102400151115b156112f957611175826102400151836102600151614794565b60405185151560f81b6020820152602181018890526041810187905260089060009060610160405160208183030381529060405280519060200120815260200190815260200160002060008282546111cd9190615743565b925050819055506111e8826102400151836102600151614794565b600760008733888b60405160200161120394939291906156e2565b60405160208183030381529060405280519060200120815260200190815260200160002060008282546112369190615743565b9250508190555081604001516001600160a01b03166323b872dd83602001513361126a866102400151876102600151614794565b6040518463ffffffff1660e01b815260040161128893929190615635565b6020604051808303816000875af11580156112a7573d6000803e3d6000fd5b505050506040513d601f19601f820116820180604052508101906112cb9190615659565b50816101c001516112e6836102400151846102600151614794565b6112f0919061579b565b92505050611389565b61137f82602001516001600160a01b031663e4ea238e6040518163ffffffff1660e01b8152600401602060405180830381865afa15801561133e573d6000803e3d6000fd5b505050506040513d601f19601f820116820180604052508101906113629190615714565b836102a00151846102800151611378919061579b565b600a6147ab565b50506101c0015190505b949350505050565b60025460405163439e23fd60e01b8152600481018490526000918291829161010090046001600160a01b03169063439e23fd90602401600060405180830381865afa1580156113e4573d6000803e3d6000fd5b505050506040513d6000823e601f3d908101601f1916820160405261140c9190810190615562565b60c0810151516040516323b872dd60e01b81529192506001600160a01b0316906323b872dd9061144490339030908990600401615635565b6020604051808303816000875af1158015611463573d6000803e3d6000fd5b505050506040513d601f19601f820116820180604052508101906114879190615659565b5060c081015151815160405163095ea7b360e01b81526001600160a01b039092169163095ea7b3916114bd918890600401615676565b6020604051808303816000875af11580156114dc573d6000803e3d6000fd5b505050506040513d601f19601f820116820180604052508101906115009190615659565b50805160405163ef8b30f760e01b8152600481018690526000916001600160a01b03169063ef8b30f790602401602060405180830381865afa15801561154a573d6000803e3d6000fd5b505050506040513d601f19601f8201168201806040525081019061156e9190615714565b82516040516394bf804d60e01b8152600481018390523360248201529192506001600160a01b0316906394bf804d906044016020604051808303816000875af11580156115bf573d6000803e3d6000fd5b505050506040513d601f19601f820116820180604052508101906115e39190615714565b508151602083015160405163095ea7b360e01b81526001600160a01b039092169163095ea7b391611618918590600401615676565b6020604051808303816000875af1158015611637573d6000803e3d6000fd5b505050506040513d601f19601f8201168201806040525081019061165b9190615659565b50602082015160405163dbceb00560e01b8152600481018390526001600160a01b039091169063dbceb0059060240160408051808303816000875af11580156116a8573d6000803e3d6000fd5b505050506040513d601f19601f820116820180604052508101906116cc919061568f565b9350935050505b9250929050565b60008083611703576116fe836116f881670de0b6b3a7640000615743565b9061476a565b61171f565b61171f61171884670de0b6b3a7640000615743565b849061476a565b90508361175d57611758670de0b6b3a764000061173c838861476a565b611746919061579b565b6116f8670de0b6b3a76400008461579b565b611773565b611773670de0b6b3a764000061173c838861477f565b95945050505050565b611784614d93565b61178e85826147d5565b806102a00151611c48576117a2858261499a565b610280840152610260830152151561024082015260408082015190516323b872dd60e01b81526001600160a01b03909116906323b872dd906117ec90339030908b90600401615635565b6020604051808303816000875af115801561180b573d6000803e3d6000fd5b505050506040513d601f19601f8201168201806040525081019061182f9190615659565b5080604001516001600160a01b031663095ea7b38260600151886040518363ffffffff1660e01b8152600401611866929190615676565b6020604051808303816000875af1158015611885573d6000803e3d6000fd5b505050506040513d601f19601f820116820180604052508101906118a99190615659565b5060608101516040516363737ac960e11b8152600481018890526000916001600160a01b03169063c6e6f59290602401602060405180830381865afa1580156118f6573d6000803e3d6000fd5b505050506040513d601f19601f8201168201806040525081019061191a9190615714565b60608301516040516394bf804d60e01b8152600481018390523060248201529192506001600160a01b0316906394bf804d906044016020604051808303816000875af115801561196e573d6000803e3d6000fd5b505050506040513d601f19601f820116820180604052508101906119929190615714565b506060820151608083015160405163095ea7b360e01b81526001600160a01b039092169163095ea7b3916119ca918590600401615676565b6020604051808303816000875af11580156119e9573d6000803e3d6000fd5b505050506040513d601f19601f82011682018060405250810190611a0d9190615659565b5060008083608001516001600160a01b031663dbceb005846040518263ffffffff1660e01b8152600401611a4391815260200190565b60408051808303816000875af1158015611a61573d6000803e3d6000fd5b505050506040513d601f19601f82011682018060405250810190611a85919061568f565b9150915060008a611a965781611a98565b825b9050600085600001516001600160a01b0316633df0fec0308e15858d8d8d6040518763ffffffff1660e01b8152600401611ad7969594939291906157b3565b60408051808303816000875af1158015611af5573d6000803e3d6000fd5b505050506040513d601f19601f82011682018060405250810190611b19919061568f565b915050611b388a8761026001518861028001518961024001518a614adf565b8b15611bc25760a08601516001600160a01b031663a9059cbb33611b5c868561579b565b6040518363ffffffff1660e01b8152600401611b79929190615676565b6020604051808303816000875af1158015611b98573d6000803e3d6000fd5b505050506040513d601f19601f82011682018060405250810190611bbc9190615659565b50611c42565b60c08601516001600160a01b031663a9059cbb33611be0878561579b565b6040518363ffffffff1660e01b8152600401611bfd929190615676565b6020604051808303816000875af1158015611c1c573d6000803e3d6000fd5b505050506040513d601f19601f82011682018060405250810190611c409190615659565b505b50505050505b50505050505050565b60006007600086868686604051602001611c6e94939291906156e2565b604051602081830303815290604052805190602001208152602001908152602001600020549050949350505050565b60008060008060056000611cb1888861471f565b81526020019081526020016000206000015460056000611cd1898961471f565b81526020019081526020016000206001015460066000611cf18a8a61471f565b81526020019081526020016000206000015460066000611d118b8b61471f565b815260200190815260200160002060010154935093509350935092959194509250565b600080611d3f614d93565b611d4986826147d5565b611d58898989898989876136c2565b5061010083015260e082015288611deb57608081015160e08201516040516324a47aeb60e01b81526001600160a01b03909216916324a47aeb91611da29160040190815260200190565b6020604051808303816000875af1158015611dc1573d6000803e3d6000fd5b505050506040513d601f19601f82011682018060405250810190611de59190615714565b50611e6a565b60808101516101008201516040516324a47aeb60e01b81526001600160a01b03909216916324a47aeb91611e259160040190815260200190565b6020604051808303816000875af1158015611e44573d6000803e3d6000fd5b505050506040513d601f19601f82011682018060405250810190611e689190615714565b505b50965096945050505050565b60025460405163439e23fd60e01b81526004810184905260009161010090046001600160a01b03169063439e23fd90602401600060405180830381865afa158015611ec5573d6000803e3d6000fd5b505050506040513d6000823e601f3d908101601f19168201604052611eed9190810190615562565b9050600081602001516001600160a01b031663c70acd8a6040518163ffffffff1660e01b8152600401602060405180830381865afa158015611f33573d6000803e3d6000fd5b505050506040513d601f19601f82011682018060405250810190611f579190615714565b90506000611f7384610c51848181670de0b6b3a7640000615743565b9050600083602001516001600160a01b031663e9c52e586040518163ffffffff1660e01b81526004016040805180830381865afa158015611fb8573d6000803e3d6000fd5b505050506040513d601f19601f82011682018060405250810190611fdc91906156b3565b6040516370a0823160e01b81523360048201529092508391506001600160a01b038316906370a0823190602401602060405180830381865afa158015612026573d6000803e3d6000fd5b505050506040513d601f19601f8201168201806040525081019061204a9190615714565b10156120935760405162461bcd60e51b81526020600482015260186024820152774e6f7420656e6f7567682073656e696f7220746f6b656e7360401b6044820152606401610a4d565b602084015160405163e4e4a2a360e01b815260048101879052602481018490523360448201526001600160a01b039091169063e4e4a2a390606401600060405180830381600087803b1580156120e857600080fd5b505af11580156120fc573d6000803e3d6000fd5b505085516001600160a01b0316915063ba087652905061211c848861579b565b6040516001600160e01b031960e084901b1681526004810191909152336024820181905260448201526064016020604051808303816000875af1158015612167573d6000803e3d6000fd5b505050506040513d601f19601f82011682018060405250810190611c489190615714565b60025460405163439e23fd60e01b81526004810184905260009161010090046001600160a01b03169063439e23fd90602401600060405180830381865afa1580156121da573d6000803e3d6000fd5b505050506040513d6000823e601f3d908101601f191682016040526122029190810190615562565b9050600081602001516001600160a01b031663e9c52e586040518163ffffffff1660e01b81526004016040805180830381865afa158015612247573d6000803e3d6000fd5b505050506040513d601f19601f8201168201806040525081019061226b91906156b3565b915050600082602001516001600160a01b031663c70acd8a6040518163ffffffff1660e01b8152600401602060405180830381865afa1580156122b2573d6000803e3d6000fd5b505050506040513d601f19601f820116820180604052508101906122d69190615714565b905060006122f285610c51848181670de0b6b3a7640000615743565b6040516370a0823160e01b815233600482015290915081906001600160a01b038516906370a0823190602401602060405180830381865afa15801561233b573d6000803e3d6000fd5b505050506040513d601f19601f8201168201806040525081019061235f9190615714565b10156123a85760405162461bcd60e51b81526020600482015260186024820152774e6f7420656e6f7567682073656e696f7220746f6b656e7360401b6044820152606401610a4d565b602084015160405163e4e4a2a360e01b815260048101879052602481018390523360448201526001600160a01b039091169063e4e4a2a390606401600060405180830381600087803b1580156123fd57600080fd5b505af1158015612411573d6000803e3d6000fd5b50505050505050505050565b6000612427614ccb565b612432838583614544565b61244185858360e001516116da565b610100820181905261245490879061476a565b6124748260800151610c518461010001518a61476a90919063ffffffff16565b6101e08301526101a0820152831561260257806101a001516005600061249a868961471f565b815260200190815260200160002060010154101580156124de5750806101e00151600560006124c9868961471f565b81526020019081526020016000206000015410155b61251b5760405162461bcd60e51b815260206004820152600e60248201526d4e6f7420656e6f756768206c697160901b6044820152606401610a4d565b806101a001516005600061252f868961471f565b815260200190815260200160002060010160008282540392505081905550806101e0015160056000612561868961471f565b8152602080820192909252604090810160002080549390930390925560a0830151908301516101a084015192516323b872dd60e01b81526001600160a01b03909216926323b872dd926125b992913391600401615635565b6020604051808303816000875af11580156125d8573d6000803e3d6000fd5b505050506040513d601f19601f820116820180604052508101906125fc9190615659565b5061277d565b806101a0015160066000612616868961471f565b8152602001908152602001600020600001541015801561265a5750806101e0015160066000612645868961471f565b81526020019081526020016000206001015410155b6126975760405162461bcd60e51b815260206004820152600e60248201526d4e6f7420656e6f756768206c697160901b6044820152606401610a4d565b806101a00151600660006126ab868961471f565b815260200190815260200160002060000160008282540392505081905550806101e00151600660006126dd868961471f565b8152602001908152602001600020600101600082825403925050819055508060c001516001600160a01b03166323b872dd826020015133846101a001516040518463ffffffff1660e01b815260040161273893929190615635565b6020604051808303816000875af1158015612757573d6000803e3d6000fd5b505050506040513d601f19601f8201168201806040525081019061277b9190615659565b505b60405184151560f81b60208201526021810186905260418101849052869060089060009060610160405160208183030381529060405280519060200120815260200190815260200160002060008282546127d7919061579b565b9091555050604080820151602083015191516323b872dd60e01b81526001600160a01b03909116916323b872dd916128159133918b90600401615635565b6020604051808303816000875af1158015612834573d6000803e3d6000fd5b505050506040513d601f19601f820116820180604052508101906128589190615659565b5050949350505050565b600061286c614ccb565b612877838583614544565b61288685858360e001516116da565b610100820181905261289990879061477f565b61022082015283612a0f5785600560006128b3868961471f565b81526020019081526020016000206000015410156128e35760405162461bcd60e51b8152600401610a4d9061575a565b85600560006128f2868961471f565b8152602080820192909252604090810160002080549390930390925560c08301519083015191516323b872dd60e01b81526001600160a01b03909116916323b872dd916129459133918b90600401615635565b6020604051808303816000875af1158015612964573d6000803e3d6000fd5b505050506040513d601f19601f820116820180604052508101906129889190615659565b5080604001516001600160a01b03166323b872dd8260200151338461022001516040518463ffffffff1660e01b81526004016129c693929190615635565b6020604051808303816000875af11580156129e5573d6000803e3d6000fd5b505050506040513d601f19601f82011682018060405250810190612a099190615659565b50612b79565b8560066000612a1e868961471f565b8152602001908152602001600020600101541015612a4e5760405162461bcd60e51b8152600401610a4d9061575a565b8560066000612a5d868961471f565b8152602001908152602001600020600101600082825403925050819055508060a001516001600160a01b03166323b872dd338360200151896040518463ffffffff1660e01b8152600401612ab393929190615635565b6020604051808303816000875af1158015612ad2573d6000803e3d6000fd5b505050506040513d601f19601f82011682018060405250810190612af69190615659565b5080604001516001600160a01b03166323b872dd8260200151338461022001516040518463ffffffff1660e01b8152600401612b3493929190615635565b6020604051808303816000875af1158015612b53573d6000803e3d6000fd5b505050506040513d601f19601f82011682018060405250810190612b779190615659565b505b610220015195945050505050565b600080612b92614ccb565b612b9d848683614544565b80602001516001600160a01b03166381e9b5936040518163ffffffff1660e01b81526004016060604051808303816000875af1158015612be1573d6000803e3d6000fd5b505050506040513d601f19601f82011682018060405250810190612c059190615808565b610120840181905260e0840151612c21935090915087906116da565b6101008201819052612c33908761477f565b6101408201819052610120820151604051600791600091612c5c91899133918c916020016156e2565b6040516020818303038152906040528051906020012081526020019081526020016000206000828254612c8f919061579b565b90915550508415612d9f576080810151612ca99087614755565b60056000612cbc8785610120015161471f565b81526020019081526020016000206000016000828254612cdc919061579b565b925050819055508560056000612cf78785610120015161471f565b81526020019081526020016000206001016000828254612d17919061579b565b909155505060a081015160208201516040516323b872dd60e01b81526001600160a01b03909216916323b872dd91612d56913391908b90600401615635565b6020604051808303816000875af1158015612d75573d6000803e3d6000fd5b505050506040513d601f19601f82011682018060405250810190612d999190615659565b50612ea0565b6080810151612dae9087614755565b60066000612dc18785610120015161471f565b81526020019081526020016000206001016000828254612de1919061579b565b925050819055508560066000612dfc8785610120015161471f565b81526020019081526020016000206000016000828254612e1c919061579b565b909155505060c081015160208201516040516323b872dd60e01b81526001600160a01b03909216916323b872dd91612e5b913391908b90600401615635565b6020604051808303816000875af1158015612e7a573d6000803e3d6000fd5b505050506040513d601f19601f82011682018060405250810190612e9e9190615659565b505b8061014001518161012001519250925050935093915050565b60025460405163439e23fd60e01b81526004810183905260009161010090046001600160a01b03169063439e23fd90602401600060405180830381865afa158015612f08573d6000803e3d6000fd5b505050506040513d6000823e601f3d908101601f19168201604052612f309190810190615562565b6040015192915050565b600081612f665760066000612f4f868661471f565b815260200190815260200160002060000154611389565b60056000612f74868661471f565b815260200190815260200160002060010154949350505050565b600080612f99614d93565b612fa386826147d5565b806102a001516133e057612fb7868261499a565b61028084015261026083015215156102408201528661308057881561306057613059612ff3670de0b6b3a764000067016345785d8a000061579b565b82600001516001600160a01b03166311e715d66040518163ffffffff1660e01b8152600401602060405180830381865afa158015613035573d6000803e3d6000fd5b505050506040513d601f19601f82011682018060405250810190610c519190615714565b9650613080565b61307d612ff367016345785d8a0000670de0b6b3a7640000615743565b96505b805160405162f7c3fb60e61b81526001600160a01b0390911690633df0fec0906130b89033908d908d908d908c908c906004016157b3565b60408051808303816000875af11580156130d6573d6000803e3d6000fd5b505050506040513d601f19601f820116820180604052508101906130fa919061568f565b809350819450505061311e8682610260015183610280015184610240015185614adf565b60025460ff16156133db5760008082608001516001600160a01b03166381e9b5936040518163ffffffff1660e01b81526004016060604051808303816000875af1158015613170573d6000803e3d6000fd5b505050506040513d601f19601f820116820180604052508101906131949190615808565b509150915060008084608001516001600160a01b0316635235c8bb86600001516001600160a01b03166311e715d66040518163ffffffff1660e01b8152600401602060405180830381865afa1580156131f1573d6000803e3d6000fd5b505050506040513d601f19601f820116820180604052508101906132159190615714565b6040518263ffffffff1660e01b815260040161323391815260200190565b6040805180830381865afa15801561324f573d6000803e3d6000fd5b505050506040513d601f19601f82011682018060405250810190613273919061568f565b915091508c8015613293575082613291662386f26fc100008361579b565b105b156133285760006132a4848361442d565b90508560c001516001600160a01b03166323b872dd338860800151846040518463ffffffff1660e01b81526004016132de93929190615635565b6020604051808303816000875af11580156132fd573d6000803e3d6000fd5b505050506040513d601f19601f820116820180604052508101906133219190615659565b50506133d6565b8c1580156133455750613342662386f26fc100008461579b565b81115b156133d6576000613356858461442d565b90508560a001516001600160a01b03166323b872dd338860800151846040518463ffffffff1660e01b815260040161339093929190615635565b6020604051808303816000875af11580156133af573d6000803e3d6000fd5b505050506040513d601f19601f820116820180604052508101906133d39190615659565b50505b505050505b611e6a565b602081015160405163238ea2d960e01b81523360048201528a15156024820152604481018a90526001600160a01b039091169063238ea2d9906064016020604051808303816000875af115801561343b573d6000803e3d6000fd5b505050506040513d601f19601f8201168201806040525081019061345f9190615714565b915050965096945050505050565b60025460405163439e23fd60e01b81526004810184905260009161010090046001600160a01b03169063439e23fd90602401600060405180830381865afa1580156134bc573d6000803e3d6000fd5b505050506040513d6000823e601f3d908101601f191682016040526134e49190810190615562565b60c0810151516040516323b872dd60e01b81529192506001600160a01b0316906323b872dd9061351c90339030908790600401615635565b6020604051808303816000875af115801561353b573d6000803e3d6000fd5b505050506040513d601f19601f8201168201806040525081019061355f9190615659565b5060c081015151815160405163095ea7b360e01b81526001600160a01b039092169163095ea7b391613595918690600401615676565b6020604051808303816000875af11580156135b4573d6000803e3d6000fd5b505050506040513d601f19601f820116820180604052508101906135d89190615659565b50805160405163ef8b30f760e01b8152600481018490526000916001600160a01b03169063ef8b30f790602401602060405180830381865afa158015613622573d6000803e3d6000fd5b505050506040513d601f19601f820116820180604052508101906136469190615714565b82516040516394bf804d60e01b8152600481018390523360248201529192506001600160a01b0316906394bf804d906044016020604051808303816000875af1158015613697573d6000803e3d6000fd5b505050506040513d601f19601f820116820180604052508101906136bb9190615714565b5050505050565b600080600083600001516001600160a01b03166311e715d66040518163ffffffff1660e01b8152600401602060405180830381865afa158015613709573d6000803e3d6000fd5b505050506040513d601f19601f8201168201806040525081019061372d9190615714565b6101c0850152891561375a57610160840151613755906116f881670de0b6b3a7640000615743565b613782565b613782846101600151670de0b6b3a76400006137769190615743565b6101608601519061476a565b6101e0850152613792878561499a565b61028087015261026086015215156102408501526102a084015161390e57896138db576137df846101e00151856101c001516137ce919061579b565b6101e08601516116f8908c9061477f565b60e08501819052845160405162f7c3fb60e61b81526001600160a01b0390911691633df0fec09161381e9130918f1591908e908d908d906004016157b3565b60408051808303816000875af115801561383c573d6000803e3d6000fd5b505050506040513d601f19601f82011682018060405250810190613860919061568f565b61010086015260e085015261026084015161028085015161024086015161388b928a92909188614adf565b6101008401516101e08501516138a290829061477f565b6101e08601516101008701516138b79161477f565b60e08701516138c6908d615743565b6138d09190615743565b92509250925061390e565b6137df846101e00151613904866101c00151670de0b6b3a764000061476a90919063ffffffff16565b6137ce919061579b565b9750975097945050505050565b613923614ccb565b61392e828483614544565b61393d84848360e001516116da565b610100820181905261395090869061476a565b6101808201526040518590600790600090613975908690339089908b906020016156e2565b6040516020818303038152906040528051906020012081526020019081526020016000205410156139e05760405162461bcd60e51b81526020600482015260156024820152741b9bdd08195b9bdd59da081915985d5b1d0818985b605a1b6044820152606401610a4d565b8215613bd85761018081015160808201516139fa9161477f565b60056000613a08858861471f565b81526020019081526020016000206000015410158015613a4c575080610180015160056000613a37858861471f565b81526020019081526020016000206001015410155b613a935760405162461bcd60e51b81526020600482015260186024820152774e6f206c697175696469747920746f20756e72656465656d60401b6044820152606401610a4d565b6101808101516080820151613aa79161477f565b60056000613ab5858861471f565b81526020019081526020016000206000016000828254039250508190555080610180015160056000613ae7858861471f565b815260200190815260200160002060010160008282540392505081905550846007600084338789604051602001613b2194939291906156e2565b604051602081830303815290604052805190602001208152602001908152602001600020600082825403925050819055508060a001516001600160a01b03166323b872dd8260200151338461018001516040518463ffffffff1660e01b8152600401613b8f93929190615635565b6020604051808303816000875af1158015613bae573d6000803e3d6000fd5b505050506040513d601f19601f82011682018060405250810190613bd29190615659565b506136bb565b6101808101516080820151613bec9161477f565b60066000613bfa858861471f565b81526020019081526020016000206001015410158015613c3e575080610180015160066000613c29858861471f565b81526020019081526020016000206000015410155b613c855760405162461bcd60e51b81526020600482015260186024820152774e6f206c697175696469747920746f20756e72656465656d60401b6044820152606401610a4d565b6101808101516080820151613c999161477f565b60066000613ca7858861471f565b81526020019081526020016000206001016000828254039250508190555080610180015160066000613cd9858861471f565b815260200190815260200160002060000160008282540392505081905550846007600084338789604051602001613d1394939291906156e2565b604051602081830303815290604052805190602001208152602001908152602001600020600082825403925050819055508060c001516001600160a01b03166323b872dd8260200151338461018001516040518463ffffffff1660e01b8152600401613d8193929190615635565b6020604051808303816000875af1158015613da0573d6000803e3d6000fd5b505050506040513d601f19601f82011682018060405250810190613dc49190615659565b505050505050565b600080613dd7614d93565b613de186826147d5565b80606001516001600160a01b03166323b872dd33308b6040518463ffffffff1660e01b8152600401613e1593929190615635565b6020604051808303816000875af1158015613e34573d6000803e3d6000fd5b505050506040513d601f19601f82011682018060405250810190613e589190615659565b506060810151608082015160405163095ea7b360e01b81526001600160a01b039092169163095ea7b391613e90918c90600401615676565b6020604051808303816000875af1158015613eaf573d6000803e3d6000fd5b505050506040513d601f19601f82011682018060405250810190613ed39190615659565b50608081015160405163dbceb00560e01b8152600481018a90526001600160a01b039091169063dbceb0059060240160408051808303816000875af1158015613f20573d6000803e3d6000fd5b505050506040513d601f19601f82011682018060405250810190613f44919061568f565b61014083015261012082015288613f6057806101200151613f67565b8061014001515b60e08201526102a081015161418757613f80868261499a565b610280840152610260830152151561024082015286613fdb578815613fbf57613fb8600454670de0b6b3a7640000612ff3919061579b565b9650613fdb565b613fd8600454670de0b6b3a7640000612ff39190615743565b96505b88156140635760a0810151815160e083015160405163095ea7b360e01b81526001600160a01b039093169263095ea7b39261401a929091600401615676565b6020604051808303816000875af1158015614039573d6000803e3d6000fd5b505050506040513d601f19601f8201168201806040525081019061405d9190615659565b506140e1565b60c0810151815160e083015160405163095ea7b360e01b81526001600160a01b039093169263095ea7b39261409c929091600401615676565b6020604051808303816000875af11580156140bb573d6000803e3d6000fd5b505050506040513d601f19601f820116820180604052508101906140df9190615659565b505b805160e082015160405162f7c3fb60e61b81526001600160a01b0390921691633df0fec09161411c9130918e918d908c908c906004016157b3565b60408051808303816000875af115801561413a573d6000803e3d6000fd5b505050506040513d601f19601f8201168201806040525081019061415e919061568f565b80935081945050506141828682610260015183610280015184610240015185614adf565b61431e565b8815614210578060a001516001600160a01b031663095ea7b382602001518360e001516040518363ffffffff1660e01b81526004016141c7929190615676565b6020604051808303816000875af11580156141e6573d6000803e3d6000fd5b505050506040513d601f19601f8201168201806040525081019061420a9190615659565b5061428f565b8060c001516001600160a01b031663095ea7b382602001518360e001516040518363ffffffff1660e01b815260040161424a929190615676565b6020604051808303816000875af1158015614269573d6000803e3d6000fd5b505050506040513d601f19601f8201168201806040525081019061428d9190615659565b505b602081015160e082015160405163238ea2d960e01b81523060048201528b1515602482015260448101919091526001600160a01b039091169063238ea2d9906064016020604051808303816000875af11580156142f0573d6000803e3d6000fd5b505050506040513d601f19601f820116820180604052508101906143149190615714565b91508060e0015192505b886143a8578060a001516001600160a01b031663a9059cbb3383610140015185614348919061579b565b6040518363ffffffff1660e01b8152600401614365929190615676565b6020604051808303816000875af1158015614384573d6000803e3d6000fd5b505050506040513d601f19601f82011682018060405250810190611de59190615659565b8060c001516001600160a01b031663a9059cbb33836101200151856143cd919061579b565b6040518363ffffffff1660e01b81526004016143ea929190615676565b6020604051808303816000875af1158015614409573d6000803e3d6000fd5b505050506040513d601f19601f82011682018060405250810190611e689190615659565b60006144398284615743565b614444906000615836565b9392505050565b60025460405163439e23fd60e01b81526004810184905260009161010090046001600160a01b03169063439e23fd90602401600060405180830381865afa15801561449a573d6000803e3d6000fd5b505050506040513d6000823e601f3d908101601f191682016040526144c29190810190615562565b8051604051635d043b2960e11b815260048101859052336024820181905260448201529192506001600160a01b03169063ba087652906064016020604051808303816000875af115801561451a573d6000803e3d6000fd5b505050506040513d601f19601f8201168201806040525081019061453e9190615714565b50505050565b60025460405163439e23fd60e01b81526004810185905260009161010090046001600160a01b03169063439e23fd90602401600060405180830381865afa158015614593573d6000803e3d6000fd5b505050506040513d6000823e601f3d908101601f191682016040526145bb9190810190615562565b6040808201516001600160a01b0390811685528251811685830152602080840151909116818601819052825163638566c560e11b815292519394509263c70acd8a9260048082019392918290030181865afa15801561461e573d6000803e3d6000fd5b505050506040513d601f19601f820116820180604052508101906146429190615714565b60e08301528261466c5760e0820151614667906116f881670de0b6b3a7640000615743565b614692565b6146928260e00151670de0b6b3a76400006146879190615743565b60e08401519061476a565b82608001818152505081602001516001600160a01b031663e9c52e586040518163ffffffff1660e01b81526004016040805180830381865afa1580156146dc573d6000803e3d6000fd5b505050506040513d601f19601f8201168201806040525081019061470091906156b3565b6001600160a01b0390811660a08501521660c090920191909152505050565b60008161472c818561579b565b61473790600161579b565b614741848661579b565b61474b9190615836565b614444919061579b565b60006144448383670de0b6b3a7640000614c7e565b600061444483670de0b6b3a764000084614cac565b60006144448383670de0b6b3a7640000614cac565b6000818311156147a45781614444565b5090919050565b60006147b7828461579b565b8411158061138957506147ca8284615743565b909310159392505050565b60025460405163439e23fd60e01b81526004810184905260009161010090046001600160a01b03169063439e23fd90602401600060405180830381865afa158015614824573d6000803e3d6000fd5b505050506040513d6000823e601f3d908101601f1916820160405261484c9190810190615562565b60c081015161010001511580156102a085015290915061487e5760408101516001600160a01b0316602083015261488f565b60408101516001600160a01b031682525b60208101516001600160a01b03908116608084018190528251909116606084015260408051631d38a5cb60e31b8152815163e9c52e58926004808401939192918290030181865afa1580156148e8573d6000803e3d6000fd5b505050506040513d601f19601f8201168201806040525081019061490c91906156b3565b6001600160a01b0390811660a085015290811660c084015260808301516040805163638566c560e11b81529051919092169163c70acd8a9160048083019260209291908290030181865afa158015614968573d6000803e3d6000fd5b505050506040513d601f19601f8201168201806040525081019061498c9190615714565b610160909201919091525050565b6000828152602081905260408120548190819060ff1615614ad857600084608001516001600160a01b031663d85734466040518163ffffffff1660e01b8152600401606060405180830381865afa1580156149f9573d6000803e3d6000fd5b505050506040513d601f19601f82011682018060405250810190614a1d9190615808565b92505050600085600001516001600160a01b03166311e715d66040518163ffffffff1660e01b8152600401602060405180830381865afa158015614a65573d6000803e3d6000fd5b505050506040513d601f19601f82011682018060405250810190614a899190615714565b905080614aac600354670de0b6b3a7640000614aa5919061579b565b849061477f565b118015614ad0575080614ace600354670de0b6b3a7640000614aa59190615743565b105b945090925090505b9250925092565b60008581526020819052604090205460ff16156136bb57600081600001516001600160a01b03166311e715d66040518163ffffffff1660e01b8152600401602060405180830381865afa158015614b3a573d6000803e3d6000fd5b505050506040513d601f19601f82011682018060405250810190614b5e9190615714565b90508215614bf15780614b87600354670de0b6b3a7640000614b80919061579b565b879061477f565b1080614baa575080614ba8600354670de0b6b3a7640000614b809190615743565b115b15614bec5760405162461bcd60e51b81526020600482015260126024820152715472616465206f757420626f756e6461727960701b6044820152606401610a4d565b613dc4565b6000858211614c0957614c048287615743565b614c13565b614c138683615743565b90506000868611614c2d57614c288688615743565b614c37565b614c378787615743565b9050808211156107e65760405162461bcd60e51b81526020600482015260126024820152715472616465206f757420626f756e6461727960701b6044820152606401610a4d565b828202811515841585830485141716614c9657600080fd5b6001826001830304018115150290509392505050565b828202811515841585830485141716614cc457600080fd5b0492915050565b604080516102c08101825260008082526020808301829052828401829052835180850190945281845283015290606082019081526020016000815260200160006001600160a01b0316815260200160006001600160a01b031681526020016000815260200160008152602001600081526020016000815260200160008152602001600081526020016000815260200160008152602001600081526020016000815260200160008152602001600081526020016000815260200160008152602001600081525090565b604051806102c0016040528060006001600160a01b0316815260200160006001600160a01b0316815260200160006001600160a01b0316815260200160006001600160a01b0316815260200160006001600160a01b0316815260200160006001600160a01b0316815260200160006001600160a01b03168152602001600081526020016000815260200160008152602001600081526020016000815260200160008152602001600081526020016000815260200160008152602001600081526020016000815260200160001515815260200160008152602001600081526020016000151581525090565b60008060408385031215614e9057600080fd5b50508035926020909101359150565b600060208284031215614eb157600080fd5b5035919050565b8015158114614ec657600080fd5b50565b8035614ed481614eb8565b919050565b60008060008060808587031215614eef57600080fd5b8435935060208501359250604085013591506060850135614f0f81614eb8565b939692955090935050565b60008060408385031215614f2d57600080fd5b823591506020830135614f3f81614eb8565b809150509250929050565b600080600060608486031215614f5f57600080fd5b833592506020840135614f7181614eb8565b929592945050506040919091013590565b60008083601f840112614f9457600080fd5b50813567ffffffffffffffff811115614fac57600080fd5b6020830191508360208285010111156116d357600080fd5b60008060008060008060a08789031215614fdd57600080fd5b8635614fe881614eb8565b9550602087013594506040870135935060608701359250608087013567ffffffffffffffff81111561501957600080fd5b61502589828a01614f82565b979a9699509497509295939492505050565b6001600160a01b0381168114614ec657600080fd5b8035614ed481615037565b6000806000806080858703121561506d57600080fd5b84359350602085013561507f81615037565b9250604085013561508f81614eb8565b9396929550929360600135925050565b600080600080608085870312156150b557600080fd5b8435935060208501359250604085013561508f81614eb8565b6000806000606084860312156150e357600080fd5b833592506020840135915060408401356150fc81614eb8565b809150509250925092565b634e487b7160e01b600052604160045260246000fd5b6040516102c0810167ffffffffffffffff8111828210171561514157615141615107565b60405290565b604051610120810167ffffffffffffffff8111828210171561514157615141615107565b60405160e0810167ffffffffffffffff8111828210171561514157615141615107565b604051601f8201601f1916810167ffffffffffffffff811182821017156151b7576151b7615107565b604052919050565b60008060008060008060008789036103608112156151dc57600080fd5b88356151e781614eb8565b9750602089013596506040890135955060608901359450608089013567ffffffffffffffff81111561521857600080fd5b6152248b828c01614f82565b9095509350506102c0609f198201121561523d57600080fd5b5061524661511d565b61525260a08a0161504c565b815261526060c08a0161504c565b602082015261527160e08a0161504c565b60408201526152836101008a0161504c565b60608201526152956101208a0161504c565b60808201526152a76101408a0161504c565b60a08201526101606152ba818b0161504c565b60c0830152610180808b013560e08401526101a0808c01356101008501526101c0808d01356101208601526101e0808e0135610140870152610200808f0135868801526102209550858f0135858801526102409450848f0135848801526102609350838f0135838801526102809250828f0135828801526102a09150818f013581880152506102c08e0135858701526153566102e08f01614ec9565b848701526103008e0135838701526103208e01358287015261537b6103408f01614ec9565b8187015250505050508091505092959891949750929550565b8051614ed481615037565b600067ffffffffffffffff8211156153b9576153b9615107565b5060051b60200190565b600082601f8301126153d457600080fd5b815160206153e96153e48361539f565b61518e565b82815260059290921b8401810191818101908684111561540857600080fd5b8286015b8481101561542c57805161541f81615037565b835291830191830161540c565b509695505050505050565b600082601f83011261544857600080fd5b815160206154586153e48361539f565b82815260059290921b8401810191818101908684111561547757600080fd5b8286015b8481101561542c578051835291830191830161547b565b8051614ed481614eb8565b600061012082840312156154b057600080fd5b6154b8615147565b90506154c382615394565b8152602082015167ffffffffffffffff808211156154e057600080fd5b6154ec858386016153c3565b6020840152604084015191508082111561550557600080fd5b5061551284828501615437565b604083015250606082015160608201526080820151608082015260a082015160a082015260c082015160c082015260e082015160e0820152610100615558818401615492565b9082015292915050565b60006020828403121561557457600080fd5b815167ffffffffffffffff8082111561558c57600080fd5b9083019060e082860312156155a057600080fd5b6155a861516b565b6155b183615394565b81526155bf60208401615394565b60208201526155d060408401615394565b60408201526155e160608401615394565b60608201526155f260808401615394565b608082015261560360a08401615394565b60a082015260c08301518281111561561a57600080fd5b6156268782860161549d565b60c08301525095945050505050565b6001600160a01b039384168152919092166020820152604081019190915260600190565b60006020828403121561566b57600080fd5b815161444481614eb8565b6001600160a01b03929092168252602082015260400190565b600080604083850312156156a257600080fd5b505080516020909101519092909150565b600080604083850312156156c657600080fd5b82516156d181615037565b6020840151909250614f3f81615037565b93845260609290921b6bffffffffffffffffffffffff19166020840152151560f81b6034830152603582015260550190565b60006020828403121561572657600080fd5b5051919050565b634e487b7160e01b600052601160045260246000fd5b6000828210156157555761575561572d565b500390565b6020808252600690820152653634b8a2a92960d11b604082015260600190565b92151583526001600160a01b03919091166020830152604082015260600190565b600082198211156157ae576157ae61572d565b500190565b60018060a01b0387168152851515602082015284604082015283606082015260a060808201528160a0820152818360c0830137600081830160c090810191909152601f909201601f1916010195945050505050565b60008060006060848603121561581d57600080fd5b8351925060208401519150604084015190509250925092565b60008160001904831182151516156158505761585061572d565b50029056fea2646970667358221220942e1c13e6175bf22b2b3cedb339ec231244d9c6c499adb196f1450469eb3bef64736f6c634300080a0033",
  "linkReferences": {},
  "deployedLinkReferences": {}
}