{
  "_format": "hh-sol-artifact-1",
  "contractName": "TrancheMaster",
  "sourceName": "src/tranchemaster.sol",
  "abi": [
    {
      "inputs": [
        {
          "internalType": "contract TrancheFactory",
          "name": "_tFactory",
          "type": "address"
        }
      ],
      "stateMutability": "nonpayable",
      "type": "constructor"
    },
    {
      "inputs": [],
      "name": "SLIPPAGETOLERANCE",
      "outputs": [
        {
          "internalType": "uint256",
          "name": "",
          "type": "uint256"
        }
      ],
      "stateMutability": "view",
      "type": "function"
    },
    {
      "inputs": [
        {
          "internalType": "bool",
          "name": "toJunior",
          "type": "bool"
        },
        {
          "internalType": "uint256",
          "name": "amount",
          "type": "uint256"
        },
        {
          "internalType": "uint256",
          "name": "priceLimit",
          "type": "uint256"
        },
        {
          "internalType": "uint256",
          "name": "vaultId",
          "type": "uint256"
        },
        {
          "internalType": "bytes",
          "name": "data",
          "type": "bytes"
        }
      ],
      "name": "_swapFromInstrument",
      "outputs": [
        {
          "internalType": "uint256",
          "name": "amountIn",
          "type": "uint256"
        },
        {
          "internalType": "uint256",
          "name": "amountOut",
          "type": "uint256"
        }
      ],
      "stateMutability": "nonpayable",
      "type": "function"
    },
    {
      "inputs": [
        {
          "internalType": "bool",
          "name": "toJunior",
          "type": "bool"
        },
        {
          "internalType": "int256",
          "name": "amount",
          "type": "int256"
        },
        {
          "internalType": "uint256",
          "name": "priceLimit",
          "type": "uint256"
        },
        {
          "internalType": "uint256",
          "name": "vaultId",
          "type": "uint256"
        },
        {
          "internalType": "bytes",
          "name": "data",
          "type": "bytes"
        }
      ],
      "name": "_swapFromTranche",
      "outputs": [
        {
          "internalType": "uint256",
          "name": "amountIn",
          "type": "uint256"
        },
        {
          "internalType": "uint256",
          "name": "amountOut",
          "type": "uint256"
        }
      ],
      "stateMutability": "nonpayable",
      "type": "function"
    },
    {
      "inputs": [
        {
          "internalType": "bool",
          "name": "fromJunior",
          "type": "bool"
        },
        {
          "internalType": "uint256",
          "name": "amount",
          "type": "uint256"
        },
        {
          "internalType": "uint256",
          "name": "priceLimit",
          "type": "uint256"
        },
        {
          "internalType": "uint256",
          "name": "vaultId",
          "type": "uint256"
        },
        {
          "internalType": "bytes",
          "name": "data",
          "type": "bytes"
        }
      ],
      "name": "_swapToInstrument",
      "outputs": [
        {
          "internalType": "uint256",
          "name": "amountIn",
          "type": "uint256"
        },
        {
          "internalType": "uint256",
          "name": "amountOut",
          "type": "uint256"
        }
      ],
      "stateMutability": "nonpayable",
      "type": "function"
    },
    {
      "inputs": [
        {
          "internalType": "bool",
          "name": "fromJunior",
          "type": "bool"
        },
        {
          "internalType": "uint256",
          "name": "amount",
          "type": "uint256"
        },
        {
          "internalType": "uint256",
          "name": "priceLimit",
          "type": "uint256"
        },
        {
          "internalType": "uint256",
          "name": "vaultId",
          "type": "uint256"
        },
        {
          "internalType": "bytes",
          "name": "data",
          "type": "bytes"
        },
        {
          "components": [
            {
              "internalType": "contract SpotPool",
              "name": "amm",
              "type": "address"
            },
            {
              "internalType": "contract ERC20",
              "name": "want",
              "type": "address"
            },
            {
              "internalType": "contract tVault",
              "name": "vault",
              "type": "address"
            },
            {
              "internalType": "contract Splitter",
              "name": "splitter",
              "type": "address"
            },
            {
              "internalType": "address",
              "name": "senior",
              "type": "address"
            },
            {
              "internalType": "address",
              "name": "junior",
              "type": "address"
            },
            {
              "internalType": "uint256",
              "name": "amountIn",
              "type": "uint256"
            },
            {
              "internalType": "uint256",
              "name": "amountOut",
              "type": "uint256"
            },
            {
              "internalType": "uint256",
              "name": "juniorAmount",
              "type": "uint256"
            },
            {
              "internalType": "uint256",
              "name": "seniorAmount",
              "type": "uint256"
            },
            {
              "internalType": "uint256",
              "name": "junior_weight",
              "type": "uint256"
            },
            {
              "internalType": "uint256",
              "name": "pTv",
              "type": "uint256"
            },
            {
              "internalType": "uint256",
              "name": "requiredPair",
              "type": "uint256"
            },
            {
              "internalType": "uint256",
              "name": "markpjs",
              "type": "uint256"
            },
            {
              "internalType": "uint256",
              "name": "multiplier",
              "type": "uint256"
            },
            {
              "internalType": "uint256",
              "name": "seniorSupply",
              "type": "uint256"
            },
            {
              "internalType": "uint256",
              "name": "juniorSupply",
              "type": "uint256"
            }
          ],
          "internalType": "struct TrancheMaster.SwapLocalvars",
          "name": "vars",
          "type": "tuple"
        }
      ],
      "name": "_swapToRatio",
      "outputs": [
        {
          "internalType": "uint256",
          "name": "",
          "type": "uint256"
        },
        {
          "internalType": "uint256",
          "name": "",
          "type": "uint256"
        },
        {
          "internalType": "uint256",
          "name": "",
          "type": "uint256"
        }
      ],
      "stateMutability": "nonpayable",
      "type": "function"
    },
    {
      "inputs": [
        {
          "internalType": "bool",
          "name": "senior",
          "type": "bool"
        },
        {
          "internalType": "uint256",
          "name": "amount",
          "type": "uint256"
        }
      ],
      "name": "arbByPairRedeem",
      "outputs": [],
      "stateMutability": "nonpayable",
      "type": "function"
    },
    {
      "inputs": [
        {
          "internalType": "bool",
          "name": "fromJunior",
          "type": "bool"
        },
        {
          "internalType": "uint256",
          "name": "amount",
          "type": "uint256"
        },
        {
          "internalType": "uint256",
          "name": "priceLimit",
          "type": "uint256"
        },
        {
          "internalType": "uint256",
          "name": "vaultId",
          "type": "uint256"
        },
        {
          "internalType": "bytes",
          "name": "data",
          "type": "bytes"
        }
      ],
      "name": "fillQueue",
      "outputs": [
        {
          "internalType": "uint256",
          "name": "amountIn",
          "type": "uint256"
        },
        {
          "internalType": "uint256",
          "name": "amountOut",
          "type": "uint256"
        }
      ],
      "stateMutability": "nonpayable",
      "type": "function"
    },
    {
      "inputs": [],
      "name": "freshTrancheNewOrder",
      "outputs": [],
      "stateMutability": "nonpayable",
      "type": "function"
    },
    {
      "inputs": [
        {
          "internalType": "uint256",
          "name": "vaultId",
          "type": "uint256"
        }
      ],
      "name": "getAMM",
      "outputs": [
        {
          "internalType": "address",
          "name": "",
          "type": "address"
        }
      ],
      "stateMutability": "view",
      "type": "function"
    },
    {
      "inputs": [
        {
          "internalType": "uint256",
          "name": "vaultId",
          "type": "uint256"
        },
        {
          "internalType": "uint256",
          "name": "pjs",
          "type": "uint256"
        },
        {
          "internalType": "bool",
          "name": "isSenior",
          "type": "bool"
        }
      ],
      "name": "getAvailableDVaultLiq",
      "outputs": [
        {
          "internalType": "uint256",
          "name": "",
          "type": "uint256"
        }
      ],
      "stateMutability": "view",
      "type": "function"
    },
    {
      "inputs": [
        {
          "internalType": "uint256",
          "name": "vaultId",
          "type": "uint256"
        },
        {
          "internalType": "uint256",
          "name": "pjs",
          "type": "uint256"
        }
      ],
      "name": "getDorc",
      "outputs": [
        {
          "internalType": "uint256",
          "name": "",
          "type": "uint256"
        },
        {
          "internalType": "uint256",
          "name": "",
          "type": "uint256"
        },
        {
          "internalType": "uint256",
          "name": "",
          "type": "uint256"
        },
        {
          "internalType": "uint256",
          "name": "",
          "type": "uint256"
        }
      ],
      "stateMutability": "view",
      "type": "function"
    },
    {
      "inputs": [
        {
          "internalType": "uint256",
          "name": "p1",
          "type": "uint256"
        },
        {
          "internalType": "uint256",
          "name": "p2",
          "type": "uint256"
        }
      ],
      "name": "getFee",
      "outputs": [
        {
          "internalType": "uint256",
          "name": "",
          "type": "uint256"
        }
      ],
      "stateMutability": "view",
      "type": "function"
    },
    {
      "inputs": [
        {
          "internalType": "uint256",
          "name": "vaultId",
          "type": "uint256"
        },
        {
          "internalType": "uint256",
          "name": "pjs",
          "type": "uint256"
        },
        {
          "internalType": "bool",
          "name": "isSenior",
          "type": "bool"
        }
      ],
      "name": "getFreedVault",
      "outputs": [
        {
          "internalType": "uint256",
          "name": "",
          "type": "uint256"
        }
      ],
      "stateMutability": "view",
      "type": "function"
    },
    {
      "inputs": [
        {
          "internalType": "uint256",
          "name": "pjs",
          "type": "uint256"
        },
        {
          "internalType": "bool",
          "name": "isSenior",
          "type": "bool"
        },
        {
          "internalType": "uint256",
          "name": "junior_weight",
          "type": "uint256"
        }
      ],
      "name": "getPTV",
      "outputs": [
        {
          "internalType": "uint256",
          "name": "pTv",
          "type": "uint256"
        }
      ],
      "stateMutability": "pure",
      "type": "function"
    },
    {
      "inputs": [
        {
          "internalType": "uint256",
          "name": "vaultId",
          "type": "uint256"
        }
      ],
      "name": "getTrancheTokens",
      "outputs": [
        {
          "internalType": "address",
          "name": "",
          "type": "address"
        },
        {
          "internalType": "address",
          "name": "",
          "type": "address"
        }
      ],
      "stateMutability": "view",
      "type": "function"
    },
    {
      "inputs": [
        {
          "internalType": "uint256",
          "name": "vaultId",
          "type": "uint256"
        },
        {
          "internalType": "address",
          "name": "who",
          "type": "address"
        },
        {
          "internalType": "bool",
          "name": "isSenior",
          "type": "bool"
        },
        {
          "internalType": "uint256",
          "name": "pjs",
          "type": "uint256"
        }
      ],
      "name": "getdVaultBal",
      "outputs": [
        {
          "internalType": "uint256",
          "name": "",
          "type": "uint256"
        }
      ],
      "stateMutability": "view",
      "type": "function"
    },
    {
      "inputs": [],
      "name": "leverageSwap",
      "outputs": [],
      "stateMutability": "nonpayable",
      "type": "function"
    },
    {
      "inputs": [
        {
          "internalType": "uint256",
          "name": "vaultId",
          "type": "uint256"
        },
        {
          "internalType": "uint256",
          "name": "junior_amount",
          "type": "uint256"
        }
      ],
      "name": "mergeAndRedeem",
      "outputs": [],
      "stateMutability": "nonpayable",
      "type": "function"
    },
    {
      "inputs": [
        {
          "internalType": "uint256",
          "name": "vaultId",
          "type": "uint256"
        },
        {
          "internalType": "uint256",
          "name": "junior_amount",
          "type": "uint256"
        }
      ],
      "name": "mergeTVault",
      "outputs": [],
      "stateMutability": "nonpayable",
      "type": "function"
    },
    {
      "inputs": [
        {
          "internalType": "uint256",
          "name": "vaultId",
          "type": "uint256"
        },
        {
          "internalType": "uint256",
          "name": "amount",
          "type": "uint256"
        }
      ],
      "name": "mintAndSplit",
      "outputs": [
        {
          "internalType": "uint256",
          "name": "",
          "type": "uint256"
        },
        {
          "internalType": "uint256",
          "name": "",
          "type": "uint256"
        }
      ],
      "stateMutability": "nonpayable",
      "type": "function"
    },
    {
      "inputs": [
        {
          "internalType": "uint256",
          "name": "vaultId",
          "type": "uint256"
        },
        {
          "internalType": "uint256",
          "name": "amount",
          "type": "uint256"
        }
      ],
      "name": "mintTVault",
      "outputs": [],
      "stateMutability": "nonpayable",
      "type": "function"
    },
    {
      "inputs": [
        {
          "internalType": "uint256",
          "name": "amount",
          "type": "uint256"
        },
        {
          "internalType": "uint256",
          "name": "pjs",
          "type": "uint256"
        },
        {
          "internalType": "bool",
          "name": "isSenior",
          "type": "bool"
        },
        {
          "internalType": "uint256",
          "name": "vaultId",
          "type": "uint256"
        }
      ],
      "name": "redeemByDebtVault",
      "outputs": [
        {
          "internalType": "uint256",
          "name": "",
          "type": "uint256"
        }
      ],
      "stateMutability": "nonpayable",
      "type": "function"
    },
    {
      "inputs": [
        {
          "internalType": "uint256",
          "name": "dVaultAmount",
          "type": "uint256"
        },
        {
          "internalType": "uint256",
          "name": "pjs",
          "type": "uint256"
        },
        {
          "internalType": "uint256",
          "name": "vaultId",
          "type": "uint256"
        },
        {
          "internalType": "bool",
          "name": "isSenior",
          "type": "bool"
        }
      ],
      "name": "redeemFromDebtVault",
      "outputs": [
        {
          "internalType": "uint256",
          "name": "",
          "type": "uint256"
        }
      ],
      "stateMutability": "nonpayable",
      "type": "function"
    },
    {
      "inputs": [
        {
          "internalType": "uint256",
          "name": "vaultId",
          "type": "uint256"
        },
        {
          "internalType": "uint256",
          "name": "amount",
          "type": "uint256"
        }
      ],
      "name": "redeemTVault",
      "outputs": [],
      "stateMutability": "nonpayable",
      "type": "function"
    },
    {
      "inputs": [
        {
          "internalType": "uint256",
          "name": "amount",
          "type": "uint256"
        },
        {
          "internalType": "bool",
          "name": "isSenior",
          "type": "bool"
        },
        {
          "internalType": "uint256",
          "name": "vaultId",
          "type": "uint256"
        }
      ],
      "name": "redeemToDebtVault",
      "outputs": [
        {
          "internalType": "uint256",
          "name": "",
          "type": "uint256"
        },
        {
          "internalType": "uint256",
          "name": "",
          "type": "uint256"
        }
      ],
      "stateMutability": "nonpayable",
      "type": "function"
    },
    {
      "inputs": [
        {
          "internalType": "uint256",
          "name": "vaultId",
          "type": "uint256"
        },
        {
          "internalType": "uint256",
          "name": "amount",
          "type": "uint256"
        }
      ],
      "name": "splitTVault",
      "outputs": [],
      "stateMutability": "nonpayable",
      "type": "function"
    },
    {
      "inputs": [
        {
          "internalType": "uint256",
          "name": "amount",
          "type": "uint256"
        },
        {
          "internalType": "uint256",
          "name": "pjs",
          "type": "uint256"
        },
        {
          "internalType": "bool",
          "name": "isSenior",
          "type": "bool"
        },
        {
          "internalType": "uint256",
          "name": "vaultId",
          "type": "uint256"
        }
      ],
      "name": "swapFromDebtVault",
      "outputs": [
        {
          "internalType": "uint256",
          "name": "",
          "type": "uint256"
        }
      ],
      "stateMutability": "nonpayable",
      "type": "function"
    },
    {
      "inputs": [],
      "name": "swapFromInstrument",
      "outputs": [],
      "stateMutability": "nonpayable",
      "type": "function"
    },
    {
      "inputs": [],
      "name": "swapFromTranche",
      "outputs": [],
      "stateMutability": "nonpayable",
      "type": "function"
    },
    {
      "inputs": [
        {
          "internalType": "bool",
          "name": "wantSenior",
          "type": "bool"
        },
        {
          "internalType": "uint256",
          "name": "amount",
          "type": "uint256"
        },
        {
          "internalType": "uint256",
          "name": "vaultId",
          "type": "uint256"
        },
        {
          "internalType": "uint256",
          "name": "priceLimit",
          "type": "uint256"
        },
        {
          "internalType": "bytes",
          "name": "data",
          "type": "bytes"
        }
      ],
      "name": "swapFromUnderlying",
      "outputs": [],
      "stateMutability": "nonpayable",
      "type": "function"
    },
    {
      "inputs": [
        {
          "internalType": "uint256",
          "name": "amount",
          "type": "uint256"
        },
        {
          "internalType": "uint256",
          "name": "pjs",
          "type": "uint256"
        },
        {
          "internalType": "bool",
          "name": "isSenior",
          "type": "bool"
        },
        {
          "internalType": "uint256",
          "name": "vaultId",
          "type": "uint256"
        }
      ],
      "name": "unRedeemDebtVault",
      "outputs": [],
      "stateMutability": "nonpayable",
      "type": "function"
    }
  ],
  "bytecode": "0x60a06040523480156200001157600080fd5b50604051620052d4380380620052d483398101604081905262000034916200006b565b600080546001600160a01b0390921661010002610100600160a81b031990921691909117905566b1a2bc2ec500006080526200009d565b6000602082840312156200007e57600080fd5b81516001600160a01b03811681146200009657600080fd5b9392505050565b60805161521b620000b9600039600061035f015261521b6000f3fe608060405234801561001057600080fd5b50600436106101e45760003560e01c806387190d491161010f578063bba6a258116100a2578063d250185c11610071578063d250185c1461046a578063e6225deb146101e9578063f9274edd1461047d578063fc50193a146104d857600080fd5b8063bba6a2581461041e578063bc97283b14610431578063bcf5da3a14610444578063c46254421461045757600080fd5b8063a0cd8eb0116100de578063a0cd8eb0146103cd578063a9963665146103e0578063b2daf845146101e9578063bb75d68a1461040b57600080fd5b806387190d49146103815780639096e3b414610394578063963a97d0146103a75780639bfcbd11146103ba57600080fd5b80635b1ea3661161018757806378359b361161015657806378359b36146103015780637f91849714610314578063813f51861461034757806382135ca01461035a57600080fd5b80635b1ea366146102915780636114ffde146102bf57806362900025146102d257806372336c6f146102e557600080fd5b8063256d7a9f116101c3578063256d7a9f14610236578063310b3182146101e95780634b7d561e146102575780634f1effa61461027f57600080fd5b8062d3fb36146101e9578063029dca00146101eb5780631e590b53146101fe575b600080fd5b005b6101e96101f9366004614884565b6104eb565b61021161020c3660046148a6565b610828565b604080516001600160a01b039384168152929091166020830152015b60405180910390f35b6102496102443660046148cd565b610913565b60405190815260200161022d565b61026a610265366004614884565b6113be565b6040805192835260208301919091520161022d565b6101e961028d36600461490e565b5050565b6102a461029f366004614a59565b611706565b6040805193845260208401929092529082015260600161022d565b6102496102cd366004614bdb565b611923565b6101e96102e0366004614c13565b6119bf565b61026a6102f3366004614c13565b600080965096945050505050565b61024961030f366004614c86565b611e55565b610327610322366004614884565b611ea1565b60408051948552602085019390935291830152606082015260800161022d565b61026a610355366004614c13565b611f38565b6102497f000000000000000000000000000000000000000000000000000000000000000081565b6101e961038f366004614884565b612078565b6101e96103a2366004614884565b612395565b6102496103b5366004614cce565b612626565b6102496103c8366004614cce565b612988565b61026a6103db366004614bdb565b612cac565b6103f36103ee3660046148a6565b612fdd565b6040516001600160a01b03909116815260200161022d565b610249610419366004614cfd565b61305d565b61026a61042c366004614c13565b6130b1565b6101e961043f366004614884565b6134cb565b6101e9610452366004614cce565b61371f565b61026a610465366004614c13565b613a1f565b610249610478366004614884565b61400c565b61024961048b366004614cfd565b6040805191151560f81b6020808401919091526021830193909352604180830194909452805180830390940184526061909101815282519282019290922060009081526005909152205490565b6101e96104e6366004614884565b61402a565b6000805460405163439e23fd60e01b8152600481018590526101009091046001600160a01b03169063439e23fd90602401600060405180830381865afa158015610539573d6000803e3d6000fd5b505050506040513d6000823e601f3d908101601f191682016040526105619190810190614ee7565b80516040516323b872dd60e01b81529192506001600160a01b0316906323b872dd9061059590339030908790600401614fba565b6020604051808303816000875af11580156105b4573d6000803e3d6000fd5b505050506040513d601f19601f820116820180604052508101906105d89190614fde565b508051602082015160405163095ea7b360e01b81526001600160a01b039092169163095ea7b39161060f9160001990600401614ffb565b6020604051808303816000875af115801561062e573d6000803e3d6000fd5b505050506040513d601f19601f820116820180604052508101906106529190614fde565b5060008082602001516001600160a01b031663dbceb005856040518263ffffffff1660e01b815260040161068891815260200190565b60408051808303816000875af11580156106a6573d6000803e3d6000fd5b505050506040513d601f19601f820116820180604052508101906106ca9190615014565b9150915060008084602001516001600160a01b031663e9c52e586040518163ffffffff1660e01b81526004016040805180830381865afa158015610712573d6000803e3d6000fd5b505050506040513d601f19601f820116820180604052508101906107369190615038565b60405163a9059cbb60e01b815291935091506001600160a01b0382169063a9059cbb906107699033908790600401614ffb565b6020604051808303816000875af1158015610788573d6000803e3d6000fd5b505050506040513d601f19601f820116820180604052508101906107ac9190614fde565b5060405163a9059cbb60e01b81526001600160a01b0383169063a9059cbb906107db9033908890600401614ffb565b6020604051808303816000875af11580156107fa573d6000803e3d6000fd5b505050506040513d601f19601f8201168201806040525081019061081e9190614fde565b5050505050505050565b6000805460405163439e23fd60e01b815260048101849052829182916101009091046001600160a01b03169063439e23fd90602401600060405180830381865afa15801561087a573d6000803e3d6000fd5b505050506040513d6000823e601f3d908101601f191682016040526108a29190810190614ee7565b905080602001516001600160a01b031663e9c52e586040518163ffffffff1660e01b81526004016040805180830381865afa1580156108e5573d6000803e3d6000fd5b505050506040513d601f19601f820116820180604052508101906109099190615038565b9250925050915091565b600061091d6146fd565b610928848483614122565b60046000853386896040516020016109439493929190615072565b604051602081830303815290604052805190602001208152602001908152602001600020548161022001818152505080608001516001600160a01b03166318160ddd6040518163ffffffff1660e01b8152600401602060405180830381865afa1580156109b4573d6000803e3d6000fd5b505050506040513d601f19601f820116820180604052508101906109d891906150a4565b8160a001516001600160a01b03166318160ddd6040518163ffffffff1660e01b8152600401602060405180830381865afa158015610a1a573d6000803e3d6000fd5b505050506040513d601f19601f82011682018060405250810190610a3e91906150a4565b610280830152610260820152610220810151861115610a8d5760405162461bcd60e51b81526020600482015260066024820152653130b622a92960d11b60448201526064015b60405180910390fd5b600083610ab55760036000610aa287896142fc565b8152602001908152602001600020610ad2565b60026000610ac387896142fc565b81526020019081526020016000205b604080518082019091528154815260019091015460208201529050838015610afe575060008160200151115b15610e1357805160608301516020830151610b1891614332565b610b2291906150d3565b61016083018190526060830151610b399190614347565b61018083015260c0820151610b519087908690611923565b60e08301819052610180830151610b7291610b6c919061435c565b88614371565b6101a0830181905260e0830151610b899190614347565b610180830181905260208201511015610bb45760405162461bcd60e51b8152600401610a84906150ea565b60e08201516101a0830151610bc891614347565b60026000610bd6888a6142fc565b815260200190815260200160002060010160008282540392505081905550816101a00151600460008733888b604051602001610c159493929190615072565b6040516020818303038152906040528051906020012081526020019081526020016000206000828254039250508190555081602001516001600160a01b03166386a17ff560008460200151610c8a8660600151610c848860e00151896101a0015161434790919063ffffffff16565b9061435c565b6040518463ffffffff1660e01b8152600401610ca89392919061510a565b600060405180830381600087803b158015610cc257600080fd5b505af1158015610cd6573d6000803e3d6000fd5b5050505081602001516001600160a01b03166386a17ff560018460200151610d108660e00151876101a0015161434790919063ffffffff16565b6040518463ffffffff1660e01b8152600401610d2e9392919061510a565b600060405180830381600087803b158015610d4857600080fd5b505af1158015610d5c573d6000803e3d6000fd5b5050505081604001516001600160a01b03166323b872dd836020015133856101a001516040518463ffffffff1660e01b8152600401610d9d93929190614fba565b6020604051808303816000875af1158015610dbc573d6000803e3d6000fd5b505050506040513d601f19601f82011682018060405250810190610de09190614fde565b50610e0d610e00836060015184610260015161435c90919063ffffffff16565b836102800151600a614388565b50611123565b83158015610e215750805115155b1561112357602081015160608301518251610e3b9161435c565b610e4591906150d3565b61016083018190526060830151610e5c9190614347565b61018083015260c0820151610e749087908690611923565b60e08301819052610180830151610e8f91610b6c919061435c565b6101a0830181905260e0830151610ea69190614347565b610180830181905281511015610ece5760405162461bcd60e51b8152600401610a84906150ea565b60e08201516101a0830151610ee291614347565b60036000610ef0888a6142fc565b815260200190815260200160002060000160008282540392505081905550816101a00151600460008733888b604051602001610f2f9493929190615072565b6040516020818303038152906040528051906020012081526020019081526020016000206000828254039250508190555081602001516001600160a01b03166386a17ff560018460200151610f9e8660600151610c848860e00151896101a0015161434790919063ffffffff16565b6040518463ffffffff1660e01b8152600401610fbc9392919061510a565b600060405180830381600087803b158015610fd657600080fd5b505af1158015610fea573d6000803e3d6000fd5b5050505081602001516001600160a01b03166386a17ff5600084602001516110248660e00151876101a0015161434790919063ffffffff16565b6040518463ffffffff1660e01b81526004016110429392919061510a565b600060405180830381600087803b15801561105c57600080fd5b505af1158015611070573d6000803e3d6000fd5b5050505081604001516001600160a01b03166323b872dd836020015133856101a001516040518463ffffffff1660e01b81526004016110b193929190614fba565b6020604051808303816000875af11580156110d0573d6000803e3d6000fd5b505050506040513d601f19601f820116820180604052508101906110f49190614fde565b50611121611114836060015184610280015161435c90919063ffffffff16565b836102600151600a614388565b505b60405184151560f81b6020820152602181018790526041810186905260059060009060610160408051601f198184030181529181528151602092830120835290820192909252016000205461024083018190521580159061118957506000826102200151115b15611326576111a2826102200151836102400151614371565b60405185151560f81b6020820152602181018890526041810187905260059060009060610160405160208183030381529060405280519060200120815260200190815260200160002060008282546111fa91906150d3565b92505081905550611215826102200151836102400151614371565b600460008733888b6040516020016112309493929190615072565b604051602081830303815290604052805190602001208152602001908152602001600020600082825461126391906150d3565b9250508190555081604001516001600160a01b03166323b872dd836020015133611297866102200151876102400151614371565b6040518463ffffffff1660e01b81526004016112b593929190614fba565b6020604051808303816000875af11580156112d4573d6000803e3d6000fd5b505050506040513d601f19601f820116820180604052508101906112f89190614fde565b50816101a00151611313836102200151846102400151614371565b61131d919061512b565b925050506113b6565b6113ac82602001516001600160a01b031663e4ea238e6040518163ffffffff1660e01b8152600401602060405180830381865afa15801561136b573d6000803e3d6000fd5b505050506040513d601f19601f8201168201806040525081019061138f91906150a4565b8361028001518461026001516113a5919061512b565b600a614388565b50506101a0015190505b949350505050565b6000805460405163439e23fd60e01b815260048101859052829182916101009091046001600160a01b03169063439e23fd90602401600060405180830381865afa158015611410573d6000803e3d6000fd5b505050506040513d6000823e601f3d908101601f191682016040526114389190810190614ee7565b60c0810151516040516323b872dd60e01b81529192506001600160a01b0316906323b872dd9061147090339030908990600401614fba565b6020604051808303816000875af115801561148f573d6000803e3d6000fd5b505050506040513d601f19601f820116820180604052508101906114b39190614fde565b5060c081015151815160405163095ea7b360e01b81526001600160a01b039092169163095ea7b3916114e9918890600401614ffb565b6020604051808303816000875af1158015611508573d6000803e3d6000fd5b505050506040513d601f19601f8201168201806040525081019061152c9190614fde565b50805160405163ef8b30f760e01b8152600481018690526000916001600160a01b03169063ef8b30f790602401602060405180830381865afa158015611576573d6000803e3d6000fd5b505050506040513d601f19601f8201168201806040525081019061159a91906150a4565b82516040516394bf804d60e01b8152600481018390523360248201529192506001600160a01b0316906394bf804d906044016020604051808303816000875af11580156115eb573d6000803e3d6000fd5b505050506040513d601f19601f8201168201806040525081019061160f91906150a4565b508151602083015160405163095ea7b360e01b81526001600160a01b039092169163095ea7b391611644918590600401614ffb565b6020604051808303816000875af1158015611663573d6000803e3d6000fd5b505050506040513d601f19601f820116820180604052508101906116879190614fde565b50602082015160405163dbceb00560e01b8152600481018390526001600160a01b039091169063dbceb0059060240160408051808303816000875af11580156116d4573d6000803e3d6000fd5b505050506040513d601f19601f820116820180604052508101906116f89190615014565b9350935050505b9250929050565b600080600083600001516001600160a01b03166311e715d66040518163ffffffff1660e01b8152600401602060405180830381865afa15801561174d573d6000803e3d6000fd5b505050506040513d601f19601f8201168201806040525081019061177191906150a4565b6101a085015289156117a45761014084015161179f9061179981670de0b6b3a76400006150d3565b90614347565b6117cc565b6117cc846101400151670de0b6b3a76400006117c091906150d3565b61014086015190614347565b6101c0850152896118e357611801846101c00151856101a001516117f0919061512b565b6101c0860151611799908c9061435c565b60c08501819052845160405162f7c3fb60e61b81526001600160a01b0390911691633df0fec0916118409130918f1591908e908d908d90600401615143565b60408051808303816000875af115801561185e573d6000803e3d6000fd5b505050506040513d601f19601f820116820180604052508101906118829190615014565b60e086015260c0850152611895846143b2565b60e08401516101c08501516118ab90829061435c565b6101c086015160e08701516118bf9161435c565b60c08701516118ce908d6150d3565b6118d891906150d3565b925092509250611916565b611801846101c0015161190c866101a00151670de0b6b3a764000061434790919063ffffffff16565b6117f0919061512b565b9750975097945050505050565b60008083611946576119418361179981670de0b6b3a76400006150d3565b611962565b61196261195b84670de0b6b3a76400006150d3565b8490614347565b9050836119a05761199b670de0b6b3a764000061197f8388614347565b611989919061512b565b611799670de0b6b3a76400008461512b565b6119b6565b6119b6670de0b6b3a764000061197f838861435c565b95945050505050565b6119c76147ca565b6119d18582614523565b80602001516001600160a01b03166323b872dd3330896040518463ffffffff1660e01b8152600401611a0593929190614fba565b6020604051808303816000875af1158015611a24573d6000803e3d6000fd5b505050506040513d601f19601f82011682018060405250810190611a489190614fde565b5080602001516001600160a01b031663095ea7b38260400151886040518363ffffffff1660e01b8152600401611a7f929190614ffb565b6020604051808303816000875af1158015611a9e573d6000803e3d6000fd5b505050506040513d601f19601f82011682018060405250810190611ac29190614fde565b5060408082015190516363737ac960e11b8152600481018890526000916001600160a01b03169063c6e6f59290602401602060405180830381865afa158015611b0f573d6000803e3d6000fd5b505050506040513d601f19601f82011682018060405250810190611b3391906150a4565b60408084015190516394bf804d60e01b8152600481018390523060248201529192506001600160a01b0316906394bf804d906044016020604051808303816000875af1158015611b87573d6000803e3d6000fd5b505050506040513d601f19601f82011682018060405250810190611bab91906150a4565b5081604001516001600160a01b031663095ea7b38360600151836040518363ffffffff1660e01b8152600401611be2929190614ffb565b6020604051808303816000875af1158015611c01573d6000803e3d6000fd5b505050506040513d601f19601f82011682018060405250810190611c259190614fde565b5060008083606001516001600160a01b031663dbceb005846040518263ffffffff1660e01b8152600401611c5b91815260200190565b60408051808303816000875af1158015611c79573d6000803e3d6000fd5b505050506040513d601f19601f82011682018060405250810190611c9d9190615014565b9150915060008a611cae5781611cb0565b825b9050600085600001516001600160a01b0316633df0fec0308e15858d8d8d6040518763ffffffff1660e01b8152600401611cef96959493929190615143565b60408051808303816000875af1158015611d0d573d6000803e3d6000fd5b505050506040513d601f19601f82011682018060405250810190611d319190615014565b915050611d3d866143b2565b8b15611dc75760808601516001600160a01b031663a9059cbb33611d61868561512b565b6040518363ffffffff1660e01b8152600401611d7e929190614ffb565b6020604051808303816000875af1158015611d9d573d6000803e3d6000fd5b505050506040513d601f19601f82011682018060405250810190611dc19190614fde565b50611e47565b60a08601516001600160a01b031663a9059cbb33611de5878561512b565b6040518363ffffffff1660e01b8152600401611e02929190614ffb565b6020604051808303816000875af1158015611e21573d6000803e3d6000fd5b505050506040513d601f19601f82011682018060405250810190611e459190614fde565b505b505050505050505050505050565b60006004600086868686604051602001611e729493929190615072565b604051602081830303815290604052805190602001208152602001908152602001600020549050949350505050565b60008060008060026000611eb588886142fc565b81526020019081526020016000206000015460026000611ed589896142fc565b81526020019081526020016000206001015460036000611ef58a8a6142fc565b81526020019081526020016000206000015460036000611f158b8b6142fc565b815260200190815260200160002060010154935093509350935092959194509250565b600080611f436147ca565b611f4d8682614523565b611f5c89898989898987611706565b5060e083015260c082015288611fee57606081015160c08201516040516324a47aeb60e01b81526001600160a01b03909216916324a47aeb91611fa59160040190815260200190565b6020604051808303816000875af1158015611fc4573d6000803e3d6000fd5b505050506040513d601f19601f82011682018060405250810190611fe891906150a4565b5061206c565b606081015160e08201516040516324a47aeb60e01b81526001600160a01b03909216916324a47aeb916120279160040190815260200190565b6020604051808303816000875af1158015612046573d6000803e3d6000fd5b505050506040513d601f19601f8201168201806040525081019061206a91906150a4565b505b50965096945050505050565b6000805460405163439e23fd60e01b8152600481018590526101009091046001600160a01b03169063439e23fd90602401600060405180830381865afa1580156120c6573d6000803e3d6000fd5b505050506040513d6000823e601f3d908101601f191682016040526120ee9190810190614ee7565b9050600081602001516001600160a01b031663c70acd8a6040518163ffffffff1660e01b8152600401602060405180830381865afa158015612134573d6000803e3d6000fd5b505050506040513d601f19601f8201168201806040525081019061215891906150a4565b9050600061217484610c84848181670de0b6b3a76400006150d3565b9050600083602001516001600160a01b031663e9c52e586040518163ffffffff1660e01b81526004016040805180830381865afa1580156121b9573d6000803e3d6000fd5b505050506040513d601f19601f820116820180604052508101906121dd9190615038565b6040516370a0823160e01b81523360048201529092508391506001600160a01b038316906370a0823190602401602060405180830381865afa158015612227573d6000803e3d6000fd5b505050506040513d601f19601f8201168201806040525081019061224b91906150a4565b10156122945760405162461bcd60e51b81526020600482015260186024820152774e6f7420656e6f7567682073656e696f7220746f6b656e7360401b6044820152606401610a84565b602084015160405163e4e4a2a360e01b815260048101879052602481018490523360448201526001600160a01b039091169063e4e4a2a390606401600060405180830381600087803b1580156122e957600080fd5b505af11580156122fd573d6000803e3d6000fd5b505085516001600160a01b0316915063ba087652905061231d848861512b565b6040516001600160e01b031960e084901b1681526004810191909152336024820181905260448201526064016020604051808303816000875af1158015612368573d6000803e3d6000fd5b505050506040513d601f19601f8201168201806040525081019061238c91906150a4565b50505050505050565b6000805460405163439e23fd60e01b8152600481018590526101009091046001600160a01b03169063439e23fd90602401600060405180830381865afa1580156123e3573d6000803e3d6000fd5b505050506040513d6000823e601f3d908101601f1916820160405261240b9190810190614ee7565b9050600081602001516001600160a01b031663e9c52e586040518163ffffffff1660e01b81526004016040805180830381865afa158015612450573d6000803e3d6000fd5b505050506040513d601f19601f820116820180604052508101906124749190615038565b915050600082602001516001600160a01b031663c70acd8a6040518163ffffffff1660e01b8152600401602060405180830381865afa1580156124bb573d6000803e3d6000fd5b505050506040513d601f19601f820116820180604052508101906124df91906150a4565b905060006124fb85610c84848181670de0b6b3a76400006150d3565b6040516370a0823160e01b815233600482015290915081906001600160a01b038516906370a0823190602401602060405180830381865afa158015612544573d6000803e3d6000fd5b505050506040513d601f19601f8201168201806040525081019061256891906150a4565b10156125b15760405162461bcd60e51b81526020600482015260186024820152774e6f7420656e6f7567682073656e696f7220746f6b656e7360401b6044820152606401610a84565b602084015160405163e4e4a2a360e01b815260048101879052602481018390523360448201526001600160a01b039091169063e4e4a2a390606401600060405180830381600087803b15801561260657600080fd5b505af115801561261a573d6000803e3d6000fd5b50505050505050505050565b60006126306146fd565b61263b838583614122565b61264a85858360c00151611923565b60e0820152831561277e5760e0810151612665908790614347565b6002600061267386896142fc565b8152602001908152602001600020600101600082825461269391906150d3565b9091555050606081015160e08201516126b29190610c84908990614347565b600260006126c086896142fc565b815260200190815260200160002060000160008282546126e091906150d3565b9250508190555080608001516001600160a01b03166323b872dd8260200151336127178560e001518b61434790919063ffffffff16565b6040518463ffffffff1660e01b815260040161273593929190614fba565b6020604051808303816000875af1158015612754573d6000803e3d6000fd5b505050506040513d601f19601f820116820180604052508101906127789190614fde565b506128a3565b60e081015161278e908790614347565b6003600061279c86896142fc565b815260200190815260200160002060000160008282546127bc91906150d3565b9091555050606081015160e08201516127db9190610c84908990614347565b600360006127e986896142fc565b8152602001908152602001600020600101600082825461280991906150d3565b925050819055508060a001516001600160a01b03166323b872dd8260200151336128408560e001518b61434790919063ffffffff16565b6040518463ffffffff1660e01b815260040161285e93929190614fba565b6020604051808303816000875af115801561287d573d6000803e3d6000fd5b505050506040513d601f19601f820116820180604052508101906128a19190614fde565b505b60405184151560f81b60208201526021810186905260418101849052869060059060009060610160405160208183030381529060405280519060200120815260200190815260200160002060008282546128fd919061512b565b9091555050604080820151602083015191516323b872dd60e01b81526001600160a01b03909116916323b872dd9161293b9133918b90600401614fba565b6020604051808303816000875af115801561295a573d6000803e3d6000fd5b505050506040513d601f19601f8201168201806040525081019061297e9190614fde565b5050949350505050565b60006129926146fd565b61299d838583614122565b6129ac85858360c00151611923565b60e082018190526129be90879061435c565b61020082015283612b345785600260006129d886896142fc565b8152602001908152602001600020600001541015612a085760405162461bcd60e51b8152600401610a84906150ea565b8560026000612a1786896142fc565b8152602080820192909252604090810160002080549390930390925560a08301519083015191516323b872dd60e01b81526001600160a01b03909116916323b872dd91612a6a9133918b90600401614fba565b6020604051808303816000875af1158015612a89573d6000803e3d6000fd5b505050506040513d601f19601f82011682018060405250810190612aad9190614fde565b5080604001516001600160a01b03166323b872dd8260200151338461020001516040518463ffffffff1660e01b8152600401612aeb93929190614fba565b6020604051808303816000875af1158015612b0a573d6000803e3d6000fd5b505050506040513d601f19601f82011682018060405250810190612b2e9190614fde565b50612c9e565b8560036000612b4386896142fc565b8152602001908152602001600020600101541015612b735760405162461bcd60e51b8152600401610a84906150ea565b8560036000612b8286896142fc565b81526020019081526020016000206001016000828254039250508190555080608001516001600160a01b03166323b872dd338360200151896040518463ffffffff1660e01b8152600401612bd893929190614fba565b6020604051808303816000875af1158015612bf7573d6000803e3d6000fd5b505050506040513d601f19601f82011682018060405250810190612c1b9190614fde565b5080604001516001600160a01b03166323b872dd8260200151338461020001516040518463ffffffff1660e01b8152600401612c5993929190614fba565b6020604051808303816000875af1158015612c78573d6000803e3d6000fd5b505050506040513d601f19601f82011682018060405250810190612c9c9190614fde565b505b610200015195945050505050565b600080612cb76146fd565b612cc2848683614122565b80602001516001600160a01b03166381e9b5936040518163ffffffff1660e01b81526004016060604051808303816000875af1158015612d06573d6000803e3d6000fd5b505050506040513d601f19601f82011682018060405250810190612d2a9190615198565b610100840181905260c0840151612d4693509091508790611923565b60e08201819052612d57908761435c565b6101208201819052610100820151604051600491600091612d8091899133918c91602001615072565b6040516020818303038152906040528051906020012081526020019081526020016000206000828254612db3919061512b565b90915550508415612ec3576060810151612dcd9087614332565b60026000612de0878561010001516142fc565b81526020019081526020016000206000016000828254612e00919061512b565b925050819055508560026000612e1b878561010001516142fc565b81526020019081526020016000206001016000828254612e3b919061512b565b9091555050608081015160208201516040516323b872dd60e01b81526001600160a01b03909216916323b872dd91612e7a913391908b90600401614fba565b6020604051808303816000875af1158015612e99573d6000803e3d6000fd5b505050506040513d601f19601f82011682018060405250810190612ebd9190614fde565b50612fc4565b6060810151612ed29087614332565b60036000612ee5878561010001516142fc565b81526020019081526020016000206001016000828254612f05919061512b565b925050819055508560036000612f20878561010001516142fc565b81526020019081526020016000206000016000828254612f40919061512b565b909155505060a081015160208201516040516323b872dd60e01b81526001600160a01b03909216916323b872dd91612f7f913391908b90600401614fba565b6020604051808303816000875af1158015612f9e573d6000803e3d6000fd5b505050506040513d601f19601f82011682018060405250810190612fc29190614fde565b505b8061012001518161010001519250925050935093915050565b6000805460405163439e23fd60e01b8152600481018490526101009091046001600160a01b03169063439e23fd90602401600060405180830381865afa15801561302b573d6000803e3d6000fd5b505050506040513d6000823e601f3d908101601f191682016040526130539190810190614ee7565b6040015192915050565b600081613089576003600061307286866142fc565b8152602001908152602001600020600001546113b6565b6002600061309786866142fc565b815260200190815260200160002060010154949350505050565b6000806130bc6147ca565b6130c68682614523565b8661317b57881561315b576131546130ee670de0b6b3a764000067016345785d8a000061512b565b82600001516001600160a01b03166311e715d66040518163ffffffff1660e01b8152600401602060405180830381865afa158015613130573d6000803e3d6000fd5b505050506040513d601f19601f82011682018060405250810190610c8491906150a4565b965061317b565b6131786130ee67016345785d8a0000670de0b6b3a76400006150d3565b96505b805160405162f7c3fb60e61b81526001600160a01b0390911690633df0fec0906131b39033908d908d908d908c908c90600401615143565b60408051808303816000875af11580156131d1573d6000803e3d6000fd5b505050506040513d601f19601f820116820180604052508101906131f59190615014565b9093509150613203816143b2565b60005460ff161561206c5760008082606001516001600160a01b03166381e9b5936040518163ffffffff1660e01b81526004016060604051808303816000875af1158015613255573d6000803e3d6000fd5b505050506040513d601f19601f820116820180604052508101906132799190615198565b509150915060008084606001516001600160a01b0316635235c8bb86600001516001600160a01b03166311e715d66040518163ffffffff1660e01b8152600401602060405180830381865afa1580156132d6573d6000803e3d6000fd5b505050506040513d601f19601f820116820180604052508101906132fa91906150a4565b6040518263ffffffff1660e01b815260040161331891815260200190565b6040805180830381865afa158015613334573d6000803e3d6000fd5b505050506040513d601f19601f820116820180604052508101906133589190615014565b915091508c8015613378575082613376662386f26fc100008361512b565b105b1561340d576000613389848361400c565b90508560a001516001600160a01b03166323b872dd338860600151846040518463ffffffff1660e01b81526004016133c393929190614fba565b6020604051808303816000875af11580156133e2573d6000803e3d6000fd5b505050506040513d601f19601f820116820180604052508101906134069190614fde565b50506134bb565b8c15801561342a5750613427662386f26fc100008461512b565b81115b156134bb57600061343b858461400c565b905085608001516001600160a01b03166323b872dd338860600151846040518463ffffffff1660e01b815260040161347593929190614fba565b6020604051808303816000875af1158015613494573d6000803e3d6000fd5b505050506040513d601f19601f820116820180604052508101906134b89190614fde565b50505b5050505050965096945050505050565b6000805460405163439e23fd60e01b8152600481018590526101009091046001600160a01b03169063439e23fd90602401600060405180830381865afa158015613519573d6000803e3d6000fd5b505050506040513d6000823e601f3d908101601f191682016040526135419190810190614ee7565b60c0810151516040516323b872dd60e01b81529192506001600160a01b0316906323b872dd9061357990339030908790600401614fba565b6020604051808303816000875af1158015613598573d6000803e3d6000fd5b505050506040513d601f19601f820116820180604052508101906135bc9190614fde565b5060c081015151815160405163095ea7b360e01b81526001600160a01b039092169163095ea7b3916135f2918690600401614ffb565b6020604051808303816000875af1158015613611573d6000803e3d6000fd5b505050506040513d601f19601f820116820180604052508101906136359190614fde565b50805160405163ef8b30f760e01b8152600481018490526000916001600160a01b03169063ef8b30f790602401602060405180830381865afa15801561367f573d6000803e3d6000fd5b505050506040513d601f19601f820116820180604052508101906136a391906150a4565b82516040516394bf804d60e01b8152600481018390523360248201529192506001600160a01b0316906394bf804d906044016020604051808303816000875af11580156136f4573d6000803e3d6000fd5b505050506040513d601f19601f8201168201806040525081019061371891906150a4565b5050505050565b6137276146fd565b613732828483614122565b61374184848360c00151611923565b60e08201819052613753908690614347565b61016082015282156138be5761016081015160608201516137739161435c565b6002600061378185886142fc565b815260200190815260200160002060000160008282546137a191906150d3565b9091555050610160810151600260006137ba85886142fc565b815260200190815260200160002060010160008282546137da91906150d3565b925050819055508460046000843387896040516020016137fd9493929190615072565b604051602081830303815290604052805190602001208152602001908152602001600020600082825461383091906150d3565b9091555050608081015160208201516101608301516040516323b872dd60e01b81526001600160a01b03909316926323b872dd92613875929091339190600401614fba565b6020604051808303816000875af1158015613894573d6000803e3d6000fd5b505050506040513d601f19601f820116820180604052508101906138b89190614fde565b50613718565b61016081015160608201516138d29161435c565b600360006138e085886142fc565b8152602001908152602001600020600101600082825461390091906150d3565b90915550506101608101516003600061391985886142fc565b8152602001908152602001600020600001600082825461393991906150d3565b9250508190555084600460008433878960405160200161395c9493929190615072565b604051602081830303815290604052805190602001208152602001908152602001600020600082825461398f91906150d3565b909155505060a081015160208201516101608301516040516323b872dd60e01b81526001600160a01b03909316926323b872dd926139d4929091339190600401614fba565b6020604051808303816000875af11580156139f3573d6000803e3d6000fd5b505050506040513d601f19601f82011682018060405250810190613a179190614fde565b505050505050565b600080613a2a6147ca565b613a348682614523565b80608001516001600160a01b03166318160ddd6040518163ffffffff1660e01b8152600401602060405180830381865afa158015613a76573d6000803e3d6000fd5b505050506040513d601f19601f82011682018060405250810190613a9a91906150a4565b8160a001516001600160a01b03166318160ddd6040518163ffffffff1660e01b8152600401602060405180830381865afa158015613adc573d6000803e3d6000fd5b505050506040513d601f19601f82011682018060405250810190613b0091906150a4565b6102008301526101e082015286613b5b578815613b3b57613b346130ee670de0b6b3a764000067016345785d8a000061512b565b9650613b5b565b613b586130ee67016345785d8a0000670de0b6b3a76400006150d3565b96505b80604001516001600160a01b03166323b872dd33308b6040518463ffffffff1660e01b8152600401613b8f93929190614fba565b6020604051808303816000875af1158015613bae573d6000803e3d6000fd5b505050506040513d601f19601f82011682018060405250810190613bd29190614fde565b5080604001516001600160a01b031663095ea7b382606001518a6040518363ffffffff1660e01b8152600401613c09929190614ffb565b6020604051808303816000875af1158015613c28573d6000803e3d6000fd5b505050506040513d601f19601f82011682018060405250810190613c4c9190614fde565b50606081015160405163dbceb00560e01b8152600481018a90526001600160a01b039091169063dbceb0059060240160408051808303816000875af1158015613c99573d6000803e3d6000fd5b505050506040513d601f19601f82011682018060405250810190613cbd9190615014565b61012083015261010082015288613cd957806101000151613ce0565b8061012001515b60c08201528815613d6d576080810151815160c083015160405163095ea7b360e01b81526001600160a01b039093169263095ea7b392613d24929091600401614ffb565b6020604051808303816000875af1158015613d43573d6000803e3d6000fd5b505050506040513d601f19601f82011682018060405250810190613d679190614fde565b50613deb565b60a0810151815160c083015160405163095ea7b360e01b81526001600160a01b039093169263095ea7b392613da6929091600401614ffb565b6020604051808303816000875af1158015613dc5573d6000803e3d6000fd5b505050506040513d601f19601f82011682018060405250810190613de99190614fde565b505b805160c082015160405162f7c3fb60e61b81526001600160a01b0390921691633df0fec091613e269130918e918d908c908c90600401615143565b60408051808303816000875af1158015613e44573d6000803e3d6000fd5b505050506040513d601f19601f82011682018060405250810190613e689190615014565b9093509150613e76816143b2565b88613f065780608001516001600160a01b031663a9059cbb3383610120015185613ea0919061512b565b6040518363ffffffff1660e01b8152600401613ebd929190614ffb565b6020604051808303816000875af1158015613edc573d6000803e3d6000fd5b505050506040513d601f19601f82011682018060405250810190613f009190614fde565b50613f8d565b8060a001516001600160a01b031663a9059cbb3383610100015185613f2b919061512b565b6040518363ffffffff1660e01b8152600401613f48929190614ffb565b6020604051808303816000875af1158015613f67573d6000803e3d6000fd5b505050506040513d601f19601f82011682018060405250810190613f8b9190614fde565b505b61206a81606001516001600160a01b031663e4ea238e6040518163ffffffff1660e01b8152600401602060405180830381865afa158015613fd2573d6000803e3d6000fd5b505050506040513d601f19601f82011682018060405250810190613ff691906150a4565b826102000151836101e001516113a5919061512b565b600061401882846150d3565b6140239060006151c6565b9392505050565b6000805460405163439e23fd60e01b8152600481018590526101009091046001600160a01b03169063439e23fd90602401600060405180830381865afa158015614078573d6000803e3d6000fd5b505050506040513d6000823e601f3d908101601f191682016040526140a09190810190614ee7565b8051604051635d043b2960e11b815260048101859052336024820181905260448201529192506001600160a01b03169063ba087652906064016020604051808303816000875af11580156140f8573d6000803e3d6000fd5b505050506040513d601f19601f8201168201806040525081019061411c91906150a4565b50505050565b6000805460405163439e23fd60e01b8152600481018690526101009091046001600160a01b03169063439e23fd90602401600060405180830381865afa158015614170573d6000803e3d6000fd5b505050506040513d6000823e601f3d908101601f191682016040526141989190810190614ee7565b6040808201516001600160a01b0390811685528251811685830152602080840151909116818601819052825163638566c560e11b815292519394509263c70acd8a9260048082019392918290030181865afa1580156141fb573d6000803e3d6000fd5b505050506040513d601f19601f8201168201806040525081019061421f91906150a4565b60c0830152826142495760c08201516142449061179981670de0b6b3a76400006150d3565b61426f565b61426f8260c00151670de0b6b3a764000061426491906150d3565b60c084015190614347565b82606001818152505081602001516001600160a01b031663e9c52e586040518163ffffffff1660e01b81526004016040805180830381865afa1580156142b9573d6000803e3d6000fd5b505050506040513d601f19601f820116820180604052508101906142dd9190615038565b6001600160a01b0390811660808501521660a090920191909152505050565b600081614309818561512b565b61431490600161512b565b61431e848661512b565b61432891906151c6565b614023919061512b565b60006140238383670de0b6b3a76400006146b0565b600061402383670de0b6b3a7640000846146de565b60006140238383670de0b6b3a76400006146de565b6000818311156143815781614023565b5090919050565b6000614394828461512b565b841115806113b657506143a782846150d3565b909310159392505050565b600054600160a81b900460ff161561452057600081606001516001600160a01b0316639a4585836040518163ffffffff1660e01b8152600401606060405180830381865afa158015614408573d6000803e3d6000fd5b505050506040513d601f19601f8201168201806040525081019061442c9190615198565b92505050600082600001516001600160a01b03166311e715d66040518163ffffffff1660e01b8152600401602060405180830381865afa158015614474573d6000803e3d6000fd5b505050506040513d601f19601f8201168201806040525081019061449891906150a4565b9050806144bb600154670de0b6b3a76400006144b4919061512b565b849061435c565b10806144de5750806144dc600154670de0b6b3a76400006144b491906150d3565b115b1561451d5760405162461bcd60e51b815260206004820152600f60248201526e151c985919481bdd5d08189bdd5b99608a1b6044820152606401610a84565b50505b50565b6000805460405163439e23fd60e01b8152600481018590526101009091046001600160a01b03169063439e23fd90602401600060405180830381865afa158015614571573d6000803e3d6000fd5b505050506040513d6000823e601f3d908101601f191682016040526145999190810190614ee7565b6040808201516001600160a01b03908116855260208301518116606086018190528351909116858301528151631d38a5cb60e31b81528251939450909263e9c52e58926004808401939192918290030181865afa1580156145fe573d6000803e3d6000fd5b505050506040513d601f19601f820116820180604052508101906146229190615038565b6001600160a01b03908116608085015290811660a084015260608301516040805163638566c560e11b81529051919092169163c70acd8a9160048083019260209291908290030181865afa15801561467e573d6000803e3d6000fd5b505050506040513d601f19601f820116820180604052508101906146a291906150a4565b610140909201919091525050565b8282028115158415858304851417166146c857600080fd5b6001826001830304018115150290509392505050565b8282028115158415858304851417166146f657600080fd5b0492915050565b604051806102a0016040528060006001600160a01b0316815260200160006001600160a01b0316815260200160006001600160a01b031681526020016000815260200160006001600160a01b0316815260200160006001600160a01b031681526020016000815260200160008152602001600081526020016000815260200160008152602001600081526020016000815260200160008152602001600081526020016000815260200160008152602001600081526020016000815260200160008152602001600081525090565b60405180610220016040528060006001600160a01b0316815260200160006001600160a01b0316815260200160006001600160a01b0316815260200160006001600160a01b0316815260200160006001600160a01b0316815260200160006001600160a01b0316815260200160008152602001600081526020016000815260200160008152602001600081526020016000815260200160008152602001600081526020016000815260200160008152602001600081525090565b6000806040838503121561489757600080fd5b50508035926020909101359150565b6000602082840312156148b857600080fd5b5035919050565b801515811461452057600080fd5b600080600080608085870312156148e357600080fd5b8435935060208501359250604085013591506060850135614903816148bf565b939692955090935050565b6000806040838503121561492157600080fd5b823561492c816148bf565b946020939093013593505050565b60008083601f84011261494c57600080fd5b50813567ffffffffffffffff81111561496457600080fd5b6020830191508360208285010111156116ff57600080fd5b634e487b7160e01b600052604160045260246000fd5b604051610220810167ffffffffffffffff811182821017156149b6576149b661497c565b60405290565b604051610100810167ffffffffffffffff811182821017156149b6576149b661497c565b60405160e0810167ffffffffffffffff811182821017156149b6576149b661497c565b604051601f8201601f1916810167ffffffffffffffff81118282101715614a2c57614a2c61497c565b604052919050565b6001600160a01b038116811461452057600080fd5b8035614a5481614a34565b919050565b60008060008060008060008789036102c0811215614a7657600080fd5b8835614a81816148bf565b9750602089013596506040890135955060608901359450608089013567ffffffffffffffff811115614ab257600080fd5b614abe8b828c0161493a565b909550935050610220609f1982011215614ad757600080fd5b50614ae0614992565b614aec60a08a01614a49565b8152614afa60c08a01614a49565b6020820152614b0b60e08a01614a49565b6040820152610100614b1e818b01614a49565b6060830152610120614b31818c01614a49565b6080840152610140614b44818d01614a49565b60a0850152610160808d013560c0860152610180808e013560e08701526101a0808f0135868801526101c09550858f0135858801526101e09450848f0135848801526102009350838f0135838801526102208f0135828801526102408f0135818801525050506102608c0135838501526102808c0135828501526102a08c0135818501525050508091505092959891949750929550565b600080600060608486031215614bf057600080fd5b833592506020840135614c02816148bf565b929592945050506040919091013590565b60008060008060008060a08789031215614c2c57600080fd5b8635614c37816148bf565b9550602087013594506040870135935060608701359250608087013567ffffffffffffffff811115614c6857600080fd5b614c7489828a0161493a565b979a9699509497509295939492505050565b60008060008060808587031215614c9c57600080fd5b843593506020850135614cae81614a34565b92506040850135614cbe816148bf565b9396929550929360600135925050565b60008060008060808587031215614ce457600080fd5b84359350602085013592506040850135614cbe816148bf565b600080600060608486031215614d1257600080fd5b83359250602084013591506040840135614d2b816148bf565b809150509250925092565b8051614a5481614a34565b600067ffffffffffffffff821115614d5b57614d5b61497c565b5060051b60200190565b600082601f830112614d7657600080fd5b81516020614d8b614d8683614d41565b614a03565b82815260059290921b84018101918181019086841115614daa57600080fd5b8286015b84811015614dce578051614dc181614a34565b8352918301918301614dae565b509695505050505050565b600082601f830112614dea57600080fd5b81516020614dfa614d8683614d41565b82815260059290921b84018101918181019086841115614e1957600080fd5b8286015b84811015614dce5780518352918301918301614e1d565b60006101008284031215614e4757600080fd5b614e4f6149bc565b9050614e5a82614d36565b8152602082015167ffffffffffffffff80821115614e7757600080fd5b614e8385838601614d65565b60208401526040840151915080821115614e9c57600080fd5b50614ea984828501614dd9565b604083015250606082015160608201526080820151608082015260a082015160a082015260c082015160c082015260e082015160e082015292915050565b600060208284031215614ef957600080fd5b815167ffffffffffffffff80821115614f1157600080fd5b9083019060e08286031215614f2557600080fd5b614f2d6149e0565b614f3683614d36565b8152614f4460208401614d36565b6020820152614f5560408401614d36565b6040820152614f6660608401614d36565b6060820152614f7760808401614d36565b6080820152614f8860a08401614d36565b60a082015260c083015182811115614f9f57600080fd5b614fab87828601614e34565b60c08301525095945050505050565b6001600160a01b039384168152919092166020820152604081019190915260600190565b600060208284031215614ff057600080fd5b8151614023816148bf565b6001600160a01b03929092168252602082015260400190565b6000806040838503121561502757600080fd5b505080516020909101519092909150565b6000806040838503121561504b57600080fd5b825161505681614a34565b602084015190925061506781614a34565b809150509250929050565b93845260609290921b6bffffffffffffffffffffffff19166020840152151560f81b6034830152603582015260550190565b6000602082840312156150b657600080fd5b5051919050565b634e487b7160e01b600052601160045260246000fd5b6000828210156150e5576150e56150bd565b500390565b6020808252600690820152653634b8a2a92960d11b604082015260600190565b92151583526001600160a01b03919091166020830152604082015260600190565b6000821982111561513e5761513e6150bd565b500190565b60018060a01b0387168152851515602082015284604082015283606082015260a060808201528160a0820152818360c0830137600081830160c090810191909152601f909201601f1916010195945050505050565b6000806000606084860312156151ad57600080fd5b8351925060208401519150604084015190509250925092565b60008160001904831182151516156151e0576151e06150bd565b50029056fea26469706673582212207dc5d75015ff6a44e0f186d9401b86b378dd6ca7ae6ad0d3465c5989d5e9d01564736f6c634300080a0033",
  "linkReferences": {},
  "deployedLinkReferences": {}
}