{
  "_format": "hh-sol-artifact-1",
  "contractName": "tToken",
  "sourceName": "src/tToken.sol",
  "abi": [
    {
      "inputs": [
        {
          "internalType": "contract ERC20",
          "name": "_asset",
          "type": "address"
        },
        {
          "internalType": "string",
          "name": "_name",
          "type": "string"
        },
        {
          "internalType": "string",
          "name": "_symbol",
          "type": "string"
        },
        {
          "internalType": "address",
          "name": "_splitter",
          "type": "address"
        }
      ],
      "stateMutability": "nonpayable",
      "type": "constructor"
    },
    {
      "anonymous": false,
      "inputs": [
        {
          "indexed": true,
          "internalType": "address",
          "name": "owner",
          "type": "address"
        },
        {
          "indexed": true,
          "internalType": "address",
          "name": "spender",
          "type": "address"
        },
        {
          "indexed": false,
          "internalType": "uint256",
          "name": "amount",
          "type": "uint256"
        }
      ],
      "name": "Approval",
      "type": "event"
    },
    {
      "anonymous": false,
      "inputs": [
        {
          "indexed": false,
          "internalType": "uint256",
          "name": "id",
          "type": "uint256"
        }
      ],
      "name": "Snapshot",
      "type": "event"
    },
    {
      "anonymous": false,
      "inputs": [
        {
          "indexed": true,
          "internalType": "address",
          "name": "from",
          "type": "address"
        },
        {
          "indexed": true,
          "internalType": "address",
          "name": "to",
          "type": "address"
        },
        {
          "indexed": false,
          "internalType": "uint256",
          "name": "amount",
          "type": "uint256"
        }
      ],
      "name": "Transfer",
      "type": "event"
    },
    {
      "inputs": [],
      "name": "DOMAIN_SEPARATOR",
      "outputs": [
        {
          "internalType": "bytes32",
          "name": "",
          "type": "bytes32"
        }
      ],
      "stateMutability": "view",
      "type": "function"
    },
    {
      "inputs": [],
      "name": "_snapshot",
      "outputs": [
        {
          "internalType": "uint256",
          "name": "",
          "type": "uint256"
        }
      ],
      "stateMutability": "nonpayable",
      "type": "function"
    },
    {
      "inputs": [
        {
          "internalType": "address",
          "name": "",
          "type": "address"
        },
        {
          "internalType": "address",
          "name": "",
          "type": "address"
        }
      ],
      "name": "allowance",
      "outputs": [
        {
          "internalType": "uint256",
          "name": "",
          "type": "uint256"
        }
      ],
      "stateMutability": "view",
      "type": "function"
    },
    {
      "inputs": [
        {
          "internalType": "address",
          "name": "spender",
          "type": "address"
        },
        {
          "internalType": "uint256",
          "name": "amount",
          "type": "uint256"
        }
      ],
      "name": "approve",
      "outputs": [
        {
          "internalType": "bool",
          "name": "",
          "type": "bool"
        }
      ],
      "stateMutability": "nonpayable",
      "type": "function"
    },
    {
      "inputs": [
        {
          "internalType": "address",
          "name": "",
          "type": "address"
        }
      ],
      "name": "balanceOf",
      "outputs": [
        {
          "internalType": "uint256",
          "name": "",
          "type": "uint256"
        }
      ],
      "stateMutability": "view",
      "type": "function"
    },
    {
      "inputs": [
        {
          "internalType": "address",
          "name": "account",
          "type": "address"
        },
        {
          "internalType": "uint256",
          "name": "snapshotId",
          "type": "uint256"
        }
      ],
      "name": "balanceOfAt",
      "outputs": [
        {
          "internalType": "uint256",
          "name": "",
          "type": "uint256"
        }
      ],
      "stateMutability": "view",
      "type": "function"
    },
    {
      "inputs": [
        {
          "internalType": "address",
          "name": "from",
          "type": "address"
        },
        {
          "internalType": "uint256",
          "name": "amount",
          "type": "uint256"
        }
      ],
      "name": "burn",
      "outputs": [],
      "stateMutability": "nonpayable",
      "type": "function"
    },
    {
      "inputs": [],
      "name": "decimals",
      "outputs": [
        {
          "internalType": "uint8",
          "name": "",
          "type": "uint8"
        }
      ],
      "stateMutability": "view",
      "type": "function"
    },
    {
      "inputs": [
        {
          "internalType": "contract IERC3156FlashBorrower",
          "name": "receiver",
          "type": "address"
        },
        {
          "internalType": "address",
          "name": "token",
          "type": "address"
        },
        {
          "internalType": "uint256",
          "name": "amount",
          "type": "uint256"
        },
        {
          "internalType": "bytes",
          "name": "data",
          "type": "bytes"
        }
      ],
      "name": "flashMint",
      "outputs": [
        {
          "internalType": "bool",
          "name": "",
          "type": "bool"
        }
      ],
      "stateMutability": "nonpayable",
      "type": "function"
    },
    {
      "inputs": [
        {
          "internalType": "address",
          "name": "to",
          "type": "address"
        },
        {
          "internalType": "uint256",
          "name": "amount",
          "type": "uint256"
        }
      ],
      "name": "mint",
      "outputs": [],
      "stateMutability": "nonpayable",
      "type": "function"
    },
    {
      "inputs": [],
      "name": "name",
      "outputs": [
        {
          "internalType": "string",
          "name": "",
          "type": "string"
        }
      ],
      "stateMutability": "view",
      "type": "function"
    },
    {
      "inputs": [
        {
          "internalType": "address",
          "name": "",
          "type": "address"
        }
      ],
      "name": "nonces",
      "outputs": [
        {
          "internalType": "uint256",
          "name": "",
          "type": "uint256"
        }
      ],
      "stateMutability": "view",
      "type": "function"
    },
    {
      "inputs": [
        {
          "internalType": "address",
          "name": "owner",
          "type": "address"
        },
        {
          "internalType": "address",
          "name": "spender",
          "type": "address"
        },
        {
          "internalType": "uint256",
          "name": "value",
          "type": "uint256"
        },
        {
          "internalType": "uint256",
          "name": "deadline",
          "type": "uint256"
        },
        {
          "internalType": "uint8",
          "name": "v",
          "type": "uint8"
        },
        {
          "internalType": "bytes32",
          "name": "r",
          "type": "bytes32"
        },
        {
          "internalType": "bytes32",
          "name": "s",
          "type": "bytes32"
        }
      ],
      "name": "permit",
      "outputs": [],
      "stateMutability": "nonpayable",
      "type": "function"
    },
    {
      "inputs": [],
      "name": "symbol",
      "outputs": [
        {
          "internalType": "string",
          "name": "",
          "type": "string"
        }
      ],
      "stateMutability": "view",
      "type": "function"
    },
    {
      "inputs": [],
      "name": "totalSupply",
      "outputs": [
        {
          "internalType": "uint256",
          "name": "",
          "type": "uint256"
        }
      ],
      "stateMutability": "view",
      "type": "function"
    },
    {
      "inputs": [
        {
          "internalType": "uint256",
          "name": "snapshotId",
          "type": "uint256"
        }
      ],
      "name": "totalSupplyAt",
      "outputs": [
        {
          "internalType": "uint256",
          "name": "",
          "type": "uint256"
        }
      ],
      "stateMutability": "view",
      "type": "function"
    },
    {
      "inputs": [
        {
          "internalType": "address",
          "name": "to",
          "type": "address"
        },
        {
          "internalType": "uint256",
          "name": "amount",
          "type": "uint256"
        }
      ],
      "name": "transfer",
      "outputs": [
        {
          "internalType": "bool",
          "name": "",
          "type": "bool"
        }
      ],
      "stateMutability": "nonpayable",
      "type": "function"
    },
    {
      "inputs": [
        {
          "internalType": "address",
          "name": "from",
          "type": "address"
        },
        {
          "internalType": "address",
          "name": "to",
          "type": "address"
        },
        {
          "internalType": "uint256",
          "name": "amount",
          "type": "uint256"
        }
      ],
      "name": "transferFrom",
      "outputs": [
        {
          "internalType": "bool",
          "name": "",
          "type": "bool"
        }
      ],
      "stateMutability": "nonpayable",
      "type": "function"
    }
  ],
  "bytecode": "0x60e06040523480156200001157600080fd5b50604051620016f7380380620016f7833981016040819052620000349162000343565b8282856001600160a01b031663313ce5676040518163ffffffff1660e01b8152600401602060405180830381865afa15801562000075573d6000803e3d6000fd5b505050506040513d601f19601f820116820180604052508101906200009b9190620003d7565b8251620000b0906000906020860190620001b7565b508151620000c6906001906020850190620001b7565b5060ff81166080524660a052620000dc6200011b565b60c0525050600780546001600160a01b039687166001600160a01b031991821617909155600680549390961692169190911790935550620004e4915050565b60007f8b73c3c69bb8fe3d512ecc4cf759cc79239f7b179b0ffacaa9a75d522b39400f60006040516200014f919062000440565b6040805191829003822060208301939093528101919091527fc89efdaa54c0f20c7adf612882df0950f5a951637e0307cdcb4c672f298b8bc660608201524660808201523060a082015260c00160405160208183030381529060405280519060200120905090565b828054620001c59062000403565b90600052602060002090601f016020900481019282620001e9576000855562000234565b82601f106200020457805160ff191683800117855562000234565b8280016001018555821562000234579182015b828111156200023457825182559160200191906001019062000217565b506200024292915062000246565b5090565b5b8082111562000242576000815560010162000247565b6001600160a01b03811681146200027357600080fd5b50565b634e487b7160e01b600052604160045260246000fd5b600082601f8301126200029e57600080fd5b81516001600160401b0380821115620002bb57620002bb62000276565b604051601f8301601f19908116603f01168101908282118183101715620002e657620002e662000276565b816040528381526020925086838588010111156200030357600080fd5b600091505b8382101562000327578582018301518183018401529082019062000308565b83821115620003395760008385830101525b9695505050505050565b600080600080608085870312156200035a57600080fd5b845162000367816200025d565b60208601519094506001600160401b03808211156200038557600080fd5b62000393888389016200028c565b94506040870151915080821115620003aa57600080fd5b50620003b9878288016200028c565b9250506060850151620003cc816200025d565b939692955090935050565b600060208284031215620003ea57600080fd5b815160ff81168114620003fc57600080fd5b9392505050565b600181811c908216806200041857607f821691505b602082108114156200043a57634e487b7160e01b600052602260045260246000fd5b50919050565b600080835481600182811c9150808316806200045d57607f831692505b60208084108214156200047e57634e487b7160e01b86526022600452602486fd5b818015620004955760018114620004a757620004d6565b60ff19861689528489019650620004d6565b60008a81526020902060005b86811015620004ce5781548b820152908501908301620004b3565b505084890196505b509498975050505050505050565b60805160a05160c0516111e36200051460003960006104dd015260006104a80152600061018b01526111e36000f3fe608060405234801561001057600080fd5b50600436106101165760003560e01c806370a08231116100a25780639dc29fac116100715780639dc29fac1461025d578063a9059cbb14610270578063b613cb8c14610283578063d505accf1461028b578063dd62ed3e1461029e57600080fd5b806370a08231146102025780637ecebe001461022257806395d89b4114610242578063981b24d01461024a57600080fd5b8063313ce567116100e9578063313ce567146101865780633644e515146101bf5780633b9d401e146101c757806340c10f19146101da5780634ee2cd7e146101ef57600080fd5b806306fdde031461011b578063095ea7b31461013957806318160ddd1461015c57806323b872dd14610173575b600080fd5b6101236102c9565b6040516101309190610d42565b60405180910390f35b61014c610147366004610daf565b610357565b6040519015158152602001610130565b61016560025481565b604051908152602001610130565b61014c610181366004610ddb565b6103c4565b6101ad7f000000000000000000000000000000000000000000000000000000000000000081565b60405160ff9091168152602001610130565b6101656104a4565b61014c6101d5366004610e1c565b6104ff565b6101ed6101e8366004610daf565b6105fe565b005b6101656101fd366004610daf565b610636565b610165610210366004610ebb565b60036020526000908152604090205481565b610165610230366004610ebb565b60056020526000908152604090205481565b61012361068c565b610165610258366004610ed8565b610699565b6101ed61026b366004610daf565b6106c1565b61014c61027e366004610daf565b6106f5565b61016561075b565b6101ed610299366004610ef1565b6107e0565b6101656102ac366004610f68565b600460209081526000928352604080842090915290825290205481565b600080546102d690610fa1565b80601f016020809104026020016040519081016040528092919081815260200182805461030290610fa1565b801561034f5780601f106103245761010080835404028352916020019161034f565b820191906000526020600020905b81548152906001019060200180831161033257829003601f168201915b505050505081565b3360008181526004602090815260408083206001600160a01b038716808552925280832085905551919290917f8c5be1e5ebec7d5bd14f71427d1e84f3dd0314c0f7b2291e5b200ac8c7c3b925906103b29086815260200190565b60405180910390a35060015b92915050565b6001600160a01b03831660009081526004602090815260408083203384529091528120546000198114610420576103fb8382610ff2565b6001600160a01b03861660009081526004602090815260408083203384529091529020555b6001600160a01b03851660009081526003602052604081208054859290610448908490610ff2565b90915550506001600160a01b038085166000818152600360205260409081902080548701905551909187169060008051602061118e833981519152906104919087815260200190565b60405180910390a3506001949350505050565b60007f000000000000000000000000000000000000000000000000000000000000000046146104da576104d5610a24565b905090565b507f000000000000000000000000000000000000000000000000000000000000000090565b600061050b8685610abe565b6040516323e30c8b60e01b81527f439148f0bbc682ca079e46d6e2c2f0c1e3b820f1a291b069d8882abf8cf18dd9906001600160a01b038816906323e30c8b9061056490339030908a906000908b908b90600401611009565b6020604051808303816000875af1158015610583573d6000803e3d6000fd5b505050506040513d601f19601f820116820180604052508101906105a79190611065565b146105eb5760405162461bcd60e51b815260206004820152600f60248201526e18d85b1b189858dac819985a5b1959608a1b60448201526064015b60405180910390fd5b6105f58685610b18565b95945050505050565b6006546001600160a01b031633146106285760405162461bcd60e51b81526004016105e29061107e565b6106328282610abe565b5050565b6001600160a01b03821660009081526008602052604081208190819061065d908590610b7a565b9150915081610684576001600160a01b0385166000908152600360205260409020546105f5565b949350505050565b600180546102d690610fa1565b60008060006106a9846009610b7a565b91509150816106ba57600254610684565b9392505050565b6006546001600160a01b031633146106eb5760405162461bcd60e51b81526004016105e29061107e565b6106328282610b18565b33600090815260036020526040812080548391908390610716908490610ff2565b90915550506001600160a01b0383166000818152600360205260409081902080548501905551339060008051602061118e833981519152906103b29086815260200190565b6006546000906001600160a01b031633146107885760405162461bcd60e51b81526004016105e29061107e565b610796600b80546001019055565b60006107a0610c71565b90507f8030e83b04d87bef53480e26263266d6ca66863aa8506aca6f2559d18aa1cb67816040516107d391815260200190565b60405180910390a1905090565b428410156108305760405162461bcd60e51b815260206004820152601760248201527f5045524d49545f444541444c494e455f4558504952454400000000000000000060448201526064016105e2565b6000600161083c6104a4565b6001600160a01b038a811660008181526005602090815260409182902080546001810190915582517f6e71edae12b1b97f4d1f60370fef10105fa2faae0126114a169c64845d6126c98184015280840194909452938d166060840152608083018c905260a083019390935260c08083018b90528151808403909101815260e08301909152805192019190912061190160f01b6101008301526101028201929092526101228101919091526101420160408051601f198184030181528282528051602091820120600084529083018083525260ff871690820152606081018590526080810184905260a0016020604051602081039080840390855afa158015610948573d6000803e3d6000fd5b5050604051601f1901519150506001600160a01b0381161580159061097e5750876001600160a01b0316816001600160a01b0316145b6109bb5760405162461bcd60e51b815260206004820152600e60248201526d24a72b20a624a22fa9a4a3a722a960911b60448201526064016105e2565b6001600160a01b0390811660009081526004602090815260408083208a8516808552908352928190208990555188815291928a16917f8c5be1e5ebec7d5bd14f71427d1e84f3dd0314c0f7b2291e5b200ac8c7c3b925910160405180910390a350505050505050565b60007f8b73c3c69bb8fe3d512ecc4cf759cc79239f7b179b0ffacaa9a75d522b39400f6000604051610a5691906110a1565b6040805191829003822060208301939093528101919091527fc89efdaa54c0f20c7adf612882df0950f5a951637e0307cdcb4c672f298b8bc660608201524660808201523060a082015260c00160405160208183030381529060405280519060200120905090565b8060026000828254610ad0919061113d565b90915550506001600160a01b03821660008181526003602090815260408083208054860190555184815260008051602061118e83398151915291015b60405180910390a35050565b6001600160a01b03821660009081526003602052604081208054839290610b40908490610ff2565b90915550506002805482900390556040518181526000906001600160a01b0384169060008051602061118e83398151915290602001610b0c565b60008060008411610bc65760405162461bcd60e51b815260206004820152601660248201527504552433230536e617073686f743a20696420697320360541b60448201526064016105e2565b610bce610c71565b841115610c1d5760405162461bcd60e51b815260206004820152601d60248201527f4552433230536e617073686f743a206e6f6e6578697374656e7420696400000060448201526064016105e2565b6000610c298486610c7c565b8454909150811415610c42576000809250925050610c6a565b6001846001018281548110610c5957610c59611155565b906000526020600020015492509250505b9250929050565b60006104d5600b5490565b8154600090610c8d575060006103be565b82546000905b80821015610cda576000610ca78383610d27565b60008781526020902090915085908201541115610cc657809150610cd4565b610cd181600161113d565b92505b50610c93565b600082118015610d06575083610d0386610cf5600186610ff2565b600091825260209091200190565b54145b15610d1f57610d16600183610ff2565b925050506103be565b5090506103be565b6000610d36600284841861116b565b6106ba9084841661113d565b600060208083528351808285015260005b81811015610d6f57858101830151858201604001528201610d53565b81811115610d81576000604083870101525b50601f01601f1916929092016040019392505050565b6001600160a01b0381168114610dac57600080fd5b50565b60008060408385031215610dc257600080fd5b8235610dcd81610d97565b946020939093013593505050565b600080600060608486031215610df057600080fd5b8335610dfb81610d97565b92506020840135610e0b81610d97565b929592945050506040919091013590565b600080600080600060808688031215610e3457600080fd5b8535610e3f81610d97565b94506020860135610e4f81610d97565b935060408601359250606086013567ffffffffffffffff80821115610e7357600080fd5b818801915088601f830112610e8757600080fd5b813581811115610e9657600080fd5b896020828501011115610ea857600080fd5b9699959850939650602001949392505050565b600060208284031215610ecd57600080fd5b81356106ba81610d97565b600060208284031215610eea57600080fd5b5035919050565b600080600080600080600060e0888a031215610f0c57600080fd5b8735610f1781610d97565b96506020880135610f2781610d97565b95506040880135945060608801359350608088013560ff81168114610f4b57600080fd5b9699959850939692959460a0840135945060c09093013592915050565b60008060408385031215610f7b57600080fd5b8235610f8681610d97565b91506020830135610f9681610d97565b809150509250929050565b600181811c90821680610fb557607f821691505b60208210811415610fd657634e487b7160e01b600052602260045260246000fd5b50919050565b634e487b7160e01b600052601160045260246000fd5b60008282101561100457611004610fdc565b500390565b6001600160a01b03878116825286166020820152604081018590526060810184905260a06080820181905281018290526000828460c0840137600060c0848401015260c0601f19601f8501168301019050979650505050505050565b60006020828403121561107757600080fd5b5051919050565b60208082526009908201526810a9b83634ba3a32b960b91b604082015260600190565b600080835481600182811c9150808316806110bd57607f831692505b60208084108214156110dd57634e487b7160e01b86526022600452602486fd5b8180156110f157600181146111025761112f565b60ff1986168952848901965061112f565b60008a81526020902060005b868110156111275781548b82015290850190830161110e565b505084890196505b509498975050505050505050565b6000821982111561115057611150610fdc565b500190565b634e487b7160e01b600052603260045260246000fd5b60008261118857634e487b7160e01b600052601260045260246000fd5b50049056feddf252ad1be2c89b69c2b068fc378daa952ba7f163c4a11628f55a4df523b3efa264697066735822122073d1710536a925a8d541323b670b2c4e8aa1d0d10bc74d570f2e53feab0fd5b664736f6c634300080a0033",
  "linkReferences": {},
  "deployedLinkReferences": {}
}