{
  "_format": "hh-sol-artifact-1",
  "contractName": "ERC20",
  "sourceName": "src/libraries.sol",
  "abi": [
    {
      "inputs": [
        {
          "internalType": "string",
          "name": "_name",
          "type": "string"
        },
        {
          "internalType": "string",
          "name": "_symbol",
          "type": "string"
        },
        {
          "internalType": "uint8",
          "name": "_decimals",
          "type": "uint8"
        }
      ],
      "stateMutability": "nonpayable",
      "type": "constructor"
    },
    {
      "anonymous": false,
      "inputs": [
        {
          "indexed": true,
          "internalType": "address",
          "name": "owner",
          "type": "address"
        },
        {
          "indexed": true,
          "internalType": "address",
          "name": "spender",
          "type": "address"
        },
        {
          "indexed": false,
          "internalType": "uint256",
          "name": "amount",
          "type": "uint256"
        }
      ],
      "name": "Approval",
      "type": "event"
    },
    {
      "anonymous": false,
      "inputs": [
        {
          "indexed": true,
          "internalType": "address",
          "name": "from",
          "type": "address"
        },
        {
          "indexed": true,
          "internalType": "address",
          "name": "to",
          "type": "address"
        },
        {
          "indexed": false,
          "internalType": "uint256",
          "name": "amount",
          "type": "uint256"
        }
      ],
      "name": "Transfer",
      "type": "event"
    },
    {
      "inputs": [],
      "name": "DOMAIN_SEPARATOR",
      "outputs": [
        {
          "internalType": "bytes32",
          "name": "",
          "type": "bytes32"
        }
      ],
      "stateMutability": "view",
      "type": "function"
    },
    {
      "inputs": [
        {
          "internalType": "address",
          "name": "",
          "type": "address"
        },
        {
          "internalType": "address",
          "name": "",
          "type": "address"
        }
      ],
      "name": "allowance",
      "outputs": [
        {
          "internalType": "uint256",
          "name": "",
          "type": "uint256"
        }
      ],
      "stateMutability": "view",
      "type": "function"
    },
    {
      "inputs": [
        {
          "internalType": "address",
          "name": "spender",
          "type": "address"
        },
        {
          "internalType": "uint256",
          "name": "amount",
          "type": "uint256"
        }
      ],
      "name": "approve",
      "outputs": [
        {
          "internalType": "bool",
          "name": "",
          "type": "bool"
        }
      ],
      "stateMutability": "nonpayable",
      "type": "function"
    },
    {
      "inputs": [
        {
          "internalType": "address",
          "name": "",
          "type": "address"
        }
      ],
      "name": "balanceOf",
      "outputs": [
        {
          "internalType": "uint256",
          "name": "",
          "type": "uint256"
        }
      ],
      "stateMutability": "view",
      "type": "function"
    },
    {
      "inputs": [
        {
          "internalType": "address",
          "name": "to",
          "type": "address"
        },
        {
          "internalType": "uint256",
          "name": "amount",
          "type": "uint256"
        }
      ],
      "name": "burn",
      "outputs": [],
      "stateMutability": "nonpayable",
      "type": "function"
    },
    {
      "inputs": [],
      "name": "decimals",
      "outputs": [
        {
          "internalType": "uint8",
          "name": "",
          "type": "uint8"
        }
      ],
      "stateMutability": "view",
      "type": "function"
    },
    {
      "inputs": [
        {
          "internalType": "address",
          "name": "to",
          "type": "address"
        },
        {
          "internalType": "uint256",
          "name": "amount",
          "type": "uint256"
        }
      ],
      "name": "mint",
      "outputs": [],
      "stateMutability": "nonpayable",
      "type": "function"
    },
    {
      "inputs": [],
      "name": "name",
      "outputs": [
        {
          "internalType": "string",
          "name": "",
          "type": "string"
        }
      ],
      "stateMutability": "view",
      "type": "function"
    },
    {
      "inputs": [
        {
          "internalType": "address",
          "name": "",
          "type": "address"
        }
      ],
      "name": "nonces",
      "outputs": [
        {
          "internalType": "uint256",
          "name": "",
          "type": "uint256"
        }
      ],
      "stateMutability": "view",
      "type": "function"
    },
    {
      "inputs": [
        {
          "internalType": "address",
          "name": "owner",
          "type": "address"
        },
        {
          "internalType": "address",
          "name": "spender",
          "type": "address"
        },
        {
          "internalType": "uint256",
          "name": "value",
          "type": "uint256"
        },
        {
          "internalType": "uint256",
          "name": "deadline",
          "type": "uint256"
        },
        {
          "internalType": "uint8",
          "name": "v",
          "type": "uint8"
        },
        {
          "internalType": "bytes32",
          "name": "r",
          "type": "bytes32"
        },
        {
          "internalType": "bytes32",
          "name": "s",
          "type": "bytes32"
        }
      ],
      "name": "permit",
      "outputs": [],
      "stateMutability": "nonpayable",
      "type": "function"
    },
    {
      "inputs": [],
      "name": "symbol",
      "outputs": [
        {
          "internalType": "string",
          "name": "",
          "type": "string"
        }
      ],
      "stateMutability": "view",
      "type": "function"
    },
    {
      "inputs": [],
      "name": "totalSupply",
      "outputs": [
        {
          "internalType": "uint256",
          "name": "",
          "type": "uint256"
        }
      ],
      "stateMutability": "view",
      "type": "function"
    },
    {
      "inputs": [
        {
          "internalType": "address",
          "name": "to",
          "type": "address"
        },
        {
          "internalType": "uint256",
          "name": "amount",
          "type": "uint256"
        }
      ],
      "name": "transfer",
      "outputs": [
        {
          "internalType": "bool",
          "name": "",
          "type": "bool"
        }
      ],
      "stateMutability": "nonpayable",
      "type": "function"
    },
    {
      "inputs": [
        {
          "internalType": "address",
          "name": "from",
          "type": "address"
        },
        {
          "internalType": "address",
          "name": "to",
          "type": "address"
        },
        {
          "internalType": "uint256",
          "name": "amount",
          "type": "uint256"
        }
      ],
      "name": "transferFrom",
      "outputs": [
        {
          "internalType": "bool",
          "name": "",
          "type": "bool"
        }
      ],
      "stateMutability": "nonpayable",
      "type": "function"
    }
  ],
  "bytecode": "0x60e06040523480156200001157600080fd5b5060405162000ff338038062000ff3833981016040819052620000349162000291565b8251620000499060009060208601906200011e565b5081516200005f9060019060208501906200011e565b5060ff81166080524660a0526200007562000082565b60c05250620003f7915050565b60007f8b73c3c69bb8fe3d512ecc4cf759cc79239f7b179b0ffacaa9a75d522b39400f6000604051620000b6919062000353565b6040805191829003822060208301939093528101919091527fc89efdaa54c0f20c7adf612882df0950f5a951637e0307cdcb4c672f298b8bc660608201524660808201523060a082015260c00160405160208183030381529060405280519060200120905090565b8280546200012c9062000316565b90600052602060002090601f0160209004810192826200015057600085556200019b565b82601f106200016b57805160ff19168380011785556200019b565b828001600101855582156200019b579182015b828111156200019b5782518255916020019190600101906200017e565b50620001a9929150620001ad565b5090565b5b80821115620001a95760008155600101620001ae565b634e487b7160e01b600052604160045260246000fd5b600082601f830112620001ec57600080fd5b81516001600160401b0380821115620002095762000209620001c4565b604051601f8301601f19908116603f01168101908282118183101715620002345762000234620001c4565b816040528381526020925086838588010111156200025157600080fd5b600091505b8382101562000275578582018301518183018401529082019062000256565b83821115620002875760008385830101525b9695505050505050565b600080600060608486031215620002a757600080fd5b83516001600160401b0380821115620002bf57600080fd5b620002cd87838801620001da565b94506020860151915080821115620002e457600080fd5b50620002f386828701620001da565b925050604084015160ff811681146200030b57600080fd5b809150509250925092565b600181811c908216806200032b57607f821691505b602082108114156200034d57634e487b7160e01b600052602260045260246000fd5b50919050565b600080835481600182811c9150808316806200037057607f831692505b60208084108214156200039157634e487b7160e01b86526022600452602486fd5b818015620003a85760018114620003ba57620003e9565b60ff19861689528489019650620003e9565b60008a81526020902060005b86811015620003e15781548b820152908501908301620003c6565b505084890196505b509498975050505050505050565b60805160a05160c051610bcc62000427600039600061046f0152600061043a0152600061015f0152610bcc6000f3fe608060405234801561001057600080fd5b50600436106100ea5760003560e01c806370a082311161008c5780639dc29fac116100665780639dc29fac146101f8578063a9059cbb1461020b578063d505accf1461021e578063dd62ed3e1461023157600080fd5b806370a08231146101b05780637ecebe00146101d057806395d89b41146101f057600080fd5b806323b872dd116100c857806323b872dd14610147578063313ce5671461015a5780633644e5151461019357806340c10f191461019b57600080fd5b806306fdde03146100ef578063095ea7b31461010d57806318160ddd14610130575b600080fd5b6100f761025c565b60405161010491906108bb565b60405180910390f35b61012061011b36600461092c565b6102ea565b6040519015158152602001610104565b61013960025481565b604051908152602001610104565b610120610155366004610956565b610356565b6101817f000000000000000000000000000000000000000000000000000000000000000081565b60405160ff9091168152602001610104565b610139610436565b6101ae6101a936600461092c565b610491565b005b6101396101be366004610992565b60036020526000908152604090205481565b6101396101de366004610992565b60056020526000908152604090205481565b6100f761049f565b6101ae61020636600461092c565b6104ac565b61012061021936600461092c565b6104b6565b6101ae61022c3660046109b4565b61051c565b61013961023f366004610a27565b600460209081526000928352604080842090915290825290205481565b6000805461026990610a5a565b80601f016020809104026020016040519081016040528092919081815260200182805461029590610a5a565b80156102e25780601f106102b7576101008083540402835291602001916102e2565b820191906000526020600020905b8154815290600101906020018083116102c557829003601f168201915b505050505081565b3360008181526004602090815260408083206001600160a01b038716808552925280832085905551919290917f8c5be1e5ebec7d5bd14f71427d1e84f3dd0314c0f7b2291e5b200ac8c7c3b925906103459086815260200190565b60405180910390a350600192915050565b6001600160a01b038316600090815260046020908152604080832033845290915281205460001981146103b25761038d8382610aab565b6001600160a01b03861660009081526004602090815260408083203384529091529020555b6001600160a01b038516600090815260036020526040812080548592906103da908490610aab565b90915550506001600160a01b0380851660008181526003602052604090819020805487019055519091871690600080516020610b77833981519152906104239087815260200190565b60405180910390a3506001949350505050565b60007f0000000000000000000000000000000000000000000000000000000000000000461461046c57610467610765565b905090565b507f000000000000000000000000000000000000000000000000000000000000000090565b61049b82826107ff565b5050565b6001805461026990610a5a565b61049b8282610859565b336000908152600360205260408120805483919083906104d7908490610aab565b90915550506001600160a01b03831660008181526003602052604090819020805485019055513390600080516020610b77833981519152906103459086815260200190565b428410156105715760405162461bcd60e51b815260206004820152601760248201527f5045524d49545f444541444c494e455f4558504952454400000000000000000060448201526064015b60405180910390fd5b6000600161057d610436565b6001600160a01b038a811660008181526005602090815260409182902080546001810190915582517f6e71edae12b1b97f4d1f60370fef10105fa2faae0126114a169c64845d6126c98184015280840194909452938d166060840152608083018c905260a083019390935260c08083018b90528151808403909101815260e08301909152805192019190912061190160f01b6101008301526101028201929092526101228101919091526101420160408051601f198184030181528282528051602091820120600084529083018083525260ff871690820152606081018590526080810184905260a0016020604051602081039080840390855afa158015610689573d6000803e3d6000fd5b5050604051601f1901519150506001600160a01b038116158015906106bf5750876001600160a01b0316816001600160a01b0316145b6106fc5760405162461bcd60e51b815260206004820152600e60248201526d24a72b20a624a22fa9a4a3a722a960911b6044820152606401610568565b6001600160a01b0390811660009081526004602090815260408083208a8516808552908352928190208990555188815291928a16917f8c5be1e5ebec7d5bd14f71427d1e84f3dd0314c0f7b2291e5b200ac8c7c3b925910160405180910390a350505050505050565b60007f8b73c3c69bb8fe3d512ecc4cf759cc79239f7b179b0ffacaa9a75d522b39400f60006040516107979190610ac2565b6040805191829003822060208301939093528101919091527fc89efdaa54c0f20c7adf612882df0950f5a951637e0307cdcb4c672f298b8bc660608201524660808201523060a082015260c00160405160208183030381529060405280519060200120905090565b80600260008282546108119190610b5e565b90915550506001600160a01b038216600081815260036020908152604080832080548601905551848152600080516020610b7783398151915291015b60405180910390a35050565b6001600160a01b03821660009081526003602052604081208054839290610881908490610aab565b90915550506002805482900390556040518181526000906001600160a01b03841690600080516020610b778339815191529060200161084d565b600060208083528351808285015260005b818110156108e8578581018301518582016040015282016108cc565b818111156108fa576000604083870101525b50601f01601f1916929092016040019392505050565b80356001600160a01b038116811461092757600080fd5b919050565b6000806040838503121561093f57600080fd5b61094883610910565b946020939093013593505050565b60008060006060848603121561096b57600080fd5b61097484610910565b925061098260208501610910565b9150604084013590509250925092565b6000602082840312156109a457600080fd5b6109ad82610910565b9392505050565b600080600080600080600060e0888a0312156109cf57600080fd5b6109d888610910565b96506109e660208901610910565b95506040880135945060608801359350608088013560ff81168114610a0a57600080fd5b9699959850939692959460a0840135945060c09093013592915050565b60008060408385031215610a3a57600080fd5b610a4383610910565b9150610a5160208401610910565b90509250929050565b600181811c90821680610a6e57607f821691505b60208210811415610a8f57634e487b7160e01b600052602260045260246000fd5b50919050565b634e487b7160e01b600052601160045260246000fd5b600082821015610abd57610abd610a95565b500390565b600080835481600182811c915080831680610ade57607f831692505b6020808410821415610afe57634e487b7160e01b86526022600452602486fd5b818015610b125760018114610b2357610b50565b60ff19861689528489019650610b50565b60008a81526020902060005b86811015610b485781548b820152908501908301610b2f565b505084890196505b509498975050505050505050565b60008219821115610b7157610b71610a95565b50019056feddf252ad1be2c89b69c2b068fc378daa952ba7f163c4a11628f55a4df523b3efa26469706673582212202af8c0eddb40b79dd4599e1e5093af309f42f13c32fa725353405fdb3715a18f64736f6c634300080a0033",
  "linkReferences": {},
  "deployedLinkReferences": {}
}