{
  "_format": "hh-sol-artifact-1",
  "contractName": "SplitterFactory",
  "sourceName": "src/factories.sol",
  "abi": [
    {
      "inputs": [
        {
          "internalType": "contract tVault",
          "name": "newvault",
          "type": "address"
        },
        {
          "internalType": "uint256",
          "name": "vaultId",
          "type": "uint256"
        },
        {
          "internalType": "address",
          "name": "tMasterAd",
          "type": "address"
        }
      ],
      "name": "newSplitter",
      "outputs": [
        {
          "internalType": "address",
          "name": "",
          "type": "address"
        }
      ],
      "stateMutability": "nonpayable",
      "type": "function"
    }
  ],
  "bytecode": "0x608060405234801561001057600080fd5b50613c97806100206000396000f3fe608060405234801561001057600080fd5b506004361061002b5760003560e01c806348f8906814610030575b600080fd5b61004361003e3660046100dc565b61005f565b6040516001600160a01b03909116815260200160405180910390f35b600080848484604051610071906100b7565b6001600160a01b03938416815260208101929092529091166040820152606001604051809103906000f0801580156100ad573d6000803e3d6000fd5b5095945050505050565b613b438061011f83390190565b6001600160a01b03811681146100d957600080fd5b50565b6000806000606084860312156100f157600080fd5b83356100fc816100c4565b9250602084013591506040840135610113816100c4565b80915050925092509256fe60c06040523480156200001157600080fd5b5060405162003b4338038062003b438339810160408190526200003491620005de565b600080546001600160a01b0319166001600160a01b0385169081179091556040805163718fdfd160e11b8152905163e31fbfa2916004808201926020929091908290030181865afa1580156200008e573d6000803e3d6000fd5b505050506040513d601f19601f82011682018060405250810190620000b4919062000626565b6003819055506301e13380670de0b6b3a764000060008054906101000a90046001600160a01b03166001600160a01b03166334fd2eca6040518163ffffffff1660e01b8152600401602060405180830381865afa1580156200011a573d6000803e3d6000fd5b505050506040513d601f19601f8201168201806040525081019062000140919062000626565b6200014c919062000656565b62000158919062000670565b6200016c90670de0b6b3a764000062000693565b600490815560005460408051636bfef7e560e11b815290516001600160a01b039092169263d7fdefca9282820192602092908290030181865afa158015620001b8573d6000803e3d6000fd5b505050506040513d601f19601f82011682018060405250810190620001de919062000626565b600755600054604080516363cf7f9d60e11b815290516001600160a01b039092169163c79eff3a916004808201926020929091908290030181865afa1580156200022c573d6000803e3d6000fd5b505050506040513d601f19601f8201168201806040525081019062000252919062000626565b60085560808290526001600160a01b0381811660a081905260005460405163095ea7b360e01b8152600481019290925260001960248301529091169063095ea7b3906044016020604051808303816000875af1158015620002b7573d6000803e3d6000fd5b505050506040513d601f19601f82011682018060405250810190620002dd9190620006ae565b5042600655620002ec620002f5565b505050620008ea565b60008054604080516395d89b4160e01b815290516001600160a01b039092169283926395d89b419260048082019392918290030181865afa1580156200033f573d6000803e3d6000fd5b505050506040513d6000823e601f3d908101601f1916820160405262000369919081019062000722565b6040516020016200037b9190620007da565b604051602081830303815290604052306040516200039990620005ba565b620003a79392919062000835565b604051809103906000f080158015620003c4573d6000803e3d6000fd5b50600180546001600160a01b0319166001600160a01b0392831617905560008054604080516395d89b4160e01b81529051919093169283926395d89b41926004808401938290030181865afa15801562000422573d6000803e3d6000fd5b505050506040513d6000823e601f3d908101601f191682016040526200044c919081019062000722565b6040516020016200045e919062000889565b604051602081830303815290604052306040516200047c90620005ba565b6200048a93929190620008a9565b604051809103906000f080158015620004a7573d6000803e3d6000fd5b50600280546001600160a01b0319166001600160a01b0392831617905560015460a05160405163095ea7b360e01b81529083166004820152600019602482015291169063095ea7b3906044016020604051808303816000875af115801562000513573d6000803e3d6000fd5b505050506040513d601f19601f82011682018060405250810190620005399190620006ae565b5060025460a05160405163095ea7b360e01b81526001600160a01b039182166004820152600019602482015291169063095ea7b3906044016020604051808303816000875af115801562000591573d6000803e3d6000fd5b505050506040513d601f19601f82011682018060405250810190620005b79190620006ae565b50565b6116f7806200244c83390190565b6001600160a01b0381168114620005b757600080fd5b600080600060608486031215620005f457600080fd5b83516200060181620005c8565b6020850151604086015191945092506200061b81620005c8565b809150509250925092565b6000602082840312156200063957600080fd5b5051919050565b634e487b7160e01b600052601160045260246000fd5b6000828210156200066b576200066b62000640565b500390565b6000826200068e57634e487b7160e01b600052601260045260246000fd5b500490565b60008219821115620006a957620006a962000640565b500190565b600060208284031215620006c157600080fd5b81518015158114620006d257600080fd5b9392505050565b634e487b7160e01b600052604160045260246000fd5b60005b838110156200070c578181015183820152602001620006f2565b838111156200071c576000848401525b50505050565b6000602082840312156200073557600080fd5b81516001600160401b03808211156200074d57600080fd5b818401915084601f8301126200076257600080fd5b815181811115620007775762000777620006d9565b604051601f8201601f19908116603f01168101908382118183101715620007a257620007a2620006d9565b81604052828152876020848701011115620007bc57600080fd5b620007cf836020830160208801620006ef565b979650505050505050565b6273655f60e81b815260008251620007fa816003850160208701620006ef565b9190910160030192915050565b6000815180845262000821816020860160208601620006ef565b601f01601f19169290920160200192915050565b600060018060a01b03808616835260806020840152600660808401526539b2b734b7b960d11b60a084015260c060408401526200087660c084018662000807565b9150808416606084015250949350505050565b626a755f60e81b815260008251620007fa816003850160208701620006ef565b600060018060a01b038086168352608060208401526006608084015265353ab734b7b960d11b60a084015260c060408401526200087660c084018662000807565b60805160a051611b316200091b600039600081816102ce01528181610bcc0152611300015260005050611b316000f3fe608060405234801561001057600080fd5b50600436106101a95760003560e01c8063a5a98b06116100f9578063dbceb00511610097578063e850830c11610071578063e850830c14610359578063e9c52e581461036c578063eab77ac914610392578063f15086e5146103a557600080fd5b8063dbceb0051461032a578063e4e4a2a31461033d578063e4ea238e1461035057600080fd5b8063c79eff3a116100d3578063c79eff3a14610301578063d3b5dc3b1461030a578063d7fdefca14610319578063d85734461461032257600080fd5b8063a5a98b06146102c9578063b9d1f972146102f0578063c70acd8a146102f857600080fd5b80636cd00d5c1161016657806381e9b5931161014057806381e9b5931461027c57806386a17ff51461029f5780638a206117146102b25780639a458583146102bb57600080fd5b80636cd00d5c146102355780636f307dc31461023e57806371baa1af1461026957600080fd5b8063026034f3146101ae57806324a47aeb146101c957806327b24c69146101dc5780633514bb89146101ef57806351453f9d146102045780635235c8bb1461020d575b600080fd5b6101b6600a81565b6040519081526020015b60405180910390f35b6101b66101d7366004611924565b6103b8565b6101b66101ea366004611924565b61061a565b6102026101fd36600461194e565b610646565b005b6101b660055481565b61022061021b366004611924565b61075b565b604080519283526020830191909152016101c0565b6101b660045481565b600054610251906001600160a01b031681565b6040516001600160a01b0390911681526020016101c0565b61020261027736600461197a565b6108f1565b610284610b18565b604080519384526020840192909252908201526060016101c0565b6102026102ad3660046119c6565b610bc1565b6101b660065481565b600a54600b54600c54610284565b6102517f000000000000000000000000000000000000000000000000000000000000000081565b610202610cbc565b6101b660035481565b6101b660085481565b6101b6670de0b6b3a764000081565b6101b660075481565b610284610ce3565b610220610338366004611924565b6110ca565b61020261034b366004611a04565b6112f5565b6101b6600d5481565b610202610367366004611924565b600e55565b600254600154604080516001600160a01b039384168152929091166020830152016101c0565b600254610251906001600160a01b031681565b600154610251906001600160a01b031681565b600354600090816103dd846103d7848181670de0b6b3a7640000611a4f565b906114c6565b6001546040516370a0823160e01b815233600482015291925082916001600160a01b03909116906370a0823190602401602060405180830381865afa15801561042a573d6000803e3d6000fd5b505050506040513d601f19601f8201168201806040525081019061044e9190611a66565b10156104a15760405162461bcd60e51b815260206004820152601860248201527f4e6f7420656e6f7567682073656e696f7220746f6b656e73000000000000000060448201526064015b60405180910390fd5b6104ab8185611a7f565b600d60008282546104bc9190611a4f565b9091555050600254604051632770a7eb60e21b81526001600160a01b0390911690639dc29fac906104f39033908890600401611a97565b600060405180830381600087803b15801561050d57600080fd5b505af1158015610521573d6000803e3d6000fd5b5050600154604051632770a7eb60e21b81526001600160a01b039091169250639dc29fac91506105579033908590600401611a97565b600060405180830381600087803b15801561057157600080fd5b505af1158015610585573d6000803e3d6000fd5b50506000546001600160a01b0316915063a9059cbb9050336105a78488611a7f565b6040518363ffffffff1660e01b81526004016105c4929190611a97565b6020604051808303816000875af11580156105e3573d6000803e3d6000fd5b505050506040513d601f19601f820116820180604052508101906106079190611ab0565b506106128185611a7f565b949350505050565b600454600090610640906106379084670de0b6b3a76400006114e2565b600754906114c6565b92915050565b600260009054906101000a90046001600160a01b03166001600160a01b031663b613cb8c6040518163ffffffff1660e01b81526004016020604051808303816000875af115801561069b573d6000803e3d6000fd5b505050506040513d601f19601f820116820180604052508101906106bf9190611a66565b50600160009054906101000a90046001600160a01b03166001600160a01b031663b613cb8c6040518163ffffffff1660e01b81526004016020604051808303816000875af1158015610715573d6000803e3d6000fd5b505050506040513d601f19601f820116820180604052508101906107399190611a66565b60115561074682826115a0565b60115460009081526010602052604090205550565b6000806108de6107e2600260009054906101000a90046001600160a01b03166001600160a01b03166318160ddd6040518163ffffffff1660e01b8152600401602060405180830381865afa1580156107b7573d6000803e3d6000fd5b505050506040513d601f19601f820116820180604052508101906107db9190611a66565b85906114c6565b600160009054906101000a90046001600160a01b03166001600160a01b03166318160ddd6040518163ffffffff1660e01b8152600401602060405180830381865afa158015610835573d6000803e3d6000fd5b505050506040513d601f19601f820116820180604052508101906108599190611a66565b6108639190611a7f565b60008054906101000a90046001600160a01b03166001600160a01b0316637251d3896040518163ffffffff1660e01b8152600401602060405180830381865afa1580156108b4573d6000803e3d6000fd5b505050506040513d601f19601f820116820180604052508101906108d89190611a66565b906118f4565b91506108ea82846114c6565b9050915091565b6000828152600f6020908152604080832033845290915290205460ff161561094a5760405162461bcd60e51b815260206004820152600c60248201526b446f75626c6520436c61696d60a01b6044820152606401610498565b6000828152600f602090815260408083203384529091528120805460ff1916600117905581610984576001546001600160a01b0316610991565b6002546001600160a01b03165b90506000816001600160a01b0316634ee2cd7e33866040518363ffffffff1660e01b81526004016109c3929190611a97565b602060405180830381865afa1580156109e0573d6000803e3d6000fd5b505050506040513d601f19601f82011682018060405250810190610a049190611a66565b604051630981b24d60e41b8152600481018690529091506000906001600160a01b0384169063981b24d090602401602060405180830381865afa158015610a4f573d6000803e3d6000fd5b505050506040513d601f19601f82011682018060405250810190610a739190611a66565b60008681526010602052604081205491925090610a9b90610a9490846118f4565b84906114c6565b60405163a9059cbb60e01b81529091506001600160a01b0385169063a9059cbb90610acc9033908590600401611a97565b6020604051808303816000875af1158015610aeb573d6000803e3d6000fd5b505050506040513d601f19601f82011682018060405250810190610b0f9190611ab0565b50505050505050565b600080600060065442610b2b9190611a4f565b60056000828254610b3c9190611a7f565b909155505042600655600080546040805163318b5e1b60e01b815290516001600160a01b039092169263318b5e1b9260048084019382900301818387803b158015610b8657600080fd5b505af1158015610b9a573d6000803e3d6000fd5b50505050610ba6610ce3565b600c819055600b829055600a83905591959094509092509050565b336001600160a01b037f00000000000000000000000000000000000000000000000000000000000000001614610c245760405162461bcd60e51b815260206004820152600860248201526732b73a393ca2a92960c11b6044820152606401610498565b8215610c8a57600154604051632770a7eb60e21b81526001600160a01b0390911690639dc29fac90610c5c9085908590600401611a97565b600060405180830381600087803b158015610c7657600080fd5b505af1158015610b0f573d6000803e3d6000fd5b600254604051632770a7eb60e21b81526001600160a01b0390911690639dc29fac90610c5c9085908590600401611a97565b60095460ff16610ccd576001610cd0565b60005b6009805460ff1916911515919091179055565b600080600080610d1d61063760085442610cfd9190611a4f565b670de0b6b3a7640000600e54600454610d169190611a7f565b91906114e2565b6009549091506000908190819060ff16610f4757600160009054906101000a90046001600160a01b03166001600160a01b03166318160ddd6040518163ffffffff1660e01b8152600401602060405180830381865afa158015610d84573d6000803e3d6000fd5b505050506040513d601f19601f82011682018060405250810190610da89190611a66565b9150600260009054906101000a90046001600160a01b03166001600160a01b03166318160ddd6040518163ffffffff1660e01b8152600401602060405180830381865afa158015610dfd573d6000803e3d6000fd5b505050506040513d601f19601f82011682018060405250810190610e219190611a66565b905060008060009054906101000a90046001600160a01b03166001600160a01b03166318160ddd6040518163ffffffff1660e01b8152600401602060405180830381865afa158015610e77573d6000803e3d6000fd5b505050506040513d601f19601f82011682018060405250810190610e9b9190611a66565b90508015610f3c57610f37610eb08385611a7f565b610ebb836001611a7f565b60008054906101000a90046001600160a01b03166001600160a01b0316637251d3896040518163ffffffff1660e01b8152600401602060405180830381865afa158015610f0c573d6000803e3d6000fd5b505050506040513d601f19601f82011682018060405250810190610f309190611a66565b9190611905565b610f3f565b60005b93505061104c565b60008054604051634796c54760e01b8152600a600482015282916001600160a01b031690634796c54790602401606060405180830381865afa158015610f91573d6000803e3d6000fd5b505050506040513d601f19601f82011682018060405250810190610fb59190611acd565b509150915061103960008054906101000a90046001600160a01b03166001600160a01b031663c70acd8a6040518163ffffffff1660e01b8152600401602060405180830381865afa15801561100e573d6000803e3d6000fd5b505050506040513d601f19601f820116820180604052508101906110329190611a66565b83906114c6565b92506110458383611a4f565b9094509250505b60008261106b57509296879650670de0b6b3a764000095509350505050565b61107585846114c6565b841061108357849750611094565b61108d84846118f4565b9750600190505b806110b4576110b1826110a787866114c6565b6108d89087611a4f565b96505b6110be87896118f4565b95505050505050909192565b600080546040516370a0823160e01b8152336004820152829184916001600160a01b03909116906370a0823190602401602060405180830381865afa158015611117573d6000803e3d6000fd5b505050506040513d601f19601f8201168201806040525081019061113b9190611a66565b101561116f5760405162461bcd60e51b815260206004820152600360248201526218985b60ea1b6044820152606401610498565b6000546040516323b872dd60e01b8152336004820152306024820152604481018590526001600160a01b03909116906323b872dd906064016020604051808303816000875af11580156111c6573d6000803e3d6000fd5b505050506040513d601f19601f820116820180604052508101906111ea9190611ab0565b5082600d60008282546111fd9190611a7f565b90915550506003546000906112139085906114c6565b905060006112218286611a4f565b6002546040516340c10f1960e01b81529192506001600160a01b0316906340c10f19906112549033908690600401611a97565b600060405180830381600087803b15801561126e57600080fd5b505af1158015611282573d6000803e3d6000fd5b50506001546040516340c10f1960e01b81526001600160a01b0390911692506340c10f1991506112b89033908590600401611a97565b600060405180830381600087803b1580156112d257600080fd5b505af11580156112e6573d6000803e3d6000fd5b50939792965091945050505050565b336001600160a01b037f0000000000000000000000000000000000000000000000000000000000000000161461135a5760405162461bcd60e51b815260206004820152600a6024820152693737ba1036b0b9ba32b960b11b6044820152606401610498565b6113648284611a7f565b600d60008282546113759190611a4f565b9091555050600254604051632770a7eb60e21b81526001600160a01b0390911690639dc29fac906113ac9084908790600401611a97565b600060405180830381600087803b1580156113c657600080fd5b505af11580156113da573d6000803e3d6000fd5b5050600154604051632770a7eb60e21b81526001600160a01b039091169250639dc29fac91506114109084908690600401611a97565b600060405180830381600087803b15801561142a57600080fd5b505af115801561143e573d6000803e3d6000fd5b50506000546001600160a01b0316915063a9059cbb9050826114608587611a7f565b6040518363ffffffff1660e01b815260040161147d929190611a97565b6020604051808303816000875af115801561149c573d6000803e3d6000fd5b505050506040513d601f19601f820116820180604052508101906114c09190611ab0565b50505050565b60006114db8383670de0b6b3a7640000611905565b9392505050565b6000838015611582576001841680156114fd57859250611501565b8392505b508260011c8460011c94505b841561157c578560801c1561152157600080fd5b8586028181018181101561153457600080fd5b859004965050600185161561157157858302838782041461155a57861561155a57600080fd5b8181018181101561156a57600080fd5b8590049350505b8460011c945061150d565b50611598565b8380156115925760009250611596565b8392505b505b509392505050565b8115611719576001546040516340c10f1960e01b81526001600160a01b03909116906340c10f19906115d89030908590600401611a97565b600060405180830381600087803b1580156115f257600080fd5b505af1158015611606573d6000803e3d6000fd5b505050506000600260009054906101000a90046001600160a01b03166001600160a01b03166318160ddd6040518163ffffffff1660e01b8152600401602060405180830381865afa15801561165f573d6000803e3d6000fd5b505050506040513d601f19601f820116820180604052508101906116839190611a66565b905061171181600160009054906101000a90046001600160a01b03166001600160a01b03166318160ddd6040518163ffffffff1660e01b8152600401602060405180830381865afa1580156116dc573d6000803e3d6000fd5b505050506040513d601f19601f820116820180604052508101906117009190611a66565b61170a9190611a7f565b82906118f4565b600355505050565b6002546040516340c10f1960e01b81526001600160a01b03909116906340c10f199061174b9030908590600401611a97565b600060405180830381600087803b15801561176557600080fd5b505af1158015611779573d6000803e3d6000fd5b505050506000611787610ce3565b509150506000600260009054906101000a90046001600160a01b03166001600160a01b03166318160ddd6040518163ffffffff1660e01b8152600401602060405180830381865afa1580156117e0573d6000803e3d6000fd5b505050506040513d601f19601f820116820180604052508101906118049190611a66565b9050611814826103d78584611a7f565b60008054906101000a90046001600160a01b03166001600160a01b0316637251d3896040518163ffffffff1660e01b8152600401602060405180830381865afa158015611865573d6000803e3d6000fd5b505050506040513d601f19601f820116820180604052508101906118899190611a66565b6118939190611a4f565b6007556000600555600154604080516318160ddd60e01b815290516118eb9284926001600160a01b03909116916318160ddd916004808201926020929091908290030181865afa1580156116dc573d6000803e3d6000fd5b60035550505050565b60006114db83670de0b6b3a7640000845b82820281151584158583048514171661191d57600080fd5b0492915050565b60006020828403121561193657600080fd5b5035919050565b801515811461194b57600080fd5b50565b6000806040838503121561196157600080fd5b823561196c8161193d565b946020939093013593505050565b6000806040838503121561198d57600080fd5b82359150602083013561199f8161193d565b809150509250929050565b80356001600160a01b03811681146119c157600080fd5b919050565b6000806000606084860312156119db57600080fd5b83356119e68161193d565b92506119f4602085016119aa565b9150604084013590509250925092565b600080600060608486031215611a1957600080fd5b8335925060208401359150611a30604085016119aa565b90509250925092565b634e487b7160e01b600052601160045260246000fd5b600082821015611a6157611a61611a39565b500390565b600060208284031215611a7857600080fd5b5051919050565b60008219821115611a9257611a92611a39565b500190565b6001600160a01b03929092168252602082015260400190565b600060208284031215611ac257600080fd5b81516114db8161193d565b600080600060608486031215611ae257600080fd5b835192506020840151915060408401519050925092509256fea2646970667358221220b738bdac0df17f5b0bbba1b7324354180ca740dfb5513b41591676bdb707cb0a64736f6c634300080a003360e06040523480156200001157600080fd5b50604051620016f7380380620016f7833981016040819052620000349162000343565b8282856001600160a01b031663313ce5676040518163ffffffff1660e01b8152600401602060405180830381865afa15801562000075573d6000803e3d6000fd5b505050506040513d601f19601f820116820180604052508101906200009b9190620003d7565b8251620000b0906000906020860190620001b7565b508151620000c6906001906020850190620001b7565b5060ff81166080524660a052620000dc6200011b565b60c0525050600780546001600160a01b039687166001600160a01b031991821617909155600680549390961692169190911790935550620004e4915050565b60007f8b73c3c69bb8fe3d512ecc4cf759cc79239f7b179b0ffacaa9a75d522b39400f60006040516200014f919062000440565b6040805191829003822060208301939093528101919091527fc89efdaa54c0f20c7adf612882df0950f5a951637e0307cdcb4c672f298b8bc660608201524660808201523060a082015260c00160405160208183030381529060405280519060200120905090565b828054620001c59062000403565b90600052602060002090601f016020900481019282620001e9576000855562000234565b82601f106200020457805160ff191683800117855562000234565b8280016001018555821562000234579182015b828111156200023457825182559160200191906001019062000217565b506200024292915062000246565b5090565b5b8082111562000242576000815560010162000247565b6001600160a01b03811681146200027357600080fd5b50565b634e487b7160e01b600052604160045260246000fd5b600082601f8301126200029e57600080fd5b81516001600160401b0380821115620002bb57620002bb62000276565b604051601f8301601f19908116603f01168101908282118183101715620002e657620002e662000276565b816040528381526020925086838588010111156200030357600080fd5b600091505b8382101562000327578582018301518183018401529082019062000308565b83821115620003395760008385830101525b9695505050505050565b600080600080608085870312156200035a57600080fd5b845162000367816200025d565b60208601519094506001600160401b03808211156200038557600080fd5b62000393888389016200028c565b94506040870151915080821115620003aa57600080fd5b50620003b9878288016200028c565b9250506060850151620003cc816200025d565b939692955090935050565b600060208284031215620003ea57600080fd5b815160ff81168114620003fc57600080fd5b9392505050565b600181811c908216806200041857607f821691505b602082108114156200043a57634e487b7160e01b600052602260045260246000fd5b50919050565b600080835481600182811c9150808316806200045d57607f831692505b60208084108214156200047e57634e487b7160e01b86526022600452602486fd5b818015620004955760018114620004a757620004d6565b60ff19861689528489019650620004d6565b60008a81526020902060005b86811015620004ce5781548b820152908501908301620004b3565b505084890196505b509498975050505050505050565b60805160a05160c0516111e36200051460003960006104dd015260006104a80152600061018b01526111e36000f3fe608060405234801561001057600080fd5b50600436106101165760003560e01c806370a08231116100a25780639dc29fac116100715780639dc29fac1461025d578063a9059cbb14610270578063b613cb8c14610283578063d505accf1461028b578063dd62ed3e1461029e57600080fd5b806370a08231146102025780637ecebe001461022257806395d89b4114610242578063981b24d01461024a57600080fd5b8063313ce567116100e9578063313ce567146101865780633644e515146101bf5780633b9d401e146101c757806340c10f19146101da5780634ee2cd7e146101ef57600080fd5b806306fdde031461011b578063095ea7b31461013957806318160ddd1461015c57806323b872dd14610173575b600080fd5b6101236102c9565b6040516101309190610d42565b60405180910390f35b61014c610147366004610daf565b610357565b6040519015158152602001610130565b61016560025481565b604051908152602001610130565b61014c610181366004610ddb565b6103c4565b6101ad7f000000000000000000000000000000000000000000000000000000000000000081565b60405160ff9091168152602001610130565b6101656104a4565b61014c6101d5366004610e1c565b6104ff565b6101ed6101e8366004610daf565b6105fe565b005b6101656101fd366004610daf565b610636565b610165610210366004610ebb565b60036020526000908152604090205481565b610165610230366004610ebb565b60056020526000908152604090205481565b61012361068c565b610165610258366004610ed8565b610699565b6101ed61026b366004610daf565b6106c1565b61014c61027e366004610daf565b6106f5565b61016561075b565b6101ed610299366004610ef1565b6107e0565b6101656102ac366004610f68565b600460209081526000928352604080842090915290825290205481565b600080546102d690610fa1565b80601f016020809104026020016040519081016040528092919081815260200182805461030290610fa1565b801561034f5780601f106103245761010080835404028352916020019161034f565b820191906000526020600020905b81548152906001019060200180831161033257829003601f168201915b505050505081565b3360008181526004602090815260408083206001600160a01b038716808552925280832085905551919290917f8c5be1e5ebec7d5bd14f71427d1e84f3dd0314c0f7b2291e5b200ac8c7c3b925906103b29086815260200190565b60405180910390a35060015b92915050565b6001600160a01b03831660009081526004602090815260408083203384529091528120546000198114610420576103fb8382610ff2565b6001600160a01b03861660009081526004602090815260408083203384529091529020555b6001600160a01b03851660009081526003602052604081208054859290610448908490610ff2565b90915550506001600160a01b038085166000818152600360205260409081902080548701905551909187169060008051602061118e833981519152906104919087815260200190565b60405180910390a3506001949350505050565b60007f000000000000000000000000000000000000000000000000000000000000000046146104da576104d5610a24565b905090565b507f000000000000000000000000000000000000000000000000000000000000000090565b600061050b8685610abe565b6040516323e30c8b60e01b81527f439148f0bbc682ca079e46d6e2c2f0c1e3b820f1a291b069d8882abf8cf18dd9906001600160a01b038816906323e30c8b9061056490339030908a906000908b908b90600401611009565b6020604051808303816000875af1158015610583573d6000803e3d6000fd5b505050506040513d601f19601f820116820180604052508101906105a79190611065565b146105eb5760405162461bcd60e51b815260206004820152600f60248201526e18d85b1b189858dac819985a5b1959608a1b60448201526064015b60405180910390fd5b6105f58685610b18565b95945050505050565b6006546001600160a01b031633146106285760405162461bcd60e51b81526004016105e29061107e565b6106328282610abe565b5050565b6001600160a01b03821660009081526008602052604081208190819061065d908590610b7a565b9150915081610684576001600160a01b0385166000908152600360205260409020546105f5565b949350505050565b600180546102d690610fa1565b60008060006106a9846009610b7a565b91509150816106ba57600254610684565b9392505050565b6006546001600160a01b031633146106eb5760405162461bcd60e51b81526004016105e29061107e565b6106328282610b18565b33600090815260036020526040812080548391908390610716908490610ff2565b90915550506001600160a01b0383166000818152600360205260409081902080548501905551339060008051602061118e833981519152906103b29086815260200190565b6006546000906001600160a01b031633146107885760405162461bcd60e51b81526004016105e29061107e565b610796600b80546001019055565b60006107a0610c71565b90507f8030e83b04d87bef53480e26263266d6ca66863aa8506aca6f2559d18aa1cb67816040516107d391815260200190565b60405180910390a1905090565b428410156108305760405162461bcd60e51b815260206004820152601760248201527f5045524d49545f444541444c494e455f4558504952454400000000000000000060448201526064016105e2565b6000600161083c6104a4565b6001600160a01b038a811660008181526005602090815260409182902080546001810190915582517f6e71edae12b1b97f4d1f60370fef10105fa2faae0126114a169c64845d6126c98184015280840194909452938d166060840152608083018c905260a083019390935260c08083018b90528151808403909101815260e08301909152805192019190912061190160f01b6101008301526101028201929092526101228101919091526101420160408051601f198184030181528282528051602091820120600084529083018083525260ff871690820152606081018590526080810184905260a0016020604051602081039080840390855afa158015610948573d6000803e3d6000fd5b5050604051601f1901519150506001600160a01b0381161580159061097e5750876001600160a01b0316816001600160a01b0316145b6109bb5760405162461bcd60e51b815260206004820152600e60248201526d24a72b20a624a22fa9a4a3a722a960911b60448201526064016105e2565b6001600160a01b0390811660009081526004602090815260408083208a8516808552908352928190208990555188815291928a16917f8c5be1e5ebec7d5bd14f71427d1e84f3dd0314c0f7b2291e5b200ac8c7c3b925910160405180910390a350505050505050565b60007f8b73c3c69bb8fe3d512ecc4cf759cc79239f7b179b0ffacaa9a75d522b39400f6000604051610a5691906110a1565b6040805191829003822060208301939093528101919091527fc89efdaa54c0f20c7adf612882df0950f5a951637e0307cdcb4c672f298b8bc660608201524660808201523060a082015260c00160405160208183030381529060405280519060200120905090565b8060026000828254610ad0919061113d565b90915550506001600160a01b03821660008181526003602090815260408083208054860190555184815260008051602061118e83398151915291015b60405180910390a35050565b6001600160a01b03821660009081526003602052604081208054839290610b40908490610ff2565b90915550506002805482900390556040518181526000906001600160a01b0384169060008051602061118e83398151915290602001610b0c565b60008060008411610bc65760405162461bcd60e51b815260206004820152601660248201527504552433230536e617073686f743a20696420697320360541b60448201526064016105e2565b610bce610c71565b841115610c1d5760405162461bcd60e51b815260206004820152601d60248201527f4552433230536e617073686f743a206e6f6e6578697374656e7420696400000060448201526064016105e2565b6000610c298486610c7c565b8454909150811415610c42576000809250925050610c6a565b6001846001018281548110610c5957610c59611155565b906000526020600020015492509250505b9250929050565b60006104d5600b5490565b8154600090610c8d575060006103be565b82546000905b80821015610cda576000610ca78383610d27565b60008781526020902090915085908201541115610cc657809150610cd4565b610cd181600161113d565b92505b50610c93565b600082118015610d06575083610d0386610cf5600186610ff2565b600091825260209091200190565b54145b15610d1f57610d16600183610ff2565b925050506103be565b5090506103be565b6000610d36600284841861116b565b6106ba9084841661113d565b600060208083528351808285015260005b81811015610d6f57858101830151858201604001528201610d53565b81811115610d81576000604083870101525b50601f01601f1916929092016040019392505050565b6001600160a01b0381168114610dac57600080fd5b50565b60008060408385031215610dc257600080fd5b8235610dcd81610d97565b946020939093013593505050565b600080600060608486031215610df057600080fd5b8335610dfb81610d97565b92506020840135610e0b81610d97565b929592945050506040919091013590565b600080600080600060808688031215610e3457600080fd5b8535610e3f81610d97565b94506020860135610e4f81610d97565b935060408601359250606086013567ffffffffffffffff80821115610e7357600080fd5b818801915088601f830112610e8757600080fd5b813581811115610e9657600080fd5b896020828501011115610ea857600080fd5b9699959850939650602001949392505050565b600060208284031215610ecd57600080fd5b81356106ba81610d97565b600060208284031215610eea57600080fd5b5035919050565b600080600080600080600060e0888a031215610f0c57600080fd5b8735610f1781610d97565b96506020880135610f2781610d97565b95506040880135945060608801359350608088013560ff81168114610f4b57600080fd5b9699959850939692959460a0840135945060c09093013592915050565b60008060408385031215610f7b57600080fd5b8235610f8681610d97565b91506020830135610f9681610d97565b809150509250929050565b600181811c90821680610fb557607f821691505b60208210811415610fd657634e487b7160e01b600052602260045260246000fd5b50919050565b634e487b7160e01b600052601160045260246000fd5b60008282101561100457611004610fdc565b500390565b6001600160a01b03878116825286166020820152604081018590526060810184905260a06080820181905281018290526000828460c0840137600060c0848401015260c0601f19601f8501168301019050979650505050505050565b60006020828403121561107757600080fd5b5051919050565b60208082526009908201526810a9b83634ba3a32b960b91b604082015260600190565b600080835481600182811c9150808316806110bd57607f831692505b60208084108214156110dd57634e487b7160e01b86526022600452602486fd5b8180156110f157600181146111025761112f565b60ff1986168952848901965061112f565b60008a81526020902060005b868110156111275781548b82015290850190830161110e565b505084890196505b509498975050505050505050565b6000821982111561115057611150610fdc565b500190565b634e487b7160e01b600052603260045260246000fd5b60008261118857634e487b7160e01b600052601260045260246000fd5b50049056feddf252ad1be2c89b69c2b068fc378daa952ba7f163c4a11628f55a4df523b3efa2646970667358221220a8d6099906e6280794a851e0394c0ce88d184084cb81c8d47c07e57f25b8cf0664736f6c634300080a0033a2646970667358221220e1837a9fc0ab7e6dc78f7aa9eae339fd78eed5a600ef955931371743188ec13664736f6c634300080a0033",
  "linkReferences": {},
  "deployedLinkReferences": {}
}