{
  "_format": "hh-sol-artifact-1",
  "contractName": "SplitterFactory",
  "sourceName": "src/factories.sol",
  "abi": [
    {
      "inputs": [
        {
          "internalType": "contract tVault",
          "name": "newvault",
          "type": "address"
        },
        {
          "internalType": "uint256",
          "name": "vaultId",
          "type": "uint256"
        },
        {
          "internalType": "address",
          "name": "tMasterAd",
          "type": "address"
        }
      ],
      "name": "newSplitter",
      "outputs": [
        {
          "internalType": "address",
          "name": "",
          "type": "address"
        }
      ],
      "stateMutability": "nonpayable",
      "type": "function"
    }
  ],
  "bytecode": "0x608060405234801561001057600080fd5b50613d25806100206000396000f3fe608060405234801561001057600080fd5b506004361061002b5760003560e01c806348f8906814610030575b600080fd5b61004361003e3660046100dc565b61005f565b6040516001600160a01b03909116815260200160405180910390f35b600080848484604051610071906100b7565b6001600160a01b03938416815260208101929092529091166040820152606001604051809103906000f0801580156100ad573d6000803e3d6000fd5b5095945050505050565b613bd18061011f83390190565b6001600160a01b03811681146100d957600080fd5b50565b6000806000606084860312156100f157600080fd5b83356100fc816100c4565b9250602084013591506040840135610113816100c4565b80915050925092509256fe60c06040523480156200001157600080fd5b5060405162003bd138038062003bd183398101604081905262000034916200024d565b600080546001600160a01b0319166001600160a01b0385169081179091556040805163718fdfd160e11b8152905163e31fbfa2916004808201926020929091908290030181865afa1580156200008e573d6000803e3d6000fd5b505050506040513d601f19601f82011682018060405250810190620000b4919062000295565b60035560005460408051631a7e976560e11b815290516001600160a01b03909216916334fd2eca916004808201926020929091908290030181865afa15801562000102573d6000803e3d6000fd5b505050506040513d601f19601f8201168201806040525081019062000128919062000295565b600490815560005460408051636bfef7e560e11b815290516001600160a01b039092169263d7fdefca9282820192602092908290030181865afa15801562000174573d6000803e3d6000fd5b505050506040513d601f19601f820116820180604052508101906200019a919062000295565b60075560808290526001600160a01b0381811660a081905260005460405163095ea7b360e01b8152600481019290925260001960248301529091169063095ea7b3906044016020604051808303816000875af1158015620001ff573d6000803e3d6000fd5b505050506040513d601f19601f82011682018060405250810190620002259190620002af565b50504260065550620002da9050565b6001600160a01b03811681146200024a57600080fd5b50565b6000806000606084860312156200026357600080fd5b8351620002708162000234565b6020850151604086015191945092506200028a8162000234565b809150509250925092565b600060208284031215620002a857600080fd5b5051919050565b600060208284031215620002c257600080fd5b81518015158114620002d357600080fd5b9392505050565b60805160a0516138b862000319600039600081816102e501528181610b1e01528181610bbb01528181610f2901526117120152600050506138b86000f3fe60806040523480156200001157600080fd5b5060043610620001925760003560e01c80638a20611711620000f0578063d857344611620000a3578063e4ea238e116200007a578063e4ea238e1462000363578063e9c52e58146200036d578063eab77ac91462000394578063f15086e514620003a857600080fd5b8063d8573446146200032b578063dbceb0051462000335578063e4e4a2a3146200034c57600080fd5b80638a20611714620002c65780639a45858314620002d0578063a5a98b0614620002df578063b9d1f9721462000307578063c70acd8a1462000311578063d3b5dc3b146200031b57600080fd5b8063559ed3391162000149578063559ed33914620002315780636cd00d5c146200023b5780636f307dc3146200024557806371baa1af146200027257806381e9b593146200028957806386a17ff514620002af57600080fd5b8063026034f3146200019757806324a47aeb14620001b357806327b24c6914620001ca5780633514bb8914620001e157806351453f9d14620001fa5780635235c8bb1462000204575b600080fd5b620001a0600a81565b6040519081526020015b60405180910390f35b620001a0620001c436600462001d8d565b620003bc565b620001a0620001db36600462001d8d565b6200063b565b620001f8620001f236600462001db6565b6200066b565b005b620001a060055481565b6200021b6200021536600462001d8d565b62000788565b60408051928352602083019190915201620001aa565b620001f86200092f565b620001a060045481565b60005462000259906001600160a01b031681565b6040516001600160a01b039091168152602001620001aa565b620001f86200028336600462001de5565b62000c31565b6200029362000e6d565b60408051938452602084019290925290820152606001620001aa565b620001f8620002c036600462001e35565b62000f1e565b620001a060065481565b600954600a54600b5462000293565b620002597f000000000000000000000000000000000000000000000000000000000000000081565b620001f862001022565b620001a060035481565b620001a0670de0b6b3a764000081565b620002936200104b565b6200021b6200034636600462001d8d565b620014c6565b620001f86200035d36600462001e78565b62001707565b620001a0600c5481565b600254600154604080516001600160a01b03938416815292909116602083015201620001aa565b60025462000259906001600160a01b031681565b60015462000259906001600160a01b031681565b60035460009081620003e584620003de848181670de0b6b3a764000062001ec6565b90620018ed565b6001546040516370a0823160e01b815233600482015291925082916001600160a01b03909116906370a0823190602401602060405180830381865afa15801562000433573d6000803e3d6000fd5b505050506040513d601f19601f8201168201806040525081019062000459919062001ee0565b1015620004ad5760405162461bcd60e51b815260206004820152601860248201527f4e6f7420656e6f7567682073656e696f7220746f6b656e73000000000000000060448201526064015b60405180910390fd5b620004b9818562001efa565b600c6000828254620004cc919062001ec6565b9091555050600254604051632770a7eb60e21b81526001600160a01b0390911690639dc29fac9062000505903390889060040162001f15565b600060405180830381600087803b1580156200052057600080fd5b505af115801562000535573d6000803e3d6000fd5b5050600154604051632770a7eb60e21b81526001600160a01b039091169250639dc29fac91506200056d903390859060040162001f15565b600060405180830381600087803b1580156200058857600080fd5b505af11580156200059d573d6000803e3d6000fd5b50506000546001600160a01b0316915063a9059cbb905033620005c1848862001efa565b6040518363ffffffff1660e01b8152600401620005e092919062001f15565b6020604051808303816000875af115801562000600573d6000803e3d6000fd5b505050506040513d601f19601f8201168201806040525081019062000626919062001f2e565b5062000633818562001efa565b949350505050565b60045460009062000665906200065b9084670de0b6b3a76400006200190b565b60075490620018ed565b92915050565b600260009054906101000a90046001600160a01b03166001600160a01b031663b613cb8c6040518163ffffffff1660e01b81526004016020604051808303816000875af1158015620006c1573d6000803e3d6000fd5b505050506040513d601f19601f82011682018060405250810190620006e7919062001ee0565b50600160009054906101000a90046001600160a01b03166001600160a01b031663b613cb8c6040518163ffffffff1660e01b81526004016020604051808303816000875af11580156200073e573d6000803e3d6000fd5b505050506040513d601f19601f8201168201806040525081019062000764919062001ee0565b600f55620007738282620019d7565b600f546000908152600e602052604090205550565b6000806200091a62000815600260009054906101000a90046001600160a01b03166001600160a01b03166318160ddd6040518163ffffffff1660e01b8152600401602060405180830381865afa158015620007e7573d6000803e3d6000fd5b505050506040513d601f19601f820116820180604052508101906200080d919062001ee0565b8590620018ed565b600160009054906101000a90046001600160a01b03166001600160a01b03166318160ddd6040518163ffffffff1660e01b8152600401602060405180830381865afa15801562000869573d6000803e3d6000fd5b505050506040513d601f19601f820116820180604052508101906200088f919062001ee0565b6200089b919062001efa565b60008054906101000a90046001600160a01b03166001600160a01b03166301e1d1146040518163ffffffff1660e01b8152600401602060405180830381865afa158015620008ed573d6000803e3d6000fd5b505050506040513d601f19601f8201168201806040525081019062000913919062001ee0565b9062001d4d565b9150620009288284620018ed565b9050915091565b60008054604080516395d89b4160e01b815290516001600160a01b039092169283926395d89b419260048082019392918290030181865afa15801562000979573d6000803e3d6000fd5b505050506040513d6000823e601f3d908101601f19168201604052620009a3919081019062001f93565b604051602001620009b591906200204c565b60405160208183030381529060405230604051620009d39062001d7f565b620009e193929190620020a7565b604051809103906000f080158015620009fe573d6000803e3d6000fd5b50600180546001600160a01b0319166001600160a01b0392831617905560008054604080516395d89b4160e01b81529051919093169283926395d89b41926004808401938290030181865afa15801562000a5c573d6000803e3d6000fd5b505050506040513d6000823e601f3d908101601f1916820160405262000a86919081019062001f93565b60405160200162000a989190620020fb565b6040516020818303038152906040523060405162000ab69062001d7f565b62000ac4939291906200211b565b604051809103906000f08015801562000ae1573d6000803e3d6000fd5b50600280546001600160a01b0319166001600160a01b0392831617905560015460405163095ea7b360e01b815291169063095ea7b39062000b4b907f0000000000000000000000000000000000000000000000000000000000000000906000199060040162001f15565b6020604051808303816000875af115801562000b6b573d6000803e3d6000fd5b505050506040513d601f19601f8201168201806040525081019062000b91919062001f2e565b5060025460405163095ea7b360e01b81526001600160a01b039091169063095ea7b39062000be8907f0000000000000000000000000000000000000000000000000000000000000000906000199060040162001f15565b6020604051808303816000875af115801562000c08573d6000803e3d6000fd5b505050506040513d601f19601f8201168201806040525081019062000c2e919062001f2e565b50565b6000828152600d6020908152604080832033845290915290205460ff161562000c8c5760405162461bcd60e51b815260206004820152600c60248201526b446f75626c6520436c61696d60a01b6044820152606401620004a4565b6000828152600d602090815260408083203384529091528120805460ff191660011790558162000cc8576001546001600160a01b031662000cd5565b6002546001600160a01b03165b90506000816001600160a01b0316634ee2cd7e33866040518363ffffffff1660e01b815260040162000d0992919062001f15565b602060405180830381865afa15801562000d27573d6000803e3d6000fd5b505050506040513d601f19601f8201168201806040525081019062000d4d919062001ee0565b604051630981b24d60e41b8152600481018690529091506000906001600160a01b0384169063981b24d090602401602060405180830381865afa15801562000d99573d6000803e3d6000fd5b505050506040513d601f19601f8201168201806040525081019062000dbf919062001ee0565b6000868152600e60205260408120549192509062000deb9062000de3908462001d4d565b8490620018ed565b60405163a9059cbb60e01b81529091506001600160a01b0385169063a9059cbb9062000e1e903390859060040162001f15565b6020604051808303816000875af115801562000e3e573d6000803e3d6000fd5b505050506040513d601f19601f8201168201806040525081019062000e64919062001f2e565b50505050505050565b60008060006006544262000e82919062001ec6565b6005600082825462000e95919062001efa565b909155505042600655600080546040805163318b5e1b60e01b815290516001600160a01b039092169263318b5e1b9260048084019382900301818387803b15801562000ee057600080fd5b505af115801562000ef5573d6000803e3d6000fd5b5050505062000f036200104b565b600b819055600a829055600983905591959094509092509050565b336001600160a01b037f0000000000000000000000000000000000000000000000000000000000000000161462000f835760405162461bcd60e51b815260206004820152600860248201526732b73a393ca2a92960c11b6044820152606401620004a4565b821562000fee57600154604051632770a7eb60e21b81526001600160a01b0390911690639dc29fac9062000fbe908590859060040162001f15565b600060405180830381600087803b15801562000fd957600080fd5b505af115801562000e64573d6000803e3d6000fd5b600254604051632770a7eb60e21b81526001600160a01b0390911690639dc29fac9062000fbe908590859060040162001f15565b60085460ff166200103557600162001038565b60005b6008805460ff1916911515919091179055565b600080600080620010786200065b600554670de0b6b3a76400006004546200190b9092919063ffffffff16565b6008549091506000908190819060ff166200133057600160009054906101000a90046001600160a01b03166001600160a01b03166318160ddd6040518163ffffffff1660e01b8152600401602060405180830381865afa158015620010e1573d6000803e3d6000fd5b505050506040513d601f19601f8201168201806040525081019062001107919062001ee0565b9150600260009054906101000a90046001600160a01b03166001600160a01b03166318160ddd6040518163ffffffff1660e01b8152600401602060405180830381865afa1580156200115d573d6000803e3d6000fd5b505050506040513d601f19601f8201168201806040525081019062001183919062001ee0565b905060008060009054906101000a90046001600160a01b03166001600160a01b03166318160ddd6040518163ffffffff1660e01b8152600401602060405180830381865afa158015620011da573d6000803e3d6000fd5b505050506040513d601f19601f8201168201806040525081019062001200919062001ee0565b9050801562001324576200131e62001219838562001efa565b60008054906101000a90046001600160a01b03166001600160a01b03166318160ddd6040518163ffffffff1660e01b8152600401602060405180830381865afa1580156200126b573d6000803e3d6000fd5b505050506040513d601f19601f8201168201806040525081019062001291919062001ee0565b6200129e90600162001efa565b60008054906101000a90046001600160a01b03166001600160a01b03166301e1d1146040518163ffffffff1660e01b8152600401602060405180830381865afa158015620012f0573d6000803e3d6000fd5b505050506040513d601f19601f8201168201806040525081019062001316919062001ee0565b919062001d5f565b62001327565b60005b9350506200143f565b60008054604051634796c54760e01b8152600a600482015282916001600160a01b031690634796c54790602401606060405180830381865afa1580156200137b573d6000803e3d6000fd5b505050506040513d601f19601f82011682018060405250810190620013a191906200215c565b50915091506200142a60008054906101000a90046001600160a01b03166001600160a01b031663c70acd8a6040518163ffffffff1660e01b8152600401602060405180830381865afa158015620013fc573d6000803e3d6000fd5b505050506040513d601f19601f8201168201806040525081019062001422919062001ee0565b8390620018ed565b925062001438838362001ec6565b9094509250505b600082620014595750600097889750879650945050505050565b620014658584620018ed565b8410620014755784975062001488565b62001481848462001d4d565b9750600190505b80620014ae57620014ab826200149f8786620018ed565b62000913908762001ec6565b96505b620014ba878962001d4d565b95505050505050909192565b600080546040516370a0823160e01b8152336004820152829184916001600160a01b03909116906370a0823190602401602060405180830381865afa15801562001514573d6000803e3d6000fd5b505050506040513d601f19601f820116820180604052508101906200153a919062001ee0565b1015620015705760405162461bcd60e51b815260206004820152600360248201526218985b60ea1b6044820152606401620004a4565b6000546040516323b872dd60e01b8152336004820152306024820152604481018590526001600160a01b03909116906323b872dd906064016020604051808303816000875af1158015620015c8573d6000803e3d6000fd5b505050506040513d601f19601f82011682018060405250810190620015ee919062001f2e565b5082600c600082825462001603919062001efa565b90915550506003546000906200161b908590620018ed565b905060006200162b828662001ec6565b6002546040516340c10f1960e01b81529192506001600160a01b0316906340c10f199062001660903390869060040162001f15565b600060405180830381600087803b1580156200167b57600080fd5b505af115801562001690573d6000803e3d6000fd5b50506001546040516340c10f1960e01b81526001600160a01b0390911692506340c10f199150620016c8903390859060040162001f15565b600060405180830381600087803b158015620016e357600080fd5b505af1158015620016f8573d6000803e3d6000fd5b50939792965091945050505050565b336001600160a01b037f000000000000000000000000000000000000000000000000000000000000000016146200176e5760405162461bcd60e51b815260206004820152600a6024820152693737ba1036b0b9ba32b960b11b6044820152606401620004a4565b6200177a828462001efa565b600c60008282546200178d919062001ec6565b9091555050600254604051632770a7eb60e21b81526001600160a01b0390911690639dc29fac90620017c6908490879060040162001f15565b600060405180830381600087803b158015620017e157600080fd5b505af1158015620017f6573d6000803e3d6000fd5b5050600154604051632770a7eb60e21b81526001600160a01b039091169250639dc29fac91506200182e908490869060040162001f15565b600060405180830381600087803b1580156200184957600080fd5b505af11580156200185e573d6000803e3d6000fd5b50506000546001600160a01b0316915063a9059cbb90508262001882858762001efa565b6040518363ffffffff1660e01b8152600401620018a192919062001f15565b6020604051808303816000875af1158015620018c1573d6000803e3d6000fd5b505050506040513d601f19601f82011682018060405250810190620018e7919062001f2e565b50505050565b6000620019048383670de0b6b3a764000062001d5f565b9392505050565b6000838015620019b75760018416801562001929578592506200192d565b8392505b508260011c8460011c94505b8415620019b0578560801c156200194f57600080fd5b858602818101818110156200196357600080fd5b8590049650506001851615620019a45785830283878204146200198c5786156200198c57600080fd5b818101818110156200199d57600080fd5b8590049350505b8460011c945062001939565b50620019cf565b838015620019c95760009250620019cd565b8392505b505b509392505050565b811562001b5f576001546040516340c10f1960e01b81526001600160a01b03909116906340c10f199062001a12903090859060040162001f15565b600060405180830381600087803b15801562001a2d57600080fd5b505af115801562001a42573d6000803e3d6000fd5b505050506000600260009054906101000a90046001600160a01b03166001600160a01b03166318160ddd6040518163ffffffff1660e01b8152600401602060405180830381865afa15801562001a9c573d6000803e3d6000fd5b505050506040513d601f19601f8201168201806040525081019062001ac2919062001ee0565b905062001b5781600160009054906101000a90046001600160a01b03166001600160a01b03166318160ddd6040518163ffffffff1660e01b8152600401602060405180830381865afa15801562001b1d573d6000803e3d6000fd5b505050506040513d601f19601f8201168201806040525081019062001b43919062001ee0565b62001b4f919062001efa565b829062001d4d565b600355505050565b6002546040516340c10f1960e01b81526001600160a01b03909116906340c10f199062001b93903090859060040162001f15565b600060405180830381600087803b15801562001bae57600080fd5b505af115801562001bc3573d6000803e3d6000fd5b50505050600062001bd36200104b565b509150506000600260009054906101000a90046001600160a01b03166001600160a01b03166318160ddd6040518163ffffffff1660e01b8152600401602060405180830381865afa15801562001c2d573d6000803e3d6000fd5b505050506040513d601f19601f8201168201806040525081019062001c53919062001ee0565b905062001c6682620003de858462001efa565b60008054906101000a90046001600160a01b03166001600160a01b03166301e1d1146040518163ffffffff1660e01b8152600401602060405180830381865afa15801562001cb8573d6000803e3d6000fd5b505050506040513d601f19601f8201168201806040525081019062001cde919062001ee0565b62001cea919062001ec6565b6007556000600555600154604080516318160ddd60e01b8152905162001d449284926001600160a01b03909116916318160ddd916004808201926020929091908290030181865afa15801562001b1d573d6000803e3d6000fd5b60035550505050565b60006200190483670de0b6b3a7640000845b82820281151584158583048514171662001d7857600080fd5b0492915050565b6116f7806200218c83390190565b60006020828403121562001da057600080fd5b5035919050565b801515811462000c2e57600080fd5b6000806040838503121562001dca57600080fd5b823562001dd78162001da7565b946020939093013593505050565b6000806040838503121562001df957600080fd5b82359150602083013562001e0d8162001da7565b809150509250929050565b80356001600160a01b038116811462001e3057600080fd5b919050565b60008060006060848603121562001e4b57600080fd5b833562001e588162001da7565b925062001e686020850162001e18565b9150604084013590509250925092565b60008060006060848603121562001e8e57600080fd5b833592506020840135915062001ea76040850162001e18565b90509250925092565b634e487b7160e01b600052601160045260246000fd5b60008282101562001edb5762001edb62001eb0565b500390565b60006020828403121562001ef357600080fd5b5051919050565b6000821982111562001f105762001f1062001eb0565b500190565b6001600160a01b03929092168252602082015260400190565b60006020828403121562001f4157600080fd5b8151620019048162001da7565b634e487b7160e01b600052604160045260246000fd5b60005b8381101562001f8157818101518382015260200162001f67565b83811115620018e75750506000910152565b60006020828403121562001fa657600080fd5b815167ffffffffffffffff8082111562001fbf57600080fd5b818401915084601f83011262001fd457600080fd5b81518181111562001fe95762001fe962001f4e565b604051601f8201601f19908116603f0116810190838211818310171562002014576200201462001f4e565b816040528281528760208487010111156200202e57600080fd5b6200204183602083016020880162001f64565b979650505050505050565b6273655f60e81b8152600082516200206c81600385016020870162001f64565b9190910160030192915050565b600081518084526200209381602086016020860162001f64565b601f01601f19169290920160200192915050565b600060018060a01b03808616835260806020840152600660808401526539b2b734b7b960d11b60a084015260c06040840152620020e860c084018662002079565b9150808416606084015250949350505050565b626a755f60e81b8152600082516200206c81600385016020870162001f64565b600060018060a01b038086168352608060208401526006608084015265353ab734b7b960d11b60a084015260c06040840152620020e860c084018662002079565b6000806000606084860312156200217257600080fd5b835192506020840151915060408401519050925092509256fe60e06040523480156200001157600080fd5b50604051620016f7380380620016f7833981016040819052620000349162000343565b8282856001600160a01b031663313ce5676040518163ffffffff1660e01b8152600401602060405180830381865afa15801562000075573d6000803e3d6000fd5b505050506040513d601f19601f820116820180604052508101906200009b9190620003d7565b8251620000b0906000906020860190620001b7565b508151620000c6906001906020850190620001b7565b5060ff81166080524660a052620000dc6200011b565b60c0525050600780546001600160a01b039687166001600160a01b031991821617909155600680549390961692169190911790935550620004e4915050565b60007f8b73c3c69bb8fe3d512ecc4cf759cc79239f7b179b0ffacaa9a75d522b39400f60006040516200014f919062000440565b6040805191829003822060208301939093528101919091527fc89efdaa54c0f20c7adf612882df0950f5a951637e0307cdcb4c672f298b8bc660608201524660808201523060a082015260c00160405160208183030381529060405280519060200120905090565b828054620001c59062000403565b90600052602060002090601f016020900481019282620001e9576000855562000234565b82601f106200020457805160ff191683800117855562000234565b8280016001018555821562000234579182015b828111156200023457825182559160200191906001019062000217565b506200024292915062000246565b5090565b5b8082111562000242576000815560010162000247565b6001600160a01b03811681146200027357600080fd5b50565b634e487b7160e01b600052604160045260246000fd5b600082601f8301126200029e57600080fd5b81516001600160401b0380821115620002bb57620002bb62000276565b604051601f8301601f19908116603f01168101908282118183101715620002e657620002e662000276565b816040528381526020925086838588010111156200030357600080fd5b600091505b8382101562000327578582018301518183018401529082019062000308565b83821115620003395760008385830101525b9695505050505050565b600080600080608085870312156200035a57600080fd5b845162000367816200025d565b60208601519094506001600160401b03808211156200038557600080fd5b62000393888389016200028c565b94506040870151915080821115620003aa57600080fd5b50620003b9878288016200028c565b9250506060850151620003cc816200025d565b939692955090935050565b600060208284031215620003ea57600080fd5b815160ff81168114620003fc57600080fd5b9392505050565b600181811c908216806200041857607f821691505b602082108114156200043a57634e487b7160e01b600052602260045260246000fd5b50919050565b600080835481600182811c9150808316806200045d57607f831692505b60208084108214156200047e57634e487b7160e01b86526022600452602486fd5b818015620004955760018114620004a757620004d6565b60ff19861689528489019650620004d6565b60008a81526020902060005b86811015620004ce5781548b820152908501908301620004b3565b505084890196505b509498975050505050505050565b60805160a05160c0516111e36200051460003960006104dd015260006104a80152600061018b01526111e36000f3fe608060405234801561001057600080fd5b50600436106101165760003560e01c806370a08231116100a25780639dc29fac116100715780639dc29fac1461025d578063a9059cbb14610270578063b613cb8c14610283578063d505accf1461028b578063dd62ed3e1461029e57600080fd5b806370a08231146102025780637ecebe001461022257806395d89b4114610242578063981b24d01461024a57600080fd5b8063313ce567116100e9578063313ce567146101865780633644e515146101bf5780633b9d401e146101c757806340c10f19146101da5780634ee2cd7e146101ef57600080fd5b806306fdde031461011b578063095ea7b31461013957806318160ddd1461015c57806323b872dd14610173575b600080fd5b6101236102c9565b6040516101309190610d42565b60405180910390f35b61014c610147366004610daf565b610357565b6040519015158152602001610130565b61016560025481565b604051908152602001610130565b61014c610181366004610ddb565b6103c4565b6101ad7f000000000000000000000000000000000000000000000000000000000000000081565b60405160ff9091168152602001610130565b6101656104a4565b61014c6101d5366004610e1c565b6104ff565b6101ed6101e8366004610daf565b6105fe565b005b6101656101fd366004610daf565b610636565b610165610210366004610ebb565b60036020526000908152604090205481565b610165610230366004610ebb565b60056020526000908152604090205481565b61012361068c565b610165610258366004610ed8565b610699565b6101ed61026b366004610daf565b6106c1565b61014c61027e366004610daf565b6106f5565b61016561075b565b6101ed610299366004610ef1565b6107e0565b6101656102ac366004610f68565b600460209081526000928352604080842090915290825290205481565b600080546102d690610fa1565b80601f016020809104026020016040519081016040528092919081815260200182805461030290610fa1565b801561034f5780601f106103245761010080835404028352916020019161034f565b820191906000526020600020905b81548152906001019060200180831161033257829003601f168201915b505050505081565b3360008181526004602090815260408083206001600160a01b038716808552925280832085905551919290917f8c5be1e5ebec7d5bd14f71427d1e84f3dd0314c0f7b2291e5b200ac8c7c3b925906103b29086815260200190565b60405180910390a35060015b92915050565b6001600160a01b03831660009081526004602090815260408083203384529091528120546000198114610420576103fb8382610ff2565b6001600160a01b03861660009081526004602090815260408083203384529091529020555b6001600160a01b03851660009081526003602052604081208054859290610448908490610ff2565b90915550506001600160a01b038085166000818152600360205260409081902080548701905551909187169060008051602061118e833981519152906104919087815260200190565b60405180910390a3506001949350505050565b60007f000000000000000000000000000000000000000000000000000000000000000046146104da576104d5610a24565b905090565b507f000000000000000000000000000000000000000000000000000000000000000090565b600061050b8685610abe565b6040516323e30c8b60e01b81527f439148f0bbc682ca079e46d6e2c2f0c1e3b820f1a291b069d8882abf8cf18dd9906001600160a01b038816906323e30c8b9061056490339030908a906000908b908b90600401611009565b6020604051808303816000875af1158015610583573d6000803e3d6000fd5b505050506040513d601f19601f820116820180604052508101906105a79190611065565b146105eb5760405162461bcd60e51b815260206004820152600f60248201526e18d85b1b189858dac819985a5b1959608a1b60448201526064015b60405180910390fd5b6105f58685610b18565b95945050505050565b6006546001600160a01b031633146106285760405162461bcd60e51b81526004016105e29061107e565b6106328282610abe565b5050565b6001600160a01b03821660009081526008602052604081208190819061065d908590610b7a565b9150915081610684576001600160a01b0385166000908152600360205260409020546105f5565b949350505050565b600180546102d690610fa1565b60008060006106a9846009610b7a565b91509150816106ba57600254610684565b9392505050565b6006546001600160a01b031633146106eb5760405162461bcd60e51b81526004016105e29061107e565b6106328282610b18565b33600090815260036020526040812080548391908390610716908490610ff2565b90915550506001600160a01b0383166000818152600360205260409081902080548501905551339060008051602061118e833981519152906103b29086815260200190565b6006546000906001600160a01b031633146107885760405162461bcd60e51b81526004016105e29061107e565b610796600b80546001019055565b60006107a0610c71565b90507f8030e83b04d87bef53480e26263266d6ca66863aa8506aca6f2559d18aa1cb67816040516107d391815260200190565b60405180910390a1905090565b428410156108305760405162461bcd60e51b815260206004820152601760248201527f5045524d49545f444541444c494e455f4558504952454400000000000000000060448201526064016105e2565b6000600161083c6104a4565b6001600160a01b038a811660008181526005602090815260409182902080546001810190915582517f6e71edae12b1b97f4d1f60370fef10105fa2faae0126114a169c64845d6126c98184015280840194909452938d166060840152608083018c905260a083019390935260c08083018b90528151808403909101815260e08301909152805192019190912061190160f01b6101008301526101028201929092526101228101919091526101420160408051601f198184030181528282528051602091820120600084529083018083525260ff871690820152606081018590526080810184905260a0016020604051602081039080840390855afa158015610948573d6000803e3d6000fd5b5050604051601f1901519150506001600160a01b0381161580159061097e5750876001600160a01b0316816001600160a01b0316145b6109bb5760405162461bcd60e51b815260206004820152600e60248201526d24a72b20a624a22fa9a4a3a722a960911b60448201526064016105e2565b6001600160a01b0390811660009081526004602090815260408083208a8516808552908352928190208990555188815291928a16917f8c5be1e5ebec7d5bd14f71427d1e84f3dd0314c0f7b2291e5b200ac8c7c3b925910160405180910390a350505050505050565b60007f8b73c3c69bb8fe3d512ecc4cf759cc79239f7b179b0ffacaa9a75d522b39400f6000604051610a5691906110a1565b6040805191829003822060208301939093528101919091527fc89efdaa54c0f20c7adf612882df0950f5a951637e0307cdcb4c672f298b8bc660608201524660808201523060a082015260c00160405160208183030381529060405280519060200120905090565b8060026000828254610ad0919061113d565b90915550506001600160a01b03821660008181526003602090815260408083208054860190555184815260008051602061118e83398151915291015b60405180910390a35050565b6001600160a01b03821660009081526003602052604081208054839290610b40908490610ff2565b90915550506002805482900390556040518181526000906001600160a01b0384169060008051602061118e83398151915290602001610b0c565b60008060008411610bc65760405162461bcd60e51b815260206004820152601660248201527504552433230536e617073686f743a20696420697320360541b60448201526064016105e2565b610bce610c71565b841115610c1d5760405162461bcd60e51b815260206004820152601d60248201527f4552433230536e617073686f743a206e6f6e6578697374656e7420696400000060448201526064016105e2565b6000610c298486610c7c565b8454909150811415610c42576000809250925050610c6a565b6001846001018281548110610c5957610c59611155565b906000526020600020015492509250505b9250929050565b60006104d5600b5490565b8154600090610c8d575060006103be565b82546000905b80821015610cda576000610ca78383610d27565b60008781526020902090915085908201541115610cc657809150610cd4565b610cd181600161113d565b92505b50610c93565b600082118015610d06575083610d0386610cf5600186610ff2565b600091825260209091200190565b54145b15610d1f57610d16600183610ff2565b925050506103be565b5090506103be565b6000610d36600284841861116b565b6106ba9084841661113d565b600060208083528351808285015260005b81811015610d6f57858101830151858201604001528201610d53565b81811115610d81576000604083870101525b50601f01601f1916929092016040019392505050565b6001600160a01b0381168114610dac57600080fd5b50565b60008060408385031215610dc257600080fd5b8235610dcd81610d97565b946020939093013593505050565b600080600060608486031215610df057600080fd5b8335610dfb81610d97565b92506020840135610e0b81610d97565b929592945050506040919091013590565b600080600080600060808688031215610e3457600080fd5b8535610e3f81610d97565b94506020860135610e4f81610d97565b935060408601359250606086013567ffffffffffffffff80821115610e7357600080fd5b818801915088601f830112610e8757600080fd5b813581811115610e9657600080fd5b896020828501011115610ea857600080fd5b9699959850939650602001949392505050565b600060208284031215610ecd57600080fd5b81356106ba81610d97565b600060208284031215610eea57600080fd5b5035919050565b600080600080600080600060e0888a031215610f0c57600080fd5b8735610f1781610d97565b96506020880135610f2781610d97565b95506040880135945060608801359350608088013560ff81168114610f4b57600080fd5b9699959850939692959460a0840135945060c09093013592915050565b60008060408385031215610f7b57600080fd5b8235610f8681610d97565b91506020830135610f9681610d97565b809150509250929050565b600181811c90821680610fb557607f821691505b60208210811415610fd657634e487b7160e01b600052602260045260246000fd5b50919050565b634e487b7160e01b600052601160045260246000fd5b60008282101561100457611004610fdc565b500390565b6001600160a01b03878116825286166020820152604081018590526060810184905260a06080820181905281018290526000828460c0840137600060c0848401015260c0601f19601f8501168301019050979650505050505050565b60006020828403121561107757600080fd5b5051919050565b60208082526009908201526810a9b83634ba3a32b960b91b604082015260600190565b600080835481600182811c9150808316806110bd57607f831692505b60208084108214156110dd57634e487b7160e01b86526022600452602486fd5b8180156110f157600181146111025761112f565b60ff1986168952848901965061112f565b60008a81526020902060005b868110156111275781548b82015290850190830161110e565b505084890196505b509498975050505050505050565b6000821982111561115057611150610fdc565b500190565b634e487b7160e01b600052603260045260246000fd5b60008261118857634e487b7160e01b600052601260045260246000fd5b50049056feddf252ad1be2c89b69c2b068fc378daa952ba7f163c4a11628f55a4df523b3efa264697066735822122073d1710536a925a8d541323b670b2c4e8aa1d0d10bc74d570f2e53feab0fd5b664736f6c634300080a0033a26469706673582212203071b1a5dac3ead7bdd911669030508feccccf8a1fbf663f2198cdd4f1b9ca6564736f6c634300080a0033a264697066735822122091e2cf7addc5adf64ca1d1ef46c9e5915f87afc42569be6bdc8a151b4ed1b87864736f6c634300080a0033",
  "linkReferences": {},
  "deployedLinkReferences": {}
}