{
  "_format": "hh-sol-artifact-1",
  "contractName": "TrancheFactory",
  "sourceName": "src/factories.sol",
  "abi": [
    {
      "inputs": [
        {
          "internalType": "address",
          "name": "_owner",
          "type": "address"
        },
        {
          "internalType": "address",
          "name": "ammFactory_address",
          "type": "address"
        },
        {
          "internalType": "address",
          "name": "splitterFactory_address",
          "type": "address"
        },
        {
          "internalType": "address",
          "name": "lendingPoolFactory_address",
          "type": "address"
        },
        {
          "internalType": "address",
          "name": "lendTokenFactory_address",
          "type": "address"
        }
      ],
      "stateMutability": "nonpayable",
      "type": "constructor"
    },
    {
      "inputs": [
        {
          "internalType": "uint256",
          "name": "vaultId",
          "type": "uint256"
        }
      ],
      "name": "createLendingPools",
      "outputs": [],
      "stateMutability": "nonpayable",
      "type": "function"
    },
    {
      "inputs": [
        {
          "internalType": "address",
          "name": "_want",
          "type": "address"
        },
        {
          "internalType": "address[]",
          "name": "_instruments",
          "type": "address[]"
        },
        {
          "internalType": "uint256[]",
          "name": "_ratios",
          "type": "uint256[]"
        },
        {
          "internalType": "uint256",
          "name": "_junior_weight",
          "type": "uint256"
        },
        {
          "internalType": "uint256",
          "name": "_promisedReturn",
          "type": "uint256"
        },
        {
          "internalType": "uint256",
          "name": "_time_to_maturity",
          "type": "uint256"
        },
        {
          "internalType": "uint256",
          "name": "vaultId",
          "type": "uint256"
        },
        {
          "internalType": "uint256",
          "name": "inceptionPrice",
          "type": "uint256"
        }
      ],
      "name": "createParams",
      "outputs": [
        {
          "components": [
            {
              "internalType": "address",
              "name": "_want",
              "type": "address"
            },
            {
              "internalType": "address[]",
              "name": "_instruments",
              "type": "address[]"
            },
            {
              "internalType": "uint256[]",
              "name": "_ratios",
              "type": "uint256[]"
            },
            {
              "internalType": "uint256",
              "name": "_junior_weight",
              "type": "uint256"
            },
            {
              "internalType": "uint256",
              "name": "_promisedReturn",
              "type": "uint256"
            },
            {
              "internalType": "uint256",
              "name": "_time_to_maturity",
              "type": "uint256"
            },
            {
              "internalType": "uint256",
              "name": "vaultId",
              "type": "uint256"
            },
            {
              "internalType": "uint256",
              "name": "inceptionPrice",
              "type": "uint256"
            }
          ],
          "internalType": "struct TrancheFactory.InitParams",
          "name": "",
          "type": "tuple"
        }
      ],
      "stateMutability": "nonpayable",
      "type": "function"
    },
    {
      "inputs": [
        {
          "internalType": "uint256",
          "name": "vaultId",
          "type": "uint256"
        }
      ],
      "name": "createSplitterAndPool",
      "outputs": [],
      "stateMutability": "nonpayable",
      "type": "function"
    },
    {
      "inputs": [
        {
          "components": [
            {
              "internalType": "address",
              "name": "_want",
              "type": "address"
            },
            {
              "internalType": "address[]",
              "name": "_instruments",
              "type": "address[]"
            },
            {
              "internalType": "uint256[]",
              "name": "_ratios",
              "type": "uint256[]"
            },
            {
              "internalType": "uint256",
              "name": "_junior_weight",
              "type": "uint256"
            },
            {
              "internalType": "uint256",
              "name": "_promisedReturn",
              "type": "uint256"
            },
            {
              "internalType": "uint256",
              "name": "_time_to_maturity",
              "type": "uint256"
            },
            {
              "internalType": "uint256",
              "name": "vaultId",
              "type": "uint256"
            },
            {
              "internalType": "uint256",
              "name": "inceptionPrice",
              "type": "uint256"
            }
          ],
          "internalType": "struct TrancheFactory.InitParams",
          "name": "params",
          "type": "tuple"
        },
        {
          "internalType": "string[]",
          "name": "names",
          "type": "string[]"
        },
        {
          "internalType": "string",
          "name": "_description",
          "type": "string"
        }
      ],
      "name": "createVault",
      "outputs": [
        {
          "internalType": "uint256",
          "name": "",
          "type": "uint256"
        }
      ],
      "stateMutability": "nonpayable",
      "type": "function"
    },
    {
      "inputs": [
        {
          "internalType": "address",
          "name": "to",
          "type": "address"
        },
        {
          "internalType": "uint256",
          "name": "vaultId",
          "type": "uint256"
        },
        {
          "internalType": "uint256",
          "name": "lpshares",
          "type": "uint256"
        }
      ],
      "name": "decreaseLPTokenBalance",
      "outputs": [],
      "stateMutability": "nonpayable",
      "type": "function"
    },
    {
      "inputs": [
        {
          "internalType": "uint256",
          "name": "vaultId",
          "type": "uint256"
        }
      ],
      "name": "getAmm",
      "outputs": [
        {
          "internalType": "contract SpotPool",
          "name": "",
          "type": "address"
        }
      ],
      "stateMutability": "view",
      "type": "function"
    },
    {
      "inputs": [
        {
          "internalType": "uint256",
          "name": "vaultId",
          "type": "uint256"
        }
      ],
      "name": "getCJunior",
      "outputs": [
        {
          "internalType": "contract CErc20",
          "name": "",
          "type": "address"
        }
      ],
      "stateMutability": "view",
      "type": "function"
    },
    {
      "inputs": [
        {
          "internalType": "uint256",
          "name": "vaultId",
          "type": "uint256"
        }
      ],
      "name": "getCSenior",
      "outputs": [
        {
          "internalType": "contract CErc20",
          "name": "",
          "type": "address"
        }
      ],
      "stateMutability": "view",
      "type": "function"
    },
    {
      "inputs": [
        {
          "internalType": "uint256",
          "name": "vaultId",
          "type": "uint256"
        }
      ],
      "name": "getContracts",
      "outputs": [
        {
          "components": [
            {
              "internalType": "address",
              "name": "vault",
              "type": "address"
            },
            {
              "internalType": "address",
              "name": "splitter",
              "type": "address"
            },
            {
              "internalType": "address",
              "name": "amm",
              "type": "address"
            },
            {
              "internalType": "address",
              "name": "lendingPool",
              "type": "address"
            },
            {
              "internalType": "address",
              "name": "cSenior",
              "type": "address"
            },
            {
              "internalType": "address",
              "name": "cJunior",
              "type": "address"
            },
            {
              "components": [
                {
                  "internalType": "address",
                  "name": "_want",
                  "type": "address"
                },
                {
                  "internalType": "address[]",
                  "name": "_instruments",
                  "type": "address[]"
                },
                {
                  "internalType": "uint256[]",
                  "name": "_ratios",
                  "type": "uint256[]"
                },
                {
                  "internalType": "uint256",
                  "name": "_junior_weight",
                  "type": "uint256"
                },
                {
                  "internalType": "uint256",
                  "name": "_promisedReturn",
                  "type": "uint256"
                },
                {
                  "internalType": "uint256",
                  "name": "_time_to_maturity",
                  "type": "uint256"
                },
                {
                  "internalType": "uint256",
                  "name": "vaultId",
                  "type": "uint256"
                },
                {
                  "internalType": "uint256",
                  "name": "inceptionPrice",
                  "type": "uint256"
                }
              ],
              "internalType": "struct TrancheFactory.InitParams",
              "name": "param",
              "type": "tuple"
            }
          ],
          "internalType": "struct TrancheFactory.Contracts",
          "name": "",
          "type": "tuple"
        }
      ],
      "stateMutability": "view",
      "type": "function"
    },
    {
      "inputs": [
        {
          "internalType": "address",
          "name": "to",
          "type": "address"
        },
        {
          "internalType": "uint256",
          "name": "vaultId",
          "type": "uint256"
        }
      ],
      "name": "getLPTokenBalance",
      "outputs": [
        {
          "internalType": "uint256",
          "name": "",
          "type": "uint256"
        }
      ],
      "stateMutability": "view",
      "type": "function"
    },
    {
      "inputs": [
        {
          "internalType": "uint256",
          "name": "vaultId",
          "type": "uint256"
        }
      ],
      "name": "getParams",
      "outputs": [
        {
          "components": [
            {
              "internalType": "address",
              "name": "_want",
              "type": "address"
            },
            {
              "internalType": "address[]",
              "name": "_instruments",
              "type": "address[]"
            },
            {
              "internalType": "uint256[]",
              "name": "_ratios",
              "type": "uint256[]"
            },
            {
              "internalType": "uint256",
              "name": "_junior_weight",
              "type": "uint256"
            },
            {
              "internalType": "uint256",
              "name": "_promisedReturn",
              "type": "uint256"
            },
            {
              "internalType": "uint256",
              "name": "_time_to_maturity",
              "type": "uint256"
            },
            {
              "internalType": "uint256",
              "name": "vaultId",
              "type": "uint256"
            },
            {
              "internalType": "uint256",
              "name": "inceptionPrice",
              "type": "uint256"
            }
          ],
          "internalType": "struct TrancheFactory.InitParams",
          "name": "",
          "type": "tuple"
        }
      ],
      "stateMutability": "view",
      "type": "function"
    },
    {
      "inputs": [
        {
          "internalType": "uint256",
          "name": "vaultId",
          "type": "uint256"
        }
      ],
      "name": "getSplitter",
      "outputs": [
        {
          "internalType": "contract Splitter",
          "name": "",
          "type": "address"
        }
      ],
      "stateMutability": "view",
      "type": "function"
    },
    {
      "inputs": [
        {
          "internalType": "uint256",
          "name": "vaultId",
          "type": "uint256"
        }
      ],
      "name": "getSuperVault",
      "outputs": [
        {
          "internalType": "contract tVault",
          "name": "",
          "type": "address"
        }
      ],
      "stateMutability": "view",
      "type": "function"
    },
    {
      "inputs": [],
      "name": "id",
      "outputs": [
        {
          "internalType": "uint256",
          "name": "",
          "type": "uint256"
        }
      ],
      "stateMutability": "view",
      "type": "function"
    },
    {
      "inputs": [
        {
          "internalType": "address",
          "name": "to",
          "type": "address"
        },
        {
          "internalType": "uint256",
          "name": "vaultId",
          "type": "uint256"
        },
        {
          "internalType": "uint256",
          "name": "lpshares",
          "type": "uint256"
        }
      ],
      "name": "increaseLPTokenBalance",
      "outputs": [],
      "stateMutability": "nonpayable",
      "type": "function"
    },
    {
      "inputs": [],
      "name": "numVaults",
      "outputs": [
        {
          "internalType": "uint256",
          "name": "",
          "type": "uint256"
        }
      ],
      "stateMutability": "view",
      "type": "function"
    },
    {
      "inputs": [
        {
          "internalType": "address",
          "name": "_tMasterAd",
          "type": "address"
        }
      ],
      "name": "setTrancheMaster",
      "outputs": [],
      "stateMutability": "nonpayable",
      "type": "function"
    },
    {
      "inputs": [
        {
          "internalType": "uint256",
          "name": "",
          "type": "uint256"
        }
      ],
      "name": "vaultContracts",
      "outputs": [
        {
          "internalType": "address",
          "name": "vault",
          "type": "address"
        },
        {
          "internalType": "address",
          "name": "splitter",
          "type": "address"
        },
        {
          "internalType": "address",
          "name": "amm",
          "type": "address"
        },
        {
          "internalType": "address",
          "name": "lendingPool",
          "type": "address"
        },
        {
          "internalType": "address",
          "name": "cSenior",
          "type": "address"
        },
        {
          "internalType": "address",
          "name": "cJunior",
          "type": "address"
        },
        {
          "components": [
            {
              "internalType": "address",
              "name": "_want",
              "type": "address"
            },
            {
              "internalType": "address[]",
              "name": "_instruments",
              "type": "address[]"
            },
            {
              "internalType": "uint256[]",
              "name": "_ratios",
              "type": "uint256[]"
            },
            {
              "internalType": "uint256",
              "name": "_junior_weight",
              "type": "uint256"
            },
            {
              "internalType": "uint256",
              "name": "_promisedReturn",
              "type": "uint256"
            },
            {
              "internalType": "uint256",
              "name": "_time_to_maturity",
              "type": "uint256"
            },
            {
              "internalType": "uint256",
              "name": "vaultId",
              "type": "uint256"
            },
            {
              "internalType": "uint256",
              "name": "inceptionPrice",
              "type": "uint256"
            }
          ],
          "internalType": "struct TrancheFactory.InitParams",
          "name": "param",
          "type": "tuple"
        }
      ],
      "stateMutability": "view",
      "type": "function"
    },
    {
      "inputs": [
        {
          "internalType": "uint256",
          "name": "",
          "type": "uint256"
        }
      ],
      "name": "vaultCreated",
      "outputs": [
        {
          "internalType": "bool",
          "name": "",
          "type": "bool"
        }
      ],
      "stateMutability": "view",
      "type": "function"
    },
    {
      "inputs": [
        {
          "internalType": "bytes32",
          "name": "",
          "type": "bytes32"
        }
      ],
      "name": "vaultIds",
      "outputs": [
        {
          "internalType": "uint256",
          "name": "",
          "type": "uint256"
        }
      ],
      "stateMutability": "view",
      "type": "function"
    }
  ],
  "bytecode": "0x60806040523480156200001157600080fd5b506040516200534438038062005344833981016040819052620000349162000124565b600180546001600160a01b03199081166001600160a01b038881169190911790925560068054821687841617905560078054821686841617905560058054821685841617905560048054909116918316919091179055604051670de0b6b3a7640000908190620000a490620000f9565b9182526020820152604001604051809103906000f080158015620000cc573d6000803e3d6000fd5b50600880546001600160a01b0319166001600160a01b039290921691909117905550620001949350505050565b6104178062004f2d83390190565b80516001600160a01b03811681146200011f57600080fd5b919050565b600080600080600060a086880312156200013d57600080fd5b620001488662000107565b9450620001586020870162000107565b9350620001686040870162000107565b9250620001786060870162000107565b9150620001886080870162000107565b90509295509295909350565b614d8980620001a46000396000f3fe60806040523480156200001157600080fd5b5060043610620001455760003560e01c80635f83bcac11620000bb578063a424ad0a116200007a578063a424ad0a14620003b2578063af640d0f14620003d5578063b7d593f114620003df578063e912998914620003f6578063ee01e731146200040d57600080fd5b80635f83bcac14620002c1578063683d03cc14620002ed57806389980366146200031c578063991a126e146200034b5780639cbfaea9146200037a57600080fd5b80634227577d11620001085780634227577d1462000207578063439e23fd146200021e578063482e2f9514620002445780634c47715514620002735780635ad25676146200028a57600080fd5b806308a4f072146200014a578063264a6208146200017957806338178300146200019257806338b3e69214620001a95780633f96f9a714620001c2575b600080fd5b620001616200015b366004620017a6565b62000424565b604051620001709190620018b6565b60405180910390f35b6200018360005481565b60405190815260200162000170565b62000161620001a33660046200194c565b62000551565b620001c0620001ba36600462001a01565b62000614565b005b620001ee620001d3366004620017a6565b6000908152600960205260409020546001600160a01b031690565b6040516001600160a01b03909116815260200162000170565b620001c06200021836600462001a01565b62000652565b620002356200022f366004620017a6565b62000686565b60405162000170919062001a39565b620001ee62000255366004620017a6565b6000908152600960205260409020600501546001600160a01b031690565b620001836200028436600462001c72565b62000861565b620002b06200029b366004620017a6565b600b6020526000908152604090205460ff1681565b604051901515815260200162000170565b620002d8620002d2366004620017a6565b62000afe565b60405162000170979695949392919062001db2565b620001ee620002fe366004620017a6565b6000908152600960205260409020600401546001600160a01b031690565b620001ee6200032d366004620017a6565b6000908152600960205260409020600101546001600160a01b031690565b620001ee6200035c366004620017a6565b6000908152600960205260409020600201546001600160a01b031690565b620001836200038b36600462001e0d565b6000908152600a602090815260408083206001600160a01b03949094168352929052205490565b62000183620003c3366004620017a6565b600c6020526000908152604090205481565b6200018360035481565b620001c0620003f0366004620017a6565b62000c55565b620001c06200040736600462001e3c565b62000f58565b620001c06200041e366004620017a6565b62000f92565b6200042e62001639565b6000828152600960209081526040918290208251610100810184526006820180546001600160a01b031682526007909201805485518186028101860190965280865291949293858101939290830182828015620004b557602002820191906000526020600020905b81546001600160a01b0316815260019091019060200180831162000496575b50505050508152602001600282018054806020026020016040519081016040528092919081815260200182805480156200050f57602002820191906000526020600020905b815481526020019060010190808311620004fa575b50505050508152602001600382015481526020016004820154815260200160058201548152602001600682015481526020016007820154815250509050919050565b6200055b62001639565b6040518061010001604052808c6001600160a01b031681526020018b8b808060200260200160405190810160405280939291908181526020018383602002808284376000920191909152505050908252506040805160208b810282810182019093528b82529283019290918c918c91829185019084908082843760009201919091525050509082525060208101979097526040870195909552506060850192909252608084015260a09092019190915295945050505050565b6000828152600a602090815260408083206001600160a01b0387168452909152812080548392906200064890849062001e72565b9091555050505050565b6000828152600a602090815260408083206001600160a01b0387168452909152812080548392906200064890849062001e8d565b6200069062001687565b6000828152600b602052604090205460ff16620006ea5760405162461bcd60e51b815260206004820152601360248201527215985d5b1d08191bd95cdb89dd08195e1a5cdd606a1b60448201526064015b60405180910390fd5b600082815260096020908152604091829020825160e08101845281546001600160a01b039081168252600183015481168285015260028301548116828601526003830154811660608301526004830154811660808301526005830154811660a083015284516101008101865260068401805490921681526007840180548751818802810188019098528088529396949560c08801959294858201939291830182828015620007c257602002820191906000526020600020905b81546001600160a01b03168152600190910190602001808311620007a3575b50505050508152602001600282018054806020026020016040519081016040528092919081815260200182805480156200081c57602002820191906000526020600020905b81548152602001906001019080831162000807575b50505091835250506003820154602082015260048201546040820152600582015460608201526006820154608082015260079091015460a09091015290525092915050565b6002546000906001600160a01b0316620008b65760405162461bcd60e51b81526020600482015260156024820152741d1c985b98da1953585cdd195c881b9bdd081cd95d605a1b6044820152606401620006e1565b6003805460c088018190526000818152600b60205260408120805460ff191660011790558254919290620008ea8362001ea7565b91905055506000876040516200090090620016cc565b6200090c9190620018b6565b604051809103906000f08015801562000929573d6000803e3d6000fd5b50600083815260096020908152604090912080546001600160a01b03199081166001600160a01b038581169190911783558c5160068401805490931691161781558b830151805194955091938c9391926200098c926007870192910190620016da565b5060408201518051620009aa91600284019160209091019062001744565b50606082015181600301556080820151816004015560a0820151816005015560c0820151816006015560e0820151816007015590505082600c60008b600001518c606001518d6080015160405160200162000a2c9392919060609390931b6bffffffffffffffffffffffff191683526014830191909152603482015260540190565b60405160208183030381529060405280519060200120815260200190815260200160002081905550600560009054906101000a90046001600160a01b03166001600160a01b0316630e0edd6d6040518163ffffffff1660e01b81526004016020604051808303816000875af115801562000aaa573d6000803e3d6000fd5b505050506040513d601f19601f8201168201806040525081019062000ad0919062001ec5565b60039190910180546001600160a01b0319166001600160a01b03909216919091179055509695505050505050565b600960209081526000918252604091829020805460018201546002830154600384015460048501546005860154885161010081018a526006880180546001600160a01b03908116835260078a0180548d51818e0281018e01909e52808e529982169c9882169b9782169a96821699958216989490911696929491938584019390929083018282801562000bbb57602002820191906000526020600020905b81546001600160a01b0316815260019091019060200180831162000b9c575b505050505081526020016002820180548060200260200160405190810160405280929190818152602001828054801562000c1557602002820191906000526020600020905b81548152602001906001019080831162000c00575b5050505050815260200160038201548152602001600482015481526020016005820154815260200160068201548152602001600782015481525050905087565b600480546040805163129d2b3360e11b8152815160009485946001600160a01b03169363253a56669380830193919290829003018187875af115801562000ca0573d6000803e3d6000fd5b505050506040513d601f19601f8201168201806040525081019062000cc6919062001ee5565b600085815260096020526040808220600480820180546001600160a01b038089166001600160a01b031992831617909255600584018054838916921691909117905560018301548451631d38a5cb60e31b81528551989a50969850929694958695939091169363e9c52e58938284019391929091908290030181865afa15801562000d55573d6000803e3d6000fd5b505050506040513d601f19601f8201168201806040525081019062000d7b919062001ee5565b91509150600060405162000d8f9062001782565b604051809103906000f08015801562000dac573d6000803e3d6000fd5b50600385015490915062000dd19087908790859087906001600160a01b03166200125d565b60038401546040516355ee1fe160e01b81526001600160a01b038381166004830152909116906355ee1fe1906024016020604051808303816000875af115801562000e20573d6000803e3d6000fd5b505050506040513d601f19601f8201168201806040525081019062000e46919062001f24565b506003840154604051637201477760e11b81526001600160a01b038881166004830152670b1a2bc2ec50000060248301529091169063e4028eee906044016020604051808303816000875af115801562000ea4573d6000803e3d6000fd5b505050506040513d601f19601f8201168201806040525081019062000eca919062001f24565b506003840154604051637201477760e11b81526001600160a01b038781166004830152670b1a2bc2ec50000060248301529091169063e4028eee906044016020604051808303816000875af115801562000f28573d6000803e3d6000fd5b505050506040513d601f19601f8201168201806040525081019062000f4e919062001f24565b5050505050505050565b6001546001600160a01b0316331462000f7057600080fd5b600280546001600160a01b0319166001600160a01b0392909216919091179055565b6000818152600960205260408082206007548154600254935163091f120d60e31b81526001600160a01b0391821660048201526024810187905293811660448501529193929116906348f89068906064016020604051808303816000875af115801562001003573d6000803e3d6000fd5b505050506040513d601f19601f8201168201806040525081019062001029919062001ec5565b9050806001600160a01b031663559ed3396040518163ffffffff1660e01b8152600401600060405180830381600087803b1580156200106757600080fd5b505af11580156200107c573d6000803e3d6000fd5b50505050600080826001600160a01b031663e9c52e586040518163ffffffff1660e01b81526004016040805180830381865afa158015620010c1573d6000803e3d6000fd5b505050506040513d601f19601f82011682018060405250810190620010e7919062001ee5565b600654604051634c0fa89b60e11b81526001600160a01b0380841660048301528085166024830152939550919350600092169063981f5136906044016020604051808303816000875af115801562001143573d6000803e3d6000fd5b505050506040513d601f19601f8201168201806040525081019062001169919062001ec5565b604051630ed7121b60e11b8152670de0b6b3a764000060048201529091506001600160a01b03821690631dae243690602401600060405180830381600087803b158015620011b657600080fd5b505af1158015620011cb573d6000803e3d6000fd5b50505050806001600160a01b031663013cbdf66040518163ffffffff1660e01b8152600401600060405180830381600087803b1580156200120b57600080fd5b505af115801562001220573d6000803e3d6000fd5b5050506001860180546001600160a01b039687166001600160a01b0319918216179091556002909601805492909516919095161790925550505050565b600854604051637260592160e01b81526001600160a01b0380881692637260592192620012a19288928792911690670de0b6b3a76400009060129060040162001f3e565b600060405180830381600087803b158015620012bc57600080fd5b505af1158015620012d1573d6000803e3d6000fd5b50506040516353b59fed60e11b81526001600160a01b0388811660048301528416925063a76b3fda91506024016020604051808303816000875af11580156200131e573d6000803e3d6000fd5b505050506040513d601f19601f8201168201806040525081019062001344919062001f24565b15620013825760405162461bcd60e51b815260206004820152600c60248201526b2732bba6b0b935b2ba22a92960a11b6044820152606401620006e1565b60025460405163023183ab60e21b81526001600160a01b03918216600482015260016024820152908616906308c60eac90604401600060405180830381600087803b158015620013d157600080fd5b505af1158015620013e6573d6000803e3d6000fd5b5050600854604051637260592160e01b81526001600160a01b038881169450637260592193506200142f928792879290911690670de0b6b3a76400009060129060040162001fbf565b600060405180830381600087803b1580156200144a57600080fd5b505af11580156200145f573d6000803e3d6000fd5b50506040516353b59fed60e11b81526001600160a01b0387811660048301528416925063a76b3fda91506024016020604051808303816000875af1158015620014ac573d6000803e3d6000fd5b505050506040513d601f19601f82011682018060405250810190620014d2919062001f24565b15620015105760405162461bcd60e51b815260206004820152600c60248201526b2732bba6b0b935b2ba22a92960a11b6044820152606401620006e1565b60025460405163023183ab60e21b81526001600160a01b03918216600482015260006024820152908516906308c60eac90604401600060405180830381600087803b1580156200155f57600080fd5b505af115801562001574573d6000803e3d6000fd5b50506040516340c3fa8b60e11b81526001600160a01b03878116600483015288169250638187f5169150602401600060405180830381600087803b158015620015bc57600080fd5b505af1158015620015d1573d6000803e3d6000fd5b50506040516340c3fa8b60e11b81526001600160a01b03888116600483015287169250638187f5169150602401600060405180830381600087803b1580156200161957600080fd5b505af11580156200162e573d6000803e3d6000fd5b505050505050505050565b60405180610100016040528060006001600160a01b03168152602001606081526020016060815260200160008152602001600081526020016000815260200160008152602001600081525090565b6040805160e081018252600080825260208201819052918101829052606081018290526080810182905260a081019190915260c08101620016c762001639565b905290565b612c29806200203083390190565b82805482825590600052602060002090810192821562001732579160200282015b828111156200173257825182546001600160a01b0319166001600160a01b03909116178255602090920191600190910190620016fb565b50620017409291506200178f565b5090565b82805482825590600052602060002090810192821562001732579160200282015b828111156200173257825182559160200191906001019062001765565b60fb8062004c5983390190565b5b8082111562001740576000815560010162001790565b600060208284031215620017b957600080fd5b5035919050565b600081518084526020808501945080840160005b83811015620017f257815187529582019590820190600101620017d4565b509495945050505050565b80516001600160a01b039081168352602080830151610100828601819052815190860181905260009361012087019392830192909185905b80821015620018595784518416865294820194938201936001919091019062001835565b505050505060408301518482036040860152620018778282620017c0565b915050606083015160608501526080830151608085015260a083015160a085015260c083015160c085015260e083015160e08501528091505092915050565b602081526000620018cb6020830184620017fd565b9392505050565b6001600160a01b0381168114620018e857600080fd5b50565b8035620018f881620018d2565b919050565b60008083601f8401126200191057600080fd5b50813567ffffffffffffffff8111156200192957600080fd5b6020830191508360208260051b85010111156200194557600080fd5b9250929050565b6000806000806000806000806000806101008b8d0312156200196d57600080fd5b8a356200197a81620018d2565b995060208b013567ffffffffffffffff808211156200199857600080fd5b620019a68e838f01620018fd565b909b50995060408d0135915080821115620019c057600080fd5b50620019cf8d828e01620018fd565b9b9e9a9d50989b989a9960608a0135996080810135995060a0810135985060c0810135975060e0013595509350505050565b60008060006060848603121562001a1757600080fd5b833562001a2481620018d2565b95602085013595506040909401359392505050565b60208152600060018060a01b038084511660208401528060208501511660408401528060408501511660608401528060608501511660808401528060808501511660a08401528060a08501511660c08401525060c083015160e08084015262001aa7610100840182620017fd565b949350505050565b634e487b7160e01b600052604160045260246000fd5b604051610100810167ffffffffffffffff8111828210171562001aec5762001aec62001aaf565b60405290565b604051601f8201601f1916810167ffffffffffffffff8111828210171562001b1e5762001b1e62001aaf565b604052919050565b600067ffffffffffffffff82111562001b435762001b4362001aaf565b5060051b60200190565b600082601f83011262001b5f57600080fd5b8135602062001b7862001b728362001b26565b62001af2565b82815260059290921b8401810191818101908684111562001b9857600080fd5b8286015b8481101562001bc057803562001bb281620018d2565b835291830191830162001b9c565b509695505050505050565b600082601f83011262001bdd57600080fd5b8135602062001bf062001b728362001b26565b82815260059290921b8401810191818101908684111562001c1057600080fd5b8286015b8481101562001bc0578035835291830191830162001c14565b60008083601f84011262001c4057600080fd5b50813567ffffffffffffffff81111562001c5957600080fd5b6020830191508360208285010111156200194557600080fd5b60008060008060006060868803121562001c8b57600080fd5b853567ffffffffffffffff8082111562001ca457600080fd5b90870190610100828a03121562001cba57600080fd5b62001cc462001ac5565b62001ccf83620018eb565b815260208301358281111562001ce457600080fd5b62001cf28b82860162001b4d565b60208301525060408301358281111562001d0b57600080fd5b62001d198b82860162001bcb565b604083015250606083013560608201526080830135608082015260a083013560a082015260c083013560c082015260e083013560e082015280975050602088013591508082111562001d6a57600080fd5b62001d7889838a01620018fd565b9096509450604088013591508082111562001d9257600080fd5b5062001da18882890162001c2d565b969995985093965092949392505050565b6001600160a01b0388811682528781166020830152868116604083015285811660608301528481166080830152831660a082015260e060c0820181905260009062001e0090830184620017fd565b9998505050505050505050565b6000806040838503121562001e2157600080fd5b823562001e2e81620018d2565b946020939093013593505050565b60006020828403121562001e4f57600080fd5b8135620018cb81620018d2565b634e487b7160e01b600052601160045260246000fd5b6000821982111562001e885762001e8862001e5c565b500190565b60008282101562001ea25762001ea262001e5c565b500390565b600060001982141562001ebe5762001ebe62001e5c565b5060010190565b60006020828403121562001ed857600080fd5b8151620018cb81620018d2565b6000806040838503121562001ef957600080fd5b825162001f0681620018d2565b602084015190925062001f1981620018d2565b809150509250929050565b60006020828403121562001f3757600080fd5b5051919050565b6001600160a01b0386811682528581166020830152841660408201526060810183905260e0608082018190526007908201526631a9b2b734b7b960c91b6101008201526000610120820182810360a0840152600781526631a9b2b734b7b960c91b6020820152604081015b91505060ff831660c08301529695505050505050565b6001600160a01b0386811682528581166020830152841660408201526060810183905260e0608082018190526007908201526631a53ab734b7b960c91b6101008201526000610120820182810360a0840152600781526631a53ab734b7b960c91b60208201526040810162001fa956fe6101206040523480156200001257600080fd5b5060405162002c2938038062002c29833981016040819052620000359162000518565b80516040805180820182526002808252610d0d60f31b602080840182815285518087019096529285528401528151919291839183916012916200007c916000919062000247565b5081516200009290600190602085019062000247565b5060ff81166080524660a052620000a8620001ab565b60c052505050506001600160a01b0391821660e052508151600e80546001600160a01b031916919092161790556020808201518051620000ed926008920190620002d6565b5060208082015151600655604082015180516200010f9260079201906200032e565b506060810151600a556080810151600b5560a0810151600c5560e0810151600d55426009556006546001600160401b0381111562000151576200015162000382565b6040519080825280602002602001820160405280156200017b578160200160208202803683370190505b50805162000192916010916020909101906200032e565b5050670de0b6b3a76400006101005243601155620006dd565b60007f8b73c3c69bb8fe3d512ecc4cf759cc79239f7b179b0ffacaa9a75d522b39400f6000604051620001df919062000639565b6040805191829003822060208301939093528101919091527fc89efdaa54c0f20c7adf612882df0950f5a951637e0307cdcb4c672f298b8bc660608201524660808201523060a082015260c00160405160208183030381529060405280519060200120905090565b8280546200025590620005fc565b90600052602060002090601f016020900481019282620002795760008555620002c4565b82601f106200029457805160ff1916838001178555620002c4565b82800160010185558215620002c4579182015b82811115620002c4578251825591602001919060010190620002a7565b50620002d29291506200036b565b5090565b828054828255906000526020600020908101928215620002c4579160200282015b82811115620002c457825182546001600160a01b0319166001600160a01b03909116178255602090920191600190910190620002f7565b828054828255906000526020600020908101928215620002c45791602002820182811115620002c4578251825591602001919060010190620002a7565b5b80821115620002d257600081556001016200036c565b634e487b7160e01b600052604160045260246000fd5b60405161010081016001600160401b0381118282101715620003be57620003be62000382565b60405290565b604051601f8201601f191681016001600160401b0381118282101715620003ef57620003ef62000382565b604052919050565b80516001600160a01b03811681146200040f57600080fd5b919050565b60006001600160401b0382111562000430576200043062000382565b5060051b60200190565b600082601f8301126200044c57600080fd5b81516020620004656200045f8362000414565b620003c4565b82815260059290921b840181019181810190868411156200048557600080fd5b8286015b84811015620004ab576200049d81620003f7565b835291830191830162000489565b509695505050505050565b600082601f830112620004c857600080fd5b81516020620004db6200045f8362000414565b82815260059290921b84018101918181019086841115620004fb57600080fd5b8286015b84811015620004ab5780518352918301918301620004ff565b6000602082840312156200052b57600080fd5b81516001600160401b03808211156200054357600080fd5b9083019061010082860312156200055957600080fd5b6200056362000398565b6200056e83620003f7565b81526020830151828111156200058357600080fd5b62000591878286016200043a565b602083015250604083015182811115620005aa57600080fd5b620005b887828601620004b6565b604083015250606083015160608201526080830151608082015260a083015160a082015260c083015160c082015260e083015160e082015280935050505092915050565b600181811c908216806200061157607f821691505b602082108114156200063357634e487b7160e01b600052602260045260246000fd5b50919050565b600080835481600182811c9150808316806200065657607f831692505b60208084108214156200067757634e487b7160e01b86526022600452602486fd5b8180156200068e5760018114620006a057620006cf565b60ff19861689528489019650620006cf565b60008a81526020902060005b86811015620006c75781548b820152908501908301620006ac565b505084890196505b509498975050505050505050565b60805160a05160c05160e051610100516124ba6200076f6000396000818161053601528181610c4301528181610f7c01528181611010015281816117c20152818161185a0152611bbb0152600081816103e9015281816110d901528181611179015281816113be0152818161150e0152611c6c01526000610d2501526000610cf00152600061039601526124ba6000f3fe608060405234801561001057600080fd5b50600436106102bb5760003560e01c80637adbf97311610182578063ba087652116100e9578063d505accf116100a2578063dd62ed3e1161007c578063dd62ed3e1461064e578063e31fbfa214610679578063e6dbd1c314610681578063ef8b30f71461068957600080fd5b8063d505accf14610609578063d7fdefca1461061c578063d905777e1461062557600080fd5b8063ba087652146105bf578063c63d75b61461041e578063c6e6f592146105d2578063c70acd8a146105e5578063ce96cb77146105ee578063d09a2c991461060157600080fd5b806395d89b411161013b57806395d89b41146105585780639816f47314610560578063a2b379d714610571578063a9059cbb14610586578063b3d7f6b914610599578063b460af94146105ac57600080fd5b80637adbf973146104bf5780637ecebe00146104ef5780637f2b6a0d1461050f578063806027e01461051657806394bf804d1461051e57806395082d251461053157600080fd5b806334fd2eca116102265780634b3ceabd116101df5780634b3ceabd146104615780634cdad5061461046957806352b892f71461047c578063695f7af0146104845780636e553f651461048c57806370a082311461049f57600080fd5b806334fd2eca146103d45780633644e515146103dc57806338d52e0f146103e45780633cbaba281461040b578063402d267d1461041e5780634796c5471461043357600080fd5b806312b495a81161027857806312b495a81461034157806318160ddd1461034a5780631f1fcd511461035357806323b872dd1461037e578063313ce56714610391578063318b5e1b146103ca57600080fd5b806301e1d114146102c057806306fdde03146102db57806307196aa7146102f057806307a2d13a146102f8578063095ea7b31461030b5780630a28a4771461032e575b600080fd5b6102c861069c565b6040519081526020015b60405180910390f35b6102e36107fc565b6040516102d29190612045565b6102c861088a565b6102c861030636600461209a565b61098c565b61031e6103193660046120cf565b6109b9565b60405190151581526020016102d2565b6102c861033c36600461209a565b610a26565b6102c860155481565b6102c860025481565b600e54610366906001600160a01b031681565b6040516001600160a01b0390911681526020016102d2565b61031e61038c3660046120f9565b610a46565b6103b87f000000000000000000000000000000000000000000000000000000000000000081565b60405160ff90911681526020016102d2565b6103d2610b26565b005b600b546102c8565b6102c8610cec565b6103667f000000000000000000000000000000000000000000000000000000000000000081565b601254610366906001600160a01b031681565b6102c861042c366004612135565b5060001990565b61044661044136600461209a565b610d47565b604080519384526020840192909252908201526060016102d2565b6102c8600a81565b6102c861047736600461209a565b610efe565b6103d2610f09565b6102c8610f1f565b6102c861049a366004612150565b61107f565b6102c86104ad366004612135565b60036020526000908152604090205481565b6103d26104cd366004612135565b601280546001600160a01b0319166001600160a01b0392909216919091179055565b6102c86104fd366004612135565b60056020526000908152604090205481565b600161031e565b6102c8600181565b6102c861052c366004612150565b611157565b6102c87f000000000000000000000000000000000000000000000000000000000000000081565b6102e36111f7565b600e546001600160a01b0316610366565b610579611204565b6040516102d2919061217c565b61031e6105943660046120cf565b61125c565b6102c86105a736600461209a565b6112c2565b6102c86105ba3660046121c0565b6112e1565b6102c86105cd3660046121c0565b6113e5565b6102c86105e036600461209a565b611535565b6102c8600a5481565b6102c86105fc366004612135565b611555565b6102c8606481565b6103d26106173660046121fc565b611577565b6102c8600d5481565b6102c8610633366004612135565b6001600160a01b031660009081526003602052604090205490565b6102c861065c36600461226f565b600460209081526000928352604080842090915290825290205481565b600a546102c8565b6102c86117bb565b6102c861069736600461209a565b6117e6565b60008080805b6006548110156107dd57600881815481106106bf576106bf612299565b6000918252602090912001546040516370a0823160e01b81523060048201526001600160a01b03909116906370a0823190602401602060405180830381865afa158015610710573d6000803e3d6000fd5b505050506040513d601f19601f8201168201806040525081019061073491906122af565b91506008818154811061074957610749612299565b6000918252602090912001546040516303d1689d60e11b8152600481018490526001600160a01b03909116906307a2d13a90602401602060405180830381865afa15801561079b573d6000803e3d6000fd5b505050506040513d601f19601f820116820180604052508101906107bf91906122af565b6107c990846122de565b9250806107d5816122f6565b9150506106a2565b506015546107eb90836117f1565b6107f590836122de565b9250505090565b6000805461080990612311565b80601f016020809104026020016040519081016040528092919081815260200182805461083590612311565b80156108825780601f1061085757610100808354040283529160200191610882565b820191906000526020600020905b81548152906001019060200180831161086557829003601f168201915b505050505081565b43601155600080805b60065481101561098757600881815481106108b0576108b0612299565b60009182526020808320909101546001600160a01b0316808352600f8252604080842054845260169092529120909250610968565b6108f0600180612346565b81101561093b57816109038260016122de565b6001811061091357610913612299565b015482826001811061092757610927612299565b015580610933816122f6565b9150506108e5565b5061094582611806565b81610951600180612346565b6001811061096157610961612299565b0155610974565b61097182611806565b81555b508061097f816122f6565b915050610893565b505090565b60025460009080156109b0576109ab6109a361069c565b8490836118d9565b6109b2565b825b9392505050565b3360008181526004602090815260408083206001600160a01b038716808552925280832085905551919290917f8c5be1e5ebec7d5bd14f71427d1e84f3dd0314c0f7b2291e5b200ac8c7c3b92590610a149086815260200190565b60405180910390a35060015b92915050565b60025460009080156109b0576109ab81610a3e61069c565b8591906118f8565b6001600160a01b03831660009081526004602090815260408083203384529091528120546000198114610aa257610a7d8382612346565b6001600160a01b03861660009081526004602090815260408083203384529091529020555b6001600160a01b03851660009081526003602052604081208054859290610aca908490612346565b90915550506001600160a01b038085166000818152600360205260409081902080548701905551909187169060008051602061246583398151915290610b139087815260200190565b60405180910390a3506001949350505050565b601154431415610b3257565b6012546001600160a01b031615610c3057604080518082018083526012546339aa885b60e21b909152915190918291610bc2916001600160a01b03169063e6aa216c9060448086019160209181880301816000875af1158015610b99573d6000803e3d6000fd5b505050506040513d601f19601f82011682018060405250810190610bbd91906122af565b611926565b6001600160801b03168152602001610bdb600254611926565b6001600160801b0316815250601460006064601354610bfa9190612373565b8152602080820192909252604001600020825192909101516001600160801b03908116600160801b029216919091179055610cd1565b6040518060400160405280610c67610bbd7f00000000000000000000000000000000000000000000000000000000000000006112c2565b6001600160801b03168152602001610c80600254611926565b6001600160801b0316815250601460006064601354610c9f9190612373565b8152602080820192909252604001600020825192909101516001600160801b03908116600160801b0292169190911790555b60138054906000610ce1836122f6565b909155505043601155565b60007f00000000000000000000000000000000000000000000000000000000000000004614610d2257610d1d61193c565b905090565b507f000000000000000000000000000000000000000000000000000000000000000090565b60008080808080865b8015610df8576000818152601460205260409020546001600160801b0316610d7757610de8565b600081815260146020526040902054610da090600160801b90046001600160801b0316856122de565b600082815260146020526040902054909450610dce906001600160801b03600160801b8204811691166117f1565b610dd890846122de565b925081610de4816122f6565b9250505b610df181612387565b9050610d50565b506000805260146020527f4f26c3876aa9f4b92579780beea1161a61f87ebf1ec6ee865b299e447ecba99c546001600160801b031615610edb576000805260146020527f4f26c3876aa9f4b92579780beea1161a61f87ebf1ec6ee865b299e447ecba99c54610e7790600160801b90046001600160801b0316846122de565b6000805260146020527f4f26c3876aa9f4b92579780beea1161a61f87ebf1ec6ee865b299e447ecba99c54909350610ec1906001600160801b03600160801b8204811691166117f1565b610ecb90836122de565b915080610ed7816122f6565b9150505b610ee5818461239e565b610eef828461239e565b90989097509095509350505050565b6000610a208261098c565b436011541015610f1d57610f1b61088a565b505b565b60008060065467ffffffffffffffff811115610f3d57610f3d6123b2565b604051908082528060200260200182016040528015610f66578160200160208202803683370190505b5090506000805b60065481101561107157610ff07f000000000000000000000000000000000000000000000000000000000000000060108381548110610fae57610fae612299565b9060005260206000200154610fe960088581548110610fcf57610fcf612299565b6000918252602090912001546001600160a01b03166119d6565b91906118d9565b83828151811061100257611002612299565b6020026020010181815250507f000000000000000000000000000000000000000000000000000000000000000083828151811061104157611041612299565b60200260200101516110539190612346565b61105d90836122de565b915080611069816122f6565b915050610f6d565b506006546107f5908261239e565b600061108a836117e6565b9050806110cc5760405162461bcd60e51b815260206004820152600b60248201526a5a45524f5f53484152455360a81b60448201526064015b60405180910390fd5b6111016001600160a01b037f000000000000000000000000000000000000000000000000000000000000000016333086611a6b565b61110b8282611af5565b60408051848152602081018390526001600160a01b0384169133917fdcbc1c05240f31ff3ad067ef1ee35ce4997762752e3a095284754544f4c709d791015b60405180910390a3610a20565b6000611161610b26565b61116a836112c2565b90506111a16001600160a01b037f000000000000000000000000000000000000000000000000000000000000000016333084611a6b565b6111aa83611b4f565b6111b48284611af5565b60408051828152602081018590526001600160a01b0384169133917fdcbc1c05240f31ff3ad067ef1ee35ce4997762752e3a095284754544f4c709d7910161114a565b6001805461080990612311565b6060601080548060200260200160405190810160405280929190818152602001828054801561125257602002820191906000526020600020905b81548152602001906001019080831161123e575b5050505050905090565b3360009081526003602052604081208054839190839061127d908490612346565b90915550506001600160a01b0383166000818152600360205260409081902080548501905551339060008051602061246583398151915290610a149086815260200190565b60025460009080156109b0576109ab6112d961069c565b8490836118f8565b60006112ec84610a26565b9050336001600160a01b0383161461135c576001600160a01b0382166000908152600460209081526040808320338452909152902054600019811461135a576113358282612346565b6001600160a01b03841660009081526004602090815260408083203384529091529020555b505b6113668282611e04565b60408051858152602081018390526001600160a01b03808516929086169133917ffbde797d201c681b91056529119e0b02407c7bb96a4a2c75c01fc9667232c8db910160405180910390a46109b26001600160a01b037f0000000000000000000000000000000000000000000000000000000000000000168486611e66565b60006113ef610b26565b336001600160a01b0383161461145d576001600160a01b0382166000908152600460209081526040808320338452909152902054600019811461145b576114368582612346565b6001600160a01b03841660009081526004602090815260408083203384529091529020555b505b61146684610efe565b9050806114a35760405162461bcd60e51b815260206004820152600b60248201526a5a45524f5f41535345545360a81b60448201526064016110c3565b6114ac81611ede565b6114b68285611e04565b60408051828152602081018690526001600160a01b03808516929086169133917ffbde797d201c681b91056529119e0b02407c7bb96a4a2c75c01fc9667232c8db910160405180910390a46109b26001600160a01b037f0000000000000000000000000000000000000000000000000000000000000000168483611e66565b60025460009080156109b0576109ab8161154d61069c565b8591906118d9565b6001600160a01b038116600090815260036020526040812054610a209061098c565b428410156115c75760405162461bcd60e51b815260206004820152601760248201527f5045524d49545f444541444c494e455f4558504952454400000000000000000060448201526064016110c3565b600060016115d3610cec565b6001600160a01b038a811660008181526005602090815260409182902080546001810190915582517f6e71edae12b1b97f4d1f60370fef10105fa2faae0126114a169c64845d6126c98184015280840194909452938d166060840152608083018c905260a083019390935260c08083018b90528151808403909101815260e08301909152805192019190912061190160f01b6101008301526101028201929092526101228101919091526101420160408051601f198184030181528282528051602091820120600084529083018083525260ff871690820152606081018590526080810184905260a0016020604051602081039080840390855afa1580156116df573d6000803e3d6000fd5b5050604051601f1901519150506001600160a01b038116158015906117155750876001600160a01b0316816001600160a01b0316145b6117525760405162461bcd60e51b815260206004820152600e60248201526d24a72b20a624a22fa9a4a3a722a960911b60448201526064016110c3565b6001600160a01b0390811660009081526004602090815260408083208a8516808552908352928190208990555188815291928a16917f8c5be1e5ebec7d5bd14f71427d1e84f3dd0314c0f7b2291e5b200ac8c7c3b925910160405180910390a350505050505050565b6000610d1d7f00000000000000000000000000000000000000000000000000000000000000006112c2565b6000610a2082611535565b60006109b28383670de0b6b3a76400006118d9565b6000806008838154811061181c5761181c612299565b60009182526020808320909101546001600160a01b039081168084526017909252604090922054909250166118d35760405163ef8b30f760e01b81527f000000000000000000000000000000000000000000000000000000000000000060048201526001600160a01b0382169063ef8b30f790602401602060405180830381865afa1580156118af573d6000803e3d6000fd5b505050506040513d601f19601f820116820180604052508101906109b291906122af565b50919050565b8282028115158415858304851417166118f157600080fd5b0492915050565b82820281151584158583048514171661191057600080fd5b6001826001830304018115150290509392505050565b6000600160801b821061193857600080fd5b5090565b60007f8b73c3c69bb8fe3d512ecc4cf759cc79239f7b179b0ffacaa9a75d522b39400f600060405161196e91906123c8565b6040805191829003822060208301939093528101919091527fc89efdaa54c0f20c7adf612882df0950f5a951637e0307cdcb4c672f298b8bc660608201524660808201523060a082015260c00160405160208183030381529060405280519060200120905090565b600060115460016119e791906122de565b431015611a235760405162461bcd60e51b815260206004820152600a6024820152694e6f6e2061746f6d696360b01b60448201526064016110c3565b6001600160a01b0382166000908152600f6020908152604080832054835260169091529020611a53600180612346565b60018110611a6357611a63612299565b015492915050565b60006040516323b872dd60e01b81528460048201528360248201528260448201526020600060648360008a5af13d15601f3d1160016000511416171691505080611aee5760405162461bcd60e51b81526020600482015260146024820152731514905394d1915497d19493d357d1905253115160621b60448201526064016110c3565b5050505050565b8060026000828254611b0791906122de565b90915550506001600160a01b03821660008181526003602090815260408083208054860190555184815260008051602061246583398151915291015b60405180910390a35050565b60008060005b600654811015611dfe5760088181548110611b7257611b72612299565b600091825260209091200154600780546001600160a01b03909216935083916307a2d13a91611bdf9185908110611bab57611bab612299565b60009182526020909120015487907f00000000000000000000000000000000000000000000000000000000000000006118d9565b6040518263ffffffff1660e01b8152600401611bfd91815260200190565b602060405180830381865afa158015611c1a573d6000803e3d6000fd5b505050506040513d601f19601f82011682018060405250810190611c3e91906122af565b9250611c9560088281548110611c5657611c56612299565b6000918252602090912001546001600160a01b037f00000000000000000000000000000000000000000000000000000000000000008116911685611fce565b60405163402d267d60e01b81523060048201526001600160a01b0383169063402d267d90602401602060405180830381865afa158015611cd9573d6000803e3d6000fd5b505050506040513d601f19601f82011682018060405250810190611cfd91906122af565b831115611d395760405162461bcd60e51b815260206004820152600a602482015269135a5b9d08131a5b5a5d60b21b60448201526064016110c3565b604051636e553f6560e01b8152600481018490523060248201526000906001600160a01b03841690636e553f65906044016020604051808303816000875af1158015611d89573d6000803e3d6000fd5b505050506040513d601f19601f82011682018060405250810190611dad91906122af565b1015611dec5760405162461bcd60e51b815260206004820152600e60248201526d11985a5b19590811195c1bdcda5d60921b60448201526064016110c3565b80611df6816122f6565b915050611b55565b50505050565b6001600160a01b03821660009081526003602052604081208054839290611e2c908490612346565b90915550506002805482900390556040518181526000906001600160a01b0384169060008051602061246583398151915290602001611b43565b600060405163a9059cbb60e01b8152836004820152826024820152602060006044836000895af13d15601f3d1160016000511416171691505080611dfe5760405162461bcd60e51b815260206004820152600f60248201526e1514905394d1915497d19052531151608a1b60448201526064016110c3565b6000805b600654811015611fc957611f1c60078281548110611f0257611f02612299565b9060005260206000200154846117f190919063ffffffff16565b915060088181548110611f3157611f31612299565b600091825260209091200154604051632d182be560e21b815260048101849052306024820181905260448201526001600160a01b039091169063b460af94906064016020604051808303816000875af1158015611f92573d6000803e3d6000fd5b505050506040513d601f19601f82011682018060405250810190611fb691906122af565b5080611fc1816122f6565b915050611ee2565b505050565b600060405163095ea7b360e01b8152836004820152826024820152602060006044836000895af13d15601f3d1160016000511416171691505080611dfe5760405162461bcd60e51b815260206004820152600e60248201526d1054141493d59157d1905253115160921b60448201526064016110c3565b600060208083528351808285015260005b8181101561207257858101830151858201604001528201612056565b81811115612084576000604083870101525b50601f01601f1916929092016040019392505050565b6000602082840312156120ac57600080fd5b5035919050565b80356001600160a01b03811681146120ca57600080fd5b919050565b600080604083850312156120e257600080fd5b6120eb836120b3565b946020939093013593505050565b60008060006060848603121561210e57600080fd5b612117846120b3565b9250612125602085016120b3565b9150604084013590509250925092565b60006020828403121561214757600080fd5b6109b2826120b3565b6000806040838503121561216357600080fd5b82359150612173602084016120b3565b90509250929050565b6020808252825182820181905260009190848201906040850190845b818110156121b457835183529284019291840191600101612198565b50909695505050505050565b6000806000606084860312156121d557600080fd5b833592506121e5602085016120b3565b91506121f3604085016120b3565b90509250925092565b600080600080600080600060e0888a03121561221757600080fd5b612220886120b3565b965061222e602089016120b3565b95506040880135945060608801359350608088013560ff8116811461225257600080fd5b9699959850939692959460a0840135945060c09093013592915050565b6000806040838503121561228257600080fd5b61228b836120b3565b9150612173602084016120b3565b634e487b7160e01b600052603260045260246000fd5b6000602082840312156122c157600080fd5b5051919050565b634e487b7160e01b600052601160045260246000fd5b600082198211156122f1576122f16122c8565b500190565b600060001982141561230a5761230a6122c8565b5060010190565b600181811c9082168061232557607f821691505b602082108114156118d357634e487b7160e01b600052602260045260246000fd5b600082821015612358576123586122c8565b500390565b634e487b7160e01b600052601260045260246000fd5b6000826123825761238261235d565b500690565b600081612396576123966122c8565b506000190190565b6000826123ad576123ad61235d565b500490565b634e487b7160e01b600052604160045260246000fd5b600080835481600182811c9150808316806123e457607f831692505b602080841082141561240457634e487b7160e01b86526022600452602486fd5b818015612418576001811461242957612456565b60ff19861689528489019650612456565b60008a81526020902060005b8681101561244e5781548b820152908501908301612435565b505084890196505b50949897505050505050505056feddf252ad1be2c89b69c2b068fc378daa952ba7f163c4a11628f55a4df523b3efa264697066735822122057ff68db69aa9e5a1098d1098b434e74376a1611359fc632155e09fa484413c564736f6c634300080a0033608060405234801561001057600080fd5b5060dc8061001f6000396000f3fe6080604052348015600f57600080fd5b506004361060325760003560e01c806366331bba146037578063fc57d4df146053575b600080fd5b603e600181565b60405190151581526020015b60405180910390f35b606b605e3660046078565b50670de0b6b3a764000090565b604051908152602001604a565b600060208284031215608957600080fd5b81356001600160a01b0381168114609f57600080fd5b939250505056fea26469706673582212204adf82e9c5b1484af7006a215b302c39f267b4cf30e58df693442cebd9f22fe864736f6c634300080a0033a26469706673582212208609587bc671996a17dbcb0b82fa0253983bc8b4150b246520449fb37c08610f64736f6c634300080a0033608060405234801561001057600080fd5b5060405161041738038061041783398101604081905261002f91610099565b61003c62201480836100bd565b60015561004c62201480826100bd565b60008190556001546040517ff35fa19c15e9ba782633a5df62a98b20217151addc68e3ff2cd623a48d37ec279261008a928252602082015260400190565b60405180910390a150506100df565b600080604083850312156100ac57600080fd5b505080516020909101519092909150565b6000826100da57634e487b7160e01b600052601260045260246000fd5b500490565b610329806100ee6000396000f3fe608060405234801561001057600080fd5b506004361061007d5760003560e01c80638726bb891161005b5780638726bb89146100d3578063a385fb96146100dc578063b8168816146100e6578063f14039de146100f957600080fd5b806315f24053146100825780632191f92a146100a85780636e71e2d8146100c0575b600080fd5b61009561009036600461020f565b610102565b6040519081526020015b60405180910390f35b6100b0600181565b604051901515815260200161009f565b6100956100ce36600461020f565b61014b565b61009560005481565b6100956220148081565b6100956100f436600461023b565b610193565b61009560015481565b60008061011085858561014b565b9050600154670de0b6b3a76400006000548361012c9190610283565b61013691906102a2565b61014091906102c4565b9150505b9392505050565b60008261015a57506000610144565b8161016584866102c4565b61016f91906102dc565b610181670de0b6b3a764000085610283565b61018b91906102a2565b949350505050565b6000806101a883670de0b6b3a76400006102dc565b905060006101b7878787610102565b90506000670de0b6b3a76400006101ce8484610283565b6101d891906102a2565b9050670de0b6b3a7640000816101ef8a8a8a61014b565b6101f99190610283565b61020391906102a2565b98975050505050505050565b60008060006060848603121561022457600080fd5b505081359360208301359350604090920135919050565b6000806000806080858703121561025157600080fd5b5050823594602084013594506040840135936060013592509050565b634e487b7160e01b600052601160045260246000fd5b600081600019048311821515161561029d5761029d61026d565b500290565b6000826102bf57634e487b7160e01b600052601260045260246000fd5b500490565b600082198211156102d7576102d761026d565b500190565b6000828210156102ee576102ee61026d565b50039056fea2646970667358221220f7c15123eeedc185912ad74d68206613a45ebcc0151a9259cc357c17b8d95a1d64736f6c634300080a0033",
  "linkReferences": {},
  "deployedLinkReferences": {}
}