{
  "_format": "hh-sol-artifact-1",
  "contractName": "TrancheFactory",
  "sourceName": "src/factories.sol",
  "abi": [
    {
      "inputs": [
        {
          "internalType": "address",
          "name": "_owner",
          "type": "address"
        },
        {
          "internalType": "address",
          "name": "ammFactory_address",
          "type": "address"
        },
        {
          "internalType": "address",
          "name": "splitterFactory_address",
          "type": "address"
        },
        {
          "internalType": "address",
          "name": "lendingPoolFactory_address",
          "type": "address"
        },
        {
          "internalType": "address",
          "name": "lendTokenFactory_address",
          "type": "address"
        },
        {
          "internalType": "address",
          "name": "oracleAMMFactory_address",
          "type": "address"
        }
      ],
      "stateMutability": "nonpayable",
      "type": "constructor"
    },
    {
      "inputs": [
        {
          "internalType": "uint256",
          "name": "vaultId",
          "type": "uint256"
        }
      ],
      "name": "createLendingPools",
      "outputs": [],
      "stateMutability": "nonpayable",
      "type": "function"
    },
    {
      "inputs": [
        {
          "internalType": "address",
          "name": "_want",
          "type": "address"
        },
        {
          "internalType": "address[]",
          "name": "_instruments",
          "type": "address[]"
        },
        {
          "internalType": "uint256[]",
          "name": "_ratios",
          "type": "uint256[]"
        },
        {
          "internalType": "uint256",
          "name": "_junior_weight",
          "type": "uint256"
        },
        {
          "internalType": "uint256",
          "name": "_promisedReturn",
          "type": "uint256"
        },
        {
          "internalType": "uint256",
          "name": "inceptionTime",
          "type": "uint256"
        },
        {
          "internalType": "uint256",
          "name": "vaultId",
          "type": "uint256"
        },
        {
          "internalType": "uint256",
          "name": "inceptionPrice",
          "type": "uint256"
        },
        {
          "internalType": "bool",
          "name": "oracleAMM",
          "type": "bool"
        }
      ],
      "name": "createParams",
      "outputs": [
        {
          "components": [
            {
              "internalType": "address",
              "name": "_want",
              "type": "address"
            },
            {
              "internalType": "address[]",
              "name": "_instruments",
              "type": "address[]"
            },
            {
              "internalType": "uint256[]",
              "name": "_ratios",
              "type": "uint256[]"
            },
            {
              "internalType": "uint256",
              "name": "_junior_weight",
              "type": "uint256"
            },
            {
              "internalType": "uint256",
              "name": "_promisedReturn",
              "type": "uint256"
            },
            {
              "internalType": "uint256",
              "name": "inceptionTime",
              "type": "uint256"
            },
            {
              "internalType": "uint256",
              "name": "vaultId",
              "type": "uint256"
            },
            {
              "internalType": "uint256",
              "name": "inceptionPrice",
              "type": "uint256"
            },
            {
              "internalType": "bool",
              "name": "oracleAMM",
              "type": "bool"
            }
          ],
          "internalType": "struct TrancheFactory.InitParams",
          "name": "",
          "type": "tuple"
        }
      ],
      "stateMutability": "nonpayable",
      "type": "function"
    },
    {
      "inputs": [
        {
          "internalType": "uint256",
          "name": "vaultId",
          "type": "uint256"
        }
      ],
      "name": "createSplitterAndPool",
      "outputs": [],
      "stateMutability": "nonpayable",
      "type": "function"
    },
    {
      "inputs": [
        {
          "components": [
            {
              "internalType": "address",
              "name": "_want",
              "type": "address"
            },
            {
              "internalType": "address[]",
              "name": "_instruments",
              "type": "address[]"
            },
            {
              "internalType": "uint256[]",
              "name": "_ratios",
              "type": "uint256[]"
            },
            {
              "internalType": "uint256",
              "name": "_junior_weight",
              "type": "uint256"
            },
            {
              "internalType": "uint256",
              "name": "_promisedReturn",
              "type": "uint256"
            },
            {
              "internalType": "uint256",
              "name": "inceptionTime",
              "type": "uint256"
            },
            {
              "internalType": "uint256",
              "name": "vaultId",
              "type": "uint256"
            },
            {
              "internalType": "uint256",
              "name": "inceptionPrice",
              "type": "uint256"
            },
            {
              "internalType": "bool",
              "name": "oracleAMM",
              "type": "bool"
            }
          ],
          "internalType": "struct TrancheFactory.InitParams",
          "name": "params",
          "type": "tuple"
        },
        {
          "internalType": "string[]",
          "name": "names",
          "type": "string[]"
        },
        {
          "internalType": "string",
          "name": "_description",
          "type": "string"
        }
      ],
      "name": "createVault",
      "outputs": [
        {
          "internalType": "uint256",
          "name": "",
          "type": "uint256"
        }
      ],
      "stateMutability": "nonpayable",
      "type": "function"
    },
    {
      "inputs": [
        {
          "internalType": "address",
          "name": "to",
          "type": "address"
        },
        {
          "internalType": "uint256",
          "name": "vaultId",
          "type": "uint256"
        },
        {
          "internalType": "uint256",
          "name": "lpshares",
          "type": "uint256"
        }
      ],
      "name": "decreaseLPTokenBalance",
      "outputs": [],
      "stateMutability": "nonpayable",
      "type": "function"
    },
    {
      "inputs": [
        {
          "internalType": "uint256",
          "name": "vaultId",
          "type": "uint256"
        }
      ],
      "name": "getAmm",
      "outputs": [
        {
          "internalType": "contract SpotPool",
          "name": "",
          "type": "address"
        }
      ],
      "stateMutability": "view",
      "type": "function"
    },
    {
      "inputs": [
        {
          "internalType": "uint256",
          "name": "vaultId",
          "type": "uint256"
        }
      ],
      "name": "getCJunior",
      "outputs": [
        {
          "internalType": "contract CErc20",
          "name": "",
          "type": "address"
        }
      ],
      "stateMutability": "view",
      "type": "function"
    },
    {
      "inputs": [
        {
          "internalType": "uint256",
          "name": "vaultId",
          "type": "uint256"
        }
      ],
      "name": "getCSenior",
      "outputs": [
        {
          "internalType": "contract CErc20",
          "name": "",
          "type": "address"
        }
      ],
      "stateMutability": "view",
      "type": "function"
    },
    {
      "inputs": [
        {
          "internalType": "uint256",
          "name": "vaultId",
          "type": "uint256"
        }
      ],
      "name": "getContracts",
      "outputs": [
        {
          "components": [
            {
              "internalType": "address",
              "name": "vault",
              "type": "address"
            },
            {
              "internalType": "address",
              "name": "splitter",
              "type": "address"
            },
            {
              "internalType": "address",
              "name": "amm",
              "type": "address"
            },
            {
              "internalType": "address",
              "name": "lendingPool",
              "type": "address"
            },
            {
              "internalType": "address",
              "name": "cSenior",
              "type": "address"
            },
            {
              "internalType": "address",
              "name": "cJunior",
              "type": "address"
            },
            {
              "components": [
                {
                  "internalType": "address",
                  "name": "_want",
                  "type": "address"
                },
                {
                  "internalType": "address[]",
                  "name": "_instruments",
                  "type": "address[]"
                },
                {
                  "internalType": "uint256[]",
                  "name": "_ratios",
                  "type": "uint256[]"
                },
                {
                  "internalType": "uint256",
                  "name": "_junior_weight",
                  "type": "uint256"
                },
                {
                  "internalType": "uint256",
                  "name": "_promisedReturn",
                  "type": "uint256"
                },
                {
                  "internalType": "uint256",
                  "name": "inceptionTime",
                  "type": "uint256"
                },
                {
                  "internalType": "uint256",
                  "name": "vaultId",
                  "type": "uint256"
                },
                {
                  "internalType": "uint256",
                  "name": "inceptionPrice",
                  "type": "uint256"
                },
                {
                  "internalType": "bool",
                  "name": "oracleAMM",
                  "type": "bool"
                }
              ],
              "internalType": "struct TrancheFactory.InitParams",
              "name": "param",
              "type": "tuple"
            }
          ],
          "internalType": "struct TrancheFactory.Contracts",
          "name": "",
          "type": "tuple"
        }
      ],
      "stateMutability": "view",
      "type": "function"
    },
    {
      "inputs": [
        {
          "internalType": "address",
          "name": "to",
          "type": "address"
        },
        {
          "internalType": "uint256",
          "name": "vaultId",
          "type": "uint256"
        }
      ],
      "name": "getLPTokenBalance",
      "outputs": [
        {
          "internalType": "uint256",
          "name": "",
          "type": "uint256"
        }
      ],
      "stateMutability": "view",
      "type": "function"
    },
    {
      "inputs": [
        {
          "internalType": "uint256",
          "name": "vaultId",
          "type": "uint256"
        }
      ],
      "name": "getOracle",
      "outputs": [
        {
          "internalType": "address",
          "name": "",
          "type": "address"
        }
      ],
      "stateMutability": "view",
      "type": "function"
    },
    {
      "inputs": [
        {
          "internalType": "uint256",
          "name": "vaultId",
          "type": "uint256"
        }
      ],
      "name": "getParams",
      "outputs": [
        {
          "components": [
            {
              "internalType": "address",
              "name": "_want",
              "type": "address"
            },
            {
              "internalType": "address[]",
              "name": "_instruments",
              "type": "address[]"
            },
            {
              "internalType": "uint256[]",
              "name": "_ratios",
              "type": "uint256[]"
            },
            {
              "internalType": "uint256",
              "name": "_junior_weight",
              "type": "uint256"
            },
            {
              "internalType": "uint256",
              "name": "_promisedReturn",
              "type": "uint256"
            },
            {
              "internalType": "uint256",
              "name": "inceptionTime",
              "type": "uint256"
            },
            {
              "internalType": "uint256",
              "name": "vaultId",
              "type": "uint256"
            },
            {
              "internalType": "uint256",
              "name": "inceptionPrice",
              "type": "uint256"
            },
            {
              "internalType": "bool",
              "name": "oracleAMM",
              "type": "bool"
            }
          ],
          "internalType": "struct TrancheFactory.InitParams",
          "name": "",
          "type": "tuple"
        }
      ],
      "stateMutability": "view",
      "type": "function"
    },
    {
      "inputs": [
        {
          "internalType": "uint256",
          "name": "vaultId",
          "type": "uint256"
        }
      ],
      "name": "getSplitter",
      "outputs": [
        {
          "internalType": "contract Splitter",
          "name": "",
          "type": "address"
        }
      ],
      "stateMutability": "view",
      "type": "function"
    },
    {
      "inputs": [
        {
          "internalType": "uint256",
          "name": "vaultId",
          "type": "uint256"
        }
      ],
      "name": "getSuperVault",
      "outputs": [
        {
          "internalType": "contract tVault",
          "name": "",
          "type": "address"
        }
      ],
      "stateMutability": "view",
      "type": "function"
    },
    {
      "inputs": [],
      "name": "id",
      "outputs": [
        {
          "internalType": "uint256",
          "name": "",
          "type": "uint256"
        }
      ],
      "stateMutability": "view",
      "type": "function"
    },
    {
      "inputs": [
        {
          "internalType": "address",
          "name": "to",
          "type": "address"
        },
        {
          "internalType": "uint256",
          "name": "vaultId",
          "type": "uint256"
        },
        {
          "internalType": "uint256",
          "name": "lpshares",
          "type": "uint256"
        }
      ],
      "name": "increaseLPTokenBalance",
      "outputs": [],
      "stateMutability": "nonpayable",
      "type": "function"
    },
    {
      "inputs": [],
      "name": "numVaults",
      "outputs": [
        {
          "internalType": "uint256",
          "name": "",
          "type": "uint256"
        }
      ],
      "stateMutability": "view",
      "type": "function"
    },
    {
      "inputs": [
        {
          "internalType": "uint256",
          "name": "vaultId",
          "type": "uint256"
        },
        {
          "internalType": "address",
          "name": "newOracle",
          "type": "address"
        },
        {
          "internalType": "bool",
          "name": "assetIsErc20",
          "type": "bool"
        }
      ],
      "name": "setExchangeRateOracle",
      "outputs": [],
      "stateMutability": "nonpayable",
      "type": "function"
    },
    {
      "inputs": [
        {
          "internalType": "address",
          "name": "_tMasterAd",
          "type": "address"
        }
      ],
      "name": "setTrancheMaster",
      "outputs": [],
      "stateMutability": "nonpayable",
      "type": "function"
    },
    {
      "inputs": [
        {
          "internalType": "uint256",
          "name": "",
          "type": "uint256"
        }
      ],
      "name": "vaultContracts",
      "outputs": [
        {
          "internalType": "address",
          "name": "vault",
          "type": "address"
        },
        {
          "internalType": "address",
          "name": "splitter",
          "type": "address"
        },
        {
          "internalType": "address",
          "name": "amm",
          "type": "address"
        },
        {
          "internalType": "address",
          "name": "lendingPool",
          "type": "address"
        },
        {
          "internalType": "address",
          "name": "cSenior",
          "type": "address"
        },
        {
          "internalType": "address",
          "name": "cJunior",
          "type": "address"
        },
        {
          "components": [
            {
              "internalType": "address",
              "name": "_want",
              "type": "address"
            },
            {
              "internalType": "address[]",
              "name": "_instruments",
              "type": "address[]"
            },
            {
              "internalType": "uint256[]",
              "name": "_ratios",
              "type": "uint256[]"
            },
            {
              "internalType": "uint256",
              "name": "_junior_weight",
              "type": "uint256"
            },
            {
              "internalType": "uint256",
              "name": "_promisedReturn",
              "type": "uint256"
            },
            {
              "internalType": "uint256",
              "name": "inceptionTime",
              "type": "uint256"
            },
            {
              "internalType": "uint256",
              "name": "vaultId",
              "type": "uint256"
            },
            {
              "internalType": "uint256",
              "name": "inceptionPrice",
              "type": "uint256"
            },
            {
              "internalType": "bool",
              "name": "oracleAMM",
              "type": "bool"
            }
          ],
          "internalType": "struct TrancheFactory.InitParams",
          "name": "param",
          "type": "tuple"
        }
      ],
      "stateMutability": "view",
      "type": "function"
    },
    {
      "inputs": [
        {
          "internalType": "uint256",
          "name": "",
          "type": "uint256"
        }
      ],
      "name": "vaultCreated",
      "outputs": [
        {
          "internalType": "bool",
          "name": "",
          "type": "bool"
        }
      ],
      "stateMutability": "view",
      "type": "function"
    },
    {
      "inputs": [
        {
          "internalType": "bytes32",
          "name": "",
          "type": "bytes32"
        }
      ],
      "name": "vaultIds",
      "outputs": [
        {
          "internalType": "uint256",
          "name": "",
          "type": "uint256"
        }
      ],
      "stateMutability": "view",
      "type": "function"
    }
  ],
  "bytecode": "0x60806040523480156200001157600080fd5b5060405162005dce38038062005dce833981016040819052620000349162000131565b600180546001600160a01b03199081166001600160a01b038981169190911790925560068054821688841617905560078054821687841617905560058054821686841617905560048054821685841617905560098054909116918316919091179055604051670de0b6b3a7640000908190620000b09062000106565b9182526020820152604001604051809103906000f080158015620000d8573d6000803e3d6000fd5b50600880546001600160a01b0319166001600160a01b039290921691909117905550620001b2945050505050565b61041780620059b783390190565b80516001600160a01b03811681146200012c57600080fd5b919050565b60008060008060008060c087890312156200014b57600080fd5b620001568762000114565b9550620001666020880162000114565b9450620001766040880162000114565b9350620001866060880162000114565b9250620001966080880162000114565b9150620001a660a0880162000114565b90509295509295509295565b6157f580620001c26000396000f3fe60806040523480156200001157600080fd5b50600436106200015d5760003560e01c806365da861c11620000c7578063a424ad0a1162000086578063a424ad0a14620003dc578063af640d0f14620003ff578063b7d593f11462000409578063cf59df4f1462000420578063e91299891462000437578063ee01e731146200044e57600080fd5b806365da861c1462000300578063683d03cc1462000317578063899803661462000346578063991a126e14620003755780639cbfaea914620003a457600080fd5b80633f96f9a711620001205780633f96f9a714620002055780634227577d1462000231578063439e23fd1462000248578063482e2f95146200026e5780635ad25676146200029d5780635f83bcac14620002d457600080fd5b806304211ceb146200016257806308a4f072146200018c57806310a9de6014620001b2578063264a620814620001e257806338b3e69214620001ec575b600080fd5b620001796200017336600462001c83565b62000465565b6040519081526020015b60405180910390f35b620001a36200019d36600462001dd5565b6200071e565b60405162000183919062001f02565b620001c9620001c336600462001dd5565b6200085a565b6040516001600160a01b03909116815260200162000183565b6200017960005481565b62000203620001fd36600462001f1e565b620008d9565b005b620001c96200021636600462001dd5565b6000908152600a60205260409020546001600160a01b031690565b620002036200024236600462001f1e565b62000917565b6200025f6200025936600462001dd5565b6200094b565b60405162000183919062001f56565b620001c96200027f36600462001dd5565b6000908152600a60205260409020600501546001600160a01b031690565b620002c3620002ae36600462001dd5565b600c6020526000908152604090205460ff1681565b604051901515815260200162000183565b620002eb620002e536600462001dd5565b62000b31565b60405162000183979695949392919062001fcc565b620001a36200031136600462002027565b62000c98565b620001c96200032836600462001dd5565b6000908152600a60205260409020600401546001600160a01b031690565b620001c96200035736600462001dd5565b6000908152600a60205260409020600101546001600160a01b031690565b620001c96200038636600462001dd5565b6000908152600a60205260409020600201546001600160a01b031690565b62000179620003b5366004620020fa565b6000908152600b602090815260408083206001600160a01b03949094168352929052205490565b62000179620003ed36600462001dd5565b600d6020526000908152604090205481565b6200017960035481565b620002036200041a36600462001dd5565b62000d65565b620002036200043136600462002129565b620010b9565b62000203620004483660046200216c565b62001155565b620002036200045f36600462001dd5565b6200118f565b6002546000906001600160a01b0316620004be5760405162461bcd60e51b81526020600482015260156024820152741d1c985b98da1953585cdd195c881b9bdd081cd95d605a1b60448201526064015b60405180910390fd5b6003805460c088018190526000818152600c60205260408120805460ff191660011790558254919290620004f283620021a2565b919050555060008733888888886040516200050d90620018be565b6200051e96959493929190620021e9565b604051809103906000f0801580156200053b573d6000803e3d6000fd5b506000838152600a6020908152604090912080546001600160a01b03199081166001600160a01b038581169190911783558c5160068401805490931691161781558b830151805194955091938c9391926200059e926007870192910190620018cc565b5060408201518051620005bc91600284019160209091019062001936565b506060828101516003830155608080840151600484015560a0840151600584015560c0840151600684015560e08401516007840155610100909301516008909201805492151560ff19909316929092179091558a518b820151928c01516040519190921b6bffffffffffffffffffffffff19166020820152603481019290925260548201528390600d9060009060740160405160208183030381529060405280519060200120815260200190815260200160002081905550600560009054906101000a90046001600160a01b03166001600160a01b0316630e0edd6d6040518163ffffffff1660e01b81526004016020604051808303816000875af1158015620006ca573d6000803e3d6000fd5b505050506040513d601f19601f82011682018060405250810190620006f09190620022c9565b60039190910180546001600160a01b0319166001600160a01b03909216919091179055509695505050505050565b6200072862001974565b6000828152600a60209081526040918290208251610120810184526006820180546001600160a01b031682526007909201805485518186028101860190965280865291949293858101939290830182828015620007af57602002820191906000526020600020905b81546001600160a01b0316815260019091019060200180831162000790575b50505050508152602001600282018054806020026020016040519081016040528092919081815260200182805480156200080957602002820191906000526020600020905b815481526020019060010190808311620007f4575b505050918352505060038201546020820152600482015460408201526005820154606082015260068201546080820152600782015460a082015260089091015460ff16151560c09091015292915050565b6000818152600a60209081526040808320548151630797574560e31b815291516001600160a01b0390911692633cbaba2892600480820193918290030181865afa158015620008ad573d6000803e3d6000fd5b505050506040513d601f19601f82011682018060405250810190620008d39190620022c9565b92915050565b6000828152600b602090815260408083206001600160a01b0387168452909152812080548392906200090d908490620022e9565b9091555050505050565b6000828152600b602090815260408083206001600160a01b0387168452909152812080548392906200090d90849062002304565b62000955620019cb565b6000828152600c602052604090205460ff16620009ab5760405162461bcd60e51b815260206004820152601360248201527215985d5b1d08191bd95cdb89dd08195e1a5cdd606a1b6044820152606401620004b5565b6000828152600a6020908152604091829020825160e08101845281546001600160a01b039081168252600183015481168285015260028301548116828601526003830154811660608301526004830154811660808301526005830154811660a083015284516101208101865260068401805490921681526007840180548751818802810188019098528088529396949560c0880195929485820193929183018282801562000a8357602002820191906000526020600020905b81546001600160a01b0316815260019091019060200180831162000a64575b505050505081526020016002820180548060200260200160405190810160405280929190818152602001828054801562000add57602002820191906000526020600020905b81548152602001906001019080831162000ac8575b505050918352505060038201546020820152600482015460408201526005820154606082015260068201546080820152600782015460a082015260089091015460ff16151560c09091015290525092915050565b600a60209081526000918252604091829020805460018201546002830154600384015460048501546005860154885161012081018a526006880180546001600160a01b03908116835260078a0180548d51818e0281018e01909e52808e529982169c9882169b9782169a96821699958216989490911696929491938584019390929083018282801562000bee57602002820191906000526020600020905b81546001600160a01b0316815260019091019060200180831162000bcf575b505050505081526020016002820180548060200260200160405190810160405280929190818152602001828054801562000c4857602002820191906000526020600020905b81548152602001906001019080831162000c33575b505050918352505060038201546020820152600482015460408201526005820154606082015260068201546080820152600782015460a082015260089091015460ff16151560c090910152905087565b62000ca262001974565b6040518061012001604052808d6001600160a01b031681526020018c8c808060200260200160405190810160405280939291908181526020018383602002808284376000920191909152505050908252506040805160208c810282810182019093528c82529283019290918d918d91829185019084908082843760009201919091525050509082525060208101989098526040880196909652506060860193909352608085019190915260a0840152151560c09092019190915295945050505050565b600480546040805163129d2b3360e11b8152815160009485946001600160a01b03169363253a56669380830193919290829003018187875af115801562000db0573d6000803e3d6000fd5b505050506040513d601f19601f8201168201806040525081019062000dd691906200231e565b6000858152600a602052604090206001810154929450909250906001600160a01b031662000e185760405162461bcd60e51b8152600401620004b5906200235d565b600480820180546001600160a01b038087166001600160a01b0319928316179092556005840180548684169216919091179055600183015460408051631d38a5cb60e31b815281516000958695949094169363e9c52e589383820193909291908290030181865afa15801562000e92573d6000803e3d6000fd5b505050506040513d601f19601f8201168201806040525081019062000eb891906200231e565b60028501546040519294509092506000916001600160a01b039091169062000ee09062001a10565b6001600160a01b039091168152602001604051809103906000f08015801562000f0d573d6000803e3d6000fd5b50600385015490915062000f329087908790859087906001600160a01b0316620014e2565b60038401546040516355ee1fe160e01b81526001600160a01b038381166004830152909116906355ee1fe1906024016020604051808303816000875af115801562000f81573d6000803e3d6000fd5b505050506040513d601f19601f8201168201806040525081019062000fa7919062002388565b506003840154604051637201477760e11b81526001600160a01b038881166004830152670b1a2bc2ec50000060248301529091169063e4028eee906044016020604051808303816000875af115801562001005573d6000803e3d6000fd5b505050506040513d601f19601f820116820180604052508101906200102b919062002388565b506003840154604051637201477760e11b81526001600160a01b038781166004830152670b1a2bc2ec50000060248301529091169063e4028eee906044016020604051808303816000875af115801562001089573d6000803e3d6000fd5b505050506040513d601f19601f82011682018060405250810190620010af919062002388565b5050505050505050565b6000838152600a6020526040902080546001600160a01b0316620010f15760405162461bcd60e51b8152600401620004b5906200235d565b80546040516369bfce0b60e11b81526001600160a01b03858116600483015284151560248301529091169063d37f9c1690604401600060405180830381600087803b1580156200114057600080fd5b505af1158015620010af573d6000803e3d6000fd5b6001546001600160a01b031633146200116d57600080fd5b600280546001600160a01b0319166001600160a01b0392909216919091179055565b6000818152600a6020526040902080546001600160a01b0316620011c75760405162461bcd60e51b8152600401620004b5906200235d565b600754815460025460405163091f120d60e31b81526001600160a01b03928316600482015260248101869052908216604482015260009291909116906348f89068906064016020604051808303816000875af11580156200122c573d6000803e3d6000fd5b505050506040513d601f19601f82011682018060405250810190620012529190620022c9565b9050600080826001600160a01b031663e9c52e586040518163ffffffff1660e01b81526004016040805180830381865afa15801562001295573d6000803e3d6000fd5b505050506040513d601f19601f82011682018060405250810190620012bb91906200231e565b600e860154919350915060009060ff1615620013725760095460068601548654604051633c4e8f6160e01b81526001600160a01b0386811660048301528781166024830152928316604482015287831660648201529082166084820152911690633c4e8f619060a4016020604051808303816000875af115801562001344573d6000803e3d6000fd5b505050506040513d601f19601f820116820180604052508101906200136a9190620022c9565b9050620014a9565b600654604051634c0fa89b60e11b81526001600160a01b03848116600483015285811660248301529091169063981f5136906044016020604051808303816000875af1158015620013c7573d6000803e3d6000fd5b505050506040513d601f19601f82011682018060405250810190620013ed9190620022c9565b604051630ed7121b60e11b8152670de0b6b3a764000060048201529091506001600160a01b03821690631dae243690602401600060405180830381600087803b1580156200143a57600080fd5b505af11580156200144f573d6000803e3d6000fd5b50505050806001600160a01b031663013cbdf66040518163ffffffff1660e01b8152600401600060405180830381600087803b1580156200148f57600080fd5b505af1158015620014a4573d6000803e3d6000fd5b505050505b6001850180546001600160a01b03199081166001600160a01b039687161790915560029095018054909516931692909217909255505050565b600854604051637260592160e01b81526001600160a01b0380881692637260592192620015269288928792911690670de0b6b3a764000090601290600401620023a2565b600060405180830381600087803b1580156200154157600080fd5b505af115801562001556573d6000803e3d6000fd5b50506040516353b59fed60e11b81526001600160a01b0388811660048301528416925063a76b3fda91506024016020604051808303816000875af1158015620015a3573d6000803e3d6000fd5b505050506040513d601f19601f82011682018060405250810190620015c9919062002388565b15620016075760405162461bcd60e51b815260206004820152600c60248201526b2732bba6b0b935b2ba22a92960a11b6044820152606401620004b5565b60025460405163023183ab60e21b81526001600160a01b03918216600482015260016024820152908616906308c60eac90604401600060405180830381600087803b1580156200165657600080fd5b505af11580156200166b573d6000803e3d6000fd5b5050600854604051637260592160e01b81526001600160a01b03888116945063726059219350620016b4928792879290911690670de0b6b3a76400009060129060040162002423565b600060405180830381600087803b158015620016cf57600080fd5b505af1158015620016e4573d6000803e3d6000fd5b50506040516353b59fed60e11b81526001600160a01b0387811660048301528416925063a76b3fda91506024016020604051808303816000875af115801562001731573d6000803e3d6000fd5b505050506040513d601f19601f8201168201806040525081019062001757919062002388565b15620017955760405162461bcd60e51b815260206004820152600c60248201526b2732bba6b0b935b2ba22a92960a11b6044820152606401620004b5565b60025460405163023183ab60e21b81526001600160a01b03918216600482015260006024820152908516906308c60eac90604401600060405180830381600087803b158015620017e457600080fd5b505af1158015620017f9573d6000803e3d6000fd5b50506040516340c3fa8b60e11b81526001600160a01b03878116600483015288169250638187f5169150602401600060405180830381600087803b1580156200184157600080fd5b505af115801562001856573d6000803e3d6000fd5b50506040516340c3fa8b60e11b81526001600160a01b03888116600483015287169250638187f5169150602401600060405180830381600087803b1580156200189e57600080fd5b505af1158015620018b3573d6000803e3d6000fd5b505050505050505050565b61311f806200249483390190565b82805482825590600052602060002090810192821562001924579160200282015b828111156200192457825182546001600160a01b0319166001600160a01b03909116178255602090920191600190910190620018ed565b506200193292915062001a1e565b5090565b82805482825590600052602060002090810192821562001924579160200282015b828111156200192457825182559160200191906001019062001957565b60405180610120016040528060006001600160a01b03168152602001606081526020016060815260200160008152602001600081526020016000815260200160008152602001600081526020016000151581525090565b6040805160e081018252600080825260208201819052918101829052606081018290526080810182905260a081019190915260c0810162001a0b62001974565b905290565b61020d80620055b383390190565b5b8082111562001932576000815560010162001a1f565b634e487b7160e01b600052604160045260246000fd5b604051610120810167ffffffffffffffff8111828210171562001a725762001a7262001a35565b60405290565b604051601f8201601f1916810167ffffffffffffffff8111828210171562001aa45762001aa462001a35565b604052919050565b6001600160a01b038116811462001ac257600080fd5b50565b803562001ad28162001aac565b919050565b600067ffffffffffffffff82111562001af45762001af462001a35565b5060051b60200190565b600082601f83011262001b1057600080fd5b8135602062001b2962001b238362001ad7565b62001a78565b82815260059290921b8401810191818101908684111562001b4957600080fd5b8286015b8481101562001b7157803562001b638162001aac565b835291830191830162001b4d565b509695505050505050565b600082601f83011262001b8e57600080fd5b8135602062001ba162001b238362001ad7565b82815260059290921b8401810191818101908684111562001bc157600080fd5b8286015b8481101562001b71578035835291830191830162001bc5565b8035801515811462001ad257600080fd5b60008083601f84011262001c0257600080fd5b50813567ffffffffffffffff81111562001c1b57600080fd5b6020830191508360208260051b850101111562001c3757600080fd5b9250929050565b60008083601f84011262001c5157600080fd5b50813567ffffffffffffffff81111562001c6a57600080fd5b60208301915083602082850101111562001c3757600080fd5b60008060008060006060868803121562001c9c57600080fd5b853567ffffffffffffffff8082111562001cb557600080fd5b90870190610120828a03121562001ccb57600080fd5b62001cd562001a4b565b62001ce08362001ac5565b815260208301358281111562001cf557600080fd5b62001d038b82860162001afe565b60208301525060408301358281111562001d1c57600080fd5b62001d2a8b82860162001b7c565b604083015250606083013560608201526080830135608082015260a083013560a082015260c083013560c082015260e083013560e082015261010062001d7281850162001bde565b908201529650602088013591508082111562001d8d57600080fd5b62001d9b89838a0162001bef565b9096509450604088013591508082111562001db557600080fd5b5062001dc48882890162001c3e565b969995985093965092949392505050565b60006020828403121562001de857600080fd5b5035919050565b600081518084526020808501945080840160005b8381101562001e2a5781516001600160a01b03168752958201959082019060010162001e03565b509495945050505050565b600081518084526020808501945080840160005b8381101562001e2a5781518752958201959082019060010162001e49565b80516001600160a01b031682526000610120602083015181602086015262001e928286018262001def565b9150506040830151848203604086015262001eae828262001e35565b915050606083015160608501526080830151608085015260a083015160a085015260c083015160c085015260e083015160e08501526101008084015162001ef88287018215159052565b5090949350505050565b60208152600062001f17602083018462001e67565b9392505050565b60008060006060848603121562001f3457600080fd5b833562001f418162001aac565b95602085013595506040909401359392505050565b60208152600060018060a01b038084511660208401528060208501511660408401528060408501511660608401528060608501511660808401528060808501511660a08401528060a08501511660c08401525060c083015160e08084015262001fc461010084018262001e67565b949350505050565b6001600160a01b0388811682528781166020830152868116604083015285811660608301528481166080830152831660a082015260e060c082018190526000906200201a9083018462001e67565b9998505050505050505050565b60008060008060008060008060008060006101208c8e0312156200204a57600080fd5b620020568c3562001aac565b8b359a5067ffffffffffffffff8060208e013511156200207557600080fd5b620020878e60208f01358f0162001bef565b909b50995060408d01358110156200209e57600080fd5b50620020b18d60408e01358e0162001bef565b909850965060608c0135955060808c0135945060a08c0135935060c08c0135925060e08c01359150620020e86101008d0162001bde565b90509295989b509295989b9093969950565b600080604083850312156200210e57600080fd5b82356200211b8162001aac565b946020939093013593505050565b6000806000606084860312156200213f57600080fd5b833592506020840135620021538162001aac565b9150620021636040850162001bde565b90509250925092565b6000602082840312156200217f57600080fd5b813562001f178162001aac565b634e487b7160e01b600052601160045260246000fd5b6000600019821415620021b957620021b96200218c565b5060010190565b81835281816020850137506000828201602090810191909152601f909101601f19169091010190565b608081526000620021fe608083018962001e67565b6001600160a01b0388166020848101919091528382036040850152868252818101600588901b830182018960005b8a811015620022a257858303601f190184528135368d9003601e190181126200225457600080fd5b8c01803567ffffffffffffffff8111156200226e57600080fd5b8036038e13156200227e57600080fd5b6200228d8582898501620021c0565b9587019594505050908401906001016200222c565b50508581036060870152620022b981888a620021c0565b9c9b505050505050505050505050565b600060208284031215620022dc57600080fd5b815162001f178162001aac565b60008219821115620022ff57620022ff6200218c565b500190565b6000828210156200231957620023196200218c565b500390565b600080604083850312156200233257600080fd5b82516200233f8162001aac565b6020840151909250620023528162001aac565b809150509250929050565b6020808252601190820152701a5b98dbdc9c9958dd081d985d5b1d1259607a1b604082015260600190565b6000602082840312156200239b57600080fd5b5051919050565b6001600160a01b0386811682528581166020830152841660408201526060810183905260e0608082018190526007908201526631a9b2b734b7b960c91b6101008201526000610120820182810360a0840152600781526631a9b2b734b7b960c91b6020820152604081015b91505060ff831660c08301529695505050505050565b6001600160a01b0386811682528581166020830152841660408201526060810183905260e0608082018190526007908201526631a53ab734b7b960c91b6101008201526000610120820182810360a0840152600781526631a53ab734b7b960c91b6020820152604081016200240d56fe6101406040523480156200001257600080fd5b506040516200311f3803806200311f8339810160408190526200003591620008ee565b836000015184600001516001600160a01b03166306fdde036040518163ffffffff1660e01b8152600401600060405180830381865afa1580156200007d573d6000803e3d6000fd5b505050506040513d6000823e601f3d908101601f19168201604052620000a7919081019062000a45565b604051602001620000b9919062000a7d565b60405160208183030381529060405285600001516001600160a01b03166306fdde036040518163ffffffff1660e01b8152600401600060405180830381865afa1580156200010b573d6000803e3d6000fd5b505050506040513d6000823e601f3d908101601f1916820160405262000135919081019062000a45565b60405160200162000147919062000a7d565b6040516020818303038152906040528181601282600090805190602001906200017292919062000419565b5081516200018890600190602085019062000419565b5060ff81166080524660a0526200019e6200037d565b60c0525050506001600160a01b0390921660e052505060208401515160408501515114620002135760405162461bcd60e51b815260206004820152601460248201527f496e636f7272656374206e756d20726174696f7300000000000000000000000060448201526064015b60405180910390fd5b8351600880546001600160a01b0319166001600160a01b0390921691909117905560208085015180516200024c92600b920190620004a8565b5060208085015151600955604085015180516200026e92600a92019062000500565b506060840151600c556080840151600d5542600e5560e0840151600f558151620002a09060129060208501906200053d565b508051620002b690601390602084019062000419565b50670de0b6b3a764000061010052436014556001600160a01b038316610120526000805b600a548110156200032a57600a8181548110620002fb57620002fb62000aaa565b90600052602060002001548262000313919062000ad6565b915080620003218162000af1565b915050620002da565b50610100518114620003725760405162461bcd60e51b815260206004820152601060248201526f496e636f727265637420726174696f7360801b60448201526064016200020a565b505050505062000bf0565b60007f8b73c3c69bb8fe3d512ecc4cf759cc79239f7b179b0ffacaa9a75d522b39400f6000604051620003b1919062000b4c565b6040805191829003822060208301939093528101919091527fc89efdaa54c0f20c7adf612882df0950f5a951637e0307cdcb4c672f298b8bc660608201524660808201523060a082015260c00160405160208183030381529060405280519060200120905090565b828054620004279062000b0f565b90600052602060002090601f0160209004810192826200044b576000855562000496565b82601f106200046657805160ff191683800117855562000496565b8280016001018555821562000496579182015b828111156200049657825182559160200191906001019062000479565b50620004a49291506200059d565b5090565b82805482825590600052602060002090810192821562000496579160200282015b828111156200049657825182546001600160a01b0319166001600160a01b03909116178255602090920191600190910190620004c9565b8280548282559060005260206000209081019282156200049657916020028201828111156200049657825182559160200191906001019062000479565b8280548282559060005260206000209081019282156200058f579160200282015b828111156200058f57825180516200057e91849160209091019062000419565b50916020019190600101906200055e565b50620004a4929150620005b4565b5b80821115620004a457600081556001016200059e565b80821115620004a4576000620005cb8282620005d5565b50600101620005b4565b508054620005e39062000b0f565b6000825580601f10620005f4575050565b601f0160209004906000526020600020908101906200061491906200059d565b50565b634e487b7160e01b600052604160045260246000fd5b60405161012081016001600160401b038111828210171562000653576200065362000617565b60405290565b604051601f8201601f191681016001600160401b038111828210171562000684576200068462000617565b604052919050565b80516001600160a01b0381168114620006a457600080fd5b919050565b60006001600160401b03821115620006c557620006c562000617565b5060051b60200190565b600082601f830112620006e157600080fd5b81516020620006fa620006f483620006a9565b62000659565b82815260059290921b840181019181810190868411156200071a57600080fd5b8286015b84811015620007405762000732816200068c565b83529183019183016200071e565b509695505050505050565b600082601f8301126200075d57600080fd5b8151602062000770620006f483620006a9565b82815260059290921b840181019181810190868411156200079057600080fd5b8286015b8481101562000740578051835291830191830162000794565b80518015158114620006a457600080fd5b60005b83811015620007db578181015183820152602001620007c1565b83811115620007eb576000848401525b50505050565b600082601f8301126200080357600080fd5b81516001600160401b038111156200081f576200081f62000617565b62000834601f8201601f191660200162000659565b8181528460208386010111156200084a57600080fd5b6200085d826020830160208701620007be565b949350505050565b600082601f8301126200087757600080fd5b815160206200088a620006f483620006a9565b82815260059290921b84018101918181019086841115620008aa57600080fd5b8286015b84811015620007405780516001600160401b03811115620008cf5760008081fd5b620008df8986838b0101620007f1565b845250918301918301620008ae565b600080600080608085870312156200090557600080fd5b84516001600160401b03808211156200091d57600080fd5b9086019061012082890312156200093357600080fd5b6200093d6200062d565b62000948836200068c565b81526020830151828111156200095d57600080fd5b6200096b8a828601620006cf565b6020830152506040830151828111156200098457600080fd5b620009928a8286016200074b565b604083015250606083015160608201526080830151608082015260a083015160a082015260c083015160c082015260e083015160e0820152610100620009da818501620007ad565b908201529550620009ee602088016200068c565b9450604087015191508082111562000a0557600080fd5b62000a138883890162000865565b9350606087015191508082111562000a2a57600080fd5b5062000a3987828801620007f1565b91505092959194509250565b60006020828403121562000a5857600080fd5b81516001600160401b0381111562000a6f57600080fd5b6200085d84828501620007f1565b6000825162000a91818460208701620007be565b66081d15985d5b1d60ca1b920191825250600701919050565b634e487b7160e01b600052603260045260246000fd5b634e487b7160e01b600052601160045260246000fd5b6000821982111562000aec5762000aec62000ac0565b500190565b600060001982141562000b085762000b0862000ac0565b5060010190565b600181811c9082168062000b2457607f821691505b6020821081141562000b4657634e487b7160e01b600052602260045260246000fd5b50919050565b600080835481600182811c91508083168062000b6957607f831692505b602080841082141562000b8a57634e487b7160e01b86526022600452602486fd5b81801562000ba1576001811462000bb35762000be2565b60ff1986168952848901965062000be2565b60008a81526020902060005b8681101562000bda5781548b82015290850190830162000bbf565b505084890196505b509498975050505050505050565b60805160a05160c05160e05161010051610120516124a762000c7860003960006103820152600081816105fa01528181610b5e015281816118c20152611af90152600081816104bd01528181610eb101528181611057015281816112610152818161151b0152611baa01526000610c3b01526000610c0b0152600061046a01526124a76000f3fe608060405234801561001057600080fd5b506004361061035d5760003560e01c8063771dc86a116101d3578063c70acd8a11610104578063d505accf116100a2578063dd62ed3e1161007c578063dd62ed3e14610775578063e31fbfa2146107a0578063e6dbd1c3146107a8578063ef8b30f7146107b057600080fd5b8063d505accf14610730578063d7fdefca14610743578063d905777e1461074c57600080fd5b8063cd838f0f116100de578063cd838f0f146106be578063ce96cb77146106d3578063d09a2c99146106e6578063d37f9c16146106ee57600080fd5b8063c70acd8a146106a4578063c79eff3a146106ad578063c9230c5d146106b657600080fd5b8063b3d7f6b911610171578063ba0876521161014b578063ba08765214610676578063bd2d87eb14610689578063c63d75b6146104f2578063c6e6f5921461069157600080fd5b8063b3d7f6b914610648578063b460af941461065b578063b6c604261461066e57600080fd5b806395082d25116101ad57806395082d25146105f557806395d89b411461061c5780639816f47314610624578063a9059cbb1461063557600080fd5b8063771dc86a146105af5780637ecebe00146105c257806394bf804d146105e257600080fd5b806334fd2eca116102ad5780634b3ceabd1161024b5780636b8f8e1f116102255780636b8f8e1f1461056b5780636e553f651461057457806370a08231146105875780637251d389146105a757600080fd5b80634b3ceabd146105485780634cdad506146105505780634fe2f0ed1461056357600080fd5b80633cbaba28116102875780633cbaba28146104df578063402d267d146104f25780634622ab03146105075780634796c5471461051a57600080fd5b806334fd2eca146104a85780633644e515146104b057806338d52e0f146104b857600080fd5b806312b495a81161031a57806322bbad0b116102f457806322bbad0b1461043f57806323b872dd14610452578063313ce56714610465578063318b5e1b1461049e57600080fd5b806312b495a81461041a57806318160ddd146104235780631f1fcd511461042c57600080fd5b806301e1d1141461036257806302d05d3f1461037d57806306fdde03146103bc57806307a2d13a146103d1578063095ea7b3146103e45780630a28a47714610407575b600080fd5b61036a6107c3565b6040519081526020015b60405180910390f35b6103a47f000000000000000000000000000000000000000000000000000000000000000081565b6040516001600160a01b039091168152602001610374565b6103c46107e4565b604051610374919061202a565b61036a6103df36600461203d565b610872565b6103f76103f2366004612072565b61089f565b6040519015158152602001610374565b61036a61041536600461203d565b61090c565b61036a60105481565b61036a60025481565b6008546103a4906001600160a01b031681565b6103a461044d36600461203d565b61092c565b6103f761046036600461209c565b610956565b61048c7f000000000000000000000000000000000000000000000000000000000000000081565b60405160ff9091168152602001610374565b6104a6610a36565b005b600d5461036a565b61036a610c07565b6103a47f000000000000000000000000000000000000000000000000000000000000000081565b6015546103a4906001600160a01b031681565b61036a6105003660046120d8565b5060001990565b6103c461051536600461203d565b610c5d565b61052d61052836600461203d565b610c88565b60408051938452602084019290925290820152606001610374565b61036a600a81565b61036a61055e36600461203d565b610e3f565b6103c4610e4a565b61036a600d5481565b61036a6105823660046120f3565b610e57565b61036a6105953660046120d8565b60036020526000908152604090205481565b61036a610f42565b61036a6105bd36600461203d565b611014565b61036a6105d03660046120d8565b60056020526000908152604090205481565b61036a6105f03660046120f3565b611035565b61036a7f000000000000000000000000000000000000000000000000000000000000000081565b6103c46110df565b6008546001600160a01b03166103a4565b6103f7610643366004612072565b6110ec565b61036a61065636600461203d565b611152565b61036a61066936600461211f565b611171565b61036a611288565b61036a61068436600461211f565b6113e8565b6103c4611542565b61036a61069f36600461203d565b61154f565b61036a600c5481565b61036a600e5481565b6103c461156f565b6106c661157c565b604051610374919061215b565b61036a6106e13660046120d8565b611655565b61036a606481565b6104a66106fc3660046121bd565b601580546001600160a01b0319166001600160a01b0393909316929092179091556011805460ff1916911515919091179055565b6104a661073e3660046121f9565b611677565b61036a600f5481565b61036a61075a3660046120d8565b6001600160a01b031660009081526003602052604090205490565b61036a61078336600461226c565b600460209081526000928352604080842090915290825290205481565b600c5461036a565b61036a6118bb565b61036a6107be36600461203d565b6118e6565b60115460009060ff166107dd576107d8611288565b905090565b5060025490565b600080546107f190612296565b80601f016020809104026020016040519081016040528092919081815260200182805461081d90612296565b801561086a5780601f1061083f5761010080835404028352916020019161086a565b820191906000526020600020905b81548152906001019060200180831161084d57829003601f168201915b505050505081565b6002546000908015610896576108916108896107c3565b8490836118f1565b610898565b825b9392505050565b3360008181526004602090815260408083206001600160a01b038716808552925280832085905551919290917f8c5be1e5ebec7d5bd14f71427d1e84f3dd0314c0f7b2291e5b200ac8c7c3b925906108fa9086815260200190565b60405180910390a35060015b92915050565b600254600090801561089657610891816109246107c3565b859190611910565b600b818154811061093c57600080fd5b6000918252602090912001546001600160a01b0316905081565b6001600160a01b038316600090815260046020908152604080832033845290915281205460001981146109b25761098d83826122e7565b6001600160a01b03861660009081526004602090815260408083203384529091529020555b6001600160a01b038516600090815260036020526040812080548592906109da9084906122e7565b90915550506001600160a01b038085166000818152600360205260409081902080548701905551909187169060008051602061245283398151915290610a239087815260200190565b60405180910390a3506001949350505050565b601454431480610a48575060115460ff165b15610a4f57565b6015546001600160a01b031615610b4b57604080518082018083526015546339aa885b60e21b909152915190918291610add916001600160a01b03169063e6aa216c906044808601916020918188030181865afa158015610ab4573d6000803e3d6000fd5b505050506040513d601f19601f82011682018060405250810190610ad891906122fe565b61193e565b6001600160801b03168152602001610af660025461193e565b6001600160801b0316815250601760006064601654610b15919061232d565b8152602080820192909252604001600020825192909101516001600160801b03908116600160801b029216919091179055610bec565b6040518060400160405280610b82610ad87f0000000000000000000000000000000000000000000000000000000000000000611152565b6001600160801b03168152602001610b9b60025461193e565b6001600160801b0316815250601760006064601654610bba919061232d565b8152602080820192909252604001600020825192909101516001600160801b03908116600160801b0292169190911790555b60168054906000610bfc83612341565b909155505043601455565b60007f00000000000000000000000000000000000000000000000000000000000000004614610c38576107d8611954565b507f000000000000000000000000000000000000000000000000000000000000000090565b60128181548110610c6d57600080fd5b9060005260206000200160009150905080546107f190612296565b60008080808080865b8015610d39576000818152601760205260409020546001600160801b0316610cb857610d29565b600081815260176020526040902054610ce190600160801b90046001600160801b03168561235c565b600082815260176020526040902054909450610d0f906001600160801b03600160801b8204811691166119ee565b610d19908461235c565b925081610d2581612341565b9250505b610d3281612374565b9050610c91565b506000805260176020527fd840e16649f6b9a295d95876f4633d3a6b10b55e8162971cf78afd886d5ec89b546001600160801b031615610e1c576000805260176020527fd840e16649f6b9a295d95876f4633d3a6b10b55e8162971cf78afd886d5ec89b54610db890600160801b90046001600160801b03168461235c565b6000805260176020527fd840e16649f6b9a295d95876f4633d3a6b10b55e8162971cf78afd886d5ec89b54909350610e02906001600160801b03600160801b8204811691166119ee565b610e0c908361235c565b915080610e1881612341565b9150505b610e26818461238b565b610e30828461238b565b90989097509095509350505050565b600061090682610872565b601380546107f190612296565b6000610e62836118e6565b905080610ea45760405162461bcd60e51b815260206004820152600b60248201526a5a45524f5f53484152455360a81b60448201526064015b60405180910390fd5b610ed96001600160a01b037f000000000000000000000000000000000000000000000000000000000000000016333086611a03565b60115460ff16610eec57610eec81611a8d565b610ef68282611d42565b60408051848152602081018390526001600160a01b0384169133917fdcbc1c05240f31ff3ad067ef1ee35ce4997762752e3a095284754544f4c709d791015b60405180910390a3610906565b60115460009060ff16610f57576107d8611288565b6015546001600160a01b0316610f9b5760405162461bcd60e51b81526020600482015260096024820152684e6f206f7261636c6560b81b6044820152606401610e9b565b600254601554604080516339aa885b60e21b815290516107d893926001600160a01b03169163e6aa216c9160048083019260209291908290030181865afa158015610fea573d6000803e3d6000fd5b505050506040513d601f19601f8201168201806040525081019061100e91906122fe565b906119ee565b600a818154811061102457600080fd5b600091825260209091200154905081565b600061103f610a36565b61104883611152565b905061107f6001600160a01b037f000000000000000000000000000000000000000000000000000000000000000016333084611a03565b60115460ff166110925761109283611a8d565b61109c8284611d42565b60408051828152602081018590526001600160a01b0384169133917fdcbc1c05240f31ff3ad067ef1ee35ce4997762752e3a095284754544f4c709d79101610f35565b600180546107f190612296565b3360009081526003602052604081208054839190839061110d9084906122e7565b90915550506001600160a01b03831660008181526003602052604090819020805485019055513390600080516020612452833981519152906108fa9086815260200190565b6002546000908015610896576108916111696107c3565b849083611910565b600061117c8461090c565b9050336001600160a01b038316146111ec576001600160a01b038216600090815260046020908152604080832033845290915290205460001981146111ea576111c582826122e7565b6001600160a01b03841660009081526004602090815260408083203384529091529020555b505b60115460ff166111ff576111ff84611d9c565b6112098282611e8c565b60408051858152602081018390526001600160a01b03808516929086169133917ffbde797d201c681b91056529119e0b02407c7bb96a4a2c75c01fc9667232c8db910160405180910390a46108986001600160a01b037f0000000000000000000000000000000000000000000000000000000000000000168486611eee565b60008080805b6009548110156113c957600b81815481106112ab576112ab61239f565b6000918252602090912001546040516370a0823160e01b81523060048201526001600160a01b03909116906370a0823190602401602060405180830381865afa1580156112fc573d6000803e3d6000fd5b505050506040513d601f19601f8201168201806040525081019061132091906122fe565b9150600b81815481106113355761133561239f565b6000918252602090912001546040516303d1689d60e11b8152600481018490526001600160a01b03909116906307a2d13a90602401602060405180830381865afa158015611387573d6000803e3d6000fd5b505050506040513d601f19601f820116820180604052508101906113ab91906122fe565b6113b5908461235c565b9250806113c181612341565b91505061128e565b506010546113d790836119ee565b6113e1908361235c565b9250505090565b60006113f2610a36565b336001600160a01b03831614611460576001600160a01b0382166000908152600460209081526040808320338452909152902054600019811461145e5761143985826122e7565b6001600160a01b03841660009081526004602090815260408083203384529091529020555b505b61146984610e3f565b9050806114a65760405162461bcd60e51b815260206004820152600b60248201526a5a45524f5f41535345545360a81b6044820152606401610e9b565b60115460ff166114b9576114b981611d9c565b6114c38285611e8c565b60408051828152602081018690526001600160a01b03808516929086169133917ffbde797d201c681b91056529119e0b02407c7bb96a4a2c75c01fc9667232c8db910160405180910390a46108986001600160a01b037f0000000000000000000000000000000000000000000000000000000000000000168483611eee565b600780546107f190612296565b600254600090801561089657610891816115676107c3565b8591906118f1565b600680546107f190612296565b60606012805480602002602001604051908101604052809291908181526020016000905b8282101561164c5783829060005260206000200180546115bf90612296565b80601f01602080910402602001604051908101604052809291908181526020018280546115eb90612296565b80156116385780601f1061160d57610100808354040283529160200191611638565b820191906000526020600020905b81548152906001019060200180831161161b57829003601f168201915b5050505050815260200190600101906115a0565b50505050905090565b6001600160a01b03811660009081526003602052604081205461090690610872565b428410156116c75760405162461bcd60e51b815260206004820152601760248201527f5045524d49545f444541444c494e455f455850495245440000000000000000006044820152606401610e9b565b600060016116d3610c07565b6001600160a01b038a811660008181526005602090815260409182902080546001810190915582517f6e71edae12b1b97f4d1f60370fef10105fa2faae0126114a169c64845d6126c98184015280840194909452938d166060840152608083018c905260a083019390935260c08083018b90528151808403909101815260e08301909152805192019190912061190160f01b6101008301526101028201929092526101228101919091526101420160408051601f198184030181528282528051602091820120600084529083018083525260ff871690820152606081018590526080810184905260a0016020604051602081039080840390855afa1580156117df573d6000803e3d6000fd5b5050604051601f1901519150506001600160a01b038116158015906118155750876001600160a01b0316816001600160a01b0316145b6118525760405162461bcd60e51b815260206004820152600e60248201526d24a72b20a624a22fa9a4a3a722a960911b6044820152606401610e9b565b6001600160a01b0390811660009081526004602090815260408083208a8516808552908352928190208990555188815291928a16917f8c5be1e5ebec7d5bd14f71427d1e84f3dd0314c0f7b2291e5b200ac8c7c3b925910160405180910390a350505050505050565b60006107d87f0000000000000000000000000000000000000000000000000000000000000000611152565b60006109068261154f565b82820281151584158583048514171661190957600080fd5b0492915050565b82820281151584158583048514171661192857600080fd5b6001826001830304018115150290509392505050565b6000600160801b821061195057600080fd5b5090565b60007f8b73c3c69bb8fe3d512ecc4cf759cc79239f7b179b0ffacaa9a75d522b39400f600060405161198691906123b5565b6040805191829003822060208301939093528101919091527fc89efdaa54c0f20c7adf612882df0950f5a951637e0307cdcb4c672f298b8bc660608201524660808201523060a082015260c00160405160208183030381529060405280519060200120905090565b60006108988383670de0b6b3a76400006118f1565b60006040516323b872dd60e01b81528460048201528360248201528260448201526020600060648360008a5af13d15601f3d1160016000511416171691505080611a865760405162461bcd60e51b81526020600482015260146024820152731514905394d1915497d19493d357d1905253115160621b6044820152606401610e9b565b5050505050565b60008060005b600954811015611d3c57600b8181548110611ab057611ab061239f565b600091825260209091200154600a80546001600160a01b03909216935083916307a2d13a91611b1d9185908110611ae957611ae961239f565b60009182526020909120015487907f00000000000000000000000000000000000000000000000000000000000000006118f1565b6040518263ffffffff1660e01b8152600401611b3b91815260200190565b602060405180830381865afa158015611b58573d6000803e3d6000fd5b505050506040513d601f19601f82011682018060405250810190611b7c91906122fe565b9250611bd3600b8281548110611b9457611b9461239f565b6000918252602090912001546001600160a01b037f00000000000000000000000000000000000000000000000000000000000000008116911685611f66565b60405163402d267d60e01b81523060048201526001600160a01b0383169063402d267d90602401602060405180830381865afa158015611c17573d6000803e3d6000fd5b505050506040513d601f19601f82011682018060405250810190611c3b91906122fe565b831115611c775760405162461bcd60e51b815260206004820152600a602482015269135a5b9d08131a5b5a5d60b21b6044820152606401610e9b565b604051636e553f6560e01b8152600481018490523060248201526000906001600160a01b03841690636e553f65906044016020604051808303816000875af1158015611cc7573d6000803e3d6000fd5b505050506040513d601f19601f82011682018060405250810190611ceb91906122fe565b1015611d2a5760405162461bcd60e51b815260206004820152600e60248201526d11985a5b19590811195c1bdcda5d60921b6044820152606401610e9b565b80611d3481612341565b915050611a93565b50505050565b8060026000828254611d54919061235c565b90915550506001600160a01b03821660008181526003602090815260408083208054860190555184815260008051602061245283398151915291015b60405180910390a35050565b6000805b600954811015611e8757611dda600a8281548110611dc057611dc061239f565b9060005260206000200154846119ee90919063ffffffff16565b9150600b8181548110611def57611def61239f565b600091825260209091200154604051632d182be560e21b815260048101849052306024820181905260448201526001600160a01b039091169063b460af94906064016020604051808303816000875af1158015611e50573d6000803e3d6000fd5b505050506040513d601f19601f82011682018060405250810190611e7491906122fe565b5080611e7f81612341565b915050611da0565b505050565b6001600160a01b03821660009081526003602052604081208054839290611eb49084906122e7565b90915550506002805482900390556040518181526000906001600160a01b0384169060008051602061245283398151915290602001611d90565b600060405163a9059cbb60e01b8152836004820152826024820152602060006044836000895af13d15601f3d1160016000511416171691505080611d3c5760405162461bcd60e51b815260206004820152600f60248201526e1514905394d1915497d19052531151608a1b6044820152606401610e9b565b600060405163095ea7b360e01b8152836004820152826024820152602060006044836000895af13d15601f3d1160016000511416171691505080611d3c5760405162461bcd60e51b815260206004820152600e60248201526d1054141493d59157d1905253115160921b6044820152606401610e9b565b6000815180845260005b8181101561200357602081850181015186830182015201611fe7565b81811115612015576000602083870101525b50601f01601f19169290920160200192915050565b6020815260006108986020830184611fdd565b60006020828403121561204f57600080fd5b5035919050565b80356001600160a01b038116811461206d57600080fd5b919050565b6000806040838503121561208557600080fd5b61208e83612056565b946020939093013593505050565b6000806000606084860312156120b157600080fd5b6120ba84612056565b92506120c860208501612056565b9150604084013590509250925092565b6000602082840312156120ea57600080fd5b61089882612056565b6000806040838503121561210657600080fd5b8235915061211660208401612056565b90509250929050565b60008060006060848603121561213457600080fd5b8335925061214460208501612056565b915061215260408501612056565b90509250925092565b6000602080830181845280855180835260408601915060408160051b870101925083870160005b828110156121b057603f1988860301845261219e858351611fdd565b94509285019290850190600101612182565b5092979650505050505050565b600080604083850312156121d057600080fd5b6121d983612056565b9150602083013580151581146121ee57600080fd5b809150509250929050565b600080600080600080600060e0888a03121561221457600080fd5b61221d88612056565b965061222b60208901612056565b95506040880135945060608801359350608088013560ff8116811461224f57600080fd5b9699959850939692959460a0840135945060c09093013592915050565b6000806040838503121561227f57600080fd5b61228883612056565b915061211660208401612056565b600181811c908216806122aa57607f821691505b602082108114156122cb57634e487b7160e01b600052602260045260246000fd5b50919050565b634e487b7160e01b600052601160045260246000fd5b6000828210156122f9576122f96122d1565b500390565b60006020828403121561231057600080fd5b5051919050565b634e487b7160e01b600052601260045260246000fd5b60008261233c5761233c612317565b500690565b6000600019821415612355576123556122d1565b5060010190565b6000821982111561236f5761236f6122d1565b500190565b600081612383576123836122d1565b506000190190565b60008261239a5761239a612317565b500490565b634e487b7160e01b600052603260045260246000fd5b600080835481600182811c9150808316806123d157607f831692505b60208084108214156123f157634e487b7160e01b86526022600452602486fd5b818015612405576001811461241657612443565b60ff19861689528489019650612443565b60008a81526020902060005b8681101561243b5781548b820152908501908301612422565b505084890196505b50949897505050505050505056feddf252ad1be2c89b69c2b068fc378daa952ba7f163c4a11628f55a4df523b3efa264697066735822122016e7037f68c0af629b90ff77e1e6c0713f59329d715c3da4b0d0f12209c3319564736f6c634300080a0033608060405234801561001057600080fd5b5060405161020d38038061020d83398101604081905261002f91610062565b60008054336001600160a01b031991821617909155600180549091166001600160a01b0392909216919091179055610092565b60006020828403121561007457600080fd5b81516001600160a01b038116811461008b57600080fd5b9392505050565b61016c806100a16000396000f3fe608060405234801561001057600080fd5b50600436106100365760003560e01c806366331bba1461003b578063fc57d4df14610058575b600080fd5b610043600181565b60405190151581526020015b60405180910390f35b61006b6100663660046100ed565b610079565b60405190815260200161004f565b600154604080516308f38aeb60e11b815290516000926001600160a01b0316916311e715d69160048083019260209291908290030181865afa1580156100c3573d6000803e3d6000fd5b505050506040513d601f19601f820116820180604052508101906100e7919061011d565b92915050565b6000602082840312156100ff57600080fd5b81356001600160a01b038116811461011657600080fd5b9392505050565b60006020828403121561012f57600080fd5b505191905056fea2646970667358221220638aac03b0b26fb0df8f0889a3a99f0cd1392fede661236d8c5763cd942df25764736f6c634300080a0033a264697066735822122033b1ddb4353169b5840a8d4bb50b8093653418381a8c797c82b3f0be289dce6064736f6c634300080a0033608060405234801561001057600080fd5b5060405161041738038061041783398101604081905261002f91610099565b61003c62201480836100bd565b60015561004c62201480826100bd565b60008190556001546040517ff35fa19c15e9ba782633a5df62a98b20217151addc68e3ff2cd623a48d37ec279261008a928252602082015260400190565b60405180910390a150506100df565b600080604083850312156100ac57600080fd5b505080516020909101519092909150565b6000826100da57634e487b7160e01b600052601260045260246000fd5b500490565b610329806100ee6000396000f3fe608060405234801561001057600080fd5b506004361061007d5760003560e01c80638726bb891161005b5780638726bb89146100d3578063a385fb96146100dc578063b8168816146100e6578063f14039de146100f957600080fd5b806315f24053146100825780632191f92a146100a85780636e71e2d8146100c0575b600080fd5b61009561009036600461020f565b610102565b6040519081526020015b60405180910390f35b6100b0600181565b604051901515815260200161009f565b6100956100ce36600461020f565b61014b565b61009560005481565b6100956220148081565b6100956100f436600461023b565b610193565b61009560015481565b60008061011085858561014b565b9050600154670de0b6b3a76400006000548361012c9190610283565b61013691906102a2565b61014091906102c4565b9150505b9392505050565b60008261015a57506000610144565b8161016584866102c4565b61016f91906102dc565b610181670de0b6b3a764000085610283565b61018b91906102a2565b949350505050565b6000806101a883670de0b6b3a76400006102dc565b905060006101b7878787610102565b90506000670de0b6b3a76400006101ce8484610283565b6101d891906102a2565b9050670de0b6b3a7640000816101ef8a8a8a61014b565b6101f99190610283565b61020391906102a2565b98975050505050505050565b60008060006060848603121561022457600080fd5b505081359360208301359350604090920135919050565b6000806000806080858703121561025157600080fd5b5050823594602084013594506040840135936060013592509050565b634e487b7160e01b600052601160045260246000fd5b600081600019048311821515161561029d5761029d61026d565b500290565b6000826102bf57634e487b7160e01b600052601260045260246000fd5b500490565b600082198211156102d7576102d761026d565b500190565b6000828210156102ee576102ee61026d565b50039056fea2646970667358221220aaafbcb231c27aa45b098afefe1b7f34768084939463b6be74131f1ea7306d2564736f6c634300080a0033",
  "linkReferences": {},
  "deployedLinkReferences": {}
}