{
  "_format": "hh-sol-artifact-1",
  "contractName": "PJSOracle",
  "sourceName": "src/jsOracle.sol",
  "abi": [
    {
      "inputs": [
        {
          "internalType": "contract CToken",
          "name": "token",
          "type": "address"
        }
      ],
      "name": "getUnderlyingPrice",
      "outputs": [
        {
          "internalType": "uint256",
          "name": "",
          "type": "uint256"
        }
      ],
      "stateMutability": "view",
      "type": "function"
    },
    {
      "inputs": [],
      "name": "isPriceOracle",
      "outputs": [
        {
          "internalType": "bool",
          "name": "",
          "type": "bool"
        }
      ],
      "stateMutability": "view",
      "type": "function"
    }
  ],
  "bytecode": "0x608060405234801561001057600080fd5b5060dc8061001f6000396000f3fe6080604052348015600f57600080fd5b506004361060325760003560e01c806366331bba146037578063fc57d4df146053575b600080fd5b603e600181565b60405190151581526020015b60405180910390f35b606b605e3660046078565b50670de0b6b3a764000090565b604051908152602001604a565b600060208284031215608957600080fd5b81356001600160a01b0381168114609f57600080fd5b939250505056fea264697066735822122036f1cd916c8e086f23955c6cb15d297669b377bc9098cc4fe86f08ff5a2740a764736f6c634300080a0033",
  "linkReferences": {},
  "deployedLinkReferences": {}
}